{
  "contractName": "DAI",
  "abi": [
    {
      "inputs": [],
      "stateMutability": "nonpayable",
      "type": "constructor"
    },
    {
      "anonymous": false,
      "inputs": [
        {
          "indexed": true,
          "internalType": "address",
          "name": "owner",
          "type": "address"
        },
        {
          "indexed": true,
          "internalType": "address",
          "name": "spender",
          "type": "address"
        },
        {
          "indexed": false,
          "internalType": "uint256",
          "name": "value",
          "type": "uint256"
        }
      ],
      "name": "Approval",
      "type": "event"
    },
    {
      "anonymous": false,
      "inputs": [
        {
          "indexed": true,
          "internalType": "address",
          "name": "previousOwner",
          "type": "address"
        },
        {
          "indexed": true,
          "internalType": "address",
          "name": "newOwner",
          "type": "address"
        }
      ],
      "name": "OwnershipTransferred",
      "type": "event"
    },
    {
      "anonymous": false,
      "inputs": [
        {
          "indexed": false,
          "internalType": "address",
          "name": "account",
          "type": "address"
        }
      ],
      "name": "Paused",
      "type": "event"
    },
    {
      "anonymous": false,
      "inputs": [
        {
          "indexed": true,
          "internalType": "bytes32",
          "name": "role",
          "type": "bytes32"
        },
        {
          "indexed": true,
          "internalType": "bytes32",
          "name": "previousAdminRole",
          "type": "bytes32"
        },
        {
          "indexed": true,
          "internalType": "bytes32",
          "name": "newAdminRole",
          "type": "bytes32"
        }
      ],
      "name": "RoleAdminChanged",
      "type": "event"
    },
    {
      "anonymous": false,
      "inputs": [
        {
          "indexed": true,
          "internalType": "bytes32",
          "name": "role",
          "type": "bytes32"
        },
        {
          "indexed": true,
          "internalType": "address",
          "name": "account",
          "type": "address"
        },
        {
          "indexed": true,
          "internalType": "address",
          "name": "sender",
          "type": "address"
        }
      ],
      "name": "RoleGranted",
      "type": "event"
    },
    {
      "anonymous": false,
      "inputs": [
        {
          "indexed": true,
          "internalType": "bytes32",
          "name": "role",
          "type": "bytes32"
        },
        {
          "indexed": true,
          "internalType": "address",
          "name": "account",
          "type": "address"
        },
        {
          "indexed": true,
          "internalType": "address",
          "name": "sender",
          "type": "address"
        }
      ],
      "name": "RoleRevoked",
      "type": "event"
    },
    {
      "anonymous": false,
      "inputs": [
        {
          "indexed": true,
          "internalType": "address",
          "name": "from",
          "type": "address"
        },
        {
          "indexed": true,
          "internalType": "address",
          "name": "to",
          "type": "address"
        },
        {
          "indexed": false,
          "internalType": "uint256",
          "name": "value",
          "type": "uint256"
        }
      ],
      "name": "Transfer",
      "type": "event"
    },
    {
      "anonymous": false,
      "inputs": [
        {
          "indexed": false,
          "internalType": "address",
          "name": "account",
          "type": "address"
        }
      ],
      "name": "Unpaused",
      "type": "event"
    },
    {
      "inputs": [],
      "name": "DEFAULT_ADMIN_ROLE",
      "outputs": [
        {
          "internalType": "bytes32",
          "name": "",
          "type": "bytes32"
        }
      ],
      "stateMutability": "view",
      "type": "function",
      "constant": true
    },
    {
      "inputs": [],
      "name": "MINTER_ROLE",
      "outputs": [
        {
          "internalType": "bytes32",
          "name": "",
          "type": "bytes32"
        }
      ],
      "stateMutability": "view",
      "type": "function",
      "constant": true
    },
    {
      "inputs": [],
      "name": "PAUSER_ROLE",
      "outputs": [
        {
          "internalType": "bytes32",
          "name": "",
          "type": "bytes32"
        }
      ],
      "stateMutability": "view",
      "type": "function",
      "constant": true
    },
    {
      "inputs": [
        {
          "internalType": "address",
          "name": "owner",
          "type": "address"
        },
        {
          "internalType": "address",
          "name": "spender",
          "type": "address"
        }
      ],
      "name": "allowance",
      "outputs": [
        {
          "internalType": "uint256",
          "name": "",
          "type": "uint256"
        }
      ],
      "stateMutability": "view",
      "type": "function",
      "constant": true
    },
    {
      "inputs": [
        {
          "internalType": "address",
          "name": "spender",
          "type": "address"
        },
        {
          "internalType": "uint256",
          "name": "amount",
          "type": "uint256"
        }
      ],
      "name": "approve",
      "outputs": [
        {
          "internalType": "bool",
          "name": "",
          "type": "bool"
        }
      ],
      "stateMutability": "nonpayable",
      "type": "function"
    },
    {
      "inputs": [
        {
          "internalType": "address",
          "name": "account",
          "type": "address"
        }
      ],
      "name": "balanceOf",
      "outputs": [
        {
          "internalType": "uint256",
          "name": "",
          "type": "uint256"
        }
      ],
      "stateMutability": "view",
      "type": "function",
      "constant": true
    },
    {
      "inputs": [
        {
          "internalType": "uint256",
          "name": "amount",
          "type": "uint256"
        }
      ],
      "name": "burn",
      "outputs": [],
      "stateMutability": "nonpayable",
      "type": "function"
    },
    {
      "inputs": [
        {
          "internalType": "address",
          "name": "account",
          "type": "address"
        },
        {
          "internalType": "uint256",
          "name": "amount",
          "type": "uint256"
        }
      ],
      "name": "burnFrom",
      "outputs": [],
      "stateMutability": "nonpayable",
      "type": "function"
    },
    {
      "inputs": [],
      "name": "decimals",
      "outputs": [
        {
          "internalType": "uint8",
          "name": "",
          "type": "uint8"
        }
      ],
      "stateMutability": "view",
      "type": "function",
      "constant": true
    },
    {
      "inputs": [
        {
          "internalType": "address",
          "name": "spender",
          "type": "address"
        },
        {
          "internalType": "uint256",
          "name": "subtractedValue",
          "type": "uint256"
        }
      ],
      "name": "decreaseAllowance",
      "outputs": [
        {
          "internalType": "bool",
          "name": "",
          "type": "bool"
        }
      ],
      "stateMutability": "nonpayable",
      "type": "function"
    },
    {
      "inputs": [
        {
          "internalType": "bytes32",
          "name": "role",
          "type": "bytes32"
        }
      ],
      "name": "getRoleAdmin",
      "outputs": [
        {
          "internalType": "bytes32",
          "name": "",
          "type": "bytes32"
        }
      ],
      "stateMutability": "view",
      "type": "function",
      "constant": true
    },
    {
      "inputs": [
        {
          "internalType": "bytes32",
          "name": "role",
          "type": "bytes32"
        },
        {
          "internalType": "uint256",
          "name": "index",
          "type": "uint256"
        }
      ],
      "name": "getRoleMember",
      "outputs": [
        {
          "internalType": "address",
          "name": "",
          "type": "address"
        }
      ],
      "stateMutability": "view",
      "type": "function",
      "constant": true
    },
    {
      "inputs": [
        {
          "internalType": "bytes32",
          "name": "role",
          "type": "bytes32"
        }
      ],
      "name": "getRoleMemberCount",
      "outputs": [
        {
          "internalType": "uint256",
          "name": "",
          "type": "uint256"
        }
      ],
      "stateMutability": "view",
      "type": "function",
      "constant": true
    },
    {
      "inputs": [
        {
          "internalType": "bytes32",
          "name": "role",
          "type": "bytes32"
        },
        {
          "internalType": "address",
          "name": "account",
          "type": "address"
        }
      ],
      "name": "grantRole",
      "outputs": [],
      "stateMutability": "nonpayable",
      "type": "function"
    },
    {
      "inputs": [
        {
          "internalType": "bytes32",
          "name": "role",
          "type": "bytes32"
        },
        {
          "internalType": "address",
          "name": "account",
          "type": "address"
        }
      ],
      "name": "hasRole",
      "outputs": [
        {
          "internalType": "bool",
          "name": "",
          "type": "bool"
        }
      ],
      "stateMutability": "view",
      "type": "function",
      "constant": true
    },
    {
      "inputs": [
        {
          "internalType": "address",
          "name": "spender",
          "type": "address"
        },
        {
          "internalType": "uint256",
          "name": "addedValue",
          "type": "uint256"
        }
      ],
      "name": "increaseAllowance",
      "outputs": [
        {
          "internalType": "bool",
          "name": "",
          "type": "bool"
        }
      ],
      "stateMutability": "nonpayable",
      "type": "function"
    },
    {
      "inputs": [
        {
          "internalType": "address",
          "name": "to",
          "type": "address"
        },
        {
          "internalType": "uint256",
          "name": "amount",
          "type": "uint256"
        }
      ],
      "name": "mint",
      "outputs": [],
      "stateMutability": "nonpayable",
      "type": "function"
    },
    {
      "inputs": [],
      "name": "name",
      "outputs": [
        {
          "internalType": "string",
          "name": "",
          "type": "string"
        }
      ],
      "stateMutability": "view",
      "type": "function",
      "constant": true
    },
    {
      "inputs": [],
      "name": "owner",
      "outputs": [
        {
          "internalType": "address",
          "name": "",
          "type": "address"
        }
      ],
      "stateMutability": "view",
      "type": "function",
      "constant": true
    },
    {
      "inputs": [],
      "name": "pause",
      "outputs": [],
      "stateMutability": "nonpayable",
      "type": "function"
    },
    {
      "inputs": [],
      "name": "paused",
      "outputs": [
        {
          "internalType": "bool",
          "name": "",
          "type": "bool"
        }
      ],
      "stateMutability": "view",
      "type": "function",
      "constant": true
    },
    {
      "inputs": [],
      "name": "renounceOwnership",
      "outputs": [],
      "stateMutability": "nonpayable",
      "type": "function"
    },
    {
      "inputs": [
        {
          "internalType": "bytes32",
          "name": "role",
          "type": "bytes32"
        },
        {
          "internalType": "address",
          "name": "account",
          "type": "address"
        }
      ],
      "name": "renounceRole",
      "outputs": [],
      "stateMutability": "nonpayable",
      "type": "function"
    },
    {
      "inputs": [
        {
          "internalType": "bytes32",
          "name": "role",
          "type": "bytes32"
        },
        {
          "internalType": "address",
          "name": "account",
          "type": "address"
        }
      ],
      "name": "revokeRole",
      "outputs": [],
      "stateMutability": "nonpayable",
      "type": "function"
    },
    {
      "inputs": [
        {
          "internalType": "bytes4",
          "name": "interfaceId",
          "type": "bytes4"
        }
      ],
      "name": "supportsInterface",
      "outputs": [
        {
          "internalType": "bool",
          "name": "",
          "type": "bool"
        }
      ],
      "stateMutability": "view",
      "type": "function",
      "constant": true
    },
    {
      "inputs": [],
      "name": "symbol",
      "outputs": [
        {
          "internalType": "string",
          "name": "",
          "type": "string"
        }
      ],
      "stateMutability": "view",
      "type": "function",
      "constant": true
    },
    {
      "inputs": [],
      "name": "totalSupply",
      "outputs": [
        {
          "internalType": "uint256",
          "name": "",
          "type": "uint256"
        }
      ],
      "stateMutability": "view",
      "type": "function",
      "constant": true
    },
    {
      "inputs": [
        {
          "internalType": "address",
          "name": "recipient",
          "type": "address"
        },
        {
          "internalType": "uint256",
          "name": "amount",
          "type": "uint256"
        }
      ],
      "name": "transfer",
      "outputs": [
        {
          "internalType": "bool",
          "name": "",
          "type": "bool"
        }
      ],
      "stateMutability": "nonpayable",
      "type": "function"
    },
    {
      "inputs": [
        {
          "internalType": "address",
          "name": "sender",
          "type": "address"
        },
        {
          "internalType": "address",
          "name": "recipient",
          "type": "address"
        },
        {
          "internalType": "uint256",
          "name": "amount",
          "type": "uint256"
        }
      ],
      "name": "transferFrom",
      "outputs": [
        {
          "internalType": "bool",
          "name": "",
          "type": "bool"
        }
      ],
      "stateMutability": "nonpayable",
      "type": "function"
    },
    {
      "inputs": [
        {
          "internalType": "address",
          "name": "newOwner",
          "type": "address"
        }
      ],
      "name": "transferOwnership",
      "outputs": [],
      "stateMutability": "nonpayable",
      "type": "function"
    },
    {
      "inputs": [],
      "name": "unpause",
      "outputs": [],
      "stateMutability": "nonpayable",
      "type": "function"
    }
  ],
  "bytecode": "0x60806040523480156200001157600080fd5b506040518060400160405280600381526020017f44414900000000000000000000000000000000000000000000000000000000008152506040518060400160405280600381526020017f4441490000000000000000000000000000000000000000000000000000000000815250818181600590805190602001906200009892919062000788565b508060069080519060200190620000b192919062000788565b5050506000600760006101000a81548160ff021916908315150217905550620000f36000801b620000e76200024a60201b60201c565b6200025260201b60201c565b620001347f9f2df0fed2c77648de5860a4cc508cd0818c85b8b8a1ab4ceeef8d981c8956a6620001286200024a60201b60201c565b6200025260201b60201c565b620001757f65d7a28e3265b37a6474929f336521b332c1681b933f6cb9f3376673440d862a620001696200024a60201b60201c565b6200025260201b60201c565b50506000620001896200024a60201b60201c565b905080600760016101000a81548173ffffffffffffffffffffffffffffffffffffffff021916908373ffffffffffffffffffffffffffffffffffffffff1602179055508073ffffffffffffffffffffffffffffffffffffffff16600073ffffffffffffffffffffffffffffffffffffffff167f8be0079c531659141344cd1fd0a4f28419497f9722a3daafe3b4186f6b6457e060405160405180910390a350620002443369d3c21bcecceda10000006200029a60201b60201c565b62000b14565b600033905090565b6200026982826200033360201b620012731760201c565b6200029581600160008581526020019081526020016000206200034960201b620012811790919060201c565b505050565b620002db7f9f2df0fed2c77648de5860a4cc508cd0818c85b8b8a1ab4ceeef8d981c8956a6620002cf6200024a60201b60201c565b6200038160201b60201c565b6200031d576040517f08c379a00000000000000000000000000000000000000000000000000000000081526004016200031490620008be565b60405180910390fd5b6200032f8282620003eb60201b60201c565b5050565b6200034582826200055160201b60201c565b5050565b600062000379836000018373ffffffffffffffffffffffffffffffffffffffff1660001b6200064260201b60201c565b905092915050565b600080600084815260200190815260200160002060000160008373ffffffffffffffffffffffffffffffffffffffff1673ffffffffffffffffffffffffffffffffffffffff16815260200190815260200160002060009054906101000a900460ff16905092915050565b600073ffffffffffffffffffffffffffffffffffffffff168273ffffffffffffffffffffffffffffffffffffffff1614156200045e576040517f08c379a00000000000000000000000000000000000000000000000000000000081526004016200045590620008e0565b60405180910390fd5b6200047260008383620006bc60201b60201c565b806004600082825462000486919062000952565b9250508190555080600260008473ffffffffffffffffffffffffffffffffffffffff1673ffffffffffffffffffffffffffffffffffffffff1681526020019081526020016000206000828254620004de919062000952565b925050819055508173ffffffffffffffffffffffffffffffffffffffff16600073ffffffffffffffffffffffffffffffffffffffff167fddf252ad1be2c89b69c2b068fc378daa952ba7f163c4a11628f55a4df523b3ef8360405162000545919062000924565b60405180910390a35050565b6200056382826200038160201b60201c565b6200063e57600160008084815260200190815260200160002060000160008373ffffffffffffffffffffffffffffffffffffffff1673ffffffffffffffffffffffffffffffffffffffff16815260200190815260200160002060006101000a81548160ff021916908315150217905550620005e36200024a60201b60201c565b73ffffffffffffffffffffffffffffffffffffffff168173ffffffffffffffffffffffffffffffffffffffff16837f2f8788117e7eff1d82e926ec794901d17c78024a50270940304540a733656f0d60405160405180910390a45b5050565b6000620006568383620006d960201b60201c565b620006b1578260000182908060018154018082558091505060019003906000526020600020016000909190919091505582600001805490508360010160008481526020019081526020016000208190555060019050620006b6565b600090505b92915050565b620006d4838383620006fc60201b620012b11760201c565b505050565b600080836001016000848152602001908152602001600020541415905092915050565b620007148383836200076c60201b620013091760201c565b620007246200077160201b60201c565b1562000767576040517f08c379a00000000000000000000000000000000000000000000000000000000081526004016200075e9062000902565b60405180910390fd5b505050565b505050565b6000600760009054906101000a900460ff16905090565b8280546200079690620009b9565b90600052602060002090601f016020900481019282620007ba576000855562000806565b82601f10620007d557805160ff191683800117855562000806565b8280016001018555821562000806579182015b8281111562000805578251825591602001919060010190620007e8565b5b50905062000815919062000819565b5090565b5b80821115620008345760008160009055506001016200081a565b5090565b60006200084760368362000941565b9150620008548262000a4d565b604082019050919050565b60006200086e601f8362000941565b91506200087b8262000a9c565b602082019050919050565b600062000895602a8362000941565b9150620008a28262000ac5565b604082019050919050565b620008b881620009af565b82525050565b60006020820190508181036000830152620008d98162000838565b9050919050565b60006020820190508181036000830152620008fb816200085f565b9050919050565b600060208201905081810360008301526200091d8162000886565b9050919050565b60006020820190506200093b6000830184620008ad565b92915050565b600082825260208201905092915050565b60006200095f82620009af565b91506200096c83620009af565b9250827fffffffffffffffffffffffffffffffffffffffffffffffffffffffffffffffff03821115620009a457620009a3620009ef565b5b828201905092915050565b6000819050919050565b60006002820490506001821680620009d257607f821691505b60208210811415620009e957620009e862000a1e565b5b50919050565b7f4e487b7100000000000000000000000000000000000000000000000000000000600052601160045260246000fd5b7f4e487b7100000000000000000000000000000000000000000000000000000000600052602260045260246000fd5b7f45524332305072657365744d696e7465725061757365723a206d75737420686160008201527f7665206d696e74657220726f6c6520746f206d696e7400000000000000000000602082015250565b7f45524332303a206d696e7420746f20746865207a65726f206164647265737300600082015250565b7f45524332305061757361626c653a20746f6b656e207472616e7366657220776860008201527f696c652070617573656400000000000000000000000000000000000000000000602082015250565b6138ca8062000b246000396000f3fe608060405234801561001057600080fd5b50600436106101e55760003560e01c8063715018a61161010f578063a457c2d7116100a2578063d547741f11610071578063d547741f14610594578063dd62ed3e146105b0578063e63ab1e9146105e0578063f2fde38b146105fe576101e5565b8063a457c2d7146104e6578063a9059cbb14610516578063ca15c87314610546578063d539139314610576576101e5565b80639010d07c116100de5780639010d07c1461044a57806391d148541461047a57806395d89b41146104aa578063a217fddf146104c8576101e5565b8063715018a6146103fc57806379cc6790146104065780638456cb59146104225780638da5cb5b1461042c576101e5565b8063313ce5671161018757806340c10f191161015657806340c10f191461037657806342966c68146103925780635c975abb146103ae57806370a08231146103cc576101e5565b8063313ce5671461030257806336568abe14610320578063395093511461033c5780633f4ba83a1461036c576101e5565b806318160ddd116101c357806318160ddd1461026857806323b872dd14610286578063248a9ca3146102b65780632f2ff15d146102e6576101e5565b806301ffc9a7146101ea57806306fdde031461021a578063095ea7b314610238575b600080fd5b61020460048036038101906101ff91906126ba565b61061a565b6040516102119190612b66565b60405180910390f35b610222610694565b60405161022f9190612b9c565b60405180910390f35b610252600480360381019061024d91906125cd565b610726565b60405161025f9190612b66565b60405180910390f35b610270610744565b60405161027d9190612e7e565b60405180910390f35b6102a0600480360381019061029b919061257a565b61074e565b6040516102ad9190612b66565b60405180910390f35b6102d060048036038101906102cb919061260d565b61084f565b6040516102dd9190612b81565b60405180910390f35b61030060048036038101906102fb919061263a565b61086e565b005b61030a6108a2565b6040516103179190612e99565b60405180910390f35b61033a6004803603810190610335919061263a565b6108ab565b005b610356600480360381019061035191906125cd565b6108df565b6040516103639190612b66565b60405180910390f35b61037461098b565b005b610390600480360381019061038b91906125cd565b610a05565b005b6103ac60048036038101906103a791906126e7565b610a83565b005b6103b6610a97565b6040516103c39190612b66565b60405180910390f35b6103e660048036038101906103e1919061250d565b610aae565b6040516103f39190612e7e565b60405180910390f35b610404610af7565b005b610420600480360381019061041b91906125cd565b610c34565b005b61042a610cb8565b005b610434610d32565b6040516104419190612b4b565b60405180910390f35b610464600480360381019061045f919061267a565b610d5c565b6040516104719190612b4b565b60405180910390f35b610494600480360381019061048f919061263a565b610d8b565b6040516104a19190612b66565b60405180910390f35b6104b2610df5565b6040516104bf9190612b9c565b60405180910390f35b6104d0610e87565b6040516104dd9190612b81565b60405180910390f35b61050060048036038101906104fb91906125cd565b610e8e565b60405161050d9190612b66565b60405180910390f35b610530600480360381019061052b91906125cd565b610f82565b60405161053d9190612b66565b60405180910390f35b610560600480360381019061055b919061260d565b610fa0565b60405161056d9190612e7e565b60405180910390f35b61057e610fc4565b60405161058b9190612b81565b60405180910390f35b6105ae60048036038101906105a9919061263a565b610fe8565b005b6105ca60048036038101906105c5919061253a565b61101c565b6040516105d79190612e7e565b60405180910390f35b6105e86110a3565b6040516105f59190612b81565b60405180910390f35b6106186004803603810190610613919061250d565b6110c7565b005b60007f5a05180f000000000000000000000000000000000000000000000000000000007bffffffffffffffffffffffffffffffffffffffffffffffffffffffff1916827bffffffffffffffffffffffffffffffffffffffffffffffffffffffff1916148061068d575061068c8261130e565b5b9050919050565b6060600580546106a3906130a7565b80601f01602080910402602001604051908101604052809291908181526020018280546106cf906130a7565b801561071c5780601f106106f15761010080835404028352916020019161071c565b820191906000526020600020905b8154815290600101906020018083116106ff57829003601f168201915b5050505050905090565b600061073a610733611388565b8484611390565b6001905092915050565b6000600454905090565b600061075b84848461155b565b6000600360008673ffffffffffffffffffffffffffffffffffffffff1673ffffffffffffffffffffffffffffffffffffffff16815260200190815260200160002060006107a6611388565b73ffffffffffffffffffffffffffffffffffffffff1673ffffffffffffffffffffffffffffffffffffffff16815260200190815260200160002054905082811015610826576040517f08c379a000000000000000000000000000000000000000000000000000000000815260040161081d90612cfe565b60405180910390fd5b61084385610832611388565b858461083e9190612f8b565b611390565b60019150509392505050565b6000806000838152602001908152602001600020600101549050919050565b61087882826117dd565b61089d816001600085815260200190815260200160002061128190919063ffffffff16565b505050565b60006012905090565b6108b58282611806565b6108da816001600085815260200190815260200160002061188990919063ffffffff16565b505050565b60006109816108ec611388565b8484600360006108fa611388565b73ffffffffffffffffffffffffffffffffffffffff1673ffffffffffffffffffffffffffffffffffffffff16815260200190815260200160002060008873ffffffffffffffffffffffffffffffffffffffff1673ffffffffffffffffffffffffffffffffffffffff1681526020019081526020016000205461097c9190612edb565b611390565b6001905092915050565b6109bc7f65d7a28e3265b37a6474929f336521b332c1681b933f6cb9f3376673440d862a6109b7611388565b610d8b565b6109fb576040517f08c379a00000000000000000000000000000000000000000000000000000000081526004016109f290612c5e565b60405180910390fd5b610a036118b9565b565b610a367f9f2df0fed2c77648de5860a4cc508cd0818c85b8b8a1ab4ceeef8d981c8956a6610a31611388565b610d8b565b610a75576040517f08c379a0000000000000000000000000000000000000000000000000000000008152600401610a6c90612d3e565b60405180910390fd5b610a7f828261195b565b5050565b610a94610a8e611388565b82611ab0565b50565b6000600760009054906101000a900460ff16905090565b6000600260008373ffffffffffffffffffffffffffffffffffffffff1673ffffffffffffffffffffffffffffffffffffffff168152602001908152602001600020549050919050565b610aff611388565b73ffffffffffffffffffffffffffffffffffffffff16610b1d610d32565b73ffffffffffffffffffffffffffffffffffffffff1614610b73576040517f08c379a0000000000000000000000000000000000000000000000000000000008152600401610b6a90612d1e565b60405180910390fd5b600073ffffffffffffffffffffffffffffffffffffffff16600760019054906101000a900473ffffffffffffffffffffffffffffffffffffffff1673ffffffffffffffffffffffffffffffffffffffff167f8be0079c531659141344cd1fd0a4f28419497f9722a3daafe3b4186f6b6457e060405160405180910390a36000600760016101000a81548173ffffffffffffffffffffffffffffffffffffffff021916908373ffffffffffffffffffffffffffffffffffffffff160217905550565b6000610c4783610c42611388565b61101c565b905081811015610c8c576040517f08c379a0000000000000000000000000000000000000000000000000000000008152600401610c8390612d5e565b60405180910390fd5b610ca983610c98611388565b8484610ca49190612f8b565b611390565b610cb38383611ab0565b505050565b610ce97f65d7a28e3265b37a6474929f336521b332c1681b933f6cb9f3376673440d862a610ce4611388565b610d8b565b610d28576040517f08c379a0000000000000000000000000000000000000000000000000000000008152600401610d1f90612dde565b60405180910390fd5b610d30611c86565b565b6000600760019054906101000a900473ffffffffffffffffffffffffffffffffffffffff16905090565b6000610d838260016000868152602001908152602001600020611d2990919063ffffffff16565b905092915050565b600080600084815260200190815260200160002060000160008373ffffffffffffffffffffffffffffffffffffffff1673ffffffffffffffffffffffffffffffffffffffff16815260200190815260200160002060009054906101000a900460ff16905092915050565b606060068054610e04906130a7565b80601f0160208091040260200160405190810160405280929190818152602001828054610e30906130a7565b8015610e7d5780601f10610e5257610100808354040283529160200191610e7d565b820191906000526020600020905b815481529060010190602001808311610e6057829003601f168201915b5050505050905090565b6000801b81565b60008060036000610e9d611388565b73ffffffffffffffffffffffffffffffffffffffff1673ffffffffffffffffffffffffffffffffffffffff16815260200190815260200160002060008573ffffffffffffffffffffffffffffffffffffffff1673ffffffffffffffffffffffffffffffffffffffff16815260200190815260200160002054905082811015610f5a576040517f08c379a0000000000000000000000000000000000000000000000000000000008152600401610f5190612dfe565b60405180910390fd5b610f77610f65611388565b858584610f729190612f8b565b611390565b600191505092915050565b6000610f96610f8f611388565b848461155b565b6001905092915050565b6000610fbd60016000848152602001908152602001600020611d43565b9050919050565b7f9f2df0fed2c77648de5860a4cc508cd0818c85b8b8a1ab4ceeef8d981c8956a681565b610ff28282611d58565b611017816001600085815260200190815260200160002061188990919063ffffffff16565b505050565b6000600360008473ffffffffffffffffffffffffffffffffffffffff1673ffffffffffffffffffffffffffffffffffffffff16815260200190815260200160002060008373ffffffffffffffffffffffffffffffffffffffff1673ffffffffffffffffffffffffffffffffffffffff16815260200190815260200160002054905092915050565b7f65d7a28e3265b37a6474929f336521b332c1681b933f6cb9f3376673440d862a81565b6110cf611388565b73ffffffffffffffffffffffffffffffffffffffff166110ed610d32565b73ffffffffffffffffffffffffffffffffffffffff1614611143576040517f08c379a000000000000000000000000000000000000000000000000000000000815260040161113a90612d1e565b60405180910390fd5b600073ffffffffffffffffffffffffffffffffffffffff168173ffffffffffffffffffffffffffffffffffffffff1614156111b3576040517f08c379a00000000000000000000000000000000000000000000000000000000081526004016111aa90612c7e565b60405180910390fd5b8073ffffffffffffffffffffffffffffffffffffffff16600760019054906101000a900473ffffffffffffffffffffffffffffffffffffffff1673ffffffffffffffffffffffffffffffffffffffff167f8be0079c531659141344cd1fd0a4f28419497f9722a3daafe3b4186f6b6457e060405160405180910390a380600760016101000a81548173ffffffffffffffffffffffffffffffffffffffff021916908373ffffffffffffffffffffffffffffffffffffffff16021790555050565b61127d8282611d81565b5050565b60006112a9836000018373ffffffffffffffffffffffffffffffffffffffff1660001b611e61565b905092915050565b6112bc838383611309565b6112c4610a97565b15611304576040517f08c379a00000000000000000000000000000000000000000000000000000000081526004016112fb90612e5e565b60405180910390fd5b505050565b505050565b60007f7965db0b000000000000000000000000000000000000000000000000000000007bffffffffffffffffffffffffffffffffffffffffffffffffffffffff1916827bffffffffffffffffffffffffffffffffffffffffffffffffffffffff19161480611381575061138082611ed1565b5b9050919050565b600033905090565b600073ffffffffffffffffffffffffffffffffffffffff168373ffffffffffffffffffffffffffffffffffffffff161415611400576040517f08c379a00000000000000000000000000000000000000000000000000000000081526004016113f790612dbe565b60405180910390fd5b600073ffffffffffffffffffffffffffffffffffffffff168273ffffffffffffffffffffffffffffffffffffffff161415611470576040517f08c379a000000000000000000000000000000000000000000000000000000000815260040161146790612c9e565b60405180910390fd5b80600360008573ffffffffffffffffffffffffffffffffffffffff1673ffffffffffffffffffffffffffffffffffffffff16815260200190815260200160002060008473ffffffffffffffffffffffffffffffffffffffff1673ffffffffffffffffffffffffffffffffffffffff168152602001908152602001600020819055508173ffffffffffffffffffffffffffffffffffffffff168373ffffffffffffffffffffffffffffffffffffffff167f8c5be1e5ebec7d5bd14f71427d1e84f3dd0314c0f7b2291e5b200ac8c7c3b9258360405161154e9190612e7e565b60405180910390a3505050565b600073ffffffffffffffffffffffffffffffffffffffff168373ffffffffffffffffffffffffffffffffffffffff1614156115cb576040517f08c379a00000000000000000000000000000000000000000000000000000000081526004016115c290612d9e565b60405180910390fd5b600073ffffffffffffffffffffffffffffffffffffffff168273ffffffffffffffffffffffffffffffffffffffff16141561163b576040517f08c379a000000000000000000000000000000000000000000000000000000000815260040161163290612bfe565b60405180910390fd5b611646838383611f3b565b6000600260008573ffffffffffffffffffffffffffffffffffffffff1673ffffffffffffffffffffffffffffffffffffffff168152602001908152602001600020549050818110156116cd576040517f08c379a00000000000000000000000000000000000000000000000000000000081526004016116c490612cbe565b60405180910390fd5b81816116d99190612f8b565b600260008673ffffffffffffffffffffffffffffffffffffffff1673ffffffffffffffffffffffffffffffffffffffff1681526020019081526020016000208190555081600260008573ffffffffffffffffffffffffffffffffffffffff1673ffffffffffffffffffffffffffffffffffffffff168152602001908152602001600020600082825461176b9190612edb565b925050819055508273ffffffffffffffffffffffffffffffffffffffff168473ffffffffffffffffffffffffffffffffffffffff167fddf252ad1be2c89b69c2b068fc378daa952ba7f163c4a11628f55a4df523b3ef846040516117cf9190612e7e565b60405180910390a350505050565b6117e68261084f565b6117f7816117f2611388565b611f4b565b6118018383611d81565b505050565b61180e611388565b73ffffffffffffffffffffffffffffffffffffffff168173ffffffffffffffffffffffffffffffffffffffff161461187b576040517f08c379a000000000000000000000000000000000000000000000000000000000815260040161187290612e1e565b60405180910390fd5b6118858282611fe8565b5050565b60006118b1836000018373ffffffffffffffffffffffffffffffffffffffff1660001b6120c9565b905092915050565b6118c1610a97565b611900576040517f08c379a00000000000000000000000000000000000000000000000000000000081526004016118f790612c1e565b60405180910390fd5b6000600760006101000a81548160ff0219169083151502179055507f5db9ee0a495bf2e6ff9c91a7834c1ba4fdd244a5e8aa4e537bd38aeae4b073aa611944611388565b6040516119519190612b4b565b60405180910390a1565b600073ffffffffffffffffffffffffffffffffffffffff168273ffffffffffffffffffffffffffffffffffffffff1614156119cb576040517f08c379a00000000000000000000000000000000000000000000000000000000081526004016119c290612e3e565b60405180910390fd5b6119d760008383611f3b565b80600460008282546119e99190612edb565b9250508190555080600260008473ffffffffffffffffffffffffffffffffffffffff1673ffffffffffffffffffffffffffffffffffffffff1681526020019081526020016000206000828254611a3f9190612edb565b925050819055508173ffffffffffffffffffffffffffffffffffffffff16600073ffffffffffffffffffffffffffffffffffffffff167fddf252ad1be2c89b69c2b068fc378daa952ba7f163c4a11628f55a4df523b3ef83604051611aa49190612e7e565b60405180910390a35050565b600073ffffffffffffffffffffffffffffffffffffffff168273ffffffffffffffffffffffffffffffffffffffff161415611b20576040517f08c379a0000000000000000000000000000000000000000000000000000000008152600401611b1790612d7e565b60405180910390fd5b611b2c82600083611f3b565b6000600260008473ffffffffffffffffffffffffffffffffffffffff1673ffffffffffffffffffffffffffffffffffffffff16815260200190815260200160002054905081811015611bb3576040517f08c379a0000000000000000000000000000000000000000000000000000000008152600401611baa90612c3e565b60405180910390fd5b8181611bbf9190612f8b565b600260008573ffffffffffffffffffffffffffffffffffffffff1673ffffffffffffffffffffffffffffffffffffffff168152602001908152602001600020819055508160046000828254611c149190612f8b565b92505081905550600073ffffffffffffffffffffffffffffffffffffffff168373ffffffffffffffffffffffffffffffffffffffff167fddf252ad1be2c89b69c2b068fc378daa952ba7f163c4a11628f55a4df523b3ef84604051611c799190612e7e565b60405180910390a3505050565b611c8e610a97565b15611cce576040517f08c379a0000000000000000000000000000000000000000000000000000000008152600401611cc590612cde565b60405180910390fd5b6001600760006101000a81548160ff0219169083151502179055507f62e78cea01bee320cd4e420270b5ea74000d11b0c9f74754ebdbfc544b05a258611d12611388565b604051611d1f9190612b4b565b60405180910390a1565b6000611d3883600001836121d5565b60001c905092915050565b6000611d5182600001612249565b9050919050565b611d618261084f565b611d7281611d6d611388565b611f4b565b611d7c8383611fe8565b505050565b611d8b8282610d8b565b611e5d57600160008084815260200190815260200160002060000160008373ffffffffffffffffffffffffffffffffffffffff1673ffffffffffffffffffffffffffffffffffffffff16815260200190815260200160002060006101000a81548160ff021916908315150217905550611e02611388565b73ffffffffffffffffffffffffffffffffffffffff168173ffffffffffffffffffffffffffffffffffffffff16837f2f8788117e7eff1d82e926ec794901d17c78024a50270940304540a733656f0d60405160405180910390a45b5050565b6000611e6d838361225a565b611ec6578260000182908060018154018082558091505060019003906000526020600020016000909190919091505582600001805490508360010160008481526020019081526020016000208190555060019050611ecb565b600090505b92915050565b60007f01ffc9a7000000000000000000000000000000000000000000000000000000007bffffffffffffffffffffffffffffffffffffffffffffffffffffffff1916827bffffffffffffffffffffffffffffffffffffffffffffffffffffffff1916149050919050565b611f468383836112b1565b505050565b611f558282610d8b565b611fe457611f7a8173ffffffffffffffffffffffffffffffffffffffff16601461227d565b611f888360001c602061227d565b604051602001611f99929190612b11565b6040516020818303038152906040526040517f08c379a0000000000000000000000000000000000000000000000000000000008152600401611fdb9190612b9c565b60405180910390fd5b5050565b611ff28282610d8b565b156120c557600080600084815260200190815260200160002060000160008373ffffffffffffffffffffffffffffffffffffffff1673ffffffffffffffffffffffffffffffffffffffff16815260200190815260200160002060006101000a81548160ff02191690831515021790555061206a611388565b73ffffffffffffffffffffffffffffffffffffffff168173ffffffffffffffffffffffffffffffffffffffff16837ff6391f5c32d9c69d2a47ea670b442974b53935d1edc7fd64eb21e047a839171b60405160405180910390a45b5050565b600080836001016000848152602001908152602001600020549050600081146121c95760006001826120fb9190612f8b565b90506000600186600001805490506121139190612f8b565b9050600086600001828154811061212d5761212c613166565b5b906000526020600020015490508087600001848154811061215157612150613166565b5b906000526020600020018190555083876001016000838152602001908152602001600020819055508660000180548061218d5761218c613137565b5b600190038181906000526020600020016000905590558660010160008781526020019081526020016000206000905560019450505050506121cf565b60009150505b92915050565b600081836000018054905011612220576040517f08c379a000000000000000000000000000000000000000000000000000000000815260040161221790612bbe565b60405180910390fd5b82600001828154811061223657612235613166565b5b9060005260206000200154905092915050565b600081600001805490509050919050565b600080836001016000848152602001908152602001600020541415905092915050565b6060600060028360026122909190612f31565b61229a9190612edb565b67ffffffffffffffff8111156122b3576122b2613195565b5b6040519080825280601f01601f1916602001820160405280156122e55781602001600182028036833780820191505090505b5090507f30000000000000000000000000000000000000000000000000000000000000008160008151811061231d5761231c613166565b5b60200101907effffffffffffffffffffffffffffffffffffffffffffffffffffffffffffff1916908160001a9053507f78000000000000000000000000000000000000000000000000000000000000008160018151811061238157612380613166565b5b60200101907effffffffffffffffffffffffffffffffffffffffffffffffffffffffffffff1916908160001a905350600060018460026123c19190612f31565b6123cb9190612edb565b90505b600181111561246b577f3031323334353637383961626364656600000000000000000000000000000000600f86166010811061240d5761240c613166565b5b1a60f81b82828151811061242457612423613166565b5b60200101907effffffffffffffffffffffffffffffffffffffffffffffffffffffffffffff1916908160001a905350600485901c9450806124649061307d565b90506123ce565b50600084146124af576040517f08c379a00000000000000000000000000000000000000000000000000000000081526004016124a690612bde565b60405180910390fd5b8091505092915050565b6000813590506124c881613838565b92915050565b6000813590506124dd8161384f565b92915050565b6000813590506124f281613866565b92915050565b6000813590506125078161387d565b92915050565b600060208284031215612523576125226131c4565b5b6000612531848285016124b9565b91505092915050565b60008060408385031215612551576125506131c4565b5b600061255f858286016124b9565b9250506020612570858286016124b9565b9150509250929050565b600080600060608486031215612593576125926131c4565b5b60006125a1868287016124b9565b93505060206125b2868287016124b9565b92505060406125c3868287016124f8565b9150509250925092565b600080604083850312156125e4576125e36131c4565b5b60006125f2858286016124b9565b9250506020612603858286016124f8565b9150509250929050565b600060208284031215612623576126226131c4565b5b6000612631848285016124ce565b91505092915050565b60008060408385031215612651576126506131c4565b5b600061265f858286016124ce565b9250506020612670858286016124b9565b9150509250929050565b60008060408385031215612691576126906131c4565b5b600061269f858286016124ce565b92505060206126b0858286016124f8565b9150509250929050565b6000602082840312156126d0576126cf6131c4565b5b60006126de848285016124e3565b91505092915050565b6000602082840312156126fd576126fc6131c4565b5b600061270b848285016124f8565b91505092915050565b61271d81612fbf565b82525050565b61272c81612fd1565b82525050565b61273b81612fdd565b82525050565b600061274c82612eb4565b6127568185612ebf565b935061276681856020860161304a565b61276f816131c9565b840191505092915050565b600061278582612eb4565b61278f8185612ed0565b935061279f81856020860161304a565b80840191505092915050565b60006127b8602283612ebf565b91506127c3826131da565b604082019050919050565b60006127db602083612ebf565b91506127e682613229565b602082019050919050565b60006127fe602383612ebf565b915061280982613252565b604082019050919050565b6000612821601483612ebf565b915061282c826132a1565b602082019050919050565b6000612844602283612ebf565b915061284f826132ca565b604082019050919050565b6000612867603983612ebf565b915061287282613319565b604082019050919050565b600061288a602683612ebf565b915061289582613368565b604082019050919050565b60006128ad602283612ebf565b91506128b8826133b7565b604082019050919050565b60006128d0602683612ebf565b91506128db82613406565b604082019050919050565b60006128f3601083612ebf565b91506128fe82613455565b602082019050919050565b6000612916602883612ebf565b91506129218261347e565b604082019050919050565b6000612939602083612ebf565b9150612944826134cd565b602082019050919050565b600061295c603683612ebf565b9150612967826134f6565b604082019050919050565b600061297f602483612ebf565b915061298a82613545565b604082019050919050565b60006129a2602183612ebf565b91506129ad82613594565b604082019050919050565b60006129c5602583612ebf565b91506129d0826135e3565b604082019050919050565b60006129e8602483612ebf565b91506129f382613632565b604082019050919050565b6000612a0b603783612ebf565b9150612a1682613681565b604082019050919050565b6000612a2e601783612ed0565b9150612a39826136d0565b601782019050919050565b6000612a51602583612ebf565b9150612a5c826136f9565b604082019050919050565b6000612a74601183612ed0565b9150612a7f82613748565b601182019050919050565b6000612a97602f83612ebf565b9150612aa282613771565b604082019050919050565b6000612aba601f83612ebf565b9150612ac5826137c0565b602082019050919050565b6000612add602a83612ebf565b9150612ae8826137e9565b604082019050919050565b612afc81613033565b82525050565b612b0b8161303d565b82525050565b6000612b1c82612a21565b9150612b28828561277a565b9150612b3382612a67565b9150612b3f828461277a565b91508190509392505050565b6000602082019050612b606000830184612714565b92915050565b6000602082019050612b7b6000830184612723565b92915050565b6000602082019050612b966000830184612732565b92915050565b60006020820190508181036000830152612bb68184612741565b905092915050565b60006020820190508181036000830152612bd7816127ab565b9050919050565b60006020820190508181036000830152612bf7816127ce565b9050919050565b60006020820190508181036000830152612c17816127f1565b9050919050565b60006020820190508181036000830152612c3781612814565b9050919050565b60006020820190508181036000830152612c5781612837565b9050919050565b60006020820190508181036000830152612c778161285a565b9050919050565b60006020820190508181036000830152612c978161287d565b9050919050565b60006020820190508181036000830152612cb7816128a0565b9050919050565b60006020820190508181036000830152612cd7816128c3565b9050919050565b60006020820190508181036000830152612cf7816128e6565b9050919050565b60006020820190508181036000830152612d1781612909565b9050919050565b60006020820190508181036000830152612d378161292c565b9050919050565b60006020820190508181036000830152612d578161294f565b9050919050565b60006020820190508181036000830152612d7781612972565b9050919050565b60006020820190508181036000830152612d9781612995565b9050919050565b60006020820190508181036000830152612db7816129b8565b9050919050565b60006020820190508181036000830152612dd7816129db565b9050919050565b60006020820190508181036000830152612df7816129fe565b9050919050565b60006020820190508181036000830152612e1781612a44565b9050919050565b60006020820190508181036000830152612e3781612a8a565b9050919050565b60006020820190508181036000830152612e5781612aad565b9050919050565b60006020820190508181036000830152612e7781612ad0565b9050919050565b6000602082019050612e936000830184612af3565b92915050565b6000602082019050612eae6000830184612b02565b92915050565b600081519050919050565b600082825260208201905092915050565b600081905092915050565b6000612ee682613033565b9150612ef183613033565b9250827fffffffffffffffffffffffffffffffffffffffffffffffffffffffffffffffff03821115612f2657612f256130d9565b5b828201905092915050565b6000612f3c82613033565b9150612f4783613033565b9250817fffffffffffffffffffffffffffffffffffffffffffffffffffffffffffffffff0483118215151615612f8057612f7f6130d9565b5b828202905092915050565b6000612f9682613033565b9150612fa183613033565b925082821015612fb457612fb36130d9565b5b828203905092915050565b6000612fca82613013565b9050919050565b60008115159050919050565b6000819050919050565b60007fffffffff0000000000000000000000000000000000000000000000000000000082169050919050565b600073ffffffffffffffffffffffffffffffffffffffff82169050919050565b6000819050919050565b600060ff82169050919050565b60005b8381101561306857808201518184015260208101905061304d565b83811115613077576000848401525b50505050565b600061308882613033565b9150600082141561309c5761309b6130d9565b5b600182039050919050565b600060028204905060018216806130bf57607f821691505b602082108114156130d3576130d2613108565b5b50919050565b7f4e487b7100000000000000000000000000000000000000000000000000000000600052601160045260246000fd5b7f4e487b7100000000000000000000000000000000000000000000000000000000600052602260045260246000fd5b7f4e487b7100000000000000000000000000000000000000000000000000000000600052603160045260246000fd5b7f4e487b7100000000000000000000000000000000000000000000000000000000600052603260045260246000fd5b7f4e487b7100000000000000000000000000000000000000000000000000000000600052604160045260246000fd5b600080fd5b6000601f19601f8301169050919050565b7f456e756d657261626c655365743a20696e646578206f7574206f6620626f756e60008201527f6473000000000000000000000000000000000000000000000000000000000000602082015250565b7f537472696e67733a20686578206c656e67746820696e73756666696369656e74600082015250565b7f45524332303a207472616e7366657220746f20746865207a65726f206164647260008201527f6573730000000000000000000000000000000000000000000000000000000000602082015250565b7f5061757361626c653a206e6f7420706175736564000000000000000000000000600082015250565b7f45524332303a206275726e20616d6f756e7420657863656564732062616c616e60008201527f6365000000000000000000000000000000000000000000000000000000000000602082015250565b7f45524332305072657365744d696e7465725061757365723a206d75737420686160008201527f76652070617573657220726f6c6520746f20756e706175736500000000000000602082015250565b7f4f776e61626c653a206e6577206f776e657220697320746865207a65726f206160008201527f6464726573730000000000000000000000000000000000000000000000000000602082015250565b7f45524332303a20617070726f766520746f20746865207a65726f20616464726560008201527f7373000000000000000000000000000000000000000000000000000000000000602082015250565b7f45524332303a207472616e7366657220616d6f756e742065786365656473206260008201527f616c616e63650000000000000000000000000000000000000000000000000000602082015250565b7f5061757361626c653a2070617573656400000000000000000000000000000000600082015250565b7f45524332303a207472616e7366657220616d6f756e742065786365656473206160008201527f6c6c6f77616e6365000000000000000000000000000000000000000000000000602082015250565b7f4f776e61626c653a2063616c6c6572206973206e6f7420746865206f776e6572600082015250565b7f45524332305072657365744d696e7465725061757365723a206d75737420686160008201527f7665206d696e74657220726f6c6520746f206d696e7400000000000000000000602082015250565b7f45524332303a206275726e20616d6f756e74206578636565647320616c6c6f7760008201527f616e636500000000000000000000000000000000000000000000000000000000602082015250565b7f45524332303a206275726e2066726f6d20746865207a65726f2061646472657360008201527f7300000000000000000000000000000000000000000000000000000000000000602082015250565b7f45524332303a207472616e736665722066726f6d20746865207a65726f20616460008201527f6472657373000000000000000000000000000000000000000000000000000000602082015250565b7f45524332303a20617070726f76652066726f6d20746865207a65726f2061646460008201527f7265737300000000000000000000000000000000000000000000000000000000602082015250565b7f45524332305072657365744d696e7465725061757365723a206d75737420686160008201527f76652070617573657220726f6c6520746f207061757365000000000000000000602082015250565b7f416363657373436f6e74726f6c3a206163636f756e7420000000000000000000600082015250565b7f45524332303a2064656372656173656420616c6c6f77616e63652062656c6f7760008201527f207a65726f000000000000000000000000000000000000000000000000000000602082015250565b7f206973206d697373696e6720726f6c6520000000000000000000000000000000600082015250565b7f416363657373436f6e74726f6c3a2063616e206f6e6c792072656e6f756e636560008201527f20726f6c657320666f722073656c660000000000000000000000000000000000602082015250565b7f45524332303a206d696e7420746f20746865207a65726f206164647265737300600082015250565b7f45524332305061757361626c653a20746f6b656e207472616e7366657220776860008201527f696c652070617573656400000000000000000000000000000000000000000000602082015250565b61384181612fbf565b811461384c57600080fd5b50565b61385881612fdd565b811461386357600080fd5b50565b61386f81612fe7565b811461387a57600080fd5b50565b61388681613033565b811461389157600080fd5b5056fea264697066735822122028d80f556c45d94638c6e219b9337f3f86bafee4bd23e6cbc3b5bf1e7c83978564736f6c63430008060033",
  "immutableReferences": {},
  "source": "// SPDX-License-Identifier: MIT\npragma solidity ^0.8.0;\n\nimport \"@openzeppelin/contracts/access/Ownable.sol\";\nimport \"@openzeppelin/contracts/token/ERC20/presets/ERC20PresetMinterPauser.sol\";\n\ncontract DAI is ERC20PresetMinterPauser, Ownable {\n    constructor() ERC20PresetMinterPauser(\"DAI\", \"DAI\") {\n        mint(msg.sender, 1000000 ether);\n    }\n}\n",
  "sourcePath": "/home/rogelio/Code/xdv/nft-document-swap/contracts/DAI.sol",
  "compiler": {
    "name": "solc",
    "version": "0.8.6+commit.11564f7e.Emscripten.clang"
  },
  "schemaVersion": "3.4.0",
  "updatedAt": "2021-07-06T18:36:27.938Z",
  "networkType": "ethereum",
  "devdoc": {
    "kind": "dev",
    "methods": {
      "allowance(address,address)": {
        "details": "See {IERC20-allowance}."
      },
      "approve(address,uint256)": {
        "details": "See {IERC20-approve}. Requirements: - `spender` cannot be the zero address."
      },
      "balanceOf(address)": {
        "details": "See {IERC20-balanceOf}."
      },
      "burn(uint256)": {
        "details": "Destroys `amount` tokens from the caller. See {ERC20-_burn}."
      },
      "burnFrom(address,uint256)": {
        "details": "Destroys `amount` tokens from `account`, deducting from the caller's allowance. See {ERC20-_burn} and {ERC20-allowance}. Requirements: - the caller must have allowance for ``accounts``'s tokens of at least `amount`."
      },
      "decimals()": {
        "details": "Returns the number of decimals used to get its user representation. For example, if `decimals` equals `2`, a balance of `505` tokens should be displayed to a user as `5,05` (`505 / 10 ** 2`). Tokens usually opt for a value of 18, imitating the relationship between Ether and Wei. This is the value {ERC20} uses, unless this function is overridden; NOTE: This information is only used for _display_ purposes: it in no way affects any of the arithmetic of the contract, including {IERC20-balanceOf} and {IERC20-transfer}."
      },
      "decreaseAllowance(address,uint256)": {
        "details": "Atomically decreases the allowance granted to `spender` by the caller. This is an alternative to {approve} that can be used as a mitigation for problems described in {IERC20-approve}. Emits an {Approval} event indicating the updated allowance. Requirements: - `spender` cannot be the zero address. - `spender` must have allowance for the caller of at least `subtractedValue`."
      },
      "getRoleAdmin(bytes32)": {
        "details": "Returns the admin role that controls `role`. See {grantRole} and {revokeRole}. To change a role's admin, use {_setRoleAdmin}."
      },
      "getRoleMember(bytes32,uint256)": {
        "details": "Returns one of the accounts that have `role`. `index` must be a value between 0 and {getRoleMemberCount}, non-inclusive. Role bearers are not sorted in any particular way, and their ordering may change at any point. WARNING: When using {getRoleMember} and {getRoleMemberCount}, make sure you perform all queries on the same block. See the following https://forum.openzeppelin.com/t/iterating-over-elements-on-enumerableset-in-openzeppelin-contracts/2296[forum post] for more information."
      },
      "getRoleMemberCount(bytes32)": {
        "details": "Returns the number of accounts that have `role`. Can be used together with {getRoleMember} to enumerate all bearers of a role."
      },
      "grantRole(bytes32,address)": {
        "details": "Overload {grantRole} to track enumerable memberships"
      },
      "hasRole(bytes32,address)": {
        "details": "Returns `true` if `account` has been granted `role`."
      },
      "increaseAllowance(address,uint256)": {
        "details": "Atomically increases the allowance granted to `spender` by the caller. This is an alternative to {approve} that can be used as a mitigation for problems described in {IERC20-approve}. Emits an {Approval} event indicating the updated allowance. Requirements: - `spender` cannot be the zero address."
      },
      "mint(address,uint256)": {
        "details": "Creates `amount` new tokens for `to`. See {ERC20-_mint}. Requirements: - the caller must have the `MINTER_ROLE`."
      },
      "name()": {
        "details": "Returns the name of the token."
      },
      "owner()": {
        "details": "Returns the address of the current owner."
      },
      "pause()": {
        "details": "Pauses all token transfers. See {ERC20Pausable} and {Pausable-_pause}. Requirements: - the caller must have the `PAUSER_ROLE`."
      },
      "paused()": {
        "details": "Returns true if the contract is paused, and false otherwise."
      },
      "renounceOwnership()": {
        "details": "Leaves the contract without owner. It will not be possible to call `onlyOwner` functions anymore. Can only be called by the current owner. NOTE: Renouncing ownership will leave the contract without an owner, thereby removing any functionality that is only available to the owner."
      },
      "renounceRole(bytes32,address)": {
        "details": "Overload {renounceRole} to track enumerable memberships"
      },
      "revokeRole(bytes32,address)": {
        "details": "Overload {revokeRole} to track enumerable memberships"
      },
      "supportsInterface(bytes4)": {
        "details": "See {IERC165-supportsInterface}."
      },
      "symbol()": {
        "details": "Returns the symbol of the token, usually a shorter version of the name."
      },
      "totalSupply()": {
        "details": "See {IERC20-totalSupply}."
      },
      "transfer(address,uint256)": {
        "details": "See {IERC20-transfer}. Requirements: - `recipient` cannot be the zero address. - the caller must have a balance of at least `amount`."
      },
      "transferFrom(address,address,uint256)": {
        "details": "See {IERC20-transferFrom}. Emits an {Approval} event indicating the updated allowance. This is not required by the EIP. See the note at the beginning of {ERC20}. Requirements: - `sender` and `recipient` cannot be the zero address. - `sender` must have a balance of at least `amount`. - the caller must have allowance for ``sender``'s tokens of at least `amount`."
      },
      "transferOwnership(address)": {
        "details": "Transfers ownership of the contract to a new account (`newOwner`). Can only be called by the current owner."
      },
      "unpause()": {
        "details": "Unpauses all token transfers. See {ERC20Pausable} and {Pausable-_unpause}. Requirements: - the caller must have the `PAUSER_ROLE`."
      }
    },
    "version": 1
  },
  "userdoc": {
    "kind": "user",
    "methods": {},
    "version": 1
  }
}