{
  "contractName": "DAI",
  "abi": [
    {
      "inputs": [],
      "stateMutability": "nonpayable",
      "type": "constructor"
    },
    {
      "anonymous": false,
      "inputs": [
        {
          "indexed": true,
          "internalType": "address",
          "name": "owner",
          "type": "address"
        },
        {
          "indexed": true,
          "internalType": "address",
          "name": "spender",
          "type": "address"
        },
        {
          "indexed": false,
          "internalType": "uint256",
          "name": "value",
          "type": "uint256"
        }
      ],
      "name": "Approval",
      "type": "event"
    },
    {
      "anonymous": false,
      "inputs": [
        {
          "indexed": true,
          "internalType": "address",
          "name": "previousOwner",
          "type": "address"
        },
        {
          "indexed": true,
          "internalType": "address",
          "name": "newOwner",
          "type": "address"
        }
      ],
      "name": "OwnershipTransferred",
      "type": "event"
    },
    {
      "anonymous": false,
      "inputs": [
        {
          "indexed": false,
          "internalType": "address",
          "name": "account",
          "type": "address"
        }
      ],
      "name": "Paused",
      "type": "event"
    },
    {
      "anonymous": false,
      "inputs": [
        {
          "indexed": true,
          "internalType": "bytes32",
          "name": "role",
          "type": "bytes32"
        },
        {
          "indexed": true,
          "internalType": "bytes32",
          "name": "previousAdminRole",
          "type": "bytes32"
        },
        {
          "indexed": true,
          "internalType": "bytes32",
          "name": "newAdminRole",
          "type": "bytes32"
        }
      ],
      "name": "RoleAdminChanged",
      "type": "event"
    },
    {
      "anonymous": false,
      "inputs": [
        {
          "indexed": true,
          "internalType": "bytes32",
          "name": "role",
          "type": "bytes32"
        },
        {
          "indexed": true,
          "internalType": "address",
          "name": "account",
          "type": "address"
        },
        {
          "indexed": true,
          "internalType": "address",
          "name": "sender",
          "type": "address"
        }
      ],
      "name": "RoleGranted",
      "type": "event"
    },
    {
      "anonymous": false,
      "inputs": [
        {
          "indexed": true,
          "internalType": "bytes32",
          "name": "role",
          "type": "bytes32"
        },
        {
          "indexed": true,
          "internalType": "address",
          "name": "account",
          "type": "address"
        },
        {
          "indexed": true,
          "internalType": "address",
          "name": "sender",
          "type": "address"
        }
      ],
      "name": "RoleRevoked",
      "type": "event"
    },
    {
      "anonymous": false,
      "inputs": [
        {
          "indexed": true,
          "internalType": "address",
          "name": "from",
          "type": "address"
        },
        {
          "indexed": true,
          "internalType": "address",
          "name": "to",
          "type": "address"
        },
        {
          "indexed": false,
          "internalType": "uint256",
          "name": "value",
          "type": "uint256"
        }
      ],
      "name": "Transfer",
      "type": "event"
    },
    {
      "anonymous": false,
      "inputs": [
        {
          "indexed": false,
          "internalType": "address",
          "name": "account",
          "type": "address"
        }
      ],
      "name": "Unpaused",
      "type": "event"
    },
    {
      "inputs": [],
      "name": "DEFAULT_ADMIN_ROLE",
      "outputs": [
        {
          "internalType": "bytes32",
          "name": "",
          "type": "bytes32"
        }
      ],
      "stateMutability": "view",
      "type": "function"
    },
    {
      "inputs": [],
      "name": "MINTER_ROLE",
      "outputs": [
        {
          "internalType": "bytes32",
          "name": "",
          "type": "bytes32"
        }
      ],
      "stateMutability": "view",
      "type": "function"
    },
    {
      "inputs": [],
      "name": "PAUSER_ROLE",
      "outputs": [
        {
          "internalType": "bytes32",
          "name": "",
          "type": "bytes32"
        }
      ],
      "stateMutability": "view",
      "type": "function"
    },
    {
      "inputs": [
        {
          "internalType": "address",
          "name": "owner",
          "type": "address"
        },
        {
          "internalType": "address",
          "name": "spender",
          "type": "address"
        }
      ],
      "name": "allowance",
      "outputs": [
        {
          "internalType": "uint256",
          "name": "",
          "type": "uint256"
        }
      ],
      "stateMutability": "view",
      "type": "function"
    },
    {
      "inputs": [
        {
          "internalType": "address",
          "name": "spender",
          "type": "address"
        },
        {
          "internalType": "uint256",
          "name": "amount",
          "type": "uint256"
        }
      ],
      "name": "approve",
      "outputs": [
        {
          "internalType": "bool",
          "name": "",
          "type": "bool"
        }
      ],
      "stateMutability": "nonpayable",
      "type": "function"
    },
    {
      "inputs": [
        {
          "internalType": "address",
          "name": "account",
          "type": "address"
        }
      ],
      "name": "balanceOf",
      "outputs": [
        {
          "internalType": "uint256",
          "name": "",
          "type": "uint256"
        }
      ],
      "stateMutability": "view",
      "type": "function"
    },
    {
      "inputs": [
        {
          "internalType": "uint256",
          "name": "amount",
          "type": "uint256"
        }
      ],
      "name": "burn",
      "outputs": [],
      "stateMutability": "nonpayable",
      "type": "function"
    },
    {
      "inputs": [
        {
          "internalType": "address",
          "name": "account",
          "type": "address"
        },
        {
          "internalType": "uint256",
          "name": "amount",
          "type": "uint256"
        }
      ],
      "name": "burnFrom",
      "outputs": [],
      "stateMutability": "nonpayable",
      "type": "function"
    },
    {
      "inputs": [],
      "name": "decimals",
      "outputs": [
        {
          "internalType": "uint8",
          "name": "",
          "type": "uint8"
        }
      ],
      "stateMutability": "view",
      "type": "function"
    },
    {
      "inputs": [
        {
          "internalType": "address",
          "name": "spender",
          "type": "address"
        },
        {
          "internalType": "uint256",
          "name": "subtractedValue",
          "type": "uint256"
        }
      ],
      "name": "decreaseAllowance",
      "outputs": [
        {
          "internalType": "bool",
          "name": "",
          "type": "bool"
        }
      ],
      "stateMutability": "nonpayable",
      "type": "function"
    },
    {
      "inputs": [
        {
          "internalType": "bytes32",
          "name": "role",
          "type": "bytes32"
        }
      ],
      "name": "getRoleAdmin",
      "outputs": [
        {
          "internalType": "bytes32",
          "name": "",
          "type": "bytes32"
        }
      ],
      "stateMutability": "view",
      "type": "function"
    },
    {
      "inputs": [
        {
          "internalType": "bytes32",
          "name": "role",
          "type": "bytes32"
        },
        {
          "internalType": "uint256",
          "name": "index",
          "type": "uint256"
        }
      ],
      "name": "getRoleMember",
      "outputs": [
        {
          "internalType": "address",
          "name": "",
          "type": "address"
        }
      ],
      "stateMutability": "view",
      "type": "function"
    },
    {
      "inputs": [
        {
          "internalType": "bytes32",
          "name": "role",
          "type": "bytes32"
        }
      ],
      "name": "getRoleMemberCount",
      "outputs": [
        {
          "internalType": "uint256",
          "name": "",
          "type": "uint256"
        }
      ],
      "stateMutability": "view",
      "type": "function"
    },
    {
      "inputs": [
        {
          "internalType": "bytes32",
          "name": "role",
          "type": "bytes32"
        },
        {
          "internalType": "address",
          "name": "account",
          "type": "address"
        }
      ],
      "name": "grantRole",
      "outputs": [],
      "stateMutability": "nonpayable",
      "type": "function"
    },
    {
      "inputs": [
        {
          "internalType": "bytes32",
          "name": "role",
          "type": "bytes32"
        },
        {
          "internalType": "address",
          "name": "account",
          "type": "address"
        }
      ],
      "name": "hasRole",
      "outputs": [
        {
          "internalType": "bool",
          "name": "",
          "type": "bool"
        }
      ],
      "stateMutability": "view",
      "type": "function"
    },
    {
      "inputs": [
        {
          "internalType": "address",
          "name": "spender",
          "type": "address"
        },
        {
          "internalType": "uint256",
          "name": "addedValue",
          "type": "uint256"
        }
      ],
      "name": "increaseAllowance",
      "outputs": [
        {
          "internalType": "bool",
          "name": "",
          "type": "bool"
        }
      ],
      "stateMutability": "nonpayable",
      "type": "function"
    },
    {
      "inputs": [
        {
          "internalType": "address",
          "name": "to",
          "type": "address"
        },
        {
          "internalType": "uint256",
          "name": "amount",
          "type": "uint256"
        }
      ],
      "name": "mint",
      "outputs": [],
      "stateMutability": "nonpayable",
      "type": "function"
    },
    {
      "inputs": [],
      "name": "name",
      "outputs": [
        {
          "internalType": "string",
          "name": "",
          "type": "string"
        }
      ],
      "stateMutability": "view",
      "type": "function"
    },
    {
      "inputs": [],
      "name": "owner",
      "outputs": [
        {
          "internalType": "address",
          "name": "",
          "type": "address"
        }
      ],
      "stateMutability": "view",
      "type": "function"
    },
    {
      "inputs": [],
      "name": "pause",
      "outputs": [],
      "stateMutability": "nonpayable",
      "type": "function"
    },
    {
      "inputs": [],
      "name": "paused",
      "outputs": [
        {
          "internalType": "bool",
          "name": "",
          "type": "bool"
        }
      ],
      "stateMutability": "view",
      "type": "function"
    },
    {
      "inputs": [],
      "name": "renounceOwnership",
      "outputs": [],
      "stateMutability": "nonpayable",
      "type": "function"
    },
    {
      "inputs": [
        {
          "internalType": "bytes32",
          "name": "role",
          "type": "bytes32"
        },
        {
          "internalType": "address",
          "name": "account",
          "type": "address"
        }
      ],
      "name": "renounceRole",
      "outputs": [],
      "stateMutability": "nonpayable",
      "type": "function"
    },
    {
      "inputs": [
        {
          "internalType": "bytes32",
          "name": "role",
          "type": "bytes32"
        },
        {
          "internalType": "address",
          "name": "account",
          "type": "address"
        }
      ],
      "name": "revokeRole",
      "outputs": [],
      "stateMutability": "nonpayable",
      "type": "function"
    },
    {
      "inputs": [
        {
          "internalType": "bytes4",
          "name": "interfaceId",
          "type": "bytes4"
        }
      ],
      "name": "supportsInterface",
      "outputs": [
        {
          "internalType": "bool",
          "name": "",
          "type": "bool"
        }
      ],
      "stateMutability": "view",
      "type": "function"
    },
    {
      "inputs": [],
      "name": "symbol",
      "outputs": [
        {
          "internalType": "string",
          "name": "",
          "type": "string"
        }
      ],
      "stateMutability": "view",
      "type": "function"
    },
    {
      "inputs": [],
      "name": "totalSupply",
      "outputs": [
        {
          "internalType": "uint256",
          "name": "",
          "type": "uint256"
        }
      ],
      "stateMutability": "view",
      "type": "function"
    },
    {
      "inputs": [
        {
          "internalType": "address",
          "name": "recipient",
          "type": "address"
        },
        {
          "internalType": "uint256",
          "name": "amount",
          "type": "uint256"
        }
      ],
      "name": "transfer",
      "outputs": [
        {
          "internalType": "bool",
          "name": "",
          "type": "bool"
        }
      ],
      "stateMutability": "nonpayable",
      "type": "function"
    },
    {
      "inputs": [
        {
          "internalType": "address",
          "name": "sender",
          "type": "address"
        },
        {
          "internalType": "address",
          "name": "recipient",
          "type": "address"
        },
        {
          "internalType": "uint256",
          "name": "amount",
          "type": "uint256"
        }
      ],
      "name": "transferFrom",
      "outputs": [
        {
          "internalType": "bool",
          "name": "",
          "type": "bool"
        }
      ],
      "stateMutability": "nonpayable",
      "type": "function"
    },
    {
      "inputs": [
        {
          "internalType": "address",
          "name": "newOwner",
          "type": "address"
        }
      ],
      "name": "transferOwnership",
      "outputs": [],
      "stateMutability": "nonpayable",
      "type": "function"
    },
    {
      "inputs": [],
      "name": "unpause",
      "outputs": [],
      "stateMutability": "nonpayable",
      "type": "function"
    }
  ],
  "bytecode": "0x60806040523480156200001157600080fd5b506040518060400160405280600381526020017f44414900000000000000000000000000000000000000000000000000000000008152506040518060400160405280600381526020017f4441490000000000000000000000000000000000000000000000000000000000815250818181600590805190602001906200009892919062000788565b508060069080519060200190620000b192919062000788565b5050506000600760006101000a81548160ff021916908315150217905550620000f36000801b620000e76200024a60201b60201c565b6200025260201b60201c565b620001347f9f2df0fed2c77648de5860a4cc508cd0818c85b8b8a1ab4ceeef8d981c8956a6620001286200024a60201b60201c565b6200025260201b60201c565b620001757f65d7a28e3265b37a6474929f336521b332c1681b933f6cb9f3376673440d862a620001696200024a60201b60201c565b6200025260201b60201c565b50506000620001896200024a60201b60201c565b905080600760016101000a81548173ffffffffffffffffffffffffffffffffffffffff021916908373ffffffffffffffffffffffffffffffffffffffff1602179055508073ffffffffffffffffffffffffffffffffffffffff16600073ffffffffffffffffffffffffffffffffffffffff167f8be0079c531659141344cd1fd0a4f28419497f9722a3daafe3b4186f6b6457e060405160405180910390a350620002443369d3c21bcecceda10000006200029a60201b60201c565b62000b14565b600033905090565b6200026982826200033360201b620012731760201c565b6200029581600160008581526020019081526020016000206200034960201b620012811790919060201c565b505050565b620002db7f9f2df0fed2c77648de5860a4cc508cd0818c85b8b8a1ab4ceeef8d981c8956a6620002cf6200024a60201b60201c565b6200038160201b60201c565b6200031d576040517f08c379a00000000000000000000000000000000000000000000000000000000081526004016200031490620008be565b60405180910390fd5b6200032f8282620003eb60201b60201c565b5050565b6200034582826200055160201b60201c565b5050565b600062000379836000018373ffffffffffffffffffffffffffffffffffffffff1660001b6200064260201b60201c565b905092915050565b600080600084815260200190815260200160002060000160008373ffffffffffffffffffffffffffffffffffffffff1673ffffffffffffffffffffffffffffffffffffffff16815260200190815260200160002060009054906101000a900460ff16905092915050565b600073ffffffffffffffffffffffffffffffffffffffff168273ffffffffffffffffffffffffffffffffffffffff1614156200045e576040517f08c379a00000000000000000000000000000000000000000000000000000000081526004016200045590620008e0565b60405180910390fd5b6200047260008383620006bc60201b60201c565b806004600082825462000486919062000952565b9250508190555080600260008473ffffffffffffffffffffffffffffffffffffffff1673ffffffffffffffffffffffffffffffffffffffff1681526020019081526020016000206000828254620004de919062000952565b925050819055508173ffffffffffffffffffffffffffffffffffffffff16600073ffffffffffffffffffffffffffffffffffffffff167fddf252ad1be2c89b69c2b068fc378daa952ba7f163c4a11628f55a4df523b3ef8360405162000545919062000924565b60405180910390a35050565b6200056382826200038160201b60201c565b6200063e57600160008084815260200190815260200160002060000160008373ffffffffffffffffffffffffffffffffffffffff1673ffffffffffffffffffffffffffffffffffffffff16815260200190815260200160002060006101000a81548160ff021916908315150217905550620005e36200024a60201b60201c565b73ffffffffffffffffffffffffffffffffffffffff168173ffffffffffffffffffffffffffffffffffffffff16837f2f8788117e7eff1d82e926ec794901d17c78024a50270940304540a733656f0d60405160405180910390a45b5050565b6000620006568383620006d960201b60201c565b620006b1578260000182908060018154018082558091505060019003906000526020600020016000909190919091505582600001805490508360010160008481526020019081526020016000208190555060019050620006b6565b600090505b92915050565b620006d4838383620006fc60201b620012b11760201c565b505050565b600080836001016000848152602001908152602001600020541415905092915050565b620007148383836200076c60201b620013091760201c565b620007246200077160201b60201c565b1562000767576040517f08c379a00000000000000000000000000000000000000000000000000000000081526004016200075e9062000902565b60405180910390fd5b505050565b505050565b6000600760009054906101000a900460ff16905090565b8280546200079690620009b9565b90600052602060002090601f016020900481019282620007ba576000855562000806565b82601f10620007d557805160ff191683800117855562000806565b8280016001018555821562000806579182015b8281111562000805578251825591602001919060010190620007e8565b5b50905062000815919062000819565b5090565b5b80821115620008345760008160009055506001016200081a565b5090565b60006200084760368362000941565b9150620008548262000a4d565b604082019050919050565b60006200086e601f8362000941565b91506200087b8262000a9c565b602082019050919050565b600062000895602a8362000941565b9150620008a28262000ac5565b604082019050919050565b620008b881620009af565b82525050565b60006020820190508181036000830152620008d98162000838565b9050919050565b60006020820190508181036000830152620008fb816200085f565b9050919050565b600060208201905081810360008301526200091d8162000886565b9050919050565b60006020820190506200093b6000830184620008ad565b92915050565b600082825260208201905092915050565b60006200095f82620009af565b91506200096c83620009af565b9250827fffffffffffffffffffffffffffffffffffffffffffffffffffffffffffffffff03821115620009a457620009a3620009ef565b5b828201905092915050565b6000819050919050565b60006002820490506001821680620009d257607f821691505b60208210811415620009e957620009e862000a1e565b5b50919050565b7f4e487b7100000000000000000000000000000000000000000000000000000000600052601160045260246000fd5b7f4e487b7100000000000000000000000000000000000000000000000000000000600052602260045260246000fd5b7f45524332305072657365744d696e7465725061757365723a206d75737420686160008201527f7665206d696e74657220726f6c6520746f206d696e7400000000000000000000602082015250565b7f45524332303a206d696e7420746f20746865207a65726f206164647265737300600082015250565b7f45524332305061757361626c653a20746f6b656e207472616e7366657220776860008201527f696c652070617573656400000000000000000000000000000000000000000000602082015250565b61396a8062000b246000396000f3fe608060405234801561001057600080fd5b50600436106101e55760003560e01c8063715018a61161010f578063a457c2d7116100a2578063d547741f11610071578063d547741f14610594578063dd62ed3e146105b0578063e63ab1e9146105e0578063f2fde38b146105fe576101e5565b8063a457c2d7146104e6578063a9059cbb14610516578063ca15c87314610546578063d539139314610576576101e5565b80639010d07c116100de5780639010d07c1461044a57806391d148541461047a57806395d89b41146104aa578063a217fddf146104c8576101e5565b8063715018a6146103fc57806379cc6790146104065780638456cb59146104225780638da5cb5b1461042c576101e5565b8063313ce5671161018757806340c10f191161015657806340c10f191461037657806342966c68146103925780635c975abb146103ae57806370a08231146103cc576101e5565b8063313ce5671461030257806336568abe14610320578063395093511461033c5780633f4ba83a1461036c576101e5565b806318160ddd116101c357806318160ddd1461026857806323b872dd14610286578063248a9ca3146102b65780632f2ff15d146102e6576101e5565b806301ffc9a7146101ea57806306fdde031461021a578063095ea7b314610238575b600080fd5b61020460048036038101906101ff91906127f4565b61061a565b6040516102119190612c98565b60405180910390f35b610222610694565b60405161022f9190612cce565b60405180910390f35b610252600480360381019061024d9190612717565b610726565b60405161025f9190612c98565b60405180910390f35b610270610744565b60405161027d9190612fb0565b60405180910390f35b6102a0600480360381019061029b91906126c8565b61074e565b6040516102ad9190612c98565b60405180910390f35b6102d060048036038101906102cb9190612753565b61084f565b6040516102dd9190612cb3565b60405180910390f35b61030060048036038101906102fb919061277c565b61086e565b005b61030a6108a2565b6040516103179190612fcb565b60405180910390f35b61033a6004803603810190610335919061277c565b6108ab565b005b61035660048036038101906103519190612717565b6108df565b6040516103639190612c98565b60405180910390f35b61037461098b565b005b610390600480360381019061038b9190612717565b610a05565b005b6103ac60048036038101906103a7919061281d565b610a83565b005b6103b6610a97565b6040516103c39190612c98565b60405180910390f35b6103e660048036038101906103e19190612663565b610aae565b6040516103f39190612fb0565b60405180910390f35b610404610af7565b005b610420600480360381019061041b9190612717565b610c34565b005b61042a610cb8565b005b610434610d32565b6040516104419190612c7d565b60405180910390f35b610464600480360381019061045f91906127b8565b610d5c565b6040516104719190612c7d565b60405180910390f35b610494600480360381019061048f919061277c565b610d8b565b6040516104a19190612c98565b60405180910390f35b6104b2610df5565b6040516104bf9190612cce565b60405180910390f35b6104d0610e87565b6040516104dd9190612cb3565b60405180910390f35b61050060048036038101906104fb9190612717565b610e8e565b60405161050d9190612c98565b60405180910390f35b610530600480360381019061052b9190612717565b610f82565b60405161053d9190612c98565b60405180910390f35b610560600480360381019061055b9190612753565b610fa0565b60405161056d9190612fb0565b60405180910390f35b61057e610fc4565b60405161058b9190612cb3565b60405180910390f35b6105ae60048036038101906105a9919061277c565b610fe8565b005b6105ca60048036038101906105c5919061268c565b61101c565b6040516105d79190612fb0565b60405180910390f35b6105e86110a3565b6040516105f59190612cb3565b60405180910390f35b61061860048036038101906106139190612663565b6110c7565b005b60007f5a05180f000000000000000000000000000000000000000000000000000000007bffffffffffffffffffffffffffffffffffffffffffffffffffffffff1916827bffffffffffffffffffffffffffffffffffffffffffffffffffffffff1916148061068d575061068c8261130e565b5b9050919050565b6060600580546106a3906131d9565b80601f01602080910402602001604051908101604052809291908181526020018280546106cf906131d9565b801561071c5780601f106106f15761010080835404028352916020019161071c565b820191906000526020600020905b8154815290600101906020018083116106ff57829003601f168201915b5050505050905090565b600061073a610733611388565b8484611390565b6001905092915050565b6000600454905090565b600061075b84848461155b565b6000600360008673ffffffffffffffffffffffffffffffffffffffff1673ffffffffffffffffffffffffffffffffffffffff16815260200190815260200160002060006107a6611388565b73ffffffffffffffffffffffffffffffffffffffff1673ffffffffffffffffffffffffffffffffffffffff16815260200190815260200160002054905082811015610826576040517f08c379a000000000000000000000000000000000000000000000000000000000815260040161081d90612e30565b60405180910390fd5b61084385610832611388565b858461083e91906130bd565b611390565b60019150509392505050565b6000806000838152602001908152602001600020600101549050919050565b61087882826117dd565b61089d816001600085815260200190815260200160002061128190919063ffffffff16565b505050565b60006012905090565b6108b58282611806565b6108da816001600085815260200190815260200160002061188990919063ffffffff16565b505050565b60006109816108ec611388565b8484600360006108fa611388565b73ffffffffffffffffffffffffffffffffffffffff1673ffffffffffffffffffffffffffffffffffffffff16815260200190815260200160002060008873ffffffffffffffffffffffffffffffffffffffff1673ffffffffffffffffffffffffffffffffffffffff1681526020019081526020016000205461097c919061300d565b611390565b6001905092915050565b6109bc7f65d7a28e3265b37a6474929f336521b332c1681b933f6cb9f3376673440d862a6109b7611388565b610d8b565b6109fb576040517f08c379a00000000000000000000000000000000000000000000000000000000081526004016109f290612d90565b60405180910390fd5b610a036118b9565b565b610a367f9f2df0fed2c77648de5860a4cc508cd0818c85b8b8a1ab4ceeef8d981c8956a6610a31611388565b610d8b565b610a75576040517f08c379a0000000000000000000000000000000000000000000000000000000008152600401610a6c90612e70565b60405180910390fd5b610a7f828261195b565b5050565b610a94610a8e611388565b82611ab0565b50565b6000600760009054906101000a900460ff16905090565b6000600260008373ffffffffffffffffffffffffffffffffffffffff1673ffffffffffffffffffffffffffffffffffffffff168152602001908152602001600020549050919050565b610aff611388565b73ffffffffffffffffffffffffffffffffffffffff16610b1d610d32565b73ffffffffffffffffffffffffffffffffffffffff1614610b73576040517f08c379a0000000000000000000000000000000000000000000000000000000008152600401610b6a90612e50565b60405180910390fd5b600073ffffffffffffffffffffffffffffffffffffffff16600760019054906101000a900473ffffffffffffffffffffffffffffffffffffffff1673ffffffffffffffffffffffffffffffffffffffff167f8be0079c531659141344cd1fd0a4f28419497f9722a3daafe3b4186f6b6457e060405160405180910390a36000600760016101000a81548173ffffffffffffffffffffffffffffffffffffffff021916908373ffffffffffffffffffffffffffffffffffffffff160217905550565b6000610c4783610c42611388565b61101c565b905081811015610c8c576040517f08c379a0000000000000000000000000000000000000000000000000000000008152600401610c8390612e90565b60405180910390fd5b610ca983610c98611388565b8484610ca491906130bd565b611390565b610cb38383611ab0565b505050565b610ce97f65d7a28e3265b37a6474929f336521b332c1681b933f6cb9f3376673440d862a610ce4611388565b610d8b565b610d28576040517f08c379a0000000000000000000000000000000000000000000000000000000008152600401610d1f90612f10565b60405180910390fd5b610d30611c86565b565b6000600760019054906101000a900473ffffffffffffffffffffffffffffffffffffffff16905090565b6000610d838260016000868152602001908152602001600020611d2990919063ffffffff16565b905092915050565b600080600084815260200190815260200160002060000160008373ffffffffffffffffffffffffffffffffffffffff1673ffffffffffffffffffffffffffffffffffffffff16815260200190815260200160002060009054906101000a900460ff16905092915050565b606060068054610e04906131d9565b80601f0160208091040260200160405190810160405280929190818152602001828054610e30906131d9565b8015610e7d5780601f10610e5257610100808354040283529160200191610e7d565b820191906000526020600020905b815481529060010190602001808311610e6057829003601f168201915b5050505050905090565b6000801b81565b60008060036000610e9d611388565b73ffffffffffffffffffffffffffffffffffffffff1673ffffffffffffffffffffffffffffffffffffffff16815260200190815260200160002060008573ffffffffffffffffffffffffffffffffffffffff1673ffffffffffffffffffffffffffffffffffffffff16815260200190815260200160002054905082811015610f5a576040517f08c379a0000000000000000000000000000000000000000000000000000000008152600401610f5190612f30565b60405180910390fd5b610f77610f65611388565b858584610f7291906130bd565b611390565b600191505092915050565b6000610f96610f8f611388565b848461155b565b6001905092915050565b6000610fbd60016000848152602001908152602001600020611d43565b9050919050565b7f9f2df0fed2c77648de5860a4cc508cd0818c85b8b8a1ab4ceeef8d981c8956a681565b610ff28282611d58565b611017816001600085815260200190815260200160002061188990919063ffffffff16565b505050565b6000600360008473ffffffffffffffffffffffffffffffffffffffff1673ffffffffffffffffffffffffffffffffffffffff16815260200190815260200160002060008373ffffffffffffffffffffffffffffffffffffffff1673ffffffffffffffffffffffffffffffffffffffff16815260200190815260200160002054905092915050565b7f65d7a28e3265b37a6474929f336521b332c1681b933f6cb9f3376673440d862a81565b6110cf611388565b73ffffffffffffffffffffffffffffffffffffffff166110ed610d32565b73ffffffffffffffffffffffffffffffffffffffff1614611143576040517f08c379a000000000000000000000000000000000000000000000000000000000815260040161113a90612e50565b60405180910390fd5b600073ffffffffffffffffffffffffffffffffffffffff168173ffffffffffffffffffffffffffffffffffffffff1614156111b3576040517f08c379a00000000000000000000000000000000000000000000000000000000081526004016111aa90612db0565b60405180910390fd5b8073ffffffffffffffffffffffffffffffffffffffff16600760019054906101000a900473ffffffffffffffffffffffffffffffffffffffff1673ffffffffffffffffffffffffffffffffffffffff167f8be0079c531659141344cd1fd0a4f28419497f9722a3daafe3b4186f6b6457e060405160405180910390a380600760016101000a81548173ffffffffffffffffffffffffffffffffffffffff021916908373ffffffffffffffffffffffffffffffffffffffff16021790555050565b61127d8282611d81565b5050565b60006112a9836000018373ffffffffffffffffffffffffffffffffffffffff1660001b611e61565b905092915050565b6112bc838383611309565b6112c4610a97565b15611304576040517f08c379a00000000000000000000000000000000000000000000000000000000081526004016112fb90612f90565b60405180910390fd5b505050565b505050565b60007f7965db0b000000000000000000000000000000000000000000000000000000007bffffffffffffffffffffffffffffffffffffffffffffffffffffffff1916827bffffffffffffffffffffffffffffffffffffffffffffffffffffffff19161480611381575061138082611ed1565b5b9050919050565b600033905090565b600073ffffffffffffffffffffffffffffffffffffffff168373ffffffffffffffffffffffffffffffffffffffff161415611400576040517f08c379a00000000000000000000000000000000000000000000000000000000081526004016113f790612ef0565b60405180910390fd5b600073ffffffffffffffffffffffffffffffffffffffff168273ffffffffffffffffffffffffffffffffffffffff161415611470576040517f08c379a000000000000000000000000000000000000000000000000000000000815260040161146790612dd0565b60405180910390fd5b80600360008573ffffffffffffffffffffffffffffffffffffffff1673ffffffffffffffffffffffffffffffffffffffff16815260200190815260200160002060008473ffffffffffffffffffffffffffffffffffffffff1673ffffffffffffffffffffffffffffffffffffffff168152602001908152602001600020819055508173ffffffffffffffffffffffffffffffffffffffff168373ffffffffffffffffffffffffffffffffffffffff167f8c5be1e5ebec7d5bd14f71427d1e84f3dd0314c0f7b2291e5b200ac8c7c3b9258360405161154e9190612fb0565b60405180910390a3505050565b600073ffffffffffffffffffffffffffffffffffffffff168373ffffffffffffffffffffffffffffffffffffffff1614156115cb576040517f08c379a00000000000000000000000000000000000000000000000000000000081526004016115c290612ed0565b60405180910390fd5b600073ffffffffffffffffffffffffffffffffffffffff168273ffffffffffffffffffffffffffffffffffffffff16141561163b576040517f08c379a000000000000000000000000000000000000000000000000000000000815260040161163290612d30565b60405180910390fd5b611646838383611f3b565b6000600260008573ffffffffffffffffffffffffffffffffffffffff1673ffffffffffffffffffffffffffffffffffffffff168152602001908152602001600020549050818110156116cd576040517f08c379a00000000000000000000000000000000000000000000000000000000081526004016116c490612df0565b60405180910390fd5b81816116d991906130bd565b600260008673ffffffffffffffffffffffffffffffffffffffff1673ffffffffffffffffffffffffffffffffffffffff1681526020019081526020016000208190555081600260008573ffffffffffffffffffffffffffffffffffffffff1673ffffffffffffffffffffffffffffffffffffffff168152602001908152602001600020600082825461176b919061300d565b925050819055508273ffffffffffffffffffffffffffffffffffffffff168473ffffffffffffffffffffffffffffffffffffffff167fddf252ad1be2c89b69c2b068fc378daa952ba7f163c4a11628f55a4df523b3ef846040516117cf9190612fb0565b60405180910390a350505050565b6117e68261084f565b6117f7816117f2611388565b611f4b565b6118018383611d81565b505050565b61180e611388565b73ffffffffffffffffffffffffffffffffffffffff168173ffffffffffffffffffffffffffffffffffffffff161461187b576040517f08c379a000000000000000000000000000000000000000000000000000000000815260040161187290612f50565b60405180910390fd5b6118858282611fe8565b5050565b60006118b1836000018373ffffffffffffffffffffffffffffffffffffffff1660001b6120c9565b905092915050565b6118c1610a97565b611900576040517f08c379a00000000000000000000000000000000000000000000000000000000081526004016118f790612d50565b60405180910390fd5b6000600760006101000a81548160ff0219169083151502179055507f5db9ee0a495bf2e6ff9c91a7834c1ba4fdd244a5e8aa4e537bd38aeae4b073aa611944611388565b6040516119519190612c7d565b60405180910390a1565b600073ffffffffffffffffffffffffffffffffffffffff168273ffffffffffffffffffffffffffffffffffffffff1614156119cb576040517f08c379a00000000000000000000000000000000000000000000000000000000081526004016119c290612f70565b60405180910390fd5b6119d760008383611f3b565b80600460008282546119e9919061300d565b9250508190555080600260008473ffffffffffffffffffffffffffffffffffffffff1673ffffffffffffffffffffffffffffffffffffffff1681526020019081526020016000206000828254611a3f919061300d565b925050819055508173ffffffffffffffffffffffffffffffffffffffff16600073ffffffffffffffffffffffffffffffffffffffff167fddf252ad1be2c89b69c2b068fc378daa952ba7f163c4a11628f55a4df523b3ef83604051611aa49190612fb0565b60405180910390a35050565b600073ffffffffffffffffffffffffffffffffffffffff168273ffffffffffffffffffffffffffffffffffffffff161415611b20576040517f08c379a0000000000000000000000000000000000000000000000000000000008152600401611b1790612eb0565b60405180910390fd5b611b2c82600083611f3b565b6000600260008473ffffffffffffffffffffffffffffffffffffffff1673ffffffffffffffffffffffffffffffffffffffff16815260200190815260200160002054905081811015611bb3576040517f08c379a0000000000000000000000000000000000000000000000000000000008152600401611baa90612d70565b60405180910390fd5b8181611bbf91906130bd565b600260008573ffffffffffffffffffffffffffffffffffffffff1673ffffffffffffffffffffffffffffffffffffffff168152602001908152602001600020819055508160046000828254611c1491906130bd565b92505081905550600073ffffffffffffffffffffffffffffffffffffffff168373ffffffffffffffffffffffffffffffffffffffff167fddf252ad1be2c89b69c2b068fc378daa952ba7f163c4a11628f55a4df523b3ef84604051611c799190612fb0565b60405180910390a3505050565b611c8e610a97565b15611cce576040517f08c379a0000000000000000000000000000000000000000000000000000000008152600401611cc590612e10565b60405180910390fd5b6001600760006101000a81548160ff0219169083151502179055507f62e78cea01bee320cd4e420270b5ea74000d11b0c9f74754ebdbfc544b05a258611d12611388565b604051611d1f9190612c7d565b60405180910390a1565b6000611d388360000183612247565b60001c905092915050565b6000611d51826000016122e1565b9050919050565b611d618261084f565b611d7281611d6d611388565b611f4b565b611d7c8383611fe8565b505050565b611d8b8282610d8b565b611e5d57600160008084815260200190815260200160002060000160008373ffffffffffffffffffffffffffffffffffffffff1673ffffffffffffffffffffffffffffffffffffffff16815260200190815260200160002060006101000a81548160ff021916908315150217905550611e02611388565b73ffffffffffffffffffffffffffffffffffffffff168173ffffffffffffffffffffffffffffffffffffffff16837f2f8788117e7eff1d82e926ec794901d17c78024a50270940304540a733656f0d60405160405180910390a45b5050565b6000611e6d83836122f2565b611ec6578260000182908060018154018082558091505060019003906000526020600020016000909190919091505582600001805490508360010160008481526020019081526020016000208190555060019050611ecb565b600090505b92915050565b60007f01ffc9a7000000000000000000000000000000000000000000000000000000007bffffffffffffffffffffffffffffffffffffffffffffffffffffffff1916827bffffffffffffffffffffffffffffffffffffffffffffffffffffffff1916149050919050565b611f468383836112b1565b505050565b611f558282610d8b565b611fe457611f7a8173ffffffffffffffffffffffffffffffffffffffff166014612315565b611f888360001c6020612315565b604051602001611f99929190612c43565b6040516020818303038152906040526040517f08c379a0000000000000000000000000000000000000000000000000000000008152600401611fdb9190612cce565b60405180910390fd5b5050565b611ff28282610d8b565b156120c557600080600084815260200190815260200160002060000160008373ffffffffffffffffffffffffffffffffffffffff1673ffffffffffffffffffffffffffffffffffffffff16815260200190815260200160002060006101000a81548160ff02191690831515021790555061206a611388565b73ffffffffffffffffffffffffffffffffffffffff168173ffffffffffffffffffffffffffffffffffffffff16837ff6391f5c32d9c69d2a47ea670b442974b53935d1edc7fd64eb21e047a839171b60405160405180910390a45b5050565b6000808360010160008481526020019081526020016000205490506000811461223b5760006001826120fb91906130bd565b905060006001866000018054905061211391906130bd565b90506000866000018281548110612153577f4e487b7100000000000000000000000000000000000000000000000000000000600052603260045260246000fd5b906000526020600020015490508087600001848154811061219d577f4e487b7100000000000000000000000000000000000000000000000000000000600052603260045260246000fd5b90600052602060002001819055508387600101600083815260200190815260200160002081905550866000018054806121ff577f4e487b7100000000000000000000000000000000000000000000000000000000600052603160045260246000fd5b60019003818190600052602060002001600090559055866001016000878152602001908152602001600020600090556001945050505050612241565b60009150505b92915050565b600081836000018054905011612292576040517f08c379a000000000000000000000000000000000000000000000000000000000815260040161228990612cf0565b60405180910390fd5b8260000182815481106122ce577f4e487b7100000000000000000000000000000000000000000000000000000000600052603260045260246000fd5b9060005260206000200154905092915050565b600081600001805490509050919050565b600080836001016000848152602001908152602001600020541415905092915050565b6060600060028360026123289190613063565b612332919061300d565b67ffffffffffffffff811115612371577f4e487b7100000000000000000000000000000000000000000000000000000000600052604160045260246000fd5b6040519080825280601f01601f1916602001820160405280156123a35781602001600182028036833780820191505090505b5090507f300000000000000000000000000000000000000000000000000000000000000081600081518110612401577f4e487b7100000000000000000000000000000000000000000000000000000000600052603260045260246000fd5b60200101907effffffffffffffffffffffffffffffffffffffffffffffffffffffffffffff1916908160001a9053507f78000000000000000000000000000000000000000000000000000000000000008160018151811061248b577f4e487b7100000000000000000000000000000000000000000000000000000000600052603260045260246000fd5b60200101907effffffffffffffffffffffffffffffffffffffffffffffffffffffffffffff1916908160001a905350600060018460026124cb9190613063565b6124d5919061300d565b90505b60018111156125c1577f3031323334353637383961626364656600000000000000000000000000000000600f86166010811061253d577f4e487b7100000000000000000000000000000000000000000000000000000000600052603260045260246000fd5b1a60f81b82828151811061257a577f4e487b7100000000000000000000000000000000000000000000000000000000600052603260045260246000fd5b60200101907effffffffffffffffffffffffffffffffffffffffffffffffffffffffffffff1916908160001a905350600485901c9450806125ba906131af565b90506124d8565b5060008414612605576040517f08c379a00000000000000000000000000000000000000000000000000000000081526004016125fc90612d10565b60405180910390fd5b8091505092915050565b60008135905061261e816138d8565b92915050565b600081359050612633816138ef565b92915050565b60008135905061264881613906565b92915050565b60008135905061265d8161391d565b92915050565b60006020828403121561267557600080fd5b60006126838482850161260f565b91505092915050565b6000806040838503121561269f57600080fd5b60006126ad8582860161260f565b92505060206126be8582860161260f565b9150509250929050565b6000806000606084860312156126dd57600080fd5b60006126eb8682870161260f565b93505060206126fc8682870161260f565b925050604061270d8682870161264e565b9150509250925092565b6000806040838503121561272a57600080fd5b60006127388582860161260f565b92505060206127498582860161264e565b9150509250929050565b60006020828403121561276557600080fd5b600061277384828501612624565b91505092915050565b6000806040838503121561278f57600080fd5b600061279d85828601612624565b92505060206127ae8582860161260f565b9150509250929050565b600080604083850312156127cb57600080fd5b60006127d985828601612624565b92505060206127ea8582860161264e565b9150509250929050565b60006020828403121561280657600080fd5b600061281484828501612639565b91505092915050565b60006020828403121561282f57600080fd5b600061283d8482850161264e565b91505092915050565b61284f816130f1565b82525050565b61285e81613103565b82525050565b61286d8161310f565b82525050565b600061287e82612fe6565b6128888185612ff1565b935061289881856020860161317c565b6128a181613269565b840191505092915050565b60006128b782612fe6565b6128c18185613002565b93506128d181856020860161317c565b80840191505092915050565b60006128ea602283612ff1565b91506128f58261327a565b604082019050919050565b600061290d602083612ff1565b9150612918826132c9565b602082019050919050565b6000612930602383612ff1565b915061293b826132f2565b604082019050919050565b6000612953601483612ff1565b915061295e82613341565b602082019050919050565b6000612976602283612ff1565b91506129818261336a565b604082019050919050565b6000612999603983612ff1565b91506129a4826133b9565b604082019050919050565b60006129bc602683612ff1565b91506129c782613408565b604082019050919050565b60006129df602283612ff1565b91506129ea82613457565b604082019050919050565b6000612a02602683612ff1565b9150612a0d826134a6565b604082019050919050565b6000612a25601083612ff1565b9150612a30826134f5565b602082019050919050565b6000612a48602883612ff1565b9150612a538261351e565b604082019050919050565b6000612a6b602083612ff1565b9150612a768261356d565b602082019050919050565b6000612a8e603683612ff1565b9150612a9982613596565b604082019050919050565b6000612ab1602483612ff1565b9150612abc826135e5565b604082019050919050565b6000612ad4602183612ff1565b9150612adf82613634565b604082019050919050565b6000612af7602583612ff1565b9150612b0282613683565b604082019050919050565b6000612b1a602483612ff1565b9150612b25826136d2565b604082019050919050565b6000612b3d603783612ff1565b9150612b4882613721565b604082019050919050565b6000612b60601783613002565b9150612b6b82613770565b601782019050919050565b6000612b83602583612ff1565b9150612b8e82613799565b604082019050919050565b6000612ba6601183613002565b9150612bb1826137e8565b601182019050919050565b6000612bc9602f83612ff1565b9150612bd482613811565b604082019050919050565b6000612bec601f83612ff1565b9150612bf782613860565b602082019050919050565b6000612c0f602a83612ff1565b9150612c1a82613889565b604082019050919050565b612c2e81613165565b82525050565b612c3d8161316f565b82525050565b6000612c4e82612b53565b9150612c5a82856128ac565b9150612c6582612b99565b9150612c7182846128ac565b91508190509392505050565b6000602082019050612c926000830184612846565b92915050565b6000602082019050612cad6000830184612855565b92915050565b6000602082019050612cc86000830184612864565b92915050565b60006020820190508181036000830152612ce88184612873565b905092915050565b60006020820190508181036000830152612d09816128dd565b9050919050565b60006020820190508181036000830152612d2981612900565b9050919050565b60006020820190508181036000830152612d4981612923565b9050919050565b60006020820190508181036000830152612d6981612946565b9050919050565b60006020820190508181036000830152612d8981612969565b9050919050565b60006020820190508181036000830152612da98161298c565b9050919050565b60006020820190508181036000830152612dc9816129af565b9050919050565b60006020820190508181036000830152612de9816129d2565b9050919050565b60006020820190508181036000830152612e09816129f5565b9050919050565b60006020820190508181036000830152612e2981612a18565b9050919050565b60006020820190508181036000830152612e4981612a3b565b9050919050565b60006020820190508181036000830152612e6981612a5e565b9050919050565b60006020820190508181036000830152612e8981612a81565b9050919050565b60006020820190508181036000830152612ea981612aa4565b9050919050565b60006020820190508181036000830152612ec981612ac7565b9050919050565b60006020820190508181036000830152612ee981612aea565b9050919050565b60006020820190508181036000830152612f0981612b0d565b9050919050565b60006020820190508181036000830152612f2981612b30565b9050919050565b60006020820190508181036000830152612f4981612b76565b9050919050565b60006020820190508181036000830152612f6981612bbc565b9050919050565b60006020820190508181036000830152612f8981612bdf565b9050919050565b60006020820190508181036000830152612fa981612c02565b9050919050565b6000602082019050612fc56000830184612c25565b92915050565b6000602082019050612fe06000830184612c34565b92915050565b600081519050919050565b600082825260208201905092915050565b600081905092915050565b600061301882613165565b915061302383613165565b9250827fffffffffffffffffffffffffffffffffffffffffffffffffffffffffffffffff038211156130585761305761320b565b5b828201905092915050565b600061306e82613165565b915061307983613165565b9250817fffffffffffffffffffffffffffffffffffffffffffffffffffffffffffffffff04831182151516156130b2576130b161320b565b5b828202905092915050565b60006130c882613165565b91506130d383613165565b9250828210156130e6576130e561320b565b5b828203905092915050565b60006130fc82613145565b9050919050565b60008115159050919050565b6000819050919050565b60007fffffffff0000000000000000000000000000000000000000000000000000000082169050919050565b600073ffffffffffffffffffffffffffffffffffffffff82169050919050565b6000819050919050565b600060ff82169050919050565b60005b8381101561319a57808201518184015260208101905061317f565b838111156131a9576000848401525b50505050565b60006131ba82613165565b915060008214156131ce576131cd61320b565b5b600182039050919050565b600060028204905060018216806131f157607f821691505b602082108114156132055761320461323a565b5b50919050565b7f4e487b7100000000000000000000000000000000000000000000000000000000600052601160045260246000fd5b7f4e487b7100000000000000000000000000000000000000000000000000000000600052602260045260246000fd5b6000601f19601f8301169050919050565b7f456e756d657261626c655365743a20696e646578206f7574206f6620626f756e60008201527f6473000000000000000000000000000000000000000000000000000000000000602082015250565b7f537472696e67733a20686578206c656e67746820696e73756666696369656e74600082015250565b7f45524332303a207472616e7366657220746f20746865207a65726f206164647260008201527f6573730000000000000000000000000000000000000000000000000000000000602082015250565b7f5061757361626c653a206e6f7420706175736564000000000000000000000000600082015250565b7f45524332303a206275726e20616d6f756e7420657863656564732062616c616e60008201527f6365000000000000000000000000000000000000000000000000000000000000602082015250565b7f45524332305072657365744d696e7465725061757365723a206d75737420686160008201527f76652070617573657220726f6c6520746f20756e706175736500000000000000602082015250565b7f4f776e61626c653a206e6577206f776e657220697320746865207a65726f206160008201527f6464726573730000000000000000000000000000000000000000000000000000602082015250565b7f45524332303a20617070726f766520746f20746865207a65726f20616464726560008201527f7373000000000000000000000000000000000000000000000000000000000000602082015250565b7f45524332303a207472616e7366657220616d6f756e742065786365656473206260008201527f616c616e63650000000000000000000000000000000000000000000000000000602082015250565b7f5061757361626c653a2070617573656400000000000000000000000000000000600082015250565b7f45524332303a207472616e7366657220616d6f756e742065786365656473206160008201527f6c6c6f77616e6365000000000000000000000000000000000000000000000000602082015250565b7f4f776e61626c653a2063616c6c6572206973206e6f7420746865206f776e6572600082015250565b7f45524332305072657365744d696e7465725061757365723a206d75737420686160008201527f7665206d696e74657220726f6c6520746f206d696e7400000000000000000000602082015250565b7f45524332303a206275726e20616d6f756e74206578636565647320616c6c6f7760008201527f616e636500000000000000000000000000000000000000000000000000000000602082015250565b7f45524332303a206275726e2066726f6d20746865207a65726f2061646472657360008201527f7300000000000000000000000000000000000000000000000000000000000000602082015250565b7f45524332303a207472616e736665722066726f6d20746865207a65726f20616460008201527f6472657373000000000000000000000000000000000000000000000000000000602082015250565b7f45524332303a20617070726f76652066726f6d20746865207a65726f2061646460008201527f7265737300000000000000000000000000000000000000000000000000000000602082015250565b7f45524332305072657365744d696e7465725061757365723a206d75737420686160008201527f76652070617573657220726f6c6520746f207061757365000000000000000000602082015250565b7f416363657373436f6e74726f6c3a206163636f756e7420000000000000000000600082015250565b7f45524332303a2064656372656173656420616c6c6f77616e63652062656c6f7760008201527f207a65726f000000000000000000000000000000000000000000000000000000602082015250565b7f206973206d697373696e6720726f6c6520000000000000000000000000000000600082015250565b7f416363657373436f6e74726f6c3a2063616e206f6e6c792072656e6f756e636560008201527f20726f6c657320666f722073656c660000000000000000000000000000000000602082015250565b7f45524332303a206d696e7420746f20746865207a65726f206164647265737300600082015250565b7f45524332305061757361626c653a20746f6b656e207472616e7366657220776860008201527f696c652070617573656400000000000000000000000000000000000000000000602082015250565b6138e1816130f1565b81146138ec57600080fd5b50565b6138f88161310f565b811461390357600080fd5b50565b61390f81613119565b811461391a57600080fd5b50565b61392681613165565b811461393157600080fd5b5056fea26469706673582212206a7bb6ac209e2612bb7f906bf9ef7ad9b9a6118a33f03376a08ed7bc9433c97764736f6c63430008040033",
  "immutableReferences": {},
  "source": "// SPDX-License-Identifier: MIT\npragma solidity ^0.8.0;\n\nimport \"@openzeppelin/contracts/access/Ownable.sol\";\nimport \"@openzeppelin/contracts/token/ERC20/presets/ERC20PresetMinterPauser.sol\";\n\ncontract DAI is ERC20PresetMinterPauser, Ownable {\n    constructor() ERC20PresetMinterPauser(\"DAI\", \"DAI\") {\n        mint(msg.sender, 1000000 ether);\n    }\n}\n",
  "sourcePath": "/home/esferasoluciones-jupiter/Documents/projects/ifesa/xdv-document-signer-contracts/contracts/DAI.sol",
  "compiler": {
    "name": "solc",
    "version": "0.8.4+commit.c7e474f2.Emscripten.clang"
  },
  "schemaVersion": "3.4.0",
  "updatedAt": "2021-05-13T19:56:49.367Z",
  "devdoc": {
    "kind": "dev",
    "methods": {
      "allowance(address,address)": {
        "details": "See {IERC20-allowance}."
      },
      "approve(address,uint256)": {
        "details": "See {IERC20-approve}. Requirements: - `spender` cannot be the zero address."
      },
      "balanceOf(address)": {
        "details": "See {IERC20-balanceOf}."
      },
      "burn(uint256)": {
        "details": "Destroys `amount` tokens from the caller. See {ERC20-_burn}."
      },
      "burnFrom(address,uint256)": {
        "details": "Destroys `amount` tokens from `account`, deducting from the caller's allowance. See {ERC20-_burn} and {ERC20-allowance}. Requirements: - the caller must have allowance for ``accounts``'s tokens of at least `amount`."
      },
      "decimals()": {
        "details": "Returns the number of decimals used to get its user representation. For example, if `decimals` equals `2`, a balance of `505` tokens should be displayed to a user as `5,05` (`505 / 10 ** 2`). Tokens usually opt for a value of 18, imitating the relationship between Ether and Wei. This is the value {ERC20} uses, unless this function is overridden; NOTE: This information is only used for _display_ purposes: it in no way affects any of the arithmetic of the contract, including {IERC20-balanceOf} and {IERC20-transfer}."
      },
      "decreaseAllowance(address,uint256)": {
        "details": "Atomically decreases the allowance granted to `spender` by the caller. This is an alternative to {approve} that can be used as a mitigation for problems described in {IERC20-approve}. Emits an {Approval} event indicating the updated allowance. Requirements: - `spender` cannot be the zero address. - `spender` must have allowance for the caller of at least `subtractedValue`."
      },
      "getRoleAdmin(bytes32)": {
        "details": "Returns the admin role that controls `role`. See {grantRole} and {revokeRole}. To change a role's admin, use {_setRoleAdmin}."
      },
      "getRoleMember(bytes32,uint256)": {
        "details": "Returns one of the accounts that have `role`. `index` must be a value between 0 and {getRoleMemberCount}, non-inclusive. Role bearers are not sorted in any particular way, and their ordering may change at any point. WARNING: When using {getRoleMember} and {getRoleMemberCount}, make sure you perform all queries on the same block. See the following https://forum.openzeppelin.com/t/iterating-over-elements-on-enumerableset-in-openzeppelin-contracts/2296[forum post] for more information."
      },
      "getRoleMemberCount(bytes32)": {
        "details": "Returns the number of accounts that have `role`. Can be used together with {getRoleMember} to enumerate all bearers of a role."
      },
      "grantRole(bytes32,address)": {
        "details": "Overload {grantRole} to track enumerable memberships"
      },
      "hasRole(bytes32,address)": {
        "details": "Returns `true` if `account` has been granted `role`."
      },
      "increaseAllowance(address,uint256)": {
        "details": "Atomically increases the allowance granted to `spender` by the caller. This is an alternative to {approve} that can be used as a mitigation for problems described in {IERC20-approve}. Emits an {Approval} event indicating the updated allowance. Requirements: - `spender` cannot be the zero address."
      },
      "mint(address,uint256)": {
        "details": "Creates `amount` new tokens for `to`. See {ERC20-_mint}. Requirements: - the caller must have the `MINTER_ROLE`."
      },
      "name()": {
        "details": "Returns the name of the token."
      },
      "owner()": {
        "details": "Returns the address of the current owner."
      },
      "pause()": {
        "details": "Pauses all token transfers. See {ERC20Pausable} and {Pausable-_pause}. Requirements: - the caller must have the `PAUSER_ROLE`."
      },
      "paused()": {
        "details": "Returns true if the contract is paused, and false otherwise."
      },
      "renounceOwnership()": {
        "details": "Leaves the contract without owner. It will not be possible to call `onlyOwner` functions anymore. Can only be called by the current owner. NOTE: Renouncing ownership will leave the contract without an owner, thereby removing any functionality that is only available to the owner."
      },
      "renounceRole(bytes32,address)": {
        "details": "Overload {renounceRole} to track enumerable memberships"
      },
      "revokeRole(bytes32,address)": {
        "details": "Overload {revokeRole} to track enumerable memberships"
      },
      "supportsInterface(bytes4)": {
        "details": "See {IERC165-supportsInterface}."
      },
      "symbol()": {
        "details": "Returns the symbol of the token, usually a shorter version of the name."
      },
      "totalSupply()": {
        "details": "See {IERC20-totalSupply}."
      },
      "transfer(address,uint256)": {
        "details": "See {IERC20-transfer}. Requirements: - `recipient` cannot be the zero address. - the caller must have a balance of at least `amount`."
      },
      "transferFrom(address,address,uint256)": {
        "details": "See {IERC20-transferFrom}. Emits an {Approval} event indicating the updated allowance. This is not required by the EIP. See the note at the beginning of {ERC20}. Requirements: - `sender` and `recipient` cannot be the zero address. - `sender` must have a balance of at least `amount`. - the caller must have allowance for ``sender``'s tokens of at least `amount`."
      },
      "transferOwnership(address)": {
        "details": "Transfers ownership of the contract to a new account (`newOwner`). Can only be called by the current owner."
      },
      "unpause()": {
        "details": "Unpauses all token transfers. See {ERC20Pausable} and {Pausable-_unpause}. Requirements: - the caller must have the `PAUSER_ROLE`."
      }
    },
    "version": 1
  },
  "userdoc": {
    "kind": "user",
    "methods": {},
    "version": 1
  }
}