{
  "contractName": "DIDPaymentService",
  "abi": [
    {
      "inputs": [
        {
          "internalType": "address",
          "name": "tokenAddress",
          "type": "address"
        }
      ],
      "stateMutability": "nonpayable",
      "type": "constructor"
    },
    {
      "anonymous": false,
      "inputs": [
        {
          "indexed": false,
          "internalType": "address",
          "name": "providerMinter",
          "type": "address"
        }
      ],
      "name": "KYCPaid",
      "type": "event"
    },
    {
      "inputs": [
        {
          "internalType": "address",
          "name": "",
          "type": "address"
        }
      ],
      "name": "accounting",
      "outputs": [
        {
          "internalType": "uint256",
          "name": "",
          "type": "uint256"
        }
      ],
      "stateMutability": "view",
      "type": "function",
      "constant": true
    },
    {
      "inputs": [],
      "name": "fee",
      "outputs": [
        {
          "internalType": "uint256",
          "name": "",
          "type": "uint256"
        }
      ],
      "stateMutability": "view",
      "type": "function",
      "constant": true
    },
    {
      "inputs": [
        {
          "internalType": "address",
          "name": "",
          "type": "address"
        }
      ],
      "name": "orders",
      "outputs": [
        {
          "internalType": "bool",
          "name": "",
          "type": "bool"
        }
      ],
      "stateMutability": "view",
      "type": "function",
      "constant": true
    },
    {
      "inputs": [],
      "name": "owner",
      "outputs": [
        {
          "internalType": "address",
          "name": "",
          "type": "address"
        }
      ],
      "stateMutability": "view",
      "type": "function",
      "constant": true
    },
    {
      "inputs": [],
      "name": "stablecoin",
      "outputs": [
        {
          "internalType": "contract ERC20Interface",
          "name": "",
          "type": "address"
        }
      ],
      "stateMutability": "view",
      "type": "function",
      "constant": true
    },
    {
      "inputs": [
        {
          "internalType": "uint256",
          "name": "_fee",
          "type": "uint256"
        }
      ],
      "name": "setProtocolConfig",
      "outputs": [],
      "stateMutability": "nonpayable",
      "type": "function"
    },
    {
      "inputs": [],
      "name": "getProtocolConfig",
      "outputs": [
        {
          "internalType": "uint256",
          "name": "",
          "type": "uint256"
        }
      ],
      "stateMutability": "view",
      "type": "function",
      "constant": true
    },
    {
      "inputs": [],
      "name": "payKYCService",
      "outputs": [
        {
          "internalType": "bool",
          "name": "",
          "type": "bool"
        }
      ],
      "stateMutability": "payable",
      "type": "function",
      "payable": true
    },
    {
      "inputs": [],
      "name": "verifyPayment",
      "outputs": [
        {
          "internalType": "bool",
          "name": "",
          "type": "bool"
        }
      ],
      "stateMutability": "view",
      "type": "function",
      "constant": true
    }
  ],
  "bytecode": "0x608060405234801561001057600080fd5b50604051610ba3380380610ba38339818101604052602081101561003357600080fd5b8101908080519060200190929190505050336000806101000a81548173ffffffffffffffffffffffffffffffffffffffff021916908373ffffffffffffffffffffffffffffffffffffffff16021790555080600260006101000a81548173ffffffffffffffffffffffffffffffffffffffff021916908373ffffffffffffffffffffffffffffffffffffffff16021790555050610ace806100d56000396000f3fe6080604052600436106100865760003560e01c8063ddca3f4311610059578063ddca3f431461018c578063e9cbd822146101b7578063e9d205ef146101f8578063ed700b3e14610225578063f40e84711461025057610086565b80632f8d845a1461008b5780635e22b1b8146100c65780638da5cb5b146100e6578063991edf3f14610127575b600080fd5b34801561009757600080fd5b506100c4600480360360208110156100ae57600080fd5b81019080803590602001909291905050506102b7565b005b6100ce610382565b60405180821515815260200191505060405180910390f35b3480156100f257600080fd5b506100fb61092f565b604051808273ffffffffffffffffffffffffffffffffffffffff16815260200191505060405180910390f35b34801561013357600080fd5b506101766004803603602081101561014a57600080fd5b81019080803573ffffffffffffffffffffffffffffffffffffffff169060200190929190505050610953565b6040518082815260200191505060405180910390f35b34801561019857600080fd5b506101a161096b565b6040518082815260200191505060405180910390f35b3480156101c357600080fd5b506101cc610971565b604051808273ffffffffffffffffffffffffffffffffffffffff16815260200191505060405180910390f35b34801561020457600080fd5b5061020d610997565b60405180821515815260200191505060405180910390f35b34801561023157600080fd5b5061023a610a49565b6040518082815260200191505060405180910390f35b34801561025c57600080fd5b5061029f6004803603602081101561027357600080fd5b81019080803573ffffffffffffffffffffffffffffffffffffffff169060200190929190505050610a53565b60405180821515815260200191505060405180910390f35b60008054906101000a900473ffffffffffffffffffffffffffffffffffffffff1673ffffffffffffffffffffffffffffffffffffffff163373ffffffffffffffffffffffffffffffffffffffff1614610378576040517f08c379a000000000000000000000000000000000000000000000000000000000815260040180806020018281038252600c8152602001807f494e56414c49445f55534552000000000000000000000000000000000000000081525060200191505060405180910390fd5b8060018190555050565b600080600260009054906101000a900473ffffffffffffffffffffffffffffffffffffffff1673ffffffffffffffffffffffffffffffffffffffff166370a08231336040518263ffffffff1660e01b8152600401808273ffffffffffffffffffffffffffffffffffffffff16815260200191505060206040518083038186803b15801561040e57600080fd5b505afa158015610422573d6000803e3d6000fd5b505050506040513d602081101561043857600080fd5b810190808051906020019092919050505010156104bd576040517f08c379a00000000000000000000000000000000000000000000000000000000081526004018080602001828103825260158152602001807f496e76616c696420746f6b656e2062616c616e6365000000000000000000000081525060200191505060405180910390fd5b6000600260009054906101000a900473ffffffffffffffffffffffffffffffffffffffff1673ffffffffffffffffffffffffffffffffffffffff1663dd62ed3e33306040518363ffffffff1660e01b8152600401808373ffffffffffffffffffffffffffffffffffffffff1681526020018273ffffffffffffffffffffffffffffffffffffffff1681526020019250505060206040518083038186803b15801561056657600080fd5b505afa15801561057a573d6000803e3d6000fd5b505050506040513d602081101561059057600080fd5b81019080805190602001909291905050501015610615576040517f08c379a00000000000000000000000000000000000000000000000000000000081526004018080602001828103825260178152602001807f496e76616c696420746f6b656e20616c6c6f77616e636500000000000000000081525060200191505060405180910390fd5b600260009054906101000a900473ffffffffffffffffffffffffffffffffffffffff1673ffffffffffffffffffffffffffffffffffffffff166323b872dd33306001546040518463ffffffff1660e01b8152600401808473ffffffffffffffffffffffffffffffffffffffff1681526020018373ffffffffffffffffffffffffffffffffffffffff1681526020018281526020019350505050602060405180830381600087803b1580156106c857600080fd5b505af11580156106dc573d6000803e3d6000fd5b505050506040513d60208110156106f257600080fd5b8101908080519060200190929190505050610775576040517f08c379a00000000000000000000000000000000000000000000000000000000081526004018080602001828103825260178152602001807f5472616e73666572206661696c656420666f722066656500000000000000000081525060200191505060405180910390fd5b600154600460003373ffffffffffffffffffffffffffffffffffffffff1673ffffffffffffffffffffffffffffffffffffffff1681526020019081526020016000205401600460003373ffffffffffffffffffffffffffffffffffffffff1673ffffffffffffffffffffffffffffffffffffffff16815260200190815260200160002081905550600154600460003073ffffffffffffffffffffffffffffffffffffffff1673ffffffffffffffffffffffffffffffffffffffff1681526020019081526020016000205401600460003073ffffffffffffffffffffffffffffffffffffffff1673ffffffffffffffffffffffffffffffffffffffff168152602001908152602001600020819055506001600360003373ffffffffffffffffffffffffffffffffffffffff1673ffffffffffffffffffffffffffffffffffffffff16815260200190815260200160002060006101000a81548160ff0219169083151502179055507fd1c81b6aae09ac37a1e457069326346fdde3203dd4d4f651ab962fba5fd549a833604051808273ffffffffffffffffffffffffffffffffffffffff16815260200191505060405180910390a16001905090565b60008054906101000a900473ffffffffffffffffffffffffffffffffffffffff1681565b60046020528060005260406000206000915090505481565b60015481565b600260009054906101000a900473ffffffffffffffffffffffffffffffffffffffff1681565b600060011515600360003373ffffffffffffffffffffffffffffffffffffffff1673ffffffffffffffffffffffffffffffffffffffff16815260200190815260200160002060009054906101000a900460ff16151514610a42576040517f08c379a0000000000000000000000000000000000000000000000000000000008152600401808060200182810382526025815260200180610a746025913960400191505060405180910390fd5b6001905090565b6000600154905090565b60036020528060005260406000206000915054906101000a900460ff168156fe4e6f204b5943207061796d656e7420666f756e6420666f722063757272656e742075736572a2646970667358221220d7e07d08ea092f98b08a8c1c35e90031b6d05396896877c4c4dbbddee35c1ad164736f6c63430007060033",
  "immutableReferences": {},
  "source": "pragma solidity ^0.7.0;\nimport \"@openzeppelin/contracts/token/ERC721/ERC721.sol\";\nimport \"@openzeppelin/contracts/token/ERC721/ERC721Burnable.sol\";\nimport \"@openzeppelin/contracts/token/ERC721/ERC721Pausable.sol\";\nimport \"@openzeppelin/contracts/utils/Counters.sol\";\nimport \"./ERC20Interface.sol\";\n\n/**\n * DID Payment - Accounting\n */\ncontract DIDPaymentService {\n    address public owner;\n    uint public fee;\n    ERC20Interface public stablecoin;\n\n    mapping(address => bool) public orders;\n    mapping (address => uint) public accounting;\n\n    event KYCPaid(\n        address providerMinter\n    );\n\n    /**\n    * DID Payment\n    */\n    constructor(address tokenAddress) public {\n        owner = msg.sender;\n        stablecoin  = ERC20Interface(tokenAddress);\n    }\n\n    function setProtocolConfig(uint256 _fee) public {\n        require(msg.sender == owner, \"INVALID_USER\");\n        fee = _fee;\n    }\n\n    function getProtocolConfig() public view returns (uint256) {\n        return (fee);\n    }    \n\n    function payKYCService(\n    ) public payable returns(bool){\n\n        // User must have a balance\n        require(\n            stablecoin.balanceOf(msg.sender) >= 0,\n            \"Invalid token balance\"\n        );\n        // User must have an allowance\n        require(\n            stablecoin.allowance(msg.sender, address(this)) >= 0,\n            \"Invalid token allowance\"\n        );\n        require(\n            stablecoin.transferFrom(\n                msg.sender,\n                address(this), \n                fee),\n            \"Transfer failed for fee\"\n        );\n\n        accounting[msg.sender] = accounting[msg.sender] + fee;\n        accounting[address(this)] = accounting[address(this)] + fee;\n        orders[msg.sender] = true;\n        emit KYCPaid(msg.sender);\n        return true;\n    }\n\n    function verifyPayment(\n    ) public view returns(bool) {\n        require(orders[msg.sender] == true, \"No KYC payment found for current user\");    \n        return true;\n    }\n\n}",
  "sourcePath": "/home/rogelio/Code/xdv/nft-document-swap/contracts/DIDPaymentService.sol",
  "compiler": {
    "name": "solc",
    "version": "0.7.6+commit.7338295f.Emscripten.clang"
  },
  "schemaVersion": "3.3.3",
  "updatedAt": "2021-02-23T21:28:47.807Z",
  "networkType": "ethereum",
  "devdoc": {
    "kind": "dev",
    "methods": {},
    "version": 1
  },
  "userdoc": {
    "kind": "user",
    "methods": {
      "constructor": {
        "notice": "DID Payment"
      }
    },
    "notice": "DID Payment - Accounting",
    "version": 1
  }
}