{
  "contractName": "DocumentAnchoring",
  "abi": [
    {
      "inputs": [],
      "stateMutability": "nonpayable",
      "type": "constructor"
    },
    {
      "anonymous": false,
      "inputs": [
        {
          "indexed": true,
          "internalType": "address",
          "name": "minter",
          "type": "address"
        },
        {
          "indexed": true,
          "internalType": "uint256",
          "name": "id",
          "type": "uint256"
        },
        {
          "indexed": false,
          "internalType": "string",
          "name": "name",
          "type": "string"
        },
        {
          "indexed": true,
          "internalType": "string",
          "name": "symbol",
          "type": "string"
        }
      ],
      "name": "MinterRegistered",
      "type": "event"
    },
    {
      "anonymous": false,
      "inputs": [
        {
          "indexed": false,
          "internalType": "address",
          "name": "minter",
          "type": "address"
        },
        {
          "indexed": false,
          "internalType": "address",
          "name": "from",
          "type": "address"
        },
        {
          "indexed": false,
          "internalType": "string",
          "name": "tokenURI",
          "type": "string"
        },
        {
          "indexed": false,
          "internalType": "uint256",
          "name": "anchorId",
          "type": "uint256"
        }
      ],
      "name": "RequestMinting",
      "type": "event"
    },
    {
      "anonymous": false,
      "inputs": [
        {
          "indexed": false,
          "internalType": "address",
          "name": "minter",
          "type": "address"
        },
        {
          "indexed": false,
          "internalType": "address",
          "name": "from",
          "type": "address"
        },
        {
          "indexed": false,
          "internalType": "string",
          "name": "tokenURI",
          "type": "string"
        },
        {
          "indexed": false,
          "internalType": "uint256",
          "name": "tokenId",
          "type": "uint256"
        }
      ],
      "name": "SelfMinted",
      "type": "event"
    },
    {
      "inputs": [
        {
          "internalType": "address",
          "name": "minter",
          "type": "address"
        },
        {
          "internalType": "string",
          "name": "name",
          "type": "string"
        },
        {
          "internalType": "string",
          "name": "symbol",
          "type": "string"
        },
        {
          "internalType": "address",
          "name": "paymentAddress",
          "type": "address"
        },
        {
          "internalType": "bool",
          "name": "hasUserKyc",
          "type": "bool"
        },
        {
          "internalType": "uint256",
          "name": "feeStructure",
          "type": "uint256"
        },
        {
          "internalType": "uint256",
          "name": "serviceFee",
          "type": "uint256"
        },
        {
          "internalType": "address",
          "name": "factoryAddress",
          "type": "address"
        }
      ],
      "name": "addToRegistry",
      "outputs": [
        {
          "internalType": "uint256",
          "name": "",
          "type": "uint256"
        }
      ],
      "stateMutability": "nonpayable",
      "type": "function"
    },
    {
      "inputs": [
        {
          "internalType": "uint256",
          "name": "",
          "type": "uint256"
        }
      ],
      "name": "dataProviderMinters",
      "outputs": [
        {
          "internalType": "address",
          "name": "minterAddress",
          "type": "address"
        },
        {
          "internalType": "string",
          "name": "name",
          "type": "string"
        },
        {
          "internalType": "string",
          "name": "symbol",
          "type": "string"
        },
        {
          "internalType": "address",
          "name": "paymentAddress",
          "type": "address"
        },
        {
          "internalType": "bool",
          "name": "hasUserKyc",
          "type": "bool"
        },
        {
          "internalType": "uint256",
          "name": "feeStructure",
          "type": "uint256"
        },
        {
          "internalType": "uint256",
          "name": "created",
          "type": "uint256"
        },
        {
          "internalType": "uint256",
          "name": "serviceFee",
          "type": "uint256"
        },
        {
          "internalType": "address",
          "name": "factoryAddress",
          "type": "address"
        },
        {
          "internalType": "bool",
          "name": "enabled",
          "type": "bool"
        }
      ],
      "stateMutability": "view",
      "type": "function",
      "constant": true
    },
    {
      "inputs": [
        {
          "internalType": "address",
          "name": "",
          "type": "address"
        }
      ],
      "name": "minterCounter",
      "outputs": [
        {
          "internalType": "uint256",
          "name": "",
          "type": "uint256"
        }
      ],
      "stateMutability": "view",
      "type": "function",
      "constant": true
    },
    {
      "inputs": [
        {
          "internalType": "address",
          "name": "",
          "type": "address"
        }
      ],
      "name": "minterDocumentRequestCounter",
      "outputs": [
        {
          "internalType": "uint256",
          "name": "",
          "type": "uint256"
        }
      ],
      "stateMutability": "view",
      "type": "function",
      "constant": true
    },
    {
      "inputs": [
        {
          "internalType": "address",
          "name": "",
          "type": "address"
        },
        {
          "internalType": "uint256",
          "name": "",
          "type": "uint256"
        }
      ],
      "name": "minterDocumentRequests",
      "outputs": [
        {
          "internalType": "address",
          "name": "user",
          "type": "address"
        },
        {
          "internalType": "string",
          "name": "userDid",
          "type": "string"
        },
        {
          "internalType": "address",
          "name": "toMinter",
          "type": "address"
        },
        {
          "internalType": "string",
          "name": "toMinterDid",
          "type": "string"
        },
        {
          "internalType": "string",
          "name": "documentURI",
          "type": "string"
        },
        {
          "internalType": "uint256",
          "name": "status",
          "type": "uint256"
        },
        {
          "internalType": "string",
          "name": "description",
          "type": "string"
        }
      ],
      "stateMutability": "view",
      "type": "function",
      "constant": true
    },
    {
      "inputs": [
        {
          "internalType": "address",
          "name": "minter",
          "type": "address"
        },
        {
          "internalType": "string",
          "name": "minterDid",
          "type": "string"
        },
        {
          "internalType": "string",
          "name": "userDid",
          "type": "string"
        },
        {
          "internalType": "bool",
          "name": "selfMint",
          "type": "bool"
        },
        {
          "internalType": "string",
          "name": "tokenURI",
          "type": "string"
        },
        {
          "internalType": "string",
          "name": "description",
          "type": "string"
        }
      ],
      "name": "requestMint",
      "outputs": [
        {
          "internalType": "bool",
          "name": "",
          "type": "bool"
        }
      ],
      "stateMutability": "nonpayable",
      "type": "function"
    }
  ],
  "bytecode": "0x608060405234801561001057600080fd5b5033600460006101000a81548173ffffffffffffffffffffffffffffffffffffffff021916908373ffffffffffffffffffffffffffffffffffffffff1602179055506118c9806100616000396000f3fe608060405234801561001057600080fd5b50600436106100625760003560e01c80632aa222c8146100675780635a338965146100bf5780636efaa69914610381578063761901bb146105cd578063967426ff146106255780639aa94ba5146107b6575b600080fd5b6100a96004803603602081101561007d57600080fd5b81019080803573ffffffffffffffffffffffffffffffffffffffff16906020019092919050505061099d565b6040518082815260200191505060405180910390f35b610369600480360360c08110156100d557600080fd5b81019080803573ffffffffffffffffffffffffffffffffffffffff1690602001909291908035906020019064010000000081111561011257600080fd5b82018360208201111561012457600080fd5b8035906020019184600183028401116401000000008311171561014657600080fd5b91908080601f016020809104026020016040519081016040528093929190818152602001838380828437600081840152601f19601f820116905080830192505050505050509192919290803590602001906401000000008111156101a957600080fd5b8201836020820111156101bb57600080fd5b803590602001918460018302840111640100000000831117156101dd57600080fd5b91908080601f016020809104026020016040519081016040528093929190818152602001838380828437600081840152601f19601f8201169050808301925050505050505091929192908035151590602001909291908035906020019064010000000081111561024c57600080fd5b82018360208201111561025e57600080fd5b8035906020019184600183028401116401000000008311171561028057600080fd5b91908080601f016020809104026020016040519081016040528093929190818152602001838380828437600081840152601f19601f820116905080830192505050505050509192919290803590602001906401000000008111156102e357600080fd5b8201836020820111156102f557600080fd5b8035906020019184600183028401116401000000008311171561031757600080fd5b91908080601f016020809104026020016040519081016040528093929190818152602001838380828437600081840152601f19601f8201169050808301925050505050505091929192905050506109b5565b60405180821515815260200191505060405180910390f35b6103cd6004803603604081101561039757600080fd5b81019080803573ffffffffffffffffffffffffffffffffffffffff16906020019092919080359060200190929190505050610f19565b604051808873ffffffffffffffffffffffffffffffffffffffff168152602001806020018773ffffffffffffffffffffffffffffffffffffffff16815260200180602001806020018681526020018060200185810385528b818151815260200191508051906020019080838360005b8381101561045757808201518184015260208101905061043c565b50505050905090810190601f1680156104845780820380516001836020036101000a031916815260200191505b50858103845289818151815260200191508051906020019080838360005b838110156104bd5780820151818401526020810190506104a2565b50505050905090810190601f1680156104ea5780820380516001836020036101000a031916815260200191505b50858103835288818151815260200191508051906020019080838360005b83811015610523578082015181840152602081019050610508565b50505050905090810190601f1680156105505780820380516001836020036101000a031916815260200191505b50858103825286818151815260200191508051906020019080838360005b8381101561058957808201518184015260208101905061056e565b50505050905090810190601f1680156105b65780820380516001836020036101000a031916815260200191505b509b50505050505050505050505060405180910390f35b61060f600480360360208110156105e357600080fd5b81019080803573ffffffffffffffffffffffffffffffffffffffff169060200190929190505050611208565b6040518082815260200191505060405180910390f35b6106516004803603602081101561063b57600080fd5b8101908080359060200190929190505050611220565b604051808b73ffffffffffffffffffffffffffffffffffffffff16815260200180602001806020018a73ffffffffffffffffffffffffffffffffffffffff16815260200189151581526020018881526020018781526020018681526020018573ffffffffffffffffffffffffffffffffffffffff168152602001841515815260200183810383528c818151815260200191508051906020019080838360005b8381101561070b5780820151818401526020810190506106f0565b50505050905090810190601f1680156107385780820380516001836020036101000a031916815260200191505b5083810382528b818151815260200191508051906020019080838360005b83811015610771578082015181840152602081019050610756565b50505050905090810190601f16801561079e5780820380516001836020036101000a031916815260200191505b509c5050505050505050505050505060405180910390f35b61098760048036036101008110156107cd57600080fd5b81019080803573ffffffffffffffffffffffffffffffffffffffff1690602001909291908035906020019064010000000081111561080a57600080fd5b82018360208201111561081c57600080fd5b8035906020019184600183028401116401000000008311171561083e57600080fd5b91908080601f016020809104026020016040519081016040528093929190818152602001838380828437600081840152601f19601f820116905080830192505050505050509192919290803590602001906401000000008111156108a157600080fd5b8201836020820111156108b357600080fd5b803590602001918460018302840111640100000000831117156108d557600080fd5b91908080601f016020809104026020016040519081016040528093929190818152602001838380828437600081840152601f19601f820116905080830192505050505050509192919290803573ffffffffffffffffffffffffffffffffffffffff1690602001909291908035151590602001909291908035906020019092919080359060200190929190803573ffffffffffffffffffffffffffffffffffffffff16906020019092919050505061141e565b6040518082815260200191505060405180910390f35b60026020528060005260406000206000915090505481565b6000600115158415151415610bcc5760008773ffffffffffffffffffffffffffffffffffffffff1663e67e402c600033876040518463ffffffff1660e01b8152600401808481526020018373ffffffffffffffffffffffffffffffffffffffff16815260200180602001828103825283818151815260200191508051906020019080838360005b83811015610a57578082015181840152602081019050610a3c565b50505050905090810190601f168015610a845780820380516001836020036101000a031916815260200191505b50945050505050602060405180830381600087803b158015610aa557600080fd5b505af1158015610ab9573d6000803e3d6000fd5b505050506040513d6020811015610acf57600080fd5b810190808051906020019092919050505090507f2fba0a5a0542aa8564b567a38d6232d6e463eae72ffb8004484a0f4b036296b988338684604051808573ffffffffffffffffffffffffffffffffffffffff1681526020018473ffffffffffffffffffffffffffffffffffffffff16815260200180602001838152602001828103825284818151815260200191508051906020019080838360005b83811015610b85578082015181840152602081019050610b6a565b50505050905090810190601f168015610bb25780820380516001836020036101000a031916815260200191505b509550505050505060405180910390a16001915050610f0f565b600260008873ffffffffffffffffffffffffffffffffffffffff1673ffffffffffffffffffffffffffffffffffffffff168152602001908152602001600020600081548092919060010191905055506000600260008973ffffffffffffffffffffffffffffffffffffffff1673ffffffffffffffffffffffffffffffffffffffff1681526020019081526020016000205490506040518060e001604052803373ffffffffffffffffffffffffffffffffffffffff1681526020018781526020018973ffffffffffffffffffffffffffffffffffffffff16815260200188815260200185815260200160006002811115610cc157fe5b815260200184815250600360008a73ffffffffffffffffffffffffffffffffffffffff1673ffffffffffffffffffffffffffffffffffffffff168152602001908152602001600020600083815260200190815260200160002060008201518160000160006101000a81548173ffffffffffffffffffffffffffffffffffffffff021916908373ffffffffffffffffffffffffffffffffffffffff1602179055506020820151816001019080519060200190610d7d9291906117e8565b5060408201518160020160006101000a81548173ffffffffffffffffffffffffffffffffffffffff021916908373ffffffffffffffffffffffffffffffffffffffff1602179055506060820151816003019080519060200190610de19291906117e8565b506080820151816004019080519060200190610dfe9291906117e8565b5060a0820151816005015560c0820151816006019080519060200190610e259291906117e8565b509050507fa80c7d6d2d07f8bb5eec657b8d7c4b324f0858cbdd14cea252619ab61afe3a9288338684604051808573ffffffffffffffffffffffffffffffffffffffff1681526020018473ffffffffffffffffffffffffffffffffffffffff16815260200180602001838152602001828103825284818151815260200191508051906020019080838360005b83811015610ecc578082015181840152602081019050610eb1565b50505050905090810190601f168015610ef95780820380516001836020036101000a031916815260200191505b509550505050505060405180910390a160019150505b9695505050505050565b6003602052816000526040600020602052806000526040600020600091509150508060000160009054906101000a900473ffffffffffffffffffffffffffffffffffffffff1690806001018054600181600116156101000203166002900480601f016020809104026020016040519081016040528092919081815260200182805460018160011615610100020316600290048015610ff85780601f10610fcd57610100808354040283529160200191610ff8565b820191906000526020600020905b815481529060010190602001808311610fdb57829003601f168201915b5050505050908060020160009054906101000a900473ffffffffffffffffffffffffffffffffffffffff1690806003018054600181600116156101000203166002900480601f0160208091040260200160405190810160405280929190818152602001828054600181600116156101000203166002900480156110bc5780601f10611091576101008083540402835291602001916110bc565b820191906000526020600020905b81548152906001019060200180831161109f57829003601f168201915b505050505090806004018054600181600116156101000203166002900480601f01602080910402602001604051908101604052809291908181526020018280546001816001161561010002031660029004801561115a5780601f1061112f5761010080835404028352916020019161115a565b820191906000526020600020905b81548152906001019060200180831161113d57829003601f168201915b505050505090806005015490806006018054600181600116156101000203166002900480601f0160208091040260200160405190810160405280929190818152602001828054600181600116156101000203166002900480156111fe5780601f106111d3576101008083540402835291602001916111fe565b820191906000526020600020905b8154815290600101906020018083116111e157829003601f168201915b5050505050905087565b60006020528060005260406000206000915090505481565b60016020528060005260406000206000915090508060000160009054906101000a900473ffffffffffffffffffffffffffffffffffffffff1690806001018054600181600116156101000203166002900480601f0160208091040260200160405190810160405280929190818152602001828054600181600116156101000203166002900480156112f25780601f106112c7576101008083540402835291602001916112f2565b820191906000526020600020905b8154815290600101906020018083116112d557829003601f168201915b505050505090806002018054600181600116156101000203166002900480601f0160208091040260200160405190810160405280929190818152602001828054600181600116156101000203166002900480156113905780601f1061136557610100808354040283529160200191611390565b820191906000526020600020905b81548152906001019060200180831161137357829003601f168201915b5050505050908060030160009054906101000a900473ffffffffffffffffffffffffffffffffffffffff16908060030160149054906101000a900460ff16908060040154908060050154908060060154908060070160009054906101000a900473ffffffffffffffffffffffffffffffffffffffff16908060070160149054906101000a900460ff1690508a565b60008060008a73ffffffffffffffffffffffffffffffffffffffff1673ffffffffffffffffffffffffffffffffffffffff1681526020019081526020016000206000815480929190600101919050555060008060008b73ffffffffffffffffffffffffffffffffffffffff1673ffffffffffffffffffffffffffffffffffffffff1681526020019081526020016000205490506040518061014001604052808b73ffffffffffffffffffffffffffffffffffffffff1681526020018a81526020018981526020018873ffffffffffffffffffffffffffffffffffffffff16815260200187151581526020018681526020014281526020018581526020018473ffffffffffffffffffffffffffffffffffffffff168152602001600115158152506001600083815260200190815260200160002060008201518160000160006101000a81548173ffffffffffffffffffffffffffffffffffffffff021916908373ffffffffffffffffffffffffffffffffffffffff16021790555060208201518160010190805190602001906115b49291906117e8565b5060408201518160020190805190602001906115d19291906117e8565b5060608201518160030160006101000a81548173ffffffffffffffffffffffffffffffffffffffff021916908373ffffffffffffffffffffffffffffffffffffffff16021790555060808201518160030160146101000a81548160ff02191690831515021790555060a0820151816004015560c0820151816005015560e082015181600601556101008201518160070160006101000a81548173ffffffffffffffffffffffffffffffffffffffff021916908373ffffffffffffffffffffffffffffffffffffffff1602179055506101208201518160070160146101000a81548160ff021916908315150217905550905050876040518082805190602001908083835b602083106116f757805182526020820191506020810190506020830392506116d4565b6001836020036101000a0380198251168184511680821785525050505050509050019150506040518091039020818b73ffffffffffffffffffffffffffffffffffffffff167f27cbb566eb604924251497b674c4c5afaa8275d5ef452d9dd86cdd6e0ada15ca8c6040518080602001828103825283818151815260200191508051906020019080838360005b8381101561179e578082015181840152602081019050611783565b50505050905090810190601f1680156117cb5780820380516001836020036101000a031916815260200191505b509250505060405180910390a48091505098975050505050505050565b828054600181600116156101000203166002900490600052602060002090601f01602090048101928261181e5760008555611865565b82601f1061183757805160ff1916838001178555611865565b82800160010185558215611865579182015b82811115611864578251825591602001919060010190611849565b5b5090506118729190611876565b5090565b5b8082111561188f576000816000905550600101611877565b509056fea2646970667358221220cf8a4a31074e3d436f1a4dc2e9bc83d7b010729f27edb867e588b26715de239b64736f6c63430007060033",
  "immutableReferences": {},
  "source": "pragma solidity ^0.7.0;\nimport \"./NFTDocumentMinter.sol\";\nimport \"./MinterRegistry.sol\";\n\n/**\n *  Anchors IPLD cids by minter address\n */\ncontract DocumentAnchoring is MinterRegistry {\n    // RequestMinting events\n    event RequestMinting(\n        address minter, // NFT\n        address from,\n        string tokenURI,\n        uint anchorId\n    );\n\n    // SelfMinted event\n    event SelfMinted(\n        address minter, // NFT\n        address from,\n        string tokenURI,\n        uint tokenId\n    );    \n    address owner;\n\n    constructor() public {\n        owner = msg.sender;\n    }\n\n    /** NatDoc\n     * @dev Requests minting service  from a document minting provider or self mintingss\n     * minter\n     * selfMint\n     * tokenURI\n     */\n    function requestMint(\n        address minter,\n        string memory minterDid,\n        string memory userDid,\n        bool selfMint,\n        string memory tokenURI,\n        string memory description\n    ) public returns (bool) {\n        // Allow self minting\n        if (selfMint == true) {\n            // Is sender owner of minter\n            uint id = NFTDocumentMinter(minter).mint(0, msg.sender, tokenURI);\n            \n            emit SelfMinted(\n                minter, \n                msg.sender, \n                tokenURI, \n                id\n            );\n            return true;\n        }\n\n        // otherwise add request for minting to minter\n        minterDocumentRequestCounter[minter]++;\n        uint i = minterDocumentRequestCounter[minter];\n        \n        minterDocumentRequests[minter][i] = DocumentMintingRequest({\n            user: msg.sender, \n            toMinterDid: minterDid,\n            toMinter: minter,\n            userDid: userDid, \n            documentURI: tokenURI,\n            status: uint(DocumentMintingRequestStatus.REQUEST),\n            description: description\n        });\n        emit RequestMinting(\n            minter,\n            msg.sender,\n            tokenURI,\n            i\n        );\n        return true;\n    }\n}\n",
  "sourcePath": "/home/esfera-ubuntu/Documents/projects/ifesa/nft-document-swap/contracts/DocumentAnchoring.sol",
  "compiler": {
    "name": "solc",
    "version": "0.7.6+commit.7338295f.Emscripten.clang"
  },
  "schemaVersion": "3.3.3",
  "updatedAt": "2021-02-20T01:00:24.852Z",
  "networkType": "ethereum",
  "devdoc": {
    "kind": "dev",
    "methods": {
      "requestMint(address,string,string,bool,string,string)": {
        "details": "Requests minting service  from a document minting provider or self mintingss minter selfMint tokenURI"
      }
    },
    "version": 1
  },
  "userdoc": {
    "kind": "user",
    "methods": {
      "requestMint(address,string,string,bool,string,string)": {
        "notice": "NatDoc"
      }
    },
    "notice": "Anchors IPLD cids by minter address",
    "version": 1
  }
}