{
  "contractName": "DocumentAnchoring",
  "abi": [
    {
      "inputs": [],
      "stateMutability": "nonpayable",
      "type": "constructor"
    },
    {
      "anonymous": false,
      "inputs": [
        {
          "indexed": false,
          "internalType": "address",
          "name": "minter",
          "type": "address"
        },
        {
          "indexed": false,
          "internalType": "address",
          "name": "from",
          "type": "address"
        },
        {
          "indexed": false,
          "internalType": "string",
          "name": "tokenURI",
          "type": "string"
        },
        {
          "indexed": false,
          "internalType": "uint256",
          "name": "anchorId",
          "type": "uint256"
        }
      ],
      "name": "RequestMinting",
      "type": "event"
    },
    {
      "anonymous": false,
      "inputs": [
        {
          "indexed": false,
          "internalType": "address",
          "name": "minter",
          "type": "address"
        },
        {
          "indexed": false,
          "internalType": "address",
          "name": "from",
          "type": "address"
        },
        {
          "indexed": false,
          "internalType": "string",
          "name": "tokenURI",
          "type": "string"
        },
        {
          "indexed": false,
          "internalType": "uint256",
          "name": "tokenId",
          "type": "uint256"
        }
      ],
      "name": "SelfMinted",
      "type": "event"
    },
    {
      "inputs": [
        {
          "internalType": "address",
          "name": "",
          "type": "address"
        }
      ],
      "name": "minterDocumentRequestCounter",
      "outputs": [
        {
          "internalType": "uint256",
          "name": "",
          "type": "uint256"
        }
      ],
      "stateMutability": "view",
      "type": "function",
      "constant": true
    },
    {
      "inputs": [
        {
          "internalType": "uint256",
          "name": "",
          "type": "uint256"
        }
      ],
      "name": "minterDocumentRequests",
      "outputs": [
        {
          "internalType": "address",
          "name": "user",
          "type": "address"
        },
        {
          "internalType": "string",
          "name": "userDid",
          "type": "string"
        },
        {
          "internalType": "address",
          "name": "toMinter",
          "type": "address"
        },
        {
          "internalType": "string",
          "name": "toMinterDid",
          "type": "string"
        },
        {
          "internalType": "string",
          "name": "documentURI",
          "type": "string"
        },
        {
          "internalType": "uint256",
          "name": "status",
          "type": "uint256"
        }
      ],
      "stateMutability": "view",
      "type": "function",
      "constant": true
    },
    {
      "inputs": [
        {
          "internalType": "address",
          "name": "minter",
          "type": "address"
        },
        {
          "internalType": "string",
          "name": "minterDid",
          "type": "string"
        },
        {
          "internalType": "string",
          "name": "userDid",
          "type": "string"
        },
        {
          "internalType": "bool",
          "name": "selfMint",
          "type": "bool"
        },
        {
          "internalType": "string",
          "name": "tokenURI",
          "type": "string"
        }
      ],
      "name": "requestMint",
      "outputs": [
        {
          "internalType": "bool",
          "name": "",
          "type": "bool"
        }
      ],
      "stateMutability": "nonpayable",
      "type": "function"
    }
  ],
  "bytecode": "0x608060405234801561001057600080fd5b5033600260006101000a81548173ffffffffffffffffffffffffffffffffffffffff021916908373ffffffffffffffffffffffffffffffffffffffff160217905550610f01806100616000396000f3fe608060405234801561001057600080fd5b50600436106100415760003560e01c806318030e7d146100465780632aa222c814610206578063a0599ace1461025e575b600080fd5b6100726004803603602081101561005c57600080fd5b8101908080359060200190929190505050610489565b604051808773ffffffffffffffffffffffffffffffffffffffff168152602001806020018673ffffffffffffffffffffffffffffffffffffffff1681526020018060200180602001858152602001848103845289818151815260200191508051906020019080838360005b838110156100f85780820151818401526020810190506100dd565b50505050905090810190601f1680156101255780820380516001836020036101000a031916815260200191505b50848103835287818151815260200191508051906020019080838360005b8381101561015e578082015181840152602081019050610143565b50505050905090810190601f16801561018b5780820380516001836020036101000a031916815260200191505b50848103825286818151815260200191508051906020019080838360005b838110156101c45780820151818401526020810190506101a9565b50505050905090810190601f1680156101f15780820380516001836020036101000a031916815260200191505b50995050505050505050505060405180910390f35b6102486004803603602081101561021c57600080fd5b81019080803573ffffffffffffffffffffffffffffffffffffffff1690602001909291905050506106cd565b6040518082815260200191505060405180910390f35b610471600480360360a081101561027457600080fd5b81019080803573ffffffffffffffffffffffffffffffffffffffff169060200190929190803590602001906401000000008111156102b157600080fd5b8201836020820111156102c357600080fd5b803590602001918460018302840111640100000000831117156102e557600080fd5b91908080601f016020809104026020016040519081016040528093929190818152602001838380828437600081840152601f19601f8201169050808301925050505050505091929192908035906020019064010000000081111561034857600080fd5b82018360208201111561035a57600080fd5b8035906020019184600183028401116401000000008311171561037c57600080fd5b91908080601f016020809104026020016040519081016040528093929190818152602001838380828437600081840152601f19601f820116905080830192505050505050509192919290803515159060200190929190803590602001906401000000008111156103eb57600080fd5b8201836020820111156103fd57600080fd5b8035906020019184600183028401116401000000008311171561041f57600080fd5b91908080601f016020809104026020016040519081016040528093929190818152602001838380828437600081840152601f19601f8201169050808301925050505050505091929192905050506106e5565b60405180821515815260200191505060405180910390f35b60016020528060005260406000206000915090508060000160009054906101000a900473ffffffffffffffffffffffffffffffffffffffff1690806001018054600181600116156101000203166002900480601f01602080910402602001604051908101604052809291908181526020018280546001816001161561010002031660029004801561055b5780601f106105305761010080835404028352916020019161055b565b820191906000526020600020905b81548152906001019060200180831161053e57829003601f168201915b5050505050908060020160009054906101000a900473ffffffffffffffffffffffffffffffffffffffff1690806003018054600181600116156101000203166002900480601f01602080910402602001604051908101604052809291908181526020018280546001816001161561010002031660029004801561061f5780601f106105f45761010080835404028352916020019161061f565b820191906000526020600020905b81548152906001019060200180831161060257829003601f168201915b505050505090806004018054600181600116156101000203166002900480601f0160208091040260200160405190810160405280929190818152602001828054600181600116156101000203166002900480156106bd5780601f10610692576101008083540402835291602001916106bd565b820191906000526020600020905b8154815290600101906020018083116106a057829003601f168201915b5050505050908060050154905086565b60006020528060005260406000206000915090505481565b60008073ffffffffffffffffffffffffffffffffffffffff168673ffffffffffffffffffffffffffffffffffffffff1663deb6ce316040518163ffffffff1660e01b815260040160206040518083038186803b15801561074457600080fd5b505afa158015610758573d6000803e3d6000fd5b505050506040513d602081101561076e57600080fd5b810190808051906020019092919050505073ffffffffffffffffffffffffffffffffffffffff161415610809576040517f08c379a00000000000000000000000000000000000000000000000000000000081526004018080602001828103825260188152602001807f4e4f20434f4e5452414354204d494e54455220464f554e44000000000000000081525060200191505060405180910390fd5b600115158315151415610b36573373ffffffffffffffffffffffffffffffffffffffff168673ffffffffffffffffffffffffffffffffffffffff1663deb6ce316040518163ffffffff1660e01b815260040160206040518083038186803b15801561087357600080fd5b505afa158015610887573d6000803e3d6000fd5b505050506040513d602081101561089d57600080fd5b810190808051906020019092919050505073ffffffffffffffffffffffffffffffffffffffff1614610937576040517f08c379a00000000000000000000000000000000000000000000000000000000081526004018080602001828103825260158152602001807f494e56414c4944204d494e54455220414343455353000000000000000000000081525060200191505060405180910390fd5b60008673ffffffffffffffffffffffffffffffffffffffff1663d0def52133856040518363ffffffff1660e01b8152600401808373ffffffffffffffffffffffffffffffffffffffff16815260200180602001828103825283818151815260200191508051906020019080838360005b838110156109c25780820151818401526020810190506109a7565b50505050905090810190601f1680156109ef5780820380516001836020036101000a031916815260200191505b509350505050602060405180830381600087803b158015610a0f57600080fd5b505af1158015610a23573d6000803e3d6000fd5b505050506040513d6020811015610a3957600080fd5b810190808051906020019092919050505090507f2fba0a5a0542aa8564b567a38d6232d6e463eae72ffb8004484a0f4b036296b987338584604051808573ffffffffffffffffffffffffffffffffffffffff1681526020018473ffffffffffffffffffffffffffffffffffffffff16815260200180602001838152602001828103825284818151815260200191508051906020019080838360005b83811015610aef578082015181840152602081019050610ad4565b50505050905090810190601f168015610b1c5780820380516001836020036101000a031916815260200191505b509550505050505060405180910390a16001915050610e17565b6000808773ffffffffffffffffffffffffffffffffffffffff1673ffffffffffffffffffffffffffffffffffffffff1681526020019081526020016000206000815480929190600101919050555060008060008873ffffffffffffffffffffffffffffffffffffffff1673ffffffffffffffffffffffffffffffffffffffff1681526020019081526020016000205490506040518060c001604052803373ffffffffffffffffffffffffffffffffffffffff1681526020018681526020018873ffffffffffffffffffffffffffffffffffffffff16815260200187815260200184815260200160006002811115610c2957fe5b8152506001600083815260200190815260200160002060008201518160000160006101000a81548173ffffffffffffffffffffffffffffffffffffffff021916908373ffffffffffffffffffffffffffffffffffffffff1602179055506020820151816001019080519060200190610ca2929190610e20565b5060408201518160020160006101000a81548173ffffffffffffffffffffffffffffffffffffffff021916908373ffffffffffffffffffffffffffffffffffffffff1602179055506060820151816003019080519060200190610d06929190610e20565b506080820151816004019080519060200190610d23929190610e20565b5060a082015181600501559050507fa80c7d6d2d07f8bb5eec657b8d7c4b324f0858cbdd14cea252619ab61afe3a9287338584604051808573ffffffffffffffffffffffffffffffffffffffff1681526020018473ffffffffffffffffffffffffffffffffffffffff16815260200180602001838152602001828103825284818151815260200191508051906020019080838360005b83811015610dd4578082015181840152602081019050610db9565b50505050905090810190601f168015610e015780820380516001836020036101000a031916815260200191505b509550505050505060405180910390a160019150505b95945050505050565b828054600181600116156101000203166002900490600052602060002090601f016020900481019282610e565760008555610e9d565b82601f10610e6f57805160ff1916838001178555610e9d565b82800160010185558215610e9d579182015b82811115610e9c578251825591602001919060010190610e81565b5b509050610eaa9190610eae565b5090565b5b80821115610ec7576000816000905550600101610eaf565b509056fea2646970667358221220c38a42f9e1e6297af88666d80dea6ab4d2e98b804a8de827ebaf0de1a38639cb64736f6c63430007060033",
  "immutableReferences": {},
  "source": "pragma solidity ^0.7.0;\nimport \"@openzeppelin/contracts/token/ERC721/ERC721.sol\";\nimport \"@openzeppelin/contracts/token/ERC721/ERC721Burnable.sol\";\nimport \"@openzeppelin/contracts/token/ERC721/ERC721Pausable.sol\";\nimport \"@openzeppelin/contracts/utils/Counters.sol\";\nimport \"./NFTDocumentMinter.sol\";\n\n/**\n *  Anchors IPLD cids by minter address\n */\ncontract DocumentAnchoring {\n    // Documents by minter counters\n    mapping(address => uint) public minterDocumentRequestCounter;\n\n     enum DocumentMintingRequestStatus   {\n         REQUEST,\n         MINTED,\n         BURNED\n     }\n\n     \n    // Document minting request\n    struct DocumentMintingRequest {\n        address user;\n        string userDid;\n        address toMinter; // NFT\n        string toMinterDid;\n        string documentURI;\n        uint status;        \n    }\n\n    // Document minter items\n    mapping(uint => DocumentMintingRequest) public minterDocumentRequests;\n\n    // RequestMinting events\n    event RequestMinting(\n        address minter, // NFT\n        address from,\n        string tokenURI,\n        uint anchorId\n    );\n\n\n    // SelfMinted event\n    event SelfMinted(\n        address minter, // NFT\n        address from,\n        string tokenURI,\n        uint tokenId\n    );    \n    address owner;\n\n    constructor() public {\n        owner = msg.sender;\n    }\n\n    /** NatDoc\n     * @dev Requests minting service  from a document minting provider or self mintingss\n     * minter\n     * selfMint\n     * tokenURI\n     */\n    function requestMint(\n        address minter,\n        string memory minterDid,\n        string memory userDid,\n        bool selfMint,\n        string memory tokenURI\n    ) public returns (bool) {\n        // Checks if there is a valid address\n        require(NFTDocumentMinter(minter).mintedBy() != address(0) , \"NO CONTRACT MINTER FOUND\");\n \n        // Allow self minting\n        if (selfMint == true) {\n            // Is sender owner of minter\n            require(NFTDocumentMinter(minter).mintedBy() == msg.sender, \"INVALID MINTER ACCESS\");\n            uint id = NFTDocumentMinter(minter).mint(msg.sender, tokenURI);\n            \n            emit SelfMinted(\n                minter, \n                msg.sender, \n                tokenURI, \n                id\n            );\n            return true;\n        }\n\n        // otherwise add request for minting to minter\n        minterDocumentRequestCounter[minter]++;\n        uint i = minterDocumentRequestCounter[minter];\n        \n        minterDocumentRequests[i] = DocumentMintingRequest({\n            user: msg.sender, \n            toMinterDid: minterDid,\n            toMinter: minter,\n            userDid: userDid, \n            documentURI: tokenURI,\n            status: uint(DocumentMintingRequestStatus.REQUEST)\n        });\n        emit RequestMinting(\n            minter,\n            msg.sender,\n            tokenURI,\n            i\n        );\n        return true;\n    }\n}\n",
  "sourcePath": "/home/rogelio/Code/xdv/nft-document-swap/contracts/DocumentAnchoring.sol",
  "compiler": {
    "name": "solc",
    "version": "0.7.6+commit.7338295f.Emscripten.clang"
  },
  "schemaVersion": "3.3.3",
  "updatedAt": "2021-01-31T15:52:46.360Z",
  "networkType": "ethereum",
  "devdoc": {
    "kind": "dev",
    "methods": {
      "requestMint(address,string,string,bool,string)": {
        "details": "Requests minting service  from a document minting provider or self mintingss minter selfMint tokenURI"
      }
    },
    "version": 1
  },
  "userdoc": {
    "kind": "user",
    "methods": {
      "requestMint(address,string,string,bool,string)": {
        "notice": "NatDoc"
      }
    },
    "notice": "Anchors IPLD cids by minter address",
    "version": 1
  }
}