{
  "contractName": "KLIP",
  "abi": [
    {
      "inputs": [
        {
          "internalType": "address",
          "name": "tokenERC20",
          "type": "address"
        },
        {
          "internalType": "address",
          "name": "newPaymentAddress",
          "type": "address"
        }
      ],
      "stateMutability": "nonpayable",
      "type": "constructor"
    },
    {
      "anonymous": false,
      "inputs": [
        {
          "indexed": true,
          "internalType": "address",
          "name": "owner",
          "type": "address"
        },
        {
          "indexed": true,
          "internalType": "address",
          "name": "approved",
          "type": "address"
        },
        {
          "indexed": true,
          "internalType": "uint256",
          "name": "tokenId",
          "type": "uint256"
        }
      ],
      "name": "Approval",
      "type": "event"
    },
    {
      "anonymous": false,
      "inputs": [
        {
          "indexed": true,
          "internalType": "address",
          "name": "owner",
          "type": "address"
        },
        {
          "indexed": true,
          "internalType": "address",
          "name": "operator",
          "type": "address"
        },
        {
          "indexed": false,
          "internalType": "bool",
          "name": "approved",
          "type": "bool"
        }
      ],
      "name": "ApprovalForAll",
      "type": "event"
    },
    {
      "anonymous": false,
      "inputs": [
        {
          "indexed": true,
          "internalType": "address",
          "name": "publisher",
          "type": "address"
        },
        {
          "indexed": true,
          "internalType": "string",
          "name": "publisherDid",
          "type": "string"
        },
        {
          "indexed": false,
          "internalType": "bytes",
          "name": "documentURI",
          "type": "bytes"
        },
        {
          "indexed": false,
          "internalType": "uint256",
          "name": "id",
          "type": "uint256"
        }
      ],
      "name": "DocumentAnchored",
      "type": "event"
    },
    {
      "anonymous": false,
      "inputs": [
        {
          "indexed": true,
          "internalType": "address",
          "name": "previousOwner",
          "type": "address"
        },
        {
          "indexed": true,
          "internalType": "address",
          "name": "newOwner",
          "type": "address"
        }
      ],
      "name": "OwnershipTransferred",
      "type": "event"
    },
    {
      "anonymous": false,
      "inputs": [
        {
          "indexed": false,
          "internalType": "address",
          "name": "account",
          "type": "address"
        }
      ],
      "name": "Paused",
      "type": "event"
    },
    {
      "anonymous": false,
      "inputs": [
        {
          "indexed": true,
          "internalType": "uint256",
          "name": "tokenId",
          "type": "uint256"
        },
        {
          "indexed": true,
          "internalType": "address",
          "name": "from",
          "type": "address"
        },
        {
          "indexed": true,
          "internalType": "address",
          "name": "paymentAddress",
          "type": "address"
        },
        {
          "indexed": false,
          "internalType": "uint256",
          "name": "paidToContract",
          "type": "uint256"
        },
        {
          "indexed": false,
          "internalType": "uint256",
          "name": "paidToPaymentAddress",
          "type": "uint256"
        }
      ],
      "name": "ServiceFeePaid",
      "type": "event"
    },
    {
      "anonymous": false,
      "inputs": [
        {
          "indexed": true,
          "internalType": "address",
          "name": "from",
          "type": "address"
        },
        {
          "indexed": true,
          "internalType": "address",
          "name": "to",
          "type": "address"
        },
        {
          "indexed": true,
          "internalType": "uint256",
          "name": "tokenId",
          "type": "uint256"
        }
      ],
      "name": "Transfer",
      "type": "event"
    },
    {
      "anonymous": false,
      "inputs": [
        {
          "indexed": false,
          "internalType": "address",
          "name": "account",
          "type": "address"
        }
      ],
      "name": "Unpaused",
      "type": "event"
    },
    {
      "anonymous": false,
      "inputs": [
        {
          "indexed": true,
          "internalType": "address",
          "name": "paymentAddress",
          "type": "address"
        },
        {
          "indexed": false,
          "internalType": "uint256",
          "name": "amount",
          "type": "uint256"
        }
      ],
      "name": "Withdrawn",
      "type": "event"
    },
    {
      "inputs": [
        {
          "internalType": "address",
          "name": "to",
          "type": "address"
        },
        {
          "internalType": "uint256",
          "name": "tokenId",
          "type": "uint256"
        }
      ],
      "name": "approve",
      "outputs": [],
      "stateMutability": "nonpayable",
      "type": "function"
    },
    {
      "inputs": [
        {
          "internalType": "address",
          "name": "owner",
          "type": "address"
        }
      ],
      "name": "balanceOf",
      "outputs": [
        {
          "internalType": "uint256",
          "name": "",
          "type": "uint256"
        }
      ],
      "stateMutability": "view",
      "type": "function",
      "constant": true
    },
    {
      "inputs": [
        {
          "internalType": "uint256",
          "name": "tokenId",
          "type": "uint256"
        }
      ],
      "name": "burn",
      "outputs": [],
      "stateMutability": "nonpayable",
      "type": "function"
    },
    {
      "inputs": [],
      "name": "fee",
      "outputs": [
        {
          "internalType": "uint256",
          "name": "",
          "type": "uint256"
        }
      ],
      "stateMutability": "view",
      "type": "function",
      "constant": true
    },
    {
      "inputs": [
        {
          "internalType": "uint256",
          "name": "",
          "type": "uint256"
        }
      ],
      "name": "fileUri",
      "outputs": [
        {
          "internalType": "string",
          "name": "",
          "type": "string"
        }
      ],
      "stateMutability": "view",
      "type": "function",
      "constant": true
    },
    {
      "inputs": [
        {
          "internalType": "uint256",
          "name": "tokenId",
          "type": "uint256"
        }
      ],
      "name": "getApproved",
      "outputs": [
        {
          "internalType": "address",
          "name": "",
          "type": "address"
        }
      ],
      "stateMutability": "view",
      "type": "function",
      "constant": true
    },
    {
      "inputs": [
        {
          "internalType": "address",
          "name": "owner",
          "type": "address"
        },
        {
          "internalType": "address",
          "name": "operator",
          "type": "address"
        }
      ],
      "name": "isApprovedForAll",
      "outputs": [
        {
          "internalType": "bool",
          "name": "",
          "type": "bool"
        }
      ],
      "stateMutability": "view",
      "type": "function",
      "constant": true
    },
    {
      "inputs": [
        {
          "internalType": "bytes32",
          "name": "hash",
          "type": "bytes32"
        },
        {
          "internalType": "bytes",
          "name": "signature",
          "type": "bytes"
        }
      ],
      "name": "isValidSignature",
      "outputs": [
        {
          "internalType": "bytes4",
          "name": "magicValue",
          "type": "bytes4"
        }
      ],
      "stateMutability": "view",
      "type": "function",
      "constant": true
    },
    {
      "inputs": [
        {
          "internalType": "address",
          "name": "",
          "type": "address"
        }
      ],
      "name": "minterCounter",
      "outputs": [
        {
          "internalType": "uint256",
          "name": "",
          "type": "uint256"
        }
      ],
      "stateMutability": "view",
      "type": "function",
      "constant": true
    },
    {
      "inputs": [
        {
          "internalType": "address",
          "name": "",
          "type": "address"
        }
      ],
      "name": "minterDocumentRequestCounter",
      "outputs": [
        {
          "internalType": "uint256",
          "name": "",
          "type": "uint256"
        }
      ],
      "stateMutability": "view",
      "type": "function",
      "constant": true
    },
    {
      "inputs": [
        {
          "internalType": "address",
          "name": "",
          "type": "address"
        },
        {
          "internalType": "uint256",
          "name": "",
          "type": "uint256"
        }
      ],
      "name": "minterDocumentRequests",
      "outputs": [
        {
          "internalType": "address",
          "name": "publisher",
          "type": "address"
        },
        {
          "internalType": "address",
          "name": "buyer",
          "type": "address"
        },
        {
          "internalType": "string",
          "name": "buyerDid",
          "type": "string"
        },
        {
          "internalType": "bytes",
          "name": "documentURI",
          "type": "bytes"
        },
        {
          "internalType": "uint256",
          "name": "status",
          "type": "uint256"
        },
        {
          "internalType": "bool",
          "name": "encrypted",
          "type": "bool"
        },
        {
          "internalType": "uint256",
          "name": "qty",
          "type": "uint256"
        }
      ],
      "stateMutability": "view",
      "type": "function",
      "constant": true
    },
    {
      "inputs": [],
      "name": "name",
      "outputs": [
        {
          "internalType": "string",
          "name": "",
          "type": "string"
        }
      ],
      "stateMutability": "view",
      "type": "function",
      "constant": true
    },
    {
      "inputs": [],
      "name": "owner",
      "outputs": [
        {
          "internalType": "address",
          "name": "",
          "type": "address"
        }
      ],
      "stateMutability": "view",
      "type": "function",
      "constant": true
    },
    {
      "inputs": [
        {
          "internalType": "uint256",
          "name": "tokenId",
          "type": "uint256"
        }
      ],
      "name": "ownerOf",
      "outputs": [
        {
          "internalType": "address",
          "name": "",
          "type": "address"
        }
      ],
      "stateMutability": "view",
      "type": "function",
      "constant": true
    },
    {
      "inputs": [],
      "name": "paused",
      "outputs": [
        {
          "internalType": "bool",
          "name": "",
          "type": "bool"
        }
      ],
      "stateMutability": "view",
      "type": "function",
      "constant": true
    },
    {
      "inputs": [],
      "name": "paymentAddress",
      "outputs": [
        {
          "internalType": "address",
          "name": "",
          "type": "address"
        }
      ],
      "stateMutability": "view",
      "type": "function",
      "constant": true
    },
    {
      "inputs": [],
      "name": "publisherCount",
      "outputs": [
        {
          "internalType": "uint256",
          "name": "",
          "type": "uint256"
        }
      ],
      "stateMutability": "view",
      "type": "function",
      "constant": true
    },
    {
      "inputs": [],
      "name": "renounceOwnership",
      "outputs": [],
      "stateMutability": "nonpayable",
      "type": "function"
    },
    {
      "inputs": [],
      "name": "royalty",
      "outputs": [
        {
          "internalType": "uint256",
          "name": "",
          "type": "uint256"
        }
      ],
      "stateMutability": "view",
      "type": "function",
      "constant": true
    },
    {
      "inputs": [
        {
          "internalType": "address",
          "name": "from",
          "type": "address"
        },
        {
          "internalType": "address",
          "name": "to",
          "type": "address"
        },
        {
          "internalType": "uint256",
          "name": "tokenId",
          "type": "uint256"
        }
      ],
      "name": "safeTransferFrom",
      "outputs": [],
      "stateMutability": "nonpayable",
      "type": "function"
    },
    {
      "inputs": [
        {
          "internalType": "address",
          "name": "from",
          "type": "address"
        },
        {
          "internalType": "address",
          "name": "to",
          "type": "address"
        },
        {
          "internalType": "uint256",
          "name": "tokenId",
          "type": "uint256"
        },
        {
          "internalType": "bytes",
          "name": "_data",
          "type": "bytes"
        }
      ],
      "name": "safeTransferFrom",
      "outputs": [],
      "stateMutability": "nonpayable",
      "type": "function"
    },
    {
      "inputs": [
        {
          "internalType": "address",
          "name": "operator",
          "type": "address"
        },
        {
          "internalType": "bool",
          "name": "approved",
          "type": "bool"
        }
      ],
      "name": "setApprovalForAll",
      "outputs": [],
      "stateMutability": "nonpayable",
      "type": "function"
    },
    {
      "inputs": [],
      "name": "stablecoin",
      "outputs": [
        {
          "internalType": "contract IERC20",
          "name": "",
          "type": "address"
        }
      ],
      "stateMutability": "view",
      "type": "function",
      "constant": true
    },
    {
      "inputs": [],
      "name": "symbol",
      "outputs": [
        {
          "internalType": "string",
          "name": "",
          "type": "string"
        }
      ],
      "stateMutability": "view",
      "type": "function",
      "constant": true
    },
    {
      "inputs": [
        {
          "internalType": "uint256",
          "name": "index",
          "type": "uint256"
        }
      ],
      "name": "tokenByIndex",
      "outputs": [
        {
          "internalType": "uint256",
          "name": "",
          "type": "uint256"
        }
      ],
      "stateMutability": "view",
      "type": "function",
      "constant": true
    },
    {
      "inputs": [
        {
          "internalType": "address",
          "name": "owner",
          "type": "address"
        },
        {
          "internalType": "uint256",
          "name": "index",
          "type": "uint256"
        }
      ],
      "name": "tokenOfOwnerByIndex",
      "outputs": [
        {
          "internalType": "uint256",
          "name": "",
          "type": "uint256"
        }
      ],
      "stateMutability": "view",
      "type": "function",
      "constant": true
    },
    {
      "inputs": [
        {
          "internalType": "uint256",
          "name": "tokenId",
          "type": "uint256"
        }
      ],
      "name": "tokenURI",
      "outputs": [
        {
          "internalType": "string",
          "name": "",
          "type": "string"
        }
      ],
      "stateMutability": "view",
      "type": "function",
      "constant": true
    },
    {
      "inputs": [],
      "name": "totalSupply",
      "outputs": [
        {
          "internalType": "uint256",
          "name": "",
          "type": "uint256"
        }
      ],
      "stateMutability": "view",
      "type": "function",
      "constant": true
    },
    {
      "inputs": [
        {
          "internalType": "address",
          "name": "from",
          "type": "address"
        },
        {
          "internalType": "address",
          "name": "to",
          "type": "address"
        },
        {
          "internalType": "uint256",
          "name": "tokenId",
          "type": "uint256"
        }
      ],
      "name": "transferFrom",
      "outputs": [],
      "stateMutability": "nonpayable",
      "type": "function"
    },
    {
      "inputs": [
        {
          "internalType": "address",
          "name": "newOwner",
          "type": "address"
        }
      ],
      "name": "transferOwnership",
      "outputs": [],
      "stateMutability": "nonpayable",
      "type": "function"
    },
    {
      "inputs": [
        {
          "internalType": "uint256",
          "name": "_fee",
          "type": "uint256"
        }
      ],
      "name": "setServiceRoyalty",
      "outputs": [],
      "stateMutability": "nonpayable",
      "type": "function"
    },
    {
      "inputs": [
        {
          "internalType": "uint256",
          "name": "_fee",
          "type": "uint256"
        }
      ],
      "name": "setServiceFee",
      "outputs": [],
      "stateMutability": "nonpayable",
      "type": "function"
    },
    {
      "inputs": [
        {
          "internalType": "address",
          "name": "newAddress",
          "type": "address"
        }
      ],
      "name": "setPaymentAddress",
      "outputs": [],
      "stateMutability": "nonpayable",
      "type": "function"
    },
    {
      "inputs": [
        {
          "internalType": "bytes4",
          "name": "interfaceId",
          "type": "bytes4"
        }
      ],
      "name": "supportsInterface",
      "outputs": [
        {
          "internalType": "bool",
          "name": "",
          "type": "bool"
        }
      ],
      "stateMutability": "view",
      "type": "function",
      "constant": true
    },
    {
      "inputs": [
        {
          "internalType": "uint256",
          "name": "qty",
          "type": "uint256"
        },
        {
          "internalType": "address",
          "name": "buyer",
          "type": "address"
        },
        {
          "internalType": "string",
          "name": "buyerDid",
          "type": "string"
        },
        {
          "internalType": "bytes",
          "name": "documentURI",
          "type": "bytes"
        },
        {
          "internalType": "bool",
          "name": "encrypted",
          "type": "bool"
        },
        {
          "internalType": "string",
          "name": "name",
          "type": "string"
        },
        {
          "internalType": "string",
          "name": "did",
          "type": "string"
        }
      ],
      "name": "mint",
      "outputs": [
        {
          "internalType": "bool",
          "name": "",
          "type": "bool"
        }
      ],
      "stateMutability": "nonpayable",
      "type": "function"
    },
    {
      "inputs": [],
      "name": "pause",
      "outputs": [],
      "stateMutability": "nonpayable",
      "type": "function"
    },
    {
      "inputs": [],
      "name": "unpause",
      "outputs": [],
      "stateMutability": "nonpayable",
      "type": "function"
    },
    {
      "inputs": [
        {
          "internalType": "address payable",
          "name": "payee",
          "type": "address"
        }
      ],
      "name": "withdrawBalance",
      "outputs": [],
      "stateMutability": "nonpayable",
      "type": "function"
    }
  ],
  "bytecode": "0x6080604052600060135560006014553480156200001b57600080fd5b50604051620060fa380380620060fa833981810160405281019062000041919062000305565b6040518060400160405280600a81526020017f4b4c495020546f6b656e000000000000000000000000000000000000000000008152506040518060400160405280600481526020017f4b4c4950000000000000000000000000000000000000000000000000000000008152506000620000bf6200023660201b60201c565b9050806000806101000a81548173ffffffffffffffffffffffffffffffffffffffff021916908373ffffffffffffffffffffffffffffffffffffffff1602179055508073ffffffffffffffffffffffffffffffffffffffff16600073ffffffffffffffffffffffffffffffffffffffff167f8be0079c531659141344cd1fd0a4f28419497f9722a3daafe3b4186f6b6457e060405160405180910390a3508160069080519060200190620001759291906200023e565b5080600790805190602001906200018e9291906200023e565b5050506000600c60006101000a81548160ff02191690831515021790555080601560006101000a81548173ffffffffffffffffffffffffffffffffffffffff021916908373ffffffffffffffffffffffffffffffffffffffff16021790555081601260006101000a81548173ffffffffffffffffffffffffffffffffffffffff021916908373ffffffffffffffffffffffffffffffffffffffff160217905550505062000404565b600033905090565b8280546200024c9062000380565b90600052602060002090601f016020900481019282620002705760008555620002bc565b82601f106200028b57805160ff1916838001178555620002bc565b82800160010185558215620002bc579182015b82811115620002bb5782518255916020019190600101906200029e565b5b509050620002cb9190620002cf565b5090565b5b80821115620002ea576000816000905550600101620002d0565b5090565b600081519050620002ff81620003ea565b92915050565b600080604083850312156200031f576200031e620003e5565b5b60006200032f85828601620002ee565b92505060206200034285828601620002ee565b9150509250929050565b6000620003598262000360565b9050919050565b600073ffffffffffffffffffffffffffffffffffffffff82169050919050565b600060028204905060018216806200039957607f821691505b60208210811415620003b057620003af620003b6565b5b50919050565b7f4e487b7100000000000000000000000000000000000000000000000000000000600052602260045260246000fd5b600080fd5b620003f5816200034c565b81146200040157600080fd5b50565b615ce680620004146000396000f3fe608060405234801561001057600080fd5b50600436106102325760003560e01c8063633423be1161013057806395d89b41116100b8578063ddca3f431161007c578063ddca3f43146106b5578063e985e9c5146106d3578063e9cbd82214610703578063f2fde38b14610721578063f5eed98d1461073d57610232565b806395d89b41146105ff578063a22cb4651461061d578063b88d4fde14610639578063c87b56dd14610655578063d6d2c4441461068557610232565b8063715018a6116100ff578063715018a614610581578063756af45f1461058b578063761901bb146105a75780638456cb59146105d75780638da5cb5b146105e157610232565b8063633423be146104cd5780636352211e146104eb5780636efaa6991461051b57806370a082311461055157610232565b80632f745c59116101be5780634f6ccce7116101825780634f6ccce71461042b57806354d7a2b51461045b5780635c975abb146104775780635cdf76f8146104955780635e1e1004146104b157610232565b80632f745c59146103895780633f4ba83a146103b957806342842e0e146103c357806342966c68146103df578063435da82a146103fb57610232565b80631626ba7e116102055780631626ba7e146102d157806318160ddd1461030157806323b872dd1461031f57806329ee566c1461033b5780632aa222c81461035957610232565b806301ffc9a71461023757806306fdde0314610267578063081812fc14610285578063095ea7b3146102b5575b600080fd5b610251600480360381019061024c9190614187565b61075b565b60405161025e9190614a5c565b60405180910390f35b61026f61076d565b60405161027c9190614b22565b60405180910390f35b61029f600480360381019061029a91906141e1565b6107ff565b6040516102ac91906148ef565b60405180910390f35b6102cf60048036038101906102ca91906140be565b610884565b005b6102eb60048036038101906102e6919061412b565b61099c565b6040516102f89190614abc565b60405180910390f35b610309610a01565b6040516103169190614f24565b60405180910390f35b61033960048036038101906103349190613fa8565b610a0e565b005b610343610a6e565b6040516103509190614f24565b60405180910390f35b610373600480360381019061036e9190613f0e565b610a74565b6040516103809190614f24565b60405180910390f35b6103a3600480360381019061039e91906140be565b610a8c565b6040516103b09190614f24565b60405180910390f35b6103c1610b31565b005b6103dd60048036038101906103d89190613fa8565b610bb7565b005b6103f960048036038101906103f491906141e1565b610bd7565b005b610415600480360381019061041091906141e1565b610c33565b6040516104229190614b22565b60405180910390f35b610445600480360381019061044091906141e1565b610cd3565b6040516104529190614f24565b60405180910390f35b610475600480360381019061047091906141e1565b610d44565b005b61047f610dca565b60405161048c9190614a5c565b60405180910390f35b6104af60048036038101906104aa91906141e1565b610de1565b005b6104cb60048036038101906104c69190613f0e565b610e67565b005b6104d5610f27565b6040516104e291906148ef565b60405180910390f35b610505600480360381019061050091906141e1565b610f4d565b60405161051291906148ef565b60405180910390f35b610535600480360381019061053091906140be565b610fff565b604051610548979695949392919061495c565b60405180910390f35b61056b60048036038101906105669190613f0e565b6111ab565b6040516105789190614f24565b60405180910390f35b610589611263565b005b6105a560048036038101906105a09190613f3b565b61139d565b005b6105c160048036038101906105bc9190613f0e565b611608565b6040516105ce9190614f24565b60405180910390f35b6105df611620565b005b6105e96116a6565b6040516105f691906148ef565b60405180910390f35b6106076116cf565b6040516106149190614b22565b60405180910390f35b6106376004803603810190610632919061407e565b611761565b005b610653600480360381019061064e9190613ffb565b6118e2565b005b61066f600480360381019061066a91906141e1565b611944565b60405161067c9190614b22565b60405180910390f35b61069f600480360381019061069a919061423b565b6119eb565b6040516106ac9190614a5c565b60405180910390f35b6106bd612118565b6040516106ca9190614f24565b60405180910390f35b6106ed60048036038101906106e89190613f68565b61211e565b6040516106fa9190614a5c565b60405180910390f35b61070b6121b2565b6040516107189190614b07565b60405180910390f35b61073b60048036038101906107369190613f0e565b6121d8565b005b610745612381565b6040516107529190614f24565b60405180910390f35b600061076682612387565b9050919050565b60606006805461077c90615238565b80601f01602080910402602001604051908101604052809291908181526020018280546107a890615238565b80156107f55780601f106107ca576101008083540402835291602001916107f5565b820191906000526020600020905b8154815290600101906020018083116107d857829003601f168201915b5050505050905090565b600061080a82612401565b610849576040517f08c379a000000000000000000000000000000000000000000000000000000000815260040161084090614e04565b60405180910390fd5b600a600083815260200190815260200160002060009054906101000a900473ffffffffffffffffffffffffffffffffffffffff169050919050565b600061088f82610f4d565b90508073ffffffffffffffffffffffffffffffffffffffff168373ffffffffffffffffffffffffffffffffffffffff161415610900576040517f08c379a00000000000000000000000000000000000000000000000000000000081526004016108f790614e84565b60405180910390fd5b8073ffffffffffffffffffffffffffffffffffffffff1661091f61246d565b73ffffffffffffffffffffffffffffffffffffffff16148061094e575061094d8161094861246d565b61211e565b5b61098d576040517f08c379a000000000000000000000000000000000000000000000000000000000815260040161098490614d24565b60405180910390fd5b6109978383612475565b505050565b6000806109a9848461252e565b90506109b36116a6565b73ffffffffffffffffffffffffffffffffffffffff168173ffffffffffffffffffffffffffffffffffffffff16146109ef57600060e01b6109f8565b631626ba7e60e01b5b91505092915050565b6000600f80549050905090565b610a1f610a1961246d565b826125f8565b610a5e576040517f08c379a0000000000000000000000000000000000000000000000000000000008152600401610a5590614ea4565b60405180910390fd5b610a698383836126d6565b505050565b60135481565b60046020528060005260406000206000915090505481565b6000610a97836111ab565b8210610ad8576040517f08c379a0000000000000000000000000000000000000000000000000000000008152600401610acf90614be4565b60405180910390fd5b600d60008473ffffffffffffffffffffffffffffffffffffffff1673ffffffffffffffffffffffffffffffffffffffff168152602001908152602001600020600083815260200190815260200160002054905092915050565b610b3961246d565b73ffffffffffffffffffffffffffffffffffffffff16610b576116a6565b73ffffffffffffffffffffffffffffffffffffffff1614610bad576040517f08c379a0000000000000000000000000000000000000000000000000000000008152600401610ba490614e24565b60405180910390fd5b610bb5612932565b565b610bd2838383604051806020016040528060008152506118e2565b505050565b610be8610be261246d565b826125f8565b610c27576040517f08c379a0000000000000000000000000000000000000000000000000000000008152600401610c1e90614ee4565b60405180910390fd5b610c30816129d4565b50565b60166020528060005260406000206000915090508054610c5290615238565b80601f0160208091040260200160405190810160405280929190818152602001828054610c7e90615238565b8015610ccb5780601f10610ca057610100808354040283529160200191610ccb565b820191906000526020600020905b815481529060010190602001808311610cae57829003601f168201915b505050505081565b6000610cdd610a01565b8210610d1e576040517f08c379a0000000000000000000000000000000000000000000000000000000008152600401610d1590614ec4565b60405180910390fd5b600f8281548110610d3257610d31615400565b5b90600052602060002001549050919050565b610d4c61246d565b73ffffffffffffffffffffffffffffffffffffffff16610d6a6116a6565b73ffffffffffffffffffffffffffffffffffffffff1614610dc0576040517f08c379a0000000000000000000000000000000000000000000000000000000008152600401610db790614e24565b60405180910390fd5b8060138190555050565b6000600c60009054906101000a900460ff16905090565b610de961246d565b73ffffffffffffffffffffffffffffffffffffffff16610e076116a6565b73ffffffffffffffffffffffffffffffffffffffff1614610e5d576040517f08c379a0000000000000000000000000000000000000000000000000000000008152600401610e5490614e24565b60405180910390fd5b8060148190555050565b610e6f61246d565b73ffffffffffffffffffffffffffffffffffffffff16610e8d6116a6565b73ffffffffffffffffffffffffffffffffffffffff1614610ee3576040517f08c379a0000000000000000000000000000000000000000000000000000000008152600401610eda90614e24565b60405180910390fd5b80601560006101000a81548173ffffffffffffffffffffffffffffffffffffffff021916908373ffffffffffffffffffffffffffffffffffffffff16021790555050565b601560009054906101000a900473ffffffffffffffffffffffffffffffffffffffff1681565b6000806008600084815260200190815260200160002060009054906101000a900473ffffffffffffffffffffffffffffffffffffffff169050600073ffffffffffffffffffffffffffffffffffffffff168173ffffffffffffffffffffffffffffffffffffffff161415610ff6576040517f08c379a0000000000000000000000000000000000000000000000000000000008152600401610fed90614d84565b60405180910390fd5b80915050919050565b6005602052816000526040600020602052806000526040600020600091509150508060000160009054906101000a900473ffffffffffffffffffffffffffffffffffffffff16908060010160009054906101000a900473ffffffffffffffffffffffffffffffffffffffff169080600201805461107b90615238565b80601f01602080910402602001604051908101604052809291908181526020018280546110a790615238565b80156110f45780601f106110c9576101008083540402835291602001916110f4565b820191906000526020600020905b8154815290600101906020018083116110d757829003601f168201915b50505050509080600301805461110990615238565b80601f016020809104026020016040519081016040528092919081815260200182805461113590615238565b80156111825780601f1061115757610100808354040283529160200191611182565b820191906000526020600020905b81548152906001019060200180831161116557829003601f168201915b5050505050908060040154908060050160009054906101000a900460ff16908060060154905087565b60008073ffffffffffffffffffffffffffffffffffffffff168273ffffffffffffffffffffffffffffffffffffffff16141561121c576040517f08c379a000000000000000000000000000000000000000000000000000000000815260040161121390614d64565b60405180910390fd5b600960008373ffffffffffffffffffffffffffffffffffffffff1673ffffffffffffffffffffffffffffffffffffffff168152602001908152602001600020549050919050565b61126b61246d565b73ffffffffffffffffffffffffffffffffffffffff166112896116a6565b73ffffffffffffffffffffffffffffffffffffffff16146112df576040517f08c379a00000000000000000000000000000000000000000000000000000000081526004016112d690614e24565b60405180910390fd5b600073ffffffffffffffffffffffffffffffffffffffff1660008054906101000a900473ffffffffffffffffffffffffffffffffffffffff1673ffffffffffffffffffffffffffffffffffffffff167f8be0079c531659141344cd1fd0a4f28419497f9722a3daafe3b4186f6b6457e060405160405180910390a360008060006101000a81548173ffffffffffffffffffffffffffffffffffffffff021916908373ffffffffffffffffffffffffffffffffffffffff160217905550565b6113a561246d565b73ffffffffffffffffffffffffffffffffffffffff166113c36116a6565b73ffffffffffffffffffffffffffffffffffffffff1614611419576040517f08c379a000000000000000000000000000000000000000000000000000000000815260040161141090614e24565b60405180910390fd5b6000601260009054906101000a900473ffffffffffffffffffffffffffffffffffffffff1673ffffffffffffffffffffffffffffffffffffffff166370a08231306040518263ffffffff1660e01b815260040161147691906148ef565b60206040518083038186803b15801561148e57600080fd5b505afa1580156114a2573d6000803e3d6000fd5b505050506040513d601f19601f820116820180604052508101906114c6919061420e565b9050601260009054906101000a900473ffffffffffffffffffffffffffffffffffffffff1673ffffffffffffffffffffffffffffffffffffffff1663a9059cbb83836040518363ffffffff1660e01b815260040161152592919061490a565b602060405180830381600087803b15801561153f57600080fd5b505af1158015611553573d6000803e3d6000fd5b505050506040513d601f19601f8201168201806040525081019061157791906140fe565b6115b6576040517f08c379a00000000000000000000000000000000000000000000000000000000081526004016115ad90614d44565b60405180910390fd5b8173ffffffffffffffffffffffffffffffffffffffff167f7084f5476618d8e60b11ef0d7d3f06914655adb8793e28ff7f018d4c76d505d5826040516115fc9190614f24565b60405180910390a25050565b60036020528060005260406000206000915090505481565b61162861246d565b73ffffffffffffffffffffffffffffffffffffffff166116466116a6565b73ffffffffffffffffffffffffffffffffffffffff161461169c576040517f08c379a000000000000000000000000000000000000000000000000000000000815260040161169390614e24565b60405180910390fd5b6116a4612ae5565b565b60008060009054906101000a900473ffffffffffffffffffffffffffffffffffffffff16905090565b6060600780546116de90615238565b80601f016020809104026020016040519081016040528092919081815260200182805461170a90615238565b80156117575780601f1061172c57610100808354040283529160200191611757565b820191906000526020600020905b81548152906001019060200180831161173a57829003601f168201915b5050505050905090565b61176961246d565b73ffffffffffffffffffffffffffffffffffffffff168273ffffffffffffffffffffffffffffffffffffffff1614156117d7576040517f08c379a00000000000000000000000000000000000000000000000000000000081526004016117ce90614c84565b60405180910390fd5b80600b60006117e461246d565b73ffffffffffffffffffffffffffffffffffffffff1673ffffffffffffffffffffffffffffffffffffffff16815260200190815260200160002060008473ffffffffffffffffffffffffffffffffffffffff1673ffffffffffffffffffffffffffffffffffffffff16815260200190815260200160002060006101000a81548160ff0219169083151502179055508173ffffffffffffffffffffffffffffffffffffffff1661189161246d565b73ffffffffffffffffffffffffffffffffffffffff167f17307eab39ab6107e8899845ad3d59bd9653f200f220920489ca2b5937696c31836040516118d69190614a5c565b60405180910390a35050565b6118f36118ed61246d565b836125f8565b611932576040517f08c379a000000000000000000000000000000000000000000000000000000000815260040161192990614ea4565b60405180910390fd5b61193e84848484612b88565b50505050565b606061194f82612401565b61198e576040517f08c379a000000000000000000000000000000000000000000000000000000000815260040161198590614e64565b60405180910390fd5b6000611998612be4565b905060008151116119b857604051806020016040528060008152506119e3565b806119c284612bfb565b6040516020016119d39291906148cb565b6040516020818303038152906040525b915050919050565b600080601260009054906101000a900473ffffffffffffffffffffffffffffffffffffffff1673ffffffffffffffffffffffffffffffffffffffff166370a08231336040518263ffffffff1660e01b8152600401611a4991906148ef565b60206040518083038186803b158015611a6157600080fd5b505afa158015611a75573d6000803e3d6000fd5b505050506040513d601f19601f82011682018060405250810190611a99919061420e565b11611ad9576040517f08c379a0000000000000000000000000000000000000000000000000000000008152600401611ad090614b84565b60405180910390fd5b6000601260009054906101000a900473ffffffffffffffffffffffffffffffffffffffff1673ffffffffffffffffffffffffffffffffffffffff1663dd62ed3e33306040518363ffffffff1660e01b8152600401611b38929190614933565b60206040518083038186803b158015611b5057600080fd5b505afa158015611b64573d6000803e3d6000fd5b505050506040513d601f19601f82011682018060405250810190611b88919061420e565b11611bc8576040517f08c379a0000000000000000000000000000000000000000000000000000000008152600401611bbf90614f04565b60405180910390fd5b6014881115611c0c576040517f08c379a0000000000000000000000000000000000000000000000000000000008152600401611c0390614d04565b60405180910390fd5b6000881415611c50576040517f08c379a0000000000000000000000000000000000000000000000000000000008152600401611c4790614da4565b60405180910390fd5b60016000815480929190611c639061529b565b9190505550600260003373ffffffffffffffffffffffffffffffffffffffff1673ffffffffffffffffffffffffffffffffffffffff16815260200190815260200160002060030160019054906101000a900460ff16611e03576040518060a001604052808481526020013373ffffffffffffffffffffffffffffffffffffffff16815260200183815260200160001515815260200160011515815250600260003373ffffffffffffffffffffffffffffffffffffffff1673ffffffffffffffffffffffffffffffffffffffff1681526020019081526020016000206000820151816000019080519060200190611d5a929190613c48565b5060208201518160010160006101000a81548173ffffffffffffffffffffffffffffffffffffffff021916908373ffffffffffffffffffffffffffffffffffffffff1602179055506040820151816002019080519060200190611dbe929190613c48565b5060608201518160030160006101000a81548160ff02191690831515021790555060808201518160030160016101000a81548160ff0219169083151502179055509050505b6000600460003373ffffffffffffffffffffffffffffffffffffffff1673ffffffffffffffffffffffffffffffffffffffff1681526020019081526020016000205490506040518060e001604052803373ffffffffffffffffffffffffffffffffffffffff1681526020018973ffffffffffffffffffffffffffffffffffffffff16815260200188815260200187815260200160016002811115611eaa57611ea9615373565b5b815260200186151581526020018a815250600560003373ffffffffffffffffffffffffffffffffffffffff1673ffffffffffffffffffffffffffffffffffffffff168152602001908152602001600020600083815260200190815260200160002060008201518160000160006101000a81548173ffffffffffffffffffffffffffffffffffffffff021916908373ffffffffffffffffffffffffffffffffffffffff16021790555060208201518160010160006101000a81548173ffffffffffffffffffffffffffffffffffffffff021916908373ffffffffffffffffffffffffffffffffffffffff1602179055506040820151816002019080519060200190611fb5929190613c48565b506060820151816003019080519060200190611fd2929190613cce565b506080820151816004015560a08201518160050160006101000a81548160ff02191690831515021790555060c08201518160060155905050600460003373ffffffffffffffffffffffffffffffffffffffff1673ffffffffffffffffffffffffffffffffffffffff168152602001908152602001600020600081548092919061205a9061529b565b91905055508660405161206d91906148b4565b60405180910390203373ffffffffffffffffffffffffffffffffffffffff167f9042e5647d6e4922998cda262eb9ec97928c51e4f01aa8bfbddf71bc231c7b6688846040516120bd929190614ad7565b60405180910390a360005b89811015612107576120da6011612d5c565b60006120e66011612d72565b90506120f38a828a612d80565b5080806120ff9061529b565b9150506120c8565b506001915050979650505050505050565b60145481565b6000600b60008473ffffffffffffffffffffffffffffffffffffffff1673ffffffffffffffffffffffffffffffffffffffff16815260200190815260200160002060008373ffffffffffffffffffffffffffffffffffffffff1673ffffffffffffffffffffffffffffffffffffffff16815260200190815260200160002060009054906101000a900460ff16905092915050565b601260009054906101000a900473ffffffffffffffffffffffffffffffffffffffff1681565b6121e061246d565b73ffffffffffffffffffffffffffffffffffffffff166121fe6116a6565b73ffffffffffffffffffffffffffffffffffffffff1614612254576040517f08c379a000000000000000000000000000000000000000000000000000000000815260040161224b90614e24565b60405180910390fd5b600073ffffffffffffffffffffffffffffffffffffffff168173ffffffffffffffffffffffffffffffffffffffff1614156122c4576040517f08c379a00000000000000000000000000000000000000000000000000000000081526004016122bb90614c24565b60405180910390fd5b8073ffffffffffffffffffffffffffffffffffffffff1660008054906101000a900473ffffffffffffffffffffffffffffffffffffffff1673ffffffffffffffffffffffffffffffffffffffff167f8be0079c531659141344cd1fd0a4f28419497f9722a3daafe3b4186f6b6457e060405160405180910390a3806000806101000a81548173ffffffffffffffffffffffffffffffffffffffff021916908373ffffffffffffffffffffffffffffffffffffffff16021790555050565b60015481565b60007f780e9d63000000000000000000000000000000000000000000000000000000007bffffffffffffffffffffffffffffffffffffffffffffffffffffffff1916827bffffffffffffffffffffffffffffffffffffffffffffffffffffffff191614806123fa57506123f982612ddb565b5b9050919050565b60008073ffffffffffffffffffffffffffffffffffffffff166008600084815260200190815260200160002060009054906101000a900473ffffffffffffffffffffffffffffffffffffffff1673ffffffffffffffffffffffffffffffffffffffff1614159050919050565b600033905090565b81600a600083815260200190815260200160002060006101000a81548173ffffffffffffffffffffffffffffffffffffffff021916908373ffffffffffffffffffffffffffffffffffffffff160217905550808273ffffffffffffffffffffffffffffffffffffffff166124e883610f4d565b73ffffffffffffffffffffffffffffffffffffffff167f8c5be1e5ebec7d5bd14f71427d1e84f3dd0314c0f7b2291e5b200ac8c7c3b92560405160405180910390a45050565b60008060008060418551141561255b576020850151925060408501519150606085015160001a90506125e1565b6040855114156125a5576040850151602086015193507f7fffffffffffffffffffffffffffffffffffffffffffffffffffffffffffffff81169250601b8160ff1c019150506125e0565b6040517f08c379a00000000000000000000000000000000000000000000000000000000081526004016125d790614bc4565b60405180910390fd5b5b6125ed86828585612ebd565b935050505092915050565b600061260382612401565b612642576040517f08c379a000000000000000000000000000000000000000000000000000000000815260040161263990614cc4565b60405180910390fd5b600061264d83610f4d565b90508073ffffffffffffffffffffffffffffffffffffffff168473ffffffffffffffffffffffffffffffffffffffff1614806126bc57508373ffffffffffffffffffffffffffffffffffffffff166126a4846107ff565b73ffffffffffffffffffffffffffffffffffffffff16145b806126cd57506126cc818561211e565b5b91505092915050565b8273ffffffffffffffffffffffffffffffffffffffff166126f682610f4d565b73ffffffffffffffffffffffffffffffffffffffff161461274c576040517f08c379a000000000000000000000000000000000000000000000000000000000815260040161274390614e44565b60405180910390fd5b600073ffffffffffffffffffffffffffffffffffffffff168273ffffffffffffffffffffffffffffffffffffffff1614156127bc576040517f08c379a00000000000000000000000000000000000000000000000000000000081526004016127b390614c64565b60405180910390fd5b6127c7838383613048565b6127d2600082612475565b6001600960008573ffffffffffffffffffffffffffffffffffffffff1673ffffffffffffffffffffffffffffffffffffffff168152602001908152602001600020600082825461282291906150b9565b925050819055506001600960008473ffffffffffffffffffffffffffffffffffffffff1673ffffffffffffffffffffffffffffffffffffffff16815260200190815260200160002060008282546128799190615032565b92505081905550816008600083815260200190815260200160002060006101000a81548173ffffffffffffffffffffffffffffffffffffffff021916908373ffffffffffffffffffffffffffffffffffffffff160217905550808273ffffffffffffffffffffffffffffffffffffffff168473ffffffffffffffffffffffffffffffffffffffff167fddf252ad1be2c89b69c2b068fc378daa952ba7f163c4a11628f55a4df523b3ef60405160405180910390a4505050565b61293a610dca565b612979576040517f08c379a000000000000000000000000000000000000000000000000000000000815260040161297090614ba4565b60405180910390fd5b6000600c60006101000a81548160ff0219169083151502179055507f5db9ee0a495bf2e6ff9c91a7834c1ba4fdd244a5e8aa4e537bd38aeae4b073aa6129bd61246d565b6040516129ca91906148ef565b60405180910390a1565b60006129df82610f4d565b90506129ed81600084613048565b6129f8600083612475565b6001600960008373ffffffffffffffffffffffffffffffffffffffff1673ffffffffffffffffffffffffffffffffffffffff1681526020019081526020016000206000828254612a4891906150b9565b925050819055506008600083815260200190815260200160002060006101000a81549073ffffffffffffffffffffffffffffffffffffffff021916905581600073ffffffffffffffffffffffffffffffffffffffff168273ffffffffffffffffffffffffffffffffffffffff167fddf252ad1be2c89b69c2b068fc378daa952ba7f163c4a11628f55a4df523b3ef60405160405180910390a45050565b612aed610dca565b15612b2d576040517f08c379a0000000000000000000000000000000000000000000000000000000008152600401612b2490614ce4565b60405180910390fd5b6001600c60006101000a81548160ff0219169083151502179055507f62e78cea01bee320cd4e420270b5ea74000d11b0c9f74754ebdbfc544b05a258612b7161246d565b604051612b7e91906148ef565b60405180910390a1565b612b938484846126d6565b612b9f848484846133ef565b612bde576040517f08c379a0000000000000000000000000000000000000000000000000000000008152600401612bd590614c04565b60405180910390fd5b50505050565b606060405180602001604052806000815250905090565b60606000821415612c43576040518060400160405280600181526020017f30000000000000000000000000000000000000000000000000000000000000008152509050612d57565b600082905060005b60008214612c75578080612c5e9061529b565b915050600a82612c6e9190615088565b9150612c4b565b60008167ffffffffffffffff811115612c9157612c9061542f565b5b6040519080825280601f01601f191660200182016040528015612cc35781602001600182028036833780820191505090505b5090505b60008514612d5057600182612cdc91906150b9565b9150600a85612ceb91906152e4565b6030612cf79190615032565b60f81b818381518110612d0d57612d0c615400565b5b60200101907effffffffffffffffffffffffffffffffffffffffffffffffffffffffffffff1916908160001a905350600a85612d499190615088565b9450612cc7565b8093505050505b919050565b6001816000016000828254019250508190555050565b600081600001549050919050565b612d8a8383613586565b612d9760008484846133ef565b612dd6576040517f08c379a0000000000000000000000000000000000000000000000000000000008152600401612dcd90614c04565b60405180910390fd5b505050565b60007f80ac58cd000000000000000000000000000000000000000000000000000000007bffffffffffffffffffffffffffffffffffffffffffffffffffffffff1916827bffffffffffffffffffffffffffffffffffffffffffffffffffffffff19161480612ea657507f5b5e139f000000000000000000000000000000000000000000000000000000007bffffffffffffffffffffffffffffffffffffffffffffffffffffffff1916827bffffffffffffffffffffffffffffffffffffffffffffffffffffffff1916145b80612eb65750612eb582613754565b5b9050919050565b60007f7fffffffffffffffffffffffffffffff5d576e7357a4501ddfe92f46681b20a08260001c1115612f25576040517f08c379a0000000000000000000000000000000000000000000000000000000008152600401612f1c90614ca4565b60405180910390fd5b601b8460ff161480612f3a5750601c8460ff16145b612f79576040517f08c379a0000000000000000000000000000000000000000000000000000000008152600401612f7090614dc4565b60405180910390fd5b600060018686868660405160008152602001604052604051612f9e9493929190614a77565b6020604051602081039080840390855afa158015612fc0573d6000803e3d6000fd5b505050602060405103519050600073ffffffffffffffffffffffffffffffffffffffff168173ffffffffffffffffffffffffffffffffffffffff16141561303c576040517f08c379a000000000000000000000000000000000000000000000000000000000815260040161303390614b44565b60405180910390fd5b80915050949350505050565b600073ffffffffffffffffffffffffffffffffffffffff168373ffffffffffffffffffffffffffffffffffffffff161480156130b15750600073ffffffffffffffffffffffffffffffffffffffff168273ffffffffffffffffffffffffffffffffffffffff1614155b1561321457601260009054906101000a900473ffffffffffffffffffffffffffffffffffffffff1673ffffffffffffffffffffffffffffffffffffffff166323b872dd33306014546040518463ffffffff1660e01b8152600401613117939291906149d9565b602060405180830381600087803b15801561313157600080fd5b505af1158015613145573d6000803e3d6000fd5b505050506040513d601f19601f8201168201806040525081019061316991906140fe565b6131a8576040517f08c379a000000000000000000000000000000000000000000000000000000000815260040161319f90614d44565b60405180910390fd5b3373ffffffffffffffffffffffffffffffffffffffff163373ffffffffffffffffffffffffffffffffffffffff16827fbe88f4b50295cd4ba6297b8faffa2e54364bd9520682ecdfa7ac6f44b931e994601454600060405161320b929190614f3f565b60405180910390a45b3373ffffffffffffffffffffffffffffffffffffffff168373ffffffffffffffffffffffffffffffffffffffff1614801561327c5750600073ffffffffffffffffffffffffffffffffffffffff168273ffffffffffffffffffffffffffffffffffffffff1614155b156133df57601260009054906101000a900473ffffffffffffffffffffffffffffffffffffffff1673ffffffffffffffffffffffffffffffffffffffff166323b872dd33306014546040518463ffffffff1660e01b81526004016132e2939291906149d9565b602060405180830381600087803b1580156132fc57600080fd5b505af1158015613310573d6000803e3d6000fd5b505050506040513d601f19601f8201168201806040525081019061333491906140fe565b613373576040517f08c379a000000000000000000000000000000000000000000000000000000000815260040161336a90614d44565b60405180910390fd5b3373ffffffffffffffffffffffffffffffffffffffff163373ffffffffffffffffffffffffffffffffffffffff16827fbe88f4b50295cd4ba6297b8faffa2e54364bd9520682ecdfa7ac6f44b931e99460145460006040516133d6929190614f3f565b60405180910390a45b6133ea8383836137be565b505050565b60006134108473ffffffffffffffffffffffffffffffffffffffff166138d2565b15613579578373ffffffffffffffffffffffffffffffffffffffff1663150b7a0261343961246d565b8786866040518563ffffffff1660e01b815260040161345b9493929190614a10565b602060405180830381600087803b15801561347557600080fd5b505af19250505080156134a657506040513d601f19601f820116820180604052508101906134a391906141b4565b60015b613529573d80600081146134d6576040519150601f19603f3d011682016040523d82523d6000602084013e6134db565b606091505b50600081511415613521576040517f08c379a000000000000000000000000000000000000000000000000000000000815260040161351890614c04565b60405180910390fd5b805181602001fd5b63150b7a0260e01b7bffffffffffffffffffffffffffffffffffffffffffffffffffffffff1916817bffffffffffffffffffffffffffffffffffffffffffffffffffffffff19161491505061357e565b600190505b949350505050565b600073ffffffffffffffffffffffffffffffffffffffff168273ffffffffffffffffffffffffffffffffffffffff1614156135f6576040517f08c379a00000000000000000000000000000000000000000000000000000000081526004016135ed90614de4565b60405180910390fd5b6135ff81612401565b1561363f576040517f08c379a000000000000000000000000000000000000000000000000000000000815260040161363690614c44565b60405180910390fd5b61364b60008383613048565b6001600960008473ffffffffffffffffffffffffffffffffffffffff1673ffffffffffffffffffffffffffffffffffffffff168152602001908152602001600020600082825461369b9190615032565b92505081905550816008600083815260200190815260200160002060006101000a81548173ffffffffffffffffffffffffffffffffffffffff021916908373ffffffffffffffffffffffffffffffffffffffff160217905550808273ffffffffffffffffffffffffffffffffffffffff16600073ffffffffffffffffffffffffffffffffffffffff167fddf252ad1be2c89b69c2b068fc378daa952ba7f163c4a11628f55a4df523b3ef60405160405180910390a45050565b60007f01ffc9a7000000000000000000000000000000000000000000000000000000007bffffffffffffffffffffffffffffffffffffffffffffffffffffffff1916827bffffffffffffffffffffffffffffffffffffffffffffffffffffffff1916149050919050565b6137c98383836138e5565b600073ffffffffffffffffffffffffffffffffffffffff168373ffffffffffffffffffffffffffffffffffffffff16141561380c576138078161393d565b61384b565b8173ffffffffffffffffffffffffffffffffffffffff168373ffffffffffffffffffffffffffffffffffffffff161461384a576138498382613986565b5b5b600073ffffffffffffffffffffffffffffffffffffffff168273ffffffffffffffffffffffffffffffffffffffff16141561388e5761388981613af3565b6138cd565b8273ffffffffffffffffffffffffffffffffffffffff168273ffffffffffffffffffffffffffffffffffffffff16146138cc576138cb8282613bc4565b5b5b505050565b600080823b905060008111915050919050565b6138f0838383613c43565b6138f8610dca565b15613938576040517f08c379a000000000000000000000000000000000000000000000000000000000815260040161392f90614b64565b60405180910390fd5b505050565b600f805490506010600083815260200190815260200160002081905550600f81908060018154018082558091505060019003906000526020600020016000909190919091505550565b60006001613993846111ab565b61399d91906150b9565b90506000600e6000848152602001908152602001600020549050818114613a82576000600d60008673ffffffffffffffffffffffffffffffffffffffff1673ffffffffffffffffffffffffffffffffffffffff168152602001908152602001600020600084815260200190815260200160002054905080600d60008773ffffffffffffffffffffffffffffffffffffffff1673ffffffffffffffffffffffffffffffffffffffff16815260200190815260200160002060008481526020019081526020016000208190555081600e600083815260200190815260200160002081905550505b600e600084815260200190815260200160002060009055600d60008573ffffffffffffffffffffffffffffffffffffffff1673ffffffffffffffffffffffffffffffffffffffff16815260200190815260200160002060008381526020019081526020016000206000905550505050565b60006001600f80549050613b0791906150b9565b90506000601060008481526020019081526020016000205490506000600f8381548110613b3757613b36615400565b5b9060005260206000200154905080600f8381548110613b5957613b58615400565b5b90600052602060002001819055508160106000838152602001908152602001600020819055506010600085815260200190815260200160002060009055600f805480613ba857613ba76153d1565b5b6001900381819060005260206000200160009055905550505050565b6000613bcf836111ab565b905081600d60008573ffffffffffffffffffffffffffffffffffffffff1673ffffffffffffffffffffffffffffffffffffffff16815260200190815260200160002060008381526020019081526020016000208190555080600e600084815260200190815260200160002081905550505050565b505050565b828054613c5490615238565b90600052602060002090601f016020900481019282613c765760008555613cbd565b82601f10613c8f57805160ff1916838001178555613cbd565b82800160010185558215613cbd579182015b82811115613cbc578251825591602001919060010190613ca1565b5b509050613cca9190613d54565b5090565b828054613cda90615238565b90600052602060002090601f016020900481019282613cfc5760008555613d43565b82601f10613d1557805160ff1916838001178555613d43565b82800160010185558215613d43579182015b82811115613d42578251825591602001919060010190613d27565b5b509050613d509190613d54565b5090565b5b80821115613d6d576000816000905550600101613d55565b5090565b6000613d84613d7f84614f8d565b614f68565b905082815260208101848484011115613da057613d9f615463565b5b613dab8482856151f6565b509392505050565b6000613dc6613dc184614fbe565b614f68565b905082815260208101848484011115613de257613de1615463565b5b613ded8482856151f6565b509392505050565b600081359050613e0481615c26565b92915050565b600081359050613e1981615c3d565b92915050565b600081359050613e2e81615c54565b92915050565b600081519050613e4381615c54565b92915050565b600081359050613e5881615c6b565b92915050565b600081359050613e6d81615c82565b92915050565b600081519050613e8281615c82565b92915050565b600082601f830112613e9d57613e9c61545e565b5b8135613ead848260208601613d71565b91505092915050565b600082601f830112613ecb57613eca61545e565b5b8135613edb848260208601613db3565b91505092915050565b600081359050613ef381615c99565b92915050565b600081519050613f0881615c99565b92915050565b600060208284031215613f2457613f2361546d565b5b6000613f3284828501613df5565b91505092915050565b600060208284031215613f5157613f5061546d565b5b6000613f5f84828501613e0a565b91505092915050565b60008060408385031215613f7f57613f7e61546d565b5b6000613f8d85828601613df5565b9250506020613f9e85828601613df5565b9150509250929050565b600080600060608486031215613fc157613fc061546d565b5b6000613fcf86828701613df5565b9350506020613fe086828701613df5565b9250506040613ff186828701613ee4565b9150509250925092565b600080600080608085870312156140155761401461546d565b5b600061402387828801613df5565b945050602061403487828801613df5565b935050604061404587828801613ee4565b925050606085013567ffffffffffffffff81111561406657614065615468565b5b61407287828801613e88565b91505092959194509250565b600080604083850312156140955761409461546d565b5b60006140a385828601613df5565b92505060206140b485828601613e1f565b9150509250929050565b600080604083850312156140d5576140d461546d565b5b60006140e385828601613df5565b92505060206140f485828601613ee4565b9150509250929050565b6000602082840312156141145761411361546d565b5b600061412284828501613e34565b91505092915050565b600080604083850312156141425761414161546d565b5b600061415085828601613e49565b925050602083013567ffffffffffffffff81111561417157614170615468565b5b61417d85828601613e88565b9150509250929050565b60006020828403121561419d5761419c61546d565b5b60006141ab84828501613e5e565b91505092915050565b6000602082840312156141ca576141c961546d565b5b60006141d884828501613e73565b91505092915050565b6000602082840312156141f7576141f661546d565b5b600061420584828501613ee4565b91505092915050565b6000602082840312156142245761422361546d565b5b600061423284828501613ef9565b91505092915050565b600080600080600080600060e0888a03121561425a5761425961546d565b5b60006142688a828b01613ee4565b97505060206142798a828b01613df5565b965050604088013567ffffffffffffffff81111561429a57614299615468565b5b6142a68a828b01613eb6565b955050606088013567ffffffffffffffff8111156142c7576142c6615468565b5b6142d38a828b01613e88565b94505060806142e48a828b01613e1f565b93505060a088013567ffffffffffffffff81111561430557614304615468565b5b6143118a828b01613eb6565b92505060c088013567ffffffffffffffff81111561433257614331615468565b5b61433e8a828b01613eb6565b91505092959891949750929550565b6143568161518a565b82525050565b614365816150ed565b82525050565b61437481615111565b82525050565b6143838161511d565b82525050565b61439281615127565b82525050565b60006143a382614fef565b6143ad8185615005565b93506143bd818560208601615205565b6143c681615472565b840191505092915050565b6143da8161519c565b82525050565b6143e9816151c0565b82525050565b60006143fa82614ffa565b6144048185615016565b9350614414818560208601615205565b61441d81615472565b840191505092915050565b600061443382614ffa565b61443d8185615027565b935061444d818560208601615205565b80840191505092915050565b6000614466601883615016565b915061447182615483565b602082019050919050565b6000614489602b83615016565b9150614494826154ac565b604082019050919050565b60006144ac601583615016565b91506144b7826154fb565b602082019050919050565b60006144cf601483615016565b91506144da82615524565b602082019050919050565b60006144f2601f83615016565b91506144fd8261554d565b602082019050919050565b6000614515602b83615016565b915061452082615576565b604082019050919050565b6000614538603283615016565b9150614543826155c5565b604082019050919050565b600061455b602683615016565b915061456682615614565b604082019050919050565b600061457e601c83615016565b915061458982615663565b602082019050919050565b60006145a1602483615016565b91506145ac8261568c565b604082019050919050565b60006145c4601983615016565b91506145cf826156db565b602082019050919050565b60006145e7602283615016565b91506145f282615704565b604082019050919050565b600061460a602c83615016565b915061461582615753565b604082019050919050565b600061462d601083615016565b9150614638826157a2565b602082019050919050565b6000614650601b83615016565b915061465b826157cb565b602082019050919050565b6000614673603883615016565b915061467e826157f4565b604082019050919050565b6000614696601583615016565b91506146a182615843565b602082019050919050565b60006146b9602a83615016565b91506146c48261586c565b604082019050919050565b60006146dc602983615016565b91506146e7826158bb565b604082019050919050565b60006146ff601683615016565b915061470a8261590a565b602082019050919050565b6000614722602283615016565b915061472d82615933565b604082019050919050565b6000614745602083615016565b915061475082615982565b602082019050919050565b6000614768602c83615016565b9150614773826159ab565b604082019050919050565b600061478b602083615016565b9150614796826159fa565b602082019050919050565b60006147ae602983615016565b91506147b982615a23565b604082019050919050565b60006147d1602f83615016565b91506147dc82615a72565b604082019050919050565b60006147f4602183615016565b91506147ff82615ac1565b604082019050919050565b6000614817603183615016565b915061482282615b10565b604082019050919050565b600061483a602c83615016565b915061484582615b5f565b604082019050919050565b600061485d603083615016565b915061486882615bae565b604082019050919050565b6000614880601783615016565b915061488b82615bfd565b602082019050919050565b61489f81615173565b82525050565b6148ae8161517d565b82525050565b60006148c08284614428565b915081905092915050565b60006148d78285614428565b91506148e38284614428565b91508190509392505050565b6000602082019050614904600083018461435c565b92915050565b600060408201905061491f600083018561434d565b61492c6020830184614896565b9392505050565b6000604082019050614948600083018561435c565b614955602083018461435c565b9392505050565b600060e082019050614971600083018a61435c565b61497e602083018961435c565b818103604083015261499081886143ef565b905081810360608301526149a48187614398565b90506149b36080830186614896565b6149c060a083018561436b565b6149cd60c0830184614896565b98975050505050505050565b60006060820190506149ee600083018661435c565b6149fb602083018561435c565b614a086040830184614896565b949350505050565b6000608082019050614a25600083018761435c565b614a32602083018661435c565b614a3f6040830185614896565b8181036060830152614a518184614398565b905095945050505050565b6000602082019050614a71600083018461436b565b92915050565b6000608082019050614a8c600083018761437a565b614a9960208301866148a5565b614aa6604083018561437a565b614ab3606083018461437a565b95945050505050565b6000602082019050614ad16000830184614389565b92915050565b60006040820190508181036000830152614af18185614398565b9050614b006020830184614896565b9392505050565b6000602082019050614b1c60008301846143d1565b92915050565b60006020820190508181036000830152614b3c81846143ef565b905092915050565b60006020820190508181036000830152614b5d81614459565b9050919050565b60006020820190508181036000830152614b7d8161447c565b9050919050565b60006020820190508181036000830152614b9d8161449f565b9050919050565b60006020820190508181036000830152614bbd816144c2565b9050919050565b60006020820190508181036000830152614bdd816144e5565b9050919050565b60006020820190508181036000830152614bfd81614508565b9050919050565b60006020820190508181036000830152614c1d8161452b565b9050919050565b60006020820190508181036000830152614c3d8161454e565b9050919050565b60006020820190508181036000830152614c5d81614571565b9050919050565b60006020820190508181036000830152614c7d81614594565b9050919050565b60006020820190508181036000830152614c9d816145b7565b9050919050565b60006020820190508181036000830152614cbd816145da565b9050919050565b60006020820190508181036000830152614cdd816145fd565b9050919050565b60006020820190508181036000830152614cfd81614620565b9050919050565b60006020820190508181036000830152614d1d81614643565b9050919050565b60006020820190508181036000830152614d3d81614666565b9050919050565b60006020820190508181036000830152614d5d81614689565b9050919050565b60006020820190508181036000830152614d7d816146ac565b9050919050565b60006020820190508181036000830152614d9d816146cf565b9050919050565b60006020820190508181036000830152614dbd816146f2565b9050919050565b60006020820190508181036000830152614ddd81614715565b9050919050565b60006020820190508181036000830152614dfd81614738565b9050919050565b60006020820190508181036000830152614e1d8161475b565b9050919050565b60006020820190508181036000830152614e3d8161477e565b9050919050565b60006020820190508181036000830152614e5d816147a1565b9050919050565b60006020820190508181036000830152614e7d816147c4565b9050919050565b60006020820190508181036000830152614e9d816147e7565b9050919050565b60006020820190508181036000830152614ebd8161480a565b9050919050565b60006020820190508181036000830152614edd8161482d565b9050919050565b60006020820190508181036000830152614efd81614850565b9050919050565b60006020820190508181036000830152614f1d81614873565b9050919050565b6000602082019050614f396000830184614896565b92915050565b6000604082019050614f546000830185614896565b614f6160208301846143e0565b9392505050565b6000614f72614f83565b9050614f7e828261526a565b919050565b6000604051905090565b600067ffffffffffffffff821115614fa857614fa761542f565b5b614fb182615472565b9050602081019050919050565b600067ffffffffffffffff821115614fd957614fd861542f565b5b614fe282615472565b9050602081019050919050565b600081519050919050565b600081519050919050565b600082825260208201905092915050565b600082825260208201905092915050565b600081905092915050565b600061503d82615173565b915061504883615173565b9250827fffffffffffffffffffffffffffffffffffffffffffffffffffffffffffffffff0382111561507d5761507c615315565b5b828201905092915050565b600061509382615173565b915061509e83615173565b9250826150ae576150ad615344565b5b828204905092915050565b60006150c482615173565b91506150cf83615173565b9250828210156150e2576150e1615315565b5b828203905092915050565b60006150f882615153565b9050919050565b600061510a82615153565b9050919050565b60008115159050919050565b6000819050919050565b60007fffffffff0000000000000000000000000000000000000000000000000000000082169050919050565b600073ffffffffffffffffffffffffffffffffffffffff82169050919050565b6000819050919050565b600060ff82169050919050565b6000615195826151d2565b9050919050565b60006151a7826151ae565b9050919050565b60006151b982615153565b9050919050565b60006151cb82615173565b9050919050565b60006151dd826151e4565b9050919050565b60006151ef82615153565b9050919050565b82818337600083830152505050565b60005b83811015615223578082015181840152602081019050615208565b83811115615232576000848401525b50505050565b6000600282049050600182168061525057607f821691505b60208210811415615264576152636153a2565b5b50919050565b61527382615472565b810181811067ffffffffffffffff821117156152925761529161542f565b5b80604052505050565b60006152a682615173565b91507fffffffffffffffffffffffffffffffffffffffffffffffffffffffffffffffff8214156152d9576152d8615315565b5b600182019050919050565b60006152ef82615173565b91506152fa83615173565b92508261530a57615309615344565b5b828206905092915050565b7f4e487b7100000000000000000000000000000000000000000000000000000000600052601160045260246000fd5b7f4e487b7100000000000000000000000000000000000000000000000000000000600052601260045260246000fd5b7f4e487b7100000000000000000000000000000000000000000000000000000000600052602160045260246000fd5b7f4e487b7100000000000000000000000000000000000000000000000000000000600052602260045260246000fd5b7f4e487b7100000000000000000000000000000000000000000000000000000000600052603160045260246000fd5b7f4e487b7100000000000000000000000000000000000000000000000000000000600052603260045260246000fd5b7f4e487b7100000000000000000000000000000000000000000000000000000000600052604160045260246000fd5b600080fd5b600080fd5b600080fd5b600080fd5b6000601f19601f8301169050919050565b7f45434453413a20696e76616c6964207369676e61747572650000000000000000600082015250565b7f4552433732315061757361626c653a20746f6b656e207472616e73666572207760008201527f68696c6520706175736564000000000000000000000000000000000000000000602082015250565b7f496e76616c696420746f6b656e2062616c616e63650000000000000000000000600082015250565b7f5061757361626c653a206e6f7420706175736564000000000000000000000000600082015250565b7f45434453413a20696e76616c6964207369676e6174757265206c656e67746800600082015250565b7f455243373231456e756d657261626c653a206f776e657220696e646578206f7560008201527f74206f6620626f756e6473000000000000000000000000000000000000000000602082015250565b7f4552433732313a207472616e7366657220746f206e6f6e20455243373231526560008201527f63656976657220696d706c656d656e7465720000000000000000000000000000602082015250565b7f4f776e61626c653a206e6577206f776e657220697320746865207a65726f206160008201527f6464726573730000000000000000000000000000000000000000000000000000602082015250565b7f4552433732313a20746f6b656e20616c7265616479206d696e74656400000000600082015250565b7f4552433732313a207472616e7366657220746f20746865207a65726f2061646460008201527f7265737300000000000000000000000000000000000000000000000000000000602082015250565b7f4552433732313a20617070726f766520746f2063616c6c657200000000000000600082015250565b7f45434453413a20696e76616c6964207369676e6174757265202773272076616c60008201527f7565000000000000000000000000000000000000000000000000000000000000602082015250565b7f4552433732313a206f70657261746f7220717565727920666f72206e6f6e657860008201527f697374656e7420746f6b656e0000000000000000000000000000000000000000602082015250565b7f5061757361626c653a2070617573656400000000000000000000000000000000600082015250565b7f5175616e74697479206d757374206265203230206f72206c6573730000000000600082015250565b7f4552433732313a20617070726f76652063616c6c6572206973206e6f74206f7760008201527f6e6572206e6f7220617070726f76656420666f7220616c6c0000000000000000602082015250565b7f4b4c49503a205472616e73666572206661696c65640000000000000000000000600082015250565b7f4552433732313a2062616c616e636520717565727920666f7220746865207a6560008201527f726f206164647265737300000000000000000000000000000000000000000000602082015250565b7f4552433732313a206f776e657220717565727920666f72206e6f6e657869737460008201527f656e7420746f6b656e0000000000000000000000000000000000000000000000602082015250565b7f5175616e74697479206d757374206e6f74206265203000000000000000000000600082015250565b7f45434453413a20696e76616c6964207369676e6174757265202776272076616c60008201527f7565000000000000000000000000000000000000000000000000000000000000602082015250565b7f4552433732313a206d696e7420746f20746865207a65726f2061646472657373600082015250565b7f4552433732313a20617070726f76656420717565727920666f72206e6f6e657860008201527f697374656e7420746f6b656e0000000000000000000000000000000000000000602082015250565b7f4f776e61626c653a2063616c6c6572206973206e6f7420746865206f776e6572600082015250565b7f4552433732313a207472616e73666572206f6620746f6b656e2074686174206960008201527f73206e6f74206f776e0000000000000000000000000000000000000000000000602082015250565b7f4552433732314d657461646174613a2055524920717565727920666f72206e6f60008201527f6e6578697374656e7420746f6b656e0000000000000000000000000000000000602082015250565b7f4552433732313a20617070726f76616c20746f2063757272656e74206f776e6560008201527f7200000000000000000000000000000000000000000000000000000000000000602082015250565b7f4552433732313a207472616e736665722063616c6c6572206973206e6f74206f60008201527f776e6572206e6f7220617070726f766564000000000000000000000000000000602082015250565b7f455243373231456e756d657261626c653a20676c6f62616c20696e646578206f60008201527f7574206f6620626f756e64730000000000000000000000000000000000000000602082015250565b7f4552433732314275726e61626c653a2063616c6c6572206973206e6f74206f7760008201527f6e6572206e6f7220617070726f76656400000000000000000000000000000000602082015250565b7f496e76616c696420746f6b656e20616c6c6f77616e6365000000000000000000600082015250565b615c2f816150ed565b8114615c3a57600080fd5b50565b615c46816150ff565b8114615c5157600080fd5b50565b615c5d81615111565b8114615c6857600080fd5b50565b615c748161511d565b8114615c7f57600080fd5b50565b615c8b81615127565b8114615c9657600080fd5b50565b615ca281615173565b8114615cad57600080fd5b5056fea2646970667358221220413389554feda195d88cb33c08eaf5fd1327594e51e5408b1f423fcb9779a28964736f6c63430008050033",
  "immutableReferences": {},
  "source": "// SPDX-License-Identifier: MIT\npragma solidity ^0.8.4;\n\nimport \"./KlipCore.sol\";\nimport \"@openzeppelin/contracts/token/ERC20/IERC20.sol\";\nimport \"@openzeppelin/contracts/token/ERC721/ERC721.sol\";\nimport \"@openzeppelin/contracts/token/ERC721/extensions/ERC721Burnable.sol\";\nimport \"@openzeppelin/contracts/token/ERC721/extensions/ERC721Pausable.sol\";\nimport \"@openzeppelin/contracts/token/ERC721/extensions/ERC721Enumerable.sol\";\nimport \"@openzeppelin/contracts/utils/Counters.sol\";\n\n//TODO: Must change transferfrom to claim pattern to avoid frontrunning\n\ncontract KLIP is\n    KlipCore,\n    ERC721Burnable,\n    ERC721Pausable,\n    ERC721Enumerable\n{\n    using Counters for Counters.Counter;\n\n    Counters.Counter private _tokenIds;\n    IERC20 public stablecoin;\n    uint256 public royalty = 0;\n    uint256 public fee = 0;\n    address public paymentAddress;\n    mapping(uint256 => string) public fileUri;\n\n    event Withdrawn(address indexed paymentAddress, uint256 amount);\n\n    event ServiceFeePaid(\n        uint256 indexed tokenId,\n        address indexed from,\n        address indexed paymentAddress,\n        uint256 paidToContract,\n        uint256 paidToPaymentAddress\n    );\n\n    /**\n     * XDV Data Token\n     */\n    constructor(address tokenERC20, address newPaymentAddress)\n        ERC721(\"KLIP Token\", \"KLIP\")\n    {\n        paymentAddress = newPaymentAddress;\n        stablecoin = IERC20(tokenERC20);\n    }\n\n    function setServiceRoyalty(uint256 _fee) public onlyOwner {\n        royalty = _fee;\n    }\n\n    function setServiceFee(uint256 _fee) public onlyOwner {\n        fee = _fee;\n    }\n\n    function setPaymentAddress(address newAddress) public onlyOwner {\n        paymentAddress = newAddress;\n    }\n\n    function supportsInterface(bytes4 interfaceId)\n        public\n        view\n        virtual\n        override(ERC721, ERC721Enumerable)\n        returns (bool)\n    {\n        return super.supportsInterface(interfaceId);\n    }\n\n    /**\n     * @dev Mints a XDV Data Token if whitelisted\n     * @return tokenIds\n     */\n\n    //TODO: to enable multiple nfts qtys or editions,\n    //Mint requires an array of hashes and each metadata hash\n    //has its own metadata such as serial numbers and other identifiers\n    function mint(\n        uint256 qty,\n        address buyer,\n        string memory buyerDid,\n        bytes memory documentURI,\n        bool encrypted,\n        string memory name,\n        string memory did\n    ) public returns (bool) {\n       // User must have a balance\n        require(\n            stablecoin.balanceOf(msg.sender) > 0,\n            \"Invalid token balance\"\n        );\n        // User must have an allowance\n        require(\n            stablecoin.allowance(msg.sender, address(this)) > 0,\n            \"Invalid token allowance\"\n        );\n\n        require(qty <= 20, \"Quantity must be 20 or less\");\n        require(qty != 0, \"Quantity must not be 0\");\n        publisherCount++;\n\n        if (!minters[msg.sender].enabled) {\n            minters[msg.sender] = Publisher({\n                name: name,\n                paymentAddress: msg.sender,\n                did: did,\n                hasUserKyc: false,\n                enabled: true\n            });\n        }\n        uint256 i = minterDocumentRequestCounter[msg.sender];\n\n        // Assign request to minter\n        // We should move to use XDV Worker Protocol\n        minterDocumentRequests[msg.sender][i] = MintingRequest({\n            //TODOs: implement quantity in existence\n            //[Temporary for the demo] only 1 in existence for each nft \n            //later we could control the quantity at the minting\n            publisher: msg.sender,\n            buyer: buyer,\n            buyerDid: buyerDid,\n            documentURI: documentURI,\n            status: uint256(DocumentMintingRequestStatus.MINTED),\n            encrypted: encrypted,\n            qty: qty\n        });\n        minterDocumentRequestCounter[msg.sender]++;\n\n        emit DocumentAnchored(msg.sender, buyerDid, documentURI, i);\n\n        \n        for (uint j=0 ; j < qty ; j++){\n            _tokenIds.increment();\n            uint newItemId = _tokenIds.current();\n            _safeMint(buyer, newItemId, documentURI);\n        }\n        return true;\n    }\n\n    /**\n     * @dev Prevents the contract from working until `unpause()` is called.\n     * Used for Emergencies.\n     */\n    function pause() external onlyOwner {\n        _pause();\n    }\n\n    /**\n     * @dev If the contract is `paused()`, this will allow it to work again.\n     */\n    function unpause() external onlyOwner {\n        _unpause();\n    }\n\n    /**\n     * @dev Custom hook implementation.\n     */\n    function _beforeTokenTransfer(\n        address from,\n        address to,\n        uint256 tokenId\n    ) internal virtual override(ERC721, ERC721Pausable, ERC721Enumerable) {\n        // Minting by publisher\n        if (from == address(0) && to != address(0)) {\n            // Transfer tokens to pay service fee\n            //When alice transfers to bob it must charge service fee\n            require(\n                stablecoin.transferFrom( //Klip marketplace fee\n                    msg.sender,\n                    address(this),\n                    fee\n                ),\n                \"KLIP: Transfer failed\"\n            );\n\n            emit ServiceFeePaid(\n                tokenId,\n                msg.sender,\n                msg.sender,\n                fee,\n                0\n            );        \n        }\n\n        // Resale\n        if (from == msg.sender && to != address(0)) {\n            require(\n                stablecoin.transferFrom( //Klip marketplace fee\n                    msg.sender,\n                    address(this),\n                    fee\n                ),\n                \"KLIP: Transfer failed\"\n            );\n\n            // Pending royalty\n            emit ServiceFeePaid(\n                tokenId,\n                msg.sender,\n                msg.sender,\n                fee,\n                0\n            );        \n        }\n        super._beforeTokenTransfer(from, to, tokenId);\n    }\n\n    /**\n     * @dev tries to execute the payment when the token is transfered.\n     * Reverts if the payment procedure could not be completed.\n     */\n    function _paymentBeforeTransfer(address tokenHolder, uint256 tokenId)\n        internal\n        virtual\n    {\n        require(\n            paymentAddress != address(0),\n            \"KLIP: Must have a payment address\"\n        );\n\n        // Transfer tokens to pay service fee\n        //When alice transfers to bob it must charge service fee\n        require(\n            stablecoin.transferFrom( //Klip marketplace fee\n                msg.sender,\n                address(this),\n                fee\n            ),\n            \"KLIP: Transfer failed\"\n        );\n        require(\n            stablecoin.transferFrom( // NFT/Product payment from minter to buyer\n                tokenHolder,\n                paymentAddress,\n                royalty\n            ),\n            \"KLIP: Transfer failed\"\n        );\n        //TODO:\n        //Might have to add the transfer for when\n        //bob from bob to alice for when the nft is resold\n\n        emit ServiceFeePaid(\n            tokenId,\n            tokenHolder,\n            paymentAddress,\n            fee,\n            royalty\n        );\n    }\n\n    function withdrawBalance(address payable payee) public onlyOwner {\n        uint256 balance = stablecoin.balanceOf(address(this));\n\n        require(stablecoin.transfer(payee, balance), \"KLIP: Transfer failed\");\n\n        emit Withdrawn(payee, balance);\n    }\n}",
  "sourcePath": "/home/rogelio/Code/xdv/nft-document-swap/contracts/KLIP.sol",
  "compiler": {
    "name": "solc",
    "version": "0.8.5+commit.a4f2e591.Emscripten.clang"
  },
  "schemaVersion": "3.4.0",
  "updatedAt": "2021-06-13T14:46:42.032Z",
  "networkType": "ethereum",
  "devdoc": {
    "kind": "dev",
    "methods": {
      "approve(address,uint256)": {
        "details": "See {IERC721-approve}."
      },
      "balanceOf(address)": {
        "details": "See {IERC721-balanceOf}."
      },
      "burn(uint256)": {
        "details": "Burns `tokenId`. See {ERC721-_burn}. Requirements: - The caller must own `tokenId` or be an approved operator."
      },
      "getApproved(uint256)": {
        "details": "See {IERC721-getApproved}."
      },
      "isApprovedForAll(address,address)": {
        "details": "See {IERC721-isApprovedForAll}."
      },
      "isValidSignature(bytes32,bytes)": {
        "details": "ERC-1271 Compatibility. This checks that the message signature was sent by the contract's owner. Inspired by this implementation: https://github.com/OpenZeppelin/openzeppelin-contracts/blob/master/contracts/mocks/ERC1271WalletMock.sol",
        "returns": {
          "magicValue": "either 0x00000000 for false or 0x1626ba7e for true. 0x1626ba7e == bytes4(keccak256(\"isValidSignature(bytes32,bytes)\")"
        }
      },
      "mint(uint256,address,string,bytes,bool,string,string)": {
        "details": "Mints a XDV Data Token if whitelisted",
        "returns": {
          "_0": "tokenIds"
        }
      },
      "name()": {
        "details": "See {IERC721Metadata-name}."
      },
      "owner()": {
        "details": "Returns the address of the current owner."
      },
      "ownerOf(uint256)": {
        "details": "See {IERC721-ownerOf}."
      },
      "pause()": {
        "details": "Prevents the contract from working until `unpause()` is called. Used for Emergencies."
      },
      "paused()": {
        "details": "Returns true if the contract is paused, and false otherwise."
      },
      "renounceOwnership()": {
        "details": "Leaves the contract without owner. It will not be possible to call `onlyOwner` functions anymore. Can only be called by the current owner. NOTE: Renouncing ownership will leave the contract without an owner, thereby removing any functionality that is only available to the owner."
      },
      "safeTransferFrom(address,address,uint256)": {
        "details": "See {IERC721-safeTransferFrom}."
      },
      "safeTransferFrom(address,address,uint256,bytes)": {
        "details": "See {IERC721-safeTransferFrom}."
      },
      "setApprovalForAll(address,bool)": {
        "details": "See {IERC721-setApprovalForAll}."
      },
      "symbol()": {
        "details": "See {IERC721Metadata-symbol}."
      },
      "tokenByIndex(uint256)": {
        "details": "See {IERC721Enumerable-tokenByIndex}."
      },
      "tokenOfOwnerByIndex(address,uint256)": {
        "details": "See {IERC721Enumerable-tokenOfOwnerByIndex}."
      },
      "tokenURI(uint256)": {
        "details": "See {IERC721Metadata-tokenURI}."
      },
      "totalSupply()": {
        "details": "See {IERC721Enumerable-totalSupply}."
      },
      "transferFrom(address,address,uint256)": {
        "details": "See {IERC721-transferFrom}."
      },
      "transferOwnership(address)": {
        "details": "Transfers ownership of the contract to a new account (`newOwner`). Can only be called by the current owner."
      },
      "unpause()": {
        "details": "If the contract is `paused()`, this will allow it to work again."
      }
    },
    "version": 1
  },
  "userdoc": {
    "kind": "user",
    "methods": {
      "constructor": {
        "notice": "XDV Data Token"
      }
    },
    "version": 1
  }
}