{
  "contractName": "MinterRegistry",
  "abi": [
    {
      "anonymous": false,
      "inputs": [
        {
          "indexed": false,
          "internalType": "address",
          "name": "minter",
          "type": "address"
        },
        {
          "indexed": false,
          "internalType": "uint256",
          "name": "id",
          "type": "uint256"
        },
        {
          "indexed": false,
          "internalType": "bytes",
          "name": "name",
          "type": "bytes"
        },
        {
          "indexed": false,
          "internalType": "bytes",
          "name": "symbol",
          "type": "bytes"
        }
      ],
      "name": "MinterRegistered",
      "type": "event"
    },
    {
      "inputs": [
        {
          "internalType": "uint256",
          "name": "",
          "type": "uint256"
        }
      ],
      "name": "dataProviderMinters",
      "outputs": [
        {
          "internalType": "address",
          "name": "minterAddress",
          "type": "address"
        },
        {
          "internalType": "bytes",
          "name": "name",
          "type": "bytes"
        },
        {
          "internalType": "bytes",
          "name": "symbol",
          "type": "bytes"
        },
        {
          "internalType": "address",
          "name": "paymentAddress",
          "type": "address"
        },
        {
          "internalType": "bool",
          "name": "hasUserKyc",
          "type": "bool"
        },
        {
          "internalType": "uint256",
          "name": "feeStructure",
          "type": "uint256"
        },
        {
          "internalType": "uint256",
          "name": "created",
          "type": "uint256"
        }
      ],
      "stateMutability": "view",
      "type": "function"
    },
    {
      "inputs": [
        {
          "internalType": "address",
          "name": "",
          "type": "address"
        }
      ],
      "name": "minterCounter",
      "outputs": [
        {
          "internalType": "uint256",
          "name": "",
          "type": "uint256"
        }
      ],
      "stateMutability": "view",
      "type": "function"
    },
    {
      "inputs": [
        {
          "internalType": "address",
          "name": "minter",
          "type": "address"
        },
        {
          "internalType": "bytes",
          "name": "name",
          "type": "bytes"
        },
        {
          "internalType": "bytes",
          "name": "symbol",
          "type": "bytes"
        },
        {
          "internalType": "address",
          "name": "paymentAddress",
          "type": "address"
        },
        {
          "internalType": "bool",
          "name": "hasUserKyc",
          "type": "bool"
        },
        {
          "internalType": "uint256",
          "name": "feeStructure",
          "type": "uint256"
        }
      ],
      "name": "addToRegistry",
      "outputs": [
        {
          "internalType": "uint256",
          "name": "",
          "type": "uint256"
        }
      ],
      "stateMutability": "nonpayable",
      "type": "function"
    }
  ],
  "bytecode": "0x608060405234801561001057600080fd5b506109b9806100206000396000f3fe608060405234801561001057600080fd5b50600436106100415760003560e01c806353b692f814610046578063761901bb14610202578063967426ff1461025a575b600080fd5b6101ec600480360360c081101561005c57600080fd5b81019080803573ffffffffffffffffffffffffffffffffffffffff1690602001909291908035906020019064010000000081111561009957600080fd5b8201836020820111156100ab57600080fd5b803590602001918460018302840111640100000000831117156100cd57600080fd5b91908080601f016020809104026020016040519081016040528093929190818152602001838380828437600081840152601f19601f8201169050808301925050505050505091929192908035906020019064010000000081111561013057600080fd5b82018360208201111561014257600080fd5b8035906020019184600183028401116401000000008311171561016457600080fd5b91908080601f016020809104026020016040519081016040528093929190818152602001838380828437600081840152601f19601f820116905080830192505050505050509192919290803573ffffffffffffffffffffffffffffffffffffffff169060200190929190803515159060200190929190803590602001909291905050506103be565b6040518082815260200191505060405180910390f35b6102446004803603602081101561021857600080fd5b81019080803573ffffffffffffffffffffffffffffffffffffffff169060200190929190505050610701565b6040518082815260200191505060405180910390f35b6102866004803603602081101561027057600080fd5b8101908080359060200190929190505050610719565b604051808873ffffffffffffffffffffffffffffffffffffffff16815260200180602001806020018773ffffffffffffffffffffffffffffffffffffffff1681526020018615158152602001858152602001848152602001838103835289818151815260200191508051906020019080838360005b838110156103165780820151818401526020810190506102fb565b50505050905090810190601f1680156103435780820380516001836020036101000a031916815260200191505b50838103825288818151815260200191508051906020019080838360005b8381101561037c578082015181840152602081019050610361565b50505050905090810190601f1680156103a95780820380516001836020036101000a031916815260200191505b50995050505050505050505060405180910390f35b60008060008873ffffffffffffffffffffffffffffffffffffffff1673ffffffffffffffffffffffffffffffffffffffff1681526020019081526020016000206000815480929190600101919050555060008060008973ffffffffffffffffffffffffffffffffffffffff1673ffffffffffffffffffffffffffffffffffffffff1681526020019081526020016000205490506040518060e001604052808973ffffffffffffffffffffffffffffffffffffffff1681526020018881526020018781526020018673ffffffffffffffffffffffffffffffffffffffff1681526020018515158152602001848152602001428152506001600083815260200190815260200160002060008201518160000160006101000a81548173ffffffffffffffffffffffffffffffffffffffff021916908373ffffffffffffffffffffffffffffffffffffffff16021790555060208201518160010190805190602001906105289291906108d8565b5060408201518160020190805190602001906105459291906108d8565b5060608201518160030160006101000a81548173ffffffffffffffffffffffffffffffffffffffff021916908373ffffffffffffffffffffffffffffffffffffffff16021790555060808201518160030160146101000a81548160ff02191690831515021790555060a0820151816004015560c082015181600501559050507f63bceb882fc42e2abe7f948fe718aeecd8a71d21827dbb6ad8171d1d4c3fa8f488828989604051808573ffffffffffffffffffffffffffffffffffffffff1681526020018481526020018060200180602001838103835285818151815260200191508051906020019080838360005b8381101561064f578082015181840152602081019050610634565b50505050905090810190601f16801561067c5780820380516001836020036101000a031916815260200191505b50838103825284818151815260200191508051906020019080838360005b838110156106b557808201518184015260208101905061069a565b50505050905090810190601f1680156106e25780820380516001836020036101000a031916815260200191505b50965050505050505060405180910390a1809150509695505050505050565b60006020528060005260406000206000915090505481565b60016020528060005260406000206000915090508060000160009054906101000a900473ffffffffffffffffffffffffffffffffffffffff1690806001018054600181600116156101000203166002900480601f0160208091040260200160405190810160405280929190818152602001828054600181600116156101000203166002900480156107eb5780601f106107c0576101008083540402835291602001916107eb565b820191906000526020600020905b8154815290600101906020018083116107ce57829003601f168201915b505050505090806002018054600181600116156101000203166002900480601f0160208091040260200160405190810160405280929190818152602001828054600181600116156101000203166002900480156108895780601f1061085e57610100808354040283529160200191610889565b820191906000526020600020905b81548152906001019060200180831161086c57829003601f168201915b5050505050908060030160009054906101000a900473ffffffffffffffffffffffffffffffffffffffff16908060030160149054906101000a900460ff16908060040154908060050154905087565b828054600181600116156101000203166002900490600052602060002090601f01602090048101928261090e5760008555610955565b82601f1061092757805160ff1916838001178555610955565b82800160010185558215610955579182015b82811115610954578251825591602001919060010190610939565b5b5090506109629190610966565b5090565b5b8082111561097f576000816000905550600101610967565b509056fea26469706673582212200b255e4c466dacc41cea71cfc94661052d61f9f74b3979029b9e47610da8567164736f6c63430007060033",
  "immutableReferences": {},
  "source": "pragma solidity ^0.7.0;\nimport \"@openzeppelin/contracts/token/ERC721/ERC721.sol\";\nimport \"@openzeppelin/contracts/token/ERC721/ERC721Burnable.sol\";\nimport \"@openzeppelin/contracts/token/ERC721/ERC721Pausable.sol\";\nimport \"@openzeppelin/contracts/utils/Counters.sol\";\nimport \"./NFTDocumentMinter.sol\";\n\n/**\n *  Register Minters  debe ir un mapping, un evento de add registry, un counter para \n saber cuantos registros , get de fetch que debe recibir un address, y returnar un struct de vuelta\n */\ncontract MinterRegistry {\n    // Documents by minter counters\n    mapping(address => uint) public minterCounter;\n    mapping(uint => DataProviderMinter) public dataProviderMinters;\n\n// Minter Register\n\n // RequestMinting events\n    event MinterRegistered(\n        address minter, // NFT\n        uint id,\n        bytes name,\n        bytes symbol\n\n    );\n\n// Document minting request\n    struct DataProviderMinter {\n        address minterAddress;\n        bytes name;\n        bytes symbol;\n        address paymentAddress;\n        bool hasUserKyc;\n        uint feeStructure;\n        uint created;   \n    }\n\n\n    function addToRegistry(\n        address minter,\n        bytes memory name,\n        bytes memory symbol,\n        address paymentAddress,\n        bool hasUserKyc,\n        uint feeStructure   \n    ) public returns(uint){\n\n    minterCounter[minter]++;\n    uint i = minterCounter[minter];\n        \n    dataProviderMinters[i] = DataProviderMinter({\n        minterAddress: minter, \n        name: name,\n        symbol: symbol,\n        paymentAddress: paymentAddress,\n        hasUserKyc: hasUserKyc,\n        feeStructure: feeStructure,\n        created: block.timestamp\n    });\n\n    emit MinterRegistered(minter, i, name, symbol);\n    return i;\n    }\n\n}\n\n",
  "sourcePath": "/home/rogelio/Code/xdv/nft-document-swap/contracts/MinterRegistry.sol",
  "compiler": {
    "name": "solc",
    "version": "0.7.6+commit.7338295f.Emscripten.clang"
  },
  "schemaVersion": "3.3.3",
  "updatedAt": "2021-02-03T09:54:46.553Z",
  "devdoc": {
    "kind": "dev",
    "methods": {},
    "version": 1
  },
  "userdoc": {
    "kind": "user",
    "methods": {},
    "notice": "Register Minters  debe ir un mapping, un evento de add registry, un counter para  saber cuantos registros , get de fetch que debe recibir un address, y returnar un struct de vuelta",
    "version": 1
  }
}