{
  "contractName": "MinterCore",
  "abi": [
    {
      "anonymous": false,
      "inputs": [
        {
          "indexed": true,
          "internalType": "address",
          "name": "user",
          "type": "address"
        },
        {
          "indexed": true,
          "internalType": "string",
          "name": "userDid",
          "type": "string"
        },
        {
          "indexed": false,
          "internalType": "string",
          "name": "documentURI",
          "type": "string"
        },
        {
          "indexed": false,
          "internalType": "uint256",
          "name": "id",
          "type": "uint256"
        }
      ],
      "name": "DocumentAnchored",
      "type": "event"
    },
    {
      "anonymous": false,
      "inputs": [
        {
          "indexed": true,
          "internalType": "address",
          "name": "minter",
          "type": "address"
        },
        {
          "indexed": false,
          "internalType": "string",
          "name": "name",
          "type": "string"
        }
      ],
      "name": "MinterRegistered",
      "type": "event"
    },
    {
      "inputs": [
        {
          "internalType": "address",
          "name": "",
          "type": "address"
        }
      ],
      "name": "minterCounter",
      "outputs": [
        {
          "internalType": "uint256",
          "name": "",
          "type": "uint256"
        }
      ],
      "stateMutability": "view",
      "type": "function"
    },
    {
      "inputs": [
        {
          "internalType": "address",
          "name": "",
          "type": "address"
        }
      ],
      "name": "minterDocumentRequestCounter",
      "outputs": [
        {
          "internalType": "uint256",
          "name": "",
          "type": "uint256"
        }
      ],
      "stateMutability": "view",
      "type": "function"
    },
    {
      "inputs": [
        {
          "internalType": "address",
          "name": "",
          "type": "address"
        },
        {
          "internalType": "uint256",
          "name": "",
          "type": "uint256"
        }
      ],
      "name": "minterDocumentRequests",
      "outputs": [
        {
          "internalType": "address",
          "name": "user",
          "type": "address"
        },
        {
          "internalType": "string",
          "name": "userDid",
          "type": "string"
        },
        {
          "internalType": "address",
          "name": "toMinter",
          "type": "address"
        },
        {
          "internalType": "string",
          "name": "toMinterDid",
          "type": "string"
        },
        {
          "internalType": "string",
          "name": "documentURI",
          "type": "string"
        },
        {
          "internalType": "uint256",
          "name": "status",
          "type": "uint256"
        },
        {
          "internalType": "uint256",
          "name": "timestamp",
          "type": "uint256"
        },
        {
          "internalType": "string",
          "name": "description",
          "type": "string"
        }
      ],
      "stateMutability": "view",
      "type": "function"
    }
  ],
  "bytecode": "0x608060405234801561001057600080fd5b506106cb806100206000396000f3fe608060405234801561001057600080fd5b50600436106100415760003560e01c80632aa222c8146100465780636efaa69914610076578063761901bb146100ad575b600080fd5b610060600480360381019061005b9190610425565b6100dd565b60405161006d919061046b565b60405180910390f35b610090600480360381019061008b91906104b2565b6100f5565b6040516100a498979695949392919061059a565b60405180910390f35b6100c760048036038101906100c29190610425565b6103aa565b6040516100d4919061046b565b60405180910390f35b60016020528060005260406000206000915090505481565b6002602052816000526040600020602052806000526040600020600091509150508060000160009054906101000a900473ffffffffffffffffffffffffffffffffffffffff169080600101805461014b90610663565b80601f016020809104026020016040519081016040528092919081815260200182805461017790610663565b80156101c45780601f10610199576101008083540402835291602001916101c4565b820191906000526020600020905b8154815290600101906020018083116101a757829003601f168201915b5050505050908060020160009054906101000a900473ffffffffffffffffffffffffffffffffffffffff16908060030180546101ff90610663565b80601f016020809104026020016040519081016040528092919081815260200182805461022b90610663565b80156102785780601f1061024d57610100808354040283529160200191610278565b820191906000526020600020905b81548152906001019060200180831161025b57829003601f168201915b50505050509080600401805461028d90610663565b80601f01602080910402602001604051908101604052809291908181526020018280546102b990610663565b80156103065780601f106102db57610100808354040283529160200191610306565b820191906000526020600020905b8154815290600101906020018083116102e957829003601f168201915b50505050509080600501549080600601549080600701805461032790610663565b80601f016020809104026020016040519081016040528092919081815260200182805461035390610663565b80156103a05780601f10610375576101008083540402835291602001916103a0565b820191906000526020600020905b81548152906001019060200180831161038357829003601f168201915b5050505050905088565b60006020528060005260406000206000915090505481565b600080fd5b600073ffffffffffffffffffffffffffffffffffffffff82169050919050565b60006103f2826103c7565b9050919050565b610402816103e7565b811461040d57600080fd5b50565b60008135905061041f816103f9565b92915050565b60006020828403121561043b5761043a6103c2565b5b600061044984828501610410565b91505092915050565b6000819050919050565b61046581610452565b82525050565b6000602082019050610480600083018461045c565b92915050565b61048f81610452565b811461049a57600080fd5b50565b6000813590506104ac81610486565b92915050565b600080604083850312156104c9576104c86103c2565b5b60006104d785828601610410565b92505060206104e88582860161049d565b9150509250929050565b6104fb816103e7565b82525050565b600081519050919050565b600082825260208201905092915050565b60005b8381101561053b578082015181840152602081019050610520565b8381111561054a576000848401525b50505050565b6000601f19601f8301169050919050565b600061056c82610501565b610576818561050c565b935061058681856020860161051d565b61058f81610550565b840191505092915050565b6000610100820190506105b0600083018b6104f2565b81810360208301526105c2818a610561565b90506105d160408301896104f2565b81810360608301526105e38188610561565b905081810360808301526105f78187610561565b905061060660a083018661045c565b61061360c083018561045c565b81810360e08301526106258184610561565b90509998505050505050505050565b7f4e487b7100000000000000000000000000000000000000000000000000000000600052602260045260246000fd5b6000600282049050600182168061067b57607f821691505b6020821081141561068f5761068e610634565b5b5091905056fea264697066735822122055b48c12dc6d2400ab3d52a8432480e7a453363302bae6511453265670b3104664736f6c63430008090033",
  "immutableReferences": {},
  "source": "// SPDX-License-Identifier: MIT\npragma solidity ^0.8.0;\n\n/**\n *  @dev MinterCore\n */\ncontract MinterCore {\n    // Documents provider mappings\n    mapping(address => uint) public minterCounter;\n\n\n    // Requested Documents by minter id sequence/autonumber\n    mapping(address => uint) public minterDocumentRequestCounter;\n\n    // Requests by minter by autonumber\n    mapping(address => mapping(uint => DocumentMintingRequest)) public minterDocumentRequests;\n    \n    enum DocumentMintingRequestStatus   {\n        REQUEST,\n        MINTED,\n        BURNED\n    }\n\n    // Document minting request\n    struct DocumentMintingRequest {\n        address user;\n        string userDid;\n        address toMinter; // NFT\n        string toMinterDid;\n        string documentURI;\n        uint status;    \n        uint timestamp;    \n        string description;\n    }\n\n    // Document minting provider\n    struct DataProviderMinter {\n        string name;\n        address paymentAddress;//*\n        bool hasUserKyc;\n        uint feeStructure;//*\n        uint created;\n        address factoryAddress;//*\n        bool enabled;\n    }\n\n    // RequestMinting events\n    event MinterRegistered(\n        address indexed minter, // NFT\n        string name\n    );\n\n    // DocumentAnchored events\n    event DocumentAnchored(\n        address indexed user, \n        string indexed userDid,\n        string documentURI,\n        uint id\n    );\n\n  \n}\n\n",
  "sourcePath": "/home/dallant/Code/xdv-document-signer-contracts/contracts/MinterCore.sol",
  "compiler": {
    "name": "solc",
    "version": "0.8.9+commit.e5eed63a.Emscripten.clang"
  },
  "schemaVersion": "3.4.1",
  "updatedAt": "2021-10-06T18:32:37.514Z",
  "devdoc": {
    "details": "MinterCore",
    "kind": "dev",
    "methods": {},
    "version": 1
  },
  "userdoc": {
    "kind": "user",
    "methods": {},
    "version": 1
  }
}