{
  "contractName": "NFTDocumentMinter",
  "abi": [
    {
      "inputs": [
        {
          "internalType": "address",
          "name": "_owner",
          "type": "address"
        },
        {
          "internalType": "address",
          "name": "_mintedBy",
          "type": "address"
        },
        {
          "internalType": "string",
          "name": "name",
          "type": "string"
        },
        {
          "internalType": "string",
          "name": "symbol",
          "type": "string"
        },
        {
          "internalType": "uint256",
          "name": "serviceFee",
          "type": "uint256"
        },
        {
          "internalType": "uint256",
          "name": "protocolFee",
          "type": "uint256"
        },
        {
          "internalType": "address",
          "name": "paymentAddress",
          "type": "address"
        },
        {
          "internalType": "address",
          "name": "factoryPaymentAddress",
          "type": "address"
        },
        {
          "internalType": "contract ERC20Interface",
          "name": "paymentToken",
          "type": "address"
        }
      ],
      "stateMutability": "nonpayable",
      "type": "constructor"
    },
    {
      "anonymous": false,
      "inputs": [
        {
          "indexed": true,
          "internalType": "address",
          "name": "owner",
          "type": "address"
        },
        {
          "indexed": true,
          "internalType": "address",
          "name": "approved",
          "type": "address"
        },
        {
          "indexed": true,
          "internalType": "uint256",
          "name": "tokenId",
          "type": "uint256"
        }
      ],
      "name": "Approval",
      "type": "event"
    },
    {
      "anonymous": false,
      "inputs": [
        {
          "indexed": true,
          "internalType": "address",
          "name": "owner",
          "type": "address"
        },
        {
          "indexed": true,
          "internalType": "address",
          "name": "operator",
          "type": "address"
        },
        {
          "indexed": false,
          "internalType": "bool",
          "name": "approved",
          "type": "bool"
        }
      ],
      "name": "ApprovalForAll",
      "type": "event"
    },
    {
      "anonymous": false,
      "inputs": [
        {
          "indexed": false,
          "internalType": "address",
          "name": "minter",
          "type": "address"
        },
        {
          "indexed": false,
          "internalType": "address",
          "name": "from",
          "type": "address"
        },
        {
          "indexed": false,
          "internalType": "uint256",
          "name": "id",
          "type": "uint256"
        }
      ],
      "name": "BurnSwap",
      "type": "event"
    },
    {
      "anonymous": false,
      "inputs": [
        {
          "indexed": false,
          "internalType": "address",
          "name": "account",
          "type": "address"
        }
      ],
      "name": "Paused",
      "type": "event"
    },
    {
      "anonymous": false,
      "inputs": [
        {
          "indexed": true,
          "internalType": "address",
          "name": "from",
          "type": "address"
        },
        {
          "indexed": true,
          "internalType": "address",
          "name": "to",
          "type": "address"
        },
        {
          "indexed": true,
          "internalType": "uint256",
          "name": "tokenId",
          "type": "uint256"
        }
      ],
      "name": "Transfer",
      "type": "event"
    },
    {
      "anonymous": false,
      "inputs": [
        {
          "indexed": false,
          "internalType": "address",
          "name": "account",
          "type": "address"
        }
      ],
      "name": "Unpaused",
      "type": "event"
    },
    {
      "inputs": [
        {
          "internalType": "address",
          "name": "to",
          "type": "address"
        },
        {
          "internalType": "uint256",
          "name": "tokenId",
          "type": "uint256"
        }
      ],
      "name": "approve",
      "outputs": [],
      "stateMutability": "nonpayable",
      "type": "function"
    },
    {
      "inputs": [
        {
          "internalType": "address",
          "name": "owner",
          "type": "address"
        }
      ],
      "name": "balanceOf",
      "outputs": [
        {
          "internalType": "uint256",
          "name": "",
          "type": "uint256"
        }
      ],
      "stateMutability": "view",
      "type": "function"
    },
    {
      "inputs": [],
      "name": "baseURI",
      "outputs": [
        {
          "internalType": "string",
          "name": "",
          "type": "string"
        }
      ],
      "stateMutability": "view",
      "type": "function"
    },
    {
      "inputs": [],
      "name": "daiToken",
      "outputs": [
        {
          "internalType": "contract ERC20Interface",
          "name": "",
          "type": "address"
        }
      ],
      "stateMutability": "view",
      "type": "function"
    },
    {
      "inputs": [
        {
          "internalType": "uint256",
          "name": "tokenId",
          "type": "uint256"
        }
      ],
      "name": "getApproved",
      "outputs": [
        {
          "internalType": "address",
          "name": "",
          "type": "address"
        }
      ],
      "stateMutability": "view",
      "type": "function"
    },
    {
      "inputs": [
        {
          "internalType": "address",
          "name": "owner",
          "type": "address"
        },
        {
          "internalType": "address",
          "name": "operator",
          "type": "address"
        }
      ],
      "name": "isApprovedForAll",
      "outputs": [
        {
          "internalType": "bool",
          "name": "",
          "type": "bool"
        }
      ],
      "stateMutability": "view",
      "type": "function"
    },
    {
      "inputs": [],
      "name": "mintedBy",
      "outputs": [
        {
          "internalType": "address",
          "name": "",
          "type": "address"
        }
      ],
      "stateMutability": "view",
      "type": "function"
    },
    {
      "inputs": [],
      "name": "minterPaymentAddress",
      "outputs": [
        {
          "internalType": "address",
          "name": "",
          "type": "address"
        }
      ],
      "stateMutability": "view",
      "type": "function"
    },
    {
      "inputs": [],
      "name": "mintingServiceFee",
      "outputs": [
        {
          "internalType": "uint256",
          "name": "",
          "type": "uint256"
        }
      ],
      "stateMutability": "view",
      "type": "function"
    },
    {
      "inputs": [],
      "name": "name",
      "outputs": [
        {
          "internalType": "string",
          "name": "",
          "type": "string"
        }
      ],
      "stateMutability": "view",
      "type": "function"
    },
    {
      "inputs": [],
      "name": "owner",
      "outputs": [
        {
          "internalType": "address",
          "name": "",
          "type": "address"
        }
      ],
      "stateMutability": "view",
      "type": "function"
    },
    {
      "inputs": [
        {
          "internalType": "uint256",
          "name": "tokenId",
          "type": "uint256"
        }
      ],
      "name": "ownerOf",
      "outputs": [
        {
          "internalType": "address",
          "name": "",
          "type": "address"
        }
      ],
      "stateMutability": "view",
      "type": "function"
    },
    {
      "inputs": [],
      "name": "paused",
      "outputs": [
        {
          "internalType": "bool",
          "name": "",
          "type": "bool"
        }
      ],
      "stateMutability": "view",
      "type": "function"
    },
    {
      "inputs": [],
      "name": "protocolPaymentAddress",
      "outputs": [
        {
          "internalType": "address",
          "name": "",
          "type": "address"
        }
      ],
      "stateMutability": "view",
      "type": "function"
    },
    {
      "inputs": [],
      "name": "protocolServiceFee",
      "outputs": [
        {
          "internalType": "uint256",
          "name": "",
          "type": "uint256"
        }
      ],
      "stateMutability": "view",
      "type": "function"
    },
    {
      "inputs": [
        {
          "internalType": "address",
          "name": "from",
          "type": "address"
        },
        {
          "internalType": "address",
          "name": "to",
          "type": "address"
        },
        {
          "internalType": "uint256",
          "name": "tokenId",
          "type": "uint256"
        }
      ],
      "name": "safeTransferFrom",
      "outputs": [],
      "stateMutability": "nonpayable",
      "type": "function"
    },
    {
      "inputs": [
        {
          "internalType": "address",
          "name": "from",
          "type": "address"
        },
        {
          "internalType": "address",
          "name": "to",
          "type": "address"
        },
        {
          "internalType": "uint256",
          "name": "tokenId",
          "type": "uint256"
        },
        {
          "internalType": "bytes",
          "name": "_data",
          "type": "bytes"
        }
      ],
      "name": "safeTransferFrom",
      "outputs": [],
      "stateMutability": "nonpayable",
      "type": "function"
    },
    {
      "inputs": [
        {
          "internalType": "address",
          "name": "operator",
          "type": "address"
        },
        {
          "internalType": "bool",
          "name": "approved",
          "type": "bool"
        }
      ],
      "name": "setApprovalForAll",
      "outputs": [],
      "stateMutability": "nonpayable",
      "type": "function"
    },
    {
      "inputs": [
        {
          "internalType": "bytes4",
          "name": "interfaceId",
          "type": "bytes4"
        }
      ],
      "name": "supportsInterface",
      "outputs": [
        {
          "internalType": "bool",
          "name": "",
          "type": "bool"
        }
      ],
      "stateMutability": "view",
      "type": "function"
    },
    {
      "inputs": [],
      "name": "symbol",
      "outputs": [
        {
          "internalType": "string",
          "name": "",
          "type": "string"
        }
      ],
      "stateMutability": "view",
      "type": "function"
    },
    {
      "inputs": [
        {
          "internalType": "uint256",
          "name": "index",
          "type": "uint256"
        }
      ],
      "name": "tokenByIndex",
      "outputs": [
        {
          "internalType": "uint256",
          "name": "",
          "type": "uint256"
        }
      ],
      "stateMutability": "view",
      "type": "function"
    },
    {
      "inputs": [
        {
          "internalType": "address",
          "name": "owner",
          "type": "address"
        },
        {
          "internalType": "uint256",
          "name": "index",
          "type": "uint256"
        }
      ],
      "name": "tokenOfOwnerByIndex",
      "outputs": [
        {
          "internalType": "uint256",
          "name": "",
          "type": "uint256"
        }
      ],
      "stateMutability": "view",
      "type": "function"
    },
    {
      "inputs": [
        {
          "internalType": "uint256",
          "name": "tokenId",
          "type": "uint256"
        }
      ],
      "name": "tokenURI",
      "outputs": [
        {
          "internalType": "string",
          "name": "",
          "type": "string"
        }
      ],
      "stateMutability": "view",
      "type": "function"
    },
    {
      "inputs": [],
      "name": "totalSupply",
      "outputs": [
        {
          "internalType": "uint256",
          "name": "",
          "type": "uint256"
        }
      ],
      "stateMutability": "view",
      "type": "function"
    },
    {
      "inputs": [
        {
          "internalType": "address",
          "name": "from",
          "type": "address"
        },
        {
          "internalType": "address",
          "name": "to",
          "type": "address"
        },
        {
          "internalType": "uint256",
          "name": "tokenId",
          "type": "uint256"
        }
      ],
      "name": "transferFrom",
      "outputs": [],
      "stateMutability": "nonpayable",
      "type": "function"
    },
    {
      "inputs": [
        {
          "internalType": "address",
          "name": "user",
          "type": "address"
        },
        {
          "internalType": "string",
          "name": "tokenURI",
          "type": "string"
        }
      ],
      "name": "mint",
      "outputs": [
        {
          "internalType": "uint256",
          "name": "",
          "type": "uint256"
        }
      ],
      "stateMutability": "nonpayable",
      "type": "function"
    },
    {
      "inputs": [
        {
          "internalType": "uint256",
          "name": "tokenId",
          "type": "uint256"
        }
      ],
      "name": "burn",
      "outputs": [
        {
          "internalType": "bool",
          "name": "",
          "type": "bool"
        }
      ],
      "stateMutability": "payable",
      "type": "function"
    }
  ],
  "bytecode": "0x60806040523480156200001157600080fd5b50604051620040f1380380620040f183398181016040526101208110156200003857600080fd5b810190808051906020019092919080519060200190929190805160405193929190846401000000008211156200006d57600080fd5b838201915060208201858111156200008457600080fd5b8251866001820283011164010000000082111715620000a257600080fd5b8083526020830192505050908051906020019080838360005b83811015620000d8578082015181840152602081019050620000bb565b50505050905090810190601f168015620001065780820380516001836020036101000a031916815260200191505b50604052602001805160405193929190846401000000008211156200012a57600080fd5b838201915060208201858111156200014157600080fd5b82518660018202830111640100000000821117156200015f57600080fd5b8083526020830192505050908051906020019080838360005b838110156200019557808201518184015260208101905062000178565b50505050905090810190601f168015620001c35780820380516001836020036101000a031916815260200191505b5060405260200180519060200190929190805190602001909291908051906020019092919080519060200190929190805190602001909291905050508686620002196301ffc9a760e01b6200041260201b60201c565b8160069080519060200190620002319291906200051b565b5080600790805190602001906200024a9291906200051b565b50620002636380ac58cd60e01b6200041260201b60201c565b6200027b635b5e139f60e01b6200041260201b60201c565b6200029363780e9d6360e01b6200041260201b60201c565b50506000600a60006101000a81548160ff02191690831515021790555088600c60006101000a81548173ffffffffffffffffffffffffffffffffffffffff021916908373ffffffffffffffffffffffffffffffffffffffff16021790555087600f60006101000a81548173ffffffffffffffffffffffffffffffffffffffff021916908373ffffffffffffffffffffffffffffffffffffffff16021790555080601060006101000a81548173ffffffffffffffffffffffffffffffffffffffff021916908373ffffffffffffffffffffffffffffffffffffffff16021790555084600e8190555083600d8190555082601260006101000a81548173ffffffffffffffffffffffffffffffffffffffff021916908373ffffffffffffffffffffffffffffffffffffffff16021790555081601160006101000a81548173ffffffffffffffffffffffffffffffffffffffff021916908373ffffffffffffffffffffffffffffffffffffffff160217905550505050505050505050620005d1565b63ffffffff60e01b817bffffffffffffffffffffffffffffffffffffffffffffffffffffffff19161415620004af576040517f08c379a000000000000000000000000000000000000000000000000000000000815260040180806020018281038252601c8152602001807f4552433136353a20696e76616c696420696e746572666163652069640000000081525060200191505060405180910390fd5b6001600080837bffffffffffffffffffffffffffffffffffffffffffffffffffffffff19167bffffffffffffffffffffffffffffffffffffffffffffffffffffffff1916815260200190815260200160002060006101000a81548160ff02191690831515021790555050565b828054600181600116156101000203166002900490600052602060002090601f0160209004810192826200055357600085556200059f565b82601f106200056e57805160ff19168380011785556200059f565b828001600101855582156200059f579182015b828111156200059e57825182559160200191906001019062000581565b5b509050620005ae9190620005b2565b5090565b5b80821115620005cd576000816000905550600101620005b3565b5090565b613b1080620005e16000396000f3fe60806040526004361061019c5760003560e01c80636c0360eb116100ec578063b88d4fde1161008a578063d0def52111610064578063d0def52114610ad7578063deb6ce3114610bd3578063e469193114610c14578063e985e9c514610c555761019c565b8063b88d4fde146108d0578063be22f546146109e2578063c87b56dd14610a235761019c565b80637285e3b9116100c65780637285e3b9146107775780638da5cb5b146107a257806395d89b41146107e3578063a22cb465146108735761019c565b80636c0360eb146106415780636e3e2fa6146106d157806370a08231146107125761019c565b806323b872dd1161015957806342966c681161013357806342966c681461051c5780634f6ccce7146105605780635c975abb146105af5780636352211e146105dc5761019c565b806323b872dd146103b75780632f745c591461043257806342842e0e146104a15761019c565b806301609fd3146101a157806301ffc9a7146101cc57806306fdde031461023c578063081812fc146102cc578063095ea7b31461033157806318160ddd1461038c575b600080fd5b3480156101ad57600080fd5b506101b6610cdc565b6040518082815260200191505060405180910390f35b3480156101d857600080fd5b50610224600480360360208110156101ef57600080fd5b8101908080357bffffffffffffffffffffffffffffffffffffffffffffffffffffffff19169060200190929190505050610ce2565b60405180821515815260200191505060405180910390f35b34801561024857600080fd5b50610251610d49565b6040518080602001828103825283818151815260200191508051906020019080838360005b83811015610291578082015181840152602081019050610276565b50505050905090810190601f1680156102be5780820380516001836020036101000a031916815260200191505b509250505060405180910390f35b3480156102d857600080fd5b50610305600480360360208110156102ef57600080fd5b8101908080359060200190929190505050610deb565b604051808273ffffffffffffffffffffffffffffffffffffffff16815260200191505060405180910390f35b34801561033d57600080fd5b5061038a6004803603604081101561035457600080fd5b81019080803573ffffffffffffffffffffffffffffffffffffffff16906020019092919080359060200190929190505050610e86565b005b34801561039857600080fd5b506103a1610fca565b6040518082815260200191505060405180910390f35b3480156103c357600080fd5b50610430600480360360608110156103da57600080fd5b81019080803573ffffffffffffffffffffffffffffffffffffffff169060200190929190803573ffffffffffffffffffffffffffffffffffffffff16906020019092919080359060200190929190505050610fdb565b005b34801561043e57600080fd5b5061048b6004803603604081101561045557600080fd5b81019080803573ffffffffffffffffffffffffffffffffffffffff16906020019092919080359060200190929190505050611051565b6040518082815260200191505060405180910390f35b3480156104ad57600080fd5b5061051a600480360360608110156104c457600080fd5b81019080803573ffffffffffffffffffffffffffffffffffffffff169060200190929190803573ffffffffffffffffffffffffffffffffffffffff169060200190929190803590602001909291905050506110ac565b005b6105486004803603602081101561053257600080fd5b81019080803590602001909291905050506110cc565b60405180821515815260200191505060405180910390f35b34801561056c57600080fd5b506105996004803603602081101561058357600080fd5b81019080803590602001909291905050506116e8565b6040518082815260200191505060405180910390f35b3480156105bb57600080fd5b506105c461170b565b60405180821515815260200191505060405180910390f35b3480156105e857600080fd5b50610615600480360360208110156105ff57600080fd5b8101908080359060200190929190505050611722565b604051808273ffffffffffffffffffffffffffffffffffffffff16815260200191505060405180910390f35b34801561064d57600080fd5b50610656611759565b6040518080602001828103825283818151815260200191508051906020019080838360005b8381101561069657808201518184015260208101905061067b565b50505050905090810190601f1680156106c35780820380516001836020036101000a031916815260200191505b509250505060405180910390f35b3480156106dd57600080fd5b506106e66117fb565b604051808273ffffffffffffffffffffffffffffffffffffffff16815260200191505060405180910390f35b34801561071e57600080fd5b506107616004803603602081101561073557600080fd5b81019080803573ffffffffffffffffffffffffffffffffffffffff169060200190929190505050611821565b6040518082815260200191505060405180910390f35b34801561078357600080fd5b5061078c6118f6565b6040518082815260200191505060405180910390f35b3480156107ae57600080fd5b506107b76118fc565b604051808273ffffffffffffffffffffffffffffffffffffffff16815260200191505060405180910390f35b3480156107ef57600080fd5b506107f8611922565b6040518080602001828103825283818151815260200191508051906020019080838360005b8381101561083857808201518184015260208101905061081d565b50505050905090810190601f1680156108655780820380516001836020036101000a031916815260200191505b509250505060405180910390f35b34801561087f57600080fd5b506108ce6004803603604081101561089657600080fd5b81019080803573ffffffffffffffffffffffffffffffffffffffff1690602001909291908035151590602001909291905050506119c4565b005b3480156108dc57600080fd5b506109e0600480360360808110156108f357600080fd5b81019080803573ffffffffffffffffffffffffffffffffffffffff169060200190929190803573ffffffffffffffffffffffffffffffffffffffff169060200190929190803590602001909291908035906020019064010000000081111561095a57600080fd5b82018360208201111561096c57600080fd5b8035906020019184600183028401116401000000008311171561098e57600080fd5b91908080601f016020809104026020016040519081016040528093929190818152602001838380828437600081840152601f19601f820116905080830192505050505050509192919290505050611b7a565b005b3480156109ee57600080fd5b506109f7611bf2565b604051808273ffffffffffffffffffffffffffffffffffffffff16815260200191505060405180910390f35b348015610a2f57600080fd5b50610a5c60048036036020811015610a4657600080fd5b8101908080359060200190929190505050611c18565b6040518080602001828103825283818151815260200191508051906020019080838360005b83811015610a9c578082015181840152602081019050610a81565b50505050905090810190601f168015610ac95780820380516001836020036101000a031916815260200191505b509250505060405180910390f35b348015610ae357600080fd5b50610bbd60048036036040811015610afa57600080fd5b81019080803573ffffffffffffffffffffffffffffffffffffffff16906020019092919080359060200190640100000000811115610b3757600080fd5b820183602082011115610b4957600080fd5b80359060200191846001830284011164010000000083111715610b6b57600080fd5b91908080601f016020809104026020016040519081016040528093929190818152602001838380828437600081840152601f19601f820116905080830192505050505050509192919290505050611f01565b6040518082815260200191505060405180910390f35b348015610bdf57600080fd5b50610be8611ffc565b604051808273ffffffffffffffffffffffffffffffffffffffff16815260200191505060405180910390f35b348015610c2057600080fd5b50610c29612022565b604051808273ffffffffffffffffffffffffffffffffffffffff16815260200191505060405180910390f35b348015610c6157600080fd5b50610cc460048036036040811015610c7857600080fd5b81019080803573ffffffffffffffffffffffffffffffffffffffff169060200190929190803573ffffffffffffffffffffffffffffffffffffffff169060200190929190505050612048565b60405180821515815260200191505060405180910390f35b600e5481565b6000806000837bffffffffffffffffffffffffffffffffffffffffffffffffffffffff19167bffffffffffffffffffffffffffffffffffffffffffffffffffffffff1916815260200190815260200160002060009054906101000a900460ff169050919050565b606060068054600181600116156101000203166002900480601f016020809104026020016040519081016040528092919081815260200182805460018160011615610100020316600290048015610de15780601f10610db657610100808354040283529160200191610de1565b820191906000526020600020905b815481529060010190602001808311610dc457829003601f168201915b5050505050905090565b6000610df6826120dc565b610e4b576040517f08c379a000000000000000000000000000000000000000000000000000000000815260040180806020018281038252602c8152602001806139d9602c913960400191505060405180910390fd5b6004600083815260200190815260200160002060009054906101000a900473ffffffffffffffffffffffffffffffffffffffff169050919050565b6000610e9182611722565b90508073ffffffffffffffffffffffffffffffffffffffff168373ffffffffffffffffffffffffffffffffffffffff161415610f18576040517f08c379a0000000000000000000000000000000000000000000000000000000008152600401808060200182810382526021815260200180613a896021913960400191505060405180910390fd5b8073ffffffffffffffffffffffffffffffffffffffff16610f376120f9565b73ffffffffffffffffffffffffffffffffffffffff161480610f665750610f6581610f606120f9565b612048565b5b610fbb576040517f08c379a000000000000000000000000000000000000000000000000000000000815260040180806020018281038252603881526020018061392c6038913960400191505060405180910390fd5b610fc58383612101565b505050565b6000610fd660026121ba565b905090565b610fec610fe66120f9565b826121cf565b611041576040517f08c379a0000000000000000000000000000000000000000000000000000000008152600401808060200182810382526031815260200180613aaa6031913960400191505060405180910390fd5b61104c8383836122c3565b505050565b60006110a482600160008673ffffffffffffffffffffffffffffffffffffffff1673ffffffffffffffffffffffffffffffffffffffff16815260200190815260200160002061250690919063ffffffff16565b905092915050565b6110c783838360405180602001604052806000815250611b7a565b505050565b600080601060009054906101000a900473ffffffffffffffffffffffffffffffffffffffff1673ffffffffffffffffffffffffffffffffffffffff166370a08231336040518263ffffffff1660e01b8152600401808273ffffffffffffffffffffffffffffffffffffffff16815260200191505060206040518083038186803b15801561115857600080fd5b505afa15801561116c573d6000803e3d6000fd5b505050506040513d602081101561118257600080fd5b81019080805190602001909291905050501015611207576040517f08c379a00000000000000000000000000000000000000000000000000000000081526004018080602001828103825260158152602001807f496e76616c696420746f6b656e2062616c616e6365000000000000000000000081525060200191505060405180910390fd5b6000601060009054906101000a900473ffffffffffffffffffffffffffffffffffffffff1673ffffffffffffffffffffffffffffffffffffffff1663dd62ed3e33306040518363ffffffff1660e01b8152600401808373ffffffffffffffffffffffffffffffffffffffff1681526020018273ffffffffffffffffffffffffffffffffffffffff1681526020019250505060206040518083038186803b1580156112b057600080fd5b505afa1580156112c4573d6000803e3d6000fd5b505050506040513d60208110156112da57600080fd5b8101908080519060200190929190505050101561135f576040517f08c379a00000000000000000000000000000000000000000000000000000000081526004018080602001828103825260178152602001807f496e76616c696420746f6b656e20616c6c6f77616e636500000000000000000081525060200191505060405180910390fd5b61136882612520565b601060009054906101000a900473ffffffffffffffffffffffffffffffffffffffff1673ffffffffffffffffffffffffffffffffffffffff166323b872dd33601260009054906101000a900473ffffffffffffffffffffffffffffffffffffffff16600e546040518463ffffffff1660e01b8152600401808473ffffffffffffffffffffffffffffffffffffffff1681526020018373ffffffffffffffffffffffffffffffffffffffff1681526020018281526020019350505050602060405180830381600087803b15801561143d57600080fd5b505af1158015611451573d6000803e3d6000fd5b505050506040513d602081101561146757600080fd5b81019080805190602001909291905050506114ea576040517f08c379a000000000000000000000000000000000000000000000000000000000815260040180806020018281038252601e8152602001807f5472616e73666572206661696c656420666f72206261736520746f6b656e000081525060200191505060405180910390fd5b601060009054906101000a900473ffffffffffffffffffffffffffffffffffffffff1673ffffffffffffffffffffffffffffffffffffffff166323b872dd33601160009054906101000a900473ffffffffffffffffffffffffffffffffffffffff16600d546040518463ffffffff1660e01b8152600401808473ffffffffffffffffffffffffffffffffffffffff1681526020018373ffffffffffffffffffffffffffffffffffffffff1681526020018281526020019350505050602060405180830381600087803b1580156115bf57600080fd5b505af11580156115d3573d6000803e3d6000fd5b505050506040513d60208110156115e957600080fd5b810190808051906020019092919050505061166c576040517f08c379a000000000000000000000000000000000000000000000000000000000815260040180806020018281038252601e8152602001807f5472616e73666572206661696c656420666f72206261736520746f6b656e000081525060200191505060405180910390fd5b7f922440b9b32ceea32c28a1e3eaab6666b0c219fb8184013c17bc787fc6be8ecb303384604051808473ffffffffffffffffffffffffffffffffffffffff1681526020018373ffffffffffffffffffffffffffffffffffffffff168152602001828152602001935050505060405180910390a160019050919050565b6000806116ff83600261265a90919063ffffffff16565b50905080915050919050565b6000600a60009054906101000a900460ff16905090565b60006117528260405180606001604052806029815260200161398e6029913960026126869092919063ffffffff16565b9050919050565b606060098054600181600116156101000203166002900480601f0160208091040260200160405190810160405280929190818152602001828054600181600116156101000203166002900480156117f15780601f106117c6576101008083540402835291602001916117f1565b820191906000526020600020905b8154815290600101906020018083116117d457829003601f168201915b5050505050905090565b601260009054906101000a900473ffffffffffffffffffffffffffffffffffffffff1681565b60008073ffffffffffffffffffffffffffffffffffffffff168273ffffffffffffffffffffffffffffffffffffffff1614156118a8576040517f08c379a000000000000000000000000000000000000000000000000000000000815260040180806020018281038252602a815260200180613964602a913960400191505060405180910390fd5b6118ef600160008473ffffffffffffffffffffffffffffffffffffffff1673ffffffffffffffffffffffffffffffffffffffff1681526020019081526020016000206126a5565b9050919050565b600d5481565b600c60009054906101000a900473ffffffffffffffffffffffffffffffffffffffff1681565b606060078054600181600116156101000203166002900480601f0160208091040260200160405190810160405280929190818152602001828054600181600116156101000203166002900480156119ba5780601f1061198f576101008083540402835291602001916119ba565b820191906000526020600020905b81548152906001019060200180831161199d57829003601f168201915b5050505050905090565b6119cc6120f9565b73ffffffffffffffffffffffffffffffffffffffff168273ffffffffffffffffffffffffffffffffffffffff161415611a6d576040517f08c379a00000000000000000000000000000000000000000000000000000000081526004018080602001828103825260198152602001807f4552433732313a20617070726f766520746f2063616c6c65720000000000000081525060200191505060405180910390fd5b8060056000611a7a6120f9565b73ffffffffffffffffffffffffffffffffffffffff1673ffffffffffffffffffffffffffffffffffffffff16815260200190815260200160002060008473ffffffffffffffffffffffffffffffffffffffff1673ffffffffffffffffffffffffffffffffffffffff16815260200190815260200160002060006101000a81548160ff0219169083151502179055508173ffffffffffffffffffffffffffffffffffffffff16611b276120f9565b73ffffffffffffffffffffffffffffffffffffffff167f17307eab39ab6107e8899845ad3d59bd9653f200f220920489ca2b5937696c318360405180821515815260200191505060405180910390a35050565b611b8b611b856120f9565b836121cf565b611be0576040517f08c379a0000000000000000000000000000000000000000000000000000000008152600401808060200182810382526031815260200180613aaa6031913960400191505060405180910390fd5b611bec848484846126ba565b50505050565b601060009054906101000a900473ffffffffffffffffffffffffffffffffffffffff1681565b6060611c23826120dc565b611c78576040517f08c379a000000000000000000000000000000000000000000000000000000000815260040180806020018281038252602f815260200180613a5a602f913960400191505060405180910390fd5b6000600860008481526020019081526020016000208054600181600116156101000203166002900480601f016020809104026020016040519081016040528092919081815260200182805460018160011615610100020316600290048015611d215780601f10611cf657610100808354040283529160200191611d21565b820191906000526020600020905b815481529060010190602001808311611d0457829003601f168201915b50505050509050600060098054600181600116156101000203166002900490501415611d505780915050611efc565b600081511115611e29576009816040516020018083805460018160011615610100020316600290048015611dbb5780601f10611d99576101008083540402835291820191611dbb565b820191906000526020600020905b815481529060010190602001808311611da7575b505082805190602001908083835b60208310611dec5780518252602082019150602081019050602083039250611dc9565b6001836020036101000a03801982511681845116808217855250505050505090500192505050604051602081830303815290604052915050611efc565b6009611e348461272c565b6040516020018083805460018160011615610100020316600290048015611e925780601f10611e70576101008083540402835291820191611e92565b820191906000526020600020905b815481529060010190602001808311611e7e575b505082805190602001908083835b60208310611ec35780518252602082019150602081019050602083039250611ea0565b6001836020036101000a038019825116818451168082178552505050505050905001925050506040516020818303038152906040529150505b919050565b60003373ffffffffffffffffffffffffffffffffffffffff16600f60009054906101000a900473ffffffffffffffffffffffffffffffffffffffff1673ffffffffffffffffffffffffffffffffffffffff1614611fc6576040517f08c379a000000000000000000000000000000000000000000000000000000000815260040180806020018281038252600e8152602001807f494e56414c4944204d494e54455200000000000000000000000000000000000081525060200191505060405180910390fd5b611fd0600b612873565b6000611fdc600b612889565b9050611fe88482612897565b611ff281846128b5565b8091505092915050565b600f60009054906101000a900473ffffffffffffffffffffffffffffffffffffffff1681565b601160009054906101000a900473ffffffffffffffffffffffffffffffffffffffff1681565b6000600560008473ffffffffffffffffffffffffffffffffffffffff1673ffffffffffffffffffffffffffffffffffffffff16815260200190815260200160002060008373ffffffffffffffffffffffffffffffffffffffff1673ffffffffffffffffffffffffffffffffffffffff16815260200190815260200160002060009054906101000a900460ff16905092915050565b60006120f282600261293f90919063ffffffff16565b9050919050565b600033905090565b816004600083815260200190815260200160002060006101000a81548173ffffffffffffffffffffffffffffffffffffffff021916908373ffffffffffffffffffffffffffffffffffffffff160217905550808273ffffffffffffffffffffffffffffffffffffffff1661217483611722565b73ffffffffffffffffffffffffffffffffffffffff167f8c5be1e5ebec7d5bd14f71427d1e84f3dd0314c0f7b2291e5b200ac8c7c3b92560405160405180910390a45050565b60006121c882600001612959565b9050919050565b60006121da826120dc565b61222f576040517f08c379a000000000000000000000000000000000000000000000000000000000815260040180806020018281038252602c815260200180613900602c913960400191505060405180910390fd5b600061223a83611722565b90508073ffffffffffffffffffffffffffffffffffffffff168473ffffffffffffffffffffffffffffffffffffffff1614806122a957508373ffffffffffffffffffffffffffffffffffffffff1661229184610deb565b73ffffffffffffffffffffffffffffffffffffffff16145b806122ba57506122b98185612048565b5b91505092915050565b8273ffffffffffffffffffffffffffffffffffffffff166122e382611722565b73ffffffffffffffffffffffffffffffffffffffff161461234f576040517f08c379a0000000000000000000000000000000000000000000000000000000008152600401808060200182810382526029815260200180613a316029913960400191505060405180910390fd5b600073ffffffffffffffffffffffffffffffffffffffff168273ffffffffffffffffffffffffffffffffffffffff1614156123d5576040517f08c379a00000000000000000000000000000000000000000000000000000000081526004018080602001828103825260248152602001806138b66024913960400191505060405180910390fd5b6123e083838361296a565b6123eb600082612101565b61243c81600160008673ffffffffffffffffffffffffffffffffffffffff1673ffffffffffffffffffffffffffffffffffffffff16815260200190815260200160002061297a90919063ffffffff16565b5061248e81600160008573ffffffffffffffffffffffffffffffffffffffff1673ffffffffffffffffffffffffffffffffffffffff16815260200190815260200160002061299490919063ffffffff16565b506124a5818360026129ae9092919063ffffffff16565b50808273ffffffffffffffffffffffffffffffffffffffff168473ffffffffffffffffffffffffffffffffffffffff167fddf252ad1be2c89b69c2b068fc378daa952ba7f163c4a11628f55a4df523b3ef60405160405180910390a4505050565b600061251583600001836129e3565b60001c905092915050565b600061252b82611722565b90506125398160008461296a565b612544600083612101565b60006008600084815260200190815260200160002080546001816001161561010002031660029004905014612593576008600083815260200190815260200160002060006125929190613743565b5b6125e482600160008473ffffffffffffffffffffffffffffffffffffffff1673ffffffffffffffffffffffffffffffffffffffff16815260200190815260200160002061297a90919063ffffffff16565b506125f9826002612a6690919063ffffffff16565b5081600073ffffffffffffffffffffffffffffffffffffffff168273ffffffffffffffffffffffffffffffffffffffff167fddf252ad1be2c89b69c2b068fc378daa952ba7f163c4a11628f55a4df523b3ef60405160405180910390a45050565b60008060008061266d8660000186612a80565b915091508160001c8160001c9350935050509250929050565b6000612699846000018460001b84612b19565b60001c90509392505050565b60006126b382600001612c0f565b9050919050565b6126c58484846122c3565b6126d184848484612c20565b612726576040517f08c379a00000000000000000000000000000000000000000000000000000000081526004018080602001828103825260328152602001806138846032913960400191505060405180910390fd5b50505050565b60606000821415612774576040518060400160405280600181526020017f3000000000000000000000000000000000000000000000000000000000000000815250905061286e565b600082905060005b6000821461279e578080600101915050600a828161279657fe5b04915061277c565b60008167ffffffffffffffff811180156127b757600080fd5b506040519080825280601f01601f1916602001820160405280156127ea5781602001600182028036833780820191505090505b50905060006001830390508593505b6000841461286657600a848161280b57fe5b0660300160f81b8282806001900393508151811061282557fe5b60200101907effffffffffffffffffffffffffffffffffffffffffffffffffffffffffffff1916908160001a905350600a848161285e57fe5b0493506127f9565b819450505050505b919050565b6001816000016000828254019250508190555050565b600081600001549050919050565b6128b1828260405180602001604052806000815250612e39565b5050565b6128be826120dc565b612913576040517f08c379a000000000000000000000000000000000000000000000000000000000815260040180806020018281038252602c815260200180613a05602c913960400191505060405180910390fd5b8060086000848152602001908152602001600020908051906020019061293a92919061378b565b505050565b6000612951836000018360001b612eaa565b905092915050565b600081600001805490509050919050565b612975838383612ecd565b505050565b600061298c836000018360001b612f3b565b905092915050565b60006129a6836000018360001b613023565b905092915050565b60006129da846000018460001b8473ffffffffffffffffffffffffffffffffffffffff1660001b613093565b90509392505050565b600081836000018054905011612a44576040517f08c379a00000000000000000000000000000000000000000000000000000000081526004018080602001828103825260228152602001806138376022913960400191505060405180910390fd5b826000018281548110612a5357fe5b9060005260206000200154905092915050565b6000612a78836000018360001b61316f565b905092915050565b60008082846000018054905011612ae2576040517f08c379a00000000000000000000000000000000000000000000000000000000081526004018080602001828103825260228152602001806139b76022913960400191505060405180910390fd5b6000846000018481548110612af357fe5b906000526020600020906002020190508060000154816001015492509250509250929050565b60008084600101600085815260200190815260200160002054905060008114158390612be0576040517f08c379a00000000000000000000000000000000000000000000000000000000081526004018080602001828103825283818151815260200191508051906020019080838360005b83811015612ba5578082015181840152602081019050612b8a565b50505050905090810190601f168015612bd25780820380516001836020036101000a031916815260200191505b509250505060405180910390fd5b50846000016001820381548110612bf357fe5b9060005260206000209060020201600101549150509392505050565b600081600001805490509050919050565b6000612c418473ffffffffffffffffffffffffffffffffffffffff16613288565b612c4e5760019050612e31565b6000612db863150b7a0260e01b612c636120f9565b888787604051602401808573ffffffffffffffffffffffffffffffffffffffff1681526020018473ffffffffffffffffffffffffffffffffffffffff16815260200183815260200180602001828103825283818151815260200191508051906020019080838360005b83811015612ce7578082015181840152602081019050612ccc565b50505050905090810190601f168015612d145780820380516001836020036101000a031916815260200191505b5095505050505050604051602081830303815290604052907bffffffffffffffffffffffffffffffffffffffffffffffffffffffff19166020820180517bffffffffffffffffffffffffffffffffffffffffffffffffffffffff8381831617835250505050604051806060016040528060328152602001613884603291398773ffffffffffffffffffffffffffffffffffffffff1661329b9092919063ffffffff16565b90506000818060200190516020811015612dd157600080fd5b8101908080519060200190929190505050905063150b7a0260e01b7bffffffffffffffffffffffffffffffffffffffffffffffffffffffff1916817bffffffffffffffffffffffffffffffffffffffffffffffffffffffff191614925050505b949350505050565b612e4383836132b3565b612e506000848484612c20565b612ea5576040517f08c379a00000000000000000000000000000000000000000000000000000000081526004018080602001828103825260328152602001806138846032913960400191505060405180910390fd5b505050565b600080836001016000848152602001908152602001600020541415905092915050565b612ed88383836134a7565b612ee061170b565b15612f36576040517f08c379a000000000000000000000000000000000000000000000000000000000815260040180806020018281038252602b815260200180613859602b913960400191505060405180910390fd5b505050565b600080836001016000848152602001908152602001600020549050600081146130175760006001820390506000600186600001805490500390506000866000018281548110612f8657fe5b9060005260206000200154905080876000018481548110612fa357fe5b9060005260206000200181905550600183018760010160008381526020019081526020016000208190555086600001805480612fdb57fe5b6001900381819060005260206000200160009055905586600101600087815260200190815260200160002060009055600194505050505061301d565b60009150505b92915050565b600061302f83836134ac565b61308857826000018290806001815401808255809150506001900390600052602060002001600090919091909150558260000180549050836001016000848152602001908152602001600020819055506001905061308d565b600090505b92915050565b600080846001016000858152602001908152602001600020549050600081141561313a57846000016040518060400160405280868152602001858152509080600181540180825580915050600190039060005260206000209060020201600090919091909150600082015181600001556020820151816001015550508460000180549050856001016000868152602001908152602001600020819055506001915050613168565b8285600001600183038154811061314d57fe5b90600052602060002090600202016001018190555060009150505b9392505050565b6000808360010160008481526020019081526020016000205490506000811461327c57600060018203905060006001866000018054905003905060008660000182815481106131ba57fe5b90600052602060002090600202019050808760000184815481106131da57fe5b906000526020600020906002020160008201548160000155600182015481600101559050506001830187600101600083600001548152602001908152602001600020819055508660000180548061322d57fe5b6001900381819060005260206000209060020201600080820160009055600182016000905550509055866001016000878152602001908152602001600020600090556001945050505050613282565b60009150505b92915050565b600080823b905060008111915050919050565b60606132aa84846000856134cf565b90509392505050565b600073ffffffffffffffffffffffffffffffffffffffff168273ffffffffffffffffffffffffffffffffffffffff161415613356576040517f08c379a00000000000000000000000000000000000000000000000000000000081526004018080602001828103825260208152602001807f4552433732313a206d696e7420746f20746865207a65726f206164647265737381525060200191505060405180910390fd5b61335f816120dc565b156133d2576040517f08c379a000000000000000000000000000000000000000000000000000000000815260040180806020018281038252601c8152602001807f4552433732313a20746f6b656e20616c7265616479206d696e7465640000000081525060200191505060405180910390fd5b6133de6000838361296a565b61342f81600160008573ffffffffffffffffffffffffffffffffffffffff1673ffffffffffffffffffffffffffffffffffffffff16815260200190815260200160002061299490919063ffffffff16565b50613446818360026129ae9092919063ffffffff16565b50808273ffffffffffffffffffffffffffffffffffffffff16600073ffffffffffffffffffffffffffffffffffffffff167fddf252ad1be2c89b69c2b068fc378daa952ba7f163c4a11628f55a4df523b3ef60405160405180910390a45050565b505050565b600080836001016000848152602001908152602001600020541415905092915050565b60608247101561352a576040517f08c379a00000000000000000000000000000000000000000000000000000000081526004018080602001828103825260268152602001806138da6026913960400191505060405180910390fd5b61353385613288565b6135a5576040517f08c379a000000000000000000000000000000000000000000000000000000000815260040180806020018281038252601d8152602001807f416464726573733a2063616c6c20746f206e6f6e2d636f6e747261637400000081525060200191505060405180910390fd5b6000808673ffffffffffffffffffffffffffffffffffffffff1685876040518082805190602001908083835b602083106135f457805182526020820191506020810190506020830392506135d1565b6001836020036101000a03801982511681845116808217855250505050505090500191505060006040518083038185875af1925050503d8060008114613656576040519150601f19603f3d011682016040523d82523d6000602084013e61365b565b606091505b509150915061366b828286613677565b92505050949350505050565b606083156136875782905061373c565b60008351111561369a5782518084602001fd5b816040517f08c379a00000000000000000000000000000000000000000000000000000000081526004018080602001828103825283818151815260200191508051906020019080838360005b838110156137015780820151818401526020810190506136e6565b50505050905090810190601f16801561372e5780820380516001836020036101000a031916815260200191505b509250505060405180910390fd5b9392505050565b50805460018160011615610100020316600290046000825580601f106137695750613788565b601f0160209004906000526020600020908101906137879190613819565b5b50565b828054600181600116156101000203166002900490600052602060002090601f0160209004810192826137c15760008555613808565b82601f106137da57805160ff1916838001178555613808565b82800160010185558215613808579182015b828111156138075782518255916020019190600101906137ec565b5b5090506138159190613819565b5090565b5b8082111561383257600081600090555060010161381a565b509056fe456e756d657261626c655365743a20696e646578206f7574206f6620626f756e64734552433732315061757361626c653a20746f6b656e207472616e73666572207768696c65207061757365644552433732313a207472616e7366657220746f206e6f6e20455243373231526563656976657220696d706c656d656e7465724552433732313a207472616e7366657220746f20746865207a65726f2061646472657373416464726573733a20696e73756666696369656e742062616c616e636520666f722063616c6c4552433732313a206f70657261746f7220717565727920666f72206e6f6e6578697374656e7420746f6b656e4552433732313a20617070726f76652063616c6c6572206973206e6f74206f776e6572206e6f7220617070726f76656420666f7220616c6c4552433732313a2062616c616e636520717565727920666f7220746865207a65726f20616464726573734552433732313a206f776e657220717565727920666f72206e6f6e6578697374656e7420746f6b656e456e756d657261626c654d61703a20696e646578206f7574206f6620626f756e64734552433732313a20617070726f76656420717565727920666f72206e6f6e6578697374656e7420746f6b656e4552433732314d657461646174613a2055524920736574206f66206e6f6e6578697374656e7420746f6b656e4552433732313a207472616e73666572206f6620746f6b656e2074686174206973206e6f74206f776e4552433732314d657461646174613a2055524920717565727920666f72206e6f6e6578697374656e7420746f6b656e4552433732313a20617070726f76616c20746f2063757272656e74206f776e65724552433732313a207472616e736665722063616c6c6572206973206e6f74206f776e6572206e6f7220617070726f766564a26469706673582212204c8ff5f89dac732e1521fc10331191d3294c13ea430ef3fb70390cf0b61ae4bf64736f6c63430007060033",
  "immutableReferences": {},
  "source": "pragma solidity ^0.7.0;\nimport \"@openzeppelin/contracts/token/ERC721/ERC721.sol\";\nimport \"@openzeppelin/contracts/token/ERC721/ERC721Burnable.sol\";\nimport \"@openzeppelin/contracts/token/ERC721/ERC721Pausable.sol\";\nimport \"@openzeppelin/contracts/utils/Counters.sol\";\nimport \"./ERC20Interface.sol\";\ncontract NFTDocumentMinter is ERC721Pausable {\n \n    using Counters for Counters.Counter;\n    Counters.Counter private _tokenIds;\n    address public owner;\n    uint256 public protocolServiceFee;\n    uint256 public mintingServiceFee;\n    address public mintedBy;\n    ERC20Interface public daiToken;\n    address public protocolPaymentAddress;\n    address public minterPaymentAddress;\n\n    // DID: https://blog.ceramic.network/how-to-store-encrypted-secrets-using-idx/\n    // MINTED: Must encrypt using DID, and then upload new document which will be tokenize\n    // NFT Manager locks again to secure \n    // BURN_SWAP: Reads token uri from IPLD, and decrypts with DID\n    // todo:  mapping de flow (REQUEST_MINTING, MINTED, BURN_SWAP)\n    event BurnSwap(\n        address minter,\n        address from,\n        uint id\n    );\n\n    /**\n    * TODO\n     */\n    constructor(\n        address _owner,\n        address _mintedBy,\n        string memory name,\n        string memory symbol,\n        uint serviceFee,\n        uint protocolFee,\n        address paymentAddress,\n        address factoryPaymentAddress,\n        ERC20Interface paymentToken\n    ) public ERC721(name, symbol) {\n        owner = _owner;\n        mintedBy = _mintedBy;\n        daiToken = paymentToken;\n        mintingServiceFee = serviceFee;\n        protocolServiceFee = protocolFee;\n        minterPaymentAddress = paymentAddress;\n        protocolPaymentAddress = factoryPaymentAddress;\n    }\n   \n    function mint(address user, string memory tokenURI)\n        public\n        returns (uint256)\n    {\n        require(mintedBy == msg.sender, \"INVALID MINTER\");\n        _tokenIds.increment();\n\n        uint256 newItemId = _tokenIds.current();\n        _safeMint(user, newItemId);\n        _setTokenURI(newItemId, tokenURI);\n\n        return newItemId;\n    }   \n\n    function burn(uint tokenId)\n        public\n        payable\n        returns (bool)\n    {\n       /// require(msg.value == (mintingServiceFee + protocolServiceFee), \"MUST SEND FEE BEFORE USE\");\n\n        // User must have a balance\n        require(\n            daiToken.balanceOf(msg.sender) >= 0,\n            \"Invalid token balance\"\n        );\n        // User must have an allowance\n        require(\n            daiToken.allowance(msg.sender, address(this)) >= 0,\n            \"Invalid token allowance\"\n        );\n\n        _burn(tokenId);\n\n        // TODO: Update accounting\n\n        // Transfer tokens to NFT owner\n        require(\n            daiToken.transferFrom(\n                msg.sender, \n                minterPaymentAddress, \n                mintingServiceFee),\n            \"Transfer failed for base token\"\n        );\n        // Transfer tokens to pay service fee\n        require(\n            daiToken.transferFrom(\n                msg.sender, \n                protocolPaymentAddress, \n                protocolServiceFee),\n            \"Transfer failed for base token\"\n        );\n        \n        emit BurnSwap(\n            address(this),\n            msg.sender,\n            tokenId\n        );\n\n        return true;\n    }       \n\n      function _beforeTokenTransfer(address from, address to, uint256 amount)\n        internal virtual override\n    {\n        super._beforeTokenTransfer(from, to, amount);\n\n//        require(_validRecipient(to), \"ERC20WithSafeTransfer: invalid recipient\");\n    }\n\n}",
  "sourcePath": "/home/rogelio/Code/xdv/nft-document-swap/contracts/NFTDocumentMinter.sol",
  "compiler": {
    "name": "solc",
    "version": "0.7.6+commit.7338295f.Emscripten.clang"
  },
  "schemaVersion": "3.3.3",
  "updatedAt": "2021-02-03T09:54:46.561Z",
  "devdoc": {
    "kind": "dev",
    "methods": {
      "approve(address,uint256)": {
        "details": "See {IERC721-approve}."
      },
      "balanceOf(address)": {
        "details": "See {IERC721-balanceOf}."
      },
      "baseURI()": {
        "details": "Returns the base URI set via {_setBaseURI}. This will be automatically added as a prefix in {tokenURI} to each token's URI, or to the token ID if no specific URI is set for that token ID."
      },
      "getApproved(uint256)": {
        "details": "See {IERC721-getApproved}."
      },
      "isApprovedForAll(address,address)": {
        "details": "See {IERC721-isApprovedForAll}."
      },
      "name()": {
        "details": "See {IERC721Metadata-name}."
      },
      "ownerOf(uint256)": {
        "details": "See {IERC721-ownerOf}."
      },
      "paused()": {
        "details": "Returns true if the contract is paused, and false otherwise."
      },
      "safeTransferFrom(address,address,uint256)": {
        "details": "See {IERC721-safeTransferFrom}."
      },
      "safeTransferFrom(address,address,uint256,bytes)": {
        "details": "See {IERC721-safeTransferFrom}."
      },
      "setApprovalForAll(address,bool)": {
        "details": "See {IERC721-setApprovalForAll}."
      },
      "supportsInterface(bytes4)": {
        "details": "See {IERC165-supportsInterface}. Time complexity O(1), guaranteed to always use less than 30 000 gas."
      },
      "symbol()": {
        "details": "See {IERC721Metadata-symbol}."
      },
      "tokenByIndex(uint256)": {
        "details": "See {IERC721Enumerable-tokenByIndex}."
      },
      "tokenOfOwnerByIndex(address,uint256)": {
        "details": "See {IERC721Enumerable-tokenOfOwnerByIndex}."
      },
      "tokenURI(uint256)": {
        "details": "See {IERC721Metadata-tokenURI}."
      },
      "totalSupply()": {
        "details": "See {IERC721Enumerable-totalSupply}."
      },
      "transferFrom(address,address,uint256)": {
        "details": "See {IERC721-transferFrom}."
      }
    },
    "version": 1
  },
  "userdoc": {
    "kind": "user",
    "methods": {
      "constructor": {
        "notice": "TODO"
      }
    },
    "version": 1
  }
}