{
  "contractName": "NFTDocumentMinter",
  "abi": [
    {
      "inputs": [
        {
          "internalType": "address",
          "name": "_owner",
          "type": "address"
        },
        {
          "internalType": "address",
          "name": "_mintedBy",
          "type": "address"
        },
        {
          "internalType": "string",
          "name": "name",
          "type": "string"
        },
        {
          "internalType": "string",
          "name": "symbol",
          "type": "string"
        },
        {
          "internalType": "contract ERC20Interface",
          "name": "paymentToken",
          "type": "address"
        }
      ],
      "stateMutability": "nonpayable",
      "type": "constructor"
    },
    {
      "anonymous": false,
      "inputs": [
        {
          "indexed": true,
          "internalType": "address",
          "name": "owner",
          "type": "address"
        },
        {
          "indexed": true,
          "internalType": "address",
          "name": "approved",
          "type": "address"
        },
        {
          "indexed": true,
          "internalType": "uint256",
          "name": "tokenId",
          "type": "uint256"
        }
      ],
      "name": "Approval",
      "type": "event"
    },
    {
      "anonymous": false,
      "inputs": [
        {
          "indexed": true,
          "internalType": "address",
          "name": "owner",
          "type": "address"
        },
        {
          "indexed": true,
          "internalType": "address",
          "name": "operator",
          "type": "address"
        },
        {
          "indexed": false,
          "internalType": "bool",
          "name": "approved",
          "type": "bool"
        }
      ],
      "name": "ApprovalForAll",
      "type": "event"
    },
    {
      "anonymous": false,
      "inputs": [
        {
          "indexed": false,
          "internalType": "address",
          "name": "minter",
          "type": "address"
        },
        {
          "indexed": false,
          "internalType": "address",
          "name": "from",
          "type": "address"
        },
        {
          "indexed": false,
          "internalType": "uint256",
          "name": "id",
          "type": "uint256"
        }
      ],
      "name": "BurnSwap",
      "type": "event"
    },
    {
      "anonymous": false,
      "inputs": [
        {
          "indexed": true,
          "internalType": "address",
          "name": "minter",
          "type": "address"
        },
        {
          "indexed": true,
          "internalType": "uint256",
          "name": "id",
          "type": "uint256"
        },
        {
          "indexed": false,
          "internalType": "string",
          "name": "name",
          "type": "string"
        },
        {
          "indexed": true,
          "internalType": "string",
          "name": "symbol",
          "type": "string"
        }
      ],
      "name": "MinterRegistered",
      "type": "event"
    },
    {
      "anonymous": false,
      "inputs": [
        {
          "indexed": false,
          "internalType": "address",
          "name": "account",
          "type": "address"
        }
      ],
      "name": "Paused",
      "type": "event"
    },
    {
      "anonymous": false,
      "inputs": [
        {
          "indexed": true,
          "internalType": "address",
          "name": "from",
          "type": "address"
        },
        {
          "indexed": true,
          "internalType": "address",
          "name": "to",
          "type": "address"
        },
        {
          "indexed": true,
          "internalType": "uint256",
          "name": "tokenId",
          "type": "uint256"
        }
      ],
      "name": "Transfer",
      "type": "event"
    },
    {
      "anonymous": false,
      "inputs": [
        {
          "indexed": false,
          "internalType": "address",
          "name": "account",
          "type": "address"
        }
      ],
      "name": "Unpaused",
      "type": "event"
    },
    {
      "inputs": [
        {
          "internalType": "address",
          "name": "minter",
          "type": "address"
        },
        {
          "internalType": "string",
          "name": "name",
          "type": "string"
        },
        {
          "internalType": "string",
          "name": "symbol",
          "type": "string"
        },
        {
          "internalType": "address",
          "name": "paymentAddress",
          "type": "address"
        },
        {
          "internalType": "bool",
          "name": "hasUserKyc",
          "type": "bool"
        },
        {
          "internalType": "uint256",
          "name": "feeStructure",
          "type": "uint256"
        },
        {
          "internalType": "uint256",
          "name": "serviceFee",
          "type": "uint256"
        },
        {
          "internalType": "address",
          "name": "factoryAddress",
          "type": "address"
        }
      ],
      "name": "addToRegistry",
      "outputs": [
        {
          "internalType": "uint256",
          "name": "",
          "type": "uint256"
        }
      ],
      "stateMutability": "nonpayable",
      "type": "function"
    },
    {
      "inputs": [
        {
          "internalType": "address",
          "name": "to",
          "type": "address"
        },
        {
          "internalType": "uint256",
          "name": "tokenId",
          "type": "uint256"
        }
      ],
      "name": "approve",
      "outputs": [],
      "stateMutability": "nonpayable",
      "type": "function"
    },
    {
      "inputs": [
        {
          "internalType": "address",
          "name": "owner",
          "type": "address"
        }
      ],
      "name": "balanceOf",
      "outputs": [
        {
          "internalType": "uint256",
          "name": "",
          "type": "uint256"
        }
      ],
      "stateMutability": "view",
      "type": "function"
    },
    {
      "inputs": [],
      "name": "baseURI",
      "outputs": [
        {
          "internalType": "string",
          "name": "",
          "type": "string"
        }
      ],
      "stateMutability": "view",
      "type": "function"
    },
    {
      "inputs": [],
      "name": "daiToken",
      "outputs": [
        {
          "internalType": "contract ERC20Interface",
          "name": "",
          "type": "address"
        }
      ],
      "stateMutability": "view",
      "type": "function"
    },
    {
      "inputs": [
        {
          "internalType": "uint256",
          "name": "",
          "type": "uint256"
        }
      ],
      "name": "dataProviderMinters",
      "outputs": [
        {
          "internalType": "address",
          "name": "minterAddress",
          "type": "address"
        },
        {
          "internalType": "string",
          "name": "name",
          "type": "string"
        },
        {
          "internalType": "string",
          "name": "symbol",
          "type": "string"
        },
        {
          "internalType": "address",
          "name": "paymentAddress",
          "type": "address"
        },
        {
          "internalType": "bool",
          "name": "hasUserKyc",
          "type": "bool"
        },
        {
          "internalType": "uint256",
          "name": "feeStructure",
          "type": "uint256"
        },
        {
          "internalType": "uint256",
          "name": "created",
          "type": "uint256"
        },
        {
          "internalType": "uint256",
          "name": "serviceFee",
          "type": "uint256"
        },
        {
          "internalType": "address",
          "name": "factoryAddress",
          "type": "address"
        },
        {
          "internalType": "bool",
          "name": "enabled",
          "type": "bool"
        }
      ],
      "stateMutability": "view",
      "type": "function"
    },
    {
      "inputs": [
        {
          "internalType": "uint256",
          "name": "tokenId",
          "type": "uint256"
        }
      ],
      "name": "getApproved",
      "outputs": [
        {
          "internalType": "address",
          "name": "",
          "type": "address"
        }
      ],
      "stateMutability": "view",
      "type": "function"
    },
    {
      "inputs": [
        {
          "internalType": "address",
          "name": "owner",
          "type": "address"
        },
        {
          "internalType": "address",
          "name": "operator",
          "type": "address"
        }
      ],
      "name": "isApprovedForAll",
      "outputs": [
        {
          "internalType": "bool",
          "name": "",
          "type": "bool"
        }
      ],
      "stateMutability": "view",
      "type": "function"
    },
    {
      "inputs": [],
      "name": "mintedBy",
      "outputs": [
        {
          "internalType": "address",
          "name": "",
          "type": "address"
        }
      ],
      "stateMutability": "view",
      "type": "function"
    },
    {
      "inputs": [
        {
          "internalType": "address",
          "name": "",
          "type": "address"
        }
      ],
      "name": "minterCounter",
      "outputs": [
        {
          "internalType": "uint256",
          "name": "",
          "type": "uint256"
        }
      ],
      "stateMutability": "view",
      "type": "function"
    },
    {
      "inputs": [
        {
          "internalType": "address",
          "name": "",
          "type": "address"
        }
      ],
      "name": "minterDocumentRequestCounter",
      "outputs": [
        {
          "internalType": "uint256",
          "name": "",
          "type": "uint256"
        }
      ],
      "stateMutability": "view",
      "type": "function"
    },
    {
      "inputs": [
        {
          "internalType": "uint256",
          "name": "",
          "type": "uint256"
        }
      ],
      "name": "minterDocumentRequests",
      "outputs": [
        {
          "internalType": "address",
          "name": "user",
          "type": "address"
        },
        {
          "internalType": "string",
          "name": "userDid",
          "type": "string"
        },
        {
          "internalType": "address",
          "name": "toMinter",
          "type": "address"
        },
        {
          "internalType": "string",
          "name": "toMinterDid",
          "type": "string"
        },
        {
          "internalType": "string",
          "name": "documentURI",
          "type": "string"
        },
        {
          "internalType": "uint256",
          "name": "status",
          "type": "uint256"
        },
        {
          "internalType": "string",
          "name": "description",
          "type": "string"
        }
      ],
      "stateMutability": "view",
      "type": "function"
    },
    {
      "inputs": [],
      "name": "minterPaymentAddress",
      "outputs": [
        {
          "internalType": "address",
          "name": "",
          "type": "address"
        }
      ],
      "stateMutability": "view",
      "type": "function"
    },
    {
      "inputs": [],
      "name": "mintingServiceFee",
      "outputs": [
        {
          "internalType": "uint256",
          "name": "",
          "type": "uint256"
        }
      ],
      "stateMutability": "view",
      "type": "function"
    },
    {
      "inputs": [],
      "name": "name",
      "outputs": [
        {
          "internalType": "string",
          "name": "",
          "type": "string"
        }
      ],
      "stateMutability": "view",
      "type": "function"
    },
    {
      "inputs": [],
      "name": "owner",
      "outputs": [
        {
          "internalType": "address",
          "name": "",
          "type": "address"
        }
      ],
      "stateMutability": "view",
      "type": "function"
    },
    {
      "inputs": [
        {
          "internalType": "uint256",
          "name": "tokenId",
          "type": "uint256"
        }
      ],
      "name": "ownerOf",
      "outputs": [
        {
          "internalType": "address",
          "name": "",
          "type": "address"
        }
      ],
      "stateMutability": "view",
      "type": "function"
    },
    {
      "inputs": [],
      "name": "paused",
      "outputs": [
        {
          "internalType": "bool",
          "name": "",
          "type": "bool"
        }
      ],
      "stateMutability": "view",
      "type": "function"
    },
    {
      "inputs": [],
      "name": "protocolPaymentAddress",
      "outputs": [
        {
          "internalType": "address",
          "name": "",
          "type": "address"
        }
      ],
      "stateMutability": "view",
      "type": "function"
    },
    {
      "inputs": [],
      "name": "protocolServiceFee",
      "outputs": [
        {
          "internalType": "uint256",
          "name": "",
          "type": "uint256"
        }
      ],
      "stateMutability": "view",
      "type": "function"
    },
    {
      "inputs": [
        {
          "internalType": "address",
          "name": "from",
          "type": "address"
        },
        {
          "internalType": "address",
          "name": "to",
          "type": "address"
        },
        {
          "internalType": "uint256",
          "name": "tokenId",
          "type": "uint256"
        }
      ],
      "name": "safeTransferFrom",
      "outputs": [],
      "stateMutability": "nonpayable",
      "type": "function"
    },
    {
      "inputs": [
        {
          "internalType": "address",
          "name": "from",
          "type": "address"
        },
        {
          "internalType": "address",
          "name": "to",
          "type": "address"
        },
        {
          "internalType": "uint256",
          "name": "tokenId",
          "type": "uint256"
        },
        {
          "internalType": "bytes",
          "name": "_data",
          "type": "bytes"
        }
      ],
      "name": "safeTransferFrom",
      "outputs": [],
      "stateMutability": "nonpayable",
      "type": "function"
    },
    {
      "inputs": [
        {
          "internalType": "address",
          "name": "operator",
          "type": "address"
        },
        {
          "internalType": "bool",
          "name": "approved",
          "type": "bool"
        }
      ],
      "name": "setApprovalForAll",
      "outputs": [],
      "stateMutability": "nonpayable",
      "type": "function"
    },
    {
      "inputs": [
        {
          "internalType": "bytes4",
          "name": "interfaceId",
          "type": "bytes4"
        }
      ],
      "name": "supportsInterface",
      "outputs": [
        {
          "internalType": "bool",
          "name": "",
          "type": "bool"
        }
      ],
      "stateMutability": "view",
      "type": "function"
    },
    {
      "inputs": [],
      "name": "symbol",
      "outputs": [
        {
          "internalType": "string",
          "name": "",
          "type": "string"
        }
      ],
      "stateMutability": "view",
      "type": "function"
    },
    {
      "inputs": [
        {
          "internalType": "uint256",
          "name": "index",
          "type": "uint256"
        }
      ],
      "name": "tokenByIndex",
      "outputs": [
        {
          "internalType": "uint256",
          "name": "",
          "type": "uint256"
        }
      ],
      "stateMutability": "view",
      "type": "function"
    },
    {
      "inputs": [
        {
          "internalType": "address",
          "name": "owner",
          "type": "address"
        },
        {
          "internalType": "uint256",
          "name": "index",
          "type": "uint256"
        }
      ],
      "name": "tokenOfOwnerByIndex",
      "outputs": [
        {
          "internalType": "uint256",
          "name": "",
          "type": "uint256"
        }
      ],
      "stateMutability": "view",
      "type": "function"
    },
    {
      "inputs": [
        {
          "internalType": "uint256",
          "name": "tokenId",
          "type": "uint256"
        }
      ],
      "name": "tokenURI",
      "outputs": [
        {
          "internalType": "string",
          "name": "",
          "type": "string"
        }
      ],
      "stateMutability": "view",
      "type": "function"
    },
    {
      "inputs": [],
      "name": "totalSupply",
      "outputs": [
        {
          "internalType": "uint256",
          "name": "",
          "type": "uint256"
        }
      ],
      "stateMutability": "view",
      "type": "function"
    },
    {
      "inputs": [
        {
          "internalType": "address",
          "name": "from",
          "type": "address"
        },
        {
          "internalType": "address",
          "name": "to",
          "type": "address"
        },
        {
          "internalType": "uint256",
          "name": "tokenId",
          "type": "uint256"
        }
      ],
      "name": "transferFrom",
      "outputs": [],
      "stateMutability": "nonpayable",
      "type": "function"
    },
    {
      "inputs": [
        {
          "internalType": "address",
          "name": "user",
          "type": "address"
        },
        {
          "internalType": "string",
          "name": "tokenURI",
          "type": "string"
        }
      ],
      "name": "mint",
      "outputs": [
        {
          "internalType": "uint256",
          "name": "",
          "type": "uint256"
        }
      ],
      "stateMutability": "nonpayable",
      "type": "function"
    },
    {
      "inputs": [
        {
          "internalType": "uint256",
          "name": "tokenId",
          "type": "uint256"
        }
      ],
      "name": "burn",
      "outputs": [
        {
          "internalType": "bool",
          "name": "",
          "type": "bool"
        }
      ],
      "stateMutability": "payable",
      "type": "function"
    }
  ],
  "bytecode": "0x60806040523480156200001157600080fd5b506040516200538f3803806200538f833981810160405260a08110156200003757600080fd5b810190808051906020019092919080519060200190929190805160405193929190846401000000008211156200006c57600080fd5b838201915060208201858111156200008357600080fd5b8251866001820283011164010000000082111715620000a157600080fd5b8083526020830192505050908051906020019080838360005b83811015620000d7578082015181840152602081019050620000ba565b50505050905090810190601f168015620001055780820380516001836020036101000a031916815260200191505b50604052602001805160405193929190846401000000008211156200012957600080fd5b838201915060208201858111156200014057600080fd5b82518660018202830111640100000000821117156200015e57600080fd5b8083526020830192505050908051906020019080838360005b838110156200019457808201518184015260208101905062000177565b50505050905090810190601f168015620001c25780820380516001836020036101000a031916815260200191505b50604052602001805190602001909291905050508282620001f06301ffc9a760e01b6200035560201b60201c565b8160069080519060200190620002089291906200045e565b508060079080519060200190620002219291906200045e565b506200023a6380ac58cd60e01b6200035560201b60201c565b62000252635b5e139f60e01b6200035560201b60201c565b6200026a63780e9d6360e01b6200035560201b60201c565b50506000600a60006101000a81548160ff02191690831515021790555084601060006101000a81548173ffffffffffffffffffffffffffffffffffffffff021916908373ffffffffffffffffffffffffffffffffffffffff16021790555083601360006101000a81548173ffffffffffffffffffffffffffffffffffffffff021916908373ffffffffffffffffffffffffffffffffffffffff16021790555080601460006101000a81548173ffffffffffffffffffffffffffffffffffffffff021916908373ffffffffffffffffffffffffffffffffffffffff160217905550505050505062000514565b63ffffffff60e01b817bffffffffffffffffffffffffffffffffffffffffffffffffffffffff19161415620003f2576040517f08c379a000000000000000000000000000000000000000000000000000000000815260040180806020018281038252601c8152602001807f4552433136353a20696e76616c696420696e746572666163652069640000000081525060200191505060405180910390fd5b6001600080837bffffffffffffffffffffffffffffffffffffffffffffffffffffffff19167bffffffffffffffffffffffffffffffffffffffffffffffffffffffff1916815260200190815260200160002060006101000a81548160ff02191690831515021790555050565b828054600181600116156101000203166002900490600052602060002090601f016020900481019282620004965760008555620004e2565b82601f10620004b157805160ff1916838001178555620004e2565b82800160010185558215620004e2579182015b82811115620004e1578251825591602001919060010190620004c4565b5b509050620004f19190620004f5565b5090565b5b8082111562000510576000816000905550600101620004f6565b5090565b614e6b80620005246000396000f3fe6080604052600436106101e35760003560e01c80636e3e2fa611610102578063a22cb46511610095578063d0def52111610064578063d0def521146111b3578063deb6ce31146112af578063e4691931146112f0578063e985e9c514611331576101e3565b8063a22cb46514610f4f578063b88d4fde14610fac578063be22f546146110be578063c87b56dd146110ff576101e3565b80638da5cb5b116100d15780638da5cb5b14610aec57806395d89b4114610b2d578063967426ff14610bbd5780639aa94ba514610d5b576101e3565b80636e3e2fa6146109b657806370a08231146109f75780637285e3b914610a5c578063761901bb14610a87576101e3565b80632aa222c81161017a5780634f6ccce7116101495780634f6ccce7146108455780635c975abb146108945780636352211e146108c15780636c0360eb14610926576101e3565b80632aa222c8146106b25780632f745c591461071757806342842e0e1461078657806342966c6814610801576101e3565b8063095ea7b3116101b6578063095ea7b31461037857806318030e7d146103d357806318160ddd1461060c57806323b872dd14610637576101e3565b806301609fd3146101e857806301ffc9a71461021357806306fdde0314610283578063081812fc14610313575b600080fd5b3480156101f457600080fd5b506101fd6113b8565b6040518082815260200191505060405180910390f35b34801561021f57600080fd5b5061026b6004803603602081101561023657600080fd5b8101908080357bffffffffffffffffffffffffffffffffffffffffffffffffffffffff191690602001909291905050506113be565b60405180821515815260200191505060405180910390f35b34801561028f57600080fd5b50610298611425565b6040518080602001828103825283818151815260200191508051906020019080838360005b838110156102d85780820151818401526020810190506102bd565b50505050905090810190601f1680156103055780820380516001836020036101000a031916815260200191505b509250505060405180910390f35b34801561031f57600080fd5b5061034c6004803603602081101561033657600080fd5b81019080803590602001909291905050506114c7565b604051808273ffffffffffffffffffffffffffffffffffffffff16815260200191505060405180910390f35b34801561038457600080fd5b506103d16004803603604081101561039b57600080fd5b81019080803573ffffffffffffffffffffffffffffffffffffffff16906020019092919080359060200190929190505050611562565b005b3480156103df57600080fd5b5061040c600480360360208110156103f657600080fd5b81019080803590602001909291905050506116a6565b604051808873ffffffffffffffffffffffffffffffffffffffff168152602001806020018773ffffffffffffffffffffffffffffffffffffffff16815260200180602001806020018681526020018060200185810385528b818151815260200191508051906020019080838360005b8381101561049657808201518184015260208101905061047b565b50505050905090810190601f1680156104c35780820380516001836020036101000a031916815260200191505b50858103845289818151815260200191508051906020019080838360005b838110156104fc5780820151818401526020810190506104e1565b50505050905090810190601f1680156105295780820380516001836020036101000a031916815260200191505b50858103835288818151815260200191508051906020019080838360005b83811015610562578082015181840152602081019050610547565b50505050905090810190601f16801561058f5780820380516001836020036101000a031916815260200191505b50858103825286818151815260200191508051906020019080838360005b838110156105c85780820151818401526020810190506105ad565b50505050905090810190601f1680156105f55780820380516001836020036101000a031916815260200191505b509b50505050505050505050505060405180910390f35b34801561061857600080fd5b50610621611988565b6040518082815260200191505060405180910390f35b34801561064357600080fd5b506106b06004803603606081101561065a57600080fd5b81019080803573ffffffffffffffffffffffffffffffffffffffff169060200190929190803573ffffffffffffffffffffffffffffffffffffffff16906020019092919080359060200190929190505050611999565b005b3480156106be57600080fd5b50610701600480360360208110156106d557600080fd5b81019080803573ffffffffffffffffffffffffffffffffffffffff169060200190929190505050611a0f565b6040518082815260200191505060405180910390f35b34801561072357600080fd5b506107706004803603604081101561073a57600080fd5b81019080803573ffffffffffffffffffffffffffffffffffffffff16906020019092919080359060200190929190505050611a27565b6040518082815260200191505060405180910390f35b34801561079257600080fd5b506107ff600480360360608110156107a957600080fd5b81019080803573ffffffffffffffffffffffffffffffffffffffff169060200190929190803573ffffffffffffffffffffffffffffffffffffffff16906020019092919080359060200190929190505050611a82565b005b61082d6004803603602081101561081757600080fd5b8101908080359060200190929190505050611aa2565b60405180821515815260200191505060405180910390f35b34801561085157600080fd5b5061087e6004803603602081101561086857600080fd5b81019080803590602001909291905050506123f5565b6040518082815260200191505060405180910390f35b3480156108a057600080fd5b506108a9612418565b60405180821515815260200191505060405180910390f35b3480156108cd57600080fd5b506108fa600480360360208110156108e457600080fd5b810190808035906020019092919050505061242f565b604051808273ffffffffffffffffffffffffffffffffffffffff16815260200191505060405180910390f35b34801561093257600080fd5b5061093b612466565b6040518080602001828103825283818151815260200191508051906020019080838360005b8381101561097b578082015181840152602081019050610960565b50505050905090810190601f1680156109a85780820380516001836020036101000a031916815260200191505b509250505060405180910390f35b3480156109c257600080fd5b506109cb612508565b604051808273ffffffffffffffffffffffffffffffffffffffff16815260200191505060405180910390f35b348015610a0357600080fd5b50610a4660048036036020811015610a1a57600080fd5b81019080803573ffffffffffffffffffffffffffffffffffffffff16906020019092919050505061252e565b6040518082815260200191505060405180910390f35b348015610a6857600080fd5b50610a71612603565b6040518082815260200191505060405180910390f35b348015610a9357600080fd5b50610ad660048036036020811015610aaa57600080fd5b81019080803573ffffffffffffffffffffffffffffffffffffffff169060200190929190505050612609565b6040518082815260200191505060405180910390f35b348015610af857600080fd5b50610b01612621565b604051808273ffffffffffffffffffffffffffffffffffffffff16815260200191505060405180910390f35b348015610b3957600080fd5b50610b42612647565b6040518080602001828103825283818151815260200191508051906020019080838360005b83811015610b82578082015181840152602081019050610b67565b50505050905090810190601f168015610baf5780820380516001836020036101000a031916815260200191505b509250505060405180910390f35b348015610bc957600080fd5b50610bf660048036036020811015610be057600080fd5b81019080803590602001909291905050506126e9565b604051808b73ffffffffffffffffffffffffffffffffffffffff16815260200180602001806020018a73ffffffffffffffffffffffffffffffffffffffff16815260200189151581526020018881526020018781526020018681526020018573ffffffffffffffffffffffffffffffffffffffff168152602001841515815260200183810383528c818151815260200191508051906020019080838360005b83811015610cb0578082015181840152602081019050610c95565b50505050905090810190601f168015610cdd5780820380516001836020036101000a031916815260200191505b5083810382528b818151815260200191508051906020019080838360005b83811015610d16578082015181840152602081019050610cfb565b50505050905090810190601f168015610d435780820380516001836020036101000a031916815260200191505b509c5050505050505050505050505060405180910390f35b348015610d6757600080fd5b50610f396004803603610100811015610d7f57600080fd5b81019080803573ffffffffffffffffffffffffffffffffffffffff16906020019092919080359060200190640100000000811115610dbc57600080fd5b820183602082011115610dce57600080fd5b80359060200191846001830284011164010000000083111715610df057600080fd5b91908080601f016020809104026020016040519081016040528093929190818152602001838380828437600081840152601f19601f82011690508083019250505050505050919291929080359060200190640100000000811115610e5357600080fd5b820183602082011115610e6557600080fd5b80359060200191846001830284011164010000000083111715610e8757600080fd5b91908080601f016020809104026020016040519081016040528093929190818152602001838380828437600081840152601f19601f820116905080830192505050505050509192919290803573ffffffffffffffffffffffffffffffffffffffff1690602001909291908035151590602001909291908035906020019092919080359060200190929190803573ffffffffffffffffffffffffffffffffffffffff1690602001909291905050506128e7565b6040518082815260200191505060405180910390f35b348015610f5b57600080fd5b50610faa60048036036040811015610f7257600080fd5b81019080803573ffffffffffffffffffffffffffffffffffffffff169060200190929190803515159060200190929190505050612cb3565b005b348015610fb857600080fd5b506110bc60048036036080811015610fcf57600080fd5b81019080803573ffffffffffffffffffffffffffffffffffffffff169060200190929190803573ffffffffffffffffffffffffffffffffffffffff169060200190929190803590602001909291908035906020019064010000000081111561103657600080fd5b82018360208201111561104857600080fd5b8035906020019184600183028401116401000000008311171561106a57600080fd5b91908080601f016020809104026020016040519081016040528093929190818152602001838380828437600081840152601f19601f820116905080830192505050505050509192919290505050612e69565b005b3480156110ca57600080fd5b506110d3612ee1565b604051808273ffffffffffffffffffffffffffffffffffffffff16815260200191505060405180910390f35b34801561110b57600080fd5b506111386004803603602081101561112257600080fd5b8101908080359060200190929190505050612f07565b6040518080602001828103825283818151815260200191508051906020019080838360005b8381101561117857808201518184015260208101905061115d565b50505050905090810190601f1680156111a55780820380516001836020036101000a031916815260200191505b509250505060405180910390f35b3480156111bf57600080fd5b50611299600480360360408110156111d657600080fd5b81019080803573ffffffffffffffffffffffffffffffffffffffff1690602001909291908035906020019064010000000081111561121357600080fd5b82018360208201111561122557600080fd5b8035906020019184600183028401116401000000008311171561124757600080fd5b91908080601f016020809104026020016040519081016040528093929190818152602001838380828437600081840152601f19601f8201169050808301925050505050505091929192905050506131f0565b6040518082815260200191505060405180910390f35b3480156112bb57600080fd5b506112c4613357565b604051808273ffffffffffffffffffffffffffffffffffffffff16815260200191505060405180910390f35b3480156112fc57600080fd5b5061130561337d565b604051808273ffffffffffffffffffffffffffffffffffffffff16815260200191505060405180910390f35b34801561133d57600080fd5b506113a06004803603604081101561135457600080fd5b81019080803573ffffffffffffffffffffffffffffffffffffffff169060200190929190803573ffffffffffffffffffffffffffffffffffffffff1690602001909291905050506133a3565b60405180821515815260200191505060405180910390f35b60125481565b6000806000837bffffffffffffffffffffffffffffffffffffffffffffffffffffffff19167bffffffffffffffffffffffffffffffffffffffffffffffffffffffff1916815260200190815260200160002060009054906101000a900460ff169050919050565b606060068054600181600116156101000203166002900480601f0160208091040260200160405190810160405280929190818152602001828054600181600116156101000203166002900480156114bd5780601f10611492576101008083540402835291602001916114bd565b820191906000526020600020905b8154815290600101906020018083116114a057829003601f168201915b5050505050905090565b60006114d282613437565b611527576040517f08c379a000000000000000000000000000000000000000000000000000000000815260040180806020018281038252602c815260200180614d34602c913960400191505060405180910390fd5b6004600083815260200190815260200160002060009054906101000a900473ffffffffffffffffffffffffffffffffffffffff169050919050565b600061156d8261242f565b90508073ffffffffffffffffffffffffffffffffffffffff168373ffffffffffffffffffffffffffffffffffffffff1614156115f4576040517f08c379a0000000000000000000000000000000000000000000000000000000008152600401808060200182810382526021815260200180614de46021913960400191505060405180910390fd5b8073ffffffffffffffffffffffffffffffffffffffff16611613613454565b73ffffffffffffffffffffffffffffffffffffffff16148061164257506116418161163c613454565b6133a3565b5b611697576040517f08c379a0000000000000000000000000000000000000000000000000000000008152600401808060200182810382526038815260200180614c876038913960400191505060405180910390fd5b6116a1838361345c565b505050565b600e6020528060005260406000206000915090508060000160009054906101000a900473ffffffffffffffffffffffffffffffffffffffff1690806001018054600181600116156101000203166002900480601f0160208091040260200160405190810160405280929190818152602001828054600181600116156101000203166002900480156117785780601f1061174d57610100808354040283529160200191611778565b820191906000526020600020905b81548152906001019060200180831161175b57829003601f168201915b5050505050908060020160009054906101000a900473ffffffffffffffffffffffffffffffffffffffff1690806003018054600181600116156101000203166002900480601f01602080910402602001604051908101604052809291908181526020018280546001816001161561010002031660029004801561183c5780601f106118115761010080835404028352916020019161183c565b820191906000526020600020905b81548152906001019060200180831161181f57829003601f168201915b505050505090806004018054600181600116156101000203166002900480601f0160208091040260200160405190810160405280929190818152602001828054600181600116156101000203166002900480156118da5780601f106118af576101008083540402835291602001916118da565b820191906000526020600020905b8154815290600101906020018083116118bd57829003601f168201915b505050505090806005015490806006018054600181600116156101000203166002900480601f01602080910402602001604051908101604052809291908181526020018280546001816001161561010002031660029004801561197e5780601f106119535761010080835404028352916020019161197e565b820191906000526020600020905b81548152906001019060200180831161196157829003601f168201915b5050505050905087565b60006119946002613515565b905090565b6119aa6119a4613454565b8261352a565b6119ff576040517f08c379a0000000000000000000000000000000000000000000000000000000008152600401808060200182810382526031815260200180614e056031913960400191505060405180910390fd5b611a0a83838361361e565b505050565b600d6020528060005260406000206000915090505481565b6000611a7a82600160008673ffffffffffffffffffffffffffffffffffffffff1673ffffffffffffffffffffffffffffffffffffffff16815260200190815260200160002061386190919063ffffffff16565b905092915050565b611a9d83838360405180602001604052806000815250612e69565b505050565b600080601460009054906101000a900473ffffffffffffffffffffffffffffffffffffffff1673ffffffffffffffffffffffffffffffffffffffff166370a08231336040518263ffffffff1660e01b8152600401808273ffffffffffffffffffffffffffffffffffffffff16815260200191505060206040518083038186803b158015611b2e57600080fd5b505afa158015611b42573d6000803e3d6000fd5b505050506040513d6020811015611b5857600080fd5b81019080805190602001909291905050501015611bdd576040517f08c379a00000000000000000000000000000000000000000000000000000000081526004018080602001828103825260158152602001807f496e76616c696420746f6b656e2062616c616e6365000000000000000000000081525060200191505060405180910390fd5b6000601460009054906101000a900473ffffffffffffffffffffffffffffffffffffffff1673ffffffffffffffffffffffffffffffffffffffff1663dd62ed3e33306040518363ffffffff1660e01b8152600401808373ffffffffffffffffffffffffffffffffffffffff1681526020018273ffffffffffffffffffffffffffffffffffffffff1681526020019250505060206040518083038186803b158015611c8657600080fd5b505afa158015611c9a573d6000803e3d6000fd5b505050506040513d6020811015611cb057600080fd5b81019080805190602001909291905050501015611d35576040517f08c379a00000000000000000000000000000000000000000000000000000000081526004018080602001828103825260178152602001807f496e76616c696420746f6b656e20616c6c6f77616e636500000000000000000081525060200191505060405180910390fd5b6000600b60003073ffffffffffffffffffffffffffffffffffffffff1673ffffffffffffffffffffffffffffffffffffffff1681526020019081526020016000205490506000600c6000838152602001908152602001600020604051806101400160405290816000820160009054906101000a900473ffffffffffffffffffffffffffffffffffffffff1673ffffffffffffffffffffffffffffffffffffffff1673ffffffffffffffffffffffffffffffffffffffff168152602001600182018054600181600116156101000203166002900480601f016020809104026020016040519081016040528092919081815260200182805460018160011615610100020316600290048015611e895780601f10611e5e57610100808354040283529160200191611e89565b820191906000526020600020905b815481529060010190602001808311611e6c57829003601f168201915b50505050508152602001600282018054600181600116156101000203166002900480601f016020809104026020016040519081016040528092919081815260200182805460018160011615610100020316600290048015611f2b5780601f10611f0057610100808354040283529160200191611f2b565b820191906000526020600020905b815481529060010190602001808311611f0e57829003601f168201915b505050505081526020016003820160009054906101000a900473ffffffffffffffffffffffffffffffffffffffff1673ffffffffffffffffffffffffffffffffffffffff1673ffffffffffffffffffffffffffffffffffffffff1681526020016003820160149054906101000a900460ff161515151581526020016004820154815260200160058201548152602001600682015481526020016007820160009054906101000a900473ffffffffffffffffffffffffffffffffffffffff1673ffffffffffffffffffffffffffffffffffffffff1673ffffffffffffffffffffffffffffffffffffffff1681526020016007820160149054906101000a900460ff161515151581525050905061203f8461387b565b601460009054906101000a900473ffffffffffffffffffffffffffffffffffffffff1673ffffffffffffffffffffffffffffffffffffffff166323b872dd3383606001518460a001516040518463ffffffff1660e01b8152600401808473ffffffffffffffffffffffffffffffffffffffff1681526020018373ffffffffffffffffffffffffffffffffffffffff1681526020018281526020019350505050602060405180830381600087803b1580156120f857600080fd5b505af115801561210c573d6000803e3d6000fd5b505050506040513d602081101561212257600080fd5b81019080805190602001909291905050506121a5576040517f08c379a000000000000000000000000000000000000000000000000000000000815260040180806020018281038252601e8152602001807f5472616e73666572206661696c656420666f72206261736520746f6b656e000081525060200191505060405180910390fd5b601460009054906101000a900473ffffffffffffffffffffffffffffffffffffffff1673ffffffffffffffffffffffffffffffffffffffff166323b872dd338361010001518460e001516040518463ffffffff1660e01b8152600401808473ffffffffffffffffffffffffffffffffffffffff1681526020018373ffffffffffffffffffffffffffffffffffffffff1681526020018281526020019350505050602060405180830381600087803b15801561225f57600080fd5b505af1158015612273573d6000803e3d6000fd5b505050506040513d602081101561228957600080fd5b810190808051906020019092919050505061230c576040517f08c379a000000000000000000000000000000000000000000000000000000000815260040180806020018281038252601e8152602001807f5472616e73666572206661696c656420666f72206261736520746f6b656e000081525060200191505060405180910390fd5b6000600d60003073ffffffffffffffffffffffffffffffffffffffff1673ffffffffffffffffffffffffffffffffffffffff16815260200190815260200160002054905060028081111561235c57fe5b600e6000838152602001908152602001600020600501819055507f922440b9b32ceea32c28a1e3eaab6666b0c219fb8184013c17bc787fc6be8ecb303387604051808473ffffffffffffffffffffffffffffffffffffffff1681526020018373ffffffffffffffffffffffffffffffffffffffff168152602001828152602001935050505060405180910390a160019350505050919050565b60008061240c8360026139b590919063ffffffff16565b50905080915050919050565b6000600a60009054906101000a900460ff16905090565b600061245f82604051806060016040528060298152602001614ce96029913960026139e19092919063ffffffff16565b9050919050565b606060098054600181600116156101000203166002900480601f0160208091040260200160405190810160405280929190818152602001828054600181600116156101000203166002900480156124fe5780601f106124d3576101008083540402835291602001916124fe565b820191906000526020600020905b8154815290600101906020018083116124e157829003601f168201915b5050505050905090565b601660009054906101000a900473ffffffffffffffffffffffffffffffffffffffff1681565b60008073ffffffffffffffffffffffffffffffffffffffff168273ffffffffffffffffffffffffffffffffffffffff1614156125b5576040517f08c379a000000000000000000000000000000000000000000000000000000000815260040180806020018281038252602a815260200180614cbf602a913960400191505060405180910390fd5b6125fc600160008473ffffffffffffffffffffffffffffffffffffffff1673ffffffffffffffffffffffffffffffffffffffff168152602001908152602001600020613a00565b9050919050565b60115481565b600b6020528060005260406000206000915090505481565b601060009054906101000a900473ffffffffffffffffffffffffffffffffffffffff1681565b606060078054600181600116156101000203166002900480601f0160208091040260200160405190810160405280929190818152602001828054600181600116156101000203166002900480156126df5780601f106126b4576101008083540402835291602001916126df565b820191906000526020600020905b8154815290600101906020018083116126c257829003601f168201915b5050505050905090565b600c6020528060005260406000206000915090508060000160009054906101000a900473ffffffffffffffffffffffffffffffffffffffff1690806001018054600181600116156101000203166002900480601f0160208091040260200160405190810160405280929190818152602001828054600181600116156101000203166002900480156127bb5780601f10612790576101008083540402835291602001916127bb565b820191906000526020600020905b81548152906001019060200180831161279e57829003601f168201915b505050505090806002018054600181600116156101000203166002900480601f0160208091040260200160405190810160405280929190818152602001828054600181600116156101000203166002900480156128595780601f1061282e57610100808354040283529160200191612859565b820191906000526020600020905b81548152906001019060200180831161283c57829003601f168201915b5050505050908060030160009054906101000a900473ffffffffffffffffffffffffffffffffffffffff16908060030160149054906101000a900460ff16908060040154908060050154908060060154908060070160009054906101000a900473ffffffffffffffffffffffffffffffffffffffff16908060070160149054906101000a900460ff1690508a565b6000600b60008a73ffffffffffffffffffffffffffffffffffffffff1673ffffffffffffffffffffffffffffffffffffffff168152602001908152602001600020600081548092919060010191905055506000600b60008b73ffffffffffffffffffffffffffffffffffffffff1673ffffffffffffffffffffffffffffffffffffffff1681526020019081526020016000205490506040518061014001604052808b73ffffffffffffffffffffffffffffffffffffffff1681526020018a81526020018981526020018873ffffffffffffffffffffffffffffffffffffffff16815260200187151581526020018681526020014281526020018581526020018473ffffffffffffffffffffffffffffffffffffffff16815260200160011515815250600c600083815260200190815260200160002060008201518160000160006101000a81548173ffffffffffffffffffffffffffffffffffffffff021916908373ffffffffffffffffffffffffffffffffffffffff1602179055506020820151816001019080519060200190612a7f929190614a9e565b506040820151816002019080519060200190612a9c929190614a9e565b5060608201518160030160006101000a81548173ffffffffffffffffffffffffffffffffffffffff021916908373ffffffffffffffffffffffffffffffffffffffff16021790555060808201518160030160146101000a81548160ff02191690831515021790555060a0820151816004015560c0820151816005015560e082015181600601556101008201518160070160006101000a81548173ffffffffffffffffffffffffffffffffffffffff021916908373ffffffffffffffffffffffffffffffffffffffff1602179055506101208201518160070160146101000a81548160ff021916908315150217905550905050876040518082805190602001908083835b60208310612bc25780518252602082019150602081019050602083039250612b9f565b6001836020036101000a0380198251168184511680821785525050505050509050019150506040518091039020818b73ffffffffffffffffffffffffffffffffffffffff167f27cbb566eb604924251497b674c4c5afaa8275d5ef452d9dd86cdd6e0ada15ca8c6040518080602001828103825283818151815260200191508051906020019080838360005b83811015612c69578082015181840152602081019050612c4e565b50505050905090810190601f168015612c965780820380516001836020036101000a031916815260200191505b509250505060405180910390a48091505098975050505050505050565b612cbb613454565b73ffffffffffffffffffffffffffffffffffffffff168273ffffffffffffffffffffffffffffffffffffffff161415612d5c576040517f08c379a00000000000000000000000000000000000000000000000000000000081526004018080602001828103825260198152602001807f4552433732313a20617070726f766520746f2063616c6c65720000000000000081525060200191505060405180910390fd5b8060056000612d69613454565b73ffffffffffffffffffffffffffffffffffffffff1673ffffffffffffffffffffffffffffffffffffffff16815260200190815260200160002060008473ffffffffffffffffffffffffffffffffffffffff1673ffffffffffffffffffffffffffffffffffffffff16815260200190815260200160002060006101000a81548160ff0219169083151502179055508173ffffffffffffffffffffffffffffffffffffffff16612e16613454565b73ffffffffffffffffffffffffffffffffffffffff167f17307eab39ab6107e8899845ad3d59bd9653f200f220920489ca2b5937696c318360405180821515815260200191505060405180910390a35050565b612e7a612e74613454565b8361352a565b612ecf576040517f08c379a0000000000000000000000000000000000000000000000000000000008152600401808060200182810382526031815260200180614e056031913960400191505060405180910390fd5b612edb84848484613a15565b50505050565b601460009054906101000a900473ffffffffffffffffffffffffffffffffffffffff1681565b6060612f1282613437565b612f67576040517f08c379a000000000000000000000000000000000000000000000000000000000815260040180806020018281038252602f815260200180614db5602f913960400191505060405180910390fd5b6000600860008481526020019081526020016000208054600181600116156101000203166002900480601f0160208091040260200160405190810160405280929190818152602001828054600181600116156101000203166002900480156130105780601f10612fe557610100808354040283529160200191613010565b820191906000526020600020905b815481529060010190602001808311612ff357829003601f168201915b5050505050905060006009805460018160011615610100020316600290049050141561303f57809150506131eb565b6000815111156131185760098160405160200180838054600181600116156101000203166002900480156130aa5780601f106130885761010080835404028352918201916130aa565b820191906000526020600020905b815481529060010190602001808311613096575b505082805190602001908083835b602083106130db57805182526020820191506020810190506020830392506130b8565b6001836020036101000a038019825116818451168082178552505050505050905001925050506040516020818303038152906040529150506131eb565b600961312384613a87565b60405160200180838054600181600116156101000203166002900480156131815780601f1061315f576101008083540402835291820191613181565b820191906000526020600020905b81548152906001019060200180831161316d575b505082805190602001908083835b602083106131b2578051825260208201915060208101905060208303925061318f565b6001836020036101000a038019825116818451168082178552505050505050905001925050506040516020818303038152906040529150505b919050565b60003373ffffffffffffffffffffffffffffffffffffffff16601360009054906101000a900473ffffffffffffffffffffffffffffffffffffffff1673ffffffffffffffffffffffffffffffffffffffff16146132b5576040517f08c379a000000000000000000000000000000000000000000000000000000000815260040180806020018281038252600e8152602001807f494e56414c4944204d494e54455200000000000000000000000000000000000081525060200191505060405180910390fd5b6132bf600f613bce565b60006132cb600f613be4565b90506132d78482613bf2565b6132e18184613c10565b6000600d60003073ffffffffffffffffffffffffffffffffffffffff1673ffffffffffffffffffffffffffffffffffffffff1681526020019081526020016000205490506001600281111561333257fe5b600e600083815260200190815260200160002060050181905550819250505092915050565b601360009054906101000a900473ffffffffffffffffffffffffffffffffffffffff1681565b601560009054906101000a900473ffffffffffffffffffffffffffffffffffffffff1681565b6000600560008473ffffffffffffffffffffffffffffffffffffffff1673ffffffffffffffffffffffffffffffffffffffff16815260200190815260200160002060008373ffffffffffffffffffffffffffffffffffffffff1673ffffffffffffffffffffffffffffffffffffffff16815260200190815260200160002060009054906101000a900460ff16905092915050565b600061344d826002613c9a90919063ffffffff16565b9050919050565b600033905090565b816004600083815260200190815260200160002060006101000a81548173ffffffffffffffffffffffffffffffffffffffff021916908373ffffffffffffffffffffffffffffffffffffffff160217905550808273ffffffffffffffffffffffffffffffffffffffff166134cf8361242f565b73ffffffffffffffffffffffffffffffffffffffff167f8c5be1e5ebec7d5bd14f71427d1e84f3dd0314c0f7b2291e5b200ac8c7c3b92560405160405180910390a45050565b600061352382600001613cb4565b9050919050565b600061353582613437565b61358a576040517f08c379a000000000000000000000000000000000000000000000000000000000815260040180806020018281038252602c815260200180614c5b602c913960400191505060405180910390fd5b60006135958361242f565b90508073ffffffffffffffffffffffffffffffffffffffff168473ffffffffffffffffffffffffffffffffffffffff16148061360457508373ffffffffffffffffffffffffffffffffffffffff166135ec846114c7565b73ffffffffffffffffffffffffffffffffffffffff16145b80613615575061361481856133a3565b5b91505092915050565b8273ffffffffffffffffffffffffffffffffffffffff1661363e8261242f565b73ffffffffffffffffffffffffffffffffffffffff16146136aa576040517f08c379a0000000000000000000000000000000000000000000000000000000008152600401808060200182810382526029815260200180614d8c6029913960400191505060405180910390fd5b600073ffffffffffffffffffffffffffffffffffffffff168273ffffffffffffffffffffffffffffffffffffffff161415613730576040517f08c379a0000000000000000000000000000000000000000000000000000000008152600401808060200182810382526024815260200180614c116024913960400191505060405180910390fd5b61373b838383613cc5565b61374660008261345c565b61379781600160008673ffffffffffffffffffffffffffffffffffffffff1673ffffffffffffffffffffffffffffffffffffffff168152602001908152602001600020613cd590919063ffffffff16565b506137e981600160008573ffffffffffffffffffffffffffffffffffffffff1673ffffffffffffffffffffffffffffffffffffffff168152602001908152602001600020613cef90919063ffffffff16565b5061380081836002613d099092919063ffffffff16565b50808273ffffffffffffffffffffffffffffffffffffffff168473ffffffffffffffffffffffffffffffffffffffff167fddf252ad1be2c89b69c2b068fc378daa952ba7f163c4a11628f55a4df523b3ef60405160405180910390a4505050565b60006138708360000183613d3e565b60001c905092915050565b60006138868261242f565b905061389481600084613cc5565b61389f60008361345c565b600060086000848152602001908152602001600020805460018160011615610100020316600290049050146138ee576008600083815260200190815260200160002060006138ed9190614b2c565b5b61393f82600160008473ffffffffffffffffffffffffffffffffffffffff1673ffffffffffffffffffffffffffffffffffffffff168152602001908152602001600020613cd590919063ffffffff16565b50613954826002613dc190919063ffffffff16565b5081600073ffffffffffffffffffffffffffffffffffffffff168273ffffffffffffffffffffffffffffffffffffffff167fddf252ad1be2c89b69c2b068fc378daa952ba7f163c4a11628f55a4df523b3ef60405160405180910390a45050565b6000806000806139c88660000186613ddb565b915091508160001c8160001c9350935050509250929050565b60006139f4846000018460001b84613e74565b60001c90509392505050565b6000613a0e82600001613f6a565b9050919050565b613a2084848461361e565b613a2c84848484613f7b565b613a81576040517f08c379a0000000000000000000000000000000000000000000000000000000008152600401808060200182810382526032815260200180614bdf6032913960400191505060405180910390fd5b50505050565b60606000821415613acf576040518060400160405280600181526020017f30000000000000000000000000000000000000000000000000000000000000008152509050613bc9565b600082905060005b60008214613af9578080600101915050600a8281613af157fe5b049150613ad7565b60008167ffffffffffffffff81118015613b1257600080fd5b506040519080825280601f01601f191660200182016040528015613b455781602001600182028036833780820191505090505b50905060006001830390508593505b60008414613bc157600a8481613b6657fe5b0660300160f81b82828060019003935081518110613b8057fe5b60200101907effffffffffffffffffffffffffffffffffffffffffffffffffffffffffffff1916908160001a905350600a8481613bb957fe5b049350613b54565b819450505050505b919050565b6001816000016000828254019250508190555050565b600081600001549050919050565b613c0c828260405180602001604052806000815250614194565b5050565b613c1982613437565b613c6e576040517f08c379a000000000000000000000000000000000000000000000000000000000815260040180806020018281038252602c815260200180614d60602c913960400191505060405180910390fd5b80600860008481526020019081526020016000209080519060200190613c95929190614a9e565b505050565b6000613cac836000018360001b614205565b905092915050565b600081600001805490509050919050565b613cd0838383614228565b505050565b6000613ce7836000018360001b614296565b905092915050565b6000613d01836000018360001b61437e565b905092915050565b6000613d35846000018460001b8473ffffffffffffffffffffffffffffffffffffffff1660001b6143ee565b90509392505050565b600081836000018054905011613d9f576040517f08c379a0000000000000000000000000000000000000000000000000000000008152600401808060200182810382526022815260200180614b926022913960400191505060405180910390fd5b826000018281548110613dae57fe5b9060005260206000200154905092915050565b6000613dd3836000018360001b6144ca565b905092915050565b60008082846000018054905011613e3d576040517f08c379a0000000000000000000000000000000000000000000000000000000008152600401808060200182810382526022815260200180614d126022913960400191505060405180910390fd5b6000846000018481548110613e4e57fe5b906000526020600020906002020190508060000154816001015492509250509250929050565b60008084600101600085815260200190815260200160002054905060008114158390613f3b576040517f08c379a00000000000000000000000000000000000000000000000000000000081526004018080602001828103825283818151815260200191508051906020019080838360005b83811015613f00578082015181840152602081019050613ee5565b50505050905090810190601f168015613f2d5780820380516001836020036101000a031916815260200191505b509250505060405180910390fd5b50846000016001820381548110613f4e57fe5b9060005260206000209060020201600101549150509392505050565b600081600001805490509050919050565b6000613f9c8473ffffffffffffffffffffffffffffffffffffffff166145e3565b613fa9576001905061418c565b600061411363150b7a0260e01b613fbe613454565b888787604051602401808573ffffffffffffffffffffffffffffffffffffffff1681526020018473ffffffffffffffffffffffffffffffffffffffff16815260200183815260200180602001828103825283818151815260200191508051906020019080838360005b83811015614042578082015181840152602081019050614027565b50505050905090810190601f16801561406f5780820380516001836020036101000a031916815260200191505b5095505050505050604051602081830303815290604052907bffffffffffffffffffffffffffffffffffffffffffffffffffffffff19166020820180517bffffffffffffffffffffffffffffffffffffffffffffffffffffffff8381831617835250505050604051806060016040528060328152602001614bdf603291398773ffffffffffffffffffffffffffffffffffffffff166145f69092919063ffffffff16565b9050600081806020019051602081101561412c57600080fd5b8101908080519060200190929190505050905063150b7a0260e01b7bffffffffffffffffffffffffffffffffffffffffffffffffffffffff1916817bffffffffffffffffffffffffffffffffffffffffffffffffffffffff191614925050505b949350505050565b61419e838361460e565b6141ab6000848484613f7b565b614200576040517f08c379a0000000000000000000000000000000000000000000000000000000008152600401808060200182810382526032815260200180614bdf6032913960400191505060405180910390fd5b505050565b600080836001016000848152602001908152602001600020541415905092915050565b614233838383614802565b61423b612418565b15614291576040517f08c379a000000000000000000000000000000000000000000000000000000000815260040180806020018281038252602b815260200180614bb4602b913960400191505060405180910390fd5b505050565b6000808360010160008481526020019081526020016000205490506000811461437257600060018203905060006001866000018054905003905060008660000182815481106142e157fe5b90600052602060002001549050808760000184815481106142fe57fe5b906000526020600020018190555060018301876001016000838152602001908152602001600020819055508660000180548061433657fe5b60019003818190600052602060002001600090559055866001016000878152602001908152602001600020600090556001945050505050614378565b60009150505b92915050565b600061438a8383614807565b6143e35782600001829080600181540180825580915050600190039060005260206000200160009091909190915055826000018054905083600101600084815260200190815260200160002081905550600190506143e8565b600090505b92915050565b6000808460010160008581526020019081526020016000205490506000811415614495578460000160405180604001604052808681526020018581525090806001815401808255809150506001900390600052602060002090600202016000909190919091506000820151816000015560208201518160010155505084600001805490508560010160008681526020019081526020016000208190555060019150506144c3565b828560000160018303815481106144a857fe5b90600052602060002090600202016001018190555060009150505b9392505050565b600080836001016000848152602001908152602001600020549050600081146145d7576000600182039050600060018660000180549050039050600086600001828154811061451557fe5b906000526020600020906002020190508087600001848154811061453557fe5b906000526020600020906002020160008201548160000155600182015481600101559050506001830187600101600083600001548152602001908152602001600020819055508660000180548061458857fe5b60019003818190600052602060002090600202016000808201600090556001820160009055505090558660010160008781526020019081526020016000206000905560019450505050506145dd565b60009150505b92915050565b600080823b905060008111915050919050565b6060614605848460008561482a565b90509392505050565b600073ffffffffffffffffffffffffffffffffffffffff168273ffffffffffffffffffffffffffffffffffffffff1614156146b1576040517f08c379a00000000000000000000000000000000000000000000000000000000081526004018080602001828103825260208152602001807f4552433732313a206d696e7420746f20746865207a65726f206164647265737381525060200191505060405180910390fd5b6146ba81613437565b1561472d576040517f08c379a000000000000000000000000000000000000000000000000000000000815260040180806020018281038252601c8152602001807f4552433732313a20746f6b656e20616c7265616479206d696e7465640000000081525060200191505060405180910390fd5b61473960008383613cc5565b61478a81600160008573ffffffffffffffffffffffffffffffffffffffff1673ffffffffffffffffffffffffffffffffffffffff168152602001908152602001600020613cef90919063ffffffff16565b506147a181836002613d099092919063ffffffff16565b50808273ffffffffffffffffffffffffffffffffffffffff16600073ffffffffffffffffffffffffffffffffffffffff167fddf252ad1be2c89b69c2b068fc378daa952ba7f163c4a11628f55a4df523b3ef60405160405180910390a45050565b505050565b600080836001016000848152602001908152602001600020541415905092915050565b606082471015614885576040517f08c379a0000000000000000000000000000000000000000000000000000000008152600401808060200182810382526026815260200180614c356026913960400191505060405180910390fd5b61488e856145e3565b614900576040517f08c379a000000000000000000000000000000000000000000000000000000000815260040180806020018281038252601d8152602001807f416464726573733a2063616c6c20746f206e6f6e2d636f6e747261637400000081525060200191505060405180910390fd5b6000808673ffffffffffffffffffffffffffffffffffffffff1685876040518082805190602001908083835b6020831061494f578051825260208201915060208101905060208303925061492c565b6001836020036101000a03801982511681845116808217855250505050505090500191505060006040518083038185875af1925050503d80600081146149b1576040519150601f19603f3d011682016040523d82523d6000602084013e6149b6565b606091505b50915091506149c68282866149d2565b92505050949350505050565b606083156149e257829050614a97565b6000835111156149f55782518084602001fd5b816040517f08c379a00000000000000000000000000000000000000000000000000000000081526004018080602001828103825283818151815260200191508051906020019080838360005b83811015614a5c578082015181840152602081019050614a41565b50505050905090810190601f168015614a895780820380516001836020036101000a031916815260200191505b509250505060405180910390fd5b9392505050565b828054600181600116156101000203166002900490600052602060002090601f016020900481019282614ad45760008555614b1b565b82601f10614aed57805160ff1916838001178555614b1b565b82800160010185558215614b1b579182015b82811115614b1a578251825591602001919060010190614aff565b5b509050614b289190614b74565b5090565b50805460018160011615610100020316600290046000825580601f10614b525750614b71565b601f016020900490600052602060002090810190614b709190614b74565b5b50565b5b80821115614b8d576000816000905550600101614b75565b509056fe456e756d657261626c655365743a20696e646578206f7574206f6620626f756e64734552433732315061757361626c653a20746f6b656e207472616e73666572207768696c65207061757365644552433732313a207472616e7366657220746f206e6f6e20455243373231526563656976657220696d706c656d656e7465724552433732313a207472616e7366657220746f20746865207a65726f2061646472657373416464726573733a20696e73756666696369656e742062616c616e636520666f722063616c6c4552433732313a206f70657261746f7220717565727920666f72206e6f6e6578697374656e7420746f6b656e4552433732313a20617070726f76652063616c6c6572206973206e6f74206f776e6572206e6f7220617070726f76656420666f7220616c6c4552433732313a2062616c616e636520717565727920666f7220746865207a65726f20616464726573734552433732313a206f776e657220717565727920666f72206e6f6e6578697374656e7420746f6b656e456e756d657261626c654d61703a20696e646578206f7574206f6620626f756e64734552433732313a20617070726f76656420717565727920666f72206e6f6e6578697374656e7420746f6b656e4552433732314d657461646174613a2055524920736574206f66206e6f6e6578697374656e7420746f6b656e4552433732313a207472616e73666572206f6620746f6b656e2074686174206973206e6f74206f776e4552433732314d657461646174613a2055524920717565727920666f72206e6f6e6578697374656e7420746f6b656e4552433732313a20617070726f76616c20746f2063757272656e74206f776e65724552433732313a207472616e736665722063616c6c6572206973206e6f74206f776e6572206e6f7220617070726f766564a2646970667358221220000c9dae7a1b378f097becde328dff5e53d32ba2124038a5e842d39f184117a064736f6c63430007060033",
  "immutableReferences": {},
  "source": "pragma solidity ^0.7.0;\nimport \"@openzeppelin/contracts/token/ERC721/ERC721.sol\";\nimport \"@openzeppelin/contracts/token/ERC721/ERC721Burnable.sol\";\nimport \"@openzeppelin/contracts/token/ERC721/ERC721Pausable.sol\";\nimport \"@openzeppelin/contracts/utils/Counters.sol\";\nimport \"./ERC20Interface.sol\";\nimport \"./MinterRegistry.sol\";\n//import \"../node_modules/@openzeppelin/contracts/math/SafeMath.sol\";\n\ncontract NFTDocumentMinter is ERC721Pausable, MinterRegistry {\n \n    using Counters for Counters.Counter;\n    using SafeMath for uint;\n    Counters.Counter private _tokenIds;\n    address public owner;\n    uint256 public protocolServiceFee;\n    uint256 public mintingServiceFee;\n    address public mintedBy;\n    ERC20Interface public daiToken;\n    address public protocolPaymentAddress;\n    address public minterPaymentAddress;\n\n    // DID: https://blog.ceramic.network/how-to-store-encrypted-secrets-using-idx/\n    // MINTED: Must encrypt using DID, and then upload new document which will be tokenize\n    // NFT Manager locks again to secure \n    // BURN_SWAP: Reads token uri from IPLD, and decrypts with DID\n    // todo:  mapping de flow (REQUEST_MINTING, MINTED, BURN_SWAP)\n    event BurnSwap(\n        address minter,\n        address from,\n        uint id\n    );\n\n    /**\n    * TODO\n     */\n    constructor(\n        address _owner,\n        address _mintedBy,\n        string memory name,\n        string memory symbol,\n        /*uint serviceFee,\n        uint protocolFee,\n        address paymentAddress,\n        address factoryPaymentAddress,*/\n        ERC20Interface paymentToken\n    ) public ERC721(name, symbol) {\n        owner = _owner;\n        mintedBy = _mintedBy;\n        daiToken = paymentToken;\n        /*mintingServiceFee = serviceFee;\n        protocolServiceFee = protocolFee;\n        minterPaymentAddress = paymentAddress;\n        protocolPaymentAddress = factoryPaymentAddress;*/\n    }\n   \n    function mint(address user, string memory tokenURI)\n        public\n        returns (uint256)\n    {\n        require(mintedBy == msg.sender, \"INVALID MINTER\");\n        _tokenIds.increment();\n\n        uint256 newItemId = _tokenIds.current();\n        _safeMint(user, newItemId);\n        _setTokenURI(newItemId, tokenURI);\n\n        // TODO desplegar el fee de burn\n        uint index = minterDocumentRequestCounter[address(this)];\n        minterDocumentRequests[index].status = uint(DocumentMintingRequestStatus.MINTED);\n\n\n\n        return newItemId;\n    }   \n\n    function burn(uint tokenId)\n        public\n        payable\n        returns (bool)\n    {\n\n        // User must have a balance\n        require(\n            daiToken.balanceOf(msg.sender) >= 0,\n            \"Invalid token balance\"\n        );\n        // User must have an allowance\n        require(\n            daiToken.allowance(msg.sender, address(this)) >= 0,\n            \"Invalid token allowance\"\n        );\n\n        /* require(\n            daiToken.balanceOf(msg.sender) == (mintingServiceFee.sum(protocolServiceFee)), \n            \"MUST SEND FEE BEFORE USE\");\n        */\n\n        uint index = minterCounter[address(this)];\n        DataProviderMinter memory dataProvider = dataProviderMinters[index];\n        \n        _burn(tokenId);\n\n        // TODO: Update accounting\n        //  - create mappings to data provider accounting\n        //  - create mappings to protocol fee accounting\n\n        // Transfer tokens to NFT owner\n        require(\n            daiToken.transferFrom(\n                msg.sender, \n                dataProvider.paymentAddress, \n                dataProvider.feeStructure),\n            \"Transfer failed for base token\"\n        );\n\n        // Transfer tokens to pay service fee\n        require(\n            daiToken.transferFrom(\n                msg.sender, \n                dataProvider.factoryAddress, \n                dataProvider.serviceFee),\n            \"Transfer failed for base token\"\n        );\n\n        // TODO desplegar el fee de burn\n        uint _index = minterDocumentRequestCounter[address(this)];\n        minterDocumentRequests[_index].status = uint(DocumentMintingRequestStatus.BURNED);\n        \n        emit BurnSwap(\n            address(this),\n            msg.sender,\n            tokenId\n        );\n\n        return true;\n    }       \n\n      function _beforeTokenTransfer(address from, address to, uint256 amount)\n        internal virtual override\n    {\n        super._beforeTokenTransfer(from, to, amount);\n\n//        require(_validRecipient(to), \"ERC20WithSafeTransfer: invalid recipient\");\n    }\n\n}",
  "sourcePath": "/home/esfera-ubuntu/Documents/projects/ifesa/nft-document-swap/contracts/NFTDocumentMinter.sol",
  "compiler": {
    "name": "solc",
    "version": "0.7.6+commit.7338295f.Emscripten.clang"
  },
  "schemaVersion": "3.3.3",
  "updatedAt": "2021-02-04T23:36:55.399Z",
  "devdoc": {
    "kind": "dev",
    "methods": {
      "approve(address,uint256)": {
        "details": "See {IERC721-approve}."
      },
      "balanceOf(address)": {
        "details": "See {IERC721-balanceOf}."
      },
      "baseURI()": {
        "details": "Returns the base URI set via {_setBaseURI}. This will be automatically added as a prefix in {tokenURI} to each token's URI, or to the token ID if no specific URI is set for that token ID."
      },
      "getApproved(uint256)": {
        "details": "See {IERC721-getApproved}."
      },
      "isApprovedForAll(address,address)": {
        "details": "See {IERC721-isApprovedForAll}."
      },
      "name()": {
        "details": "See {IERC721Metadata-name}."
      },
      "ownerOf(uint256)": {
        "details": "See {IERC721-ownerOf}."
      },
      "paused()": {
        "details": "Returns true if the contract is paused, and false otherwise."
      },
      "safeTransferFrom(address,address,uint256)": {
        "details": "See {IERC721-safeTransferFrom}."
      },
      "safeTransferFrom(address,address,uint256,bytes)": {
        "details": "See {IERC721-safeTransferFrom}."
      },
      "setApprovalForAll(address,bool)": {
        "details": "See {IERC721-setApprovalForAll}."
      },
      "supportsInterface(bytes4)": {
        "details": "See {IERC165-supportsInterface}. Time complexity O(1), guaranteed to always use less than 30 000 gas."
      },
      "symbol()": {
        "details": "See {IERC721Metadata-symbol}."
      },
      "tokenByIndex(uint256)": {
        "details": "See {IERC721Enumerable-tokenByIndex}."
      },
      "tokenOfOwnerByIndex(address,uint256)": {
        "details": "See {IERC721Enumerable-tokenOfOwnerByIndex}."
      },
      "tokenURI(uint256)": {
        "details": "See {IERC721Metadata-tokenURI}."
      },
      "totalSupply()": {
        "details": "See {IERC721Enumerable-totalSupply}."
      },
      "transferFrom(address,address,uint256)": {
        "details": "See {IERC721-transferFrom}."
      }
    },
    "version": 1
  },
  "userdoc": {
    "kind": "user",
    "methods": {
      "constructor": {
        "notice": "TODO"
      }
    },
    "version": 1
  }
}