{
  "contractName": "NFTDocumentMinter",
  "abi": [
    {
      "inputs": [
        {
          "internalType": "string",
          "name": "name",
          "type": "string"
        },
        {
          "internalType": "string",
          "name": "symbol",
          "type": "string"
        },
        {
          "internalType": "address",
          "name": "tokenAddress",
          "type": "address"
        }
      ],
      "stateMutability": "nonpayable",
      "type": "constructor"
    },
    {
      "anonymous": false,
      "inputs": [
        {
          "indexed": true,
          "internalType": "address",
          "name": "owner",
          "type": "address"
        },
        {
          "indexed": true,
          "internalType": "address",
          "name": "approved",
          "type": "address"
        },
        {
          "indexed": true,
          "internalType": "uint256",
          "name": "tokenId",
          "type": "uint256"
        }
      ],
      "name": "Approval",
      "type": "event"
    },
    {
      "anonymous": false,
      "inputs": [
        {
          "indexed": true,
          "internalType": "address",
          "name": "owner",
          "type": "address"
        },
        {
          "indexed": true,
          "internalType": "address",
          "name": "operator",
          "type": "address"
        },
        {
          "indexed": false,
          "internalType": "bool",
          "name": "approved",
          "type": "bool"
        }
      ],
      "name": "ApprovalForAll",
      "type": "event"
    },
    {
      "anonymous": false,
      "inputs": [
        {
          "indexed": false,
          "internalType": "address",
          "name": "minter",
          "type": "address"
        },
        {
          "indexed": false,
          "internalType": "address",
          "name": "from",
          "type": "address"
        },
        {
          "indexed": false,
          "internalType": "uint256",
          "name": "id",
          "type": "uint256"
        }
      ],
      "name": "BurnSwap",
      "type": "event"
    },
    {
      "anonymous": false,
      "inputs": [
        {
          "indexed": true,
          "internalType": "address",
          "name": "minter",
          "type": "address"
        },
        {
          "indexed": true,
          "internalType": "uint256",
          "name": "id",
          "type": "uint256"
        },
        {
          "indexed": false,
          "internalType": "string",
          "name": "name",
          "type": "string"
        },
        {
          "indexed": true,
          "internalType": "string",
          "name": "symbol",
          "type": "string"
        }
      ],
      "name": "MinterRegistered",
      "type": "event"
    },
    {
      "anonymous": false,
      "inputs": [
        {
          "indexed": false,
          "internalType": "address",
          "name": "account",
          "type": "address"
        }
      ],
      "name": "Paused",
      "type": "event"
    },
    {
      "anonymous": false,
      "inputs": [
        {
          "indexed": true,
          "internalType": "address",
          "name": "from",
          "type": "address"
        },
        {
          "indexed": true,
          "internalType": "address",
          "name": "to",
          "type": "address"
        },
        {
          "indexed": true,
          "internalType": "uint256",
          "name": "tokenId",
          "type": "uint256"
        }
      ],
      "name": "Transfer",
      "type": "event"
    },
    {
      "anonymous": false,
      "inputs": [
        {
          "indexed": false,
          "internalType": "address",
          "name": "account",
          "type": "address"
        }
      ],
      "name": "Unpaused",
      "type": "event"
    },
    {
      "inputs": [
        {
          "internalType": "address",
          "name": "minter",
          "type": "address"
        },
        {
          "internalType": "string",
          "name": "name",
          "type": "string"
        },
        {
          "internalType": "string",
          "name": "symbol",
          "type": "string"
        },
        {
          "internalType": "address",
          "name": "paymentAddress",
          "type": "address"
        },
        {
          "internalType": "bool",
          "name": "hasUserKyc",
          "type": "bool"
        },
        {
          "internalType": "uint256",
          "name": "feeStructure",
          "type": "uint256"
        },
        {
          "internalType": "uint256",
          "name": "serviceFee",
          "type": "uint256"
        },
        {
          "internalType": "address",
          "name": "factoryAddress",
          "type": "address"
        }
      ],
      "name": "addToRegistry",
      "outputs": [
        {
          "internalType": "uint256",
          "name": "",
          "type": "uint256"
        }
      ],
      "stateMutability": "nonpayable",
      "type": "function"
    },
    {
      "inputs": [
        {
          "internalType": "address",
          "name": "to",
          "type": "address"
        },
        {
          "internalType": "uint256",
          "name": "tokenId",
          "type": "uint256"
        }
      ],
      "name": "approve",
      "outputs": [],
      "stateMutability": "nonpayable",
      "type": "function"
    },
    {
      "inputs": [
        {
          "internalType": "address",
          "name": "owner",
          "type": "address"
        }
      ],
      "name": "balanceOf",
      "outputs": [
        {
          "internalType": "uint256",
          "name": "",
          "type": "uint256"
        }
      ],
      "stateMutability": "view",
      "type": "function"
    },
    {
      "inputs": [],
      "name": "baseURI",
      "outputs": [
        {
          "internalType": "string",
          "name": "",
          "type": "string"
        }
      ],
      "stateMutability": "view",
      "type": "function"
    },
    {
      "inputs": [
        {
          "internalType": "uint256",
          "name": "",
          "type": "uint256"
        }
      ],
      "name": "dataProviderMinters",
      "outputs": [
        {
          "internalType": "address",
          "name": "minterAddress",
          "type": "address"
        },
        {
          "internalType": "string",
          "name": "name",
          "type": "string"
        },
        {
          "internalType": "string",
          "name": "symbol",
          "type": "string"
        },
        {
          "internalType": "address",
          "name": "paymentAddress",
          "type": "address"
        },
        {
          "internalType": "bool",
          "name": "hasUserKyc",
          "type": "bool"
        },
        {
          "internalType": "uint256",
          "name": "feeStructure",
          "type": "uint256"
        },
        {
          "internalType": "uint256",
          "name": "created",
          "type": "uint256"
        },
        {
          "internalType": "uint256",
          "name": "serviceFee",
          "type": "uint256"
        },
        {
          "internalType": "address",
          "name": "factoryAddress",
          "type": "address"
        },
        {
          "internalType": "bool",
          "name": "enabled",
          "type": "bool"
        }
      ],
      "stateMutability": "view",
      "type": "function"
    },
    {
      "inputs": [
        {
          "internalType": "uint256",
          "name": "tokenId",
          "type": "uint256"
        }
      ],
      "name": "getApproved",
      "outputs": [
        {
          "internalType": "address",
          "name": "",
          "type": "address"
        }
      ],
      "stateMutability": "view",
      "type": "function"
    },
    {
      "inputs": [
        {
          "internalType": "address",
          "name": "owner",
          "type": "address"
        },
        {
          "internalType": "address",
          "name": "operator",
          "type": "address"
        }
      ],
      "name": "isApprovedForAll",
      "outputs": [
        {
          "internalType": "bool",
          "name": "",
          "type": "bool"
        }
      ],
      "stateMutability": "view",
      "type": "function"
    },
    {
      "inputs": [
        {
          "internalType": "address",
          "name": "",
          "type": "address"
        }
      ],
      "name": "minterCounter",
      "outputs": [
        {
          "internalType": "uint256",
          "name": "",
          "type": "uint256"
        }
      ],
      "stateMutability": "view",
      "type": "function"
    },
    {
      "inputs": [
        {
          "internalType": "address",
          "name": "",
          "type": "address"
        }
      ],
      "name": "minterDocumentRequestCounter",
      "outputs": [
        {
          "internalType": "uint256",
          "name": "",
          "type": "uint256"
        }
      ],
      "stateMutability": "view",
      "type": "function"
    },
    {
      "inputs": [
        {
          "internalType": "address",
          "name": "",
          "type": "address"
        },
        {
          "internalType": "uint256",
          "name": "",
          "type": "uint256"
        }
      ],
      "name": "minterDocumentRequests",
      "outputs": [
        {
          "internalType": "address",
          "name": "user",
          "type": "address"
        },
        {
          "internalType": "string",
          "name": "userDid",
          "type": "string"
        },
        {
          "internalType": "address",
          "name": "toMinter",
          "type": "address"
        },
        {
          "internalType": "string",
          "name": "toMinterDid",
          "type": "string"
        },
        {
          "internalType": "string",
          "name": "documentURI",
          "type": "string"
        },
        {
          "internalType": "uint256",
          "name": "status",
          "type": "uint256"
        },
        {
          "internalType": "string",
          "name": "description",
          "type": "string"
        }
      ],
      "stateMutability": "view",
      "type": "function"
    },
    {
      "inputs": [],
      "name": "name",
      "outputs": [
        {
          "internalType": "string",
          "name": "",
          "type": "string"
        }
      ],
      "stateMutability": "view",
      "type": "function"
    },
    {
      "inputs": [],
      "name": "owner",
      "outputs": [
        {
          "internalType": "address",
          "name": "",
          "type": "address"
        }
      ],
      "stateMutability": "view",
      "type": "function"
    },
    {
      "inputs": [
        {
          "internalType": "uint256",
          "name": "tokenId",
          "type": "uint256"
        }
      ],
      "name": "ownerOf",
      "outputs": [
        {
          "internalType": "address",
          "name": "",
          "type": "address"
        }
      ],
      "stateMutability": "view",
      "type": "function"
    },
    {
      "inputs": [],
      "name": "paused",
      "outputs": [
        {
          "internalType": "bool",
          "name": "",
          "type": "bool"
        }
      ],
      "stateMutability": "view",
      "type": "function"
    },
    {
      "inputs": [
        {
          "internalType": "address",
          "name": "from",
          "type": "address"
        },
        {
          "internalType": "address",
          "name": "to",
          "type": "address"
        },
        {
          "internalType": "uint256",
          "name": "tokenId",
          "type": "uint256"
        }
      ],
      "name": "safeTransferFrom",
      "outputs": [],
      "stateMutability": "nonpayable",
      "type": "function"
    },
    {
      "inputs": [
        {
          "internalType": "address",
          "name": "from",
          "type": "address"
        },
        {
          "internalType": "address",
          "name": "to",
          "type": "address"
        },
        {
          "internalType": "uint256",
          "name": "tokenId",
          "type": "uint256"
        },
        {
          "internalType": "bytes",
          "name": "_data",
          "type": "bytes"
        }
      ],
      "name": "safeTransferFrom",
      "outputs": [],
      "stateMutability": "nonpayable",
      "type": "function"
    },
    {
      "inputs": [
        {
          "internalType": "address",
          "name": "operator",
          "type": "address"
        },
        {
          "internalType": "bool",
          "name": "approved",
          "type": "bool"
        }
      ],
      "name": "setApprovalForAll",
      "outputs": [],
      "stateMutability": "nonpayable",
      "type": "function"
    },
    {
      "inputs": [],
      "name": "stablecoin",
      "outputs": [
        {
          "internalType": "contract ERC20Interface",
          "name": "",
          "type": "address"
        }
      ],
      "stateMutability": "view",
      "type": "function"
    },
    {
      "inputs": [
        {
          "internalType": "bytes4",
          "name": "interfaceId",
          "type": "bytes4"
        }
      ],
      "name": "supportsInterface",
      "outputs": [
        {
          "internalType": "bool",
          "name": "",
          "type": "bool"
        }
      ],
      "stateMutability": "view",
      "type": "function"
    },
    {
      "inputs": [],
      "name": "symbol",
      "outputs": [
        {
          "internalType": "string",
          "name": "",
          "type": "string"
        }
      ],
      "stateMutability": "view",
      "type": "function"
    },
    {
      "inputs": [
        {
          "internalType": "uint256",
          "name": "index",
          "type": "uint256"
        }
      ],
      "name": "tokenByIndex",
      "outputs": [
        {
          "internalType": "uint256",
          "name": "",
          "type": "uint256"
        }
      ],
      "stateMutability": "view",
      "type": "function"
    },
    {
      "inputs": [
        {
          "internalType": "address",
          "name": "owner",
          "type": "address"
        },
        {
          "internalType": "uint256",
          "name": "index",
          "type": "uint256"
        }
      ],
      "name": "tokenOfOwnerByIndex",
      "outputs": [
        {
          "internalType": "uint256",
          "name": "",
          "type": "uint256"
        }
      ],
      "stateMutability": "view",
      "type": "function"
    },
    {
      "inputs": [
        {
          "internalType": "uint256",
          "name": "tokenId",
          "type": "uint256"
        }
      ],
      "name": "tokenURI",
      "outputs": [
        {
          "internalType": "string",
          "name": "",
          "type": "string"
        }
      ],
      "stateMutability": "view",
      "type": "function"
    },
    {
      "inputs": [],
      "name": "totalSupply",
      "outputs": [
        {
          "internalType": "uint256",
          "name": "",
          "type": "uint256"
        }
      ],
      "stateMutability": "view",
      "type": "function"
    },
    {
      "inputs": [
        {
          "internalType": "address",
          "name": "from",
          "type": "address"
        },
        {
          "internalType": "address",
          "name": "to",
          "type": "address"
        },
        {
          "internalType": "uint256",
          "name": "tokenId",
          "type": "uint256"
        }
      ],
      "name": "transferFrom",
      "outputs": [],
      "stateMutability": "nonpayable",
      "type": "function"
    },
    {
      "inputs": [
        {
          "internalType": "uint256",
          "name": "requestId",
          "type": "uint256"
        },
        {
          "internalType": "address",
          "name": "user",
          "type": "address"
        },
        {
          "internalType": "string",
          "name": "tokenURI",
          "type": "string"
        }
      ],
      "name": "mint",
      "outputs": [
        {
          "internalType": "uint256",
          "name": "",
          "type": "uint256"
        }
      ],
      "stateMutability": "nonpayable",
      "type": "function"
    },
    {
      "inputs": [
        {
          "internalType": "uint256",
          "name": "requestId",
          "type": "uint256"
        },
        {
          "internalType": "uint256",
          "name": "tokenId",
          "type": "uint256"
        }
      ],
      "name": "burn",
      "outputs": [
        {
          "internalType": "bool",
          "name": "",
          "type": "bool"
        }
      ],
      "stateMutability": "payable",
      "type": "function"
    }
  ],
  "bytecode": "0x60806040523480156200001157600080fd5b50604051620050de380380620050de833981810160405260608110156200003757600080fd5b81019080805160405193929190846401000000008211156200005857600080fd5b838201915060208201858111156200006f57600080fd5b82518660018202830111640100000000821117156200008d57600080fd5b8083526020830192505050908051906020019080838360005b83811015620000c3578082015181840152602081019050620000a6565b50505050905090810190601f168015620000f15780820380516001836020036101000a031916815260200191505b50604052602001805160405193929190846401000000008211156200011557600080fd5b838201915060208201858111156200012c57600080fd5b82518660018202830111640100000000821117156200014a57600080fd5b8083526020830192505050908051906020019080838360005b838110156200018057808201518184015260208101905062000163565b50505050905090810190601f168015620001ae5780820380516001836020036101000a031916815260200191505b50604052602001805190602001909291905050508282620001dc6301ffc9a760e01b620002fe60201b60201c565b8160069080519060200190620001f492919062000407565b5080600790805190602001906200020d92919062000407565b50620002266380ac58cd60e01b620002fe60201b60201c565b6200023e635b5e139f60e01b620002fe60201b60201c565b6200025663780e9d6360e01b620002fe60201b60201c565b50506000600a60006101000a81548160ff02191690831515021790555033601060006101000a81548173ffffffffffffffffffffffffffffffffffffffff021916908373ffffffffffffffffffffffffffffffffffffffff16021790555080601160006101000a81548173ffffffffffffffffffffffffffffffffffffffff021916908373ffffffffffffffffffffffffffffffffffffffff160217905550505050620004bd565b63ffffffff60e01b817bffffffffffffffffffffffffffffffffffffffffffffffffffffffff191614156200039b576040517f08c379a000000000000000000000000000000000000000000000000000000000815260040180806020018281038252601c8152602001807f4552433136353a20696e76616c696420696e746572666163652069640000000081525060200191505060405180910390fd5b6001600080837bffffffffffffffffffffffffffffffffffffffffffffffffffffffff19167bffffffffffffffffffffffffffffffffffffffffffffffffffffffff1916815260200190815260200160002060006101000a81548160ff02191690831515021790555050565b828054600181600116156101000203166002900490600052602060002090601f0160209004810192826200043f57600085556200048b565b82601f106200045a57805160ff19168380011785556200048b565b828001600101855582156200048b579182015b828111156200048a5782518255916020019190600101906200046d565b5b5090506200049a91906200049e565b5090565b5b80821115620004b95760008160009055506001016200049f565b5090565b614c1180620004cd6000396000f3fe60806040526004361061019c5760003560e01c80636efaa699116100ec578063a22cb4651161008a578063c87b56dd11610064578063c87b56dd1461100a578063e67e402c146110be578063e985e9c5146111c4578063e9cbd8221461124b5761019c565b8063a22cb46514610e4d578063b390c0ab14610eaa578063b88d4fde14610ef85761019c565b80638da5cb5b116100c65780638da5cb5b146109ea57806395d89b4114610a2b578063967426ff14610abb5780639aa94ba514610c595761019c565b80636efaa699146106c757806370a0823114610920578063761901bb146109855761019c565b80632aa222c8116101595780634f6ccce7116101335780634f6ccce7146105565780635c975abb146105a55780636352211e146105d25780636c0360eb146106375761019c565b80632aa222c8146104075780632f745c591461046c57806342842e0e146104db5761019c565b806301ffc9a7146101a157806306fdde0314610211578063081812fc146102a1578063095ea7b31461030657806318160ddd1461036157806323b872dd1461038c575b600080fd5b3480156101ad57600080fd5b506101f9600480360360208110156101c457600080fd5b8101908080357bffffffffffffffffffffffffffffffffffffffffffffffffffffffff1916906020019092919050505061128c565b60405180821515815260200191505060405180910390f35b34801561021d57600080fd5b506102266112f3565b6040518080602001828103825283818151815260200191508051906020019080838360005b8381101561026657808201518184015260208101905061024b565b50505050905090810190601f1680156102935780820380516001836020036101000a031916815260200191505b509250505060405180910390f35b3480156102ad57600080fd5b506102da600480360360208110156102c457600080fd5b8101908080359060200190929190505050611395565b604051808273ffffffffffffffffffffffffffffffffffffffff16815260200191505060405180910390f35b34801561031257600080fd5b5061035f6004803603604081101561032957600080fd5b81019080803573ffffffffffffffffffffffffffffffffffffffff16906020019092919080359060200190929190505050611430565b005b34801561036d57600080fd5b50610376611574565b6040518082815260200191505060405180910390f35b34801561039857600080fd5b50610405600480360360608110156103af57600080fd5b81019080803573ffffffffffffffffffffffffffffffffffffffff169060200190929190803573ffffffffffffffffffffffffffffffffffffffff16906020019092919080359060200190929190505050611585565b005b34801561041357600080fd5b506104566004803603602081101561042a57600080fd5b81019080803573ffffffffffffffffffffffffffffffffffffffff1690602001909291905050506115fb565b6040518082815260200191505060405180910390f35b34801561047857600080fd5b506104c56004803603604081101561048f57600080fd5b81019080803573ffffffffffffffffffffffffffffffffffffffff16906020019092919080359060200190929190505050611613565b6040518082815260200191505060405180910390f35b3480156104e757600080fd5b50610554600480360360608110156104fe57600080fd5b81019080803573ffffffffffffffffffffffffffffffffffffffff169060200190929190803573ffffffffffffffffffffffffffffffffffffffff1690602001909291908035906020019092919050505061166e565b005b34801561056257600080fd5b5061058f6004803603602081101561057957600080fd5b810190808035906020019092919050505061168e565b6040518082815260200191505060405180910390f35b3480156105b157600080fd5b506105ba6116b1565b60405180821515815260200191505060405180910390f35b3480156105de57600080fd5b5061060b600480360360208110156105f557600080fd5b81019080803590602001909291905050506116c8565b604051808273ffffffffffffffffffffffffffffffffffffffff16815260200191505060405180910390f35b34801561064357600080fd5b5061064c6116ff565b6040518080602001828103825283818151815260200191508051906020019080838360005b8381101561068c578082015181840152602081019050610671565b50505050905090810190601f1680156106b95780820380516001836020036101000a031916815260200191505b509250505060405180910390f35b3480156106d357600080fd5b50610720600480360360408110156106ea57600080fd5b81019080803573ffffffffffffffffffffffffffffffffffffffff169060200190929190803590602001909291905050506117a1565b604051808873ffffffffffffffffffffffffffffffffffffffff168152602001806020018773ffffffffffffffffffffffffffffffffffffffff16815260200180602001806020018681526020018060200185810385528b818151815260200191508051906020019080838360005b838110156107aa57808201518184015260208101905061078f565b50505050905090810190601f1680156107d75780820380516001836020036101000a031916815260200191505b50858103845289818151815260200191508051906020019080838360005b838110156108105780820151818401526020810190506107f5565b50505050905090810190601f16801561083d5780820380516001836020036101000a031916815260200191505b50858103835288818151815260200191508051906020019080838360005b8381101561087657808201518184015260208101905061085b565b50505050905090810190601f1680156108a35780820380516001836020036101000a031916815260200191505b50858103825286818151815260200191508051906020019080838360005b838110156108dc5780820151818401526020810190506108c1565b50505050905090810190601f1680156109095780820380516001836020036101000a031916815260200191505b509b50505050505050505050505060405180910390f35b34801561092c57600080fd5b5061096f6004803603602081101561094357600080fd5b81019080803573ffffffffffffffffffffffffffffffffffffffff169060200190929190505050611a90565b6040518082815260200191505060405180910390f35b34801561099157600080fd5b506109d4600480360360208110156109a857600080fd5b81019080803573ffffffffffffffffffffffffffffffffffffffff169060200190929190505050611b65565b6040518082815260200191505060405180910390f35b3480156109f657600080fd5b506109ff611b7d565b604051808273ffffffffffffffffffffffffffffffffffffffff16815260200191505060405180910390f35b348015610a3757600080fd5b50610a40611ba3565b6040518080602001828103825283818151815260200191508051906020019080838360005b83811015610a80578082015181840152602081019050610a65565b50505050905090810190601f168015610aad5780820380516001836020036101000a031916815260200191505b509250505060405180910390f35b348015610ac757600080fd5b50610af460048036036020811015610ade57600080fd5b8101908080359060200190929190505050611c45565b604051808b73ffffffffffffffffffffffffffffffffffffffff16815260200180602001806020018a73ffffffffffffffffffffffffffffffffffffffff16815260200189151581526020018881526020018781526020018681526020018573ffffffffffffffffffffffffffffffffffffffff168152602001841515815260200183810383528c818151815260200191508051906020019080838360005b83811015610bae578082015181840152602081019050610b93565b50505050905090810190601f168015610bdb5780820380516001836020036101000a031916815260200191505b5083810382528b818151815260200191508051906020019080838360005b83811015610c14578082015181840152602081019050610bf9565b50505050905090810190601f168015610c415780820380516001836020036101000a031916815260200191505b509c5050505050505050505050505060405180910390f35b348015610c6557600080fd5b50610e376004803603610100811015610c7d57600080fd5b81019080803573ffffffffffffffffffffffffffffffffffffffff16906020019092919080359060200190640100000000811115610cba57600080fd5b820183602082011115610ccc57600080fd5b80359060200191846001830284011164010000000083111715610cee57600080fd5b91908080601f016020809104026020016040519081016040528093929190818152602001838380828437600081840152601f19601f82011690508083019250505050505050919291929080359060200190640100000000811115610d5157600080fd5b820183602082011115610d6357600080fd5b80359060200191846001830284011164010000000083111715610d8557600080fd5b91908080601f016020809104026020016040519081016040528093929190818152602001838380828437600081840152601f19601f820116905080830192505050505050509192919290803573ffffffffffffffffffffffffffffffffffffffff1690602001909291908035151590602001909291908035906020019092919080359060200190929190803573ffffffffffffffffffffffffffffffffffffffff169060200190929190505050611e43565b6040518082815260200191505060405180910390f35b348015610e5957600080fd5b50610ea860048036036040811015610e7057600080fd5b81019080803573ffffffffffffffffffffffffffffffffffffffff16906020019092919080351515906020019092919050505061220f565b005b610ee060048036036040811015610ec057600080fd5b8101908080359060200190929190803590602001909291905050506123c5565b60405180821515815260200191505060405180910390f35b348015610f0457600080fd5b5061100860048036036080811015610f1b57600080fd5b81019080803573ffffffffffffffffffffffffffffffffffffffff169060200190929190803573ffffffffffffffffffffffffffffffffffffffff1690602001909291908035906020019092919080359060200190640100000000811115610f8257600080fd5b820183602082011115610f9457600080fd5b80359060200191846001830284011164010000000083111715610fb657600080fd5b91908080601f016020809104026020016040519081016040528093929190818152602001838380828437600081840152601f19601f820116905080830192505050505050509192919290505050612d1b565b005b34801561101657600080fd5b506110436004803603602081101561102d57600080fd5b8101908080359060200190929190505050612d93565b6040518080602001828103825283818151815260200191508051906020019080838360005b83811015611083578082015181840152602081019050611068565b50505050905090810190601f1680156110b05780820380516001836020036101000a031916815260200191505b509250505060405180910390f35b3480156110ca57600080fd5b506111ae600480360360608110156110e157600080fd5b8101908080359060200190929190803573ffffffffffffffffffffffffffffffffffffffff1690602001909291908035906020019064010000000081111561112857600080fd5b82018360208201111561113a57600080fd5b8035906020019184600183028401116401000000008311171561115c57600080fd5b91908080601f016020809104026020016040519081016040528093929190818152602001838380828437600081840152601f19601f82011690508083019250505050505050919291929050505061307c565b6040518082815260200191505060405180910390f35b3480156111d057600080fd5b50611233600480360360408110156111e757600080fd5b81019080803573ffffffffffffffffffffffffffffffffffffffff169060200190929190803573ffffffffffffffffffffffffffffffffffffffff169060200190929190505050613123565b60405180821515815260200191505060405180910390f35b34801561125757600080fd5b506112606131b7565b604051808273ffffffffffffffffffffffffffffffffffffffff16815260200191505060405180910390f35b6000806000837bffffffffffffffffffffffffffffffffffffffffffffffffffffffff19167bffffffffffffffffffffffffffffffffffffffffffffffffffffffff1916815260200190815260200160002060009054906101000a900460ff169050919050565b606060068054600181600116156101000203166002900480601f01602080910402602001604051908101604052809291908181526020018280546001816001161561010002031660029004801561138b5780601f106113605761010080835404028352916020019161138b565b820191906000526020600020905b81548152906001019060200180831161136e57829003601f168201915b5050505050905090565b60006113a0826131dd565b6113f5576040517f08c379a000000000000000000000000000000000000000000000000000000000815260040180806020018281038252602c815260200180614ada602c913960400191505060405180910390fd5b6004600083815260200190815260200160002060009054906101000a900473ffffffffffffffffffffffffffffffffffffffff169050919050565b600061143b826116c8565b90508073ffffffffffffffffffffffffffffffffffffffff168373ffffffffffffffffffffffffffffffffffffffff1614156114c2576040517f08c379a0000000000000000000000000000000000000000000000000000000008152600401808060200182810382526021815260200180614b8a6021913960400191505060405180910390fd5b8073ffffffffffffffffffffffffffffffffffffffff166114e16131fa565b73ffffffffffffffffffffffffffffffffffffffff161480611510575061150f8161150a6131fa565b613123565b5b611565576040517f08c379a0000000000000000000000000000000000000000000000000000000008152600401808060200182810382526038815260200180614a2d6038913960400191505060405180910390fd5b61156f8383613202565b505050565b600061158060026132bb565b905090565b6115966115906131fa565b826132d0565b6115eb576040517f08c379a0000000000000000000000000000000000000000000000000000000008152600401808060200182810382526031815260200180614bab6031913960400191505060405180910390fd5b6115f68383836133c4565b505050565b600d6020528060005260406000206000915090505481565b600061166682600160008673ffffffffffffffffffffffffffffffffffffffff1673ffffffffffffffffffffffffffffffffffffffff16815260200190815260200160002061360790919063ffffffff16565b905092915050565b61168983838360405180602001604052806000815250612d1b565b505050565b6000806116a583600261362190919063ffffffff16565b50905080915050919050565b6000600a60009054906101000a900460ff16905090565b60006116f882604051806060016040528060298152602001614a8f60299139600261364d9092919063ffffffff16565b9050919050565b606060098054600181600116156101000203166002900480601f0160208091040260200160405190810160405280929190818152602001828054600181600116156101000203166002900480156117975780601f1061176c57610100808354040283529160200191611797565b820191906000526020600020905b81548152906001019060200180831161177a57829003601f168201915b5050505050905090565b600e602052816000526040600020602052806000526040600020600091509150508060000160009054906101000a900473ffffffffffffffffffffffffffffffffffffffff1690806001018054600181600116156101000203166002900480601f0160208091040260200160405190810160405280929190818152602001828054600181600116156101000203166002900480156118805780601f1061185557610100808354040283529160200191611880565b820191906000526020600020905b81548152906001019060200180831161186357829003601f168201915b5050505050908060020160009054906101000a900473ffffffffffffffffffffffffffffffffffffffff1690806003018054600181600116156101000203166002900480601f0160208091040260200160405190810160405280929190818152602001828054600181600116156101000203166002900480156119445780601f1061191957610100808354040283529160200191611944565b820191906000526020600020905b81548152906001019060200180831161192757829003601f168201915b505050505090806004018054600181600116156101000203166002900480601f0160208091040260200160405190810160405280929190818152602001828054600181600116156101000203166002900480156119e25780601f106119b7576101008083540402835291602001916119e2565b820191906000526020600020905b8154815290600101906020018083116119c557829003601f168201915b505050505090806005015490806006018054600181600116156101000203166002900480601f016020809104026020016040519081016040528092919081815260200182805460018160011615610100020316600290048015611a865780601f10611a5b57610100808354040283529160200191611a86565b820191906000526020600020905b815481529060010190602001808311611a6957829003601f168201915b5050505050905087565b60008073ffffffffffffffffffffffffffffffffffffffff168273ffffffffffffffffffffffffffffffffffffffff161415611b17576040517f08c379a000000000000000000000000000000000000000000000000000000000815260040180806020018281038252602a815260200180614a65602a913960400191505060405180910390fd5b611b5e600160008473ffffffffffffffffffffffffffffffffffffffff1673ffffffffffffffffffffffffffffffffffffffff16815260200190815260200160002061366c565b9050919050565b600b6020528060005260406000206000915090505481565b601060009054906101000a900473ffffffffffffffffffffffffffffffffffffffff1681565b606060078054600181600116156101000203166002900480601f016020809104026020016040519081016040528092919081815260200182805460018160011615610100020316600290048015611c3b5780601f10611c1057610100808354040283529160200191611c3b565b820191906000526020600020905b815481529060010190602001808311611c1e57829003601f168201915b5050505050905090565b600c6020528060005260406000206000915090508060000160009054906101000a900473ffffffffffffffffffffffffffffffffffffffff1690806001018054600181600116156101000203166002900480601f016020809104026020016040519081016040528092919081815260200182805460018160011615610100020316600290048015611d175780601f10611cec57610100808354040283529160200191611d17565b820191906000526020600020905b815481529060010190602001808311611cfa57829003601f168201915b505050505090806002018054600181600116156101000203166002900480601f016020809104026020016040519081016040528092919081815260200182805460018160011615610100020316600290048015611db55780601f10611d8a57610100808354040283529160200191611db5565b820191906000526020600020905b815481529060010190602001808311611d9857829003601f168201915b5050505050908060030160009054906101000a900473ffffffffffffffffffffffffffffffffffffffff16908060030160149054906101000a900460ff16908060040154908060050154908060060154908060070160009054906101000a900473ffffffffffffffffffffffffffffffffffffffff16908060070160149054906101000a900460ff1690508a565b6000600b60008a73ffffffffffffffffffffffffffffffffffffffff1673ffffffffffffffffffffffffffffffffffffffff168152602001908152602001600020600081548092919060010191905055506000600b60008b73ffffffffffffffffffffffffffffffffffffffff1673ffffffffffffffffffffffffffffffffffffffff1681526020019081526020016000205490506040518061014001604052808b73ffffffffffffffffffffffffffffffffffffffff1681526020018a81526020018981526020018873ffffffffffffffffffffffffffffffffffffffff16815260200187151581526020018681526020014281526020018581526020018473ffffffffffffffffffffffffffffffffffffffff16815260200160011515815250600c600083815260200190815260200160002060008201518160000160006101000a81548173ffffffffffffffffffffffffffffffffffffffff021916908373ffffffffffffffffffffffffffffffffffffffff1602179055506020820151816001019080519060200190611fdb929190614844565b506040820151816002019080519060200190611ff8929190614844565b5060608201518160030160006101000a81548173ffffffffffffffffffffffffffffffffffffffff021916908373ffffffffffffffffffffffffffffffffffffffff16021790555060808201518160030160146101000a81548160ff02191690831515021790555060a0820151816004015560c0820151816005015560e082015181600601556101008201518160070160006101000a81548173ffffffffffffffffffffffffffffffffffffffff021916908373ffffffffffffffffffffffffffffffffffffffff1602179055506101208201518160070160146101000a81548160ff021916908315150217905550905050876040518082805190602001908083835b6020831061211e57805182526020820191506020810190506020830392506120fb565b6001836020036101000a0380198251168184511680821785525050505050509050019150506040518091039020818b73ffffffffffffffffffffffffffffffffffffffff167f27cbb566eb604924251497b674c4c5afaa8275d5ef452d9dd86cdd6e0ada15ca8c6040518080602001828103825283818151815260200191508051906020019080838360005b838110156121c55780820151818401526020810190506121aa565b50505050905090810190601f1680156121f25780820380516001836020036101000a031916815260200191505b509250505060405180910390a48091505098975050505050505050565b6122176131fa565b73ffffffffffffffffffffffffffffffffffffffff168273ffffffffffffffffffffffffffffffffffffffff1614156122b8576040517f08c379a00000000000000000000000000000000000000000000000000000000081526004018080602001828103825260198152602001807f4552433732313a20617070726f766520746f2063616c6c65720000000000000081525060200191505060405180910390fd5b80600560006122c56131fa565b73ffffffffffffffffffffffffffffffffffffffff1673ffffffffffffffffffffffffffffffffffffffff16815260200190815260200160002060008473ffffffffffffffffffffffffffffffffffffffff1673ffffffffffffffffffffffffffffffffffffffff16815260200190815260200160002060006101000a81548160ff0219169083151502179055508173ffffffffffffffffffffffffffffffffffffffff166123726131fa565b73ffffffffffffffffffffffffffffffffffffffff167f17307eab39ab6107e8899845ad3d59bd9653f200f220920489ca2b5937696c318360405180821515815260200191505060405180910390a35050565b600080601160009054906101000a900473ffffffffffffffffffffffffffffffffffffffff1673ffffffffffffffffffffffffffffffffffffffff166370a08231336040518263ffffffff1660e01b8152600401808273ffffffffffffffffffffffffffffffffffffffff16815260200191505060206040518083038186803b15801561245157600080fd5b505afa158015612465573d6000803e3d6000fd5b505050506040513d602081101561247b57600080fd5b81019080805190602001909291905050501015612500576040517f08c379a00000000000000000000000000000000000000000000000000000000081526004018080602001828103825260158152602001807f496e76616c696420746f6b656e2062616c616e6365000000000000000000000081525060200191505060405180910390fd5b6000601160009054906101000a900473ffffffffffffffffffffffffffffffffffffffff1673ffffffffffffffffffffffffffffffffffffffff1663dd62ed3e33306040518363ffffffff1660e01b8152600401808373ffffffffffffffffffffffffffffffffffffffff1681526020018273ffffffffffffffffffffffffffffffffffffffff1681526020019250505060206040518083038186803b1580156125a957600080fd5b505afa1580156125bd573d6000803e3d6000fd5b505050506040513d60208110156125d357600080fd5b81019080805190602001909291905050501015612658576040517f08c379a00000000000000000000000000000000000000000000000000000000081526004018080602001828103825260178152602001807f496e76616c696420746f6b656e20616c6c6f77616e636500000000000000000081525060200191505060405180910390fd5b6000600b60003073ffffffffffffffffffffffffffffffffffffffff1673ffffffffffffffffffffffffffffffffffffffff1681526020019081526020016000205490506000600c6000838152602001908152602001600020604051806101400160405290816000820160009054906101000a900473ffffffffffffffffffffffffffffffffffffffff1673ffffffffffffffffffffffffffffffffffffffff1673ffffffffffffffffffffffffffffffffffffffff168152602001600182018054600181600116156101000203166002900480601f0160208091040260200160405190810160405280929190818152602001828054600181600116156101000203166002900480156127ac5780601f10612781576101008083540402835291602001916127ac565b820191906000526020600020905b81548152906001019060200180831161278f57829003601f168201915b50505050508152602001600282018054600181600116156101000203166002900480601f01602080910402602001604051908101604052809291908181526020018280546001816001161561010002031660029004801561284e5780601f106128235761010080835404028352916020019161284e565b820191906000526020600020905b81548152906001019060200180831161283157829003601f168201915b505050505081526020016003820160009054906101000a900473ffffffffffffffffffffffffffffffffffffffff1673ffffffffffffffffffffffffffffffffffffffff1673ffffffffffffffffffffffffffffffffffffffff1681526020016003820160149054906101000a900460ff161515151581526020016004820154815260200160058201548152602001600682015481526020016007820160009054906101000a900473ffffffffffffffffffffffffffffffffffffffff1673ffffffffffffffffffffffffffffffffffffffff1673ffffffffffffffffffffffffffffffffffffffff1681526020016007820160149054906101000a900460ff161515151581525050905061296284613681565b601160009054906101000a900473ffffffffffffffffffffffffffffffffffffffff1673ffffffffffffffffffffffffffffffffffffffff166323b872dd3383606001518460a001516040518463ffffffff1660e01b8152600401808473ffffffffffffffffffffffffffffffffffffffff1681526020018373ffffffffffffffffffffffffffffffffffffffff1681526020018281526020019350505050602060405180830381600087803b158015612a1b57600080fd5b505af1158015612a2f573d6000803e3d6000fd5b505050506040513d6020811015612a4557600080fd5b8101908080519060200190929190505050612ac8576040517f08c379a000000000000000000000000000000000000000000000000000000000815260040180806020018281038252601e8152602001807f5472616e73666572206661696c656420666f72206261736520746f6b656e000081525060200191505060405180910390fd5b601160009054906101000a900473ffffffffffffffffffffffffffffffffffffffff1673ffffffffffffffffffffffffffffffffffffffff166323b872dd338361010001518460e001516040518463ffffffff1660e01b8152600401808473ffffffffffffffffffffffffffffffffffffffff1681526020018373ffffffffffffffffffffffffffffffffffffffff1681526020018281526020019350505050602060405180830381600087803b158015612b8257600080fd5b505af1158015612b96573d6000803e3d6000fd5b505050506040513d6020811015612bac57600080fd5b8101908080519060200190929190505050612c2f576040517f08c379a000000000000000000000000000000000000000000000000000000000815260040180806020018281038252601e8152602001807f5472616e73666572206661696c656420666f72206261736520746f6b656e000081525060200191505060405180910390fd5b6000851115612c9c57600280811115612c4457fe5b600e60003073ffffffffffffffffffffffffffffffffffffffff1673ffffffffffffffffffffffffffffffffffffffff1681526020019081526020016000206000878152602001908152602001600020600501819055505b7f922440b9b32ceea32c28a1e3eaab6666b0c219fb8184013c17bc787fc6be8ecb303386604051808473ffffffffffffffffffffffffffffffffffffffff1681526020018373ffffffffffffffffffffffffffffffffffffffff168152602001828152602001935050505060405180910390a160019250505092915050565b612d2c612d266131fa565b836132d0565b612d81576040517f08c379a0000000000000000000000000000000000000000000000000000000008152600401808060200182810382526031815260200180614bab6031913960400191505060405180910390fd5b612d8d848484846137bb565b50505050565b6060612d9e826131dd565b612df3576040517f08c379a000000000000000000000000000000000000000000000000000000000815260040180806020018281038252602f815260200180614b5b602f913960400191505060405180910390fd5b6000600860008481526020019081526020016000208054600181600116156101000203166002900480601f016020809104026020016040519081016040528092919081815260200182805460018160011615610100020316600290048015612e9c5780601f10612e7157610100808354040283529160200191612e9c565b820191906000526020600020905b815481529060010190602001808311612e7f57829003601f168201915b50505050509050600060098054600181600116156101000203166002900490501415612ecb5780915050613077565b600081511115612fa4576009816040516020018083805460018160011615610100020316600290048015612f365780601f10612f14576101008083540402835291820191612f36565b820191906000526020600020905b815481529060010190602001808311612f22575b505082805190602001908083835b60208310612f675780518252602082019150602081019050602083039250612f44565b6001836020036101000a03801982511681845116808217855250505050505090500192505050604051602081830303815290604052915050613077565b6009612faf8461382d565b604051602001808380546001816001161561010002031660029004801561300d5780601f10612feb57610100808354040283529182019161300d565b820191906000526020600020905b815481529060010190602001808311612ff9575b505082805190602001908083835b6020831061303e578051825260208201915060208101905060208303925061301b565b6001836020036101000a038019825116818451168082178552505050505050905001925050506040516020818303038152906040529150505b919050565b6000613088600f613974565b6000613094600f61398a565b90506130a08482613998565b6130aa81846139b6565b600085111561311857600160028111156130c057fe5b600e60003073ffffffffffffffffffffffffffffffffffffffff1673ffffffffffffffffffffffffffffffffffffffff1681526020019081526020016000206000878152602001908152602001600020600501819055505b809150509392505050565b6000600560008473ffffffffffffffffffffffffffffffffffffffff1673ffffffffffffffffffffffffffffffffffffffff16815260200190815260200160002060008373ffffffffffffffffffffffffffffffffffffffff1673ffffffffffffffffffffffffffffffffffffffff16815260200190815260200160002060009054906101000a900460ff16905092915050565b601160009054906101000a900473ffffffffffffffffffffffffffffffffffffffff1681565b60006131f3826002613a4090919063ffffffff16565b9050919050565b600033905090565b816004600083815260200190815260200160002060006101000a81548173ffffffffffffffffffffffffffffffffffffffff021916908373ffffffffffffffffffffffffffffffffffffffff160217905550808273ffffffffffffffffffffffffffffffffffffffff16613275836116c8565b73ffffffffffffffffffffffffffffffffffffffff167f8c5be1e5ebec7d5bd14f71427d1e84f3dd0314c0f7b2291e5b200ac8c7c3b92560405160405180910390a45050565b60006132c982600001613a5a565b9050919050565b60006132db826131dd565b613330576040517f08c379a000000000000000000000000000000000000000000000000000000000815260040180806020018281038252602c815260200180614a01602c913960400191505060405180910390fd5b600061333b836116c8565b90508073ffffffffffffffffffffffffffffffffffffffff168473ffffffffffffffffffffffffffffffffffffffff1614806133aa57508373ffffffffffffffffffffffffffffffffffffffff1661339284611395565b73ffffffffffffffffffffffffffffffffffffffff16145b806133bb57506133ba8185613123565b5b91505092915050565b8273ffffffffffffffffffffffffffffffffffffffff166133e4826116c8565b73ffffffffffffffffffffffffffffffffffffffff1614613450576040517f08c379a0000000000000000000000000000000000000000000000000000000008152600401808060200182810382526029815260200180614b326029913960400191505060405180910390fd5b600073ffffffffffffffffffffffffffffffffffffffff168273ffffffffffffffffffffffffffffffffffffffff1614156134d6576040517f08c379a00000000000000000000000000000000000000000000000000000000081526004018080602001828103825260248152602001806149b76024913960400191505060405180910390fd5b6134e1838383613a6b565b6134ec600082613202565b61353d81600160008673ffffffffffffffffffffffffffffffffffffffff1673ffffffffffffffffffffffffffffffffffffffff168152602001908152602001600020613a7b90919063ffffffff16565b5061358f81600160008573ffffffffffffffffffffffffffffffffffffffff1673ffffffffffffffffffffffffffffffffffffffff168152602001908152602001600020613a9590919063ffffffff16565b506135a681836002613aaf9092919063ffffffff16565b50808273ffffffffffffffffffffffffffffffffffffffff168473ffffffffffffffffffffffffffffffffffffffff167fddf252ad1be2c89b69c2b068fc378daa952ba7f163c4a11628f55a4df523b3ef60405160405180910390a4505050565b60006136168360000183613ae4565b60001c905092915050565b6000806000806136348660000186613b67565b915091508160001c8160001c9350935050509250929050565b6000613660846000018460001b84613c00565b60001c90509392505050565b600061367a82600001613cf6565b9050919050565b600061368c826116c8565b905061369a81600084613a6b565b6136a5600083613202565b600060086000848152602001908152602001600020805460018160011615610100020316600290049050146136f4576008600083815260200190815260200160002060006136f391906148d2565b5b61374582600160008473ffffffffffffffffffffffffffffffffffffffff1673ffffffffffffffffffffffffffffffffffffffff168152602001908152602001600020613a7b90919063ffffffff16565b5061375a826002613d0790919063ffffffff16565b5081600073ffffffffffffffffffffffffffffffffffffffff168273ffffffffffffffffffffffffffffffffffffffff167fddf252ad1be2c89b69c2b068fc378daa952ba7f163c4a11628f55a4df523b3ef60405160405180910390a45050565b6137c68484846133c4565b6137d284848484613d21565b613827576040517f08c379a00000000000000000000000000000000000000000000000000000000081526004018080602001828103825260328152602001806149856032913960400191505060405180910390fd5b50505050565b60606000821415613875576040518060400160405280600181526020017f3000000000000000000000000000000000000000000000000000000000000000815250905061396f565b600082905060005b6000821461389f578080600101915050600a828161389757fe5b04915061387d565b60008167ffffffffffffffff811180156138b857600080fd5b506040519080825280601f01601f1916602001820160405280156138eb5781602001600182028036833780820191505090505b50905060006001830390508593505b6000841461396757600a848161390c57fe5b0660300160f81b8282806001900393508151811061392657fe5b60200101907effffffffffffffffffffffffffffffffffffffffffffffffffffffffffffff1916908160001a905350600a848161395f57fe5b0493506138fa565b819450505050505b919050565b6001816000016000828254019250508190555050565b600081600001549050919050565b6139b2828260405180602001604052806000815250613f3a565b5050565b6139bf826131dd565b613a14576040517f08c379a000000000000000000000000000000000000000000000000000000000815260040180806020018281038252602c815260200180614b06602c913960400191505060405180910390fd5b80600860008481526020019081526020016000209080519060200190613a3b929190614844565b505050565b6000613a52836000018360001b613fab565b905092915050565b600081600001805490509050919050565b613a76838383613fce565b505050565b6000613a8d836000018360001b61403c565b905092915050565b6000613aa7836000018360001b614124565b905092915050565b6000613adb846000018460001b8473ffffffffffffffffffffffffffffffffffffffff1660001b614194565b90509392505050565b600081836000018054905011613b45576040517f08c379a00000000000000000000000000000000000000000000000000000000081526004018080602001828103825260228152602001806149386022913960400191505060405180910390fd5b826000018281548110613b5457fe5b9060005260206000200154905092915050565b60008082846000018054905011613bc9576040517f08c379a0000000000000000000000000000000000000000000000000000000008152600401808060200182810382526022815260200180614ab86022913960400191505060405180910390fd5b6000846000018481548110613bda57fe5b906000526020600020906002020190508060000154816001015492509250509250929050565b60008084600101600085815260200190815260200160002054905060008114158390613cc7576040517f08c379a00000000000000000000000000000000000000000000000000000000081526004018080602001828103825283818151815260200191508051906020019080838360005b83811015613c8c578082015181840152602081019050613c71565b50505050905090810190601f168015613cb95780820380516001836020036101000a031916815260200191505b509250505060405180910390fd5b50846000016001820381548110613cda57fe5b9060005260206000209060020201600101549150509392505050565b600081600001805490509050919050565b6000613d19836000018360001b614270565b905092915050565b6000613d428473ffffffffffffffffffffffffffffffffffffffff16614389565b613d4f5760019050613f32565b6000613eb963150b7a0260e01b613d646131fa565b888787604051602401808573ffffffffffffffffffffffffffffffffffffffff1681526020018473ffffffffffffffffffffffffffffffffffffffff16815260200183815260200180602001828103825283818151815260200191508051906020019080838360005b83811015613de8578082015181840152602081019050613dcd565b50505050905090810190601f168015613e155780820380516001836020036101000a031916815260200191505b5095505050505050604051602081830303815290604052907bffffffffffffffffffffffffffffffffffffffffffffffffffffffff19166020820180517bffffffffffffffffffffffffffffffffffffffffffffffffffffffff8381831617835250505050604051806060016040528060328152602001614985603291398773ffffffffffffffffffffffffffffffffffffffff1661439c9092919063ffffffff16565b90506000818060200190516020811015613ed257600080fd5b8101908080519060200190929190505050905063150b7a0260e01b7bffffffffffffffffffffffffffffffffffffffffffffffffffffffff1916817bffffffffffffffffffffffffffffffffffffffffffffffffffffffff191614925050505b949350505050565b613f4483836143b4565b613f516000848484613d21565b613fa6576040517f08c379a00000000000000000000000000000000000000000000000000000000081526004018080602001828103825260328152602001806149856032913960400191505060405180910390fd5b505050565b600080836001016000848152602001908152602001600020541415905092915050565b613fd98383836145a8565b613fe16116b1565b15614037576040517f08c379a000000000000000000000000000000000000000000000000000000000815260040180806020018281038252602b81526020018061495a602b913960400191505060405180910390fd5b505050565b60008083600101600084815260200190815260200160002054905060008114614118576000600182039050600060018660000180549050039050600086600001828154811061408757fe5b90600052602060002001549050808760000184815481106140a457fe5b90600052602060002001819055506001830187600101600083815260200190815260200160002081905550866000018054806140dc57fe5b6001900381819060005260206000200160009055905586600101600087815260200190815260200160002060009055600194505050505061411e565b60009150505b92915050565b600061413083836145ad565b61418957826000018290806001815401808255809150506001900390600052602060002001600090919091909150558260000180549050836001016000848152602001908152602001600020819055506001905061418e565b600090505b92915050565b600080846001016000858152602001908152602001600020549050600081141561423b57846000016040518060400160405280868152602001858152509080600181540180825580915050600190039060005260206000209060020201600090919091909150600082015181600001556020820151816001015550508460000180549050856001016000868152602001908152602001600020819055506001915050614269565b8285600001600183038154811061424e57fe5b90600052602060002090600202016001018190555060009150505b9392505050565b6000808360010160008481526020019081526020016000205490506000811461437d57600060018203905060006001866000018054905003905060008660000182815481106142bb57fe5b90600052602060002090600202019050808760000184815481106142db57fe5b906000526020600020906002020160008201548160000155600182015481600101559050506001830187600101600083600001548152602001908152602001600020819055508660000180548061432e57fe5b6001900381819060005260206000209060020201600080820160009055600182016000905550509055866001016000878152602001908152602001600020600090556001945050505050614383565b60009150505b92915050565b600080823b905060008111915050919050565b60606143ab84846000856145d0565b90509392505050565b600073ffffffffffffffffffffffffffffffffffffffff168273ffffffffffffffffffffffffffffffffffffffff161415614457576040517f08c379a00000000000000000000000000000000000000000000000000000000081526004018080602001828103825260208152602001807f4552433732313a206d696e7420746f20746865207a65726f206164647265737381525060200191505060405180910390fd5b614460816131dd565b156144d3576040517f08c379a000000000000000000000000000000000000000000000000000000000815260040180806020018281038252601c8152602001807f4552433732313a20746f6b656e20616c7265616479206d696e7465640000000081525060200191505060405180910390fd5b6144df60008383613a6b565b61453081600160008573ffffffffffffffffffffffffffffffffffffffff1673ffffffffffffffffffffffffffffffffffffffff168152602001908152602001600020613a9590919063ffffffff16565b5061454781836002613aaf9092919063ffffffff16565b50808273ffffffffffffffffffffffffffffffffffffffff16600073ffffffffffffffffffffffffffffffffffffffff167fddf252ad1be2c89b69c2b068fc378daa952ba7f163c4a11628f55a4df523b3ef60405160405180910390a45050565b505050565b600080836001016000848152602001908152602001600020541415905092915050565b60608247101561462b576040517f08c379a00000000000000000000000000000000000000000000000000000000081526004018080602001828103825260268152602001806149db6026913960400191505060405180910390fd5b61463485614389565b6146a6576040517f08c379a000000000000000000000000000000000000000000000000000000000815260040180806020018281038252601d8152602001807f416464726573733a2063616c6c20746f206e6f6e2d636f6e747261637400000081525060200191505060405180910390fd5b6000808673ffffffffffffffffffffffffffffffffffffffff1685876040518082805190602001908083835b602083106146f557805182526020820191506020810190506020830392506146d2565b6001836020036101000a03801982511681845116808217855250505050505090500191505060006040518083038185875af1925050503d8060008114614757576040519150601f19603f3d011682016040523d82523d6000602084013e61475c565b606091505b509150915061476c828286614778565b92505050949350505050565b606083156147885782905061483d565b60008351111561479b5782518084602001fd5b816040517f08c379a00000000000000000000000000000000000000000000000000000000081526004018080602001828103825283818151815260200191508051906020019080838360005b838110156148025780820151818401526020810190506147e7565b50505050905090810190601f16801561482f5780820380516001836020036101000a031916815260200191505b509250505060405180910390fd5b9392505050565b828054600181600116156101000203166002900490600052602060002090601f01602090048101928261487a57600085556148c1565b82601f1061489357805160ff19168380011785556148c1565b828001600101855582156148c1579182015b828111156148c05782518255916020019190600101906148a5565b5b5090506148ce919061491a565b5090565b50805460018160011615610100020316600290046000825580601f106148f85750614917565b601f016020900490600052602060002090810190614916919061491a565b5b50565b5b8082111561493357600081600090555060010161491b565b509056fe456e756d657261626c655365743a20696e646578206f7574206f6620626f756e64734552433732315061757361626c653a20746f6b656e207472616e73666572207768696c65207061757365644552433732313a207472616e7366657220746f206e6f6e20455243373231526563656976657220696d706c656d656e7465724552433732313a207472616e7366657220746f20746865207a65726f2061646472657373416464726573733a20696e73756666696369656e742062616c616e636520666f722063616c6c4552433732313a206f70657261746f7220717565727920666f72206e6f6e6578697374656e7420746f6b656e4552433732313a20617070726f76652063616c6c6572206973206e6f74206f776e6572206e6f7220617070726f76656420666f7220616c6c4552433732313a2062616c616e636520717565727920666f7220746865207a65726f20616464726573734552433732313a206f776e657220717565727920666f72206e6f6e6578697374656e7420746f6b656e456e756d657261626c654d61703a20696e646578206f7574206f6620626f756e64734552433732313a20617070726f76656420717565727920666f72206e6f6e6578697374656e7420746f6b656e4552433732314d657461646174613a2055524920736574206f66206e6f6e6578697374656e7420746f6b656e4552433732313a207472616e73666572206f6620746f6b656e2074686174206973206e6f74206f776e4552433732314d657461646174613a2055524920717565727920666f72206e6f6e6578697374656e7420746f6b656e4552433732313a20617070726f76616c20746f2063757272656e74206f776e65724552433732313a207472616e736665722063616c6c6572206973206e6f74206f776e6572206e6f7220617070726f766564a2646970667358221220da35edf4866e73c13512d0dee38f24982ed819f07a9a1dea5ad4508065299bed64736f6c63430007060033",
  "immutableReferences": {},
  "source": "pragma solidity ^0.7.0;\nimport \"@openzeppelin/contracts/token/ERC721/ERC721Pausable.sol\";\nimport \"@openzeppelin/contracts/utils/Counters.sol\";\nimport \"./ERC20Interface.sol\";\nimport \"./MinterRegistry.sol\";\n\ncontract NFTDocumentMinter is ERC721Pausable, MinterRegistry {\n \n    using Counters for Counters.Counter;\n    using SafeMath for uint;\n    Counters.Counter private _tokenIds;\n    address public owner;\n    ERC20Interface public stablecoin;\n\n    event BurnSwap(\n        address minter,\n        address from,\n        uint id\n    );\n\n    /**\n    * XDV Data Token\n    */\n    constructor(\n        string memory name,\n        string memory symbol,\n        address tokenAddress\n    ) public ERC721(name, symbol) {\n        owner = msg.sender;\n        stablecoin  = ERC20Interface(tokenAddress);\n    }\n   \n    function mint(uint requestId, address user, string memory tokenURI)\n        public\n        returns (uint256)\n    {\n        _tokenIds.increment();\n\n        uint256 newItemId = _tokenIds.current();\n        _safeMint(user, newItemId);\n        _setTokenURI(newItemId, tokenURI);\n\n        // TODO desplegar el fee de burn\n        if (requestId > 0) {\n            minterDocumentRequests[address(this)][requestId].status = uint(DocumentMintingRequestStatus.MINTED);\n        }\n\n        return newItemId;\n    }   \n\n    function burn(uint requestId, uint tokenId)\n        public\n        payable\n        returns (bool)\n    {\n\n        // User must have a balance\n        require(\n            stablecoin.balanceOf(msg.sender) >= 0,\n            \"Invalid token balance\"\n        );\n        // User must have an allowance\n        require(\n            stablecoin.allowance(msg.sender, address(this)) >= 0,\n            \"Invalid token allowance\"\n        );\n\n        /* require(\n            stablecoin.balanceOf(msg.sender) == (mintingServiceFee.sum(protocolServiceFee)), \n            \"MUST SEND FEE BEFORE USE\");\n        */\n\n        uint index = minterCounter[address(this)];\n        DataProviderMinter memory dataProvider = dataProviderMinters[index];\n        \n        _burn(tokenId);\n\n        // TODO: Update accounting\n        //  - create mappings to data provider accounting\n        //  - create mappings to protocol fee accounting\n\n        // Transfer tokens to NFT owner\n        require(\n            stablecoin.transferFrom(\n                msg.sender, \n                dataProvider.paymentAddress, \n                dataProvider.feeStructure),\n            \"Transfer failed for base token\"\n        );\n\n        // Transfer tokens to pay service fee\n        require(\n            stablecoin.transferFrom(\n                msg.sender, \n                dataProvider.factoryAddress, \n                dataProvider.serviceFee),\n            \"Transfer failed for base token\"\n        );\n\n        // TODO desplegar el fee de burn\n        if (requestId > 0) {\n            minterDocumentRequests[address(this)][requestId].status = uint(DocumentMintingRequestStatus.BURNED);\n        }\n        emit BurnSwap(\n            address(this),\n            msg.sender,\n            tokenId\n        );\n\n        return true;\n    }       \n\n      function _beforeTokenTransfer(address from, address to, uint256 amount)\n        internal virtual override\n    {\n        super._beforeTokenTransfer(from, to, amount);\n\n//        require(_validRecipient(to), \"ERC20WithSafeTransfer: invalid recipient\");\n    }\n\n}",
  "sourcePath": "/home/rogelio/Code/xdv/nft-document-swap/contracts/NFTDocumentMinter.sol",
  "compiler": {
    "name": "solc",
    "version": "0.7.6+commit.7338295f.Emscripten.clang"
  },
  "schemaVersion": "3.3.3",
  "updatedAt": "2021-02-05T16:17:30.944Z",
  "devdoc": {
    "kind": "dev",
    "methods": {
      "approve(address,uint256)": {
        "details": "See {IERC721-approve}."
      },
      "balanceOf(address)": {
        "details": "See {IERC721-balanceOf}."
      },
      "baseURI()": {
        "details": "Returns the base URI set via {_setBaseURI}. This will be automatically added as a prefix in {tokenURI} to each token's URI, or to the token ID if no specific URI is set for that token ID."
      },
      "getApproved(uint256)": {
        "details": "See {IERC721-getApproved}."
      },
      "isApprovedForAll(address,address)": {
        "details": "See {IERC721-isApprovedForAll}."
      },
      "name()": {
        "details": "See {IERC721Metadata-name}."
      },
      "ownerOf(uint256)": {
        "details": "See {IERC721-ownerOf}."
      },
      "paused()": {
        "details": "Returns true if the contract is paused, and false otherwise."
      },
      "safeTransferFrom(address,address,uint256)": {
        "details": "See {IERC721-safeTransferFrom}."
      },
      "safeTransferFrom(address,address,uint256,bytes)": {
        "details": "See {IERC721-safeTransferFrom}."
      },
      "setApprovalForAll(address,bool)": {
        "details": "See {IERC721-setApprovalForAll}."
      },
      "supportsInterface(bytes4)": {
        "details": "See {IERC165-supportsInterface}. Time complexity O(1), guaranteed to always use less than 30 000 gas."
      },
      "symbol()": {
        "details": "See {IERC721Metadata-symbol}."
      },
      "tokenByIndex(uint256)": {
        "details": "See {IERC721Enumerable-tokenByIndex}."
      },
      "tokenOfOwnerByIndex(address,uint256)": {
        "details": "See {IERC721Enumerable-tokenOfOwnerByIndex}."
      },
      "tokenURI(uint256)": {
        "details": "See {IERC721Metadata-tokenURI}."
      },
      "totalSupply()": {
        "details": "See {IERC721Enumerable-totalSupply}."
      },
      "transferFrom(address,address,uint256)": {
        "details": "See {IERC721-transferFrom}."
      }
    },
    "version": 1
  },
  "userdoc": {
    "kind": "user",
    "methods": {
      "constructor": {
        "notice": "XDV Data Token"
      }
    },
    "version": 1
  }
}