{
  "contractName": "NFTFactory",
  "abi": [
    {
      "inputs": [
        {
          "internalType": "address",
          "name": "dai",
          "type": "address"
        }
      ],
      "stateMutability": "nonpayable",
      "type": "constructor"
    },
    {
      "anonymous": false,
      "inputs": [
        {
          "indexed": true,
          "internalType": "address",
          "name": "minter",
          "type": "address"
        },
        {
          "indexed": true,
          "internalType": "uint256",
          "name": "id",
          "type": "uint256"
        },
        {
          "indexed": false,
          "internalType": "string",
          "name": "name",
          "type": "string"
        },
        {
          "indexed": true,
          "internalType": "string",
          "name": "symbol",
          "type": "string"
        }
      ],
      "name": "MinterRegistered",
      "type": "event"
    },
    {
      "anonymous": false,
      "inputs": [
        {
          "indexed": true,
          "internalType": "address",
          "name": "minter",
          "type": "address"
        }
      ],
      "name": "MinterRemoved",
      "type": "event"
    },
    {
      "anonymous": false,
      "inputs": [
        {
          "indexed": true,
          "internalType": "address",
          "name": "payee",
          "type": "address"
        },
        {
          "indexed": false,
          "internalType": "uint256",
          "name": "weiAmount",
          "type": "uint256"
        }
      ],
      "name": "Withdrawn",
      "type": "event"
    },
    {
      "inputs": [
        {
          "internalType": "address",
          "name": "minter",
          "type": "address"
        },
        {
          "internalType": "string",
          "name": "name",
          "type": "string"
        },
        {
          "internalType": "string",
          "name": "symbol",
          "type": "string"
        },
        {
          "internalType": "address",
          "name": "paymentAddress",
          "type": "address"
        },
        {
          "internalType": "bool",
          "name": "hasUserKyc",
          "type": "bool"
        },
        {
          "internalType": "uint256",
          "name": "feeStructure",
          "type": "uint256"
        },
        {
          "internalType": "uint256",
          "name": "serviceFee",
          "type": "uint256"
        },
        {
          "internalType": "address",
          "name": "factoryAddress",
          "type": "address"
        }
      ],
      "name": "addToRegistry",
      "outputs": [
        {
          "internalType": "uint256",
          "name": "",
          "type": "uint256"
        }
      ],
      "stateMutability": "nonpayable",
      "type": "function"
    },
    {
      "inputs": [],
      "name": "daiToken",
      "outputs": [
        {
          "internalType": "contract ERC20Interface",
          "name": "",
          "type": "address"
        }
      ],
      "stateMutability": "view",
      "type": "function",
      "constant": true
    },
    {
      "inputs": [
        {
          "internalType": "uint256",
          "name": "",
          "type": "uint256"
        }
      ],
      "name": "dataProviderMinters",
      "outputs": [
        {
          "internalType": "address",
          "name": "minterAddress",
          "type": "address"
        },
        {
          "internalType": "string",
          "name": "name",
          "type": "string"
        },
        {
          "internalType": "string",
          "name": "symbol",
          "type": "string"
        },
        {
          "internalType": "address",
          "name": "paymentAddress",
          "type": "address"
        },
        {
          "internalType": "bool",
          "name": "hasUserKyc",
          "type": "bool"
        },
        {
          "internalType": "uint256",
          "name": "feeStructure",
          "type": "uint256"
        },
        {
          "internalType": "uint256",
          "name": "created",
          "type": "uint256"
        },
        {
          "internalType": "uint256",
          "name": "serviceFee",
          "type": "uint256"
        },
        {
          "internalType": "address",
          "name": "factoryAddress",
          "type": "address"
        },
        {
          "internalType": "bool",
          "name": "enabled",
          "type": "bool"
        }
      ],
      "stateMutability": "view",
      "type": "function",
      "constant": true
    },
    {
      "inputs": [
        {
          "internalType": "address",
          "name": "",
          "type": "address"
        }
      ],
      "name": "minterCounter",
      "outputs": [
        {
          "internalType": "uint256",
          "name": "",
          "type": "uint256"
        }
      ],
      "stateMutability": "view",
      "type": "function",
      "constant": true
    },
    {
      "inputs": [
        {
          "internalType": "address",
          "name": "",
          "type": "address"
        }
      ],
      "name": "minterDocumentRequestCounter",
      "outputs": [
        {
          "internalType": "uint256",
          "name": "",
          "type": "uint256"
        }
      ],
      "stateMutability": "view",
      "type": "function",
      "constant": true
    },
    {
      "inputs": [
        {
          "internalType": "uint256",
          "name": "",
          "type": "uint256"
        }
      ],
      "name": "minterDocumentRequests",
      "outputs": [
        {
          "internalType": "address",
          "name": "user",
          "type": "address"
        },
        {
          "internalType": "string",
          "name": "userDid",
          "type": "string"
        },
        {
          "internalType": "address",
          "name": "toMinter",
          "type": "address"
        },
        {
          "internalType": "string",
          "name": "toMinterDid",
          "type": "string"
        },
        {
          "internalType": "string",
          "name": "documentURI",
          "type": "string"
        },
        {
          "internalType": "uint256",
          "name": "status",
          "type": "uint256"
        },
        {
          "internalType": "string",
          "name": "description",
          "type": "string"
        }
      ],
      "stateMutability": "view",
      "type": "function",
      "constant": true
    },
    {
      "inputs": [],
      "name": "owner",
      "outputs": [
        {
          "internalType": "address",
          "name": "",
          "type": "address"
        }
      ],
      "stateMutability": "view",
      "type": "function",
      "constant": true
    },
    {
      "inputs": [
        {
          "internalType": "uint256",
          "name": "_fee",
          "type": "uint256"
        }
      ],
      "name": "setProtocolFee",
      "outputs": [],
      "stateMutability": "nonpayable",
      "type": "function"
    },
    {
      "inputs": [],
      "name": "getProtocolFee",
      "outputs": [
        {
          "internalType": "uint256",
          "name": "",
          "type": "uint256"
        }
      ],
      "stateMutability": "nonpayable",
      "type": "function"
    },
    {
      "inputs": [
        {
          "internalType": "address payable",
          "name": "payee",
          "type": "address"
        }
      ],
      "name": "withdraw",
      "outputs": [],
      "stateMutability": "nonpayable",
      "type": "function"
    },
    {
      "inputs": [
        {
          "internalType": "address payable",
          "name": "payee",
          "type": "address"
        },
        {
          "internalType": "address",
          "name": "token",
          "type": "address"
        }
      ],
      "name": "withdrawToken",
      "outputs": [],
      "stateMutability": "nonpayable",
      "type": "function"
    },
    {
      "inputs": [
        {
          "internalType": "address",
          "name": "minter",
          "type": "address"
        },
        {
          "internalType": "string",
          "name": "name",
          "type": "string"
        },
        {
          "internalType": "string",
          "name": "symbol",
          "type": "string"
        },
        {
          "internalType": "address",
          "name": "paymentAddress",
          "type": "address"
        },
        {
          "internalType": "bool",
          "name": "userHasKyc",
          "type": "bool"
        },
        {
          "internalType": "uint256",
          "name": "feeStructure",
          "type": "uint256"
        }
      ],
      "name": "registerMinter",
      "outputs": [
        {
          "internalType": "address",
          "name": "",
          "type": "address"
        }
      ],
      "stateMutability": "nonpayable",
      "type": "function"
    },
    {
      "inputs": [],
      "name": "count",
      "outputs": [
        {
          "internalType": "uint256",
          "name": "",
          "type": "uint256"
        }
      ],
      "stateMutability": "view",
      "type": "function",
      "constant": true
    },
    {
      "inputs": [
        {
          "internalType": "uint256",
          "name": "index",
          "type": "uint256"
        }
      ],
      "name": "get",
      "outputs": [
        {
          "internalType": "address",
          "name": "",
          "type": "address"
        }
      ],
      "stateMutability": "view",
      "type": "function",
      "constant": true
    }
  ],
  "bytecode": "0x60806040523480156200001157600080fd5b5060405162001bcb38038062001bcb8339818101604052810190620000379190620000d7565b80600660006101000a81548173ffffffffffffffffffffffffffffffffffffffff021916908373ffffffffffffffffffffffffffffffffffffffff16021790555033600460006101000a81548173ffffffffffffffffffffffffffffffffffffffff021916908373ffffffffffffffffffffffffffffffffffffffff1602179055505062000151565b600081519050620000d18162000137565b92915050565b600060208284031215620000ea57600080fd5b6000620000fa84828501620000c0565b91505092915050565b6000620001108262000117565b9050919050565b600073ffffffffffffffffffffffffffffffffffffffff82169050919050565b620001428162000103565b81146200014e57600080fd5b50565b611a6a80620001616000396000f3fe608060405234801561001057600080fd5b50600436106100ea5760003560e01c80638da5cb5b1161008c5780639aa94ba5116100665780639aa94ba51461027e5780639f070bd0146102ae578063a5a41031146102de578063be22f546146102fc576100ea565b80638da5cb5b146101f75780639507d39a14610215578063967426ff14610245576100ea565b80633aeac4e1116100c85780633aeac4e11461017357806351cff8d91461018f578063761901bb146101ab578063787dce3d146101db576100ea565b806306661abd146100ef57806318030e7d1461010d5780632aa222c814610143575b600080fd5b6100f761031a565b6040516101049190611811565b60405180910390f35b6101276004803603810190610122919061157f565b61032b565b60405161013a97969594939291906116a1565b60405180910390f35b61015d60048036038101906101589190611356565b61060d565b60405161016a9190611811565b60405180910390f35b61018d600480360381019061018891906113a8565b610625565b005b6101a960048036038101906101a4919061137f565b6107be565b005b6101c560048036038101906101c09190611356565b6108ce565b6040516101d29190611811565b60405180910390f35b6101f560048036038101906101f0919061157f565b6108e6565b005b6101ff610980565b60405161020c9190611686565b60405180910390f35b61022f600480360381019061022a919061157f565b6109a6565b60405161023c9190611686565b60405180910390f35b61025f600480360381019061025a919061157f565b6109c3565b6040516102759a9998979695949392919061172c565b60405180910390f35b6102986004803603810190610293919061149d565b610bc1565b6040516102a59190611811565b60405180910390f35b6102c860048036038101906102c391906113e4565b610f8b565b6040516102d59190611686565b60405180910390f35b6102e6610fad565b6040516102f39190611811565b60405180910390f35b610304610fb7565b60405161031191906117d6565b60405180910390f35b60006103266007610fdd565b905090565b60036020528060005260406000206000915090508060000160009054906101000a900473ffffffffffffffffffffffffffffffffffffffff1690806001018054600181600116156101000203166002900480601f0160208091040260200160405190810160405280929190818152602001828054600181600116156101000203166002900480156103fd5780601f106103d2576101008083540402835291602001916103fd565b820191906000526020600020905b8154815290600101906020018083116103e057829003601f168201915b5050505050908060020160009054906101000a900473ffffffffffffffffffffffffffffffffffffffff1690806003018054600181600116156101000203166002900480601f0160208091040260200160405190810160405280929190818152602001828054600181600116156101000203166002900480156104c15780601f10610496576101008083540402835291602001916104c1565b820191906000526020600020905b8154815290600101906020018083116104a457829003601f168201915b505050505090806004018054600181600116156101000203166002900480601f01602080910402602001604051908101604052809291908181526020018280546001816001161561010002031660029004801561055f5780601f106105345761010080835404028352916020019161055f565b820191906000526020600020905b81548152906001019060200180831161054257829003601f168201915b505050505090806005015490806006018054600181600116156101000203166002900480601f0160208091040260200160405190810160405280929190818152602001828054600181600116156101000203166002900480156106035780601f106105d857610100808354040283529160200191610603565b820191906000526020600020905b8154815290600101906020018083116105e657829003601f168201915b5050505050905087565b60026020528060005260406000206000915090505481565b600460009054906101000a900473ffffffffffffffffffffffffffffffffffffffff1673ffffffffffffffffffffffffffffffffffffffff163373ffffffffffffffffffffffffffffffffffffffff16146106b5576040517f08c379a00000000000000000000000000000000000000000000000000000000081526004016106ac906117f1565b60405180910390fd5b60008173ffffffffffffffffffffffffffffffffffffffff166370a08231306040518263ffffffff1660e01b81526004016106f09190611686565b60206040518083038186803b15801561070857600080fd5b505afa15801561071c573d6000803e3d6000fd5b505050506040513d601f19601f8201168201806040525081019061074091906115a8565b905061076b818473ffffffffffffffffffffffffffffffffffffffff16610ff290919063ffffffff16565b8273ffffffffffffffffffffffffffffffffffffffff167f7084f5476618d8e60b11ef0d7d3f06914655adb8793e28ff7f018d4c76d505d5826040516107b19190611811565b60405180910390a2505050565b600460009054906101000a900473ffffffffffffffffffffffffffffffffffffffff1673ffffffffffffffffffffffffffffffffffffffff163373ffffffffffffffffffffffffffffffffffffffff161461084e576040517f08c379a0000000000000000000000000000000000000000000000000000000008152600401610845906117f1565b60405180910390fd5b600047905061087c478373ffffffffffffffffffffffffffffffffffffffff16610ff290919063ffffffff16565b8173ffffffffffffffffffffffffffffffffffffffff167f7084f5476618d8e60b11ef0d7d3f06914655adb8793e28ff7f018d4c76d505d5826040516108c29190611811565b60405180910390a25050565b60006020528060005260406000206000915090505481565b600460009054906101000a900473ffffffffffffffffffffffffffffffffffffffff1673ffffffffffffffffffffffffffffffffffffffff163373ffffffffffffffffffffffffffffffffffffffff1614610976576040517f08c379a000000000000000000000000000000000000000000000000000000000815260040161096d906117f1565b60405180910390fd5b8060058190555050565b600460009054906101000a900473ffffffffffffffffffffffffffffffffffffffff1681565b60006109bc82600761112c90919063ffffffff16565b9050919050565b60016020528060005260406000206000915090508060000160009054906101000a900473ffffffffffffffffffffffffffffffffffffffff1690806001018054600181600116156101000203166002900480601f016020809104026020016040519081016040528092919081815260200182805460018160011615610100020316600290048015610a955780601f10610a6a57610100808354040283529160200191610a95565b820191906000526020600020905b815481529060010190602001808311610a7857829003601f168201915b505050505090806002018054600181600116156101000203166002900480601f016020809104026020016040519081016040528092919081815260200182805460018160011615610100020316600290048015610b335780601f10610b0857610100808354040283529160200191610b33565b820191906000526020600020905b815481529060010190602001808311610b1657829003601f168201915b5050505050908060030160009054906101000a900473ffffffffffffffffffffffffffffffffffffffff16908060030160149054906101000a900460ff16908060040154908060050154908060060154908060070160009054906101000a900473ffffffffffffffffffffffffffffffffffffffff16908060070160149054906101000a900460ff1690508a565b60008060008a73ffffffffffffffffffffffffffffffffffffffff1673ffffffffffffffffffffffffffffffffffffffff1681526020019081526020016000206000815480929190600101919050555060008060008b73ffffffffffffffffffffffffffffffffffffffff1673ffffffffffffffffffffffffffffffffffffffff1681526020019081526020016000205490506040518061014001604052808b73ffffffffffffffffffffffffffffffffffffffff1681526020018a81526020018981526020018873ffffffffffffffffffffffffffffffffffffffff16815260200187151581526020018681526020014281526020018581526020018473ffffffffffffffffffffffffffffffffffffffff168152602001600115158152506001600083815260200190815260200160002060008201518160000160006101000a81548173ffffffffffffffffffffffffffffffffffffffff021916908373ffffffffffffffffffffffffffffffffffffffff1602179055506020820151816001019080519060200190610d579291906111da565b506040820151816002019080519060200190610d749291906111da565b5060608201518160030160006101000a81548173ffffffffffffffffffffffffffffffffffffffff021916908373ffffffffffffffffffffffffffffffffffffffff16021790555060808201518160030160146101000a81548160ff02191690831515021790555060a0820151816004015560c0820151816005015560e082015181600601556101008201518160070160006101000a81548173ffffffffffffffffffffffffffffffffffffffff021916908373ffffffffffffffffffffffffffffffffffffffff1602179055506101208201518160070160146101000a81548160ff021916908315150217905550905050876040518082805190602001908083835b60208310610e9a5780518252602082019150602081019050602083039250610e77565b6001836020036101000a0380198251168184511680821785525050505050509050019150506040518091039020818b73ffffffffffffffffffffffffffffffffffffffff167f27cbb566eb604924251497b674c4c5afaa8275d5ef452d9dd86cdd6e0ada15ca8c6040518080602001828103825283818151815260200191508051906020019080838360005b83811015610f41578082015181840152602081019050610f26565b50505050905090810190601f168015610f6e5780820380516001836020036101000a031916815260200191505b509250505060405180910390a48091505098975050505050505050565b6000610f9f87878787878760055430610bc1565b508690509695505050505050565b6000600554905090565b600660009054906101000a900473ffffffffffffffffffffffffffffffffffffffff1681565b6000610feb82600001611146565b9050919050565b80471015611068576040517f08c379a000000000000000000000000000000000000000000000000000000000815260040180806020018281038252601d8152602001807f416464726573733a20696e73756666696369656e742062616c616e636500000081525060200191505060405180910390fd5b60008273ffffffffffffffffffffffffffffffffffffffff168260405180600001905060006040518083038185875af1925050503d80600081146110c8576040519150601f19603f3d011682016040523d82523d6000602084013e6110cd565b606091505b5050905080611127576040517f08c379a000000000000000000000000000000000000000000000000000000000815260040180806020018281038252603a8152602001806119fb603a913960400191505060405180910390fd5b505050565b600061113b8360000183611157565b60001c905092915050565b600081600001805490509050919050565b6000818360000180549050116111b8576040517f08c379a00000000000000000000000000000000000000000000000000000000081526004018080602001828103825260228152602001806119d96022913960400191505060405180910390fd5b8260000182815481106111c757fe5b9060005260206000200154905092915050565b828054600181600116156101000203166002900490600052602060002090601f0160209004810192826112105760008555611257565b82601f1061122957805160ff1916838001178555611257565b82800160010185558215611257579182015b8281111561125657825182559160200191906001019061123b565b5b5090506112649190611268565b5090565b5b80821115611281576000816000905550600101611269565b5090565b60006112986112938461185d565b61182c565b9050828152602081018484840111156112b057600080fd5b6112bb848285611927565b509392505050565b6000813590506112d28161197c565b92915050565b6000813590506112e781611993565b92915050565b6000813590506112fc816119aa565b92915050565b600082601f83011261131357600080fd5b8135611323848260208601611285565b91505092915050565b60008135905061133b816119c1565b92915050565b600081519050611350816119c1565b92915050565b60006020828403121561136857600080fd5b6000611376848285016112c3565b91505092915050565b60006020828403121561139157600080fd5b600061139f848285016112d8565b91505092915050565b600080604083850312156113bb57600080fd5b60006113c9858286016112d8565b92505060206113da858286016112c3565b9150509250929050565b60008060008060008060c087890312156113fd57600080fd5b600061140b89828a016112c3565b965050602087013567ffffffffffffffff81111561142857600080fd5b61143489828a01611302565b955050604087013567ffffffffffffffff81111561145157600080fd5b61145d89828a01611302565b945050606061146e89828a016112c3565b935050608061147f89828a016112ed565b92505060a061149089828a0161132c565b9150509295509295509295565b600080600080600080600080610100898b0312156114ba57600080fd5b60006114c88b828c016112c3565b985050602089013567ffffffffffffffff8111156114e557600080fd5b6114f18b828c01611302565b975050604089013567ffffffffffffffff81111561150e57600080fd5b61151a8b828c01611302565b965050606061152b8b828c016112c3565b955050608061153c8b828c016112ed565b94505060a061154d8b828c0161132c565b93505060c061155e8b828c0161132c565b92505060e061156f8b828c016112c3565b9150509295985092959890939650565b60006020828403121561159157600080fd5b600061159f8482850161132c565b91505092915050565b6000602082840312156115ba57600080fd5b60006115c884828501611341565b91505092915050565b6115da816118a9565b82525050565b6115e9816118cd565b82525050565b6115f881611903565b82525050565b60006116098261188d565b6116138185611898565b9350611623818560208601611936565b61162c8161196b565b840191505092915050565b6000611644600c83611898565b91507f494e56414c49445f5553455200000000000000000000000000000000000000006000830152602082019050919050565b611680816118f9565b82525050565b600060208201905061169b60008301846115d1565b92915050565b600060e0820190506116b6600083018a6115d1565b81810360208301526116c881896115fe565b90506116d760408301886115d1565b81810360608301526116e981876115fe565b905081810360808301526116fd81866115fe565b905061170c60a0830185611677565b81810360c083015261171e81846115fe565b905098975050505050505050565b600061014082019050611742600083018d6115d1565b8181036020830152611754818c6115fe565b90508181036040830152611768818b6115fe565b9050611777606083018a6115d1565b61178460808301896115e0565b61179160a0830188611677565b61179e60c0830187611677565b6117ab60e0830186611677565b6117b96101008301856115d1565b6117c76101208301846115e0565b9b9a5050505050505050505050565b60006020820190506117eb60008301846115ef565b92915050565b6000602082019050818103600083015261180a81611637565b9050919050565b60006020820190506118266000830184611677565b92915050565b6000604051905081810181811067ffffffffffffffff8211171561185357611852611969565b5b8060405250919050565b600067ffffffffffffffff82111561187857611877611969565b5b601f19601f8301169050602081019050919050565b600081519050919050565b600082825260208201905092915050565b60006118b4826118d9565b9050919050565b60006118c6826118d9565b9050919050565b60008115159050919050565b600073ffffffffffffffffffffffffffffffffffffffff82169050919050565b6000819050919050565b600061190e82611915565b9050919050565b6000611920826118d9565b9050919050565b82818337600083830152505050565b60005b83811015611954578082015181840152602081019050611939565b83811115611963576000848401525b50505050565bfe5b6000601f19601f8301169050919050565b611985816118a9565b811461199057600080fd5b50565b61199c816118bb565b81146119a757600080fd5b50565b6119b3816118cd565b81146119be57600080fd5b50565b6119ca816118f9565b81146119d557600080fd5b5056fe456e756d657261626c655365743a20696e646578206f7574206f6620626f756e6473416464726573733a20756e61626c6520746f2073656e642076616c75652c20726563697069656e74206d61792068617665207265766572746564a26469706673582212201429395b222ee750be2d5650afab79021b9b7a1ff272e30be7994b549cd038f464736f6c63430007060033",
  "immutableReferences": {},
  "source": "pragma solidity ^0.7.0;\npragma experimental ABIEncoderV2;\n\nimport \"./NFTDocumentMinter.sol\";\nimport \"./MinterRegistry.sol\";\nimport \"@openzeppelin/contracts/utils/EnumerableSet.sol\";\nimport \"@openzeppelin/contracts/math/SafeMath.sol\";\nimport \"@openzeppelin/contracts/utils/Address.sol\";\nimport \"./ERC20Interface.sol\";\n\ncontract NFTFactory is MinterRegistry {\n    using EnumerableSet for EnumerableSet.AddressSet;\n    using SafeMath for uint256;\n    using Address for address payable;\n\n    event MinterRemoved(address indexed minter);\n    event Withdrawn(address indexed payee, uint256 weiAmount);\n    address public owner;\n    uint256 fee;\n    ERC20Interface public daiToken;\n\n    // minters\n    EnumerableSet.AddressSet internal minters;\n\n    constructor(address dai) public {\n        daiToken = ERC20Interface(dai);\n        owner = msg.sender;\n    }\n\n    function setProtocolFee(uint256 _fee) public {\n        require(msg.sender == owner, \"INVALID_USER\");\n        fee = _fee;\n    }\n\n    function getProtocolFee() public returns (uint256) {\n        return fee;\n    }\n\n    function withdraw(address payable payee) public {\n        require(msg.sender == owner, \"INVALID_USER\");\n        uint256 b = address(this).balance;\n        payee.sendValue(address(this).balance);\n\n        emit Withdrawn(payee, b);\n    }\n\n    function withdrawToken(address payable payee, address token) public {\n        require(msg.sender == owner, \"INVALID_USER\");\n        uint256 b = ERC20Interface(token).balanceOf(address(this));\n        payee.sendValue(b);\n\n        emit Withdrawn(payee, b);\n    }\n\n    function registerMinter(\n        address minter,\n        string memory name, \n        string memory symbol,\n        address paymentAddress,\n        bool userHasKyc,\n        uint feeStructure)\n        public\n        returns (address)\n    {\n \n        addToRegistry(\n            minter, \n            name,\n            symbol,\n            paymentAddress,\n            userHasKyc,\n            feeStructure,\n            fee,\n            address(this));\n\n        return minter;\n    }\n\n    function count() public view returns (uint256) {\n        return minters.length();\n    }\n\n    function get(uint256 index) public view returns (address) {\n        return minters.at(index);\n    }\n}\n",
  "sourcePath": "/home/rogelio/Code/xdv/nft-document-swap/contracts/NFTFactory.sol",
  "compiler": {
    "name": "solc",
    "version": "0.7.6+commit.7338295f.Emscripten.clang"
  },
  "schemaVersion": "3.3.3",
  "updatedAt": "2021-02-05T00:36:48.670Z",
  "networkType": "ethereum",
  "devdoc": {
    "kind": "dev",
    "methods": {},
    "version": 1
  },
  "userdoc": {
    "kind": "user",
    "methods": {},
    "version": 1
  }
}