{
  "contractName": "NFTFactory",
  "abi": [
    {
      "inputs": [
        {
          "internalType": "address",
          "name": "dai",
          "type": "address"
        }
      ],
      "stateMutability": "nonpayable",
      "type": "constructor"
    },
    {
      "anonymous": false,
      "inputs": [
        {
          "indexed": true,
          "internalType": "address",
          "name": "minter",
          "type": "address"
        },
        {
          "indexed": true,
          "internalType": "uint256",
          "name": "id",
          "type": "uint256"
        },
        {
          "indexed": false,
          "internalType": "string",
          "name": "name",
          "type": "string"
        },
        {
          "indexed": true,
          "internalType": "string",
          "name": "symbol",
          "type": "string"
        }
      ],
      "name": "MinterRegistered",
      "type": "event"
    },
    {
      "anonymous": false,
      "inputs": [
        {
          "indexed": true,
          "internalType": "address",
          "name": "minter",
          "type": "address"
        }
      ],
      "name": "MinterRemoved",
      "type": "event"
    },
    {
      "anonymous": false,
      "inputs": [
        {
          "indexed": true,
          "internalType": "address",
          "name": "payee",
          "type": "address"
        },
        {
          "indexed": false,
          "internalType": "uint256",
          "name": "weiAmount",
          "type": "uint256"
        }
      ],
      "name": "Withdrawn",
      "type": "event"
    },
    {
      "inputs": [
        {
          "internalType": "address",
          "name": "minter",
          "type": "address"
        },
        {
          "internalType": "string",
          "name": "name",
          "type": "string"
        },
        {
          "internalType": "string",
          "name": "symbol",
          "type": "string"
        },
        {
          "internalType": "address",
          "name": "paymentAddress",
          "type": "address"
        },
        {
          "internalType": "bool",
          "name": "hasUserKyc",
          "type": "bool"
        },
        {
          "internalType": "uint256",
          "name": "feeStructure",
          "type": "uint256"
        },
        {
          "internalType": "uint256",
          "name": "serviceFee",
          "type": "uint256"
        },
        {
          "internalType": "address",
          "name": "factoryAddress",
          "type": "address"
        }
      ],
      "name": "addToRegistry",
      "outputs": [
        {
          "internalType": "uint256",
          "name": "",
          "type": "uint256"
        }
      ],
      "stateMutability": "nonpayable",
      "type": "function"
    },
    {
      "inputs": [],
      "name": "daiToken",
      "outputs": [
        {
          "internalType": "contract ERC20Interface",
          "name": "",
          "type": "address"
        }
      ],
      "stateMutability": "view",
      "type": "function"
    },
    {
      "inputs": [
        {
          "internalType": "uint256",
          "name": "",
          "type": "uint256"
        }
      ],
      "name": "dataProviderMinters",
      "outputs": [
        {
          "internalType": "address",
          "name": "minterAddress",
          "type": "address"
        },
        {
          "internalType": "string",
          "name": "name",
          "type": "string"
        },
        {
          "internalType": "string",
          "name": "symbol",
          "type": "string"
        },
        {
          "internalType": "address",
          "name": "paymentAddress",
          "type": "address"
        },
        {
          "internalType": "bool",
          "name": "hasUserKyc",
          "type": "bool"
        },
        {
          "internalType": "uint256",
          "name": "feeStructure",
          "type": "uint256"
        },
        {
          "internalType": "uint256",
          "name": "created",
          "type": "uint256"
        },
        {
          "internalType": "uint256",
          "name": "serviceFee",
          "type": "uint256"
        },
        {
          "internalType": "address",
          "name": "factoryAddress",
          "type": "address"
        },
        {
          "internalType": "bool",
          "name": "enabled",
          "type": "bool"
        }
      ],
      "stateMutability": "view",
      "type": "function"
    },
    {
      "inputs": [
        {
          "internalType": "address",
          "name": "",
          "type": "address"
        }
      ],
      "name": "minterCounter",
      "outputs": [
        {
          "internalType": "uint256",
          "name": "",
          "type": "uint256"
        }
      ],
      "stateMutability": "view",
      "type": "function"
    },
    {
      "inputs": [
        {
          "internalType": "address",
          "name": "",
          "type": "address"
        }
      ],
      "name": "minterDocumentRequestCounter",
      "outputs": [
        {
          "internalType": "uint256",
          "name": "",
          "type": "uint256"
        }
      ],
      "stateMutability": "view",
      "type": "function"
    },
    {
      "inputs": [
        {
          "internalType": "uint256",
          "name": "",
          "type": "uint256"
        }
      ],
      "name": "minterDocumentRequests",
      "outputs": [
        {
          "internalType": "address",
          "name": "user",
          "type": "address"
        },
        {
          "internalType": "string",
          "name": "userDid",
          "type": "string"
        },
        {
          "internalType": "address",
          "name": "toMinter",
          "type": "address"
        },
        {
          "internalType": "string",
          "name": "toMinterDid",
          "type": "string"
        },
        {
          "internalType": "string",
          "name": "documentURI",
          "type": "string"
        },
        {
          "internalType": "uint256",
          "name": "status",
          "type": "uint256"
        },
        {
          "internalType": "string",
          "name": "description",
          "type": "string"
        }
      ],
      "stateMutability": "view",
      "type": "function"
    },
    {
      "inputs": [],
      "name": "owner",
      "outputs": [
        {
          "internalType": "address",
          "name": "",
          "type": "address"
        }
      ],
      "stateMutability": "view",
      "type": "function"
    },
    {
      "inputs": [
        {
          "internalType": "uint256",
          "name": "_fee",
          "type": "uint256"
        }
      ],
      "name": "setProtocolFee",
      "outputs": [],
      "stateMutability": "nonpayable",
      "type": "function"
    },
    {
      "inputs": [],
      "name": "getProtocolFee",
      "outputs": [
        {
          "internalType": "uint256",
          "name": "",
          "type": "uint256"
        }
      ],
      "stateMutability": "nonpayable",
      "type": "function"
    },
    {
      "inputs": [
        {
          "internalType": "address payable",
          "name": "payee",
          "type": "address"
        }
      ],
      "name": "withdraw",
      "outputs": [],
      "stateMutability": "nonpayable",
      "type": "function"
    },
    {
      "inputs": [
        {
          "internalType": "address payable",
          "name": "payee",
          "type": "address"
        },
        {
          "internalType": "address",
          "name": "token",
          "type": "address"
        }
      ],
      "name": "withdrawToken",
      "outputs": [],
      "stateMutability": "nonpayable",
      "type": "function"
    },
    {
      "inputs": [
        {
          "internalType": "string",
          "name": "name",
          "type": "string"
        },
        {
          "internalType": "string",
          "name": "symbol",
          "type": "string"
        },
        {
          "internalType": "address",
          "name": "paymentAddress",
          "type": "address"
        },
        {
          "internalType": "bool",
          "name": "userHasKyc",
          "type": "bool"
        },
        {
          "internalType": "uint256",
          "name": "feeStructure",
          "type": "uint256"
        }
      ],
      "name": "createMinter",
      "outputs": [
        {
          "internalType": "address",
          "name": "",
          "type": "address"
        }
      ],
      "stateMutability": "nonpayable",
      "type": "function"
    },
    {
      "inputs": [],
      "name": "count",
      "outputs": [
        {
          "internalType": "uint256",
          "name": "",
          "type": "uint256"
        }
      ],
      "stateMutability": "view",
      "type": "function"
    },
    {
      "inputs": [
        {
          "internalType": "uint256",
          "name": "index",
          "type": "uint256"
        }
      ],
      "name": "get",
      "outputs": [
        {
          "internalType": "address",
          "name": "",
          "type": "address"
        }
      ],
      "stateMutability": "view",
      "type": "function"
    }
  ],
  "bytecode": "0x608060405267058d15e1762800006005553480156200001d57600080fd5b50604051620071f1380380620071f18339818101604052810190620000439190620000e3565b80600660006101000a81548173ffffffffffffffffffffffffffffffffffffffff021916908373ffffffffffffffffffffffffffffffffffffffff16021790555033600460006101000a81548173ffffffffffffffffffffffffffffffffffffffff021916908373ffffffffffffffffffffffffffffffffffffffff160217905550506200015d565b600081519050620000dd8162000143565b92915050565b600060208284031215620000f657600080fd5b60006200010684828501620000cc565b91505092915050565b60006200011c8262000123565b9050919050565b600073ffffffffffffffffffffffffffffffffffffffff82169050919050565b6200014e816200010f565b81146200015a57600080fd5b50565b617084806200016d6000396000f3fe60806040523480156200001157600080fd5b5060043610620001005760003560e01c80638da5cb5b11620000995780639aa94ba5116200006f5780639aa94ba514620002c6578063a5a4103114620002fc578063be22f546146200031e578063e716f8e814620003405762000100565b80638da5cb5b146200022f5780639507d39a1462000251578063967426ff14620002875762000100565b80633aeac4e111620000db5780633aeac4e1146200019957806351cff8d914620001b9578063761901bb14620001d9578063787dce3d146200020f5762000100565b806306661abd146200010557806318030e7d14620001275780632aa222c81462000163575b600080fd5b6200010f62000376565b6040516200011e919062001a41565b60405180910390f35b6200014560048036038101906200013f9190620016f3565b62000389565b6040516200015a9796959493929190620018ab565b60405180910390f35b6200018160048036038101906200017b9190620014b1565b6200067b565b60405162000190919062001a41565b60405180910390f35b620001b76004803603810190620001b1919062001509565b62000693565b005b620001d76004803603810190620001d19190620014dd565b62000839565b005b620001f76004803603810190620001f19190620014b1565b62000950565b60405162000206919062001a41565b60405180910390f35b6200022d6004803603810190620002279190620016f3565b62000968565b005b6200023962000a05565b60405162000248919062001823565b60405180910390f35b6200026f6004803603810190620002699190620016f3565b62000a2b565b6040516200027e919062001823565b60405180910390f35b620002a560048036038101906200029f9190620016f3565b62000a4a565b604051620002bd9a9998979695949392919062001944565b60405180910390f35b620002e46004803603810190620002de91906200154a565b62000c50565b604051620002f3919062001a41565b60405180910390f35b6200030662001023565b60405162000315919062001a41565b60405180910390f35b620003286200102d565b60405162000337919062001a02565b60405180910390f35b6200035e60048036038101906200035891906200163f565b62001053565b6040516200036d919062001823565b60405180910390f35b6000620003846007620010ff565b905090565b60036020528060005260406000206000915090508060000160009054906101000a900473ffffffffffffffffffffffffffffffffffffffff1690806001018054600181600116156101000203166002900480601f0160208091040260200160405190810160405280929190818152602001828054600181600116156101000203166002900480156200045f5780601f1062000433576101008083540402835291602001916200045f565b820191906000526020600020905b8154815290600101906020018083116200044157829003601f168201915b5050505050908060020160009054906101000a900473ffffffffffffffffffffffffffffffffffffffff1690806003018054600181600116156101000203166002900480601f016020809104026020016040519081016040528092919081815260200182805460018160011615610100020316600290048015620005275780601f10620004fb5761010080835404028352916020019162000527565b820191906000526020600020905b8154815290600101906020018083116200050957829003601f168201915b505050505090806004018054600181600116156101000203166002900480601f016020809104026020016040519081016040528092919081815260200182805460018160011615610100020316600290048015620005c95780601f106200059d57610100808354040283529160200191620005c9565b820191906000526020600020905b815481529060010190602001808311620005ab57829003601f168201915b505050505090806005015490806006018054600181600116156101000203166002900480601f016020809104026020016040519081016040528092919081815260200182805460018160011615610100020316600290048015620006715780601f10620006455761010080835404028352916020019162000671565b820191906000526020600020905b8154815290600101906020018083116200065357829003601f168201915b5050505050905087565b60026020528060005260406000206000915090505481565b600460009054906101000a900473ffffffffffffffffffffffffffffffffffffffff1673ffffffffffffffffffffffffffffffffffffffff163373ffffffffffffffffffffffffffffffffffffffff161462000726576040517f08c379a00000000000000000000000000000000000000000000000000000000081526004016200071d9062001a1f565b60405180910390fd5b60008173ffffffffffffffffffffffffffffffffffffffff166370a08231306040518263ffffffff1660e01b815260040162000763919062001823565b60206040518083038186803b1580156200077c57600080fd5b505afa15801562000791573d6000803e3d6000fd5b505050506040513d601f19601f82011682018060405250810190620007b791906200171f565b9050620007e4818473ffffffffffffffffffffffffffffffffffffffff166200111690919063ffffffff16565b8273ffffffffffffffffffffffffffffffffffffffff167f7084f5476618d8e60b11ef0d7d3f06914655adb8793e28ff7f018d4c76d505d5826040516200082c919062001a41565b60405180910390a2505050565b600460009054906101000a900473ffffffffffffffffffffffffffffffffffffffff1673ffffffffffffffffffffffffffffffffffffffff163373ffffffffffffffffffffffffffffffffffffffff1614620008cc576040517f08c379a0000000000000000000000000000000000000000000000000000000008152600401620008c39062001a1f565b60405180910390fd5b6000479050620008fc478373ffffffffffffffffffffffffffffffffffffffff166200111690919063ffffffff16565b8173ffffffffffffffffffffffffffffffffffffffff167f7084f5476618d8e60b11ef0d7d3f06914655adb8793e28ff7f018d4c76d505d58260405162000944919062001a41565b60405180910390a25050565b60006020528060005260406000206000915090505481565b600460009054906101000a900473ffffffffffffffffffffffffffffffffffffffff1673ffffffffffffffffffffffffffffffffffffffff163373ffffffffffffffffffffffffffffffffffffffff1614620009fb576040517f08c379a0000000000000000000000000000000000000000000000000000000008152600401620009f29062001a1f565b60405180910390fd5b8060058190555050565b600460009054906101000a900473ffffffffffffffffffffffffffffffffffffffff1681565b600062000a438260076200125590919063ffffffff16565b9050919050565b60016020528060005260406000206000915090508060000160009054906101000a900473ffffffffffffffffffffffffffffffffffffffff1690806001018054600181600116156101000203166002900480601f01602080910402602001604051908101604052809291908181526020018280546001816001161561010002031660029004801562000b205780601f1062000af45761010080835404028352916020019162000b20565b820191906000526020600020905b81548152906001019060200180831162000b0257829003601f168201915b505050505090806002018054600181600116156101000203166002900480601f01602080910402602001604051908101604052809291908181526020018280546001816001161561010002031660029004801562000bc25780601f1062000b965761010080835404028352916020019162000bc2565b820191906000526020600020905b81548152906001019060200180831162000ba457829003601f168201915b5050505050908060030160009054906101000a900473ffffffffffffffffffffffffffffffffffffffff16908060030160149054906101000a900460ff16908060040154908060050154908060060154908060070160009054906101000a900473ffffffffffffffffffffffffffffffffffffffff16908060070160149054906101000a900460ff1690508a565b60008060008a73ffffffffffffffffffffffffffffffffffffffff1673ffffffffffffffffffffffffffffffffffffffff1681526020019081526020016000206000815480929190600101919050555060008060008b73ffffffffffffffffffffffffffffffffffffffff1673ffffffffffffffffffffffffffffffffffffffff1681526020019081526020016000205490506040518061014001604052808b73ffffffffffffffffffffffffffffffffffffffff1681526020018a81526020018981526020018873ffffffffffffffffffffffffffffffffffffffff16815260200187151581526020018681526020014281526020018581526020018473ffffffffffffffffffffffffffffffffffffffff168152602001600115158152506001600083815260200190815260200160002060008201518160000160006101000a81548173ffffffffffffffffffffffffffffffffffffffff021916908373ffffffffffffffffffffffffffffffffffffffff160217905550602082015181600101908051906020019062000de892919062001308565b50604082015181600201908051906020019062000e0792919062001308565b5060608201518160030160006101000a81548173ffffffffffffffffffffffffffffffffffffffff021916908373ffffffffffffffffffffffffffffffffffffffff16021790555060808201518160030160146101000a81548160ff02191690831515021790555060a0820151816004015560c0820151816005015560e082015181600601556101008201518160070160006101000a81548173ffffffffffffffffffffffffffffffffffffffff021916908373ffffffffffffffffffffffffffffffffffffffff1602179055506101208201518160070160146101000a81548160ff021916908315150217905550905050876040518082805190602001908083835b6020831062000f2f578051825260208201915060208101905060208303925062000f0a565b6001836020036101000a0380198251168184511680821785525050505050509050019150506040518091039020818b73ffffffffffffffffffffffffffffffffffffffff167f27cbb566eb604924251497b674c4c5afaa8275d5ef452d9dd86cdd6e0ada15ca8c6040518080602001828103825283818151815260200191508051906020019080838360005b8381101562000fd857808201518184015260208101905062000fbb565b50505050905090810190601f168015620010065780820380516001836020036101000a031916815260200191505b509250505060405180910390a48091505098975050505050505050565b6000600554905090565b600660009054906101000a900473ffffffffffffffffffffffffffffffffffffffff1681565b600080600460009054906101000a900473ffffffffffffffffffffffffffffffffffffffff16338888600660009054906101000a900473ffffffffffffffffffffffffffffffffffffffff16604051620010ad906200139f565b620010bd95949392919062001840565b604051809103906000f080158015620010da573d6000803e3d6000fd5b509050620010f18188888888886005543062000c50565b508091505095945050505050565b60006200110f8260000162001271565b9050919050565b804710156200118d576040517f08c379a000000000000000000000000000000000000000000000000000000000815260040180806020018281038252601d8152602001807f416464726573733a20696e73756666696369656e742062616c616e636500000081525060200191505060405180910390fd5b60008273ffffffffffffffffffffffffffffffffffffffff168260405180600001905060006040518083038185875af1925050503d8060008114620011ef576040519150601f19603f3d011682016040523d82523d6000602084013e620011f4565b606091505b505090508062001250576040517f08c379a000000000000000000000000000000000000000000000000000000000815260040180806020018281038252603a81526020018062007015603a913960400191505060405180910390fd5b505050565b600062001266836000018362001282565b60001c905092915050565b600081600001805490509050919050565b600081836000018054905011620012e5576040517f08c379a000000000000000000000000000000000000000000000000000000000815260040180806020018281038252602281526020018062006ff36022913960400191505060405180910390fd5b826000018281548110620012f557fe5b9060005260206000200154905092915050565b828054600181600116156101000203166002900490600052602060002090601f0160209004810192826200134057600085556200138c565b82601f106200135b57805160ff19168380011785556200138c565b828001600101855582156200138c579182015b828111156200138b5782518255916020019190600101906200136e565b5b5090506200139b9190620013ad565b5090565b61538f8062001c6483390190565b5b80821115620013c8576000816000905550600101620013ae565b5090565b6000620013e3620013dd8462001a92565b62001a5e565b905082815260208101848484011115620013fc57600080fd5b6200140984828562001ba3565b509392505050565b600081359050620014228162001bfb565b92915050565b600081359050620014398162001c15565b92915050565b600081359050620014508162001c2f565b92915050565b600082601f8301126200146857600080fd5b81356200147a848260208601620013cc565b91505092915050565b600081359050620014948162001c49565b92915050565b600081519050620014ab8162001c49565b92915050565b600060208284031215620014c457600080fd5b6000620014d48482850162001411565b91505092915050565b600060208284031215620014f057600080fd5b6000620015008482850162001428565b91505092915050565b600080604083850312156200151d57600080fd5b60006200152d8582860162001428565b9250506020620015408582860162001411565b9150509250929050565b600080600080600080600080610100898b0312156200156857600080fd5b6000620015788b828c0162001411565b985050602089013567ffffffffffffffff8111156200159657600080fd5b620015a48b828c0162001456565b975050604089013567ffffffffffffffff811115620015c257600080fd5b620015d08b828c0162001456565b9650506060620015e38b828c0162001411565b9550506080620015f68b828c016200143f565b94505060a0620016098b828c0162001483565b93505060c06200161c8b828c0162001483565b92505060e06200162f8b828c0162001411565b9150509295985092959890939650565b600080600080600060a086880312156200165857600080fd5b600086013567ffffffffffffffff8111156200167357600080fd5b620016818882890162001456565b955050602086013567ffffffffffffffff8111156200169f57600080fd5b620016ad8882890162001456565b9450506040620016c08882890162001411565b9350506060620016d3888289016200143f565b9250506080620016e68882890162001483565b9150509295509295909350565b6000602082840312156200170657600080fd5b6000620017168482850162001483565b91505092915050565b6000602082840312156200173257600080fd5b600062001742848285016200149a565b91505092915050565b620017568162001b3f565b82525050565b620017678162001ae1565b82525050565b620017788162001b09565b82525050565b620017898162001b53565b82525050565b60006200179c8262001ac5565b620017a8818562001ad0565b9350620017ba81856020860162001bb2565b620017c58162001bea565b840191505092915050565b6000620017df600c8362001ad0565b91507f494e56414c49445f5553455200000000000000000000000000000000000000006000830152602082019050919050565b6200181d8162001b35565b82525050565b60006020820190506200183a60008301846200175c565b92915050565b600060a0820190506200185760008301886200175c565b6200186660208301876200174b565b81810360408301526200187a81866200178f565b905081810360608301526200189081856200178f565b9050620018a160808301846200177e565b9695505050505050565b600060e082019050620018c2600083018a6200175c565b8181036020830152620018d681896200178f565b9050620018e760408301886200175c565b8181036060830152620018fb81876200178f565b905081810360808301526200191181866200178f565b90506200192260a083018562001812565b81810360c08301526200193681846200178f565b905098975050505050505050565b6000610140820190506200195c600083018d6200175c565b818103602083015262001970818c6200178f565b9050818103604083015262001986818b6200178f565b905062001997606083018a6200175c565b620019a660808301896200176d565b620019b560a083018862001812565b620019c460c083018762001812565b620019d360e083018662001812565b620019e36101008301856200175c565b620019f36101208301846200176d565b9b9a5050505050505050505050565b600060208201905062001a1960008301846200177e565b92915050565b6000602082019050818103600083015262001a3a81620017d0565b9050919050565b600060208201905062001a58600083018462001812565b92915050565b6000604051905081810181811067ffffffffffffffff8211171562001a885762001a8762001be8565b5b8060405250919050565b600067ffffffffffffffff82111562001ab05762001aaf62001be8565b5b601f19601f8301169050602081019050919050565b600081519050919050565b600082825260208201905092915050565b600062001aee8262001b15565b9050919050565b600062001b028262001b15565b9050919050565b60008115159050919050565b600073ffffffffffffffffffffffffffffffffffffffff82169050919050565b6000819050919050565b600062001b4c8262001b7b565b9050919050565b600062001b608262001b67565b9050919050565b600062001b748262001b15565b9050919050565b600062001b888262001b8f565b9050919050565b600062001b9c8262001b15565b9050919050565b82818337600083830152505050565b60005b8381101562001bd257808201518184015260208101905062001bb5565b8381111562001be2576000848401525b50505050565bfe5b6000601f19601f8301169050919050565b62001c068162001ae1565b811462001c1257600080fd5b50565b62001c208162001af5565b811462001c2c57600080fd5b50565b62001c3a8162001b09565b811462001c4657600080fd5b50565b62001c548162001b35565b811462001c6057600080fd5b5056fe60806040523480156200001157600080fd5b506040516200538f3803806200538f833981810160405260a08110156200003757600080fd5b810190808051906020019092919080519060200190929190805160405193929190846401000000008211156200006c57600080fd5b838201915060208201858111156200008357600080fd5b8251866001820283011164010000000082111715620000a157600080fd5b8083526020830192505050908051906020019080838360005b83811015620000d7578082015181840152602081019050620000ba565b50505050905090810190601f168015620001055780820380516001836020036101000a031916815260200191505b50604052602001805160405193929190846401000000008211156200012957600080fd5b838201915060208201858111156200014057600080fd5b82518660018202830111640100000000821117156200015e57600080fd5b8083526020830192505050908051906020019080838360005b838110156200019457808201518184015260208101905062000177565b50505050905090810190601f168015620001c25780820380516001836020036101000a031916815260200191505b50604052602001805190602001909291905050508282620001f06301ffc9a760e01b6200035560201b60201c565b8160069080519060200190620002089291906200045e565b508060079080519060200190620002219291906200045e565b506200023a6380ac58cd60e01b6200035560201b60201c565b62000252635b5e139f60e01b6200035560201b60201c565b6200026a63780e9d6360e01b6200035560201b60201c565b50506000600a60006101000a81548160ff02191690831515021790555084601060006101000a81548173ffffffffffffffffffffffffffffffffffffffff021916908373ffffffffffffffffffffffffffffffffffffffff16021790555083601360006101000a81548173ffffffffffffffffffffffffffffffffffffffff021916908373ffffffffffffffffffffffffffffffffffffffff16021790555080601460006101000a81548173ffffffffffffffffffffffffffffffffffffffff021916908373ffffffffffffffffffffffffffffffffffffffff160217905550505050505062000514565b63ffffffff60e01b817bffffffffffffffffffffffffffffffffffffffffffffffffffffffff19161415620003f2576040517f08c379a000000000000000000000000000000000000000000000000000000000815260040180806020018281038252601c8152602001807f4552433136353a20696e76616c696420696e746572666163652069640000000081525060200191505060405180910390fd5b6001600080837bffffffffffffffffffffffffffffffffffffffffffffffffffffffff19167bffffffffffffffffffffffffffffffffffffffffffffffffffffffff1916815260200190815260200160002060006101000a81548160ff02191690831515021790555050565b828054600181600116156101000203166002900490600052602060002090601f016020900481019282620004965760008555620004e2565b82601f10620004b157805160ff1916838001178555620004e2565b82800160010185558215620004e2579182015b82811115620004e1578251825591602001919060010190620004c4565b5b509050620004f19190620004f5565b5090565b5b8082111562000510576000816000905550600101620004f6565b5090565b614e6b80620005246000396000f3fe6080604052600436106101e35760003560e01c80636e3e2fa611610102578063a22cb46511610095578063d0def52111610064578063d0def521146111b3578063deb6ce31146112af578063e4691931146112f0578063e985e9c514611331576101e3565b8063a22cb46514610f4f578063b88d4fde14610fac578063be22f546146110be578063c87b56dd146110ff576101e3565b80638da5cb5b116100d15780638da5cb5b14610aec57806395d89b4114610b2d578063967426ff14610bbd5780639aa94ba514610d5b576101e3565b80636e3e2fa6146109b657806370a08231146109f75780637285e3b914610a5c578063761901bb14610a87576101e3565b80632aa222c81161017a5780634f6ccce7116101495780634f6ccce7146108455780635c975abb146108945780636352211e146108c15780636c0360eb14610926576101e3565b80632aa222c8146106b25780632f745c591461071757806342842e0e1461078657806342966c6814610801576101e3565b8063095ea7b3116101b6578063095ea7b31461037857806318030e7d146103d357806318160ddd1461060c57806323b872dd14610637576101e3565b806301609fd3146101e857806301ffc9a71461021357806306fdde0314610283578063081812fc14610313575b600080fd5b3480156101f457600080fd5b506101fd6113b8565b6040518082815260200191505060405180910390f35b34801561021f57600080fd5b5061026b6004803603602081101561023657600080fd5b8101908080357bffffffffffffffffffffffffffffffffffffffffffffffffffffffff191690602001909291905050506113be565b60405180821515815260200191505060405180910390f35b34801561028f57600080fd5b50610298611425565b6040518080602001828103825283818151815260200191508051906020019080838360005b838110156102d85780820151818401526020810190506102bd565b50505050905090810190601f1680156103055780820380516001836020036101000a031916815260200191505b509250505060405180910390f35b34801561031f57600080fd5b5061034c6004803603602081101561033657600080fd5b81019080803590602001909291905050506114c7565b604051808273ffffffffffffffffffffffffffffffffffffffff16815260200191505060405180910390f35b34801561038457600080fd5b506103d16004803603604081101561039b57600080fd5b81019080803573ffffffffffffffffffffffffffffffffffffffff16906020019092919080359060200190929190505050611562565b005b3480156103df57600080fd5b5061040c600480360360208110156103f657600080fd5b81019080803590602001909291905050506116a6565b604051808873ffffffffffffffffffffffffffffffffffffffff168152602001806020018773ffffffffffffffffffffffffffffffffffffffff16815260200180602001806020018681526020018060200185810385528b818151815260200191508051906020019080838360005b8381101561049657808201518184015260208101905061047b565b50505050905090810190601f1680156104c35780820380516001836020036101000a031916815260200191505b50858103845289818151815260200191508051906020019080838360005b838110156104fc5780820151818401526020810190506104e1565b50505050905090810190601f1680156105295780820380516001836020036101000a031916815260200191505b50858103835288818151815260200191508051906020019080838360005b83811015610562578082015181840152602081019050610547565b50505050905090810190601f16801561058f5780820380516001836020036101000a031916815260200191505b50858103825286818151815260200191508051906020019080838360005b838110156105c85780820151818401526020810190506105ad565b50505050905090810190601f1680156105f55780820380516001836020036101000a031916815260200191505b509b50505050505050505050505060405180910390f35b34801561061857600080fd5b50610621611988565b6040518082815260200191505060405180910390f35b34801561064357600080fd5b506106b06004803603606081101561065a57600080fd5b81019080803573ffffffffffffffffffffffffffffffffffffffff169060200190929190803573ffffffffffffffffffffffffffffffffffffffff16906020019092919080359060200190929190505050611999565b005b3480156106be57600080fd5b50610701600480360360208110156106d557600080fd5b81019080803573ffffffffffffffffffffffffffffffffffffffff169060200190929190505050611a0f565b6040518082815260200191505060405180910390f35b34801561072357600080fd5b506107706004803603604081101561073a57600080fd5b81019080803573ffffffffffffffffffffffffffffffffffffffff16906020019092919080359060200190929190505050611a27565b6040518082815260200191505060405180910390f35b34801561079257600080fd5b506107ff600480360360608110156107a957600080fd5b81019080803573ffffffffffffffffffffffffffffffffffffffff169060200190929190803573ffffffffffffffffffffffffffffffffffffffff16906020019092919080359060200190929190505050611a82565b005b61082d6004803603602081101561081757600080fd5b8101908080359060200190929190505050611aa2565b60405180821515815260200191505060405180910390f35b34801561085157600080fd5b5061087e6004803603602081101561086857600080fd5b81019080803590602001909291905050506123f5565b6040518082815260200191505060405180910390f35b3480156108a057600080fd5b506108a9612418565b60405180821515815260200191505060405180910390f35b3480156108cd57600080fd5b506108fa600480360360208110156108e457600080fd5b810190808035906020019092919050505061242f565b604051808273ffffffffffffffffffffffffffffffffffffffff16815260200191505060405180910390f35b34801561093257600080fd5b5061093b612466565b6040518080602001828103825283818151815260200191508051906020019080838360005b8381101561097b578082015181840152602081019050610960565b50505050905090810190601f1680156109a85780820380516001836020036101000a031916815260200191505b509250505060405180910390f35b3480156109c257600080fd5b506109cb612508565b604051808273ffffffffffffffffffffffffffffffffffffffff16815260200191505060405180910390f35b348015610a0357600080fd5b50610a4660048036036020811015610a1a57600080fd5b81019080803573ffffffffffffffffffffffffffffffffffffffff16906020019092919050505061252e565b6040518082815260200191505060405180910390f35b348015610a6857600080fd5b50610a71612603565b6040518082815260200191505060405180910390f35b348015610a9357600080fd5b50610ad660048036036020811015610aaa57600080fd5b81019080803573ffffffffffffffffffffffffffffffffffffffff169060200190929190505050612609565b6040518082815260200191505060405180910390f35b348015610af857600080fd5b50610b01612621565b604051808273ffffffffffffffffffffffffffffffffffffffff16815260200191505060405180910390f35b348015610b3957600080fd5b50610b42612647565b6040518080602001828103825283818151815260200191508051906020019080838360005b83811015610b82578082015181840152602081019050610b67565b50505050905090810190601f168015610baf5780820380516001836020036101000a031916815260200191505b509250505060405180910390f35b348015610bc957600080fd5b50610bf660048036036020811015610be057600080fd5b81019080803590602001909291905050506126e9565b604051808b73ffffffffffffffffffffffffffffffffffffffff16815260200180602001806020018a73ffffffffffffffffffffffffffffffffffffffff16815260200189151581526020018881526020018781526020018681526020018573ffffffffffffffffffffffffffffffffffffffff168152602001841515815260200183810383528c818151815260200191508051906020019080838360005b83811015610cb0578082015181840152602081019050610c95565b50505050905090810190601f168015610cdd5780820380516001836020036101000a031916815260200191505b5083810382528b818151815260200191508051906020019080838360005b83811015610d16578082015181840152602081019050610cfb565b50505050905090810190601f168015610d435780820380516001836020036101000a031916815260200191505b509c5050505050505050505050505060405180910390f35b348015610d6757600080fd5b50610f396004803603610100811015610d7f57600080fd5b81019080803573ffffffffffffffffffffffffffffffffffffffff16906020019092919080359060200190640100000000811115610dbc57600080fd5b820183602082011115610dce57600080fd5b80359060200191846001830284011164010000000083111715610df057600080fd5b91908080601f016020809104026020016040519081016040528093929190818152602001838380828437600081840152601f19601f82011690508083019250505050505050919291929080359060200190640100000000811115610e5357600080fd5b820183602082011115610e6557600080fd5b80359060200191846001830284011164010000000083111715610e8757600080fd5b91908080601f016020809104026020016040519081016040528093929190818152602001838380828437600081840152601f19601f820116905080830192505050505050509192919290803573ffffffffffffffffffffffffffffffffffffffff1690602001909291908035151590602001909291908035906020019092919080359060200190929190803573ffffffffffffffffffffffffffffffffffffffff1690602001909291905050506128e7565b6040518082815260200191505060405180910390f35b348015610f5b57600080fd5b50610faa60048036036040811015610f7257600080fd5b81019080803573ffffffffffffffffffffffffffffffffffffffff169060200190929190803515159060200190929190505050612cb3565b005b348015610fb857600080fd5b506110bc60048036036080811015610fcf57600080fd5b81019080803573ffffffffffffffffffffffffffffffffffffffff169060200190929190803573ffffffffffffffffffffffffffffffffffffffff169060200190929190803590602001909291908035906020019064010000000081111561103657600080fd5b82018360208201111561104857600080fd5b8035906020019184600183028401116401000000008311171561106a57600080fd5b91908080601f016020809104026020016040519081016040528093929190818152602001838380828437600081840152601f19601f820116905080830192505050505050509192919290505050612e69565b005b3480156110ca57600080fd5b506110d3612ee1565b604051808273ffffffffffffffffffffffffffffffffffffffff16815260200191505060405180910390f35b34801561110b57600080fd5b506111386004803603602081101561112257600080fd5b8101908080359060200190929190505050612f07565b6040518080602001828103825283818151815260200191508051906020019080838360005b8381101561117857808201518184015260208101905061115d565b50505050905090810190601f1680156111a55780820380516001836020036101000a031916815260200191505b509250505060405180910390f35b3480156111bf57600080fd5b50611299600480360360408110156111d657600080fd5b81019080803573ffffffffffffffffffffffffffffffffffffffff1690602001909291908035906020019064010000000081111561121357600080fd5b82018360208201111561122557600080fd5b8035906020019184600183028401116401000000008311171561124757600080fd5b91908080601f016020809104026020016040519081016040528093929190818152602001838380828437600081840152601f19601f8201169050808301925050505050505091929192905050506131f0565b6040518082815260200191505060405180910390f35b3480156112bb57600080fd5b506112c4613357565b604051808273ffffffffffffffffffffffffffffffffffffffff16815260200191505060405180910390f35b3480156112fc57600080fd5b5061130561337d565b604051808273ffffffffffffffffffffffffffffffffffffffff16815260200191505060405180910390f35b34801561133d57600080fd5b506113a06004803603604081101561135457600080fd5b81019080803573ffffffffffffffffffffffffffffffffffffffff169060200190929190803573ffffffffffffffffffffffffffffffffffffffff1690602001909291905050506133a3565b60405180821515815260200191505060405180910390f35b60125481565b6000806000837bffffffffffffffffffffffffffffffffffffffffffffffffffffffff19167bffffffffffffffffffffffffffffffffffffffffffffffffffffffff1916815260200190815260200160002060009054906101000a900460ff169050919050565b606060068054600181600116156101000203166002900480601f0160208091040260200160405190810160405280929190818152602001828054600181600116156101000203166002900480156114bd5780601f10611492576101008083540402835291602001916114bd565b820191906000526020600020905b8154815290600101906020018083116114a057829003601f168201915b5050505050905090565b60006114d282613437565b611527576040517f08c379a000000000000000000000000000000000000000000000000000000000815260040180806020018281038252602c815260200180614d34602c913960400191505060405180910390fd5b6004600083815260200190815260200160002060009054906101000a900473ffffffffffffffffffffffffffffffffffffffff169050919050565b600061156d8261242f565b90508073ffffffffffffffffffffffffffffffffffffffff168373ffffffffffffffffffffffffffffffffffffffff1614156115f4576040517f08c379a0000000000000000000000000000000000000000000000000000000008152600401808060200182810382526021815260200180614de46021913960400191505060405180910390fd5b8073ffffffffffffffffffffffffffffffffffffffff16611613613454565b73ffffffffffffffffffffffffffffffffffffffff16148061164257506116418161163c613454565b6133a3565b5b611697576040517f08c379a0000000000000000000000000000000000000000000000000000000008152600401808060200182810382526038815260200180614c876038913960400191505060405180910390fd5b6116a1838361345c565b505050565b600e6020528060005260406000206000915090508060000160009054906101000a900473ffffffffffffffffffffffffffffffffffffffff1690806001018054600181600116156101000203166002900480601f0160208091040260200160405190810160405280929190818152602001828054600181600116156101000203166002900480156117785780601f1061174d57610100808354040283529160200191611778565b820191906000526020600020905b81548152906001019060200180831161175b57829003601f168201915b5050505050908060020160009054906101000a900473ffffffffffffffffffffffffffffffffffffffff1690806003018054600181600116156101000203166002900480601f01602080910402602001604051908101604052809291908181526020018280546001816001161561010002031660029004801561183c5780601f106118115761010080835404028352916020019161183c565b820191906000526020600020905b81548152906001019060200180831161181f57829003601f168201915b505050505090806004018054600181600116156101000203166002900480601f0160208091040260200160405190810160405280929190818152602001828054600181600116156101000203166002900480156118da5780601f106118af576101008083540402835291602001916118da565b820191906000526020600020905b8154815290600101906020018083116118bd57829003601f168201915b505050505090806005015490806006018054600181600116156101000203166002900480601f01602080910402602001604051908101604052809291908181526020018280546001816001161561010002031660029004801561197e5780601f106119535761010080835404028352916020019161197e565b820191906000526020600020905b81548152906001019060200180831161196157829003601f168201915b5050505050905087565b60006119946002613515565b905090565b6119aa6119a4613454565b8261352a565b6119ff576040517f08c379a0000000000000000000000000000000000000000000000000000000008152600401808060200182810382526031815260200180614e056031913960400191505060405180910390fd5b611a0a83838361361e565b505050565b600d6020528060005260406000206000915090505481565b6000611a7a82600160008673ffffffffffffffffffffffffffffffffffffffff1673ffffffffffffffffffffffffffffffffffffffff16815260200190815260200160002061386190919063ffffffff16565b905092915050565b611a9d83838360405180602001604052806000815250612e69565b505050565b600080601460009054906101000a900473ffffffffffffffffffffffffffffffffffffffff1673ffffffffffffffffffffffffffffffffffffffff166370a08231336040518263ffffffff1660e01b8152600401808273ffffffffffffffffffffffffffffffffffffffff16815260200191505060206040518083038186803b158015611b2e57600080fd5b505afa158015611b42573d6000803e3d6000fd5b505050506040513d6020811015611b5857600080fd5b81019080805190602001909291905050501015611bdd576040517f08c379a00000000000000000000000000000000000000000000000000000000081526004018080602001828103825260158152602001807f496e76616c696420746f6b656e2062616c616e6365000000000000000000000081525060200191505060405180910390fd5b6000601460009054906101000a900473ffffffffffffffffffffffffffffffffffffffff1673ffffffffffffffffffffffffffffffffffffffff1663dd62ed3e33306040518363ffffffff1660e01b8152600401808373ffffffffffffffffffffffffffffffffffffffff1681526020018273ffffffffffffffffffffffffffffffffffffffff1681526020019250505060206040518083038186803b158015611c8657600080fd5b505afa158015611c9a573d6000803e3d6000fd5b505050506040513d6020811015611cb057600080fd5b81019080805190602001909291905050501015611d35576040517f08c379a00000000000000000000000000000000000000000000000000000000081526004018080602001828103825260178152602001807f496e76616c696420746f6b656e20616c6c6f77616e636500000000000000000081525060200191505060405180910390fd5b6000600b60003073ffffffffffffffffffffffffffffffffffffffff1673ffffffffffffffffffffffffffffffffffffffff1681526020019081526020016000205490506000600c6000838152602001908152602001600020604051806101400160405290816000820160009054906101000a900473ffffffffffffffffffffffffffffffffffffffff1673ffffffffffffffffffffffffffffffffffffffff1673ffffffffffffffffffffffffffffffffffffffff168152602001600182018054600181600116156101000203166002900480601f016020809104026020016040519081016040528092919081815260200182805460018160011615610100020316600290048015611e895780601f10611e5e57610100808354040283529160200191611e89565b820191906000526020600020905b815481529060010190602001808311611e6c57829003601f168201915b50505050508152602001600282018054600181600116156101000203166002900480601f016020809104026020016040519081016040528092919081815260200182805460018160011615610100020316600290048015611f2b5780601f10611f0057610100808354040283529160200191611f2b565b820191906000526020600020905b815481529060010190602001808311611f0e57829003601f168201915b505050505081526020016003820160009054906101000a900473ffffffffffffffffffffffffffffffffffffffff1673ffffffffffffffffffffffffffffffffffffffff1673ffffffffffffffffffffffffffffffffffffffff1681526020016003820160149054906101000a900460ff161515151581526020016004820154815260200160058201548152602001600682015481526020016007820160009054906101000a900473ffffffffffffffffffffffffffffffffffffffff1673ffffffffffffffffffffffffffffffffffffffff1673ffffffffffffffffffffffffffffffffffffffff1681526020016007820160149054906101000a900460ff161515151581525050905061203f8461387b565b601460009054906101000a900473ffffffffffffffffffffffffffffffffffffffff1673ffffffffffffffffffffffffffffffffffffffff166323b872dd3383606001518460a001516040518463ffffffff1660e01b8152600401808473ffffffffffffffffffffffffffffffffffffffff1681526020018373ffffffffffffffffffffffffffffffffffffffff1681526020018281526020019350505050602060405180830381600087803b1580156120f857600080fd5b505af115801561210c573d6000803e3d6000fd5b505050506040513d602081101561212257600080fd5b81019080805190602001909291905050506121a5576040517f08c379a000000000000000000000000000000000000000000000000000000000815260040180806020018281038252601e8152602001807f5472616e73666572206661696c656420666f72206261736520746f6b656e000081525060200191505060405180910390fd5b601460009054906101000a900473ffffffffffffffffffffffffffffffffffffffff1673ffffffffffffffffffffffffffffffffffffffff166323b872dd338361010001518460e001516040518463ffffffff1660e01b8152600401808473ffffffffffffffffffffffffffffffffffffffff1681526020018373ffffffffffffffffffffffffffffffffffffffff1681526020018281526020019350505050602060405180830381600087803b15801561225f57600080fd5b505af1158015612273573d6000803e3d6000fd5b505050506040513d602081101561228957600080fd5b810190808051906020019092919050505061230c576040517f08c379a000000000000000000000000000000000000000000000000000000000815260040180806020018281038252601e8152602001807f5472616e73666572206661696c656420666f72206261736520746f6b656e000081525060200191505060405180910390fd5b6000600d60003073ffffffffffffffffffffffffffffffffffffffff1673ffffffffffffffffffffffffffffffffffffffff16815260200190815260200160002054905060028081111561235c57fe5b600e6000838152602001908152602001600020600501819055507f922440b9b32ceea32c28a1e3eaab6666b0c219fb8184013c17bc787fc6be8ecb303387604051808473ffffffffffffffffffffffffffffffffffffffff1681526020018373ffffffffffffffffffffffffffffffffffffffff168152602001828152602001935050505060405180910390a160019350505050919050565b60008061240c8360026139b590919063ffffffff16565b50905080915050919050565b6000600a60009054906101000a900460ff16905090565b600061245f82604051806060016040528060298152602001614ce96029913960026139e19092919063ffffffff16565b9050919050565b606060098054600181600116156101000203166002900480601f0160208091040260200160405190810160405280929190818152602001828054600181600116156101000203166002900480156124fe5780601f106124d3576101008083540402835291602001916124fe565b820191906000526020600020905b8154815290600101906020018083116124e157829003601f168201915b5050505050905090565b601660009054906101000a900473ffffffffffffffffffffffffffffffffffffffff1681565b60008073ffffffffffffffffffffffffffffffffffffffff168273ffffffffffffffffffffffffffffffffffffffff1614156125b5576040517f08c379a000000000000000000000000000000000000000000000000000000000815260040180806020018281038252602a815260200180614cbf602a913960400191505060405180910390fd5b6125fc600160008473ffffffffffffffffffffffffffffffffffffffff1673ffffffffffffffffffffffffffffffffffffffff168152602001908152602001600020613a00565b9050919050565b60115481565b600b6020528060005260406000206000915090505481565b601060009054906101000a900473ffffffffffffffffffffffffffffffffffffffff1681565b606060078054600181600116156101000203166002900480601f0160208091040260200160405190810160405280929190818152602001828054600181600116156101000203166002900480156126df5780601f106126b4576101008083540402835291602001916126df565b820191906000526020600020905b8154815290600101906020018083116126c257829003601f168201915b5050505050905090565b600c6020528060005260406000206000915090508060000160009054906101000a900473ffffffffffffffffffffffffffffffffffffffff1690806001018054600181600116156101000203166002900480601f0160208091040260200160405190810160405280929190818152602001828054600181600116156101000203166002900480156127bb5780601f10612790576101008083540402835291602001916127bb565b820191906000526020600020905b81548152906001019060200180831161279e57829003601f168201915b505050505090806002018054600181600116156101000203166002900480601f0160208091040260200160405190810160405280929190818152602001828054600181600116156101000203166002900480156128595780601f1061282e57610100808354040283529160200191612859565b820191906000526020600020905b81548152906001019060200180831161283c57829003601f168201915b5050505050908060030160009054906101000a900473ffffffffffffffffffffffffffffffffffffffff16908060030160149054906101000a900460ff16908060040154908060050154908060060154908060070160009054906101000a900473ffffffffffffffffffffffffffffffffffffffff16908060070160149054906101000a900460ff1690508a565b6000600b60008a73ffffffffffffffffffffffffffffffffffffffff1673ffffffffffffffffffffffffffffffffffffffff168152602001908152602001600020600081548092919060010191905055506000600b60008b73ffffffffffffffffffffffffffffffffffffffff1673ffffffffffffffffffffffffffffffffffffffff1681526020019081526020016000205490506040518061014001604052808b73ffffffffffffffffffffffffffffffffffffffff1681526020018a81526020018981526020018873ffffffffffffffffffffffffffffffffffffffff16815260200187151581526020018681526020014281526020018581526020018473ffffffffffffffffffffffffffffffffffffffff16815260200160011515815250600c600083815260200190815260200160002060008201518160000160006101000a81548173ffffffffffffffffffffffffffffffffffffffff021916908373ffffffffffffffffffffffffffffffffffffffff1602179055506020820151816001019080519060200190612a7f929190614a9e565b506040820151816002019080519060200190612a9c929190614a9e565b5060608201518160030160006101000a81548173ffffffffffffffffffffffffffffffffffffffff021916908373ffffffffffffffffffffffffffffffffffffffff16021790555060808201518160030160146101000a81548160ff02191690831515021790555060a0820151816004015560c0820151816005015560e082015181600601556101008201518160070160006101000a81548173ffffffffffffffffffffffffffffffffffffffff021916908373ffffffffffffffffffffffffffffffffffffffff1602179055506101208201518160070160146101000a81548160ff021916908315150217905550905050876040518082805190602001908083835b60208310612bc25780518252602082019150602081019050602083039250612b9f565b6001836020036101000a0380198251168184511680821785525050505050509050019150506040518091039020818b73ffffffffffffffffffffffffffffffffffffffff167f27cbb566eb604924251497b674c4c5afaa8275d5ef452d9dd86cdd6e0ada15ca8c6040518080602001828103825283818151815260200191508051906020019080838360005b83811015612c69578082015181840152602081019050612c4e565b50505050905090810190601f168015612c965780820380516001836020036101000a031916815260200191505b509250505060405180910390a48091505098975050505050505050565b612cbb613454565b73ffffffffffffffffffffffffffffffffffffffff168273ffffffffffffffffffffffffffffffffffffffff161415612d5c576040517f08c379a00000000000000000000000000000000000000000000000000000000081526004018080602001828103825260198152602001807f4552433732313a20617070726f766520746f2063616c6c65720000000000000081525060200191505060405180910390fd5b8060056000612d69613454565b73ffffffffffffffffffffffffffffffffffffffff1673ffffffffffffffffffffffffffffffffffffffff16815260200190815260200160002060008473ffffffffffffffffffffffffffffffffffffffff1673ffffffffffffffffffffffffffffffffffffffff16815260200190815260200160002060006101000a81548160ff0219169083151502179055508173ffffffffffffffffffffffffffffffffffffffff16612e16613454565b73ffffffffffffffffffffffffffffffffffffffff167f17307eab39ab6107e8899845ad3d59bd9653f200f220920489ca2b5937696c318360405180821515815260200191505060405180910390a35050565b612e7a612e74613454565b8361352a565b612ecf576040517f08c379a0000000000000000000000000000000000000000000000000000000008152600401808060200182810382526031815260200180614e056031913960400191505060405180910390fd5b612edb84848484613a15565b50505050565b601460009054906101000a900473ffffffffffffffffffffffffffffffffffffffff1681565b6060612f1282613437565b612f67576040517f08c379a000000000000000000000000000000000000000000000000000000000815260040180806020018281038252602f815260200180614db5602f913960400191505060405180910390fd5b6000600860008481526020019081526020016000208054600181600116156101000203166002900480601f0160208091040260200160405190810160405280929190818152602001828054600181600116156101000203166002900480156130105780601f10612fe557610100808354040283529160200191613010565b820191906000526020600020905b815481529060010190602001808311612ff357829003601f168201915b5050505050905060006009805460018160011615610100020316600290049050141561303f57809150506131eb565b6000815111156131185760098160405160200180838054600181600116156101000203166002900480156130aa5780601f106130885761010080835404028352918201916130aa565b820191906000526020600020905b815481529060010190602001808311613096575b505082805190602001908083835b602083106130db57805182526020820191506020810190506020830392506130b8565b6001836020036101000a038019825116818451168082178552505050505050905001925050506040516020818303038152906040529150506131eb565b600961312384613a87565b60405160200180838054600181600116156101000203166002900480156131815780601f1061315f576101008083540402835291820191613181565b820191906000526020600020905b81548152906001019060200180831161316d575b505082805190602001908083835b602083106131b2578051825260208201915060208101905060208303925061318f565b6001836020036101000a038019825116818451168082178552505050505050905001925050506040516020818303038152906040529150505b919050565b60003373ffffffffffffffffffffffffffffffffffffffff16601360009054906101000a900473ffffffffffffffffffffffffffffffffffffffff1673ffffffffffffffffffffffffffffffffffffffff16146132b5576040517f08c379a000000000000000000000000000000000000000000000000000000000815260040180806020018281038252600e8152602001807f494e56414c4944204d494e54455200000000000000000000000000000000000081525060200191505060405180910390fd5b6132bf600f613bce565b60006132cb600f613be4565b90506132d78482613bf2565b6132e18184613c10565b6000600d60003073ffffffffffffffffffffffffffffffffffffffff1673ffffffffffffffffffffffffffffffffffffffff1681526020019081526020016000205490506001600281111561333257fe5b600e600083815260200190815260200160002060050181905550819250505092915050565b601360009054906101000a900473ffffffffffffffffffffffffffffffffffffffff1681565b601560009054906101000a900473ffffffffffffffffffffffffffffffffffffffff1681565b6000600560008473ffffffffffffffffffffffffffffffffffffffff1673ffffffffffffffffffffffffffffffffffffffff16815260200190815260200160002060008373ffffffffffffffffffffffffffffffffffffffff1673ffffffffffffffffffffffffffffffffffffffff16815260200190815260200160002060009054906101000a900460ff16905092915050565b600061344d826002613c9a90919063ffffffff16565b9050919050565b600033905090565b816004600083815260200190815260200160002060006101000a81548173ffffffffffffffffffffffffffffffffffffffff021916908373ffffffffffffffffffffffffffffffffffffffff160217905550808273ffffffffffffffffffffffffffffffffffffffff166134cf8361242f565b73ffffffffffffffffffffffffffffffffffffffff167f8c5be1e5ebec7d5bd14f71427d1e84f3dd0314c0f7b2291e5b200ac8c7c3b92560405160405180910390a45050565b600061352382600001613cb4565b9050919050565b600061353582613437565b61358a576040517f08c379a000000000000000000000000000000000000000000000000000000000815260040180806020018281038252602c815260200180614c5b602c913960400191505060405180910390fd5b60006135958361242f565b90508073ffffffffffffffffffffffffffffffffffffffff168473ffffffffffffffffffffffffffffffffffffffff16148061360457508373ffffffffffffffffffffffffffffffffffffffff166135ec846114c7565b73ffffffffffffffffffffffffffffffffffffffff16145b80613615575061361481856133a3565b5b91505092915050565b8273ffffffffffffffffffffffffffffffffffffffff1661363e8261242f565b73ffffffffffffffffffffffffffffffffffffffff16146136aa576040517f08c379a0000000000000000000000000000000000000000000000000000000008152600401808060200182810382526029815260200180614d8c6029913960400191505060405180910390fd5b600073ffffffffffffffffffffffffffffffffffffffff168273ffffffffffffffffffffffffffffffffffffffff161415613730576040517f08c379a0000000000000000000000000000000000000000000000000000000008152600401808060200182810382526024815260200180614c116024913960400191505060405180910390fd5b61373b838383613cc5565b61374660008261345c565b61379781600160008673ffffffffffffffffffffffffffffffffffffffff1673ffffffffffffffffffffffffffffffffffffffff168152602001908152602001600020613cd590919063ffffffff16565b506137e981600160008573ffffffffffffffffffffffffffffffffffffffff1673ffffffffffffffffffffffffffffffffffffffff168152602001908152602001600020613cef90919063ffffffff16565b5061380081836002613d099092919063ffffffff16565b50808273ffffffffffffffffffffffffffffffffffffffff168473ffffffffffffffffffffffffffffffffffffffff167fddf252ad1be2c89b69c2b068fc378daa952ba7f163c4a11628f55a4df523b3ef60405160405180910390a4505050565b60006138708360000183613d3e565b60001c905092915050565b60006138868261242f565b905061389481600084613cc5565b61389f60008361345c565b600060086000848152602001908152602001600020805460018160011615610100020316600290049050146138ee576008600083815260200190815260200160002060006138ed9190614b2c565b5b61393f82600160008473ffffffffffffffffffffffffffffffffffffffff1673ffffffffffffffffffffffffffffffffffffffff168152602001908152602001600020613cd590919063ffffffff16565b50613954826002613dc190919063ffffffff16565b5081600073ffffffffffffffffffffffffffffffffffffffff168273ffffffffffffffffffffffffffffffffffffffff167fddf252ad1be2c89b69c2b068fc378daa952ba7f163c4a11628f55a4df523b3ef60405160405180910390a45050565b6000806000806139c88660000186613ddb565b915091508160001c8160001c9350935050509250929050565b60006139f4846000018460001b84613e74565b60001c90509392505050565b6000613a0e82600001613f6a565b9050919050565b613a2084848461361e565b613a2c84848484613f7b565b613a81576040517f08c379a0000000000000000000000000000000000000000000000000000000008152600401808060200182810382526032815260200180614bdf6032913960400191505060405180910390fd5b50505050565b60606000821415613acf576040518060400160405280600181526020017f30000000000000000000000000000000000000000000000000000000000000008152509050613bc9565b600082905060005b60008214613af9578080600101915050600a8281613af157fe5b049150613ad7565b60008167ffffffffffffffff81118015613b1257600080fd5b506040519080825280601f01601f191660200182016040528015613b455781602001600182028036833780820191505090505b50905060006001830390508593505b60008414613bc157600a8481613b6657fe5b0660300160f81b82828060019003935081518110613b8057fe5b60200101907effffffffffffffffffffffffffffffffffffffffffffffffffffffffffffff1916908160001a905350600a8481613bb957fe5b049350613b54565b819450505050505b919050565b6001816000016000828254019250508190555050565b600081600001549050919050565b613c0c828260405180602001604052806000815250614194565b5050565b613c1982613437565b613c6e576040517f08c379a000000000000000000000000000000000000000000000000000000000815260040180806020018281038252602c815260200180614d60602c913960400191505060405180910390fd5b80600860008481526020019081526020016000209080519060200190613c95929190614a9e565b505050565b6000613cac836000018360001b614205565b905092915050565b600081600001805490509050919050565b613cd0838383614228565b505050565b6000613ce7836000018360001b614296565b905092915050565b6000613d01836000018360001b61437e565b905092915050565b6000613d35846000018460001b8473ffffffffffffffffffffffffffffffffffffffff1660001b6143ee565b90509392505050565b600081836000018054905011613d9f576040517f08c379a0000000000000000000000000000000000000000000000000000000008152600401808060200182810382526022815260200180614b926022913960400191505060405180910390fd5b826000018281548110613dae57fe5b9060005260206000200154905092915050565b6000613dd3836000018360001b6144ca565b905092915050565b60008082846000018054905011613e3d576040517f08c379a0000000000000000000000000000000000000000000000000000000008152600401808060200182810382526022815260200180614d126022913960400191505060405180910390fd5b6000846000018481548110613e4e57fe5b906000526020600020906002020190508060000154816001015492509250509250929050565b60008084600101600085815260200190815260200160002054905060008114158390613f3b576040517f08c379a00000000000000000000000000000000000000000000000000000000081526004018080602001828103825283818151815260200191508051906020019080838360005b83811015613f00578082015181840152602081019050613ee5565b50505050905090810190601f168015613f2d5780820380516001836020036101000a031916815260200191505b509250505060405180910390fd5b50846000016001820381548110613f4e57fe5b9060005260206000209060020201600101549150509392505050565b600081600001805490509050919050565b6000613f9c8473ffffffffffffffffffffffffffffffffffffffff166145e3565b613fa9576001905061418c565b600061411363150b7a0260e01b613fbe613454565b888787604051602401808573ffffffffffffffffffffffffffffffffffffffff1681526020018473ffffffffffffffffffffffffffffffffffffffff16815260200183815260200180602001828103825283818151815260200191508051906020019080838360005b83811015614042578082015181840152602081019050614027565b50505050905090810190601f16801561406f5780820380516001836020036101000a031916815260200191505b5095505050505050604051602081830303815290604052907bffffffffffffffffffffffffffffffffffffffffffffffffffffffff19166020820180517bffffffffffffffffffffffffffffffffffffffffffffffffffffffff8381831617835250505050604051806060016040528060328152602001614bdf603291398773ffffffffffffffffffffffffffffffffffffffff166145f69092919063ffffffff16565b9050600081806020019051602081101561412c57600080fd5b8101908080519060200190929190505050905063150b7a0260e01b7bffffffffffffffffffffffffffffffffffffffffffffffffffffffff1916817bffffffffffffffffffffffffffffffffffffffffffffffffffffffff191614925050505b949350505050565b61419e838361460e565b6141ab6000848484613f7b565b614200576040517f08c379a0000000000000000000000000000000000000000000000000000000008152600401808060200182810382526032815260200180614bdf6032913960400191505060405180910390fd5b505050565b600080836001016000848152602001908152602001600020541415905092915050565b614233838383614802565b61423b612418565b15614291576040517f08c379a000000000000000000000000000000000000000000000000000000000815260040180806020018281038252602b815260200180614bb4602b913960400191505060405180910390fd5b505050565b6000808360010160008481526020019081526020016000205490506000811461437257600060018203905060006001866000018054905003905060008660000182815481106142e157fe5b90600052602060002001549050808760000184815481106142fe57fe5b906000526020600020018190555060018301876001016000838152602001908152602001600020819055508660000180548061433657fe5b60019003818190600052602060002001600090559055866001016000878152602001908152602001600020600090556001945050505050614378565b60009150505b92915050565b600061438a8383614807565b6143e35782600001829080600181540180825580915050600190039060005260206000200160009091909190915055826000018054905083600101600084815260200190815260200160002081905550600190506143e8565b600090505b92915050565b6000808460010160008581526020019081526020016000205490506000811415614495578460000160405180604001604052808681526020018581525090806001815401808255809150506001900390600052602060002090600202016000909190919091506000820151816000015560208201518160010155505084600001805490508560010160008681526020019081526020016000208190555060019150506144c3565b828560000160018303815481106144a857fe5b90600052602060002090600202016001018190555060009150505b9392505050565b600080836001016000848152602001908152602001600020549050600081146145d7576000600182039050600060018660000180549050039050600086600001828154811061451557fe5b906000526020600020906002020190508087600001848154811061453557fe5b906000526020600020906002020160008201548160000155600182015481600101559050506001830187600101600083600001548152602001908152602001600020819055508660000180548061458857fe5b60019003818190600052602060002090600202016000808201600090556001820160009055505090558660010160008781526020019081526020016000206000905560019450505050506145dd565b60009150505b92915050565b600080823b905060008111915050919050565b6060614605848460008561482a565b90509392505050565b600073ffffffffffffffffffffffffffffffffffffffff168273ffffffffffffffffffffffffffffffffffffffff1614156146b1576040517f08c379a00000000000000000000000000000000000000000000000000000000081526004018080602001828103825260208152602001807f4552433732313a206d696e7420746f20746865207a65726f206164647265737381525060200191505060405180910390fd5b6146ba81613437565b1561472d576040517f08c379a000000000000000000000000000000000000000000000000000000000815260040180806020018281038252601c8152602001807f4552433732313a20746f6b656e20616c7265616479206d696e7465640000000081525060200191505060405180910390fd5b61473960008383613cc5565b61478a81600160008573ffffffffffffffffffffffffffffffffffffffff1673ffffffffffffffffffffffffffffffffffffffff168152602001908152602001600020613cef90919063ffffffff16565b506147a181836002613d099092919063ffffffff16565b50808273ffffffffffffffffffffffffffffffffffffffff16600073ffffffffffffffffffffffffffffffffffffffff167fddf252ad1be2c89b69c2b068fc378daa952ba7f163c4a11628f55a4df523b3ef60405160405180910390a45050565b505050565b600080836001016000848152602001908152602001600020541415905092915050565b606082471015614885576040517f08c379a0000000000000000000000000000000000000000000000000000000008152600401808060200182810382526026815260200180614c356026913960400191505060405180910390fd5b61488e856145e3565b614900576040517f08c379a000000000000000000000000000000000000000000000000000000000815260040180806020018281038252601d8152602001807f416464726573733a2063616c6c20746f206e6f6e2d636f6e747261637400000081525060200191505060405180910390fd5b6000808673ffffffffffffffffffffffffffffffffffffffff1685876040518082805190602001908083835b6020831061494f578051825260208201915060208101905060208303925061492c565b6001836020036101000a03801982511681845116808217855250505050505090500191505060006040518083038185875af1925050503d80600081146149b1576040519150601f19603f3d011682016040523d82523d6000602084013e6149b6565b606091505b50915091506149c68282866149d2565b92505050949350505050565b606083156149e257829050614a97565b6000835111156149f55782518084602001fd5b816040517f08c379a00000000000000000000000000000000000000000000000000000000081526004018080602001828103825283818151815260200191508051906020019080838360005b83811015614a5c578082015181840152602081019050614a41565b50505050905090810190601f168015614a895780820380516001836020036101000a031916815260200191505b509250505060405180910390fd5b9392505050565b828054600181600116156101000203166002900490600052602060002090601f016020900481019282614ad45760008555614b1b565b82601f10614aed57805160ff1916838001178555614b1b565b82800160010185558215614b1b579182015b82811115614b1a578251825591602001919060010190614aff565b5b509050614b289190614b74565b5090565b50805460018160011615610100020316600290046000825580601f10614b525750614b71565b601f016020900490600052602060002090810190614b709190614b74565b5b50565b5b80821115614b8d576000816000905550600101614b75565b509056fe456e756d657261626c655365743a20696e646578206f7574206f6620626f756e64734552433732315061757361626c653a20746f6b656e207472616e73666572207768696c65207061757365644552433732313a207472616e7366657220746f206e6f6e20455243373231526563656976657220696d706c656d656e7465724552433732313a207472616e7366657220746f20746865207a65726f2061646472657373416464726573733a20696e73756666696369656e742062616c616e636520666f722063616c6c4552433732313a206f70657261746f7220717565727920666f72206e6f6e6578697374656e7420746f6b656e4552433732313a20617070726f76652063616c6c6572206973206e6f74206f776e6572206e6f7220617070726f76656420666f7220616c6c4552433732313a2062616c616e636520717565727920666f7220746865207a65726f20616464726573734552433732313a206f776e657220717565727920666f72206e6f6e6578697374656e7420746f6b656e456e756d657261626c654d61703a20696e646578206f7574206f6620626f756e64734552433732313a20617070726f76656420717565727920666f72206e6f6e6578697374656e7420746f6b656e4552433732314d657461646174613a2055524920736574206f66206e6f6e6578697374656e7420746f6b656e4552433732313a207472616e73666572206f6620746f6b656e2074686174206973206e6f74206f776e4552433732314d657461646174613a2055524920717565727920666f72206e6f6e6578697374656e7420746f6b656e4552433732313a20617070726f76616c20746f2063757272656e74206f776e65724552433732313a207472616e736665722063616c6c6572206973206e6f74206f776e6572206e6f7220617070726f766564a2646970667358221220000c9dae7a1b378f097becde328dff5e53d32ba2124038a5e842d39f184117a064736f6c63430007060033456e756d657261626c655365743a20696e646578206f7574206f6620626f756e6473416464726573733a20756e61626c6520746f2073656e642076616c75652c20726563697069656e74206d61792068617665207265766572746564a264697066735822122076883ff3ddf1a39a353c3049e6c9c0ea69b9ba14e8965bbe4762c361d46f69db64736f6c63430007060033",
  "immutableReferences": {},
  "source": "pragma solidity ^0.7.0;\npragma experimental ABIEncoderV2;\n\nimport \"./NFTDocumentMinter.sol\";\nimport \"./MinterRegistry.sol\";\nimport \"@openzeppelin/contracts/utils/EnumerableSet.sol\";\nimport \"@openzeppelin/contracts/math/SafeMath.sol\";\nimport \"@openzeppelin/contracts/utils/Address.sol\";\nimport \"./ERC20Interface.sol\";\n\ncontract NFTFactory is MinterRegistry {\n    using EnumerableSet for EnumerableSet.AddressSet;\n    using SafeMath for uint256;\n    using Address for address payable;\n\n    event MinterRemoved(address indexed minter);\n    event Withdrawn(address indexed payee, uint256 weiAmount);\n    address public owner;\n    uint256 fee = 0.4 * 1e18;\n    ERC20Interface public daiToken;\n\n    // minters\n    EnumerableSet.AddressSet internal minters;\n\n    constructor(address dai) public {\n        daiToken = ERC20Interface(dai);\n        owner = msg.sender;\n    }\n\n    function setProtocolFee(uint256 _fee) public {\n        require(msg.sender == owner, \"INVALID_USER\");\n        fee = _fee;\n    }\n\n    function getProtocolFee() public returns (uint256) {\n        return fee;\n    }\n\n    function withdraw(address payable payee) public {\n        require(msg.sender == owner, \"INVALID_USER\");\n        uint256 b = address(this).balance;\n        payee.sendValue(address(this).balance);\n\n        emit Withdrawn(payee, b);\n    }\n\n    function withdrawToken(address payable payee, address token) public {\n        require(msg.sender == owner, \"INVALID_USER\");\n        uint256 b = ERC20Interface(token).balanceOf(address(this));\n        payee.sendValue(b);\n\n        emit Withdrawn(payee, b);\n    }\n\n    function createMinter(\n        string memory name, \n        string memory symbol,\n        address paymentAddress,\n        bool userHasKyc,\n        uint feeStructure)\n        public\n        returns (address)\n    {\n\n        address minter =\n            address(new NFTDocumentMinter(\n                owner, \n                msg.sender, \n                name, \n                symbol, \n                daiToken));\n        \n        addToRegistry(\n            minter, \n            name,\n            symbol,\n            paymentAddress,\n            userHasKyc,\n            feeStructure,\n            fee,\n            address(this));\n\n        return minter;\n    }\n\n    function count() public view returns (uint256) {\n        return minters.length();\n    }\n\n    function get(uint256 index) public view returns (address) {\n        return minters.at(index);\n    }\n}\n",
  "sourcePath": "/home/esfera-ubuntu/Documents/projects/ifesa/nft-document-swap/contracts/NFTFactory.sol",
  "compiler": {
    "name": "solc",
    "version": "0.7.6+commit.7338295f.Emscripten.clang"
  },
  "schemaVersion": "3.3.3",
  "updatedAt": "2021-02-04T23:36:55.458Z",
  "devdoc": {
    "kind": "dev",
    "methods": {},
    "version": 1
  },
  "userdoc": {
    "kind": "user",
    "methods": {},
    "version": 1
  }
}