{
  "contractName": "NFTFactory",
  "abi": [
    {
      "inputs": [
        {
          "internalType": "address",
          "name": "dai",
          "type": "address"
        }
      ],
      "stateMutability": "nonpayable",
      "type": "constructor"
    },
    {
      "anonymous": false,
      "inputs": [
        {
          "indexed": true,
          "internalType": "address",
          "name": "minter",
          "type": "address"
        }
      ],
      "name": "MinterCreated",
      "type": "event"
    },
    {
      "anonymous": false,
      "inputs": [
        {
          "indexed": true,
          "internalType": "address",
          "name": "minter",
          "type": "address"
        }
      ],
      "name": "MinterRemoved",
      "type": "event"
    },
    {
      "anonymous": false,
      "inputs": [
        {
          "indexed": true,
          "internalType": "address",
          "name": "payee",
          "type": "address"
        },
        {
          "indexed": false,
          "internalType": "uint256",
          "name": "weiAmount",
          "type": "uint256"
        }
      ],
      "name": "Withdrawn",
      "type": "event"
    },
    {
      "inputs": [],
      "name": "daiToken",
      "outputs": [
        {
          "internalType": "contract ERC20Interface",
          "name": "",
          "type": "address"
        }
      ],
      "stateMutability": "view",
      "type": "function",
      "constant": true
    },
    {
      "inputs": [],
      "name": "owner",
      "outputs": [
        {
          "internalType": "address",
          "name": "",
          "type": "address"
        }
      ],
      "stateMutability": "view",
      "type": "function",
      "constant": true
    },
    {
      "inputs": [
        {
          "internalType": "uint256",
          "name": "_fee",
          "type": "uint256"
        }
      ],
      "name": "setProtocolFee",
      "outputs": [],
      "stateMutability": "nonpayable",
      "type": "function"
    },
    {
      "inputs": [],
      "name": "getProtocolFee",
      "outputs": [
        {
          "internalType": "uint256",
          "name": "",
          "type": "uint256"
        }
      ],
      "stateMutability": "nonpayable",
      "type": "function"
    },
    {
      "inputs": [
        {
          "internalType": "address payable",
          "name": "payee",
          "type": "address"
        }
      ],
      "name": "withdraw",
      "outputs": [],
      "stateMutability": "nonpayable",
      "type": "function"
    },
    {
      "inputs": [
        {
          "internalType": "address payable",
          "name": "payee",
          "type": "address"
        },
        {
          "internalType": "address",
          "name": "token",
          "type": "address"
        }
      ],
      "name": "withdrawToken",
      "outputs": [],
      "stateMutability": "nonpayable",
      "type": "function"
    },
    {
      "inputs": [
        {
          "internalType": "string",
          "name": "name",
          "type": "string"
        },
        {
          "internalType": "string",
          "name": "symbol",
          "type": "string"
        },
        {
          "internalType": "address",
          "name": "paymentAddress",
          "type": "address"
        },
        {
          "internalType": "uint256",
          "name": "feeStructure",
          "type": "uint256"
        }
      ],
      "name": "createMinter",
      "outputs": [
        {
          "internalType": "address",
          "name": "",
          "type": "address"
        }
      ],
      "stateMutability": "nonpayable",
      "type": "function"
    },
    {
      "inputs": [],
      "name": "count",
      "outputs": [
        {
          "internalType": "uint256",
          "name": "",
          "type": "uint256"
        }
      ],
      "stateMutability": "view",
      "type": "function",
      "constant": true
    },
    {
      "inputs": [
        {
          "internalType": "uint256",
          "name": "index",
          "type": "uint256"
        }
      ],
      "name": "get",
      "outputs": [
        {
          "internalType": "address",
          "name": "",
          "type": "address"
        }
      ],
      "stateMutability": "view",
      "type": "function",
      "constant": true
    }
  ],
  "bytecode": "0x608060405266071afd498d000060015534801561001b57600080fd5b50604051620053c9380380620053c9833981810160405281019061003f91906100db565b80600260006101000a81548173ffffffffffffffffffffffffffffffffffffffff021916908373ffffffffffffffffffffffffffffffffffffffff160217905550336000806101000a81548173ffffffffffffffffffffffffffffffffffffffff021916908373ffffffffffffffffffffffffffffffffffffffff1602179055505061014d565b6000815190506100d581610136565b92915050565b6000602082840312156100ed57600080fd5b60006100fb848285016100c6565b91505092915050565b600061010f82610116565b9050919050565b600073ffffffffffffffffffffffffffffffffffffffff82169050919050565b61013f81610104565b811461014a57600080fd5b50565b61526c806200015d6000396000f3fe60806040523480156200001157600080fd5b5060043610620000a05760003560e01c80638da5cb5b116200006f5780638da5cb5b14620001275780639507d39a14620001495780639909bbc5146200017f578063a5a4103114620001b5578063be22f54614620001d757620000a0565b806306661abd14620000a55780633aeac4e114620000c757806351cff8d914620000e7578063787dce3d1462000107575b600080fd5b620000af620001f9565b604051620000be919062000eef565b60405180910390f35b620000e56004803603810190620000df919062000a3d565b6200020c565b005b620001056004803603810190620000ff919062000a11565b620003b0565b005b6200012560048036038101906200011f919062000b1c565b620004c5565b005b6200013162000560565b60405162000140919062000d80565b60405180910390f35b62000167600480360381019062000161919062000b1c565b62000584565b60405162000176919062000d80565b60405180910390f35b6200019d600480360381019062000197919062000a7e565b620005a3565b604051620001ac919062000d80565b60405180910390f35b620001bf6200069f565b604051620001ce919062000eef565b60405180910390f35b620001e1620006a9565b604051620001f0919062000e4a565b60405180910390f35b6000620002076003620006cf565b905090565b60008054906101000a900473ffffffffffffffffffffffffffffffffffffffff1673ffffffffffffffffffffffffffffffffffffffff163373ffffffffffffffffffffffffffffffffffffffff16146200029d576040517f08c379a0000000000000000000000000000000000000000000000000000000008152600401620002949062000ecd565b60405180910390fd5b60008173ffffffffffffffffffffffffffffffffffffffff166370a08231306040518263ffffffff1660e01b8152600401620002da919062000d80565b60206040518083038186803b158015620002f357600080fd5b505afa15801562000308573d6000803e3d6000fd5b505050506040513d601f19601f820116820180604052508101906200032e919062000b48565b90506200035b818473ffffffffffffffffffffffffffffffffffffffff16620006e690919063ffffffff16565b8273ffffffffffffffffffffffffffffffffffffffff167f7084f5476618d8e60b11ef0d7d3f06914655adb8793e28ff7f018d4c76d505d582604051620003a3919062000eef565b60405180910390a2505050565b60008054906101000a900473ffffffffffffffffffffffffffffffffffffffff1673ffffffffffffffffffffffffffffffffffffffff163373ffffffffffffffffffffffffffffffffffffffff161462000441576040517f08c379a0000000000000000000000000000000000000000000000000000000008152600401620004389062000ecd565b60405180910390fd5b600047905062000471478373ffffffffffffffffffffffffffffffffffffffff16620006e690919063ffffffff16565b8173ffffffffffffffffffffffffffffffffffffffff167f7084f5476618d8e60b11ef0d7d3f06914655adb8793e28ff7f018d4c76d505d582604051620004b9919062000eef565b60405180910390a25050565b60008054906101000a900473ffffffffffffffffffffffffffffffffffffffff1673ffffffffffffffffffffffffffffffffffffffff163373ffffffffffffffffffffffffffffffffffffffff161462000556576040517f08c379a00000000000000000000000000000000000000000000000000000000081526004016200054d9062000ecd565b60405180910390fd5b8060018190555050565b60008054906101000a900473ffffffffffffffffffffffffffffffffffffffff1681565b60006200059c826003620007e490919063ffffffff16565b9050919050565b60008060008054906101000a900473ffffffffffffffffffffffffffffffffffffffff16338787866001548930600260009054906101000a900473ffffffffffffffffffffffffffffffffffffffff1660405162000601906200094b565b620006159998979695949392919062000d9d565b604051809103906000f08015801562000632573d6000803e3d6000fd5b50905060006200064d8260036200080090919063ffffffff16565b90508173ffffffffffffffffffffffffffffffffffffffff167f831ed02f2e588c9b5efbce03cfa21af10a2b8a8253f90c498bcf6dc73b60407f60405160405180910390a28192505050949350505050565b6000600154905090565b600260009054906101000a900473ffffffffffffffffffffffffffffffffffffffff1681565b6000620006df8260000162000832565b9050919050565b804710156200072c576040517f08c379a0000000000000000000000000000000000000000000000000000000008152600401620007239062000eab565b60405180910390fd5b60008273ffffffffffffffffffffffffffffffffffffffff1682604051620007549062000d69565b60006040518083038185875af1925050503d806000811462000793576040519150601f19603f3d011682016040523d82523d6000602084013e62000798565b606091505b5050905080620007df576040517f08c379a0000000000000000000000000000000000000000000000000000000008152600401620007d69062000e89565b60405180910390fd5b505050565b6000620007f5836000018362000843565b60001c905092915050565b60006200082a836000018373ffffffffffffffffffffffffffffffffffffffff1660001b620008b4565b905092915050565b600081600001805490509050919050565b60008183600001805490501162000891576040517f08c379a0000000000000000000000000000000000000000000000000000000008152600401620008889062000e67565b60405180910390fd5b826000018281548110620008a157fe5b9060005260206000200154905092915050565b6000620008c2838362000928565b6200091d57826000018290806001815401808255809150506001900390600052602060002001600090919091909150558260000180549050836001016000848152602001908152602001600020819055506001905062000922565b600090505b92915050565b600080836001016000848152602001908152602001600020541415905092915050565b61414e80620010e983390190565b6000813590506200096a816200109a565b92915050565b6000813590506200098181620010b4565b92915050565b600082601f8301126200099957600080fd5b8135620009b0620009aa8262000f3a565b62000f0c565b91508082526020830160208301858383011115620009cd57600080fd5b620009da83828462001044565b50505092915050565b600081359050620009f481620010ce565b92915050565b60008151905062000a0b81620010ce565b92915050565b60006020828403121562000a2457600080fd5b600062000a348482850162000970565b91505092915050565b6000806040838503121562000a5157600080fd5b600062000a618582860162000970565b925050602062000a748582860162000959565b9150509250929050565b6000806000806080858703121562000a9557600080fd5b600085013567ffffffffffffffff81111562000ab057600080fd5b62000abe8782880162000987565b945050602085013567ffffffffffffffff81111562000adc57600080fd5b62000aea8782880162000987565b935050604062000afd8782880162000959565b925050606062000b1087828801620009e3565b91505092959194509250565b60006020828403121562000b2f57600080fd5b600062000b3f84828501620009e3565b91505092915050565b60006020828403121562000b5b57600080fd5b600062000b6b84828501620009fa565b91505092915050565b62000b7f8162000fe0565b82525050565b62000b908162000f8e565b82525050565b62000ba18162000ff4565b82525050565b600062000bb48262000f67565b62000bc0818562000f7d565b935062000bd281856020860162001053565b62000bdd8162001089565b840191505092915050565b600062000bf760228362000f7d565b91507f456e756d657261626c655365743a20696e646578206f7574206f6620626f756e60008301527f64730000000000000000000000000000000000000000000000000000000000006020830152604082019050919050565b600062000c5f603a8362000f7d565b91507f416464726573733a20756e61626c6520746f2073656e642076616c75652c207260008301527f6563697069656e74206d617920686176652072657665727465640000000000006020830152604082019050919050565b600062000cc7601d8362000f7d565b91507f416464726573733a20696e73756666696369656e742062616c616e63650000006000830152602082019050919050565b600062000d09600c8362000f7d565b91507f494e56414c49445f5553455200000000000000000000000000000000000000006000830152602082019050919050565b600062000d4b60008362000f72565b9150600082019050919050565b62000d638162000fd6565b82525050565b600062000d768262000d3c565b9150819050919050565b600060208201905062000d97600083018462000b85565b92915050565b60006101208201905062000db5600083018c62000b85565b62000dc4602083018b62000b74565b818103604083015262000dd8818a62000ba7565b9050818103606083015262000dee818962000ba7565b905062000dff608083018862000d58565b62000e0e60a083018762000d58565b62000e1d60c083018662000b85565b62000e2c60e083018562000b85565b62000e3c61010083018462000b96565b9a9950505050505050505050565b600060208201905062000e61600083018462000b96565b92915050565b6000602082019050818103600083015262000e828162000be8565b9050919050565b6000602082019050818103600083015262000ea48162000c50565b9050919050565b6000602082019050818103600083015262000ec68162000cb8565b9050919050565b6000602082019050818103600083015262000ee88162000cfa565b9050919050565b600060208201905062000f06600083018462000d58565b92915050565b6000604051905081810181811067ffffffffffffffff8211171562000f3057600080fd5b8060405250919050565b600067ffffffffffffffff82111562000f5257600080fd5b601f19601f8301169050602081019050919050565b600081519050919050565b600081905092915050565b600082825260208201905092915050565b600062000f9b8262000fb6565b9050919050565b600062000faf8262000fb6565b9050919050565b600073ffffffffffffffffffffffffffffffffffffffff82169050919050565b6000819050919050565b600062000fed826200101c565b9050919050565b6000620010018262001008565b9050919050565b6000620010158262000fb6565b9050919050565b6000620010298262001030565b9050919050565b60006200103d8262000fb6565b9050919050565b82818337600083830152505050565b60005b838110156200107357808201518184015260208101905062001056565b8381111562001083576000848401525b50505050565b6000601f19601f8301169050919050565b620010a58162000f8e565b8114620010b157600080fd5b50565b620010bf8162000fa2565b8114620010cb57600080fd5b50565b620010d98162000fd6565b8114620010e557600080fd5b5056fe60806040523480156200001157600080fd5b506040516200414e3803806200414e83398181016040526101208110156200003857600080fd5b810190808051906020019092919080519060200190929190805160405193929190846401000000008211156200006d57600080fd5b838201915060208201858111156200008457600080fd5b8251866001820283011164010000000082111715620000a257600080fd5b8083526020830192505050908051906020019080838360005b83811015620000d8578082015181840152602081019050620000bb565b50505050905090810190601f168015620001065780820380516001836020036101000a031916815260200191505b50604052602001805160405193929190846401000000008211156200012a57600080fd5b838201915060208201858111156200014157600080fd5b82518660018202830111640100000000821117156200015f57600080fd5b8083526020830192505050908051906020019080838360005b838110156200019557808201518184015260208101905062000178565b50505050905090810190601f168015620001c35780820380516001836020036101000a031916815260200191505b5060405260200180519060200190929190805190602001909291908051906020019092919080519060200190929190805190602001909291905050508686620002196301ffc9a760e01b6200041260201b60201c565b8160069080519060200190620002319291906200051b565b5080600790805190602001906200024a9291906200051b565b50620002636380ac58cd60e01b6200041260201b60201c565b6200027b635b5e139f60e01b6200041260201b60201c565b6200029363780e9d6360e01b6200041260201b60201c565b50506000600a60006101000a81548160ff02191690831515021790555088600c60006101000a81548173ffffffffffffffffffffffffffffffffffffffff021916908373ffffffffffffffffffffffffffffffffffffffff16021790555087600f60006101000a81548173ffffffffffffffffffffffffffffffffffffffff021916908373ffffffffffffffffffffffffffffffffffffffff16021790555080601060006101000a81548173ffffffffffffffffffffffffffffffffffffffff021916908373ffffffffffffffffffffffffffffffffffffffff16021790555084600e8190555083600d8190555082601260006101000a81548173ffffffffffffffffffffffffffffffffffffffff021916908373ffffffffffffffffffffffffffffffffffffffff16021790555081601160006101000a81548173ffffffffffffffffffffffffffffffffffffffff021916908373ffffffffffffffffffffffffffffffffffffffff160217905550505050505050505050620005c1565b63ffffffff60e01b817bffffffffffffffffffffffffffffffffffffffffffffffffffffffff19161415620004af576040517f08c379a000000000000000000000000000000000000000000000000000000000815260040180806020018281038252601c8152602001807f4552433136353a20696e76616c696420696e746572666163652069640000000081525060200191505060405180910390fd5b6001600080837bffffffffffffffffffffffffffffffffffffffffffffffffffffffff19167bffffffffffffffffffffffffffffffffffffffffffffffffffffffff1916815260200190815260200160002060006101000a81548160ff02191690831515021790555050565b828054600181600116156101000203166002900490600052602060002090601f016020900481019282601f106200055e57805160ff19168380011785556200058f565b828001600101855582156200058f579182015b828111156200058e57825182559160200191906001019062000571565b5b5090506200059e9190620005a2565b5090565b5b80821115620005bd576000816000905550600101620005a3565b5090565b613b7d80620005d16000396000f3fe60806040526004361061019c5760003560e01c80636c0360eb116100ec578063b88d4fde1161008a578063d0def52111610064578063d0def52114610ad7578063deb6ce3114610bd3578063e469193114610c14578063e985e9c514610c555761019c565b8063b88d4fde146108d0578063be22f546146109e2578063c87b56dd14610a235761019c565b80637285e3b9116100c65780637285e3b9146107775780638da5cb5b146107a257806395d89b41146107e3578063a22cb465146108735761019c565b80636c0360eb146106415780636e3e2fa6146106d157806370a08231146107125761019c565b806323b872dd1161015957806342966c681161013357806342966c681461051c5780634f6ccce7146105605780635c975abb146105af5780636352211e146105dc5761019c565b806323b872dd146103b75780632f745c591461043257806342842e0e146104a15761019c565b806301609fd3146101a157806301ffc9a7146101cc57806306fdde031461023c578063081812fc146102cc578063095ea7b31461033157806318160ddd1461038c575b600080fd5b3480156101ad57600080fd5b506101b6610cdc565b6040518082815260200191505060405180910390f35b3480156101d857600080fd5b50610224600480360360208110156101ef57600080fd5b8101908080357bffffffffffffffffffffffffffffffffffffffffffffffffffffffff19169060200190929190505050610ce2565b60405180821515815260200191505060405180910390f35b34801561024857600080fd5b50610251610d49565b6040518080602001828103825283818151815260200191508051906020019080838360005b83811015610291578082015181840152602081019050610276565b50505050905090810190601f1680156102be5780820380516001836020036101000a031916815260200191505b509250505060405180910390f35b3480156102d857600080fd5b50610305600480360360208110156102ef57600080fd5b8101908080359060200190929190505050610deb565b604051808273ffffffffffffffffffffffffffffffffffffffff16815260200191505060405180910390f35b34801561033d57600080fd5b5061038a6004803603604081101561035457600080fd5b81019080803573ffffffffffffffffffffffffffffffffffffffff16906020019092919080359060200190929190505050610e86565b005b34801561039857600080fd5b506103a1610fca565b6040518082815260200191505060405180910390f35b3480156103c357600080fd5b50610430600480360360608110156103da57600080fd5b81019080803573ffffffffffffffffffffffffffffffffffffffff169060200190929190803573ffffffffffffffffffffffffffffffffffffffff16906020019092919080359060200190929190505050610fdb565b005b34801561043e57600080fd5b5061048b6004803603604081101561045557600080fd5b81019080803573ffffffffffffffffffffffffffffffffffffffff16906020019092919080359060200190929190505050611051565b6040518082815260200191505060405180910390f35b3480156104ad57600080fd5b5061051a600480360360608110156104c457600080fd5b81019080803573ffffffffffffffffffffffffffffffffffffffff169060200190929190803573ffffffffffffffffffffffffffffffffffffffff169060200190929190803590602001909291905050506110ac565b005b6105486004803603602081101561053257600080fd5b81019080803590602001909291905050506110cc565b60405180821515815260200191505060405180910390f35b34801561056c57600080fd5b506105996004803603602081101561058357600080fd5b8101908080359060200190929190505050611762565b6040518082815260200191505060405180910390f35b3480156105bb57600080fd5b506105c4611785565b60405180821515815260200191505060405180910390f35b3480156105e857600080fd5b50610615600480360360208110156105ff57600080fd5b810190808035906020019092919050505061179c565b604051808273ffffffffffffffffffffffffffffffffffffffff16815260200191505060405180910390f35b34801561064d57600080fd5b506106566117d3565b6040518080602001828103825283818151815260200191508051906020019080838360005b8381101561069657808201518184015260208101905061067b565b50505050905090810190601f1680156106c35780820380516001836020036101000a031916815260200191505b509250505060405180910390f35b3480156106dd57600080fd5b506106e6611875565b604051808273ffffffffffffffffffffffffffffffffffffffff16815260200191505060405180910390f35b34801561071e57600080fd5b506107616004803603602081101561073557600080fd5b81019080803573ffffffffffffffffffffffffffffffffffffffff16906020019092919050505061189b565b6040518082815260200191505060405180910390f35b34801561078357600080fd5b5061078c611970565b6040518082815260200191505060405180910390f35b3480156107ae57600080fd5b506107b7611976565b604051808273ffffffffffffffffffffffffffffffffffffffff16815260200191505060405180910390f35b3480156107ef57600080fd5b506107f861199c565b6040518080602001828103825283818151815260200191508051906020019080838360005b8381101561083857808201518184015260208101905061081d565b50505050905090810190601f1680156108655780820380516001836020036101000a031916815260200191505b509250505060405180910390f35b34801561087f57600080fd5b506108ce6004803603604081101561089657600080fd5b81019080803573ffffffffffffffffffffffffffffffffffffffff169060200190929190803515159060200190929190505050611a3e565b005b3480156108dc57600080fd5b506109e0600480360360808110156108f357600080fd5b81019080803573ffffffffffffffffffffffffffffffffffffffff169060200190929190803573ffffffffffffffffffffffffffffffffffffffff169060200190929190803590602001909291908035906020019064010000000081111561095a57600080fd5b82018360208201111561096c57600080fd5b8035906020019184600183028401116401000000008311171561098e57600080fd5b91908080601f016020809104026020016040519081016040528093929190818152602001838380828437600081840152601f19601f820116905080830192505050505050509192919290505050611bf4565b005b3480156109ee57600080fd5b506109f7611c6c565b604051808273ffffffffffffffffffffffffffffffffffffffff16815260200191505060405180910390f35b348015610a2f57600080fd5b50610a5c60048036036020811015610a4657600080fd5b8101908080359060200190929190505050611c92565b6040518080602001828103825283818151815260200191508051906020019080838360005b83811015610a9c578082015181840152602081019050610a81565b50505050905090810190601f168015610ac95780820380516001836020036101000a031916815260200191505b509250505060405180910390f35b348015610ae357600080fd5b50610bbd60048036036040811015610afa57600080fd5b81019080803573ffffffffffffffffffffffffffffffffffffffff16906020019092919080359060200190640100000000811115610b3757600080fd5b820183602082011115610b4957600080fd5b80359060200191846001830284011164010000000083111715610b6b57600080fd5b91908080601f016020809104026020016040519081016040528093929190818152602001838380828437600081840152601f19601f820116905080830192505050505050509192919290505050611f7b565b6040518082815260200191505060405180910390f35b348015610bdf57600080fd5b50610be8612076565b604051808273ffffffffffffffffffffffffffffffffffffffff16815260200191505060405180910390f35b348015610c2057600080fd5b50610c2961209c565b604051808273ffffffffffffffffffffffffffffffffffffffff16815260200191505060405180910390f35b348015610c6157600080fd5b50610cc460048036036040811015610c7857600080fd5b81019080803573ffffffffffffffffffffffffffffffffffffffff169060200190929190803573ffffffffffffffffffffffffffffffffffffffff1690602001909291905050506120c2565b60405180821515815260200191505060405180910390f35b600e5481565b6000806000837bffffffffffffffffffffffffffffffffffffffffffffffffffffffff19167bffffffffffffffffffffffffffffffffffffffffffffffffffffffff1916815260200190815260200160002060009054906101000a900460ff169050919050565b606060068054600181600116156101000203166002900480601f016020809104026020016040519081016040528092919081815260200182805460018160011615610100020316600290048015610de15780601f10610db657610100808354040283529160200191610de1565b820191906000526020600020905b815481529060010190602001808311610dc457829003601f168201915b5050505050905090565b6000610df682612156565b610e4b576040517f08c379a000000000000000000000000000000000000000000000000000000000815260040180806020018281038252602c815260200180613a46602c913960400191505060405180910390fd5b6004600083815260200190815260200160002060009054906101000a900473ffffffffffffffffffffffffffffffffffffffff169050919050565b6000610e918261179c565b90508073ffffffffffffffffffffffffffffffffffffffff168373ffffffffffffffffffffffffffffffffffffffff161415610f18576040517f08c379a0000000000000000000000000000000000000000000000000000000008152600401808060200182810382526021815260200180613af66021913960400191505060405180910390fd5b8073ffffffffffffffffffffffffffffffffffffffff16610f37612173565b73ffffffffffffffffffffffffffffffffffffffff161480610f665750610f6581610f60612173565b6120c2565b5b610fbb576040517f08c379a00000000000000000000000000000000000000000000000000000000081526004018080602001828103825260388152602001806139996038913960400191505060405180910390fd5b610fc5838361217b565b505050565b6000610fd66002612234565b905090565b610fec610fe6612173565b82612249565b611041576040517f08c379a0000000000000000000000000000000000000000000000000000000008152600401808060200182810382526031815260200180613b176031913960400191505060405180910390fd5b61104c83838361233d565b505050565b60006110a482600160008673ffffffffffffffffffffffffffffffffffffffff1673ffffffffffffffffffffffffffffffffffffffff16815260200190815260200160002061258090919063ffffffff16565b905092915050565b6110c783838360405180602001604052806000815250611bf4565b505050565b6000600d54600e54013414611149576040517f08c379a00000000000000000000000000000000000000000000000000000000081526004018080602001828103825260188152602001807f4d5553542053454e4420464545204245464f524520555345000000000000000081525060200191505060405180910390fd5b6000601060009054906101000a900473ffffffffffffffffffffffffffffffffffffffff1673ffffffffffffffffffffffffffffffffffffffff166370a08231336040518263ffffffff1660e01b8152600401808273ffffffffffffffffffffffffffffffffffffffff16815260200191505060206040518083038186803b1580156111d457600080fd5b505afa1580156111e8573d6000803e3d6000fd5b505050506040513d60208110156111fe57600080fd5b810190808051906020019092919050505011611282576040517f08c379a00000000000000000000000000000000000000000000000000000000081526004018080602001828103825260158152602001807f496e76616c696420746f6b656e2062616c616e6365000000000000000000000081525060200191505060405180910390fd5b6000601060009054906101000a900473ffffffffffffffffffffffffffffffffffffffff1673ffffffffffffffffffffffffffffffffffffffff1663dd62ed3e33306040518363ffffffff1660e01b8152600401808373ffffffffffffffffffffffffffffffffffffffff1681526020018273ffffffffffffffffffffffffffffffffffffffff1681526020019250505060206040518083038186803b15801561132b57600080fd5b505afa15801561133f573d6000803e3d6000fd5b505050506040513d602081101561135557600080fd5b8101908080519060200190929190505050116113d9576040517f08c379a00000000000000000000000000000000000000000000000000000000081526004018080602001828103825260178152602001807f496e76616c696420746f6b656e20616c6c6f77616e636500000000000000000081525060200191505060405180910390fd5b6113e28261259a565b601060009054906101000a900473ffffffffffffffffffffffffffffffffffffffff1673ffffffffffffffffffffffffffffffffffffffff166323b872dd33601260009054906101000a900473ffffffffffffffffffffffffffffffffffffffff16600e546040518463ffffffff1660e01b8152600401808473ffffffffffffffffffffffffffffffffffffffff1681526020018373ffffffffffffffffffffffffffffffffffffffff1681526020018281526020019350505050602060405180830381600087803b1580156114b757600080fd5b505af11580156114cb573d6000803e3d6000fd5b505050506040513d60208110156114e157600080fd5b8101908080519060200190929190505050611564576040517f08c379a000000000000000000000000000000000000000000000000000000000815260040180806020018281038252601e8152602001807f5472616e73666572206661696c656420666f72206261736520746f6b656e000081525060200191505060405180910390fd5b601060009054906101000a900473ffffffffffffffffffffffffffffffffffffffff1673ffffffffffffffffffffffffffffffffffffffff166323b872dd33601160009054906101000a900473ffffffffffffffffffffffffffffffffffffffff16600d546040518463ffffffff1660e01b8152600401808473ffffffffffffffffffffffffffffffffffffffff1681526020018373ffffffffffffffffffffffffffffffffffffffff1681526020018281526020019350505050602060405180830381600087803b15801561163957600080fd5b505af115801561164d573d6000803e3d6000fd5b505050506040513d602081101561166357600080fd5b81019080805190602001909291905050506116e6576040517f08c379a000000000000000000000000000000000000000000000000000000000815260040180806020018281038252601e8152602001807f5472616e73666572206661696c656420666f72206261736520746f6b656e000081525060200191505060405180910390fd5b7f922440b9b32ceea32c28a1e3eaab6666b0c219fb8184013c17bc787fc6be8ecb303384604051808473ffffffffffffffffffffffffffffffffffffffff1681526020018373ffffffffffffffffffffffffffffffffffffffff168152602001828152602001935050505060405180910390a160019050919050565b6000806117798360026126d490919063ffffffff16565b50905080915050919050565b6000600a60009054906101000a900460ff16905090565b60006117cc826040518060600160405280602981526020016139fb6029913960026127009092919063ffffffff16565b9050919050565b606060098054600181600116156101000203166002900480601f01602080910402602001604051908101604052809291908181526020018280546001816001161561010002031660029004801561186b5780601f106118405761010080835404028352916020019161186b565b820191906000526020600020905b81548152906001019060200180831161184e57829003601f168201915b5050505050905090565b601260009054906101000a900473ffffffffffffffffffffffffffffffffffffffff1681565b60008073ffffffffffffffffffffffffffffffffffffffff168273ffffffffffffffffffffffffffffffffffffffff161415611922576040517f08c379a000000000000000000000000000000000000000000000000000000000815260040180806020018281038252602a8152602001806139d1602a913960400191505060405180910390fd5b611969600160008473ffffffffffffffffffffffffffffffffffffffff1673ffffffffffffffffffffffffffffffffffffffff16815260200190815260200160002061271f565b9050919050565b600d5481565b600c60009054906101000a900473ffffffffffffffffffffffffffffffffffffffff1681565b606060078054600181600116156101000203166002900480601f016020809104026020016040519081016040528092919081815260200182805460018160011615610100020316600290048015611a345780601f10611a0957610100808354040283529160200191611a34565b820191906000526020600020905b815481529060010190602001808311611a1757829003601f168201915b5050505050905090565b611a46612173565b73ffffffffffffffffffffffffffffffffffffffff168273ffffffffffffffffffffffffffffffffffffffff161415611ae7576040517f08c379a00000000000000000000000000000000000000000000000000000000081526004018080602001828103825260198152602001807f4552433732313a20617070726f766520746f2063616c6c65720000000000000081525060200191505060405180910390fd5b8060056000611af4612173565b73ffffffffffffffffffffffffffffffffffffffff1673ffffffffffffffffffffffffffffffffffffffff16815260200190815260200160002060008473ffffffffffffffffffffffffffffffffffffffff1673ffffffffffffffffffffffffffffffffffffffff16815260200190815260200160002060006101000a81548160ff0219169083151502179055508173ffffffffffffffffffffffffffffffffffffffff16611ba1612173565b73ffffffffffffffffffffffffffffffffffffffff167f17307eab39ab6107e8899845ad3d59bd9653f200f220920489ca2b5937696c318360405180821515815260200191505060405180910390a35050565b611c05611bff612173565b83612249565b611c5a576040517f08c379a0000000000000000000000000000000000000000000000000000000008152600401808060200182810382526031815260200180613b176031913960400191505060405180910390fd5b611c6684848484612734565b50505050565b601060009054906101000a900473ffffffffffffffffffffffffffffffffffffffff1681565b6060611c9d82612156565b611cf2576040517f08c379a000000000000000000000000000000000000000000000000000000000815260040180806020018281038252602f815260200180613ac7602f913960400191505060405180910390fd5b6060600860008481526020019081526020016000208054600181600116156101000203166002900480601f016020809104026020016040519081016040528092919081815260200182805460018160011615610100020316600290048015611d9b5780601f10611d7057610100808354040283529160200191611d9b565b820191906000526020600020905b815481529060010190602001808311611d7e57829003601f168201915b50505050509050600060098054600181600116156101000203166002900490501415611dca5780915050611f76565b600081511115611ea3576009816040516020018083805460018160011615610100020316600290048015611e355780601f10611e13576101008083540402835291820191611e35565b820191906000526020600020905b815481529060010190602001808311611e21575b505082805190602001908083835b60208310611e665780518252602082019150602081019050602083039250611e43565b6001836020036101000a03801982511681845116808217855250505050505090500192505050604051602081830303815290604052915050611f76565b6009611eae846127a6565b6040516020018083805460018160011615610100020316600290048015611f0c5780601f10611eea576101008083540402835291820191611f0c565b820191906000526020600020905b815481529060010190602001808311611ef8575b505082805190602001908083835b60208310611f3d5780518252602082019150602081019050602083039250611f1a565b6001836020036101000a038019825116818451168082178552505050505050905001925050506040516020818303038152906040529150505b919050565b60003373ffffffffffffffffffffffffffffffffffffffff16600f60009054906101000a900473ffffffffffffffffffffffffffffffffffffffff1673ffffffffffffffffffffffffffffffffffffffff1614612040576040517f08c379a000000000000000000000000000000000000000000000000000000000815260040180806020018281038252600e8152602001807f494e56414c4944204d494e54455200000000000000000000000000000000000081525060200191505060405180910390fd5b61204a600b6128ed565b6000612056600b612903565b90506120628482612911565b61206c818461292f565b8091505092915050565b600f60009054906101000a900473ffffffffffffffffffffffffffffffffffffffff1681565b601160009054906101000a900473ffffffffffffffffffffffffffffffffffffffff1681565b6000600560008473ffffffffffffffffffffffffffffffffffffffff1673ffffffffffffffffffffffffffffffffffffffff16815260200190815260200160002060008373ffffffffffffffffffffffffffffffffffffffff1673ffffffffffffffffffffffffffffffffffffffff16815260200190815260200160002060009054906101000a900460ff16905092915050565b600061216c8260026129b990919063ffffffff16565b9050919050565b600033905090565b816004600083815260200190815260200160002060006101000a81548173ffffffffffffffffffffffffffffffffffffffff021916908373ffffffffffffffffffffffffffffffffffffffff160217905550808273ffffffffffffffffffffffffffffffffffffffff166121ee8361179c565b73ffffffffffffffffffffffffffffffffffffffff167f8c5be1e5ebec7d5bd14f71427d1e84f3dd0314c0f7b2291e5b200ac8c7c3b92560405160405180910390a45050565b6000612242826000016129d3565b9050919050565b600061225482612156565b6122a9576040517f08c379a000000000000000000000000000000000000000000000000000000000815260040180806020018281038252602c81526020018061396d602c913960400191505060405180910390fd5b60006122b48361179c565b90508073ffffffffffffffffffffffffffffffffffffffff168473ffffffffffffffffffffffffffffffffffffffff16148061232357508373ffffffffffffffffffffffffffffffffffffffff1661230b84610deb565b73ffffffffffffffffffffffffffffffffffffffff16145b80612334575061233381856120c2565b5b91505092915050565b8273ffffffffffffffffffffffffffffffffffffffff1661235d8261179c565b73ffffffffffffffffffffffffffffffffffffffff16146123c9576040517f08c379a0000000000000000000000000000000000000000000000000000000008152600401808060200182810382526029815260200180613a9e6029913960400191505060405180910390fd5b600073ffffffffffffffffffffffffffffffffffffffff168273ffffffffffffffffffffffffffffffffffffffff16141561244f576040517f08c379a00000000000000000000000000000000000000000000000000000000081526004018080602001828103825260248152602001806139236024913960400191505060405180910390fd5b61245a8383836129e4565b61246560008261217b565b6124b681600160008673ffffffffffffffffffffffffffffffffffffffff1673ffffffffffffffffffffffffffffffffffffffff1681526020019081526020016000206129f490919063ffffffff16565b5061250881600160008573ffffffffffffffffffffffffffffffffffffffff1673ffffffffffffffffffffffffffffffffffffffff168152602001908152602001600020612a0e90919063ffffffff16565b5061251f81836002612a289092919063ffffffff16565b50808273ffffffffffffffffffffffffffffffffffffffff168473ffffffffffffffffffffffffffffffffffffffff167fddf252ad1be2c89b69c2b068fc378daa952ba7f163c4a11628f55a4df523b3ef60405160405180910390a4505050565b600061258f8360000183612a5d565b60001c905092915050565b60006125a58261179c565b90506125b3816000846129e4565b6125be60008361217b565b6000600860008481526020019081526020016000208054600181600116156101000203166002900490501461260d5760086000838152602001908152602001600020600061260c91906137be565b5b61265e82600160008473ffffffffffffffffffffffffffffffffffffffff1673ffffffffffffffffffffffffffffffffffffffff1681526020019081526020016000206129f490919063ffffffff16565b50612673826002612ae090919063ffffffff16565b5081600073ffffffffffffffffffffffffffffffffffffffff168273ffffffffffffffffffffffffffffffffffffffff167fddf252ad1be2c89b69c2b068fc378daa952ba7f163c4a11628f55a4df523b3ef60405160405180910390a45050565b6000806000806126e78660000186612afa565b915091508160001c8160001c9350935050509250929050565b6000612713846000018460001b84612b93565b60001c90509392505050565b600061272d82600001612c89565b9050919050565b61273f84848461233d565b61274b84848484612c9a565b6127a0576040517f08c379a00000000000000000000000000000000000000000000000000000000081526004018080602001828103825260328152602001806138f16032913960400191505060405180910390fd5b50505050565b606060008214156127ee576040518060400160405280600181526020017f300000000000000000000000000000000000000000000000000000000000000081525090506128e8565b600082905060005b60008214612818578080600101915050600a828161281057fe5b0491506127f6565b60608167ffffffffffffffff8111801561283157600080fd5b506040519080825280601f01601f1916602001820160405280156128645781602001600182028036833780820191505090505b50905060006001830390508593505b600084146128e057600a848161288557fe5b0660300160f81b8282806001900393508151811061289f57fe5b60200101907effffffffffffffffffffffffffffffffffffffffffffffffffffffffffffff1916908160001a905350600a84816128d857fe5b049350612873565b819450505050505b919050565b6001816000016000828254019250508190555050565b600081600001549050919050565b61292b828260405180602001604052806000815250612eb3565b5050565b61293882612156565b61298d576040517f08c379a000000000000000000000000000000000000000000000000000000000815260040180806020018281038252602c815260200180613a72602c913960400191505060405180910390fd5b806008600084815260200190815260200160002090805190602001906129b4929190613806565b505050565b60006129cb836000018360001b612f24565b905092915050565b600081600001805490509050919050565b6129ef838383612f47565b505050565b6000612a06836000018360001b612fb5565b905092915050565b6000612a20836000018360001b61309d565b905092915050565b6000612a54846000018460001b8473ffffffffffffffffffffffffffffffffffffffff1660001b61310d565b90509392505050565b600081836000018054905011612abe576040517f08c379a00000000000000000000000000000000000000000000000000000000081526004018080602001828103825260228152602001806138a46022913960400191505060405180910390fd5b826000018281548110612acd57fe5b9060005260206000200154905092915050565b6000612af2836000018360001b6131e9565b905092915050565b60008082846000018054905011612b5c576040517f08c379a0000000000000000000000000000000000000000000000000000000008152600401808060200182810382526022815260200180613a246022913960400191505060405180910390fd5b6000846000018481548110612b6d57fe5b906000526020600020906002020190508060000154816001015492509250509250929050565b60008084600101600085815260200190815260200160002054905060008114158390612c5a576040517f08c379a00000000000000000000000000000000000000000000000000000000081526004018080602001828103825283818151815260200191508051906020019080838360005b83811015612c1f578082015181840152602081019050612c04565b50505050905090810190601f168015612c4c5780820380516001836020036101000a031916815260200191505b509250505060405180910390fd5b50846000016001820381548110612c6d57fe5b9060005260206000209060020201600101549150509392505050565b600081600001805490509050919050565b6000612cbb8473ffffffffffffffffffffffffffffffffffffffff16613302565b612cc85760019050612eab565b6060612e3263150b7a0260e01b612cdd612173565b888787604051602401808573ffffffffffffffffffffffffffffffffffffffff1681526020018473ffffffffffffffffffffffffffffffffffffffff16815260200183815260200180602001828103825283818151815260200191508051906020019080838360005b83811015612d61578082015181840152602081019050612d46565b50505050905090810190601f168015612d8e5780820380516001836020036101000a031916815260200191505b5095505050505050604051602081830303815290604052907bffffffffffffffffffffffffffffffffffffffffffffffffffffffff19166020820180517bffffffffffffffffffffffffffffffffffffffffffffffffffffffff83818316178352505050506040518060600160405280603281526020016138f1603291398773ffffffffffffffffffffffffffffffffffffffff166133159092919063ffffffff16565b90506000818060200190516020811015612e4b57600080fd5b8101908080519060200190929190505050905063150b7a0260e01b7bffffffffffffffffffffffffffffffffffffffffffffffffffffffff1916817bffffffffffffffffffffffffffffffffffffffffffffffffffffffff191614925050505b949350505050565b612ebd838361332d565b612eca6000848484612c9a565b612f1f576040517f08c379a00000000000000000000000000000000000000000000000000000000081526004018080602001828103825260328152602001806138f16032913960400191505060405180910390fd5b505050565b600080836001016000848152602001908152602001600020541415905092915050565b612f52838383613521565b612f5a611785565b15612fb0576040517f08c379a000000000000000000000000000000000000000000000000000000000815260040180806020018281038252602b8152602001806138c6602b913960400191505060405180910390fd5b505050565b60008083600101600084815260200190815260200160002054905060008114613091576000600182039050600060018660000180549050039050600086600001828154811061300057fe5b906000526020600020015490508087600001848154811061301d57fe5b906000526020600020018190555060018301876001016000838152602001908152602001600020819055508660000180548061305557fe5b60019003818190600052602060002001600090559055866001016000878152602001908152602001600020600090556001945050505050613097565b60009150505b92915050565b60006130a98383613526565b613102578260000182908060018154018082558091505060019003906000526020600020016000909190919091505582600001805490508360010160008481526020019081526020016000208190555060019050613107565b600090505b92915050565b60008084600101600085815260200190815260200160002054905060008114156131b4578460000160405180604001604052808681526020018581525090806001815401808255809150506001900390600052602060002090600202016000909190919091506000820151816000015560208201518160010155505084600001805490508560010160008681526020019081526020016000208190555060019150506131e2565b828560000160018303815481106131c757fe5b90600052602060002090600202016001018190555060009150505b9392505050565b600080836001016000848152602001908152602001600020549050600081146132f6576000600182039050600060018660000180549050039050600086600001828154811061323457fe5b906000526020600020906002020190508087600001848154811061325457fe5b90600052602060002090600202016000820154816000015560018201548160010155905050600183018760010160008360000154815260200190815260200160002081905550866000018054806132a757fe5b60019003818190600052602060002090600202016000808201600090556001820160009055505090558660010160008781526020019081526020016000206000905560019450505050506132fc565b60009150505b92915050565b600080823b905060008111915050919050565b60606133248484600085613549565b90509392505050565b600073ffffffffffffffffffffffffffffffffffffffff168273ffffffffffffffffffffffffffffffffffffffff1614156133d0576040517f08c379a00000000000000000000000000000000000000000000000000000000081526004018080602001828103825260208152602001807f4552433732313a206d696e7420746f20746865207a65726f206164647265737381525060200191505060405180910390fd5b6133d981612156565b1561344c576040517f08c379a000000000000000000000000000000000000000000000000000000000815260040180806020018281038252601c8152602001807f4552433732313a20746f6b656e20616c7265616479206d696e7465640000000081525060200191505060405180910390fd5b613458600083836129e4565b6134a981600160008573ffffffffffffffffffffffffffffffffffffffff1673ffffffffffffffffffffffffffffffffffffffff168152602001908152602001600020612a0e90919063ffffffff16565b506134c081836002612a289092919063ffffffff16565b50808273ffffffffffffffffffffffffffffffffffffffff16600073ffffffffffffffffffffffffffffffffffffffff167fddf252ad1be2c89b69c2b068fc378daa952ba7f163c4a11628f55a4df523b3ef60405160405180910390a45050565b505050565b600080836001016000848152602001908152602001600020541415905092915050565b6060824710156135a4576040517f08c379a00000000000000000000000000000000000000000000000000000000081526004018080602001828103825260268152602001806139476026913960400191505060405180910390fd5b6135ad85613302565b61361f576040517f08c379a000000000000000000000000000000000000000000000000000000000815260040180806020018281038252601d8152602001807f416464726573733a2063616c6c20746f206e6f6e2d636f6e747261637400000081525060200191505060405180910390fd5b600060608673ffffffffffffffffffffffffffffffffffffffff1685876040518082805190602001908083835b6020831061366f578051825260208201915060208101905060208303925061364c565b6001836020036101000a03801982511681845116808217855250505050505090500191505060006040518083038185875af1925050503d80600081146136d1576040519150601f19603f3d011682016040523d82523d6000602084013e6136d6565b606091505b50915091506136e68282866136f2565b92505050949350505050565b60608315613702578290506137b7565b6000835111156137155782518084602001fd5b816040517f08c379a00000000000000000000000000000000000000000000000000000000081526004018080602001828103825283818151815260200191508051906020019080838360005b8381101561377c578082015181840152602081019050613761565b50505050905090810190601f1680156137a95780820380516001836020036101000a031916815260200191505b509250505060405180910390fd5b9392505050565b50805460018160011615610100020316600290046000825580601f106137e45750613803565b601f0160209004906000526020600020908101906138029190613886565b5b50565b828054600181600116156101000203166002900490600052602060002090601f016020900481019282601f1061384757805160ff1916838001178555613875565b82800160010185558215613875579182015b82811115613874578251825591602001919060010190613859565b5b5090506138829190613886565b5090565b5b8082111561389f576000816000905550600101613887565b509056fe456e756d657261626c655365743a20696e646578206f7574206f6620626f756e64734552433732315061757361626c653a20746f6b656e207472616e73666572207768696c65207061757365644552433732313a207472616e7366657220746f206e6f6e20455243373231526563656976657220696d706c656d656e7465724552433732313a207472616e7366657220746f20746865207a65726f2061646472657373416464726573733a20696e73756666696369656e742062616c616e636520666f722063616c6c4552433732313a206f70657261746f7220717565727920666f72206e6f6e6578697374656e7420746f6b656e4552433732313a20617070726f76652063616c6c6572206973206e6f74206f776e6572206e6f7220617070726f76656420666f7220616c6c4552433732313a2062616c616e636520717565727920666f7220746865207a65726f20616464726573734552433732313a206f776e657220717565727920666f72206e6f6e6578697374656e7420746f6b656e456e756d657261626c654d61703a20696e646578206f7574206f6620626f756e64734552433732313a20617070726f76656420717565727920666f72206e6f6e6578697374656e7420746f6b656e4552433732314d657461646174613a2055524920736574206f66206e6f6e6578697374656e7420746f6b656e4552433732313a207472616e73666572206f6620746f6b656e2074686174206973206e6f74206f776e4552433732314d657461646174613a2055524920717565727920666f72206e6f6e6578697374656e7420746f6b656e4552433732313a20617070726f76616c20746f2063757272656e74206f776e65724552433732313a207472616e736665722063616c6c6572206973206e6f74206f776e6572206e6f7220617070726f766564a26469706673582212200dd9ab44e3a61093dd7f6c17728ebaffb8b239fe23e1075ae275a60b2325528f64736f6c63430007000033a2646970667358221220ff31cf3e14691dbf035d576ab4ecc2cdd8bbc85bbc70c53dd3485b83149fed4164736f6c63430007000033",
  "immutableReferences": {},
  "source": "pragma solidity ^0.7.0;\npragma experimental ABIEncoderV2;\n\nimport \"./NFTDocumentMinter.sol\";\n\nimport \"@openzeppelin/contracts/utils/EnumerableSet.sol\";\nimport \"@openzeppelin/contracts/math/SafeMath.sol\";\nimport \"@openzeppelin/contracts/utils/Address.sol\";\nimport \"./ERC20Interface.sol\";\n\ncontract NFTFactory {\n    using EnumerableSet for EnumerableSet.AddressSet;\n    using SafeMath for uint256;\n    using Address for address payable;\n\n    // Emits when an document is created\n    event MinterCreated(address indexed minter);\n    event MinterRemoved(address indexed minter);\n    event Withdrawn(address indexed payee, uint256 weiAmount);\n    address public owner;\n    uint256 fee = 0.002 * 1e18;\n    ERC20Interface public daiToken;\n\n    // minters\n    EnumerableSet.AddressSet internal minters;\n\n    constructor(address dai) public {\n        daiToken = ERC20Interface(dai);\n        owner = msg.sender;\n    }\n\n    function setProtocolFee(uint256 _fee) public {\n        require(msg.sender == owner, \"INVALID_USER\");\n        fee = _fee;\n    }\n\n    function getProtocolFee() public returns (uint256) {\n        return fee;\n    }\n\n    function withdraw(address payable payee) public {\n        require(msg.sender == owner, \"INVALID_USER\");\n        uint256 b = address(this).balance;\n        payee.sendValue(address(this).balance);\n\n        emit Withdrawn(payee, b);\n    }\n\n    function withdrawToken(address payable payee, address token) public {\n        require(msg.sender == owner, \"INVALID_USER\");\n        uint256 b = ERC20Interface(token).balanceOf(address(this));\n        payee.sendValue(b);\n\n        emit Withdrawn(payee, b);\n    }\n\n    function createMinter(\n        string memory name, \n        string memory symbol,\n        address paymentAddress,\n        uint feeStructure)\n        public\n        returns (address)\n    {\n\n        address minter =\n            address(new NFTDocumentMinter(\n                owner, \n                msg.sender, \n                name, \n                symbol, \n                feeStructure, \n                fee,\n                paymentAddress,\n                address(this),\n                daiToken));\n        bool ok = minters.add(minter);\n        emit MinterCreated(minter);\n\n        // TODO: transfer from to owner (factory fee)\n\n        return minter;\n    }\n\n    function count() public view returns (uint256) {\n        return minters.length();\n    }\n\n    function get(uint256 index) public view returns (address) {\n        return minters.at(index);\n    }\n}\n",
  "sourcePath": "/home/rogelio/Code/xdv/nft-document-swap/contracts/NFTFactory.sol",
  "compiler": {
    "name": "solc",
    "version": "0.7.0+commit.9e61f92b.Emscripten.clang"
  },
  "schemaVersion": "3.3.3",
  "updatedAt": "2021-01-30T14:01:05.214Z",
  "networkType": "ethereum",
  "devdoc": {
    "kind": "dev",
    "methods": {},
    "version": 1
  },
  "userdoc": {
    "kind": "user",
    "methods": {},
    "version": 1
  }
}