{
  "contractName": "NFTFactory",
  "abi": [
    {
      "inputs": [],
      "stateMutability": "nonpayable",
      "type": "constructor"
    },
    {
      "anonymous": false,
      "inputs": [
        {
          "indexed": true,
          "internalType": "address",
          "name": "minter",
          "type": "address"
        }
      ],
      "name": "LogMinterCreated",
      "type": "event"
    },
    {
      "anonymous": false,
      "inputs": [
        {
          "indexed": true,
          "internalType": "address",
          "name": "minter",
          "type": "address"
        }
      ],
      "name": "LogMinterRemoved",
      "type": "event"
    },
    {
      "anonymous": false,
      "inputs": [
        {
          "indexed": true,
          "internalType": "address",
          "name": "payee",
          "type": "address"
        },
        {
          "indexed": false,
          "internalType": "uint256",
          "name": "weiAmount",
          "type": "uint256"
        }
      ],
      "name": "Withdrawn",
      "type": "event"
    },
    {
      "inputs": [],
      "name": "owner",
      "outputs": [
        {
          "internalType": "address",
          "name": "",
          "type": "address"
        }
      ],
      "stateMutability": "view",
      "type": "function"
    },
    {
      "inputs": [
        {
          "internalType": "uint256",
          "name": "_fee",
          "type": "uint256"
        }
      ],
      "name": "setFee",
      "outputs": [],
      "stateMutability": "nonpayable",
      "type": "function"
    },
    {
      "inputs": [],
      "name": "getFee",
      "outputs": [
        {
          "internalType": "uint256",
          "name": "",
          "type": "uint256"
        }
      ],
      "stateMutability": "nonpayable",
      "type": "function"
    },
    {
      "inputs": [
        {
          "internalType": "address payable",
          "name": "payee",
          "type": "address"
        }
      ],
      "name": "withdraw",
      "outputs": [],
      "stateMutability": "nonpayable",
      "type": "function"
    },
    {
      "inputs": [
        {
          "internalType": "string",
          "name": "name",
          "type": "string"
        },
        {
          "internalType": "string",
          "name": "symbol",
          "type": "string"
        },
        {
          "internalType": "uint256",
          "name": "fee",
          "type": "uint256"
        }
      ],
      "name": "createMinter",
      "outputs": [
        {
          "internalType": "address",
          "name": "",
          "type": "address"
        }
      ],
      "stateMutability": "payable",
      "type": "function"
    },
    {
      "inputs": [],
      "name": "count",
      "outputs": [
        {
          "internalType": "uint256",
          "name": "",
          "type": "uint256"
        }
      ],
      "stateMutability": "view",
      "type": "function"
    },
    {
      "inputs": [
        {
          "internalType": "uint256",
          "name": "index",
          "type": "uint256"
        }
      ],
      "name": "get",
      "outputs": [
        {
          "internalType": "address",
          "name": "",
          "type": "address"
        }
      ],
      "stateMutability": "view",
      "type": "function"
    }
  ],
  "bytecode": "0x608060405266071afd498d000060015534801561001b57600080fd5b50336000806101000a81548173ffffffffffffffffffffffffffffffffffffffff021916908373ffffffffffffffffffffffffffffffffffffffff1602179055506147638061006b6000396000f3fe6080604052600436106200007a5760003560e01c80638245130e11620000555780638245130e146200010b5780638da5cb5b14620001415780639507d39a1462000171578063ced72f8714620001b5576200007a565b806306661abd146200007f57806351cff8d914620000af57806369fe0e2d14620000dd575b600080fd5b3480156200008c57600080fd5b5062000097620001e5565b604051620000a6919062000c6e565b60405180910390f35b348015620000bc57600080fd5b50620000db6004803603810190620000d591906200081f565b620001f8565b005b348015620000ea57600080fd5b50620001096004803603810190620001039190620008d3565b6200030d565b005b6200012960048036038101906200012391906200084b565b620003a8565b60405162000138919062000b3c565b60405180910390f35b3480156200014e57600080fd5b5062000159620004be565b60405162000168919062000b3c565b60405180910390f35b3480156200017e57600080fd5b506200019d6004803603810190620001979190620008d3565b620004e2565b604051620001ac919062000b3c565b60405180910390f35b348015620001c257600080fd5b50620001cd62000501565b604051620001dc919062000c6e565b60405180910390f35b6000620001f360026200050b565b905090565b60008054906101000a900473ffffffffffffffffffffffffffffffffffffffff1673ffffffffffffffffffffffffffffffffffffffff163373ffffffffffffffffffffffffffffffffffffffff161462000289576040517f08c379a0000000000000000000000000000000000000000000000000000000008152600401620002809062000c4c565b60405180910390fd5b6000479050620002b9478373ffffffffffffffffffffffffffffffffffffffff166200052290919063ffffffff16565b8173ffffffffffffffffffffffffffffffffffffffff167f7084f5476618d8e60b11ef0d7d3f06914655adb8793e28ff7f018d4c76d505d58260405162000301919062000c6e565b60405180910390a25050565b60008054906101000a900473ffffffffffffffffffffffffffffffffffffffff1673ffffffffffffffffffffffffffffffffffffffff163373ffffffffffffffffffffffffffffffffffffffff16146200039e576040517f08c379a0000000000000000000000000000000000000000000000000000000008152600401620003959062000c4c565b60405180910390fd5b8060018190555050565b6000813414620003ef576040517f08c379a0000000000000000000000000000000000000000000000000000000008152600401620003e69062000c2a565b60405180910390fd5b60008060009054906101000a900473ffffffffffffffffffffffffffffffffffffffff1633868686604051620004259062000787565b6200043595949392919062000b59565b604051809103906000f08015801562000452573d6000803e3d6000fd5b50905060006200046d8260026200062090919063ffffffff16565b90508173ffffffffffffffffffffffffffffffffffffffff167f271506681af2ffaf0aefe0cc4f070aa1328d18c3a795e01f7295314fc33ef24e60405160405180910390a281925050509392505050565b60008054906101000a900473ffffffffffffffffffffffffffffffffffffffff1681565b6000620004fa8260026200065290919063ffffffff16565b9050919050565b6000600154905090565b60006200051b826000016200066e565b9050919050565b8047101562000568576040517f08c379a00000000000000000000000000000000000000000000000000000000081526004016200055f9062000c08565b60405180910390fd5b60008273ffffffffffffffffffffffffffffffffffffffff1682604051620005909062000b25565b60006040518083038185875af1925050503d8060008114620005cf576040519150601f19603f3d011682016040523d82523d6000602084013e620005d4565b606091505b50509050806200061b576040517f08c379a0000000000000000000000000000000000000000000000000000000008152600401620006129062000be6565b60405180910390fd5b505050565b60006200064a836000018373ffffffffffffffffffffffffffffffffffffffff1660001b6200067f565b905092915050565b6000620006638360000183620006f3565b60001c905092915050565b600081600001805490509050919050565b60006200068d838362000764565b620006e8578260000182908060018154018082558091505060019003906000526020600020016000909190919091505582600001805490508360010160008481526020019081526020016000208190555060019050620006ed565b600090505b92915050565b60008183600001805490501162000741576040517f08c379a0000000000000000000000000000000000000000000000000000000008152600401620007389062000bc4565b60405180910390fd5b8260000182815481106200075157fe5b9060005260206000200154905092915050565b600080836001016000848152602001908152602001600020541415905092915050565b6139088062000e2683390190565b600081359050620007a68162000df1565b92915050565b600082601f830112620007be57600080fd5b8135620007d5620007cf8262000cb9565b62000c8b565b91508082526020830160208301858383011115620007f257600080fd5b620007ff83828462000d9b565b50505092915050565b600081359050620008198162000e0b565b92915050565b6000602082840312156200083257600080fd5b6000620008428482850162000795565b91505092915050565b6000806000606084860312156200086157600080fd5b600084013567ffffffffffffffff8111156200087c57600080fd5b6200088a86828701620007ac565b935050602084013567ffffffffffffffff811115620008a857600080fd5b620008b686828701620007ac565b9250506040620008c98682870162000808565b9150509250925092565b600060208284031215620008e657600080fd5b6000620008f68482850162000808565b91505092915050565b6200090a8162000d5f565b82525050565b6200091b8162000d0d565b82525050565b60006200092e8262000ce6565b6200093a818562000cfc565b93506200094c81856020860162000daa565b620009578162000de0565b840191505092915050565b60006200097160228362000cfc565b91507f456e756d657261626c655365743a20696e646578206f7574206f6620626f756e60008301527f64730000000000000000000000000000000000000000000000000000000000006020830152604082019050919050565b6000620009d9603a8362000cfc565b91507f416464726573733a20756e61626c6520746f2073656e642076616c75652c207260008301527f6563697069656e74206d617920686176652072657665727465640000000000006020830152604082019050919050565b600062000a41601d8362000cfc565b91507f416464726573733a20696e73756666696369656e742062616c616e63650000006000830152602082019050919050565b600062000a8360188362000cfc565b91507f4d5553542053454e4420464545204245464f52452055534500000000000000006000830152602082019050919050565b600062000ac5600c8362000cfc565b91507f494e56414c49445f5553455200000000000000000000000000000000000000006000830152602082019050919050565b600062000b0760008362000cf1565b9150600082019050919050565b62000b1f8162000d55565b82525050565b600062000b328262000af8565b9150819050919050565b600060208201905062000b53600083018462000910565b92915050565b600060a08201905062000b70600083018862000910565b62000b7f6020830187620008ff565b818103604083015262000b93818662000921565b9050818103606083015262000ba9818562000921565b905062000bba608083018462000b14565b9695505050505050565b6000602082019050818103600083015262000bdf8162000962565b9050919050565b6000602082019050818103600083015262000c0181620009ca565b9050919050565b6000602082019050818103600083015262000c238162000a32565b9050919050565b6000602082019050818103600083015262000c458162000a74565b9050919050565b6000602082019050818103600083015262000c678162000ab6565b9050919050565b600060208201905062000c85600083018462000b14565b92915050565b6000604051905081810181811067ffffffffffffffff8211171562000caf57600080fd5b8060405250919050565b600067ffffffffffffffff82111562000cd157600080fd5b601f19601f8301169050602081019050919050565b600081519050919050565b600081905092915050565b600082825260208201905092915050565b600062000d1a8262000d35565b9050919050565b600062000d2e8262000d35565b9050919050565b600073ffffffffffffffffffffffffffffffffffffffff82169050919050565b6000819050919050565b600062000d6c8262000d73565b9050919050565b600062000d808262000d87565b9050919050565b600062000d948262000d35565b9050919050565b82818337600083830152505050565b60005b8381101562000dca57808201518184015260208101905062000dad565b8381111562000dda576000848401525b50505050565b6000601f19601f8301169050919050565b62000dfc8162000d21565b811462000e0857600080fd5b50565b62000e168162000d55565b811462000e2257600080fd5b5056fe608060405266071afd498d0000600d553480156200001c57600080fd5b506040516200390838038062003908833981810160405260a08110156200004257600080fd5b810190808051906020019092919080519060200190929190805160405193929190846401000000008211156200007757600080fd5b838201915060208201858111156200008e57600080fd5b8251866001820283011164010000000082111715620000ac57600080fd5b8083526020830192505050908051906020019080838360005b83811015620000e2578082015181840152602081019050620000c5565b50505050905090810190601f168015620001105780820380516001836020036101000a031916815260200191505b50604052602001805160405193929190846401000000008211156200013457600080fd5b838201915060208201858111156200014b57600080fd5b82518660018202830111640100000000821117156200016957600080fd5b8083526020830192505050908051906020019080838360005b838110156200019f57808201518184015260208101905062000182565b50505050905090810190601f168015620001cd5780820380516001836020036101000a031916815260200191505b50604052602001805190602001909291905050508282620001fb6301ffc9a760e01b6200032660201b60201c565b8160069080519060200190620002139291906200042f565b5080600790805190602001906200022c9291906200042f565b50620002456380ac58cd60e01b6200032660201b60201c565b6200025d635b5e139f60e01b6200032660201b60201c565b6200027563780e9d6360e01b6200032660201b60201c565b50506000600a60006101000a81548160ff02191690831515021790555084600c60006101000a81548173ffffffffffffffffffffffffffffffffffffffff021916908373ffffffffffffffffffffffffffffffffffffffff16021790555083600e60006101000a81548173ffffffffffffffffffffffffffffffffffffffff021916908373ffffffffffffffffffffffffffffffffffffffff16021790555080600d819055505050505050620004d5565b63ffffffff60e01b817bffffffffffffffffffffffffffffffffffffffffffffffffffffffff19161415620003c3576040517f08c379a000000000000000000000000000000000000000000000000000000000815260040180806020018281038252601c8152602001807f4552433136353a20696e76616c696420696e746572666163652069640000000081525060200191505060405180910390fd5b6001600080837bffffffffffffffffffffffffffffffffffffffffffffffffffffffff19167bffffffffffffffffffffffffffffffffffffffffffffffffffffffff1916815260200190815260200160002060006101000a81548160ff02191690831515021790555050565b828054600181600116156101000203166002900490600052602060002090601f016020900481019282601f106200047257805160ff1916838001178555620004a3565b82800160010185558215620004a3579182015b82811115620004a257825182559160200191906001019062000485565b5b509050620004b29190620004b6565b5090565b5b80821115620004d1576000816000905550600101620004b7565b5090565b61342380620004e56000396000f3fe6080604052600436106101405760003560e01c80636352211e116100b6578063b88d4fde1161006f578063b88d4fde146107dd578063c87b56dd146108ef578063d0def521146109a3578063ddca3f4314610a9f578063deb6ce3114610aca578063e985e9c514610b0b57610140565b80636352211e146105555780636c0360eb146105ba57806370a082311461064a5780638da5cb5b146106af57806395d89b41146106f0578063a22cb4651461078057610140565b806323b872dd1161010857806323b872dd146103305780632f745c59146103ab57806342842e0e1461041a57806342966c68146104955780634f6ccce7146104d95780635c975abb1461052857610140565b806301ffc9a71461014557806306fdde03146101b5578063081812fc14610245578063095ea7b3146102aa57806318160ddd14610305575b600080fd5b34801561015157600080fd5b5061019d6004803603602081101561016857600080fd5b8101908080357bffffffffffffffffffffffffffffffffffffffffffffffffffffffff19169060200190929190505050610b92565b60405180821515815260200191505060405180910390f35b3480156101c157600080fd5b506101ca610bf9565b6040518080602001828103825283818151815260200191508051906020019080838360005b8381101561020a5780820151818401526020810190506101ef565b50505050905090810190601f1680156102375780820380516001836020036101000a031916815260200191505b509250505060405180910390f35b34801561025157600080fd5b5061027e6004803603602081101561026857600080fd5b8101908080359060200190929190505050610c9b565b604051808273ffffffffffffffffffffffffffffffffffffffff16815260200191505060405180910390f35b3480156102b657600080fd5b50610303600480360360408110156102cd57600080fd5b81019080803573ffffffffffffffffffffffffffffffffffffffff16906020019092919080359060200190929190505050610d36565b005b34801561031157600080fd5b5061031a610e7a565b6040518082815260200191505060405180910390f35b34801561033c57600080fd5b506103a96004803603606081101561035357600080fd5b81019080803573ffffffffffffffffffffffffffffffffffffffff169060200190929190803573ffffffffffffffffffffffffffffffffffffffff16906020019092919080359060200190929190505050610e8b565b005b3480156103b757600080fd5b50610404600480360360408110156103ce57600080fd5b81019080803573ffffffffffffffffffffffffffffffffffffffff16906020019092919080359060200190929190505050610f01565b6040518082815260200191505060405180910390f35b34801561042657600080fd5b506104936004803603606081101561043d57600080fd5b81019080803573ffffffffffffffffffffffffffffffffffffffff169060200190929190803573ffffffffffffffffffffffffffffffffffffffff16906020019092919080359060200190929190505050610f5c565b005b6104c1600480360360208110156104ab57600080fd5b8101908080359060200190929190505050610f7c565b60405180821515815260200191505060405180910390f35b3480156104e557600080fd5b50610512600480360360208110156104fc57600080fd5b810190808035906020019092919050505061107a565b6040518082815260200191505060405180910390f35b34801561053457600080fd5b5061053d61109d565b60405180821515815260200191505060405180910390f35b34801561056157600080fd5b5061058e6004803603602081101561057857600080fd5b81019080803590602001909291905050506110b4565b604051808273ffffffffffffffffffffffffffffffffffffffff16815260200191505060405180910390f35b3480156105c657600080fd5b506105cf6110eb565b6040518080602001828103825283818151815260200191508051906020019080838360005b8381101561060f5780820151818401526020810190506105f4565b50505050905090810190601f16801561063c5780820380516001836020036101000a031916815260200191505b509250505060405180910390f35b34801561065657600080fd5b506106996004803603602081101561066d57600080fd5b81019080803573ffffffffffffffffffffffffffffffffffffffff16906020019092919050505061118d565b6040518082815260200191505060405180910390f35b3480156106bb57600080fd5b506106c4611262565b604051808273ffffffffffffffffffffffffffffffffffffffff16815260200191505060405180910390f35b3480156106fc57600080fd5b50610705611288565b6040518080602001828103825283818151815260200191508051906020019080838360005b8381101561074557808201518184015260208101905061072a565b50505050905090810190601f1680156107725780820380516001836020036101000a031916815260200191505b509250505060405180910390f35b34801561078c57600080fd5b506107db600480360360408110156107a357600080fd5b81019080803573ffffffffffffffffffffffffffffffffffffffff16906020019092919080351515906020019092919050505061132a565b005b3480156107e957600080fd5b506108ed6004803603608081101561080057600080fd5b81019080803573ffffffffffffffffffffffffffffffffffffffff169060200190929190803573ffffffffffffffffffffffffffffffffffffffff169060200190929190803590602001909291908035906020019064010000000081111561086757600080fd5b82018360208201111561087957600080fd5b8035906020019184600183028401116401000000008311171561089b57600080fd5b91908080601f016020809104026020016040519081016040528093929190818152602001838380828437600081840152601f19601f8201169050808301925050505050505091929192905050506114e0565b005b3480156108fb57600080fd5b506109286004803603602081101561091257600080fd5b8101908080359060200190929190505050611558565b6040518080602001828103825283818151815260200191508051906020019080838360005b8381101561096857808201518184015260208101905061094d565b50505050905090810190601f1680156109955780820380516001836020036101000a031916815260200191505b509250505060405180910390f35b3480156109af57600080fd5b50610a89600480360360408110156109c657600080fd5b81019080803573ffffffffffffffffffffffffffffffffffffffff16906020019092919080359060200190640100000000811115610a0357600080fd5b820183602082011115610a1557600080fd5b80359060200191846001830284011164010000000083111715610a3757600080fd5b91908080601f016020809104026020016040519081016040528093929190818152602001838380828437600081840152601f19601f820116905080830192505050505050509192919290505050611841565b6040518082815260200191505060405180910390f35b348015610aab57600080fd5b50610ab461193c565b6040518082815260200191505060405180910390f35b348015610ad657600080fd5b50610adf611942565b604051808273ffffffffffffffffffffffffffffffffffffffff16815260200191505060405180910390f35b348015610b1757600080fd5b50610b7a60048036036040811015610b2e57600080fd5b81019080803573ffffffffffffffffffffffffffffffffffffffff169060200190929190803573ffffffffffffffffffffffffffffffffffffffff169060200190929190505050611968565b60405180821515815260200191505060405180910390f35b6000806000837bffffffffffffffffffffffffffffffffffffffffffffffffffffffff19167bffffffffffffffffffffffffffffffffffffffffffffffffffffffff1916815260200190815260200160002060009054906101000a900460ff169050919050565b606060068054600181600116156101000203166002900480601f016020809104026020016040519081016040528092919081815260200182805460018160011615610100020316600290048015610c915780601f10610c6657610100808354040283529160200191610c91565b820191906000526020600020905b815481529060010190602001808311610c7457829003601f168201915b5050505050905090565b6000610ca6826119fc565b610cfb576040517f08c379a000000000000000000000000000000000000000000000000000000000815260040180806020018281038252602c8152602001806132ec602c913960400191505060405180910390fd5b6004600083815260200190815260200160002060009054906101000a900473ffffffffffffffffffffffffffffffffffffffff169050919050565b6000610d41826110b4565b90508073ffffffffffffffffffffffffffffffffffffffff168373ffffffffffffffffffffffffffffffffffffffff161415610dc8576040517f08c379a000000000000000000000000000000000000000000000000000000000815260040180806020018281038252602181526020018061339c6021913960400191505060405180910390fd5b8073ffffffffffffffffffffffffffffffffffffffff16610de7611a19565b73ffffffffffffffffffffffffffffffffffffffff161480610e165750610e1581610e10611a19565b611968565b5b610e6b576040517f08c379a000000000000000000000000000000000000000000000000000000000815260040180806020018281038252603881526020018061323f6038913960400191505060405180910390fd5b610e758383611a21565b505050565b6000610e866002611ada565b905090565b610e9c610e96611a19565b82611aef565b610ef1576040517f08c379a00000000000000000000000000000000000000000000000000000000081526004018080602001828103825260318152602001806133bd6031913960400191505060405180910390fd5b610efc838383611be3565b505050565b6000610f5482600160008673ffffffffffffffffffffffffffffffffffffffff1673ffffffffffffffffffffffffffffffffffffffff168152602001908152602001600020611e2690919063ffffffff16565b905092915050565b610f77838383604051806020016040528060008152506114e0565b505050565b6000600d543414610ff5576040517f08c379a00000000000000000000000000000000000000000000000000000000081526004018080602001828103825260188152602001807f4d5553542053454e4420464545204245464f524520555345000000000000000081525060200191505060405180910390fd5b610ffe82611e40565b7fb7f1f02c2b88ba9f8462cbfb97b69e0fafed7c4aa5e2cc4a21ccb2aa4d75cff2303384604051808473ffffffffffffffffffffffffffffffffffffffff1681526020018373ffffffffffffffffffffffffffffffffffffffff168152602001828152602001935050505060405180910390a160019050919050565b600080611091836002611f7a90919063ffffffff16565b50905080915050919050565b6000600a60009054906101000a900460ff16905090565b60006110e4826040518060600160405280602981526020016132a1602991396002611fa69092919063ffffffff16565b9050919050565b606060098054600181600116156101000203166002900480601f0160208091040260200160405190810160405280929190818152602001828054600181600116156101000203166002900480156111835780601f1061115857610100808354040283529160200191611183565b820191906000526020600020905b81548152906001019060200180831161116657829003601f168201915b5050505050905090565b60008073ffffffffffffffffffffffffffffffffffffffff168273ffffffffffffffffffffffffffffffffffffffff161415611214576040517f08c379a000000000000000000000000000000000000000000000000000000000815260040180806020018281038252602a815260200180613277602a913960400191505060405180910390fd5b61125b600160008473ffffffffffffffffffffffffffffffffffffffff1673ffffffffffffffffffffffffffffffffffffffff168152602001908152602001600020611fc5565b9050919050565b600c60009054906101000a900473ffffffffffffffffffffffffffffffffffffffff1681565b606060078054600181600116156101000203166002900480601f0160208091040260200160405190810160405280929190818152602001828054600181600116156101000203166002900480156113205780601f106112f557610100808354040283529160200191611320565b820191906000526020600020905b81548152906001019060200180831161130357829003601f168201915b5050505050905090565b611332611a19565b73ffffffffffffffffffffffffffffffffffffffff168273ffffffffffffffffffffffffffffffffffffffff1614156113d3576040517f08c379a00000000000000000000000000000000000000000000000000000000081526004018080602001828103825260198152602001807f4552433732313a20617070726f766520746f2063616c6c65720000000000000081525060200191505060405180910390fd5b80600560006113e0611a19565b73ffffffffffffffffffffffffffffffffffffffff1673ffffffffffffffffffffffffffffffffffffffff16815260200190815260200160002060008473ffffffffffffffffffffffffffffffffffffffff1673ffffffffffffffffffffffffffffffffffffffff16815260200190815260200160002060006101000a81548160ff0219169083151502179055508173ffffffffffffffffffffffffffffffffffffffff1661148d611a19565b73ffffffffffffffffffffffffffffffffffffffff167f17307eab39ab6107e8899845ad3d59bd9653f200f220920489ca2b5937696c318360405180821515815260200191505060405180910390a35050565b6114f16114eb611a19565b83611aef565b611546576040517f08c379a00000000000000000000000000000000000000000000000000000000081526004018080602001828103825260318152602001806133bd6031913960400191505060405180910390fd5b61155284848484611fda565b50505050565b6060611563826119fc565b6115b8576040517f08c379a000000000000000000000000000000000000000000000000000000000815260040180806020018281038252602f81526020018061336d602f913960400191505060405180910390fd5b6060600860008481526020019081526020016000208054600181600116156101000203166002900480601f0160208091040260200160405190810160405280929190818152602001828054600181600116156101000203166002900480156116615780601f1061163657610100808354040283529160200191611661565b820191906000526020600020905b81548152906001019060200180831161164457829003601f168201915b50505050509050600060098054600181600116156101000203166002900490501415611690578091505061183c565b6000815111156117695760098160405160200180838054600181600116156101000203166002900480156116fb5780601f106116d95761010080835404028352918201916116fb565b820191906000526020600020905b8154815290600101906020018083116116e7575b505082805190602001908083835b6020831061172c5780518252602082019150602081019050602083039250611709565b6001836020036101000a0380198251168184511680821785525050505050509050019250505060405160208183030381529060405291505061183c565b60096117748461204c565b60405160200180838054600181600116156101000203166002900480156117d25780601f106117b05761010080835404028352918201916117d2565b820191906000526020600020905b8154815290600101906020018083116117be575b505082805190602001908083835b6020831061180357805182526020820191506020810190506020830392506117e0565b6001836020036101000a038019825116818451168082178552505050505050905001925050506040516020818303038152906040529150505b919050565b60003373ffffffffffffffffffffffffffffffffffffffff16600e60009054906101000a900473ffffffffffffffffffffffffffffffffffffffff1673ffffffffffffffffffffffffffffffffffffffff1614611906576040517f08c379a000000000000000000000000000000000000000000000000000000000815260040180806020018281038252600e8152602001807f494e56414c4944204d494e54455200000000000000000000000000000000000081525060200191505060405180910390fd5b611910600b612193565b600061191c600b6121a9565b905061192884826121b7565b61193281846121d5565b8091505092915050565b600d5481565b600e60009054906101000a900473ffffffffffffffffffffffffffffffffffffffff1681565b6000600560008473ffffffffffffffffffffffffffffffffffffffff1673ffffffffffffffffffffffffffffffffffffffff16815260200190815260200160002060008373ffffffffffffffffffffffffffffffffffffffff1673ffffffffffffffffffffffffffffffffffffffff16815260200190815260200160002060009054906101000a900460ff16905092915050565b6000611a1282600261225f90919063ffffffff16565b9050919050565b600033905090565b816004600083815260200190815260200160002060006101000a81548173ffffffffffffffffffffffffffffffffffffffff021916908373ffffffffffffffffffffffffffffffffffffffff160217905550808273ffffffffffffffffffffffffffffffffffffffff16611a94836110b4565b73ffffffffffffffffffffffffffffffffffffffff167f8c5be1e5ebec7d5bd14f71427d1e84f3dd0314c0f7b2291e5b200ac8c7c3b92560405160405180910390a45050565b6000611ae882600001612279565b9050919050565b6000611afa826119fc565b611b4f576040517f08c379a000000000000000000000000000000000000000000000000000000000815260040180806020018281038252602c815260200180613213602c913960400191505060405180910390fd5b6000611b5a836110b4565b90508073ffffffffffffffffffffffffffffffffffffffff168473ffffffffffffffffffffffffffffffffffffffff161480611bc957508373ffffffffffffffffffffffffffffffffffffffff16611bb184610c9b565b73ffffffffffffffffffffffffffffffffffffffff16145b80611bda5750611bd98185611968565b5b91505092915050565b8273ffffffffffffffffffffffffffffffffffffffff16611c03826110b4565b73ffffffffffffffffffffffffffffffffffffffff1614611c6f576040517f08c379a00000000000000000000000000000000000000000000000000000000081526004018080602001828103825260298152602001806133446029913960400191505060405180910390fd5b600073ffffffffffffffffffffffffffffffffffffffff168273ffffffffffffffffffffffffffffffffffffffff161415611cf5576040517f08c379a00000000000000000000000000000000000000000000000000000000081526004018080602001828103825260248152602001806131c96024913960400191505060405180910390fd5b611d0083838361228a565b611d0b600082611a21565b611d5c81600160008673ffffffffffffffffffffffffffffffffffffffff1673ffffffffffffffffffffffffffffffffffffffff16815260200190815260200160002061229a90919063ffffffff16565b50611dae81600160008573ffffffffffffffffffffffffffffffffffffffff1673ffffffffffffffffffffffffffffffffffffffff1681526020019081526020016000206122b490919063ffffffff16565b50611dc5818360026122ce9092919063ffffffff16565b50808273ffffffffffffffffffffffffffffffffffffffff168473ffffffffffffffffffffffffffffffffffffffff167fddf252ad1be2c89b69c2b068fc378daa952ba7f163c4a11628f55a4df523b3ef60405160405180910390a4505050565b6000611e358360000183612303565b60001c905092915050565b6000611e4b826110b4565b9050611e598160008461228a565b611e64600083611a21565b60006008600084815260200190815260200160002080546001816001161561010002031660029004905014611eb357600860008381526020019081526020016000206000611eb29190613064565b5b611f0482600160008473ffffffffffffffffffffffffffffffffffffffff1673ffffffffffffffffffffffffffffffffffffffff16815260200190815260200160002061229a90919063ffffffff16565b50611f1982600261238690919063ffffffff16565b5081600073ffffffffffffffffffffffffffffffffffffffff168273ffffffffffffffffffffffffffffffffffffffff167fddf252ad1be2c89b69c2b068fc378daa952ba7f163c4a11628f55a4df523b3ef60405160405180910390a45050565b600080600080611f8d86600001866123a0565b915091508160001c8160001c9350935050509250929050565b6000611fb9846000018460001b84612439565b60001c90509392505050565b6000611fd38260000161252f565b9050919050565b611fe5848484611be3565b611ff184848484612540565b612046576040517f08c379a00000000000000000000000000000000000000000000000000000000081526004018080602001828103825260328152602001806131976032913960400191505060405180910390fd5b50505050565b60606000821415612094576040518060400160405280600181526020017f3000000000000000000000000000000000000000000000000000000000000000815250905061218e565b600082905060005b600082146120be578080600101915050600a82816120b657fe5b04915061209c565b60608167ffffffffffffffff811180156120d757600080fd5b506040519080825280601f01601f19166020018201604052801561210a5781602001600182028036833780820191505090505b50905060006001830390508593505b6000841461218657600a848161212b57fe5b0660300160f81b8282806001900393508151811061214557fe5b60200101907effffffffffffffffffffffffffffffffffffffffffffffffffffffffffffff1916908160001a905350600a848161217e57fe5b049350612119565b819450505050505b919050565b6001816000016000828254019250508190555050565b600081600001549050919050565b6121d1828260405180602001604052806000815250612759565b5050565b6121de826119fc565b612233576040517f08c379a000000000000000000000000000000000000000000000000000000000815260040180806020018281038252602c815260200180613318602c913960400191505060405180910390fd5b8060086000848152602001908152602001600020908051906020019061225a9291906130ac565b505050565b6000612271836000018360001b6127ca565b905092915050565b600081600001805490509050919050565b6122958383836127ed565b505050565b60006122ac836000018360001b61285b565b905092915050565b60006122c6836000018360001b612943565b905092915050565b60006122fa846000018460001b8473ffffffffffffffffffffffffffffffffffffffff1660001b6129b3565b90509392505050565b600081836000018054905011612364576040517f08c379a000000000000000000000000000000000000000000000000000000000815260040180806020018281038252602281526020018061314a6022913960400191505060405180910390fd5b82600001828154811061237357fe5b9060005260206000200154905092915050565b6000612398836000018360001b612a8f565b905092915050565b60008082846000018054905011612402576040517f08c379a00000000000000000000000000000000000000000000000000000000081526004018080602001828103825260228152602001806132ca6022913960400191505060405180910390fd5b600084600001848154811061241357fe5b906000526020600020906002020190508060000154816001015492509250509250929050565b60008084600101600085815260200190815260200160002054905060008114158390612500576040517f08c379a00000000000000000000000000000000000000000000000000000000081526004018080602001828103825283818151815260200191508051906020019080838360005b838110156124c55780820151818401526020810190506124aa565b50505050905090810190601f1680156124f25780820380516001836020036101000a031916815260200191505b509250505060405180910390fd5b5084600001600182038154811061251357fe5b9060005260206000209060020201600101549150509392505050565b600081600001805490509050919050565b60006125618473ffffffffffffffffffffffffffffffffffffffff16612ba8565b61256e5760019050612751565b60606126d863150b7a0260e01b612583611a19565b888787604051602401808573ffffffffffffffffffffffffffffffffffffffff1681526020018473ffffffffffffffffffffffffffffffffffffffff16815260200183815260200180602001828103825283818151815260200191508051906020019080838360005b838110156126075780820151818401526020810190506125ec565b50505050905090810190601f1680156126345780820380516001836020036101000a031916815260200191505b5095505050505050604051602081830303815290604052907bffffffffffffffffffffffffffffffffffffffffffffffffffffffff19166020820180517bffffffffffffffffffffffffffffffffffffffffffffffffffffffff8381831617835250505050604051806060016040528060328152602001613197603291398773ffffffffffffffffffffffffffffffffffffffff16612bbb9092919063ffffffff16565b905060008180602001905160208110156126f157600080fd5b8101908080519060200190929190505050905063150b7a0260e01b7bffffffffffffffffffffffffffffffffffffffffffffffffffffffff1916817bffffffffffffffffffffffffffffffffffffffffffffffffffffffff191614925050505b949350505050565b6127638383612bd3565b6127706000848484612540565b6127c5576040517f08c379a00000000000000000000000000000000000000000000000000000000081526004018080602001828103825260328152602001806131976032913960400191505060405180910390fd5b505050565b600080836001016000848152602001908152602001600020541415905092915050565b6127f8838383612dc7565b61280061109d565b15612856576040517f08c379a000000000000000000000000000000000000000000000000000000000815260040180806020018281038252602b81526020018061316c602b913960400191505060405180910390fd5b505050565b6000808360010160008481526020019081526020016000205490506000811461293757600060018203905060006001866000018054905003905060008660000182815481106128a657fe5b90600052602060002001549050808760000184815481106128c357fe5b90600052602060002001819055506001830187600101600083815260200190815260200160002081905550866000018054806128fb57fe5b6001900381819060005260206000200160009055905586600101600087815260200190815260200160002060009055600194505050505061293d565b60009150505b92915050565b600061294f8383612dcc565b6129a85782600001829080600181540180825580915050600190039060005260206000200160009091909190915055826000018054905083600101600084815260200190815260200160002081905550600190506129ad565b600090505b92915050565b6000808460010160008581526020019081526020016000205490506000811415612a5a57846000016040518060400160405280868152602001858152509080600181540180825580915050600190039060005260206000209060020201600090919091909150600082015181600001556020820151816001015550508460000180549050856001016000868152602001908152602001600020819055506001915050612a88565b82856000016001830381548110612a6d57fe5b90600052602060002090600202016001018190555060009150505b9392505050565b60008083600101600084815260200190815260200160002054905060008114612b9c5760006001820390506000600186600001805490500390506000866000018281548110612ada57fe5b9060005260206000209060020201905080876000018481548110612afa57fe5b9060005260206000209060020201600082015481600001556001820154816001015590505060018301876001016000836000015481526020019081526020016000208190555086600001805480612b4d57fe5b6001900381819060005260206000209060020201600080820160009055600182016000905550509055866001016000878152602001908152602001600020600090556001945050505050612ba2565b60009150505b92915050565b600080823b905060008111915050919050565b6060612bca8484600085612def565b90509392505050565b600073ffffffffffffffffffffffffffffffffffffffff168273ffffffffffffffffffffffffffffffffffffffff161415612c76576040517f08c379a00000000000000000000000000000000000000000000000000000000081526004018080602001828103825260208152602001807f4552433732313a206d696e7420746f20746865207a65726f206164647265737381525060200191505060405180910390fd5b612c7f816119fc565b15612cf2576040517f08c379a000000000000000000000000000000000000000000000000000000000815260040180806020018281038252601c8152602001807f4552433732313a20746f6b656e20616c7265616479206d696e7465640000000081525060200191505060405180910390fd5b612cfe6000838361228a565b612d4f81600160008573ffffffffffffffffffffffffffffffffffffffff1673ffffffffffffffffffffffffffffffffffffffff1681526020019081526020016000206122b490919063ffffffff16565b50612d66818360026122ce9092919063ffffffff16565b50808273ffffffffffffffffffffffffffffffffffffffff16600073ffffffffffffffffffffffffffffffffffffffff167fddf252ad1be2c89b69c2b068fc378daa952ba7f163c4a11628f55a4df523b3ef60405160405180910390a45050565b505050565b600080836001016000848152602001908152602001600020541415905092915050565b606082471015612e4a576040517f08c379a00000000000000000000000000000000000000000000000000000000081526004018080602001828103825260268152602001806131ed6026913960400191505060405180910390fd5b612e5385612ba8565b612ec5576040517f08c379a000000000000000000000000000000000000000000000000000000000815260040180806020018281038252601d8152602001807f416464726573733a2063616c6c20746f206e6f6e2d636f6e747261637400000081525060200191505060405180910390fd5b600060608673ffffffffffffffffffffffffffffffffffffffff1685876040518082805190602001908083835b60208310612f155780518252602082019150602081019050602083039250612ef2565b6001836020036101000a03801982511681845116808217855250505050505090500191505060006040518083038185875af1925050503d8060008114612f77576040519150601f19603f3d011682016040523d82523d6000602084013e612f7c565b606091505b5091509150612f8c828286612f98565b92505050949350505050565b60608315612fa85782905061305d565b600083511115612fbb5782518084602001fd5b816040517f08c379a00000000000000000000000000000000000000000000000000000000081526004018080602001828103825283818151815260200191508051906020019080838360005b83811015613022578082015181840152602081019050613007565b50505050905090810190601f16801561304f5780820380516001836020036101000a031916815260200191505b509250505060405180910390fd5b9392505050565b50805460018160011615610100020316600290046000825580601f1061308a57506130a9565b601f0160209004906000526020600020908101906130a8919061312c565b5b50565b828054600181600116156101000203166002900490600052602060002090601f016020900481019282601f106130ed57805160ff191683800117855561311b565b8280016001018555821561311b579182015b8281111561311a5782518255916020019190600101906130ff565b5b509050613128919061312c565b5090565b5b8082111561314557600081600090555060010161312d565b509056fe456e756d657261626c655365743a20696e646578206f7574206f6620626f756e64734552433732315061757361626c653a20746f6b656e207472616e73666572207768696c65207061757365644552433732313a207472616e7366657220746f206e6f6e20455243373231526563656976657220696d706c656d656e7465724552433732313a207472616e7366657220746f20746865207a65726f2061646472657373416464726573733a20696e73756666696369656e742062616c616e636520666f722063616c6c4552433732313a206f70657261746f7220717565727920666f72206e6f6e6578697374656e7420746f6b656e4552433732313a20617070726f76652063616c6c6572206973206e6f74206f776e6572206e6f7220617070726f76656420666f7220616c6c4552433732313a2062616c616e636520717565727920666f7220746865207a65726f20616464726573734552433732313a206f776e657220717565727920666f72206e6f6e6578697374656e7420746f6b656e456e756d657261626c654d61703a20696e646578206f7574206f6620626f756e64734552433732313a20617070726f76656420717565727920666f72206e6f6e6578697374656e7420746f6b656e4552433732314d657461646174613a2055524920736574206f66206e6f6e6578697374656e7420746f6b656e4552433732313a207472616e73666572206f6620746f6b656e2074686174206973206e6f74206f776e4552433732314d657461646174613a2055524920717565727920666f72206e6f6e6578697374656e7420746f6b656e4552433732313a20617070726f76616c20746f2063757272656e74206f776e65724552433732313a207472616e736665722063616c6c6572206973206e6f74206f776e6572206e6f7220617070726f766564a2646970667358221220876d848e4818f96892c5d280b706965138fbf595ff425b4014390004f1d028f164736f6c63430007000033a264697066735822122087e60e8bc3792d897aac22a70a8db29265fa02a241e646821abab0fe47bb68fb64736f6c63430007000033",
  "immutableReferences": {},
  "source": "pragma solidity ^0.7.0;\npragma experimental ABIEncoderV2;\n\nimport \"./NFTDocumentMinter.sol\";\n\nimport \"@openzeppelin/contracts/utils/EnumerableSet.sol\";\nimport \"@openzeppelin/contracts/math/SafeMath.sol\";\nimport \"@openzeppelin/contracts/utils/Address.sol\";\n\ncontract NFTFactory {\n    using EnumerableSet for EnumerableSet.AddressSet;\n    using SafeMath for uint256;\n    using Address for address payable;\n\n    // Emits when an document is created\n    event LogMinterCreated(address indexed minter);\n    event LogMinterRemoved(address indexed minter);\n    event Withdrawn(address indexed payee, uint256 weiAmount);\n    address public owner;\n    uint256 fee = 0.002 * 1e18;\n\n    // minters\n    EnumerableSet.AddressSet internal minters;\n\n    constructor() public {\n        owner = msg.sender;\n    }\n\n    function setFee(uint256 _fee) public {\n        require(msg.sender == owner, \"INVALID_USER\");\n        fee = _fee;\n    }\n\n    function getFee() public returns (uint256) {\n        return fee;\n    }\n\n    function withdraw(address payable payee) public {\n        require(msg.sender == owner, \"INVALID_USER\");\n        uint256 b = address(this).balance;\n        payee.sendValue(address(this).balance);\n\n        emit Withdrawn(payee, b);\n    }\n\n    function createMinter(\n        string memory name, \n        string memory symbol,\n        uint fee)\n        public\n        payable\n        returns (address)\n    {\n        require(msg.value == fee, \"MUST SEND FEE BEFORE USE\");\n\n        address minter =\n            address(new NFTDocumentMinter(owner, msg.sender, name, symbol, fee));\n        bool ok = minters.add(minter);\n        emit LogMinterCreated(minter);\n\n        // TODO: transfer from to owner (factory fee)\n\n        return minter;\n    }\n\n    function count() public view returns (uint256) {\n        return minters.length();\n    }\n\n    function get(uint256 index) public view returns (address) {\n        return minters.at(index);\n    }\n}\n",
  "sourcePath": "/home/rogelio/Code/xdv/nft-document-swap/contracts/NFTFactory.sol",
  "compiler": {
    "name": "solc",
    "version": "0.7.0+commit.9e61f92b.Emscripten.clang"
  },
  "schemaVersion": "3.3.3",
  "updatedAt": "2021-01-27T14:04:52.812Z",
  "devdoc": {
    "kind": "dev",
    "methods": {},
    "version": 1
  },
  "userdoc": {
    "kind": "user",
    "methods": {},
    "version": 1
  }
}