{
  "contractName": "NFTFactory",
  "abi": [
    {
      "inputs": [
        {
          "internalType": "address",
          "name": "dai",
          "type": "address"
        }
      ],
      "stateMutability": "nonpayable",
      "type": "constructor"
    },
    {
      "anonymous": false,
      "inputs": [
        {
          "indexed": true,
          "internalType": "address",
          "name": "minter",
          "type": "address"
        },
        {
          "indexed": true,
          "internalType": "string",
          "name": "name",
          "type": "string"
        },
        {
          "indexed": true,
          "internalType": "string",
          "name": "symbol",
          "type": "string"
        },
        {
          "indexed": false,
          "internalType": "address",
          "name": "paymentAddress",
          "type": "address"
        },
        {
          "indexed": false,
          "internalType": "uint256",
          "name": "feeStructure",
          "type": "uint256"
        }
      ],
      "name": "MinterCreated",
      "type": "event"
    },
    {
      "anonymous": false,
      "inputs": [
        {
          "indexed": false,
          "internalType": "address",
          "name": "minter",
          "type": "address"
        },
        {
          "indexed": false,
          "internalType": "uint256",
          "name": "id",
          "type": "uint256"
        },
        {
          "indexed": false,
          "internalType": "bytes",
          "name": "name",
          "type": "bytes"
        },
        {
          "indexed": false,
          "internalType": "bytes",
          "name": "symbol",
          "type": "bytes"
        }
      ],
      "name": "MinterRegistered",
      "type": "event"
    },
    {
      "anonymous": false,
      "inputs": [
        {
          "indexed": true,
          "internalType": "address",
          "name": "minter",
          "type": "address"
        }
      ],
      "name": "MinterRemoved",
      "type": "event"
    },
    {
      "anonymous": false,
      "inputs": [
        {
          "indexed": true,
          "internalType": "address",
          "name": "payee",
          "type": "address"
        },
        {
          "indexed": false,
          "internalType": "uint256",
          "name": "weiAmount",
          "type": "uint256"
        }
      ],
      "name": "Withdrawn",
      "type": "event"
    },
    {
      "inputs": [
        {
          "internalType": "address",
          "name": "minter",
          "type": "address"
        },
        {
          "internalType": "bytes",
          "name": "name",
          "type": "bytes"
        },
        {
          "internalType": "bytes",
          "name": "symbol",
          "type": "bytes"
        },
        {
          "internalType": "address",
          "name": "paymentAddress",
          "type": "address"
        },
        {
          "internalType": "bool",
          "name": "hasUserKyc",
          "type": "bool"
        },
        {
          "internalType": "uint256",
          "name": "feeStructure",
          "type": "uint256"
        }
      ],
      "name": "addToRegistry",
      "outputs": [
        {
          "internalType": "uint256",
          "name": "",
          "type": "uint256"
        }
      ],
      "stateMutability": "nonpayable",
      "type": "function"
    },
    {
      "inputs": [],
      "name": "daiToken",
      "outputs": [
        {
          "internalType": "contract ERC20Interface",
          "name": "",
          "type": "address"
        }
      ],
      "stateMutability": "view",
      "type": "function",
      "constant": true
    },
    {
      "inputs": [
        {
          "internalType": "uint256",
          "name": "",
          "type": "uint256"
        }
      ],
      "name": "dataProviderMinters",
      "outputs": [
        {
          "internalType": "address",
          "name": "minterAddress",
          "type": "address"
        },
        {
          "internalType": "bytes",
          "name": "name",
          "type": "bytes"
        },
        {
          "internalType": "bytes",
          "name": "symbol",
          "type": "bytes"
        },
        {
          "internalType": "address",
          "name": "paymentAddress",
          "type": "address"
        },
        {
          "internalType": "bool",
          "name": "hasUserKyc",
          "type": "bool"
        },
        {
          "internalType": "uint256",
          "name": "feeStructure",
          "type": "uint256"
        },
        {
          "internalType": "uint256",
          "name": "created",
          "type": "uint256"
        }
      ],
      "stateMutability": "view",
      "type": "function",
      "constant": true
    },
    {
      "inputs": [
        {
          "internalType": "address",
          "name": "",
          "type": "address"
        }
      ],
      "name": "minterCounter",
      "outputs": [
        {
          "internalType": "uint256",
          "name": "",
          "type": "uint256"
        }
      ],
      "stateMutability": "view",
      "type": "function",
      "constant": true
    },
    {
      "inputs": [],
      "name": "owner",
      "outputs": [
        {
          "internalType": "address",
          "name": "",
          "type": "address"
        }
      ],
      "stateMutability": "view",
      "type": "function",
      "constant": true
    },
    {
      "inputs": [
        {
          "internalType": "uint256",
          "name": "_fee",
          "type": "uint256"
        }
      ],
      "name": "setProtocolFee",
      "outputs": [],
      "stateMutability": "nonpayable",
      "type": "function"
    },
    {
      "inputs": [],
      "name": "getProtocolFee",
      "outputs": [
        {
          "internalType": "uint256",
          "name": "",
          "type": "uint256"
        }
      ],
      "stateMutability": "nonpayable",
      "type": "function"
    },
    {
      "inputs": [
        {
          "internalType": "address payable",
          "name": "payee",
          "type": "address"
        }
      ],
      "name": "withdraw",
      "outputs": [],
      "stateMutability": "nonpayable",
      "type": "function"
    },
    {
      "inputs": [
        {
          "internalType": "address payable",
          "name": "payee",
          "type": "address"
        },
        {
          "internalType": "address",
          "name": "token",
          "type": "address"
        }
      ],
      "name": "withdrawToken",
      "outputs": [],
      "stateMutability": "nonpayable",
      "type": "function"
    },
    {
      "inputs": [
        {
          "internalType": "bytes",
          "name": "name",
          "type": "bytes"
        },
        {
          "internalType": "bytes",
          "name": "symbol",
          "type": "bytes"
        },
        {
          "internalType": "address",
          "name": "paymentAddress",
          "type": "address"
        },
        {
          "internalType": "bool",
          "name": "userHasKyc",
          "type": "bool"
        },
        {
          "internalType": "uint256",
          "name": "feeStructure",
          "type": "uint256"
        }
      ],
      "name": "createMinter",
      "outputs": [
        {
          "internalType": "address",
          "name": "",
          "type": "address"
        }
      ],
      "stateMutability": "nonpayable",
      "type": "function"
    },
    {
      "inputs": [],
      "name": "count",
      "outputs": [
        {
          "internalType": "uint256",
          "name": "",
          "type": "uint256"
        }
      ],
      "stateMutability": "view",
      "type": "function",
      "constant": true
    },
    {
      "inputs": [
        {
          "internalType": "uint256",
          "name": "index",
          "type": "uint256"
        }
      ],
      "name": "get",
      "outputs": [
        {
          "internalType": "address",
          "name": "",
          "type": "address"
        }
      ],
      "stateMutability": "view",
      "type": "function",
      "constant": true
    }
  ],
  "bytecode": "0x608060405267058d15e1762800006003553480156200001d57600080fd5b5060405162005c6d38038062005c6d8339818101604052810190620000439190620000e3565b80600460006101000a81548173ffffffffffffffffffffffffffffffffffffffff021916908373ffffffffffffffffffffffffffffffffffffffff16021790555033600260006101000a81548173ffffffffffffffffffffffffffffffffffffffff021916908373ffffffffffffffffffffffffffffffffffffffff160217905550506200015d565b600081519050620000dd8162000143565b92915050565b600060208284031215620000f657600080fd5b60006200010684828501620000cc565b91505092915050565b60006200011c8262000123565b9050919050565b600073ffffffffffffffffffffffffffffffffffffffff82169050919050565b6200014e816200010f565b81146200015a57600080fd5b50565b615b00806200016d6000396000f3fe60806040523480156200001157600080fd5b5060043610620000c45760003560e01c8063787dce3d116200007b578063787dce3d14620001cd5780638da5cb5b14620001ed5780639507d39a146200020f578063967426ff1462000245578063a5a410311462000281578063be22f54614620002a357620000c4565b806306661abd14620000c95780633aeac4e114620000eb57806351cff8d9146200010b5780635385f97b146200012b57806353b692f81462000161578063761901bb1462000197575b600080fd5b620000d3620002c5565b604051620000e2919062001734565b60405180910390f35b620001096004803603810190620001039190620011f5565b620002d8565b005b620001296004803603810190620001239190620011c9565b6200047e565b005b620001496004803603810190620001439190620012fe565b62000595565b60405162000158919062001573565b60405180910390f35b6200017f600480360381019062000179919062001236565b620006e4565b6040516200018e919062001734565b60405180910390f35b620001b56004803603810190620001af91906200119d565b62000a31565b604051620001c4919062001734565b60405180910390f35b620001eb6004803603810190620001e59190620013b2565b62000a49565b005b620001f762000ae6565b60405162000206919062001573565b60405180910390f35b6200022d6004803603810190620002279190620013b2565b62000b0c565b6040516200023c919062001573565b60405180910390f35b6200026360048036038101906200025d9190620013b2565b62000b2b565b6040516200027897969594939291906200163d565b60405180910390f35b6200028b62000cf2565b6040516200029a919062001734565b60405180910390f35b620002ad62000cfc565b604051620002bc9190620016f5565b60405180910390f35b6000620002d3600562000d22565b905090565b600260009054906101000a900473ffffffffffffffffffffffffffffffffffffffff1673ffffffffffffffffffffffffffffffffffffffff163373ffffffffffffffffffffffffffffffffffffffff16146200036b576040517f08c379a0000000000000000000000000000000000000000000000000000000008152600401620003629062001712565b60405180910390fd5b60008173ffffffffffffffffffffffffffffffffffffffff166370a08231306040518263ffffffff1660e01b8152600401620003a8919062001573565b60206040518083038186803b158015620003c157600080fd5b505afa158015620003d6573d6000803e3d6000fd5b505050506040513d601f19601f82011682018060405250810190620003fc9190620013de565b905062000429818473ffffffffffffffffffffffffffffffffffffffff1662000d3990919063ffffffff16565b8273ffffffffffffffffffffffffffffffffffffffff167f7084f5476618d8e60b11ef0d7d3f06914655adb8793e28ff7f018d4c76d505d58260405162000471919062001734565b60405180910390a2505050565b600260009054906101000a900473ffffffffffffffffffffffffffffffffffffffff1673ffffffffffffffffffffffffffffffffffffffff163373ffffffffffffffffffffffffffffffffffffffff161462000511576040517f08c379a0000000000000000000000000000000000000000000000000000000008152600401620005089062001712565b60405180910390fd5b600047905062000541478373ffffffffffffffffffffffffffffffffffffffff1662000d3990919063ffffffff16565b8173ffffffffffffffffffffffffffffffffffffffff167f7084f5476618d8e60b11ef0d7d3f06914655adb8793e28ff7f018d4c76d505d58260405162000589919062001734565b60405180910390a25050565b600080600260009054906101000a900473ffffffffffffffffffffffffffffffffffffffff16338888866003548a30600460009054906101000a900473ffffffffffffffffffffffffffffffffffffffff16604051620005f59062000ff4565b620006099998979695949392919062001590565b604051809103906000f08015801562000626573d6000803e3d6000fd5b50905062000639818888888888620006e4565b5060006200065282600562000e7890919063ffffffff16565b9050866040516200066491906200155a565b6040518091039020886040516200067c91906200155a565b60405180910390208373ffffffffffffffffffffffffffffffffffffffff167f2deb9df066602edaaf1bb754f4c77c4f0d3bbfa18f2dfbfda2a12f0879f370798988604051620006ce929190620016c8565b60405180910390a4819250505095945050505050565b60008060008873ffffffffffffffffffffffffffffffffffffffff1673ffffffffffffffffffffffffffffffffffffffff1681526020019081526020016000206000815480929190600101919050555060008060008973ffffffffffffffffffffffffffffffffffffffff1673ffffffffffffffffffffffffffffffffffffffff1681526020019081526020016000205490506040518060e001604052808973ffffffffffffffffffffffffffffffffffffffff1681526020018881526020018781526020018673ffffffffffffffffffffffffffffffffffffffff1681526020018515158152602001848152602001428152506001600083815260200190815260200160002060008201518160000160006101000a81548173ffffffffffffffffffffffffffffffffffffffff021916908373ffffffffffffffffffffffffffffffffffffffff16021790555060208201518160010190805190602001906200085092919062001002565b5060408201518160020190805190602001906200086f92919062001002565b5060608201518160030160006101000a81548173ffffffffffffffffffffffffffffffffffffffff021916908373ffffffffffffffffffffffffffffffffffffffff16021790555060808201518160030160146101000a81548160ff02191690831515021790555060a0820151816004015560c082015181600501559050507f63bceb882fc42e2abe7f948fe718aeecd8a71d21827dbb6ad8171d1d4c3fa8f488828989604051808573ffffffffffffffffffffffffffffffffffffffff1681526020018481526020018060200180602001838103835285818151815260200191508051906020019080838360005b838110156200097b5780820151818401526020810190506200095e565b50505050905090810190601f168015620009a95780820380516001836020036101000a031916815260200191505b50838103825284818151815260200191508051906020019080838360005b83811015620009e4578082015181840152602081019050620009c7565b50505050905090810190601f16801562000a125780820380516001836020036101000a031916815260200191505b50965050505050505060405180910390a1809150509695505050505050565b60006020528060005260406000206000915090505481565b600260009054906101000a900473ffffffffffffffffffffffffffffffffffffffff1673ffffffffffffffffffffffffffffffffffffffff163373ffffffffffffffffffffffffffffffffffffffff161462000adc576040517f08c379a000000000000000000000000000000000000000000000000000000000815260040162000ad39062001712565b60405180910390fd5b8060038190555050565b600260009054906101000a900473ffffffffffffffffffffffffffffffffffffffff1681565b600062000b2482600562000eaa90919063ffffffff16565b9050919050565b60016020528060005260406000206000915090508060000160009054906101000a900473ffffffffffffffffffffffffffffffffffffffff1690806001018054600181600116156101000203166002900480601f01602080910402602001604051908101604052809291908181526020018280546001816001161561010002031660029004801562000c015780601f1062000bd55761010080835404028352916020019162000c01565b820191906000526020600020905b81548152906001019060200180831162000be357829003601f168201915b505050505090806002018054600181600116156101000203166002900480601f01602080910402602001604051908101604052809291908181526020018280546001816001161561010002031660029004801562000ca35780601f1062000c775761010080835404028352916020019162000ca3565b820191906000526020600020905b81548152906001019060200180831162000c8557829003601f168201915b5050505050908060030160009054906101000a900473ffffffffffffffffffffffffffffffffffffffff16908060030160149054906101000a900460ff16908060040154908060050154905087565b6000600354905090565b600460009054906101000a900473ffffffffffffffffffffffffffffffffffffffff1681565b600062000d328260000162000ec6565b9050919050565b8047101562000db0576040517f08c379a000000000000000000000000000000000000000000000000000000000815260040180806020018281038252601d8152602001807f416464726573733a20696e73756666696369656e742062616c616e636500000081525060200191505060405180910390fd5b60008273ffffffffffffffffffffffffffffffffffffffff168260405180600001905060006040518083038185875af1925050503d806000811462000e12576040519150601f19603f3d011682016040523d82523d6000602084013e62000e17565b606091505b505090508062000e73576040517f08c379a000000000000000000000000000000000000000000000000000000000815260040180806020018281038252603a81526020018062005a91603a913960400191505060405180910390fd5b505050565b600062000ea2836000018373ffffffffffffffffffffffffffffffffffffffff1660001b62000ed7565b905092915050565b600062000ebb836000018362000f4b565b60001c905092915050565b600081600001805490509050919050565b600062000ee5838362000fd1565b62000f4057826000018290806001815401808255809150506001900390600052602060002001600090919091909150558260000180549050836001016000848152602001908152602001600020819055506001905062000f45565b600090505b92915050565b60008183600001805490501162000fae576040517f08c379a000000000000000000000000000000000000000000000000000000000815260040180806020018281038252602281526020018062005a6f6022913960400191505060405180910390fd5b82600001828154811062000fbe57fe5b9060005260206000200154905092915050565b600080836001016000848152602001908152602001600020541415905092915050565b6140f1806200197e83390190565b828054600181600116156101000203166002900490600052602060002090601f0160209004810192826200103a576000855562001086565b82601f106200105557805160ff191683800117855562001086565b8280016001018555821562001086579182015b828111156200108557825182559160200191906001019062001068565b5b50905062001095919062001099565b5090565b5b80821115620010b45760008160009055506001016200109a565b5090565b6000620010cf620010c98462001785565b62001751565b905082815260208101848484011115620010e857600080fd5b620010f5848285620018bd565b509392505050565b6000813590506200110e8162001915565b92915050565b60008135905062001125816200192f565b92915050565b6000813590506200113c8162001949565b92915050565b600082601f8301126200115457600080fd5b813562001166848260208601620010b8565b91505092915050565b600081359050620011808162001963565b92915050565b600081519050620011978162001963565b92915050565b600060208284031215620011b057600080fd5b6000620011c084828501620010fd565b91505092915050565b600060208284031215620011dc57600080fd5b6000620011ec8482850162001114565b91505092915050565b600080604083850312156200120957600080fd5b6000620012198582860162001114565b92505060206200122c85828601620010fd565b9150509250929050565b60008060008060008060c087890312156200125057600080fd5b60006200126089828a01620010fd565b965050602087013567ffffffffffffffff8111156200127e57600080fd5b6200128c89828a0162001142565b955050604087013567ffffffffffffffff811115620012aa57600080fd5b620012b889828a0162001142565b9450506060620012cb89828a01620010fd565b9350506080620012de89828a016200112b565b92505060a0620012f189828a016200116f565b9150509295509295509295565b600080600080600060a086880312156200131757600080fd5b600086013567ffffffffffffffff8111156200133257600080fd5b620013408882890162001142565b955050602086013567ffffffffffffffff8111156200135e57600080fd5b6200136c8882890162001142565b94505060406200137f88828901620010fd565b935050606062001392888289016200112b565b9250506080620013a5888289016200116f565b9150509295509295909350565b600060208284031215620013c557600080fd5b6000620013d5848285016200116f565b91505092915050565b600060208284031215620013f157600080fd5b6000620014018482850162001186565b91505092915050565b620014158162001859565b82525050565b6200142681620017fb565b82525050565b620014378162001823565b82525050565b60006200144a82620017b8565b620014568185620017ce565b935062001468818560208601620018cc565b620014738162001904565b840191505092915050565b62001489816200186d565b82525050565b60006200149c82620017c3565b620014a88185620017df565b9350620014ba818560208601620018cc565b620014c58162001904565b840191505092915050565b6000620014dd82620017c3565b620014e98185620017f0565b9350620014fb818560208601620018cc565b80840191505092915050565b600062001516600c83620017df565b91507f494e56414c49445f5553455200000000000000000000000000000000000000006000830152602082019050919050565b62001554816200184f565b82525050565b6000620015688284620014d0565b915081905092915050565b60006020820190506200158a60008301846200141b565b92915050565b600061012082019050620015a8600083018c6200141b565b620015b7602083018b6200140a565b8181036040830152620015cb818a6200148f565b90508181036060830152620015e181896200148f565b9050620015f2608083018862001549565b6200160160a083018762001549565b6200161060c08301866200141b565b6200161f60e08301856200141b565b6200162f6101008301846200147e565b9a9950505050505050505050565b600060e08201905062001654600083018a6200141b565b81810360208301526200166881896200143d565b905081810360408301526200167e81886200143d565b90506200168f60608301876200141b565b6200169e60808301866200142c565b620016ad60a083018562001549565b620016bc60c083018462001549565b98975050505050505050565b6000604082019050620016df60008301856200141b565b620016ee602083018462001549565b9392505050565b60006020820190506200170c60008301846200147e565b92915050565b600060208201905081810360008301526200172d8162001507565b9050919050565b60006020820190506200174b600083018462001549565b92915050565b6000604051905081810181811067ffffffffffffffff821117156200177b576200177a62001902565b5b8060405250919050565b600067ffffffffffffffff821115620017a357620017a262001902565b5b601f19601f8301169050602081019050919050565b600081519050919050565b600081519050919050565b600082825260208201905092915050565b600082825260208201905092915050565b600081905092915050565b600062001808826200182f565b9050919050565b60006200181c826200182f565b9050919050565b60008115159050919050565b600073ffffffffffffffffffffffffffffffffffffffff82169050919050565b6000819050919050565b6000620018668262001895565b9050919050565b60006200187a8262001881565b9050919050565b60006200188e826200182f565b9050919050565b6000620018a282620018a9565b9050919050565b6000620018b6826200182f565b9050919050565b82818337600083830152505050565b60005b83811015620018ec578082015181840152602081019050620018cf565b83811115620018fc576000848401525b50505050565bfe5b6000601f19601f8301169050919050565b6200192081620017fb565b81146200192c57600080fd5b50565b6200193a816200180f565b81146200194657600080fd5b50565b620019548162001823565b81146200196057600080fd5b50565b6200196e816200184f565b81146200197a57600080fd5b5056fe60806040523480156200001157600080fd5b50604051620040f1380380620040f183398181016040526101208110156200003857600080fd5b810190808051906020019092919080519060200190929190805160405193929190846401000000008211156200006d57600080fd5b838201915060208201858111156200008457600080fd5b8251866001820283011164010000000082111715620000a257600080fd5b8083526020830192505050908051906020019080838360005b83811015620000d8578082015181840152602081019050620000bb565b50505050905090810190601f168015620001065780820380516001836020036101000a031916815260200191505b50604052602001805160405193929190846401000000008211156200012a57600080fd5b838201915060208201858111156200014157600080fd5b82518660018202830111640100000000821117156200015f57600080fd5b8083526020830192505050908051906020019080838360005b838110156200019557808201518184015260208101905062000178565b50505050905090810190601f168015620001c35780820380516001836020036101000a031916815260200191505b5060405260200180519060200190929190805190602001909291908051906020019092919080519060200190929190805190602001909291905050508686620002196301ffc9a760e01b6200041260201b60201c565b8160069080519060200190620002319291906200051b565b5080600790805190602001906200024a9291906200051b565b50620002636380ac58cd60e01b6200041260201b60201c565b6200027b635b5e139f60e01b6200041260201b60201c565b6200029363780e9d6360e01b6200041260201b60201c565b50506000600a60006101000a81548160ff02191690831515021790555088600c60006101000a81548173ffffffffffffffffffffffffffffffffffffffff021916908373ffffffffffffffffffffffffffffffffffffffff16021790555087600f60006101000a81548173ffffffffffffffffffffffffffffffffffffffff021916908373ffffffffffffffffffffffffffffffffffffffff16021790555080601060006101000a81548173ffffffffffffffffffffffffffffffffffffffff021916908373ffffffffffffffffffffffffffffffffffffffff16021790555084600e8190555083600d8190555082601260006101000a81548173ffffffffffffffffffffffffffffffffffffffff021916908373ffffffffffffffffffffffffffffffffffffffff16021790555081601160006101000a81548173ffffffffffffffffffffffffffffffffffffffff021916908373ffffffffffffffffffffffffffffffffffffffff160217905550505050505050505050620005d1565b63ffffffff60e01b817bffffffffffffffffffffffffffffffffffffffffffffffffffffffff19161415620004af576040517f08c379a000000000000000000000000000000000000000000000000000000000815260040180806020018281038252601c8152602001807f4552433136353a20696e76616c696420696e746572666163652069640000000081525060200191505060405180910390fd5b6001600080837bffffffffffffffffffffffffffffffffffffffffffffffffffffffff19167bffffffffffffffffffffffffffffffffffffffffffffffffffffffff1916815260200190815260200160002060006101000a81548160ff02191690831515021790555050565b828054600181600116156101000203166002900490600052602060002090601f0160209004810192826200055357600085556200059f565b82601f106200056e57805160ff19168380011785556200059f565b828001600101855582156200059f579182015b828111156200059e57825182559160200191906001019062000581565b5b509050620005ae9190620005b2565b5090565b5b80821115620005cd576000816000905550600101620005b3565b5090565b613b1080620005e16000396000f3fe60806040526004361061019c5760003560e01c80636c0360eb116100ec578063b88d4fde1161008a578063d0def52111610064578063d0def52114610ad7578063deb6ce3114610bd3578063e469193114610c14578063e985e9c514610c555761019c565b8063b88d4fde146108d0578063be22f546146109e2578063c87b56dd14610a235761019c565b80637285e3b9116100c65780637285e3b9146107775780638da5cb5b146107a257806395d89b41146107e3578063a22cb465146108735761019c565b80636c0360eb146106415780636e3e2fa6146106d157806370a08231146107125761019c565b806323b872dd1161015957806342966c681161013357806342966c681461051c5780634f6ccce7146105605780635c975abb146105af5780636352211e146105dc5761019c565b806323b872dd146103b75780632f745c591461043257806342842e0e146104a15761019c565b806301609fd3146101a157806301ffc9a7146101cc57806306fdde031461023c578063081812fc146102cc578063095ea7b31461033157806318160ddd1461038c575b600080fd5b3480156101ad57600080fd5b506101b6610cdc565b6040518082815260200191505060405180910390f35b3480156101d857600080fd5b50610224600480360360208110156101ef57600080fd5b8101908080357bffffffffffffffffffffffffffffffffffffffffffffffffffffffff19169060200190929190505050610ce2565b60405180821515815260200191505060405180910390f35b34801561024857600080fd5b50610251610d49565b6040518080602001828103825283818151815260200191508051906020019080838360005b83811015610291578082015181840152602081019050610276565b50505050905090810190601f1680156102be5780820380516001836020036101000a031916815260200191505b509250505060405180910390f35b3480156102d857600080fd5b50610305600480360360208110156102ef57600080fd5b8101908080359060200190929190505050610deb565b604051808273ffffffffffffffffffffffffffffffffffffffff16815260200191505060405180910390f35b34801561033d57600080fd5b5061038a6004803603604081101561035457600080fd5b81019080803573ffffffffffffffffffffffffffffffffffffffff16906020019092919080359060200190929190505050610e86565b005b34801561039857600080fd5b506103a1610fca565b6040518082815260200191505060405180910390f35b3480156103c357600080fd5b50610430600480360360608110156103da57600080fd5b81019080803573ffffffffffffffffffffffffffffffffffffffff169060200190929190803573ffffffffffffffffffffffffffffffffffffffff16906020019092919080359060200190929190505050610fdb565b005b34801561043e57600080fd5b5061048b6004803603604081101561045557600080fd5b81019080803573ffffffffffffffffffffffffffffffffffffffff16906020019092919080359060200190929190505050611051565b6040518082815260200191505060405180910390f35b3480156104ad57600080fd5b5061051a600480360360608110156104c457600080fd5b81019080803573ffffffffffffffffffffffffffffffffffffffff169060200190929190803573ffffffffffffffffffffffffffffffffffffffff169060200190929190803590602001909291905050506110ac565b005b6105486004803603602081101561053257600080fd5b81019080803590602001909291905050506110cc565b60405180821515815260200191505060405180910390f35b34801561056c57600080fd5b506105996004803603602081101561058357600080fd5b81019080803590602001909291905050506116e8565b6040518082815260200191505060405180910390f35b3480156105bb57600080fd5b506105c461170b565b60405180821515815260200191505060405180910390f35b3480156105e857600080fd5b50610615600480360360208110156105ff57600080fd5b8101908080359060200190929190505050611722565b604051808273ffffffffffffffffffffffffffffffffffffffff16815260200191505060405180910390f35b34801561064d57600080fd5b50610656611759565b6040518080602001828103825283818151815260200191508051906020019080838360005b8381101561069657808201518184015260208101905061067b565b50505050905090810190601f1680156106c35780820380516001836020036101000a031916815260200191505b509250505060405180910390f35b3480156106dd57600080fd5b506106e66117fb565b604051808273ffffffffffffffffffffffffffffffffffffffff16815260200191505060405180910390f35b34801561071e57600080fd5b506107616004803603602081101561073557600080fd5b81019080803573ffffffffffffffffffffffffffffffffffffffff169060200190929190505050611821565b6040518082815260200191505060405180910390f35b34801561078357600080fd5b5061078c6118f6565b6040518082815260200191505060405180910390f35b3480156107ae57600080fd5b506107b76118fc565b604051808273ffffffffffffffffffffffffffffffffffffffff16815260200191505060405180910390f35b3480156107ef57600080fd5b506107f8611922565b6040518080602001828103825283818151815260200191508051906020019080838360005b8381101561083857808201518184015260208101905061081d565b50505050905090810190601f1680156108655780820380516001836020036101000a031916815260200191505b509250505060405180910390f35b34801561087f57600080fd5b506108ce6004803603604081101561089657600080fd5b81019080803573ffffffffffffffffffffffffffffffffffffffff1690602001909291908035151590602001909291905050506119c4565b005b3480156108dc57600080fd5b506109e0600480360360808110156108f357600080fd5b81019080803573ffffffffffffffffffffffffffffffffffffffff169060200190929190803573ffffffffffffffffffffffffffffffffffffffff169060200190929190803590602001909291908035906020019064010000000081111561095a57600080fd5b82018360208201111561096c57600080fd5b8035906020019184600183028401116401000000008311171561098e57600080fd5b91908080601f016020809104026020016040519081016040528093929190818152602001838380828437600081840152601f19601f820116905080830192505050505050509192919290505050611b7a565b005b3480156109ee57600080fd5b506109f7611bf2565b604051808273ffffffffffffffffffffffffffffffffffffffff16815260200191505060405180910390f35b348015610a2f57600080fd5b50610a5c60048036036020811015610a4657600080fd5b8101908080359060200190929190505050611c18565b6040518080602001828103825283818151815260200191508051906020019080838360005b83811015610a9c578082015181840152602081019050610a81565b50505050905090810190601f168015610ac95780820380516001836020036101000a031916815260200191505b509250505060405180910390f35b348015610ae357600080fd5b50610bbd60048036036040811015610afa57600080fd5b81019080803573ffffffffffffffffffffffffffffffffffffffff16906020019092919080359060200190640100000000811115610b3757600080fd5b820183602082011115610b4957600080fd5b80359060200191846001830284011164010000000083111715610b6b57600080fd5b91908080601f016020809104026020016040519081016040528093929190818152602001838380828437600081840152601f19601f820116905080830192505050505050509192919290505050611f01565b6040518082815260200191505060405180910390f35b348015610bdf57600080fd5b50610be8611ffc565b604051808273ffffffffffffffffffffffffffffffffffffffff16815260200191505060405180910390f35b348015610c2057600080fd5b50610c29612022565b604051808273ffffffffffffffffffffffffffffffffffffffff16815260200191505060405180910390f35b348015610c6157600080fd5b50610cc460048036036040811015610c7857600080fd5b81019080803573ffffffffffffffffffffffffffffffffffffffff169060200190929190803573ffffffffffffffffffffffffffffffffffffffff169060200190929190505050612048565b60405180821515815260200191505060405180910390f35b600e5481565b6000806000837bffffffffffffffffffffffffffffffffffffffffffffffffffffffff19167bffffffffffffffffffffffffffffffffffffffffffffffffffffffff1916815260200190815260200160002060009054906101000a900460ff169050919050565b606060068054600181600116156101000203166002900480601f016020809104026020016040519081016040528092919081815260200182805460018160011615610100020316600290048015610de15780601f10610db657610100808354040283529160200191610de1565b820191906000526020600020905b815481529060010190602001808311610dc457829003601f168201915b5050505050905090565b6000610df6826120dc565b610e4b576040517f08c379a000000000000000000000000000000000000000000000000000000000815260040180806020018281038252602c8152602001806139d9602c913960400191505060405180910390fd5b6004600083815260200190815260200160002060009054906101000a900473ffffffffffffffffffffffffffffffffffffffff169050919050565b6000610e9182611722565b90508073ffffffffffffffffffffffffffffffffffffffff168373ffffffffffffffffffffffffffffffffffffffff161415610f18576040517f08c379a0000000000000000000000000000000000000000000000000000000008152600401808060200182810382526021815260200180613a896021913960400191505060405180910390fd5b8073ffffffffffffffffffffffffffffffffffffffff16610f376120f9565b73ffffffffffffffffffffffffffffffffffffffff161480610f665750610f6581610f606120f9565b612048565b5b610fbb576040517f08c379a000000000000000000000000000000000000000000000000000000000815260040180806020018281038252603881526020018061392c6038913960400191505060405180910390fd5b610fc58383612101565b505050565b6000610fd660026121ba565b905090565b610fec610fe66120f9565b826121cf565b611041576040517f08c379a0000000000000000000000000000000000000000000000000000000008152600401808060200182810382526031815260200180613aaa6031913960400191505060405180910390fd5b61104c8383836122c3565b505050565b60006110a482600160008673ffffffffffffffffffffffffffffffffffffffff1673ffffffffffffffffffffffffffffffffffffffff16815260200190815260200160002061250690919063ffffffff16565b905092915050565b6110c783838360405180602001604052806000815250611b7a565b505050565b600080601060009054906101000a900473ffffffffffffffffffffffffffffffffffffffff1673ffffffffffffffffffffffffffffffffffffffff166370a08231336040518263ffffffff1660e01b8152600401808273ffffffffffffffffffffffffffffffffffffffff16815260200191505060206040518083038186803b15801561115857600080fd5b505afa15801561116c573d6000803e3d6000fd5b505050506040513d602081101561118257600080fd5b81019080805190602001909291905050501015611207576040517f08c379a00000000000000000000000000000000000000000000000000000000081526004018080602001828103825260158152602001807f496e76616c696420746f6b656e2062616c616e6365000000000000000000000081525060200191505060405180910390fd5b6000601060009054906101000a900473ffffffffffffffffffffffffffffffffffffffff1673ffffffffffffffffffffffffffffffffffffffff1663dd62ed3e33306040518363ffffffff1660e01b8152600401808373ffffffffffffffffffffffffffffffffffffffff1681526020018273ffffffffffffffffffffffffffffffffffffffff1681526020019250505060206040518083038186803b1580156112b057600080fd5b505afa1580156112c4573d6000803e3d6000fd5b505050506040513d60208110156112da57600080fd5b8101908080519060200190929190505050101561135f576040517f08c379a00000000000000000000000000000000000000000000000000000000081526004018080602001828103825260178152602001807f496e76616c696420746f6b656e20616c6c6f77616e636500000000000000000081525060200191505060405180910390fd5b61136882612520565b601060009054906101000a900473ffffffffffffffffffffffffffffffffffffffff1673ffffffffffffffffffffffffffffffffffffffff166323b872dd33601260009054906101000a900473ffffffffffffffffffffffffffffffffffffffff16600e546040518463ffffffff1660e01b8152600401808473ffffffffffffffffffffffffffffffffffffffff1681526020018373ffffffffffffffffffffffffffffffffffffffff1681526020018281526020019350505050602060405180830381600087803b15801561143d57600080fd5b505af1158015611451573d6000803e3d6000fd5b505050506040513d602081101561146757600080fd5b81019080805190602001909291905050506114ea576040517f08c379a000000000000000000000000000000000000000000000000000000000815260040180806020018281038252601e8152602001807f5472616e73666572206661696c656420666f72206261736520746f6b656e000081525060200191505060405180910390fd5b601060009054906101000a900473ffffffffffffffffffffffffffffffffffffffff1673ffffffffffffffffffffffffffffffffffffffff166323b872dd33601160009054906101000a900473ffffffffffffffffffffffffffffffffffffffff16600d546040518463ffffffff1660e01b8152600401808473ffffffffffffffffffffffffffffffffffffffff1681526020018373ffffffffffffffffffffffffffffffffffffffff1681526020018281526020019350505050602060405180830381600087803b1580156115bf57600080fd5b505af11580156115d3573d6000803e3d6000fd5b505050506040513d60208110156115e957600080fd5b810190808051906020019092919050505061166c576040517f08c379a000000000000000000000000000000000000000000000000000000000815260040180806020018281038252601e8152602001807f5472616e73666572206661696c656420666f72206261736520746f6b656e000081525060200191505060405180910390fd5b7f922440b9b32ceea32c28a1e3eaab6666b0c219fb8184013c17bc787fc6be8ecb303384604051808473ffffffffffffffffffffffffffffffffffffffff1681526020018373ffffffffffffffffffffffffffffffffffffffff168152602001828152602001935050505060405180910390a160019050919050565b6000806116ff83600261265a90919063ffffffff16565b50905080915050919050565b6000600a60009054906101000a900460ff16905090565b60006117528260405180606001604052806029815260200161398e6029913960026126869092919063ffffffff16565b9050919050565b606060098054600181600116156101000203166002900480601f0160208091040260200160405190810160405280929190818152602001828054600181600116156101000203166002900480156117f15780601f106117c6576101008083540402835291602001916117f1565b820191906000526020600020905b8154815290600101906020018083116117d457829003601f168201915b5050505050905090565b601260009054906101000a900473ffffffffffffffffffffffffffffffffffffffff1681565b60008073ffffffffffffffffffffffffffffffffffffffff168273ffffffffffffffffffffffffffffffffffffffff1614156118a8576040517f08c379a000000000000000000000000000000000000000000000000000000000815260040180806020018281038252602a815260200180613964602a913960400191505060405180910390fd5b6118ef600160008473ffffffffffffffffffffffffffffffffffffffff1673ffffffffffffffffffffffffffffffffffffffff1681526020019081526020016000206126a5565b9050919050565b600d5481565b600c60009054906101000a900473ffffffffffffffffffffffffffffffffffffffff1681565b606060078054600181600116156101000203166002900480601f0160208091040260200160405190810160405280929190818152602001828054600181600116156101000203166002900480156119ba5780601f1061198f576101008083540402835291602001916119ba565b820191906000526020600020905b81548152906001019060200180831161199d57829003601f168201915b5050505050905090565b6119cc6120f9565b73ffffffffffffffffffffffffffffffffffffffff168273ffffffffffffffffffffffffffffffffffffffff161415611a6d576040517f08c379a00000000000000000000000000000000000000000000000000000000081526004018080602001828103825260198152602001807f4552433732313a20617070726f766520746f2063616c6c65720000000000000081525060200191505060405180910390fd5b8060056000611a7a6120f9565b73ffffffffffffffffffffffffffffffffffffffff1673ffffffffffffffffffffffffffffffffffffffff16815260200190815260200160002060008473ffffffffffffffffffffffffffffffffffffffff1673ffffffffffffffffffffffffffffffffffffffff16815260200190815260200160002060006101000a81548160ff0219169083151502179055508173ffffffffffffffffffffffffffffffffffffffff16611b276120f9565b73ffffffffffffffffffffffffffffffffffffffff167f17307eab39ab6107e8899845ad3d59bd9653f200f220920489ca2b5937696c318360405180821515815260200191505060405180910390a35050565b611b8b611b856120f9565b836121cf565b611be0576040517f08c379a0000000000000000000000000000000000000000000000000000000008152600401808060200182810382526031815260200180613aaa6031913960400191505060405180910390fd5b611bec848484846126ba565b50505050565b601060009054906101000a900473ffffffffffffffffffffffffffffffffffffffff1681565b6060611c23826120dc565b611c78576040517f08c379a000000000000000000000000000000000000000000000000000000000815260040180806020018281038252602f815260200180613a5a602f913960400191505060405180910390fd5b6000600860008481526020019081526020016000208054600181600116156101000203166002900480601f016020809104026020016040519081016040528092919081815260200182805460018160011615610100020316600290048015611d215780601f10611cf657610100808354040283529160200191611d21565b820191906000526020600020905b815481529060010190602001808311611d0457829003601f168201915b50505050509050600060098054600181600116156101000203166002900490501415611d505780915050611efc565b600081511115611e29576009816040516020018083805460018160011615610100020316600290048015611dbb5780601f10611d99576101008083540402835291820191611dbb565b820191906000526020600020905b815481529060010190602001808311611da7575b505082805190602001908083835b60208310611dec5780518252602082019150602081019050602083039250611dc9565b6001836020036101000a03801982511681845116808217855250505050505090500192505050604051602081830303815290604052915050611efc565b6009611e348461272c565b6040516020018083805460018160011615610100020316600290048015611e925780601f10611e70576101008083540402835291820191611e92565b820191906000526020600020905b815481529060010190602001808311611e7e575b505082805190602001908083835b60208310611ec35780518252602082019150602081019050602083039250611ea0565b6001836020036101000a038019825116818451168082178552505050505050905001925050506040516020818303038152906040529150505b919050565b60003373ffffffffffffffffffffffffffffffffffffffff16600f60009054906101000a900473ffffffffffffffffffffffffffffffffffffffff1673ffffffffffffffffffffffffffffffffffffffff1614611fc6576040517f08c379a000000000000000000000000000000000000000000000000000000000815260040180806020018281038252600e8152602001807f494e56414c4944204d494e54455200000000000000000000000000000000000081525060200191505060405180910390fd5b611fd0600b612873565b6000611fdc600b612889565b9050611fe88482612897565b611ff281846128b5565b8091505092915050565b600f60009054906101000a900473ffffffffffffffffffffffffffffffffffffffff1681565b601160009054906101000a900473ffffffffffffffffffffffffffffffffffffffff1681565b6000600560008473ffffffffffffffffffffffffffffffffffffffff1673ffffffffffffffffffffffffffffffffffffffff16815260200190815260200160002060008373ffffffffffffffffffffffffffffffffffffffff1673ffffffffffffffffffffffffffffffffffffffff16815260200190815260200160002060009054906101000a900460ff16905092915050565b60006120f282600261293f90919063ffffffff16565b9050919050565b600033905090565b816004600083815260200190815260200160002060006101000a81548173ffffffffffffffffffffffffffffffffffffffff021916908373ffffffffffffffffffffffffffffffffffffffff160217905550808273ffffffffffffffffffffffffffffffffffffffff1661217483611722565b73ffffffffffffffffffffffffffffffffffffffff167f8c5be1e5ebec7d5bd14f71427d1e84f3dd0314c0f7b2291e5b200ac8c7c3b92560405160405180910390a45050565b60006121c882600001612959565b9050919050565b60006121da826120dc565b61222f576040517f08c379a000000000000000000000000000000000000000000000000000000000815260040180806020018281038252602c815260200180613900602c913960400191505060405180910390fd5b600061223a83611722565b90508073ffffffffffffffffffffffffffffffffffffffff168473ffffffffffffffffffffffffffffffffffffffff1614806122a957508373ffffffffffffffffffffffffffffffffffffffff1661229184610deb565b73ffffffffffffffffffffffffffffffffffffffff16145b806122ba57506122b98185612048565b5b91505092915050565b8273ffffffffffffffffffffffffffffffffffffffff166122e382611722565b73ffffffffffffffffffffffffffffffffffffffff161461234f576040517f08c379a0000000000000000000000000000000000000000000000000000000008152600401808060200182810382526029815260200180613a316029913960400191505060405180910390fd5b600073ffffffffffffffffffffffffffffffffffffffff168273ffffffffffffffffffffffffffffffffffffffff1614156123d5576040517f08c379a00000000000000000000000000000000000000000000000000000000081526004018080602001828103825260248152602001806138b66024913960400191505060405180910390fd5b6123e083838361296a565b6123eb600082612101565b61243c81600160008673ffffffffffffffffffffffffffffffffffffffff1673ffffffffffffffffffffffffffffffffffffffff16815260200190815260200160002061297a90919063ffffffff16565b5061248e81600160008573ffffffffffffffffffffffffffffffffffffffff1673ffffffffffffffffffffffffffffffffffffffff16815260200190815260200160002061299490919063ffffffff16565b506124a5818360026129ae9092919063ffffffff16565b50808273ffffffffffffffffffffffffffffffffffffffff168473ffffffffffffffffffffffffffffffffffffffff167fddf252ad1be2c89b69c2b068fc378daa952ba7f163c4a11628f55a4df523b3ef60405160405180910390a4505050565b600061251583600001836129e3565b60001c905092915050565b600061252b82611722565b90506125398160008461296a565b612544600083612101565b60006008600084815260200190815260200160002080546001816001161561010002031660029004905014612593576008600083815260200190815260200160002060006125929190613743565b5b6125e482600160008473ffffffffffffffffffffffffffffffffffffffff1673ffffffffffffffffffffffffffffffffffffffff16815260200190815260200160002061297a90919063ffffffff16565b506125f9826002612a6690919063ffffffff16565b5081600073ffffffffffffffffffffffffffffffffffffffff168273ffffffffffffffffffffffffffffffffffffffff167fddf252ad1be2c89b69c2b068fc378daa952ba7f163c4a11628f55a4df523b3ef60405160405180910390a45050565b60008060008061266d8660000186612a80565b915091508160001c8160001c9350935050509250929050565b6000612699846000018460001b84612b19565b60001c90509392505050565b60006126b382600001612c0f565b9050919050565b6126c58484846122c3565b6126d184848484612c20565b612726576040517f08c379a00000000000000000000000000000000000000000000000000000000081526004018080602001828103825260328152602001806138846032913960400191505060405180910390fd5b50505050565b60606000821415612774576040518060400160405280600181526020017f3000000000000000000000000000000000000000000000000000000000000000815250905061286e565b600082905060005b6000821461279e578080600101915050600a828161279657fe5b04915061277c565b60008167ffffffffffffffff811180156127b757600080fd5b506040519080825280601f01601f1916602001820160405280156127ea5781602001600182028036833780820191505090505b50905060006001830390508593505b6000841461286657600a848161280b57fe5b0660300160f81b8282806001900393508151811061282557fe5b60200101907effffffffffffffffffffffffffffffffffffffffffffffffffffffffffffff1916908160001a905350600a848161285e57fe5b0493506127f9565b819450505050505b919050565b6001816000016000828254019250508190555050565b600081600001549050919050565b6128b1828260405180602001604052806000815250612e39565b5050565b6128be826120dc565b612913576040517f08c379a000000000000000000000000000000000000000000000000000000000815260040180806020018281038252602c815260200180613a05602c913960400191505060405180910390fd5b8060086000848152602001908152602001600020908051906020019061293a92919061378b565b505050565b6000612951836000018360001b612eaa565b905092915050565b600081600001805490509050919050565b612975838383612ecd565b505050565b600061298c836000018360001b612f3b565b905092915050565b60006129a6836000018360001b613023565b905092915050565b60006129da846000018460001b8473ffffffffffffffffffffffffffffffffffffffff1660001b613093565b90509392505050565b600081836000018054905011612a44576040517f08c379a00000000000000000000000000000000000000000000000000000000081526004018080602001828103825260228152602001806138376022913960400191505060405180910390fd5b826000018281548110612a5357fe5b9060005260206000200154905092915050565b6000612a78836000018360001b61316f565b905092915050565b60008082846000018054905011612ae2576040517f08c379a00000000000000000000000000000000000000000000000000000000081526004018080602001828103825260228152602001806139b76022913960400191505060405180910390fd5b6000846000018481548110612af357fe5b906000526020600020906002020190508060000154816001015492509250509250929050565b60008084600101600085815260200190815260200160002054905060008114158390612be0576040517f08c379a00000000000000000000000000000000000000000000000000000000081526004018080602001828103825283818151815260200191508051906020019080838360005b83811015612ba5578082015181840152602081019050612b8a565b50505050905090810190601f168015612bd25780820380516001836020036101000a031916815260200191505b509250505060405180910390fd5b50846000016001820381548110612bf357fe5b9060005260206000209060020201600101549150509392505050565b600081600001805490509050919050565b6000612c418473ffffffffffffffffffffffffffffffffffffffff16613288565b612c4e5760019050612e31565b6000612db863150b7a0260e01b612c636120f9565b888787604051602401808573ffffffffffffffffffffffffffffffffffffffff1681526020018473ffffffffffffffffffffffffffffffffffffffff16815260200183815260200180602001828103825283818151815260200191508051906020019080838360005b83811015612ce7578082015181840152602081019050612ccc565b50505050905090810190601f168015612d145780820380516001836020036101000a031916815260200191505b5095505050505050604051602081830303815290604052907bffffffffffffffffffffffffffffffffffffffffffffffffffffffff19166020820180517bffffffffffffffffffffffffffffffffffffffffffffffffffffffff8381831617835250505050604051806060016040528060328152602001613884603291398773ffffffffffffffffffffffffffffffffffffffff1661329b9092919063ffffffff16565b90506000818060200190516020811015612dd157600080fd5b8101908080519060200190929190505050905063150b7a0260e01b7bffffffffffffffffffffffffffffffffffffffffffffffffffffffff1916817bffffffffffffffffffffffffffffffffffffffffffffffffffffffff191614925050505b949350505050565b612e4383836132b3565b612e506000848484612c20565b612ea5576040517f08c379a00000000000000000000000000000000000000000000000000000000081526004018080602001828103825260328152602001806138846032913960400191505060405180910390fd5b505050565b600080836001016000848152602001908152602001600020541415905092915050565b612ed88383836134a7565b612ee061170b565b15612f36576040517f08c379a000000000000000000000000000000000000000000000000000000000815260040180806020018281038252602b815260200180613859602b913960400191505060405180910390fd5b505050565b600080836001016000848152602001908152602001600020549050600081146130175760006001820390506000600186600001805490500390506000866000018281548110612f8657fe5b9060005260206000200154905080876000018481548110612fa357fe5b9060005260206000200181905550600183018760010160008381526020019081526020016000208190555086600001805480612fdb57fe5b6001900381819060005260206000200160009055905586600101600087815260200190815260200160002060009055600194505050505061301d565b60009150505b92915050565b600061302f83836134ac565b61308857826000018290806001815401808255809150506001900390600052602060002001600090919091909150558260000180549050836001016000848152602001908152602001600020819055506001905061308d565b600090505b92915050565b600080846001016000858152602001908152602001600020549050600081141561313a57846000016040518060400160405280868152602001858152509080600181540180825580915050600190039060005260206000209060020201600090919091909150600082015181600001556020820151816001015550508460000180549050856001016000868152602001908152602001600020819055506001915050613168565b8285600001600183038154811061314d57fe5b90600052602060002090600202016001018190555060009150505b9392505050565b6000808360010160008481526020019081526020016000205490506000811461327c57600060018203905060006001866000018054905003905060008660000182815481106131ba57fe5b90600052602060002090600202019050808760000184815481106131da57fe5b906000526020600020906002020160008201548160000155600182015481600101559050506001830187600101600083600001548152602001908152602001600020819055508660000180548061322d57fe5b6001900381819060005260206000209060020201600080820160009055600182016000905550509055866001016000878152602001908152602001600020600090556001945050505050613282565b60009150505b92915050565b600080823b905060008111915050919050565b60606132aa84846000856134cf565b90509392505050565b600073ffffffffffffffffffffffffffffffffffffffff168273ffffffffffffffffffffffffffffffffffffffff161415613356576040517f08c379a00000000000000000000000000000000000000000000000000000000081526004018080602001828103825260208152602001807f4552433732313a206d696e7420746f20746865207a65726f206164647265737381525060200191505060405180910390fd5b61335f816120dc565b156133d2576040517f08c379a000000000000000000000000000000000000000000000000000000000815260040180806020018281038252601c8152602001807f4552433732313a20746f6b656e20616c7265616479206d696e7465640000000081525060200191505060405180910390fd5b6133de6000838361296a565b61342f81600160008573ffffffffffffffffffffffffffffffffffffffff1673ffffffffffffffffffffffffffffffffffffffff16815260200190815260200160002061299490919063ffffffff16565b50613446818360026129ae9092919063ffffffff16565b50808273ffffffffffffffffffffffffffffffffffffffff16600073ffffffffffffffffffffffffffffffffffffffff167fddf252ad1be2c89b69c2b068fc378daa952ba7f163c4a11628f55a4df523b3ef60405160405180910390a45050565b505050565b600080836001016000848152602001908152602001600020541415905092915050565b60608247101561352a576040517f08c379a00000000000000000000000000000000000000000000000000000000081526004018080602001828103825260268152602001806138da6026913960400191505060405180910390fd5b61353385613288565b6135a5576040517f08c379a000000000000000000000000000000000000000000000000000000000815260040180806020018281038252601d8152602001807f416464726573733a2063616c6c20746f206e6f6e2d636f6e747261637400000081525060200191505060405180910390fd5b6000808673ffffffffffffffffffffffffffffffffffffffff1685876040518082805190602001908083835b602083106135f457805182526020820191506020810190506020830392506135d1565b6001836020036101000a03801982511681845116808217855250505050505090500191505060006040518083038185875af1925050503d8060008114613656576040519150601f19603f3d011682016040523d82523d6000602084013e61365b565b606091505b509150915061366b828286613677565b92505050949350505050565b606083156136875782905061373c565b60008351111561369a5782518084602001fd5b816040517f08c379a00000000000000000000000000000000000000000000000000000000081526004018080602001828103825283818151815260200191508051906020019080838360005b838110156137015780820151818401526020810190506136e6565b50505050905090810190601f16801561372e5780820380516001836020036101000a031916815260200191505b509250505060405180910390fd5b9392505050565b50805460018160011615610100020316600290046000825580601f106137695750613788565b601f0160209004906000526020600020908101906137879190613819565b5b50565b828054600181600116156101000203166002900490600052602060002090601f0160209004810192826137c15760008555613808565b82601f106137da57805160ff1916838001178555613808565b82800160010185558215613808579182015b828111156138075782518255916020019190600101906137ec565b5b5090506138159190613819565b5090565b5b8082111561383257600081600090555060010161381a565b509056fe456e756d657261626c655365743a20696e646578206f7574206f6620626f756e64734552433732315061757361626c653a20746f6b656e207472616e73666572207768696c65207061757365644552433732313a207472616e7366657220746f206e6f6e20455243373231526563656976657220696d706c656d656e7465724552433732313a207472616e7366657220746f20746865207a65726f2061646472657373416464726573733a20696e73756666696369656e742062616c616e636520666f722063616c6c4552433732313a206f70657261746f7220717565727920666f72206e6f6e6578697374656e7420746f6b656e4552433732313a20617070726f76652063616c6c6572206973206e6f74206f776e6572206e6f7220617070726f76656420666f7220616c6c4552433732313a2062616c616e636520717565727920666f7220746865207a65726f20616464726573734552433732313a206f776e657220717565727920666f72206e6f6e6578697374656e7420746f6b656e456e756d657261626c654d61703a20696e646578206f7574206f6620626f756e64734552433732313a20617070726f76656420717565727920666f72206e6f6e6578697374656e7420746f6b656e4552433732314d657461646174613a2055524920736574206f66206e6f6e6578697374656e7420746f6b656e4552433732313a207472616e73666572206f6620746f6b656e2074686174206973206e6f74206f776e4552433732314d657461646174613a2055524920717565727920666f72206e6f6e6578697374656e7420746f6b656e4552433732313a20617070726f76616c20746f2063757272656e74206f776e65724552433732313a207472616e736665722063616c6c6572206973206e6f74206f776e6572206e6f7220617070726f766564a26469706673582212204c8ff5f89dac732e1521fc10331191d3294c13ea430ef3fb70390cf0b61ae4bf64736f6c63430007060033456e756d657261626c655365743a20696e646578206f7574206f6620626f756e6473416464726573733a20756e61626c6520746f2073656e642076616c75652c20726563697069656e74206d61792068617665207265766572746564a26469706673582212209e45d6053a8c7c77c2da241edc8602c13c39de4e754f7b570a532340bc91e25564736f6c63430007060033",
  "immutableReferences": {},
  "source": "pragma solidity ^0.7.0;\npragma experimental ABIEncoderV2;\n\nimport \"./NFTDocumentMinter.sol\";\nimport \"./MinterRegistry.sol\";\nimport \"@openzeppelin/contracts/utils/EnumerableSet.sol\";\nimport \"@openzeppelin/contracts/math/SafeMath.sol\";\nimport \"@openzeppelin/contracts/utils/Address.sol\";\nimport \"./ERC20Interface.sol\";\n\ncontract NFTFactory is MinterRegistry {\n    using EnumerableSet for EnumerableSet.AddressSet;\n    using SafeMath for uint256;\n    using Address for address payable;\n\n    // Emits when an document is created\n    event MinterCreated(\n        address indexed minter,\n        string indexed name, \n        string indexed symbol,\n        address paymentAddress,\n        uint feeStructure\n    );\n    event MinterRemoved(address indexed minter);\n    event Withdrawn(address indexed payee, uint256 weiAmount);\n    address public owner;\n    uint256 fee = 0.4 * 1e18;\n    ERC20Interface public daiToken;\n\n    // minters\n    EnumerableSet.AddressSet internal minters;\n\n    constructor(address dai) public {\n        daiToken = ERC20Interface(dai);\n        owner = msg.sender;\n    }\n\n    function setProtocolFee(uint256 _fee) public {\n        require(msg.sender == owner, \"INVALID_USER\");\n        fee = _fee;\n    }\n\n    function getProtocolFee() public returns (uint256) {\n        return fee;\n    }\n\n    function withdraw(address payable payee) public {\n        require(msg.sender == owner, \"INVALID_USER\");\n        uint256 b = address(this).balance;\n        payee.sendValue(address(this).balance);\n\n        emit Withdrawn(payee, b);\n    }\n\n    function withdrawToken(address payable payee, address token) public {\n        require(msg.sender == owner, \"INVALID_USER\");\n        uint256 b = ERC20Interface(token).balanceOf(address(this));\n        payee.sendValue(b);\n\n        emit Withdrawn(payee, b);\n    }\n\n    function createMinter(\n        bytes memory name, \n        bytes memory symbol,\n        address paymentAddress,\n        bool userHasKyc,\n        uint feeStructure)\n        public\n        returns (address)\n    {\n\n        address minter =\n            address(new NFTDocumentMinter(\n                owner, \n                msg.sender, \n                string(name), \n                string(symbol), \n                feeStructure, \n                fee,\n                paymentAddress,\n                address(this),\n                daiToken));\n        \n        addToRegistry(\n                minter, \n                name,\n                symbol,\n                paymentAddress,\n                userHasKyc,\n                feeStructure);\n        \n        bool ok = minters.add(minter);\n        emit MinterCreated(\n            minter,\n            string(name),\n            string(symbol),\n            paymentAddress,\n            feeStructure\n        );\n\n        // TODO: transfer from to owner (factory fee)\n\n        return minter;\n    }\n\n    function count() public view returns (uint256) {\n        return minters.length();\n    }\n\n    function get(uint256 index) public view returns (address) {\n        return minters.at(index);\n    }\n}\n",
  "sourcePath": "/home/rogelio/Code/xdv/nft-document-swap/contracts/NFTFactory.sol",
  "compiler": {
    "name": "solc",
    "version": "0.7.6+commit.7338295f.Emscripten.clang"
  },
  "schemaVersion": "3.3.3",
  "updatedAt": "2021-02-03T10:02:54.391Z",
  "networkType": "ethereum",
  "devdoc": {
    "kind": "dev",
    "methods": {},
    "version": 1
  },
  "userdoc": {
    "kind": "user",
    "methods": {},
    "version": 1
  }
}