{
  "contractName": "NFTManager",
  "abi": [
    {
      "inputs": [
        {
          "internalType": "address",
          "name": "dai",
          "type": "address"
        }
      ],
      "stateMutability": "nonpayable",
      "type": "constructor"
    },
    {
      "anonymous": false,
      "inputs": [
        {
          "indexed": true,
          "internalType": "address",
          "name": "minter",
          "type": "address"
        },
        {
          "indexed": true,
          "internalType": "uint256",
          "name": "id",
          "type": "uint256"
        },
        {
          "indexed": false,
          "internalType": "string",
          "name": "name",
          "type": "string"
        },
        {
          "indexed": true,
          "internalType": "string",
          "name": "symbol",
          "type": "string"
        }
      ],
      "name": "MinterRegistered",
      "type": "event"
    },
    {
      "anonymous": false,
      "inputs": [
        {
          "indexed": true,
          "internalType": "address",
          "name": "payee",
          "type": "address"
        },
        {
          "indexed": false,
          "internalType": "uint256",
          "name": "weiAmount",
          "type": "uint256"
        }
      ],
      "name": "Withdrawn",
      "type": "event"
    },
    {
      "inputs": [
        {
          "internalType": "address",
          "name": "minter",
          "type": "address"
        },
        {
          "internalType": "string",
          "name": "name",
          "type": "string"
        },
        {
          "internalType": "string",
          "name": "symbol",
          "type": "string"
        },
        {
          "internalType": "address",
          "name": "paymentAddress",
          "type": "address"
        },
        {
          "internalType": "bool",
          "name": "hasUserKyc",
          "type": "bool"
        },
        {
          "internalType": "uint256",
          "name": "feeStructure",
          "type": "uint256"
        },
        {
          "internalType": "uint256",
          "name": "serviceFee",
          "type": "uint256"
        },
        {
          "internalType": "address",
          "name": "factoryAddress",
          "type": "address"
        }
      ],
      "name": "addToRegistry",
      "outputs": [
        {
          "internalType": "uint256",
          "name": "",
          "type": "uint256"
        }
      ],
      "stateMutability": "nonpayable",
      "type": "function"
    },
    {
      "inputs": [],
      "name": "daiToken",
      "outputs": [
        {
          "internalType": "contract ERC20Interface",
          "name": "",
          "type": "address"
        }
      ],
      "stateMutability": "view",
      "type": "function",
      "constant": true
    },
    {
      "inputs": [
        {
          "internalType": "uint256",
          "name": "",
          "type": "uint256"
        }
      ],
      "name": "dataProviderMinters",
      "outputs": [
        {
          "internalType": "address",
          "name": "minterAddress",
          "type": "address"
        },
        {
          "internalType": "string",
          "name": "name",
          "type": "string"
        },
        {
          "internalType": "string",
          "name": "symbol",
          "type": "string"
        },
        {
          "internalType": "address",
          "name": "paymentAddress",
          "type": "address"
        },
        {
          "internalType": "bool",
          "name": "hasUserKyc",
          "type": "bool"
        },
        {
          "internalType": "uint256",
          "name": "feeStructure",
          "type": "uint256"
        },
        {
          "internalType": "uint256",
          "name": "created",
          "type": "uint256"
        },
        {
          "internalType": "uint256",
          "name": "serviceFee",
          "type": "uint256"
        },
        {
          "internalType": "address",
          "name": "factoryAddress",
          "type": "address"
        },
        {
          "internalType": "bool",
          "name": "enabled",
          "type": "bool"
        }
      ],
      "stateMutability": "view",
      "type": "function",
      "constant": true
    },
    {
      "inputs": [
        {
          "internalType": "address",
          "name": "",
          "type": "address"
        }
      ],
      "name": "minterCounter",
      "outputs": [
        {
          "internalType": "uint256",
          "name": "",
          "type": "uint256"
        }
      ],
      "stateMutability": "view",
      "type": "function",
      "constant": true
    },
    {
      "inputs": [
        {
          "internalType": "address",
          "name": "",
          "type": "address"
        }
      ],
      "name": "minterDocumentRequestCounter",
      "outputs": [
        {
          "internalType": "uint256",
          "name": "",
          "type": "uint256"
        }
      ],
      "stateMutability": "view",
      "type": "function",
      "constant": true
    },
    {
      "inputs": [
        {
          "internalType": "address",
          "name": "",
          "type": "address"
        },
        {
          "internalType": "uint256",
          "name": "",
          "type": "uint256"
        }
      ],
      "name": "minterDocumentRequests",
      "outputs": [
        {
          "internalType": "address",
          "name": "user",
          "type": "address"
        },
        {
          "internalType": "string",
          "name": "userDid",
          "type": "string"
        },
        {
          "internalType": "address",
          "name": "toMinter",
          "type": "address"
        },
        {
          "internalType": "string",
          "name": "toMinterDid",
          "type": "string"
        },
        {
          "internalType": "string",
          "name": "documentURI",
          "type": "string"
        },
        {
          "internalType": "uint256",
          "name": "status",
          "type": "uint256"
        },
        {
          "internalType": "string",
          "name": "description",
          "type": "string"
        }
      ],
      "stateMutability": "view",
      "type": "function",
      "constant": true
    },
    {
      "inputs": [],
      "name": "owner",
      "outputs": [
        {
          "internalType": "address",
          "name": "",
          "type": "address"
        }
      ],
      "stateMutability": "view",
      "type": "function",
      "constant": true
    },
    {
      "inputs": [
        {
          "internalType": "uint256",
          "name": "_fee",
          "type": "uint256"
        }
      ],
      "name": "setProtocolFee",
      "outputs": [],
      "stateMutability": "nonpayable",
      "type": "function"
    },
    {
      "inputs": [],
      "name": "getProtocolFee",
      "outputs": [
        {
          "internalType": "uint256",
          "name": "",
          "type": "uint256"
        }
      ],
      "stateMutability": "nonpayable",
      "type": "function"
    },
    {
      "inputs": [
        {
          "internalType": "address payable",
          "name": "payee",
          "type": "address"
        }
      ],
      "name": "withdraw",
      "outputs": [],
      "stateMutability": "nonpayable",
      "type": "function"
    },
    {
      "inputs": [
        {
          "internalType": "address payable",
          "name": "payee",
          "type": "address"
        },
        {
          "internalType": "address",
          "name": "token",
          "type": "address"
        }
      ],
      "name": "withdrawToken",
      "outputs": [],
      "stateMutability": "nonpayable",
      "type": "function"
    },
    {
      "inputs": [
        {
          "internalType": "address",
          "name": "minter",
          "type": "address"
        },
        {
          "internalType": "string",
          "name": "name",
          "type": "string"
        },
        {
          "internalType": "string",
          "name": "symbol",
          "type": "string"
        },
        {
          "internalType": "address",
          "name": "paymentAddress",
          "type": "address"
        },
        {
          "internalType": "bool",
          "name": "userHasKyc",
          "type": "bool"
        },
        {
          "internalType": "uint256",
          "name": "feeStructure",
          "type": "uint256"
        }
      ],
      "name": "registerMinter",
      "outputs": [
        {
          "internalType": "address",
          "name": "",
          "type": "address"
        }
      ],
      "stateMutability": "nonpayable",
      "type": "function"
    },
    {
      "inputs": [],
      "name": "count",
      "outputs": [
        {
          "internalType": "uint256",
          "name": "",
          "type": "uint256"
        }
      ],
      "stateMutability": "view",
      "type": "function",
      "constant": true
    },
    {
      "inputs": [
        {
          "internalType": "uint256",
          "name": "index",
          "type": "uint256"
        }
      ],
      "name": "get",
      "outputs": [
        {
          "internalType": "address",
          "name": "",
          "type": "address"
        }
      ],
      "stateMutability": "view",
      "type": "function",
      "constant": true
    }
  ],
  "bytecode": "0x60806040523480156200001157600080fd5b5060405162001c1438038062001c148339818101604052810190620000379190620000d7565b80600660006101000a81548173ffffffffffffffffffffffffffffffffffffffff021916908373ffffffffffffffffffffffffffffffffffffffff16021790555033600460006101000a81548173ffffffffffffffffffffffffffffffffffffffff021916908373ffffffffffffffffffffffffffffffffffffffff1602179055505062000151565b600081519050620000d18162000137565b92915050565b600060208284031215620000ea57600080fd5b6000620000fa84828501620000c0565b91505092915050565b6000620001108262000117565b9050919050565b600073ffffffffffffffffffffffffffffffffffffffff82169050919050565b620001428162000103565b81146200014e57600080fd5b50565b611ab380620001616000396000f3fe608060405234801561001057600080fd5b50600436106100ea5760003560e01c80638da5cb5b1161008c5780639aa94ba5116100665780639aa94ba51461027e5780639f070bd0146102ae578063a5a41031146102de578063be22f546146102fc576100ea565b80638da5cb5b146101f75780639507d39a14610215578063967426ff14610245576100ea565b806351cff8d9116100c857806351cff8d9146101595780636efaa69914610175578063761901bb146101ab578063787dce3d146101db576100ea565b806306661abd146100ef5780632aa222c81461010d5780633aeac4e11461013d575b600080fd5b6100f761031a565b604051610104919061185a565b60405180910390f35b61012760048036038101906101229190611363565b61032b565b604051610134919061185a565b60405180910390f35b610157600480360381019061015291906113b5565b610343565b005b610173600480360381019061016e919061138c565b6104dc565b005b61018f600480360381019061018a919061158c565b6105ec565b6040516101a297969594939291906116ea565b60405180910390f35b6101c560048036038101906101c09190611363565b6108db565b6040516101d2919061185a565b60405180910390f35b6101f560048036038101906101f091906115c8565b6108f3565b005b6101ff61098d565b60405161020c91906116cf565b60405180910390f35b61022f600480360381019061022a91906115c8565b6109b3565b60405161023c91906116cf565b60405180910390f35b61025f600480360381019061025a91906115c8565b6109d0565b6040516102759a99989796959493929190611775565b60405180910390f35b610298600480360381019061029391906114aa565b610bce565b6040516102a5919061185a565b60405180910390f35b6102c860048036038101906102c391906113f1565b610f98565b6040516102d591906116cf565b60405180910390f35b6102e6610fba565b6040516102f3919061185a565b60405180910390f35b610304610fc4565b604051610311919061181f565b60405180910390f35b60006103266007610fea565b905090565b60026020528060005260406000206000915090505481565b600460009054906101000a900473ffffffffffffffffffffffffffffffffffffffff1673ffffffffffffffffffffffffffffffffffffffff163373ffffffffffffffffffffffffffffffffffffffff16146103d3576040517f08c379a00000000000000000000000000000000000000000000000000000000081526004016103ca9061183a565b60405180910390fd5b60008173ffffffffffffffffffffffffffffffffffffffff166370a08231306040518263ffffffff1660e01b815260040161040e91906116cf565b60206040518083038186803b15801561042657600080fd5b505afa15801561043a573d6000803e3d6000fd5b505050506040513d601f19601f8201168201806040525081019061045e91906115f1565b9050610489818473ffffffffffffffffffffffffffffffffffffffff16610fff90919063ffffffff16565b8273ffffffffffffffffffffffffffffffffffffffff167f7084f5476618d8e60b11ef0d7d3f06914655adb8793e28ff7f018d4c76d505d5826040516104cf919061185a565b60405180910390a2505050565b600460009054906101000a900473ffffffffffffffffffffffffffffffffffffffff1673ffffffffffffffffffffffffffffffffffffffff163373ffffffffffffffffffffffffffffffffffffffff161461056c576040517f08c379a00000000000000000000000000000000000000000000000000000000081526004016105639061183a565b60405180910390fd5b600047905061059a478373ffffffffffffffffffffffffffffffffffffffff16610fff90919063ffffffff16565b8173ffffffffffffffffffffffffffffffffffffffff167f7084f5476618d8e60b11ef0d7d3f06914655adb8793e28ff7f018d4c76d505d5826040516105e0919061185a565b60405180910390a25050565b6003602052816000526040600020602052806000526040600020600091509150508060000160009054906101000a900473ffffffffffffffffffffffffffffffffffffffff1690806001018054600181600116156101000203166002900480601f0160208091040260200160405190810160405280929190818152602001828054600181600116156101000203166002900480156106cb5780601f106106a0576101008083540402835291602001916106cb565b820191906000526020600020905b8154815290600101906020018083116106ae57829003601f168201915b5050505050908060020160009054906101000a900473ffffffffffffffffffffffffffffffffffffffff1690806003018054600181600116156101000203166002900480601f01602080910402602001604051908101604052809291908181526020018280546001816001161561010002031660029004801561078f5780601f106107645761010080835404028352916020019161078f565b820191906000526020600020905b81548152906001019060200180831161077257829003601f168201915b505050505090806004018054600181600116156101000203166002900480601f01602080910402602001604051908101604052809291908181526020018280546001816001161561010002031660029004801561082d5780601f106108025761010080835404028352916020019161082d565b820191906000526020600020905b81548152906001019060200180831161081057829003601f168201915b505050505090806005015490806006018054600181600116156101000203166002900480601f0160208091040260200160405190810160405280929190818152602001828054600181600116156101000203166002900480156108d15780601f106108a6576101008083540402835291602001916108d1565b820191906000526020600020905b8154815290600101906020018083116108b457829003601f168201915b5050505050905087565b60006020528060005260406000206000915090505481565b600460009054906101000a900473ffffffffffffffffffffffffffffffffffffffff1673ffffffffffffffffffffffffffffffffffffffff163373ffffffffffffffffffffffffffffffffffffffff1614610983576040517f08c379a000000000000000000000000000000000000000000000000000000000815260040161097a9061183a565b60405180910390fd5b8060058190555050565b600460009054906101000a900473ffffffffffffffffffffffffffffffffffffffff1681565b60006109c982600761113990919063ffffffff16565b9050919050565b60016020528060005260406000206000915090508060000160009054906101000a900473ffffffffffffffffffffffffffffffffffffffff1690806001018054600181600116156101000203166002900480601f016020809104026020016040519081016040528092919081815260200182805460018160011615610100020316600290048015610aa25780601f10610a7757610100808354040283529160200191610aa2565b820191906000526020600020905b815481529060010190602001808311610a8557829003601f168201915b505050505090806002018054600181600116156101000203166002900480601f016020809104026020016040519081016040528092919081815260200182805460018160011615610100020316600290048015610b405780601f10610b1557610100808354040283529160200191610b40565b820191906000526020600020905b815481529060010190602001808311610b2357829003601f168201915b5050505050908060030160009054906101000a900473ffffffffffffffffffffffffffffffffffffffff16908060030160149054906101000a900460ff16908060040154908060050154908060060154908060070160009054906101000a900473ffffffffffffffffffffffffffffffffffffffff16908060070160149054906101000a900460ff1690508a565b60008060008a73ffffffffffffffffffffffffffffffffffffffff1673ffffffffffffffffffffffffffffffffffffffff1681526020019081526020016000206000815480929190600101919050555060008060008b73ffffffffffffffffffffffffffffffffffffffff1673ffffffffffffffffffffffffffffffffffffffff1681526020019081526020016000205490506040518061014001604052808b73ffffffffffffffffffffffffffffffffffffffff1681526020018a81526020018981526020018873ffffffffffffffffffffffffffffffffffffffff16815260200187151581526020018681526020014281526020018581526020018473ffffffffffffffffffffffffffffffffffffffff168152602001600115158152506001600083815260200190815260200160002060008201518160000160006101000a81548173ffffffffffffffffffffffffffffffffffffffff021916908373ffffffffffffffffffffffffffffffffffffffff1602179055506020820151816001019080519060200190610d649291906111e7565b506040820151816002019080519060200190610d819291906111e7565b5060608201518160030160006101000a81548173ffffffffffffffffffffffffffffffffffffffff021916908373ffffffffffffffffffffffffffffffffffffffff16021790555060808201518160030160146101000a81548160ff02191690831515021790555060a0820151816004015560c0820151816005015560e082015181600601556101008201518160070160006101000a81548173ffffffffffffffffffffffffffffffffffffffff021916908373ffffffffffffffffffffffffffffffffffffffff1602179055506101208201518160070160146101000a81548160ff021916908315150217905550905050876040518082805190602001908083835b60208310610ea75780518252602082019150602081019050602083039250610e84565b6001836020036101000a0380198251168184511680821785525050505050509050019150506040518091039020818b73ffffffffffffffffffffffffffffffffffffffff167f27cbb566eb604924251497b674c4c5afaa8275d5ef452d9dd86cdd6e0ada15ca8c6040518080602001828103825283818151815260200191508051906020019080838360005b83811015610f4e578082015181840152602081019050610f33565b50505050905090810190601f168015610f7b5780820380516001836020036101000a031916815260200191505b509250505060405180910390a48091505098975050505050505050565b6000610fac87878787878760055430610bce565b508690509695505050505050565b6000600554905090565b600660009054906101000a900473ffffffffffffffffffffffffffffffffffffffff1681565b6000610ff882600001611153565b9050919050565b80471015611075576040517f08c379a000000000000000000000000000000000000000000000000000000000815260040180806020018281038252601d8152602001807f416464726573733a20696e73756666696369656e742062616c616e636500000081525060200191505060405180910390fd5b60008273ffffffffffffffffffffffffffffffffffffffff168260405180600001905060006040518083038185875af1925050503d80600081146110d5576040519150601f19603f3d011682016040523d82523d6000602084013e6110da565b606091505b5050905080611134576040517f08c379a000000000000000000000000000000000000000000000000000000000815260040180806020018281038252603a815260200180611a44603a913960400191505060405180910390fd5b505050565b60006111488360000183611164565b60001c905092915050565b600081600001805490509050919050565b6000818360000180549050116111c5576040517f08c379a0000000000000000000000000000000000000000000000000000000008152600401808060200182810382526022815260200180611a226022913960400191505060405180910390fd5b8260000182815481106111d457fe5b9060005260206000200154905092915050565b828054600181600116156101000203166002900490600052602060002090601f01602090048101928261121d5760008555611264565b82601f1061123657805160ff1916838001178555611264565b82800160010185558215611264579182015b82811115611263578251825591602001919060010190611248565b5b5090506112719190611275565b5090565b5b8082111561128e576000816000905550600101611276565b5090565b60006112a56112a0846118a6565b611875565b9050828152602081018484840111156112bd57600080fd5b6112c8848285611970565b509392505050565b6000813590506112df816119c5565b92915050565b6000813590506112f4816119dc565b92915050565b600081359050611309816119f3565b92915050565b600082601f83011261132057600080fd5b8135611330848260208601611292565b91505092915050565b60008135905061134881611a0a565b92915050565b60008151905061135d81611a0a565b92915050565b60006020828403121561137557600080fd5b6000611383848285016112d0565b91505092915050565b60006020828403121561139e57600080fd5b60006113ac848285016112e5565b91505092915050565b600080604083850312156113c857600080fd5b60006113d6858286016112e5565b92505060206113e7858286016112d0565b9150509250929050565b60008060008060008060c0878903121561140a57600080fd5b600061141889828a016112d0565b965050602087013567ffffffffffffffff81111561143557600080fd5b61144189828a0161130f565b955050604087013567ffffffffffffffff81111561145e57600080fd5b61146a89828a0161130f565b945050606061147b89828a016112d0565b935050608061148c89828a016112fa565b92505060a061149d89828a01611339565b9150509295509295509295565b600080600080600080600080610100898b0312156114c757600080fd5b60006114d58b828c016112d0565b985050602089013567ffffffffffffffff8111156114f257600080fd5b6114fe8b828c0161130f565b975050604089013567ffffffffffffffff81111561151b57600080fd5b6115278b828c0161130f565b96505060606115388b828c016112d0565b95505060806115498b828c016112fa565b94505060a061155a8b828c01611339565b93505060c061156b8b828c01611339565b92505060e061157c8b828c016112d0565b9150509295985092959890939650565b6000806040838503121561159f57600080fd5b60006115ad858286016112d0565b92505060206115be85828601611339565b9150509250929050565b6000602082840312156115da57600080fd5b60006115e884828501611339565b91505092915050565b60006020828403121561160357600080fd5b60006116118482850161134e565b91505092915050565b611623816118f2565b82525050565b61163281611916565b82525050565b6116418161194c565b82525050565b6000611652826118d6565b61165c81856118e1565b935061166c81856020860161197f565b611675816119b4565b840191505092915050565b600061168d600c836118e1565b91507f494e56414c49445f5553455200000000000000000000000000000000000000006000830152602082019050919050565b6116c981611942565b82525050565b60006020820190506116e4600083018461161a565b92915050565b600060e0820190506116ff600083018a61161a565b81810360208301526117118189611647565b9050611720604083018861161a565b81810360608301526117328187611647565b905081810360808301526117468186611647565b905061175560a08301856116c0565b81810360c08301526117678184611647565b905098975050505050505050565b60006101408201905061178b600083018d61161a565b818103602083015261179d818c611647565b905081810360408301526117b1818b611647565b90506117c0606083018a61161a565b6117cd6080830189611629565b6117da60a08301886116c0565b6117e760c08301876116c0565b6117f460e08301866116c0565b61180261010083018561161a565b611810610120830184611629565b9b9a5050505050505050505050565b60006020820190506118346000830184611638565b92915050565b6000602082019050818103600083015261185381611680565b9050919050565b600060208201905061186f60008301846116c0565b92915050565b6000604051905081810181811067ffffffffffffffff8211171561189c5761189b6119b2565b5b8060405250919050565b600067ffffffffffffffff8211156118c1576118c06119b2565b5b601f19601f8301169050602081019050919050565b600081519050919050565b600082825260208201905092915050565b60006118fd82611922565b9050919050565b600061190f82611922565b9050919050565b60008115159050919050565b600073ffffffffffffffffffffffffffffffffffffffff82169050919050565b6000819050919050565b60006119578261195e565b9050919050565b600061196982611922565b9050919050565b82818337600083830152505050565b60005b8381101561199d578082015181840152602081019050611982565b838111156119ac576000848401525b50505050565bfe5b6000601f19601f8301169050919050565b6119ce816118f2565b81146119d957600080fd5b50565b6119e581611904565b81146119f057600080fd5b50565b6119fc81611916565b8114611a0757600080fd5b50565b611a1381611942565b8114611a1e57600080fd5b5056fe456e756d657261626c655365743a20696e646578206f7574206f6620626f756e6473416464726573733a20756e61626c6520746f2073656e642076616c75652c20726563697069656e74206d61792068617665207265766572746564a2646970667358221220f2f7bda9eb7013f9bfa0c759d404d6d7db70d29e10dace7216fde0dc2dd91cc964736f6c63430007060033",
  "immutableReferences": {},
  "source": "pragma solidity ^0.7.0;\npragma experimental ABIEncoderV2;\n\nimport \"./NFTDocumentMinter.sol\";\nimport \"./MinterRegistry.sol\";\nimport \"@openzeppelin/contracts/utils/EnumerableSet.sol\";\nimport \"@openzeppelin/contracts/math/SafeMath.sol\";\nimport \"@openzeppelin/contracts/utils/Address.sol\";\nimport \"./ERC20Interface.sol\";\n\ncontract NFTManager is MinterRegistry {\n    using EnumerableSet for EnumerableSet.AddressSet;\n    using SafeMath for uint256;\n    using Address for address payable;\n\n    event Withdrawn(address indexed payee, uint256 weiAmount);\n    address public owner;\n    uint256 fee;\n    ERC20Interface public daiToken;\n\n    // minters\n    EnumerableSet.AddressSet internal minters;\n\n    constructor(address dai) public {\n        daiToken = ERC20Interface(dai);\n        owner = msg.sender;\n    }\n\n    function setProtocolFee(uint256 _fee) public {\n        require(msg.sender == owner, \"INVALID_USER\");\n        fee = _fee;\n    }\n\n    function getProtocolFee() public returns (uint256) {\n        return fee;\n    }\n\n    function withdraw(address payable payee) public {\n        require(msg.sender == owner, \"INVALID_USER\");\n        uint256 b = address(this).balance;\n        payee.sendValue(address(this).balance);\n\n        emit Withdrawn(payee, b);\n    }\n\n    function withdrawToken(address payable payee, address token) public {\n        require(msg.sender == owner, \"INVALID_USER\");\n        uint256 b = ERC20Interface(token).balanceOf(address(this));\n        payee.sendValue(b);\n\n        emit Withdrawn(payee, b);\n    }\n\n    function registerMinter(\n        address minter,\n        string memory name, \n        string memory symbol,\n        address paymentAddress,\n        bool userHasKyc,\n        uint feeStructure)\n        public\n        returns (address)\n    {\n \n        addToRegistry(\n            minter, \n            name,\n            symbol,\n            paymentAddress,\n            userHasKyc,\n            feeStructure,\n            fee,\n            address(this));\n\n        return minter;\n    }\n\n    function count() public view returns (uint256) {\n        return minters.length();\n    }\n\n    function get(uint256 index) public view returns (address) {\n        return minters.at(index);\n    }\n}\n",
  "sourcePath": "/home/esfera-ubuntu/Documents/projects/ifesa/nft-document-swap/contracts/NFTManager.sol",
  "compiler": {
    "name": "solc",
    "version": "0.7.6+commit.7338295f.Emscripten.clang"
  },
  "schemaVersion": "3.3.3",
  "updatedAt": "2021-02-10T10:31:49.867Z",
  "networkType": "ethereum",
  "devdoc": {
    "kind": "dev",
    "methods": {},
    "version": 1
  },
  "userdoc": {
    "kind": "user",
    "methods": {},
    "version": 1
  }
}