{
  "contractName": "XDV",
  "abi": [
    {
      "inputs": [
        {
          "internalType": "string",
          "name": "name",
          "type": "string"
        },
        {
          "internalType": "string",
          "name": "symbol",
          "type": "string"
        },
        {
          "internalType": "address",
          "name": "tokenERC20",
          "type": "address"
        },
        {
          "internalType": "address",
          "name": "newPaymentAddress",
          "type": "address"
        }
      ],
      "stateMutability": "nonpayable",
      "type": "constructor"
    },
    {
      "anonymous": false,
      "inputs": [
        {
          "indexed": true,
          "internalType": "address",
          "name": "owner",
          "type": "address"
        },
        {
          "indexed": true,
          "internalType": "address",
          "name": "approved",
          "type": "address"
        },
        {
          "indexed": true,
          "internalType": "uint256",
          "name": "tokenId",
          "type": "uint256"
        }
      ],
      "name": "Approval",
      "type": "event"
    },
    {
      "anonymous": false,
      "inputs": [
        {
          "indexed": true,
          "internalType": "address",
          "name": "owner",
          "type": "address"
        },
        {
          "indexed": true,
          "internalType": "address",
          "name": "operator",
          "type": "address"
        },
        {
          "indexed": false,
          "internalType": "bool",
          "name": "approved",
          "type": "bool"
        }
      ],
      "name": "ApprovalForAll",
      "type": "event"
    },
    {
      "anonymous": false,
      "inputs": [
        {
          "indexed": true,
          "internalType": "address",
          "name": "previousOwner",
          "type": "address"
        },
        {
          "indexed": true,
          "internalType": "address",
          "name": "newOwner",
          "type": "address"
        }
      ],
      "name": "OwnershipTransferred",
      "type": "event"
    },
    {
      "anonymous": false,
      "inputs": [
        {
          "indexed": false,
          "internalType": "address",
          "name": "account",
          "type": "address"
        }
      ],
      "name": "Paused",
      "type": "event"
    },
    {
      "anonymous": false,
      "inputs": [
        {
          "indexed": true,
          "internalType": "address",
          "name": "from",
          "type": "address"
        },
        {
          "indexed": true,
          "internalType": "address",
          "name": "paymentAddress",
          "type": "address"
        },
        {
          "indexed": false,
          "internalType": "uint256",
          "name": "paidToContract",
          "type": "uint256"
        },
        {
          "indexed": false,
          "internalType": "uint256",
          "name": "paidToPaymentAddress",
          "type": "uint256"
        }
      ],
      "name": "ServiceFeePaid",
      "type": "event"
    },
    {
      "anonymous": false,
      "inputs": [
        {
          "indexed": true,
          "internalType": "address",
          "name": "from",
          "type": "address"
        },
        {
          "indexed": true,
          "internalType": "address",
          "name": "to",
          "type": "address"
        },
        {
          "indexed": true,
          "internalType": "uint256",
          "name": "tokenId",
          "type": "uint256"
        }
      ],
      "name": "Transfer",
      "type": "event"
    },
    {
      "anonymous": false,
      "inputs": [
        {
          "indexed": false,
          "internalType": "address",
          "name": "account",
          "type": "address"
        }
      ],
      "name": "Unpaused",
      "type": "event"
    },
    {
      "inputs": [
        {
          "internalType": "address",
          "name": "to",
          "type": "address"
        },
        {
          "internalType": "uint256",
          "name": "tokenId",
          "type": "uint256"
        }
      ],
      "name": "approve",
      "outputs": [],
      "stateMutability": "nonpayable",
      "type": "function"
    },
    {
      "inputs": [
        {
          "internalType": "address",
          "name": "owner",
          "type": "address"
        }
      ],
      "name": "balanceOf",
      "outputs": [
        {
          "internalType": "uint256",
          "name": "",
          "type": "uint256"
        }
      ],
      "stateMutability": "view",
      "type": "function",
      "constant": true
    },
    {
      "inputs": [
        {
          "internalType": "uint256",
          "name": "tokenId",
          "type": "uint256"
        }
      ],
      "name": "burn",
      "outputs": [],
      "stateMutability": "nonpayable",
      "type": "function"
    },
    {
      "inputs": [
        {
          "internalType": "uint256",
          "name": "tokenId",
          "type": "uint256"
        }
      ],
      "name": "getApproved",
      "outputs": [
        {
          "internalType": "address",
          "name": "",
          "type": "address"
        }
      ],
      "stateMutability": "view",
      "type": "function",
      "constant": true
    },
    {
      "inputs": [
        {
          "internalType": "address",
          "name": "owner",
          "type": "address"
        },
        {
          "internalType": "address",
          "name": "operator",
          "type": "address"
        }
      ],
      "name": "isApprovedForAll",
      "outputs": [
        {
          "internalType": "bool",
          "name": "",
          "type": "bool"
        }
      ],
      "stateMutability": "view",
      "type": "function",
      "constant": true
    },
    {
      "inputs": [],
      "name": "name",
      "outputs": [
        {
          "internalType": "string",
          "name": "",
          "type": "string"
        }
      ],
      "stateMutability": "view",
      "type": "function",
      "constant": true
    },
    {
      "inputs": [],
      "name": "owner",
      "outputs": [
        {
          "internalType": "address",
          "name": "",
          "type": "address"
        }
      ],
      "stateMutability": "view",
      "type": "function",
      "constant": true
    },
    {
      "inputs": [
        {
          "internalType": "uint256",
          "name": "tokenId",
          "type": "uint256"
        }
      ],
      "name": "ownerOf",
      "outputs": [
        {
          "internalType": "address",
          "name": "",
          "type": "address"
        }
      ],
      "stateMutability": "view",
      "type": "function",
      "constant": true
    },
    {
      "inputs": [],
      "name": "paused",
      "outputs": [
        {
          "internalType": "bool",
          "name": "",
          "type": "bool"
        }
      ],
      "stateMutability": "view",
      "type": "function",
      "constant": true
    },
    {
      "inputs": [],
      "name": "paymentAddress",
      "outputs": [
        {
          "internalType": "address",
          "name": "",
          "type": "address"
        }
      ],
      "stateMutability": "view",
      "type": "function",
      "constant": true
    },
    {
      "inputs": [],
      "name": "renounceOwnership",
      "outputs": [],
      "stateMutability": "nonpayable",
      "type": "function"
    },
    {
      "inputs": [
        {
          "internalType": "address",
          "name": "from",
          "type": "address"
        },
        {
          "internalType": "address",
          "name": "to",
          "type": "address"
        },
        {
          "internalType": "uint256",
          "name": "tokenId",
          "type": "uint256"
        }
      ],
      "name": "safeTransferFrom",
      "outputs": [],
      "stateMutability": "nonpayable",
      "type": "function"
    },
    {
      "inputs": [
        {
          "internalType": "address",
          "name": "from",
          "type": "address"
        },
        {
          "internalType": "address",
          "name": "to",
          "type": "address"
        },
        {
          "internalType": "uint256",
          "name": "tokenId",
          "type": "uint256"
        },
        {
          "internalType": "bytes",
          "name": "_data",
          "type": "bytes"
        }
      ],
      "name": "safeTransferFrom",
      "outputs": [],
      "stateMutability": "nonpayable",
      "type": "function"
    },
    {
      "inputs": [],
      "name": "serviceFeeForContract",
      "outputs": [
        {
          "internalType": "uint256",
          "name": "",
          "type": "uint256"
        }
      ],
      "stateMutability": "view",
      "type": "function",
      "constant": true
    },
    {
      "inputs": [],
      "name": "serviceFeeForPaymentAddress",
      "outputs": [
        {
          "internalType": "uint256",
          "name": "",
          "type": "uint256"
        }
      ],
      "stateMutability": "view",
      "type": "function",
      "constant": true
    },
    {
      "inputs": [
        {
          "internalType": "address",
          "name": "operator",
          "type": "address"
        },
        {
          "internalType": "bool",
          "name": "approved",
          "type": "bool"
        }
      ],
      "name": "setApprovalForAll",
      "outputs": [],
      "stateMutability": "nonpayable",
      "type": "function"
    },
    {
      "inputs": [],
      "name": "stablecoin",
      "outputs": [
        {
          "internalType": "contract IERC20",
          "name": "",
          "type": "address"
        }
      ],
      "stateMutability": "view",
      "type": "function",
      "constant": true
    },
    {
      "inputs": [
        {
          "internalType": "bytes4",
          "name": "interfaceId",
          "type": "bytes4"
        }
      ],
      "name": "supportsInterface",
      "outputs": [
        {
          "internalType": "bool",
          "name": "",
          "type": "bool"
        }
      ],
      "stateMutability": "view",
      "type": "function",
      "constant": true
    },
    {
      "inputs": [],
      "name": "symbol",
      "outputs": [
        {
          "internalType": "string",
          "name": "",
          "type": "string"
        }
      ],
      "stateMutability": "view",
      "type": "function",
      "constant": true
    },
    {
      "inputs": [
        {
          "internalType": "address",
          "name": "from",
          "type": "address"
        },
        {
          "internalType": "address",
          "name": "to",
          "type": "address"
        },
        {
          "internalType": "uint256",
          "name": "tokenId",
          "type": "uint256"
        }
      ],
      "name": "transferFrom",
      "outputs": [],
      "stateMutability": "nonpayable",
      "type": "function"
    },
    {
      "inputs": [
        {
          "internalType": "address",
          "name": "newOwner",
          "type": "address"
        }
      ],
      "name": "transferOwnership",
      "outputs": [],
      "stateMutability": "nonpayable",
      "type": "function"
    },
    {
      "inputs": [
        {
          "internalType": "uint256",
          "name": "_fee",
          "type": "uint256"
        }
      ],
      "name": "setServiceFeeForPaymentAddress",
      "outputs": [],
      "stateMutability": "nonpayable",
      "type": "function"
    },
    {
      "inputs": [
        {
          "internalType": "uint256",
          "name": "_fee",
          "type": "uint256"
        }
      ],
      "name": "setServiceFeeForContract",
      "outputs": [],
      "stateMutability": "nonpayable",
      "type": "function"
    },
    {
      "inputs": [
        {
          "internalType": "address",
          "name": "newAddress",
          "type": "address"
        }
      ],
      "name": "setPaymentAddress",
      "outputs": [],
      "stateMutability": "nonpayable",
      "type": "function"
    },
    {
      "inputs": [
        {
          "internalType": "address",
          "name": "user",
          "type": "address"
        },
        {
          "internalType": "string",
          "name": "uri",
          "type": "string"
        }
      ],
      "name": "mint",
      "outputs": [
        {
          "internalType": "uint256",
          "name": "",
          "type": "uint256"
        }
      ],
      "stateMutability": "nonpayable",
      "type": "function"
    },
    {
      "inputs": [
        {
          "internalType": "uint256",
          "name": "tokenId",
          "type": "uint256"
        }
      ],
      "name": "tokenURI",
      "outputs": [
        {
          "internalType": "string",
          "name": "",
          "type": "string"
        }
      ],
      "stateMutability": "view",
      "type": "function",
      "constant": true
    }
  ],
  "bytecode": "0x60806040526000600b556000600c553480156200001b57600080fd5b50604051620043bc380380620043bc833981810160405281019062000041919062000310565b838381600090805190602001906200005b929190620001d7565b50806001908051906020019062000074929190620001d7565b5050506000600660006101000a81548160ff0219169083151502179055506000620000a4620001cf60201b60201c565b905080600860006101000a81548173ffffffffffffffffffffffffffffffffffffffff021916908373ffffffffffffffffffffffffffffffffffffffff1602179055508073ffffffffffffffffffffffffffffffffffffffff16600073ffffffffffffffffffffffffffffffffffffffff167f8be0079c531659141344cd1fd0a4f28419497f9722a3daafe3b4186f6b6457e060405160405180910390a35080600d60006101000a81548173ffffffffffffffffffffffffffffffffffffffff021916908373ffffffffffffffffffffffffffffffffffffffff16021790555081600a60006101000a81548173ffffffffffffffffffffffffffffffffffffffff021916908373ffffffffffffffffffffffffffffffffffffffff160217905550505050506200056c565b600033905090565b828054620001e59062000477565b90600052602060002090601f01602090048101928262000209576000855562000255565b82601f106200022457805160ff191683800117855562000255565b8280016001018555821562000255579182015b828111156200025457825182559160200191906001019062000237565b5b50905062000264919062000268565b5090565b5b808211156200028357600081600090555060010162000269565b5090565b60006200029e6200029884620003d7565b620003ae565b905082815260208101848484011115620002b757600080fd5b620002c484828562000441565b509392505050565b600081519050620002dd8162000552565b92915050565b600082601f830112620002f557600080fd5b81516200030784826020860162000287565b91505092915050565b600080600080608085870312156200032757600080fd5b600085015167ffffffffffffffff8111156200034257600080fd5b6200035087828801620002e3565b945050602085015167ffffffffffffffff8111156200036e57600080fd5b6200037c87828801620002e3565b93505060406200038f87828801620002cc565b9250506060620003a287828801620002cc565b91505092959194509250565b6000620003ba620003cd565b9050620003c88282620004ad565b919050565b6000604051905090565b600067ffffffffffffffff821115620003f557620003f462000512565b5b620004008262000541565b9050602081019050919050565b60006200041a8262000421565b9050919050565b600073ffffffffffffffffffffffffffffffffffffffff82169050919050565b60005b838110156200046157808201518184015260208101905062000444565b8381111562000471576000848401525b50505050565b600060028204905060018216806200049057607f821691505b60208210811415620004a757620004a6620004e3565b5b50919050565b620004b88262000541565b810181811067ffffffffffffffff82111715620004da57620004d962000512565b5b80604052505050565b7f4e487b7100000000000000000000000000000000000000000000000000000000600052602260045260246000fd5b7f4e487b7100000000000000000000000000000000000000000000000000000000600052604160045260246000fd5b6000601f19601f8301169050919050565b6200055d816200040d565b81146200056957600080fd5b50565b613e40806200057c6000396000f3fe608060405234801561001057600080fd5b506004361061018e5760003560e01c8063715018a6116100de578063c014b9da11610097578063e53ae10211610071578063e53ae1021461046d578063e985e9c51461048b578063e9cbd822146104bb578063f2fde38b146104d95761018e565b8063c014b9da146103ef578063c87b56dd1461040d578063d0def5211461043d5761018e565b8063715018a6146103555780638da5cb5b1461035f57806395d89b411461037d578063a22cb4651461039b578063b86be2ca146103b7578063b88d4fde146103d35761018e565b806342842e0e1161014b5780635e1e1004116101255780635e1e1004146102bb578063633423be146102d75780636352211e146102f557806370a08231146103255761018e565b806342842e0e1461026557806342966c68146102815780635c975abb1461029d5761018e565b806301ffc9a71461019357806306fdde03146101c3578063081812fc146101e1578063095ea7b31461021157806323b872dd1461022d5780632c078e8d14610249575b600080fd5b6101ad60048036038101906101a89190612a55565b6104f5565b6040516101ba9190612fab565b60405180910390f35b6101cb6105d7565b6040516101d89190612fe1565b60405180910390f35b6101fb60048036038101906101f69190612aa7565b610669565b6040516102089190612f1b565b60405180910390f35b61022b600480360381019061022691906129f0565b6106ee565b005b61024760048036038101906102429190612896565b610806565b005b610263600480360381019061025e9190612aa7565b610866565b005b61027f600480360381019061027a9190612896565b6108ec565b005b61029b60048036038101906102969190612aa7565b61090c565b005b6102a5610968565b6040516102b29190612fab565b60405180910390f35b6102d560048036038101906102d09190612831565b61097f565b005b6102df610a3f565b6040516102ec9190612f1b565b60405180910390f35b61030f600480360381019061030a9190612aa7565b610a65565b60405161031c9190612f1b565b60405180910390f35b61033f600480360381019061033a9190612831565b610b17565b60405161034c9190613303565b60405180910390f35b61035d610bcf565b005b610367610d0c565b6040516103749190612f1b565b60405180910390f35b610385610d36565b6040516103929190612fe1565b60405180910390f35b6103b560048036038101906103b09190612960565b610dc8565b005b6103d160048036038101906103cc9190612aa7565b610f49565b005b6103ed60048036038101906103e891906128e5565b610fcf565b005b6103f7611031565b6040516104049190613303565b60405180910390f35b61042760048036038101906104229190612aa7565b611037565b6040516104349190612fe1565b60405180910390f35b6104576004803603810190610452919061299c565b611049565b6040516104649190613303565b60405180910390f35b610475611081565b6040516104829190613303565b60405180910390f35b6104a560048036038101906104a0919061285a565b611087565b6040516104b29190612fab565b60405180910390f35b6104c361111b565b6040516104d09190612fc6565b60405180910390f35b6104f360048036038101906104ee9190612831565b611141565b005b60007f80ac58cd000000000000000000000000000000000000000000000000000000007bffffffffffffffffffffffffffffffffffffffffffffffffffffffff1916827bffffffffffffffffffffffffffffffffffffffffffffffffffffffff191614806105c057507f5b5e139f000000000000000000000000000000000000000000000000000000007bffffffffffffffffffffffffffffffffffffffffffffffffffffffff1916827bffffffffffffffffffffffffffffffffffffffffffffffffffffffff1916145b806105d057506105cf826112ed565b5b9050919050565b6060600080546105e6906135a6565b80601f0160208091040260200160405190810160405280929190818152602001828054610612906135a6565b801561065f5780601f106106345761010080835404028352916020019161065f565b820191906000526020600020905b81548152906001019060200180831161064257829003601f168201915b5050505050905090565b600061067482611357565b6106b3576040517f08c379a00000000000000000000000000000000000000000000000000000000081526004016106aa90613203565b60405180910390fd5b6004600083815260200190815260200160002060009054906101000a900473ffffffffffffffffffffffffffffffffffffffff169050919050565b60006106f982610a65565b90508073ffffffffffffffffffffffffffffffffffffffff168373ffffffffffffffffffffffffffffffffffffffff16141561076a576040517f08c379a000000000000000000000000000000000000000000000000000000000815260040161076190613283565b60405180910390fd5b8073ffffffffffffffffffffffffffffffffffffffff166107896113c3565b73ffffffffffffffffffffffffffffffffffffffff1614806107b857506107b7816107b26113c3565b611087565b5b6107f7576040517f08c379a00000000000000000000000000000000000000000000000000000000081526004016107ee90613123565b60405180910390fd5b61080183836113cb565b505050565b6108176108116113c3565b82611484565b610856576040517f08c379a000000000000000000000000000000000000000000000000000000000815260040161084d906132c3565b60405180910390fd5b610861838383611562565b505050565b61086e6113c3565b73ffffffffffffffffffffffffffffffffffffffff1661088c610d0c565b73ffffffffffffffffffffffffffffffffffffffff16146108e2576040517f08c379a00000000000000000000000000000000000000000000000000000000081526004016108d990613223565b60405180910390fd5b80600c8190555050565b61090783838360405180602001604052806000815250610fcf565b505050565b61091d6109176113c3565b82611484565b61095c576040517f08c379a0000000000000000000000000000000000000000000000000000000008152600401610953906132e3565b60405180910390fd5b610965816117be565b50565b6000600660009054906101000a900460ff16905090565b6109876113c3565b73ffffffffffffffffffffffffffffffffffffffff166109a5610d0c565b73ffffffffffffffffffffffffffffffffffffffff16146109fb576040517f08c379a00000000000000000000000000000000000000000000000000000000081526004016109f290613223565b60405180910390fd5b80600d60006101000a81548173ffffffffffffffffffffffffffffffffffffffff021916908373ffffffffffffffffffffffffffffffffffffffff16021790555050565b600d60009054906101000a900473ffffffffffffffffffffffffffffffffffffffff1681565b6000806002600084815260200190815260200160002060009054906101000a900473ffffffffffffffffffffffffffffffffffffffff169050600073ffffffffffffffffffffffffffffffffffffffff168173ffffffffffffffffffffffffffffffffffffffff161415610b0e576040517f08c379a0000000000000000000000000000000000000000000000000000000008152600401610b0590613163565b60405180910390fd5b80915050919050565b60008073ffffffffffffffffffffffffffffffffffffffff168273ffffffffffffffffffffffffffffffffffffffff161415610b88576040517f08c379a0000000000000000000000000000000000000000000000000000000008152600401610b7f90613143565b60405180910390fd5b600360008373ffffffffffffffffffffffffffffffffffffffff1673ffffffffffffffffffffffffffffffffffffffff168152602001908152602001600020549050919050565b610bd76113c3565b73ffffffffffffffffffffffffffffffffffffffff16610bf5610d0c565b73ffffffffffffffffffffffffffffffffffffffff1614610c4b576040517f08c379a0000000000000000000000000000000000000000000000000000000008152600401610c4290613223565b60405180910390fd5b600073ffffffffffffffffffffffffffffffffffffffff16600860009054906101000a900473ffffffffffffffffffffffffffffffffffffffff1673ffffffffffffffffffffffffffffffffffffffff167f8be0079c531659141344cd1fd0a4f28419497f9722a3daafe3b4186f6b6457e060405160405180910390a36000600860006101000a81548173ffffffffffffffffffffffffffffffffffffffff021916908373ffffffffffffffffffffffffffffffffffffffff160217905550565b6000600860009054906101000a900473ffffffffffffffffffffffffffffffffffffffff16905090565b606060018054610d45906135a6565b80601f0160208091040260200160405190810160405280929190818152602001828054610d71906135a6565b8015610dbe5780601f10610d9357610100808354040283529160200191610dbe565b820191906000526020600020905b815481529060010190602001808311610da157829003601f168201915b5050505050905090565b610dd06113c3565b73ffffffffffffffffffffffffffffffffffffffff168273ffffffffffffffffffffffffffffffffffffffff161415610e3e576040517f08c379a0000000000000000000000000000000000000000000000000000000008152600401610e35906130e3565b60405180910390fd5b8060056000610e4b6113c3565b73ffffffffffffffffffffffffffffffffffffffff1673ffffffffffffffffffffffffffffffffffffffff16815260200190815260200160002060008473ffffffffffffffffffffffffffffffffffffffff1673ffffffffffffffffffffffffffffffffffffffff16815260200190815260200160002060006101000a81548160ff0219169083151502179055508173ffffffffffffffffffffffffffffffffffffffff16610ef86113c3565b73ffffffffffffffffffffffffffffffffffffffff167f17307eab39ab6107e8899845ad3d59bd9653f200f220920489ca2b5937696c3183604051610f3d9190612fab565b60405180910390a35050565b610f516113c3565b73ffffffffffffffffffffffffffffffffffffffff16610f6f610d0c565b73ffffffffffffffffffffffffffffffffffffffff1614610fc5576040517f08c379a0000000000000000000000000000000000000000000000000000000008152600401610fbc90613223565b60405180910390fd5b80600b8190555050565b610fe0610fda6113c3565b83611484565b61101f576040517f08c379a0000000000000000000000000000000000000000000000000000000008152600401611016906132c3565b60405180910390fd5b61102b848484846117ca565b50505050565b600b5481565b606061104282611826565b9050919050565b60006110556009611978565b6000611061600961198e565b905061106d848261199c565b61107781846119ba565b8091505092915050565b600c5481565b6000600560008473ffffffffffffffffffffffffffffffffffffffff1673ffffffffffffffffffffffffffffffffffffffff16815260200190815260200160002060008373ffffffffffffffffffffffffffffffffffffffff1673ffffffffffffffffffffffffffffffffffffffff16815260200190815260200160002060009054906101000a900460ff16905092915050565b600a60009054906101000a900473ffffffffffffffffffffffffffffffffffffffff1681565b6111496113c3565b73ffffffffffffffffffffffffffffffffffffffff16611167610d0c565b73ffffffffffffffffffffffffffffffffffffffff16146111bd576040517f08c379a00000000000000000000000000000000000000000000000000000000081526004016111b490613223565b60405180910390fd5b600073ffffffffffffffffffffffffffffffffffffffff168173ffffffffffffffffffffffffffffffffffffffff16141561122d576040517f08c379a000000000000000000000000000000000000000000000000000000000815260040161122490613063565b60405180910390fd5b8073ffffffffffffffffffffffffffffffffffffffff16600860009054906101000a900473ffffffffffffffffffffffffffffffffffffffff1673ffffffffffffffffffffffffffffffffffffffff167f8be0079c531659141344cd1fd0a4f28419497f9722a3daafe3b4186f6b6457e060405160405180910390a380600860006101000a81548173ffffffffffffffffffffffffffffffffffffffff021916908373ffffffffffffffffffffffffffffffffffffffff16021790555050565b60007f01ffc9a7000000000000000000000000000000000000000000000000000000007bffffffffffffffffffffffffffffffffffffffffffffffffffffffff1916827bffffffffffffffffffffffffffffffffffffffffffffffffffffffff1916149050919050565b60008073ffffffffffffffffffffffffffffffffffffffff166002600084815260200190815260200160002060009054906101000a900473ffffffffffffffffffffffffffffffffffffffff1673ffffffffffffffffffffffffffffffffffffffff1614159050919050565b600033905090565b816004600083815260200190815260200160002060006101000a81548173ffffffffffffffffffffffffffffffffffffffff021916908373ffffffffffffffffffffffffffffffffffffffff160217905550808273ffffffffffffffffffffffffffffffffffffffff1661143e83610a65565b73ffffffffffffffffffffffffffffffffffffffff167f8c5be1e5ebec7d5bd14f71427d1e84f3dd0314c0f7b2291e5b200ac8c7c3b92560405160405180910390a45050565b600061148f82611357565b6114ce576040517f08c379a00000000000000000000000000000000000000000000000000000000081526004016114c590613103565b60405180910390fd5b60006114d983610a65565b90508073ffffffffffffffffffffffffffffffffffffffff168473ffffffffffffffffffffffffffffffffffffffff16148061154857508373ffffffffffffffffffffffffffffffffffffffff1661153084610669565b73ffffffffffffffffffffffffffffffffffffffff16145b8061155957506115588185611087565b5b91505092915050565b8273ffffffffffffffffffffffffffffffffffffffff1661158282610a65565b73ffffffffffffffffffffffffffffffffffffffff16146115d8576040517f08c379a00000000000000000000000000000000000000000000000000000000081526004016115cf90613243565b60405180910390fd5b600073ffffffffffffffffffffffffffffffffffffffff168273ffffffffffffffffffffffffffffffffffffffff161415611648576040517f08c379a000000000000000000000000000000000000000000000000000000000815260040161163f906130c3565b60405180910390fd5b611653838383611a2e565b61165e6000826113cb565b6001600360008573ffffffffffffffffffffffffffffffffffffffff1673ffffffffffffffffffffffffffffffffffffffff16815260200190815260200160002060008282546116ae9190613498565b925050819055506001600360008473ffffffffffffffffffffffffffffffffffffffff1673ffffffffffffffffffffffffffffffffffffffff16815260200190815260200160002060008282546117059190613411565b92505081905550816002600083815260200190815260200160002060006101000a81548173ffffffffffffffffffffffffffffffffffffffff021916908373ffffffffffffffffffffffffffffffffffffffff160217905550808273ffffffffffffffffffffffffffffffffffffffff168473ffffffffffffffffffffffffffffffffffffffff167fddf252ad1be2c89b69c2b068fc378daa952ba7f163c4a11628f55a4df523b3ef60405160405180910390a4505050565b6117c781611ac5565b50565b6117d5848484611562565b6117e184848484611b18565b611820576040517f08c379a000000000000000000000000000000000000000000000000000000000815260040161181790613043565b60405180910390fd5b50505050565b606061183182611357565b611870576040517f08c379a0000000000000000000000000000000000000000000000000000000008152600401611867906131e3565b60405180910390fd5b6000600760008481526020019081526020016000208054611890906135a6565b80601f01602080910402602001604051908101604052809291908181526020018280546118bc906135a6565b80156119095780601f106118de57610100808354040283529160200191611909565b820191906000526020600020905b8154815290600101906020018083116118ec57829003601f168201915b50505050509050600061191a611caf565b9050600081511415611930578192505050611973565b60008251111561196557808260405160200161194d929190612ef7565b60405160208183030381529060405292505050611973565b61196e84611cc6565b925050505b919050565b6001816000016000828254019250508190555050565b600081600001549050919050565b6119b6828260405180602001604052806000815250611d6d565b5050565b6119c382611357565b611a02576040517f08c379a00000000000000000000000000000000000000000000000000000000081526004016119f990613183565b60405180910390fd5b80600760008481526020019081526020016000209080519060200190611a29929190612600565b505050565b611a36610968565b15611a76576040517f08c379a0000000000000000000000000000000000000000000000000000000008152600401611a6d906132a3565b60405180910390fd5b600073ffffffffffffffffffffffffffffffffffffffff168273ffffffffffffffffffffffffffffffffffffffff161415611ab557611ab483611dc8565b5b611ac0838383611f24565b505050565b611ace81611f7c565b6000600760008381526020019081526020016000208054611aee906135a6565b905014611b1557600760008281526020019081526020016000206000611b149190612686565b5b50565b6000611b398473ffffffffffffffffffffffffffffffffffffffff1661208d565b15611ca2578373ffffffffffffffffffffffffffffffffffffffff1663150b7a02611b626113c3565b8786866040518563ffffffff1660e01b8152600401611b849493929190612f36565b602060405180830381600087803b158015611b9e57600080fd5b505af1925050508015611bcf57506040513d601f19601f82011682018060405250810190611bcc9190612a7e565b60015b611c52573d8060008114611bff576040519150601f19603f3d011682016040523d82523d6000602084013e611c04565b606091505b50600081511415611c4a576040517f08c379a0000000000000000000000000000000000000000000000000000000008152600401611c4190613043565b60405180910390fd5b805181602001fd5b63150b7a0260e01b7bffffffffffffffffffffffffffffffffffffffffffffffffffffffff1916817bffffffffffffffffffffffffffffffffffffffffffffffffffffffff191614915050611ca7565b600190505b949350505050565b606060405180602001604052806000815250905090565b6060611cd182611357565b611d10576040517f08c379a0000000000000000000000000000000000000000000000000000000008152600401611d0790613263565b60405180910390fd5b6000611d1a611caf565b90506000815111611d3a5760405180602001604052806000815250611d65565b80611d44846120a0565b604051602001611d55929190612ef7565b6040516020818303038152906040525b915050919050565b611d77838361224d565b611d846000848484611b18565b611dc3576040517f08c379a0000000000000000000000000000000000000000000000000000000008152600401611dba90613043565b60405180910390fd5b505050565b600073ffffffffffffffffffffffffffffffffffffffff16600d60009054906101000a900473ffffffffffffffffffffffffffffffffffffffff1673ffffffffffffffffffffffffffffffffffffffff161415611e5a576040517f08c379a0000000000000000000000000000000000000000000000000000000008152600401611e5190613083565b60405180910390fd5b611e6630600c5461241b565b611e94600d60009054906101000a900473ffffffffffffffffffffffffffffffffffffffff16600b5461241b565b600d60009054906101000a900473ffffffffffffffffffffffffffffffffffffffff1673ffffffffffffffffffffffffffffffffffffffff168173ffffffffffffffffffffffffffffffffffffffff167fa8f4c73f737d0de0c960fdfc31d6a578225f7b201397a04d6d128e622c6937e3600c54600b54604051611f1992919061331e565b60405180910390a350565b611f2f8383836125fb565b611f37610968565b15611f77576040517f08c379a0000000000000000000000000000000000000000000000000000000008152600401611f6e90613003565b60405180910390fd5b505050565b6000611f8782610a65565b9050611f9581600084611a2e565b611fa06000836113cb565b6001600360008373ffffffffffffffffffffffffffffffffffffffff1673ffffffffffffffffffffffffffffffffffffffff1681526020019081526020016000206000828254611ff09190613498565b925050819055506002600083815260200190815260200160002060006101000a81549073ffffffffffffffffffffffffffffffffffffffff021916905581600073ffffffffffffffffffffffffffffffffffffffff168273ffffffffffffffffffffffffffffffffffffffff167fddf252ad1be2c89b69c2b068fc378daa952ba7f163c4a11628f55a4df523b3ef60405160405180910390a45050565b600080823b905060008111915050919050565b606060008214156120e8576040518060400160405280600181526020017f30000000000000000000000000000000000000000000000000000000000000008152509050612248565b600082905060005b6000821461211a57808061210390613609565b915050600a826121139190613467565b91506120f0565b60008167ffffffffffffffff81111561215c577f4e487b7100000000000000000000000000000000000000000000000000000000600052604160045260246000fd5b6040519080825280601f01601f19166020018201604052801561218e5781602001600182028036833780820191505090505b5090505b60008514612241576001826121a79190613498565b9150600a856121b69190613652565b60306121c29190613411565b60f81b8183815181106121fe577f4e487b7100000000000000000000000000000000000000000000000000000000600052603260045260246000fd5b60200101907effffffffffffffffffffffffffffffffffffffffffffffffffffffffffffff1916908160001a905350600a8561223a9190613467565b9450612192565b8093505050505b919050565b600073ffffffffffffffffffffffffffffffffffffffff168273ffffffffffffffffffffffffffffffffffffffff1614156122bd576040517f08c379a00000000000000000000000000000000000000000000000000000000081526004016122b4906131c3565b60405180910390fd5b6122c681611357565b15612306576040517f08c379a00000000000000000000000000000000000000000000000000000000081526004016122fd906130a3565b60405180910390fd5b61231260008383611a2e565b6001600360008473ffffffffffffffffffffffffffffffffffffffff1673ffffffffffffffffffffffffffffffffffffffff16815260200190815260200160002060008282546123629190613411565b92505081905550816002600083815260200190815260200160002060006101000a81548173ffffffffffffffffffffffffffffffffffffffff021916908373ffffffffffffffffffffffffffffffffffffffff160217905550808273ffffffffffffffffffffffffffffffffffffffff16600073ffffffffffffffffffffffffffffffffffffffff167fddf252ad1be2c89b69c2b068fc378daa952ba7f163c4a11628f55a4df523b3ef60405160405180910390a45050565b600a60009054906101000a900473ffffffffffffffffffffffffffffffffffffffff1673ffffffffffffffffffffffffffffffffffffffff1663095ea7b383836040518363ffffffff1660e01b8152600401612478929190612f82565b602060405180830381600087803b15801561249257600080fd5b505af11580156124a6573d6000803e3d6000fd5b505050506040513d601f19601f820116820180604052508101906124ca9190612a2c565b612509576040517f08c379a000000000000000000000000000000000000000000000000000000000815260040161250090613023565b60405180910390fd5b600a60009054906101000a900473ffffffffffffffffffffffffffffffffffffffff1673ffffffffffffffffffffffffffffffffffffffff1663a9059cbb83836040518363ffffffff1660e01b8152600401612566929190612f82565b602060405180830381600087803b15801561258057600080fd5b505af1158015612594573d6000803e3d6000fd5b505050506040513d601f19601f820116820180604052508101906125b89190612a2c565b6125f7576040517f08c379a00000000000000000000000000000000000000000000000000000000081526004016125ee906131a3565b60405180910390fd5b5050565b505050565b82805461260c906135a6565b90600052602060002090601f01602090048101928261262e5760008555612675565b82601f1061264757805160ff1916838001178555612675565b82800160010185558215612675579182015b82811115612674578251825591602001919060010190612659565b5b50905061268291906126c6565b5090565b508054612692906135a6565b6000825580601f106126a457506126c3565b601f0160209004906000526020600020908101906126c291906126c6565b5b50565b5b808211156126df5760008160009055506001016126c7565b5090565b60006126f66126f18461336c565b613347565b90508281526020810184848401111561270e57600080fd5b612719848285613564565b509392505050565b600061273461272f8461339d565b613347565b90508281526020810184848401111561274c57600080fd5b612757848285613564565b509392505050565b60008135905061276e81613dae565b92915050565b60008135905061278381613dc5565b92915050565b60008151905061279881613dc5565b92915050565b6000813590506127ad81613ddc565b92915050565b6000815190506127c281613ddc565b92915050565b600082601f8301126127d957600080fd5b81356127e98482602086016126e3565b91505092915050565b600082601f83011261280357600080fd5b8135612813848260208601612721565b91505092915050565b60008135905061282b81613df3565b92915050565b60006020828403121561284357600080fd5b60006128518482850161275f565b91505092915050565b6000806040838503121561286d57600080fd5b600061287b8582860161275f565b925050602061288c8582860161275f565b9150509250929050565b6000806000606084860312156128ab57600080fd5b60006128b98682870161275f565b93505060206128ca8682870161275f565b92505060406128db8682870161281c565b9150509250925092565b600080600080608085870312156128fb57600080fd5b60006129098782880161275f565b945050602061291a8782880161275f565b935050604061292b8782880161281c565b925050606085013567ffffffffffffffff81111561294857600080fd5b612954878288016127c8565b91505092959194509250565b6000806040838503121561297357600080fd5b60006129818582860161275f565b925050602061299285828601612774565b9150509250929050565b600080604083850312156129af57600080fd5b60006129bd8582860161275f565b925050602083013567ffffffffffffffff8111156129da57600080fd5b6129e6858286016127f2565b9150509250929050565b60008060408385031215612a0357600080fd5b6000612a118582860161275f565b9250506020612a228582860161281c565b9150509250929050565b600060208284031215612a3e57600080fd5b6000612a4c84828501612789565b91505092915050565b600060208284031215612a6757600080fd5b6000612a758482850161279e565b91505092915050565b600060208284031215612a9057600080fd5b6000612a9e848285016127b3565b91505092915050565b600060208284031215612ab957600080fd5b6000612ac78482850161281c565b91505092915050565b612ad9816134cc565b82525050565b612ae8816134de565b82525050565b6000612af9826133ce565b612b0381856133e4565b9350612b13818560208601613573565b612b1c8161373f565b840191505092915050565b612b3081613540565b82525050565b6000612b41826133d9565b612b4b81856133f5565b9350612b5b818560208601613573565b612b648161373f565b840191505092915050565b6000612b7a826133d9565b612b848185613406565b9350612b94818560208601613573565b80840191505092915050565b6000612bad602b836133f5565b9150612bb882613750565b604082019050919050565b6000612bd0601e836133f5565b9150612bdb8261379f565b602082019050919050565b6000612bf36032836133f5565b9150612bfe826137c8565b604082019050919050565b6000612c166026836133f5565b9150612c2182613817565b604082019050919050565b6000612c396020836133f5565b9150612c4482613866565b602082019050919050565b6000612c5c601c836133f5565b9150612c678261388f565b602082019050919050565b6000612c7f6024836133f5565b9150612c8a826138b8565b604082019050919050565b6000612ca26019836133f5565b9150612cad82613907565b602082019050919050565b6000612cc5602c836133f5565b9150612cd082613930565b604082019050919050565b6000612ce86038836133f5565b9150612cf38261397f565b604082019050919050565b6000612d0b602a836133f5565b9150612d16826139ce565b604082019050919050565b6000612d2e6029836133f5565b9150612d3982613a1d565b604082019050919050565b6000612d51602e836133f5565b9150612d5c82613a6c565b604082019050919050565b6000612d746022836133f5565b9150612d7f82613abb565b604082019050919050565b6000612d976020836133f5565b9150612da282613b0a565b602082019050919050565b6000612dba6031836133f5565b9150612dc582613b33565b604082019050919050565b6000612ddd602c836133f5565b9150612de882613b82565b604082019050919050565b6000612e006020836133f5565b9150612e0b82613bd1565b602082019050919050565b6000612e236029836133f5565b9150612e2e82613bfa565b604082019050919050565b6000612e46602f836133f5565b9150612e5182613c49565b604082019050919050565b6000612e696021836133f5565b9150612e7482613c98565b604082019050919050565b6000612e8c601e836133f5565b9150612e9782613ce7565b602082019050919050565b6000612eaf6031836133f5565b9150612eba82613d10565b604082019050919050565b6000612ed26030836133f5565b9150612edd82613d5f565b604082019050919050565b612ef181613536565b82525050565b6000612f038285612b6f565b9150612f0f8284612b6f565b91508190509392505050565b6000602082019050612f306000830184612ad0565b92915050565b6000608082019050612f4b6000830187612ad0565b612f586020830186612ad0565b612f656040830185612ee8565b8181036060830152612f778184612aee565b905095945050505050565b6000604082019050612f976000830185612ad0565b612fa46020830184612ee8565b9392505050565b6000602082019050612fc06000830184612adf565b92915050565b6000602082019050612fdb6000830184612b27565b92915050565b60006020820190508181036000830152612ffb8184612b36565b905092915050565b6000602082019050818103600083015261301c81612ba0565b9050919050565b6000602082019050818103600083015261303c81612bc3565b9050919050565b6000602082019050818103600083015261305c81612be6565b9050919050565b6000602082019050818103600083015261307c81612c09565b9050919050565b6000602082019050818103600083015261309c81612c2c565b9050919050565b600060208201905081810360008301526130bc81612c4f565b9050919050565b600060208201905081810360008301526130dc81612c72565b9050919050565b600060208201905081810360008301526130fc81612c95565b9050919050565b6000602082019050818103600083015261311c81612cb8565b9050919050565b6000602082019050818103600083015261313c81612cdb565b9050919050565b6000602082019050818103600083015261315c81612cfe565b9050919050565b6000602082019050818103600083015261317c81612d21565b9050919050565b6000602082019050818103600083015261319c81612d44565b9050919050565b600060208201905081810360008301526131bc81612d67565b9050919050565b600060208201905081810360008301526131dc81612d8a565b9050919050565b600060208201905081810360008301526131fc81612dad565b9050919050565b6000602082019050818103600083015261321c81612dd0565b9050919050565b6000602082019050818103600083015261323c81612df3565b9050919050565b6000602082019050818103600083015261325c81612e16565b9050919050565b6000602082019050818103600083015261327c81612e39565b9050919050565b6000602082019050818103600083015261329c81612e5c565b9050919050565b600060208201905081810360008301526132bc81612e7f565b9050919050565b600060208201905081810360008301526132dc81612ea2565b9050919050565b600060208201905081810360008301526132fc81612ec5565b9050919050565b60006020820190506133186000830184612ee8565b92915050565b60006040820190506133336000830185612ee8565b6133406020830184612ee8565b9392505050565b6000613351613362565b905061335d82826135d8565b919050565b6000604051905090565b600067ffffffffffffffff82111561338757613386613710565b5b6133908261373f565b9050602081019050919050565b600067ffffffffffffffff8211156133b8576133b7613710565b5b6133c18261373f565b9050602081019050919050565b600081519050919050565b600081519050919050565b600082825260208201905092915050565b600082825260208201905092915050565b600081905092915050565b600061341c82613536565b915061342783613536565b9250827fffffffffffffffffffffffffffffffffffffffffffffffffffffffffffffffff0382111561345c5761345b613683565b5b828201905092915050565b600061347282613536565b915061347d83613536565b92508261348d5761348c6136b2565b5b828204905092915050565b60006134a382613536565b91506134ae83613536565b9250828210156134c1576134c0613683565b5b828203905092915050565b60006134d782613516565b9050919050565b60008115159050919050565b60007fffffffff0000000000000000000000000000000000000000000000000000000082169050919050565b600073ffffffffffffffffffffffffffffffffffffffff82169050919050565b6000819050919050565b600061354b82613552565b9050919050565b600061355d82613516565b9050919050565b82818337600083830152505050565b60005b83811015613591578082015181840152602081019050613576565b838111156135a0576000848401525b50505050565b600060028204905060018216806135be57607f821691505b602082108114156135d2576135d16136e1565b5b50919050565b6135e18261373f565b810181811067ffffffffffffffff82111715613600576135ff613710565b5b80604052505050565b600061361482613536565b91507fffffffffffffffffffffffffffffffffffffffffffffffffffffffffffffffff82141561364757613646613683565b5b600182019050919050565b600061365d82613536565b915061366883613536565b925082613678576136776136b2565b5b828206905092915050565b7f4e487b7100000000000000000000000000000000000000000000000000000000600052601160045260246000fd5b7f4e487b7100000000000000000000000000000000000000000000000000000000600052601260045260246000fd5b7f4e487b7100000000000000000000000000000000000000000000000000000000600052602260045260246000fd5b7f4e487b7100000000000000000000000000000000000000000000000000000000600052604160045260246000fd5b6000601f19601f8301169050919050565b7f4552433732315061757361626c653a20746f6b656e207472616e73666572207760008201527f68696c6520706175736564000000000000000000000000000000000000000000602082015250565b7f5844563a20526563697069656e7420617070726f76616c206661696c65640000600082015250565b7f4552433732313a207472616e7366657220746f206e6f6e20455243373231526560008201527f63656976657220696d706c656d656e7465720000000000000000000000000000602082015250565b7f4f776e61626c653a206e6577206f776e657220697320746865207a65726f206160008201527f6464726573730000000000000000000000000000000000000000000000000000602082015250565b7f5844563a204d75737420686176652061207061796d656e742061646472657373600082015250565b7f4552433732313a20746f6b656e20616c7265616479206d696e74656400000000600082015250565b7f4552433732313a207472616e7366657220746f20746865207a65726f2061646460008201527f7265737300000000000000000000000000000000000000000000000000000000602082015250565b7f4552433732313a20617070726f766520746f2063616c6c657200000000000000600082015250565b7f4552433732313a206f70657261746f7220717565727920666f72206e6f6e657860008201527f697374656e7420746f6b656e0000000000000000000000000000000000000000602082015250565b7f4552433732313a20617070726f76652063616c6c6572206973206e6f74206f7760008201527f6e6572206e6f7220617070726f76656420666f7220616c6c0000000000000000602082015250565b7f4552433732313a2062616c616e636520717565727920666f7220746865207a6560008201527f726f206164647265737300000000000000000000000000000000000000000000602082015250565b7f4552433732313a206f776e657220717565727920666f72206e6f6e657869737460008201527f656e7420746f6b656e0000000000000000000000000000000000000000000000602082015250565b7f45524337323155524953746f726167653a2055524920736574206f66206e6f6e60008201527f6578697374656e7420746f6b656e000000000000000000000000000000000000602082015250565b7f5844563a205472616e73666572206661696c656420666f72207265636970696560008201527f6e74000000000000000000000000000000000000000000000000000000000000602082015250565b7f4552433732313a206d696e7420746f20746865207a65726f2061646472657373600082015250565b7f45524337323155524953746f726167653a2055524920717565727920666f722060008201527f6e6f6e6578697374656e7420746f6b656e000000000000000000000000000000602082015250565b7f4552433732313a20617070726f76656420717565727920666f72206e6f6e657860008201527f697374656e7420746f6b656e0000000000000000000000000000000000000000602082015250565b7f4f776e61626c653a2063616c6c6572206973206e6f7420746865206f776e6572600082015250565b7f4552433732313a207472616e73666572206f6620746f6b656e2074686174206960008201527f73206e6f74206f776e0000000000000000000000000000000000000000000000602082015250565b7f4552433732314d657461646174613a2055524920717565727920666f72206e6f60008201527f6e6578697374656e7420746f6b656e0000000000000000000000000000000000602082015250565b7f4552433732313a20617070726f76616c20746f2063757272656e74206f776e6560008201527f7200000000000000000000000000000000000000000000000000000000000000602082015250565b7f5844563a20546f6b656e20657865637574696f6e206973207061757365640000600082015250565b7f4552433732313a207472616e736665722063616c6c6572206973206e6f74206f60008201527f776e6572206e6f7220617070726f766564000000000000000000000000000000602082015250565b7f4552433732314275726e61626c653a2063616c6c6572206973206e6f74206f7760008201527f6e6572206e6f7220617070726f76656400000000000000000000000000000000602082015250565b613db7816134cc565b8114613dc257600080fd5b50565b613dce816134de565b8114613dd957600080fd5b50565b613de5816134ea565b8114613df057600080fd5b50565b613dfc81613536565b8114613e0757600080fd5b5056fea264697066735822122009cc84ffba47061351aca4e1980b4b605c4d5e1e2c4419fbe194e5981526a09164736f6c63430008030033",
  "immutableReferences": {},
  "source": "// SPDX-License-Identifier: MIT\npragma solidity ^0.8.0;\n\nimport \"@openzeppelin/contracts/access/Ownable.sol\";\nimport \"@openzeppelin/contracts/token/ERC20/IERC20.sol\";\nimport \"@openzeppelin/contracts/token/ERC721/ERC721.sol\";\nimport \"@openzeppelin/contracts/token/ERC721/extensions/ERC721Burnable.sol\";\nimport \"@openzeppelin/contracts/token/ERC721/extensions/ERC721Pausable.sol\";\nimport \"@openzeppelin/contracts/token/ERC721/extensions/ERC721URIStorage.sol\";\nimport \"@openzeppelin/contracts/utils/Counters.sol\";\n\ncontract XDV is ERC721Burnable, ERC721Pausable, ERC721URIStorage, Ownable {\n    using Counters for Counters.Counter;\n    Counters.Counter private _tokenIds;\n    IERC20 public stablecoin;\n    uint256 public serviceFeeForPaymentAddress = 0;\n    uint256 public serviceFeeForContract = 0;\n    address public paymentAddress;\n\n    event ServiceFeePaid(\n        address indexed from,\n        address indexed paymentAddress,\n        uint256 paidToContract,\n        uint256 paidToPaymentAddress\n    );\n\n    /**\n     * XDV Data Token\n     */\n    constructor(\n        string memory name,\n        string memory symbol,\n        address tokenERC20,\n        address newPaymentAddress\n    ) ERC721(name, symbol) {\n        paymentAddress = newPaymentAddress;\n        stablecoin = IERC20(tokenERC20);\n    }\n\n    function setServiceFeeForPaymentAddress(uint256 _fee) public onlyOwner {\n        serviceFeeForPaymentAddress = _fee;\n    }\n\n    function setServiceFeeForContract(uint256 _fee) public onlyOwner {\n        serviceFeeForContract = _fee;\n    }\n\n    function setPaymentAddress(address newAddress) public onlyOwner {\n        paymentAddress = newAddress;\n    }\n\n    /**\n     * @dev Mints a XDV Data Token if whitelisted\n     */\n    function mint(address user, string memory uri) public returns (uint256) {\n        _tokenIds.increment();\n\n        uint256 newItemId = _tokenIds.current();\n        _safeMint(user, newItemId);\n        _setTokenURI(newItemId, uri);\n\n        return newItemId;\n    }\n\n    /**\n     * @dev Just overrides the superclass' function. Fixes inheritance\n     * source: https://forum.openzeppelin.com/t/how-do-inherit-from-erc721-erc721enumerable-and-erc721uristorage-in-v4-of-openzeppelin-contracts/6656/4\n     */\n    function _burn(uint256 tokenId)\n        internal\n        override(ERC721, ERC721URIStorage)\n    {\n        super._burn(tokenId);\n    }\n\n    /**\n     * @dev Just overrides the superclass' function. Fixes inheritance\n     * source: https://forum.openzeppelin.com/t/how-do-inherit-from-erc721-erc721enumerable-and-erc721uristorage-in-v4-of-openzeppelin-contracts/6656/4\n     */\n    function tokenURI(uint256 tokenId)\n        public\n        view\n        override(ERC721, ERC721URIStorage)\n        returns (string memory)\n    {\n        return super.tokenURI(tokenId);\n    }\n\n    function _beforeTokenTransfer(\n        address from,\n        address to,\n        uint256 tokenId\n    ) internal virtual override(ERC721, ERC721Pausable) {\n        require(!paused(), \"XDV: Token execution is paused\");\n\n        if (to == address(0)) {\n            paymentBeforeBurn(from);\n        }\n\n        super._beforeTokenTransfer(from, to, tokenId);\n    }\n\n    /**\n     * @dev tries to execute the payment when the token is burned.\n     * Reverts if the payment procedure could not be completed.\n     */\n    function paymentBeforeBurn(address tokenHolder) internal virtual {\n        require(\n            paymentAddress != address(0),\n            \"XDV: Must have a payment address\"\n        );\n\n        approveAndTransfer(address(this), serviceFeeForContract);\n        approveAndTransfer(paymentAddress, serviceFeeForPaymentAddress);\n\n        emit ServiceFeePaid(\n            tokenHolder,\n            paymentAddress,\n            serviceFeeForContract,\n            serviceFeeForPaymentAddress\n        );\n    }\n\n    function approveAndTransfer(address recipient, uint256 amount)\n        internal\n        virtual\n    {\n        // User must have an allowance\n        require(\n            stablecoin.approve(recipient, amount),\n            \"XDV: Recipient approval failed\"\n        );\n\n        // Transfer tokens to pay service fee\n        require(\n            stablecoin.transfer(recipient, amount),\n            \"XDV: Transfer failed for recipient\"\n        );\n    }\n}\n",
  "sourcePath": "/Users/zubietaroberto/git/nft-document-swap/contracts/XDV.sol",
  "compiler": {
    "name": "solc",
    "version": "0.8.3+commit.8d00100c.Emscripten.clang"
  },
  "schemaVersion": "3.3.4",
  "updatedAt": "2021-04-14T14:23:39.969Z",
  "networkType": "ethereum",
  "devdoc": {
    "kind": "dev",
    "methods": {
      "approve(address,uint256)": {
        "details": "See {IERC721-approve}."
      },
      "balanceOf(address)": {
        "details": "See {IERC721-balanceOf}."
      },
      "burn(uint256)": {
        "details": "Burns `tokenId`. See {ERC721-_burn}. Requirements: - The caller must own `tokenId` or be an approved operator."
      },
      "getApproved(uint256)": {
        "details": "See {IERC721-getApproved}."
      },
      "isApprovedForAll(address,address)": {
        "details": "See {IERC721-isApprovedForAll}."
      },
      "mint(address,string)": {
        "details": "Mints a XDV Data Token if whitelisted"
      },
      "name()": {
        "details": "See {IERC721Metadata-name}."
      },
      "owner()": {
        "details": "Returns the address of the current owner."
      },
      "ownerOf(uint256)": {
        "details": "See {IERC721-ownerOf}."
      },
      "paused()": {
        "details": "Returns true if the contract is paused, and false otherwise."
      },
      "renounceOwnership()": {
        "details": "Leaves the contract without owner. It will not be possible to call `onlyOwner` functions anymore. Can only be called by the current owner. NOTE: Renouncing ownership will leave the contract without an owner, thereby removing any functionality that is only available to the owner."
      },
      "safeTransferFrom(address,address,uint256)": {
        "details": "See {IERC721-safeTransferFrom}."
      },
      "safeTransferFrom(address,address,uint256,bytes)": {
        "details": "See {IERC721-safeTransferFrom}."
      },
      "setApprovalForAll(address,bool)": {
        "details": "See {IERC721-setApprovalForAll}."
      },
      "supportsInterface(bytes4)": {
        "details": "See {IERC165-supportsInterface}."
      },
      "symbol()": {
        "details": "See {IERC721Metadata-symbol}."
      },
      "tokenURI(uint256)": {
        "details": "Just overrides the superclass' function. Fixes inheritance source: https://forum.openzeppelin.com/t/how-do-inherit-from-erc721-erc721enumerable-and-erc721uristorage-in-v4-of-openzeppelin-contracts/6656/4"
      },
      "transferFrom(address,address,uint256)": {
        "details": "See {IERC721-transferFrom}."
      },
      "transferOwnership(address)": {
        "details": "Transfers ownership of the contract to a new account (`newOwner`). Can only be called by the current owner."
      }
    },
    "version": 1
  },
  "userdoc": {
    "kind": "user",
    "methods": {
      "constructor": {
        "notice": "XDV Data Token"
      }
    },
    "version": 1
  }
}