{
  "contractName": "XDV",
  "abi": [
    {
      "inputs": [
        {
          "internalType": "string",
          "name": "name",
          "type": "string"
        },
        {
          "internalType": "string",
          "name": "symbol",
          "type": "string"
        }
      ],
      "stateMutability": "nonpayable",
      "type": "constructor"
    },
    {
      "anonymous": false,
      "inputs": [
        {
          "indexed": true,
          "internalType": "address",
          "name": "owner",
          "type": "address"
        },
        {
          "indexed": true,
          "internalType": "address",
          "name": "approved",
          "type": "address"
        },
        {
          "indexed": true,
          "internalType": "uint256",
          "name": "tokenId",
          "type": "uint256"
        }
      ],
      "name": "Approval",
      "type": "event"
    },
    {
      "anonymous": false,
      "inputs": [
        {
          "indexed": true,
          "internalType": "address",
          "name": "owner",
          "type": "address"
        },
        {
          "indexed": true,
          "internalType": "address",
          "name": "operator",
          "type": "address"
        },
        {
          "indexed": false,
          "internalType": "bool",
          "name": "approved",
          "type": "bool"
        }
      ],
      "name": "ApprovalForAll",
      "type": "event"
    },
    {
      "anonymous": false,
      "inputs": [
        {
          "indexed": false,
          "internalType": "address",
          "name": "account",
          "type": "address"
        }
      ],
      "name": "Paused",
      "type": "event"
    },
    {
      "anonymous": false,
      "inputs": [
        {
          "indexed": true,
          "internalType": "address",
          "name": "from",
          "type": "address"
        },
        {
          "indexed": true,
          "internalType": "address",
          "name": "to",
          "type": "address"
        },
        {
          "indexed": true,
          "internalType": "uint256",
          "name": "tokenId",
          "type": "uint256"
        }
      ],
      "name": "Transfer",
      "type": "event"
    },
    {
      "anonymous": false,
      "inputs": [
        {
          "indexed": false,
          "internalType": "address",
          "name": "account",
          "type": "address"
        }
      ],
      "name": "Unpaused",
      "type": "event"
    },
    {
      "inputs": [
        {
          "internalType": "address",
          "name": "to",
          "type": "address"
        },
        {
          "internalType": "uint256",
          "name": "tokenId",
          "type": "uint256"
        }
      ],
      "name": "approve",
      "outputs": [],
      "stateMutability": "nonpayable",
      "type": "function"
    },
    {
      "inputs": [
        {
          "internalType": "address",
          "name": "owner",
          "type": "address"
        }
      ],
      "name": "balanceOf",
      "outputs": [
        {
          "internalType": "uint256",
          "name": "",
          "type": "uint256"
        }
      ],
      "stateMutability": "view",
      "type": "function",
      "constant": true
    },
    {
      "inputs": [],
      "name": "baseURI",
      "outputs": [
        {
          "internalType": "string",
          "name": "",
          "type": "string"
        }
      ],
      "stateMutability": "view",
      "type": "function",
      "constant": true
    },
    {
      "inputs": [
        {
          "internalType": "uint256",
          "name": "tokenId",
          "type": "uint256"
        }
      ],
      "name": "getApproved",
      "outputs": [
        {
          "internalType": "address",
          "name": "",
          "type": "address"
        }
      ],
      "stateMutability": "view",
      "type": "function",
      "constant": true
    },
    {
      "inputs": [
        {
          "internalType": "address",
          "name": "owner",
          "type": "address"
        },
        {
          "internalType": "address",
          "name": "operator",
          "type": "address"
        }
      ],
      "name": "isApprovedForAll",
      "outputs": [
        {
          "internalType": "bool",
          "name": "",
          "type": "bool"
        }
      ],
      "stateMutability": "view",
      "type": "function",
      "constant": true
    },
    {
      "inputs": [],
      "name": "name",
      "outputs": [
        {
          "internalType": "string",
          "name": "",
          "type": "string"
        }
      ],
      "stateMutability": "view",
      "type": "function",
      "constant": true
    },
    {
      "inputs": [],
      "name": "owner",
      "outputs": [
        {
          "internalType": "address",
          "name": "",
          "type": "address"
        }
      ],
      "stateMutability": "view",
      "type": "function",
      "constant": true
    },
    {
      "inputs": [
        {
          "internalType": "uint256",
          "name": "tokenId",
          "type": "uint256"
        }
      ],
      "name": "ownerOf",
      "outputs": [
        {
          "internalType": "address",
          "name": "",
          "type": "address"
        }
      ],
      "stateMutability": "view",
      "type": "function",
      "constant": true
    },
    {
      "inputs": [],
      "name": "paused",
      "outputs": [
        {
          "internalType": "bool",
          "name": "",
          "type": "bool"
        }
      ],
      "stateMutability": "view",
      "type": "function",
      "constant": true
    },
    {
      "inputs": [],
      "name": "platformOwner",
      "outputs": [
        {
          "internalType": "address",
          "name": "",
          "type": "address"
        }
      ],
      "stateMutability": "view",
      "type": "function",
      "constant": true
    },
    {
      "inputs": [
        {
          "internalType": "address",
          "name": "from",
          "type": "address"
        },
        {
          "internalType": "address",
          "name": "to",
          "type": "address"
        },
        {
          "internalType": "uint256",
          "name": "tokenId",
          "type": "uint256"
        }
      ],
      "name": "safeTransferFrom",
      "outputs": [],
      "stateMutability": "nonpayable",
      "type": "function"
    },
    {
      "inputs": [
        {
          "internalType": "address",
          "name": "from",
          "type": "address"
        },
        {
          "internalType": "address",
          "name": "to",
          "type": "address"
        },
        {
          "internalType": "uint256",
          "name": "tokenId",
          "type": "uint256"
        },
        {
          "internalType": "bytes",
          "name": "_data",
          "type": "bytes"
        }
      ],
      "name": "safeTransferFrom",
      "outputs": [],
      "stateMutability": "nonpayable",
      "type": "function"
    },
    {
      "inputs": [
        {
          "internalType": "address",
          "name": "operator",
          "type": "address"
        },
        {
          "internalType": "bool",
          "name": "approved",
          "type": "bool"
        }
      ],
      "name": "setApprovalForAll",
      "outputs": [],
      "stateMutability": "nonpayable",
      "type": "function"
    },
    {
      "inputs": [],
      "name": "stablecoin",
      "outputs": [
        {
          "internalType": "contract ERC20Interface",
          "name": "",
          "type": "address"
        }
      ],
      "stateMutability": "view",
      "type": "function",
      "constant": true
    },
    {
      "inputs": [
        {
          "internalType": "bytes4",
          "name": "interfaceId",
          "type": "bytes4"
        }
      ],
      "name": "supportsInterface",
      "outputs": [
        {
          "internalType": "bool",
          "name": "",
          "type": "bool"
        }
      ],
      "stateMutability": "view",
      "type": "function",
      "constant": true
    },
    {
      "inputs": [],
      "name": "symbol",
      "outputs": [
        {
          "internalType": "string",
          "name": "",
          "type": "string"
        }
      ],
      "stateMutability": "view",
      "type": "function",
      "constant": true
    },
    {
      "inputs": [
        {
          "internalType": "uint256",
          "name": "index",
          "type": "uint256"
        }
      ],
      "name": "tokenByIndex",
      "outputs": [
        {
          "internalType": "uint256",
          "name": "",
          "type": "uint256"
        }
      ],
      "stateMutability": "view",
      "type": "function",
      "constant": true
    },
    {
      "inputs": [
        {
          "internalType": "address",
          "name": "owner",
          "type": "address"
        },
        {
          "internalType": "uint256",
          "name": "index",
          "type": "uint256"
        }
      ],
      "name": "tokenOfOwnerByIndex",
      "outputs": [
        {
          "internalType": "uint256",
          "name": "",
          "type": "uint256"
        }
      ],
      "stateMutability": "view",
      "type": "function",
      "constant": true
    },
    {
      "inputs": [
        {
          "internalType": "uint256",
          "name": "tokenId",
          "type": "uint256"
        }
      ],
      "name": "tokenURI",
      "outputs": [
        {
          "internalType": "string",
          "name": "",
          "type": "string"
        }
      ],
      "stateMutability": "view",
      "type": "function",
      "constant": true
    },
    {
      "inputs": [],
      "name": "totalSupply",
      "outputs": [
        {
          "internalType": "uint256",
          "name": "",
          "type": "uint256"
        }
      ],
      "stateMutability": "view",
      "type": "function",
      "constant": true
    },
    {
      "inputs": [
        {
          "internalType": "address",
          "name": "from",
          "type": "address"
        },
        {
          "internalType": "address",
          "name": "to",
          "type": "address"
        },
        {
          "internalType": "uint256",
          "name": "tokenId",
          "type": "uint256"
        }
      ],
      "name": "transferFrom",
      "outputs": [],
      "stateMutability": "nonpayable",
      "type": "function"
    },
    {
      "inputs": [
        {
          "internalType": "address",
          "name": "",
          "type": "address"
        }
      ],
      "name": "whitelistedMinters",
      "outputs": [
        {
          "internalType": "bool",
          "name": "",
          "type": "bool"
        }
      ],
      "stateMutability": "view",
      "type": "function",
      "constant": true
    },
    {
      "inputs": [
        {
          "internalType": "address",
          "name": "user",
          "type": "address"
        }
      ],
      "name": "setPlatformOwner",
      "outputs": [
        {
          "internalType": "bool",
          "name": "",
          "type": "bool"
        }
      ],
      "stateMutability": "nonpayable",
      "type": "function"
    },
    {
      "inputs": [
        {
          "internalType": "address",
          "name": "user",
          "type": "address"
        }
      ],
      "name": "setWhitelistedMinter",
      "outputs": [
        {
          "internalType": "bool",
          "name": "",
          "type": "bool"
        }
      ],
      "stateMutability": "nonpayable",
      "type": "function"
    },
    {
      "inputs": [
        {
          "internalType": "address",
          "name": "user",
          "type": "address"
        },
        {
          "internalType": "string",
          "name": "tokenURI",
          "type": "string"
        }
      ],
      "name": "mint",
      "outputs": [
        {
          "internalType": "uint256",
          "name": "",
          "type": "uint256"
        }
      ],
      "stateMutability": "nonpayable",
      "type": "function"
    },
    {
      "inputs": [
        {
          "internalType": "uint256",
          "name": "tokenId",
          "type": "uint256"
        }
      ],
      "name": "burn",
      "outputs": [
        {
          "internalType": "bool",
          "name": "",
          "type": "bool"
        }
      ],
      "stateMutability": "nonpayable",
      "type": "function"
    }
  ],
  "bytecode": "0x60806040523480156200001157600080fd5b5060405162003a8f38038062003a8f833981810160405260408110156200003757600080fd5b81019080805160405193929190846401000000008211156200005857600080fd5b838201915060208201858111156200006f57600080fd5b82518660018202830111640100000000821117156200008d57600080fd5b8083526020830192505050908051906020019080838360005b83811015620000c3578082015181840152602081019050620000a6565b50505050905090810190601f168015620000f15780820380516001836020036101000a031916815260200191505b50604052602001805160405193929190846401000000008211156200011557600080fd5b838201915060208201858111156200012c57600080fd5b82518660018202830111640100000000821117156200014a57600080fd5b8083526020830192505050908051906020019080838360005b838110156200018057808201518184015260208101905062000163565b50505050905090810190601f168015620001ae5780820380516001836020036101000a031916815260200191505b506040525050508181620001cf6301ffc9a760e01b620002af60201b60201c565b8160069080519060200190620001e7929190620003b8565b50806007908051906020019062000200929190620003b8565b50620002196380ac58cd60e01b620002af60201b60201c565b62000231635b5e139f60e01b620002af60201b60201c565b6200024963780e9d6360e01b620002af60201b60201c565b50506000600a60006101000a81548160ff02191690831515021790555033600c60006101000a81548173ffffffffffffffffffffffffffffffffffffffff021916908373ffffffffffffffffffffffffffffffffffffffff16021790555050506200046e565b63ffffffff60e01b817bffffffffffffffffffffffffffffffffffffffffffffffffffffffff191614156200034c576040517f08c379a000000000000000000000000000000000000000000000000000000000815260040180806020018281038252601c8152602001807f4552433136353a20696e76616c696420696e746572666163652069640000000081525060200191505060405180910390fd5b6001600080837bffffffffffffffffffffffffffffffffffffffffffffffffffffffff19167bffffffffffffffffffffffffffffffffffffffffffffffffffffffff1916815260200190815260200160002060006101000a81548160ff02191690831515021790555050565b828054600181600116156101000203166002900490600052602060002090601f016020900481019282620003f057600085556200043c565b82601f106200040b57805160ff19168380011785556200043c565b828001600101855582156200043c579182015b828111156200043b5782518255916020019190600101906200041e565b5b5090506200044b91906200044f565b5090565b5b808211156200046a57600081600090555060010162000450565b5090565b613611806200047e6000396000f3fe608060405234801561001057600080fd5b506004361061018e5760003560e01c80636352211e116100de578063a466d6f111610097578063d0def52111610071578063d0def521146109ef578063e985e9c514610ade578063e9cbd82214610b58578063ed1e008514610b8c5761018e565b8063a466d6f1146107e9578063b88d4fde14610843578063c87b56dd146109485761018e565b80636352211e146105af5780636c0360eb1461060757806370a082311461068a5780638da5cb5b146106e257806395d89b4114610716578063a22cb465146107995761018e565b80632f745c591161014b5780634df8ccb1116101255780634df8ccb1146104bf5780634f6ccce7146104f357806354daabc3146105355780635c975abb1461058f5761018e565b80632f745c59146103ab57806342842e0e1461040d57806342966c681461047b5761018e565b806301ffc9a71461019357806306fdde03146101f6578063081812fc14610279578063095ea7b3146102d157806318160ddd1461031f57806323b872dd1461033d575b600080fd5b6101de600480360360208110156101a957600080fd5b8101908080357bffffffffffffffffffffffffffffffffffffffffffffffffffffffff19169060200190929190505050610be6565b60405180821515815260200191505060405180910390f35b6101fe610c4d565b6040518080602001828103825283818151815260200191508051906020019080838360005b8381101561023e578082015181840152602081019050610223565b50505050905090810190601f16801561026b5780820380516001836020036101000a031916815260200191505b509250505060405180910390f35b6102a56004803603602081101561028f57600080fd5b8101908080359060200190929190505050610cef565b604051808273ffffffffffffffffffffffffffffffffffffffff16815260200191505060405180910390f35b61031d600480360360408110156102e757600080fd5b81019080803573ffffffffffffffffffffffffffffffffffffffff16906020019092919080359060200190929190505050610d8a565b005b610327610ece565b6040518082815260200191505060405180910390f35b6103a96004803603606081101561035357600080fd5b81019080803573ffffffffffffffffffffffffffffffffffffffff169060200190929190803573ffffffffffffffffffffffffffffffffffffffff16906020019092919080359060200190929190505050610edf565b005b6103f7600480360360408110156103c157600080fd5b81019080803573ffffffffffffffffffffffffffffffffffffffff16906020019092919080359060200190929190505050610f55565b6040518082815260200191505060405180910390f35b6104796004803603606081101561042357600080fd5b81019080803573ffffffffffffffffffffffffffffffffffffffff169060200190929190803573ffffffffffffffffffffffffffffffffffffffff16906020019092919080359060200190929190505050610fb0565b005b6104a76004803603602081101561049157600080fd5b8101908080359060200190929190505050610fd0565b60405180821515815260200191505060405180910390f35b6104c761108a565b604051808273ffffffffffffffffffffffffffffffffffffffff16815260200191505060405180910390f35b61051f6004803603602081101561050957600080fd5b81019080803590602001909291905050506110b0565b6040518082815260200191505060405180910390f35b6105776004803603602081101561054b57600080fd5b81019080803573ffffffffffffffffffffffffffffffffffffffff1690602001909291905050506110d3565b60405180821515815260200191505060405180910390f35b610597611179565b60405180821515815260200191505060405180910390f35b6105db600480360360208110156105c557600080fd5b8101908080359060200190929190505050611190565b604051808273ffffffffffffffffffffffffffffffffffffffff16815260200191505060405180910390f35b61060f6111c7565b6040518080602001828103825283818151815260200191508051906020019080838360005b8381101561064f578082015181840152602081019050610634565b50505050905090810190601f16801561067c5780820380516001836020036101000a031916815260200191505b509250505060405180910390f35b6106cc600480360360208110156106a057600080fd5b81019080803573ffffffffffffffffffffffffffffffffffffffff169060200190929190505050611269565b6040518082815260200191505060405180910390f35b6106ea61133e565b604051808273ffffffffffffffffffffffffffffffffffffffff16815260200191505060405180910390f35b61071e611364565b6040518080602001828103825283818151815260200191508051906020019080838360005b8381101561075e578082015181840152602081019050610743565b50505050905090810190601f16801561078b5780820380516001836020036101000a031916815260200191505b509250505060405180910390f35b6107e7600480360360408110156107af57600080fd5b81019080803573ffffffffffffffffffffffffffffffffffffffff169060200190929190803515159060200190929190505050611406565b005b61082b600480360360208110156107ff57600080fd5b81019080803573ffffffffffffffffffffffffffffffffffffffff1690602001909291905050506115bc565b60405180821515815260200191505060405180910390f35b6109466004803603608081101561085957600080fd5b81019080803573ffffffffffffffffffffffffffffffffffffffff169060200190929190803573ffffffffffffffffffffffffffffffffffffffff16906020019092919080359060200190929190803590602001906401000000008111156108c057600080fd5b8201836020820111156108d257600080fd5b803590602001918460018302840111640100000000831117156108f457600080fd5b91908080601f016020809104026020016040519081016040528093929190818152602001838380828437600081840152601f19601f820116905080830192505050505050509192919290505050611679565b005b6109746004803603602081101561095e57600080fd5b81019080803590602001909291905050506116f1565b6040518080602001828103825283818151815260200191508051906020019080838360005b838110156109b4578082015181840152602081019050610999565b50505050905090810190601f1680156109e15780820380516001836020036101000a031916815260200191505b509250505060405180910390f35b610ac860048036036040811015610a0557600080fd5b81019080803573ffffffffffffffffffffffffffffffffffffffff16906020019092919080359060200190640100000000811115610a4257600080fd5b820183602082011115610a5457600080fd5b80359060200191846001830284011164010000000083111715610a7657600080fd5b91908080601f016020809104026020016040519081016040528093929190818152602001838380828437600081840152601f19601f8201169050808301925050505050505091929192905050506119da565b6040518082815260200191505060405180910390f35b610b4060048036036040811015610af457600080fd5b81019080803573ffffffffffffffffffffffffffffffffffffffff169060200190929190803573ffffffffffffffffffffffffffffffffffffffff169060200190929190505050611adf565b60405180821515815260200191505060405180910390f35b610b60611b73565b604051808273ffffffffffffffffffffffffffffffffffffffff16815260200191505060405180910390f35b610bce60048036036020811015610ba257600080fd5b81019080803573ffffffffffffffffffffffffffffffffffffffff169060200190929190505050611b99565b60405180821515815260200191505060405180910390f35b6000806000837bffffffffffffffffffffffffffffffffffffffffffffffffffffffff19167bffffffffffffffffffffffffffffffffffffffffffffffffffffffff1916815260200190815260200160002060009054906101000a900460ff169050919050565b606060068054600181600116156101000203166002900480601f016020809104026020016040519081016040528092919081815260200182805460018160011615610100020316600290048015610ce55780601f10610cba57610100808354040283529160200191610ce5565b820191906000526020600020905b815481529060010190602001808311610cc857829003601f168201915b5050505050905090565b6000610cfa82611bb9565b610d4f576040517f08c379a000000000000000000000000000000000000000000000000000000000815260040180806020018281038252602c8152602001806134da602c913960400191505060405180910390fd5b6004600083815260200190815260200160002060009054906101000a900473ffffffffffffffffffffffffffffffffffffffff169050919050565b6000610d9582611190565b90508073ffffffffffffffffffffffffffffffffffffffff168373ffffffffffffffffffffffffffffffffffffffff161415610e1c576040517f08c379a000000000000000000000000000000000000000000000000000000000815260040180806020018281038252602181526020018061358a6021913960400191505060405180910390fd5b8073ffffffffffffffffffffffffffffffffffffffff16610e3b611bd6565b73ffffffffffffffffffffffffffffffffffffffff161480610e6a5750610e6981610e64611bd6565b611adf565b5b610ebf576040517f08c379a00000000000000000000000000000000000000000000000000000000081526004018080602001828103825260388152602001806134096038913960400191505060405180910390fd5b610ec98383611bde565b505050565b6000610eda6002611c97565b905090565b610ef0610eea611bd6565b82611cac565b610f45576040517f08c379a00000000000000000000000000000000000000000000000000000000081526004018080602001828103825260318152602001806135ab6031913960400191505060405180910390fd5b610f50838383611da0565b505050565b6000610fa882600160008673ffffffffffffffffffffffffffffffffffffffff1673ffffffffffffffffffffffffffffffffffffffff168152602001908152602001600020611fe390919063ffffffff16565b905092915050565b610fcb83838360405180602001604052806000815250611679565b505050565b6000600f60009054906101000a900473ffffffffffffffffffffffffffffffffffffffff1673ffffffffffffffffffffffffffffffffffffffff163373ffffffffffffffffffffffffffffffffffffffff1614611078576040517f08c379a00000000000000000000000000000000000000000000000000000000081526004018080602001828103825260248152602001806134b66024913960400191505060405180910390fd5b61108182611ffd565b60019050919050565b600f60009054906101000a900473ffffffffffffffffffffffffffffffffffffffff1681565b6000806110c783600261213790919063ffffffff16565b50905080915050919050565b6000600c60009054906101000a900473ffffffffffffffffffffffffffffffffffffffff1673ffffffffffffffffffffffffffffffffffffffff163373ffffffffffffffffffffffffffffffffffffffff161461112f57600080fd5b81600f60006101000a81548173ffffffffffffffffffffffffffffffffffffffff021916908373ffffffffffffffffffffffffffffffffffffffff16021790555060019050919050565b6000600a60009054906101000a900460ff16905090565b60006111c08260405180606001604052806029815260200161346b6029913960026121639092919063ffffffff16565b9050919050565b606060098054600181600116156101000203166002900480601f01602080910402602001604051908101604052809291908181526020018280546001816001161561010002031660029004801561125f5780601f106112345761010080835404028352916020019161125f565b820191906000526020600020905b81548152906001019060200180831161124257829003601f168201915b5050505050905090565b60008073ffffffffffffffffffffffffffffffffffffffff168273ffffffffffffffffffffffffffffffffffffffff1614156112f0576040517f08c379a000000000000000000000000000000000000000000000000000000000815260040180806020018281038252602a815260200180613441602a913960400191505060405180910390fd5b611337600160008473ffffffffffffffffffffffffffffffffffffffff1673ffffffffffffffffffffffffffffffffffffffff168152602001908152602001600020612182565b9050919050565b600c60009054906101000a900473ffffffffffffffffffffffffffffffffffffffff1681565b606060078054600181600116156101000203166002900480601f0160208091040260200160405190810160405280929190818152602001828054600181600116156101000203166002900480156113fc5780601f106113d1576101008083540402835291602001916113fc565b820191906000526020600020905b8154815290600101906020018083116113df57829003601f168201915b5050505050905090565b61140e611bd6565b73ffffffffffffffffffffffffffffffffffffffff168273ffffffffffffffffffffffffffffffffffffffff1614156114af576040517f08c379a00000000000000000000000000000000000000000000000000000000081526004018080602001828103825260198152602001807f4552433732313a20617070726f766520746f2063616c6c65720000000000000081525060200191505060405180910390fd5b80600560006114bc611bd6565b73ffffffffffffffffffffffffffffffffffffffff1673ffffffffffffffffffffffffffffffffffffffff16815260200190815260200160002060008473ffffffffffffffffffffffffffffffffffffffff1673ffffffffffffffffffffffffffffffffffffffff16815260200190815260200160002060006101000a81548160ff0219169083151502179055508173ffffffffffffffffffffffffffffffffffffffff16611569611bd6565b73ffffffffffffffffffffffffffffffffffffffff167f17307eab39ab6107e8899845ad3d59bd9653f200f220920489ca2b5937696c318360405180821515815260200191505060405180910390a35050565b6000600c60009054906101000a900473ffffffffffffffffffffffffffffffffffffffff1673ffffffffffffffffffffffffffffffffffffffff163373ffffffffffffffffffffffffffffffffffffffff161461161857600080fd5b6001600e60008473ffffffffffffffffffffffffffffffffffffffff1673ffffffffffffffffffffffffffffffffffffffff16815260200190815260200160002060006101000a81548160ff02191690831515021790555060019050919050565b61168a611684611bd6565b83611cac565b6116df576040517f08c379a00000000000000000000000000000000000000000000000000000000081526004018080602001828103825260318152602001806135ab6031913960400191505060405180910390fd5b6116eb84848484612197565b50505050565b60606116fc82611bb9565b611751576040517f08c379a000000000000000000000000000000000000000000000000000000000815260040180806020018281038252602f81526020018061355b602f913960400191505060405180910390fd5b6000600860008481526020019081526020016000208054600181600116156101000203166002900480601f0160208091040260200160405190810160405280929190818152602001828054600181600116156101000203166002900480156117fa5780601f106117cf576101008083540402835291602001916117fa565b820191906000526020600020905b8154815290600101906020018083116117dd57829003601f168201915b5050505050905060006009805460018160011615610100020316600290049050141561182957809150506119d5565b6000815111156119025760098160405160200180838054600181600116156101000203166002900480156118945780601f10611872576101008083540402835291820191611894565b820191906000526020600020905b815481529060010190602001808311611880575b505082805190602001908083835b602083106118c557805182526020820191506020810190506020830392506118a2565b6001836020036101000a038019825116818451168082178552505050505050905001925050506040516020818303038152906040529150506119d5565b600961190d84612209565b604051602001808380546001816001161561010002031660029004801561196b5780601f1061194957610100808354040283529182019161196b565b820191906000526020600020905b815481529060010190602001808311611957575b505082805190602001908083835b6020831061199c5780518252602082019150602081019050602083039250611979565b6001836020036101000a038019825116818451168082178552505050505050905001925050506040516020818303038152906040529150505b919050565b6000600e60003373ffffffffffffffffffffffffffffffffffffffff1673ffffffffffffffffffffffffffffffffffffffff16815260200190815260200160002060009054906101000a900460ff16611a9b576040517f08c379a000000000000000000000000000000000000000000000000000000000815260040180806020018281038252601d8152602001807f5573657220686173206e6f74206265656e2077686974656c697374656400000081525060200191505060405180910390fd5b611aa5600b612350565b6000611ab1600b612366565b9050611abd8482612374565b611ac78184612392565b600f60009054906101000a9050508091505092915050565b6000600560008473ffffffffffffffffffffffffffffffffffffffff1673ffffffffffffffffffffffffffffffffffffffff16815260200190815260200160002060008373ffffffffffffffffffffffffffffffffffffffff1673ffffffffffffffffffffffffffffffffffffffff16815260200190815260200160002060009054906101000a900460ff16905092915050565b600d60009054906101000a900473ffffffffffffffffffffffffffffffffffffffff1681565b600e6020528060005260406000206000915054906101000a900460ff1681565b6000611bcf82600261241c90919063ffffffff16565b9050919050565b600033905090565b816004600083815260200190815260200160002060006101000a81548173ffffffffffffffffffffffffffffffffffffffff021916908373ffffffffffffffffffffffffffffffffffffffff160217905550808273ffffffffffffffffffffffffffffffffffffffff16611c5183611190565b73ffffffffffffffffffffffffffffffffffffffff167f8c5be1e5ebec7d5bd14f71427d1e84f3dd0314c0f7b2291e5b200ac8c7c3b92560405160405180910390a45050565b6000611ca582600001612436565b9050919050565b6000611cb782611bb9565b611d0c576040517f08c379a000000000000000000000000000000000000000000000000000000000815260040180806020018281038252602c8152602001806133dd602c913960400191505060405180910390fd5b6000611d1783611190565b90508073ffffffffffffffffffffffffffffffffffffffff168473ffffffffffffffffffffffffffffffffffffffff161480611d8657508373ffffffffffffffffffffffffffffffffffffffff16611d6e84610cef565b73ffffffffffffffffffffffffffffffffffffffff16145b80611d975750611d968185611adf565b5b91505092915050565b8273ffffffffffffffffffffffffffffffffffffffff16611dc082611190565b73ffffffffffffffffffffffffffffffffffffffff1614611e2c576040517f08c379a00000000000000000000000000000000000000000000000000000000081526004018080602001828103825260298152602001806135326029913960400191505060405180910390fd5b600073ffffffffffffffffffffffffffffffffffffffff168273ffffffffffffffffffffffffffffffffffffffff161415611eb2576040517f08c379a00000000000000000000000000000000000000000000000000000000081526004018080602001828103825260248152602001806133936024913960400191505060405180910390fd5b611ebd838383612447565b611ec8600082611bde565b611f1981600160008673ffffffffffffffffffffffffffffffffffffffff1673ffffffffffffffffffffffffffffffffffffffff16815260200190815260200160002061245790919063ffffffff16565b50611f6b81600160008573ffffffffffffffffffffffffffffffffffffffff1673ffffffffffffffffffffffffffffffffffffffff16815260200190815260200160002061247190919063ffffffff16565b50611f828183600261248b9092919063ffffffff16565b50808273ffffffffffffffffffffffffffffffffffffffff168473ffffffffffffffffffffffffffffffffffffffff167fddf252ad1be2c89b69c2b068fc378daa952ba7f163c4a11628f55a4df523b3ef60405160405180910390a4505050565b6000611ff283600001836124c0565b60001c905092915050565b600061200882611190565b905061201681600084612447565b612021600083611bde565b600060086000848152602001908152602001600020805460018160011615610100020316600290049050146120705760086000838152602001908152602001600020600061206f9190613220565b5b6120c182600160008473ffffffffffffffffffffffffffffffffffffffff1673ffffffffffffffffffffffffffffffffffffffff16815260200190815260200160002061245790919063ffffffff16565b506120d682600261254390919063ffffffff16565b5081600073ffffffffffffffffffffffffffffffffffffffff168273ffffffffffffffffffffffffffffffffffffffff167fddf252ad1be2c89b69c2b068fc378daa952ba7f163c4a11628f55a4df523b3ef60405160405180910390a45050565b60008060008061214a866000018661255d565b915091508160001c8160001c9350935050509250929050565b6000612176846000018460001b846125f6565b60001c90509392505050565b6000612190826000016126ec565b9050919050565b6121a2848484611da0565b6121ae848484846126fd565b612203576040517f08c379a00000000000000000000000000000000000000000000000000000000081526004018080602001828103825260328152602001806133616032913960400191505060405180910390fd5b50505050565b60606000821415612251576040518060400160405280600181526020017f3000000000000000000000000000000000000000000000000000000000000000815250905061234b565b600082905060005b6000821461227b578080600101915050600a828161227357fe5b049150612259565b60008167ffffffffffffffff8111801561229457600080fd5b506040519080825280601f01601f1916602001820160405280156122c75781602001600182028036833780820191505090505b50905060006001830390508593505b6000841461234357600a84816122e857fe5b0660300160f81b8282806001900393508151811061230257fe5b60200101907effffffffffffffffffffffffffffffffffffffffffffffffffffffffffffff1916908160001a905350600a848161233b57fe5b0493506122d6565b819450505050505b919050565b6001816000016000828254019250508190555050565b600081600001549050919050565b61238e828260405180602001604052806000815250612916565b5050565b61239b82611bb9565b6123f0576040517f08c379a000000000000000000000000000000000000000000000000000000000815260040180806020018281038252602c815260200180613506602c913960400191505060405180910390fd5b80600860008481526020019081526020016000209080519060200190612417929190613268565b505050565b600061242e836000018360001b612987565b905092915050565b600081600001805490509050919050565b6124528383836129aa565b505050565b6000612469836000018360001b612a18565b905092915050565b6000612483836000018360001b612b00565b905092915050565b60006124b7846000018460001b8473ffffffffffffffffffffffffffffffffffffffff1660001b612b70565b90509392505050565b600081836000018054905011612521576040517f08c379a00000000000000000000000000000000000000000000000000000000081526004018080602001828103825260228152602001806133146022913960400191505060405180910390fd5b82600001828154811061253057fe5b9060005260206000200154905092915050565b6000612555836000018360001b612c4c565b905092915050565b600080828460000180549050116125bf576040517f08c379a00000000000000000000000000000000000000000000000000000000081526004018080602001828103825260228152602001806134946022913960400191505060405180910390fd5b60008460000184815481106125d057fe5b906000526020600020906002020190508060000154816001015492509250509250929050565b600080846001016000858152602001908152602001600020549050600081141583906126bd576040517f08c379a00000000000000000000000000000000000000000000000000000000081526004018080602001828103825283818151815260200191508051906020019080838360005b83811015612682578082015181840152602081019050612667565b50505050905090810190601f1680156126af5780820380516001836020036101000a031916815260200191505b509250505060405180910390fd5b508460000160018203815481106126d057fe5b9060005260206000209060020201600101549150509392505050565b600081600001805490509050919050565b600061271e8473ffffffffffffffffffffffffffffffffffffffff16612d65565b61272b576001905061290e565b600061289563150b7a0260e01b612740611bd6565b888787604051602401808573ffffffffffffffffffffffffffffffffffffffff1681526020018473ffffffffffffffffffffffffffffffffffffffff16815260200183815260200180602001828103825283818151815260200191508051906020019080838360005b838110156127c45780820151818401526020810190506127a9565b50505050905090810190601f1680156127f15780820380516001836020036101000a031916815260200191505b5095505050505050604051602081830303815290604052907bffffffffffffffffffffffffffffffffffffffffffffffffffffffff19166020820180517bffffffffffffffffffffffffffffffffffffffffffffffffffffffff8381831617835250505050604051806060016040528060328152602001613361603291398773ffffffffffffffffffffffffffffffffffffffff16612d789092919063ffffffff16565b905060008180602001905160208110156128ae57600080fd5b8101908080519060200190929190505050905063150b7a0260e01b7bffffffffffffffffffffffffffffffffffffffffffffffffffffffff1916817bffffffffffffffffffffffffffffffffffffffffffffffffffffffff191614925050505b949350505050565b6129208383612d90565b61292d60008484846126fd565b612982576040517f08c379a00000000000000000000000000000000000000000000000000000000081526004018080602001828103825260328152602001806133616032913960400191505060405180910390fd5b505050565b600080836001016000848152602001908152602001600020541415905092915050565b6129b5838383612f84565b6129bd611179565b15612a13576040517f08c379a000000000000000000000000000000000000000000000000000000000815260040180806020018281038252602b815260200180613336602b913960400191505060405180910390fd5b505050565b60008083600101600084815260200190815260200160002054905060008114612af45760006001820390506000600186600001805490500390506000866000018281548110612a6357fe5b9060005260206000200154905080876000018481548110612a8057fe5b9060005260206000200181905550600183018760010160008381526020019081526020016000208190555086600001805480612ab857fe5b60019003818190600052602060002001600090559055866001016000878152602001908152602001600020600090556001945050505050612afa565b60009150505b92915050565b6000612b0c8383612f89565b612b65578260000182908060018154018082558091505060019003906000526020600020016000909190919091505582600001805490508360010160008481526020019081526020016000208190555060019050612b6a565b600090505b92915050565b6000808460010160008581526020019081526020016000205490506000811415612c1757846000016040518060400160405280868152602001858152509080600181540180825580915050600190039060005260206000209060020201600090919091909150600082015181600001556020820151816001015550508460000180549050856001016000868152602001908152602001600020819055506001915050612c45565b82856000016001830381548110612c2a57fe5b90600052602060002090600202016001018190555060009150505b9392505050565b60008083600101600084815260200190815260200160002054905060008114612d595760006001820390506000600186600001805490500390506000866000018281548110612c9757fe5b9060005260206000209060020201905080876000018481548110612cb757fe5b9060005260206000209060020201600082015481600001556001820154816001015590505060018301876001016000836000015481526020019081526020016000208190555086600001805480612d0a57fe5b6001900381819060005260206000209060020201600080820160009055600182016000905550509055866001016000878152602001908152602001600020600090556001945050505050612d5f565b60009150505b92915050565b600080823b905060008111915050919050565b6060612d878484600085612fac565b90509392505050565b600073ffffffffffffffffffffffffffffffffffffffff168273ffffffffffffffffffffffffffffffffffffffff161415612e33576040517f08c379a00000000000000000000000000000000000000000000000000000000081526004018080602001828103825260208152602001807f4552433732313a206d696e7420746f20746865207a65726f206164647265737381525060200191505060405180910390fd5b612e3c81611bb9565b15612eaf576040517f08c379a000000000000000000000000000000000000000000000000000000000815260040180806020018281038252601c8152602001807f4552433732313a20746f6b656e20616c7265616479206d696e7465640000000081525060200191505060405180910390fd5b612ebb60008383612447565b612f0c81600160008573ffffffffffffffffffffffffffffffffffffffff1673ffffffffffffffffffffffffffffffffffffffff16815260200190815260200160002061247190919063ffffffff16565b50612f238183600261248b9092919063ffffffff16565b50808273ffffffffffffffffffffffffffffffffffffffff16600073ffffffffffffffffffffffffffffffffffffffff167fddf252ad1be2c89b69c2b068fc378daa952ba7f163c4a11628f55a4df523b3ef60405160405180910390a45050565b505050565b600080836001016000848152602001908152602001600020541415905092915050565b606082471015613007576040517f08c379a00000000000000000000000000000000000000000000000000000000081526004018080602001828103825260268152602001806133b76026913960400191505060405180910390fd5b61301085612d65565b613082576040517f08c379a000000000000000000000000000000000000000000000000000000000815260040180806020018281038252601d8152602001807f416464726573733a2063616c6c20746f206e6f6e2d636f6e747261637400000081525060200191505060405180910390fd5b6000808673ffffffffffffffffffffffffffffffffffffffff1685876040518082805190602001908083835b602083106130d157805182526020820191506020810190506020830392506130ae565b6001836020036101000a03801982511681845116808217855250505050505090500191505060006040518083038185875af1925050503d8060008114613133576040519150601f19603f3d011682016040523d82523d6000602084013e613138565b606091505b5091509150613148828286613154565b92505050949350505050565b6060831561316457829050613219565b6000835111156131775782518084602001fd5b816040517f08c379a00000000000000000000000000000000000000000000000000000000081526004018080602001828103825283818151815260200191508051906020019080838360005b838110156131de5780820151818401526020810190506131c3565b50505050905090810190601f16801561320b5780820380516001836020036101000a031916815260200191505b509250505060405180910390fd5b9392505050565b50805460018160011615610100020316600290046000825580601f106132465750613265565b601f01602090049060005260206000209081019061326491906132f6565b5b50565b828054600181600116156101000203166002900490600052602060002090601f01602090048101928261329e57600085556132e5565b82601f106132b757805160ff19168380011785556132e5565b828001600101855582156132e5579182015b828111156132e45782518255916020019190600101906132c9565b5b5090506132f291906132f6565b5090565b5b8082111561330f5760008160009055506001016132f7565b509056fe456e756d657261626c655365743a20696e646578206f7574206f6620626f756e64734552433732315061757361626c653a20746f6b656e207472616e73666572207768696c65207061757365644552433732313a207472616e7366657220746f206e6f6e20455243373231526563656976657220696d706c656d656e7465724552433732313a207472616e7366657220746f20746865207a65726f2061646472657373416464726573733a20696e73756666696369656e742062616c616e636520666f722063616c6c4552433732313a206f70657261746f7220717565727920666f72206e6f6e6578697374656e7420746f6b656e4552433732313a20617070726f76652063616c6c6572206973206e6f74206f776e6572206e6f7220617070726f76656420666f7220616c6c4552433732313a2062616c616e636520717565727920666f7220746865207a65726f20616464726573734552433732313a206f776e657220717565727920666f72206e6f6e6578697374656e7420746f6b656e456e756d657261626c654d61703a20696e646578206f7574206f6620626f756e64734275726e206f6e6c7920616c6c6f7765642076696120706c6174666f726d206f776e65724552433732313a20617070726f76656420717565727920666f72206e6f6e6578697374656e7420746f6b656e4552433732314d657461646174613a2055524920736574206f66206e6f6e6578697374656e7420746f6b656e4552433732313a207472616e73666572206f6620746f6b656e2074686174206973206e6f74206f776e4552433732314d657461646174613a2055524920717565727920666f72206e6f6e6578697374656e7420746f6b656e4552433732313a20617070726f76616c20746f2063757272656e74206f776e65724552433732313a207472616e736665722063616c6c6572206973206e6f74206f776e6572206e6f7220617070726f766564a264697066735822122067f505ad0972b2edd4407e1da70aa601d90ae3406d15d1dce310b2632e54ff5964736f6c63430007060033",
  "immutableReferences": {},
  "source": "pragma solidity ^0.7.0;\nimport \"@openzeppelin/contracts/token/ERC721/ERC721Pausable.sol\";\nimport \"@openzeppelin/contracts/utils/Counters.sol\";\nimport \"./ERC20Interface.sol\";\n\ncontract XDV is ERC721Pausable {\n    using Counters for Counters.Counter;\n    using SafeMath for uint256;\n    Counters.Counter private _tokenIds;\n    address public owner;\n    ERC20Interface public stablecoin;\n    mapping(address => bool) public whitelistedMinters;\n    address public platformOwner;\n\n    /**\n     * XDV Data Token\n     */\n    constructor(string memory name, string memory symbol)\n        public\n        ERC721(name, symbol)\n    {\n        owner = msg.sender;\n    }\n\n    function setPlatformOwner(address user)\n        public\n        returns (bool)\n    {\n        require(msg.sender == owner);\n\n        platformOwner = user;\n\n        return true;\n    }\n    function setWhitelistedMinter(address user)\n        public\n        returns (bool)\n    {\n        require(msg.sender == owner);\n        whitelistedMinters[user] = true;\n\n        return true;\n    }\n\n    /**\n     * @dev Mints a XDV Data Token if whitelisted\n     */\n    function mint(address user, string memory tokenURI)\n        public\n        returns (uint256)\n    {\n        require(\n            whitelistedMinters[msg.sender],\n            \"User has not been whitelisted\"\n        );\n        _tokenIds.increment();\n\n        uint256 newItemId = _tokenIds.current();\n        _safeMint(user, newItemId);\n        _setTokenURI(newItemId, tokenURI);\n\n        // minted, remove user\n        if (msg.sender != platformOwner) {\n            // whitelistedMinters[msg.sender] = false;\n        }\n\n        return newItemId;\n    }\n\n    function burn(uint256 tokenId) public returns (bool) {\n        require(\n            msg.sender == platformOwner,\n            \"Burn only allowed via platform owner\"\n        );\n\n        _burn(tokenId);\n        return true;\n    }\n\n    function _beforeTokenTransfer(\n        address from,\n        address to,\n        uint256 amount\n    ) internal virtual override {\n        super._beforeTokenTransfer(from, to, amount);\n\n        //        require(_validRecipient(to), \"ERC20WithSafeTransfer: invalid recipient\");\n    }\n}\n",
  "sourcePath": "/home/rogelio/Code/xdv/nft-document-swap/contracts/XDV.sol",
  "compiler": {
    "name": "solc",
    "version": "0.7.6+commit.7338295f.Emscripten.clang"
  },
  "schemaVersion": "3.3.3",
  "updatedAt": "2021-02-23T21:23:29.916Z",
  "networkType": "ethereum",
  "devdoc": {
    "kind": "dev",
    "methods": {
      "approve(address,uint256)": {
        "details": "See {IERC721-approve}."
      },
      "balanceOf(address)": {
        "details": "See {IERC721-balanceOf}."
      },
      "baseURI()": {
        "details": "Returns the base URI set via {_setBaseURI}. This will be automatically added as a prefix in {tokenURI} to each token's URI, or to the token ID if no specific URI is set for that token ID."
      },
      "getApproved(uint256)": {
        "details": "See {IERC721-getApproved}."
      },
      "isApprovedForAll(address,address)": {
        "details": "See {IERC721-isApprovedForAll}."
      },
      "mint(address,string)": {
        "details": "Mints a XDV Data Token if whitelisted"
      },
      "name()": {
        "details": "See {IERC721Metadata-name}."
      },
      "ownerOf(uint256)": {
        "details": "See {IERC721-ownerOf}."
      },
      "paused()": {
        "details": "Returns true if the contract is paused, and false otherwise."
      },
      "safeTransferFrom(address,address,uint256)": {
        "details": "See {IERC721-safeTransferFrom}."
      },
      "safeTransferFrom(address,address,uint256,bytes)": {
        "details": "See {IERC721-safeTransferFrom}."
      },
      "setApprovalForAll(address,bool)": {
        "details": "See {IERC721-setApprovalForAll}."
      },
      "supportsInterface(bytes4)": {
        "details": "See {IERC165-supportsInterface}. Time complexity O(1), guaranteed to always use less than 30 000 gas."
      },
      "symbol()": {
        "details": "See {IERC721Metadata-symbol}."
      },
      "tokenByIndex(uint256)": {
        "details": "See {IERC721Enumerable-tokenByIndex}."
      },
      "tokenOfOwnerByIndex(address,uint256)": {
        "details": "See {IERC721Enumerable-tokenOfOwnerByIndex}."
      },
      "tokenURI(uint256)": {
        "details": "See {IERC721Metadata-tokenURI}."
      },
      "totalSupply()": {
        "details": "See {IERC721Enumerable-totalSupply}."
      },
      "transferFrom(address,address,uint256)": {
        "details": "See {IERC721-transferFrom}."
      }
    },
    "version": 1
  },
  "userdoc": {
    "kind": "user",
    "methods": {
      "constructor": {
        "notice": "XDV Data Token"
      }
    },
    "version": 1
  }
}