{
  "contractName": "XDV",
  "abi": [
    {
      "inputs": [
        {
          "internalType": "string",
          "name": "name",
          "type": "string"
        },
        {
          "internalType": "string",
          "name": "symbol",
          "type": "string"
        },
        {
          "internalType": "address",
          "name": "tokenERC20",
          "type": "address"
        },
        {
          "internalType": "address",
          "name": "newPaymentAddress",
          "type": "address"
        }
      ],
      "stateMutability": "nonpayable",
      "type": "constructor"
    },
    {
      "anonymous": false,
      "inputs": [
        {
          "indexed": true,
          "internalType": "address",
          "name": "owner",
          "type": "address"
        },
        {
          "indexed": true,
          "internalType": "address",
          "name": "approved",
          "type": "address"
        },
        {
          "indexed": true,
          "internalType": "uint256",
          "name": "tokenId",
          "type": "uint256"
        }
      ],
      "name": "Approval",
      "type": "event"
    },
    {
      "anonymous": false,
      "inputs": [
        {
          "indexed": true,
          "internalType": "address",
          "name": "owner",
          "type": "address"
        },
        {
          "indexed": true,
          "internalType": "address",
          "name": "operator",
          "type": "address"
        },
        {
          "indexed": false,
          "internalType": "bool",
          "name": "approved",
          "type": "bool"
        }
      ],
      "name": "ApprovalForAll",
      "type": "event"
    },
    {
      "anonymous": false,
      "inputs": [
        {
          "indexed": true,
          "internalType": "address",
          "name": "previousOwner",
          "type": "address"
        },
        {
          "indexed": true,
          "internalType": "address",
          "name": "newOwner",
          "type": "address"
        }
      ],
      "name": "OwnershipTransferred",
      "type": "event"
    },
    {
      "anonymous": false,
      "inputs": [
        {
          "indexed": false,
          "internalType": "address",
          "name": "account",
          "type": "address"
        }
      ],
      "name": "Paused",
      "type": "event"
    },
    {
      "anonymous": false,
      "inputs": [
        {
          "indexed": true,
          "internalType": "address",
          "name": "from",
          "type": "address"
        },
        {
          "indexed": true,
          "internalType": "address",
          "name": "paymentAddress",
          "type": "address"
        },
        {
          "indexed": false,
          "internalType": "uint256",
          "name": "paidToContract",
          "type": "uint256"
        },
        {
          "indexed": false,
          "internalType": "uint256",
          "name": "paidToPaymentAddress",
          "type": "uint256"
        }
      ],
      "name": "ServiceFeePaid",
      "type": "event"
    },
    {
      "anonymous": false,
      "inputs": [
        {
          "indexed": true,
          "internalType": "address",
          "name": "from",
          "type": "address"
        },
        {
          "indexed": true,
          "internalType": "address",
          "name": "to",
          "type": "address"
        },
        {
          "indexed": true,
          "internalType": "uint256",
          "name": "tokenId",
          "type": "uint256"
        }
      ],
      "name": "Transfer",
      "type": "event"
    },
    {
      "anonymous": false,
      "inputs": [
        {
          "indexed": false,
          "internalType": "address",
          "name": "account",
          "type": "address"
        }
      ],
      "name": "Unpaused",
      "type": "event"
    },
    {
      "inputs": [
        {
          "internalType": "address",
          "name": "to",
          "type": "address"
        },
        {
          "internalType": "uint256",
          "name": "tokenId",
          "type": "uint256"
        }
      ],
      "name": "approve",
      "outputs": [],
      "stateMutability": "nonpayable",
      "type": "function"
    },
    {
      "inputs": [
        {
          "internalType": "address",
          "name": "owner",
          "type": "address"
        }
      ],
      "name": "balanceOf",
      "outputs": [
        {
          "internalType": "uint256",
          "name": "",
          "type": "uint256"
        }
      ],
      "stateMutability": "view",
      "type": "function"
    },
    {
      "inputs": [
        {
          "internalType": "uint256",
          "name": "tokenId",
          "type": "uint256"
        }
      ],
      "name": "getApproved",
      "outputs": [
        {
          "internalType": "address",
          "name": "",
          "type": "address"
        }
      ],
      "stateMutability": "view",
      "type": "function"
    },
    {
      "inputs": [
        {
          "internalType": "address",
          "name": "owner",
          "type": "address"
        },
        {
          "internalType": "address",
          "name": "operator",
          "type": "address"
        }
      ],
      "name": "isApprovedForAll",
      "outputs": [
        {
          "internalType": "bool",
          "name": "",
          "type": "bool"
        }
      ],
      "stateMutability": "view",
      "type": "function"
    },
    {
      "inputs": [],
      "name": "name",
      "outputs": [
        {
          "internalType": "string",
          "name": "",
          "type": "string"
        }
      ],
      "stateMutability": "view",
      "type": "function"
    },
    {
      "inputs": [],
      "name": "owner",
      "outputs": [
        {
          "internalType": "address",
          "name": "",
          "type": "address"
        }
      ],
      "stateMutability": "view",
      "type": "function"
    },
    {
      "inputs": [
        {
          "internalType": "uint256",
          "name": "tokenId",
          "type": "uint256"
        }
      ],
      "name": "ownerOf",
      "outputs": [
        {
          "internalType": "address",
          "name": "",
          "type": "address"
        }
      ],
      "stateMutability": "view",
      "type": "function"
    },
    {
      "inputs": [],
      "name": "paused",
      "outputs": [
        {
          "internalType": "bool",
          "name": "",
          "type": "bool"
        }
      ],
      "stateMutability": "view",
      "type": "function"
    },
    {
      "inputs": [],
      "name": "paymentAddress",
      "outputs": [
        {
          "internalType": "address",
          "name": "",
          "type": "address"
        }
      ],
      "stateMutability": "view",
      "type": "function"
    },
    {
      "inputs": [],
      "name": "renounceOwnership",
      "outputs": [],
      "stateMutability": "nonpayable",
      "type": "function"
    },
    {
      "inputs": [
        {
          "internalType": "address",
          "name": "from",
          "type": "address"
        },
        {
          "internalType": "address",
          "name": "to",
          "type": "address"
        },
        {
          "internalType": "uint256",
          "name": "tokenId",
          "type": "uint256"
        }
      ],
      "name": "safeTransferFrom",
      "outputs": [],
      "stateMutability": "nonpayable",
      "type": "function"
    },
    {
      "inputs": [
        {
          "internalType": "address",
          "name": "from",
          "type": "address"
        },
        {
          "internalType": "address",
          "name": "to",
          "type": "address"
        },
        {
          "internalType": "uint256",
          "name": "tokenId",
          "type": "uint256"
        },
        {
          "internalType": "bytes",
          "name": "_data",
          "type": "bytes"
        }
      ],
      "name": "safeTransferFrom",
      "outputs": [],
      "stateMutability": "nonpayable",
      "type": "function"
    },
    {
      "inputs": [],
      "name": "serviceFeeForContract",
      "outputs": [
        {
          "internalType": "uint256",
          "name": "",
          "type": "uint256"
        }
      ],
      "stateMutability": "view",
      "type": "function"
    },
    {
      "inputs": [],
      "name": "serviceFeeForPaymentAddress",
      "outputs": [
        {
          "internalType": "uint256",
          "name": "",
          "type": "uint256"
        }
      ],
      "stateMutability": "view",
      "type": "function"
    },
    {
      "inputs": [
        {
          "internalType": "address",
          "name": "operator",
          "type": "address"
        },
        {
          "internalType": "bool",
          "name": "approved",
          "type": "bool"
        }
      ],
      "name": "setApprovalForAll",
      "outputs": [],
      "stateMutability": "nonpayable",
      "type": "function"
    },
    {
      "inputs": [],
      "name": "stablecoin",
      "outputs": [
        {
          "internalType": "contract ERC20Interface",
          "name": "",
          "type": "address"
        }
      ],
      "stateMutability": "view",
      "type": "function"
    },
    {
      "inputs": [
        {
          "internalType": "bytes4",
          "name": "interfaceId",
          "type": "bytes4"
        }
      ],
      "name": "supportsInterface",
      "outputs": [
        {
          "internalType": "bool",
          "name": "",
          "type": "bool"
        }
      ],
      "stateMutability": "view",
      "type": "function"
    },
    {
      "inputs": [],
      "name": "symbol",
      "outputs": [
        {
          "internalType": "string",
          "name": "",
          "type": "string"
        }
      ],
      "stateMutability": "view",
      "type": "function"
    },
    {
      "inputs": [
        {
          "internalType": "address",
          "name": "from",
          "type": "address"
        },
        {
          "internalType": "address",
          "name": "to",
          "type": "address"
        },
        {
          "internalType": "uint256",
          "name": "tokenId",
          "type": "uint256"
        }
      ],
      "name": "transferFrom",
      "outputs": [],
      "stateMutability": "nonpayable",
      "type": "function"
    },
    {
      "inputs": [
        {
          "internalType": "address",
          "name": "newOwner",
          "type": "address"
        }
      ],
      "name": "transferOwnership",
      "outputs": [],
      "stateMutability": "nonpayable",
      "type": "function"
    },
    {
      "inputs": [
        {
          "internalType": "uint256",
          "name": "_fee",
          "type": "uint256"
        }
      ],
      "name": "setServiceFeeForPaymentAddress",
      "outputs": [],
      "stateMutability": "nonpayable",
      "type": "function"
    },
    {
      "inputs": [
        {
          "internalType": "uint256",
          "name": "_fee",
          "type": "uint256"
        }
      ],
      "name": "setServiceFeeForContract",
      "outputs": [],
      "stateMutability": "nonpayable",
      "type": "function"
    },
    {
      "inputs": [
        {
          "internalType": "address",
          "name": "newAddress",
          "type": "address"
        }
      ],
      "name": "setPaymentAddress",
      "outputs": [],
      "stateMutability": "nonpayable",
      "type": "function"
    },
    {
      "inputs": [
        {
          "internalType": "address",
          "name": "user",
          "type": "address"
        },
        {
          "internalType": "string",
          "name": "uri",
          "type": "string"
        }
      ],
      "name": "mint",
      "outputs": [
        {
          "internalType": "uint256",
          "name": "",
          "type": "uint256"
        }
      ],
      "stateMutability": "nonpayable",
      "type": "function"
    },
    {
      "inputs": [
        {
          "internalType": "uint256",
          "name": "tokenId",
          "type": "uint256"
        }
      ],
      "name": "tokenURI",
      "outputs": [
        {
          "internalType": "string",
          "name": "",
          "type": "string"
        }
      ],
      "stateMutability": "view",
      "type": "function"
    }
  ],
  "bytecode": "0x60806040526000600b556000600c553480156200001b57600080fd5b50604051620043f5380380620043f5833981810160405281019062000041919062000310565b838381600090805190602001906200005b929190620001d7565b50806001908051906020019062000074929190620001d7565b5050506000600660006101000a81548160ff0219169083151502179055506000620000a4620001cf60201b60201c565b905080600860006101000a81548173ffffffffffffffffffffffffffffffffffffffff021916908373ffffffffffffffffffffffffffffffffffffffff1602179055508073ffffffffffffffffffffffffffffffffffffffff16600073ffffffffffffffffffffffffffffffffffffffff167f8be0079c531659141344cd1fd0a4f28419497f9722a3daafe3b4186f6b6457e060405160405180910390a35080600d60006101000a81548173ffffffffffffffffffffffffffffffffffffffff021916908373ffffffffffffffffffffffffffffffffffffffff16021790555081600a60006101000a81548173ffffffffffffffffffffffffffffffffffffffff021916908373ffffffffffffffffffffffffffffffffffffffff160217905550505050506200056c565b600033905090565b828054620001e59062000477565b90600052602060002090601f01602090048101928262000209576000855562000255565b82601f106200022457805160ff191683800117855562000255565b8280016001018555821562000255579182015b828111156200025457825182559160200191906001019062000237565b5b50905062000264919062000268565b5090565b5b808211156200028357600081600090555060010162000269565b5090565b60006200029e6200029884620003d7565b620003ae565b905082815260208101848484011115620002b757600080fd5b620002c484828562000441565b509392505050565b600081519050620002dd8162000552565b92915050565b600082601f830112620002f557600080fd5b81516200030784826020860162000287565b91505092915050565b600080600080608085870312156200032757600080fd5b600085015167ffffffffffffffff8111156200034257600080fd5b6200035087828801620002e3565b945050602085015167ffffffffffffffff8111156200036e57600080fd5b6200037c87828801620002e3565b93505060406200038f87828801620002cc565b9250506060620003a287828801620002cc565b91505092959194509250565b6000620003ba620003cd565b9050620003c88282620004ad565b919050565b6000604051905090565b600067ffffffffffffffff821115620003f557620003f462000512565b5b620004008262000541565b9050602081019050919050565b60006200041a8262000421565b9050919050565b600073ffffffffffffffffffffffffffffffffffffffff82169050919050565b60005b838110156200046157808201518184015260208101905062000444565b8381111562000471576000848401525b50505050565b600060028204905060018216806200049057607f821691505b60208210811415620004a757620004a6620004e3565b5b50919050565b620004b88262000541565b810181811067ffffffffffffffff82111715620004da57620004d962000512565b5b80604052505050565b7f4e487b7100000000000000000000000000000000000000000000000000000000600052602260045260246000fd5b7f4e487b7100000000000000000000000000000000000000000000000000000000600052604160045260246000fd5b6000601f19601f8301169050919050565b6200055d816200040d565b81146200056957600080fd5b50565b613e79806200057c6000396000f3fe608060405234801561001057600080fd5b50600436106101735760003560e01c8063715018a6116100de578063c014b9da11610097578063e53ae10211610071578063e53ae10214610436578063e985e9c514610454578063e9cbd82214610484578063f2fde38b146104a257610173565b8063c014b9da146103b8578063c87b56dd146103d6578063d0def5211461040657610173565b8063715018a61461031e5780638da5cb5b1461032857806395d89b4114610346578063a22cb46514610364578063b86be2ca14610380578063b88d4fde1461039c57610173565b806342842e0e1161013057806342842e0e1461024a5780635c975abb146102665780635e1e100414610284578063633423be146102a05780636352211e146102be57806370a08231146102ee57610173565b806301ffc9a71461017857806306fdde03146101a8578063081812fc146101c6578063095ea7b3146101f657806323b872dd146102125780632c078e8d1461022e575b600080fd5b610192600480360381019061018d9190612a08565b6104be565b60405161019f9190612fbe565b60405180910390f35b6101b06105a0565b6040516101bd9190612ff4565b60405180910390f35b6101e060048036038101906101db9190612a5a565b610632565b6040516101ed9190612ef7565b60405180910390f35b610210600480360381019061020b91906129a3565b6106b7565b005b61022c60048036038101906102279190612849565b6107cf565b005b61024860048036038101906102439190612a5a565b61082f565b005b610264600480360381019061025f9190612849565b6108b5565b005b61026e6108d5565b60405161027b9190612fbe565b60405180910390f35b61029e600480360381019061029991906127e4565b6108ec565b005b6102a86109ac565b6040516102b59190612ef7565b60405180910390f35b6102d860048036038101906102d39190612a5a565b6109d2565b6040516102e59190612ef7565b60405180910390f35b610308600480360381019061030391906127e4565b610a84565b6040516103159190613316565b60405180910390f35b610326610b3c565b005b610330610c79565b60405161033d9190612ef7565b60405180910390f35b61034e610ca3565b60405161035b9190612ff4565b60405180910390f35b61037e60048036038101906103799190612913565b610d35565b005b61039a60048036038101906103959190612a5a565b610eb6565b005b6103b660048036038101906103b19190612898565b610f3c565b005b6103c0610f9e565b6040516103cd9190613316565b60405180910390f35b6103f060048036038101906103eb9190612a5a565b610fa4565b6040516103fd9190612ff4565b60405180910390f35b610420600480360381019061041b919061294f565b610fb6565b60405161042d9190613316565b60405180910390f35b61043e610fee565b60405161044b9190613316565b60405180910390f35b61046e6004803603810190610469919061280d565b610ff4565b60405161047b9190612fbe565b60405180910390f35b61048c611088565b6040516104999190612fd9565b60405180910390f35b6104bc60048036038101906104b791906127e4565b6110ae565b005b60007f80ac58cd000000000000000000000000000000000000000000000000000000007bffffffffffffffffffffffffffffffffffffffffffffffffffffffff1916827bffffffffffffffffffffffffffffffffffffffffffffffffffffffff1916148061058957507f5b5e139f000000000000000000000000000000000000000000000000000000007bffffffffffffffffffffffffffffffffffffffffffffffffffffffff1916827bffffffffffffffffffffffffffffffffffffffffffffffffffffffff1916145b8061059957506105988261125a565b5b9050919050565b6060600080546105af906135b9565b80601f01602080910402602001604051908101604052809291908181526020018280546105db906135b9565b80156106285780601f106105fd57610100808354040283529160200191610628565b820191906000526020600020905b81548152906001019060200180831161060b57829003601f168201915b5050505050905090565b600061063d826112c4565b61067c576040517f08c379a000000000000000000000000000000000000000000000000000000000815260040161067390613236565b60405180910390fd5b6004600083815260200190815260200160002060009054906101000a900473ffffffffffffffffffffffffffffffffffffffff169050919050565b60006106c2826109d2565b90508073ffffffffffffffffffffffffffffffffffffffff168373ffffffffffffffffffffffffffffffffffffffff161415610733576040517f08c379a000000000000000000000000000000000000000000000000000000000815260040161072a906132b6565b60405180910390fd5b8073ffffffffffffffffffffffffffffffffffffffff16610752611330565b73ffffffffffffffffffffffffffffffffffffffff16148061078157506107808161077b611330565b610ff4565b5b6107c0576040517f08c379a00000000000000000000000000000000000000000000000000000000081526004016107b790613176565b60405180910390fd5b6107ca8383611338565b505050565b6107e06107da611330565b826113f1565b61081f576040517f08c379a0000000000000000000000000000000000000000000000000000000008152600401610816906132d6565b60405180910390fd5b61082a8383836114cf565b505050565b610837611330565b73ffffffffffffffffffffffffffffffffffffffff16610855610c79565b73ffffffffffffffffffffffffffffffffffffffff16146108ab576040517f08c379a00000000000000000000000000000000000000000000000000000000081526004016108a290613256565b60405180910390fd5b80600c8190555050565b6108d083838360405180602001604052806000815250610f3c565b505050565b6000600660009054906101000a900460ff16905090565b6108f4611330565b73ffffffffffffffffffffffffffffffffffffffff16610912610c79565b73ffffffffffffffffffffffffffffffffffffffff1614610968576040517f08c379a000000000000000000000000000000000000000000000000000000000815260040161095f90613256565b60405180910390fd5b80600d60006101000a81548173ffffffffffffffffffffffffffffffffffffffff021916908373ffffffffffffffffffffffffffffffffffffffff16021790555050565b600d60009054906101000a900473ffffffffffffffffffffffffffffffffffffffff1681565b6000806002600084815260200190815260200160002060009054906101000a900473ffffffffffffffffffffffffffffffffffffffff169050600073ffffffffffffffffffffffffffffffffffffffff168173ffffffffffffffffffffffffffffffffffffffff161415610a7b576040517f08c379a0000000000000000000000000000000000000000000000000000000008152600401610a72906131b6565b60405180910390fd5b80915050919050565b60008073ffffffffffffffffffffffffffffffffffffffff168273ffffffffffffffffffffffffffffffffffffffff161415610af5576040517f08c379a0000000000000000000000000000000000000000000000000000000008152600401610aec90613196565b60405180910390fd5b600360008373ffffffffffffffffffffffffffffffffffffffff1673ffffffffffffffffffffffffffffffffffffffff168152602001908152602001600020549050919050565b610b44611330565b73ffffffffffffffffffffffffffffffffffffffff16610b62610c79565b73ffffffffffffffffffffffffffffffffffffffff1614610bb8576040517f08c379a0000000000000000000000000000000000000000000000000000000008152600401610baf90613256565b60405180910390fd5b600073ffffffffffffffffffffffffffffffffffffffff16600860009054906101000a900473ffffffffffffffffffffffffffffffffffffffff1673ffffffffffffffffffffffffffffffffffffffff167f8be0079c531659141344cd1fd0a4f28419497f9722a3daafe3b4186f6b6457e060405160405180910390a36000600860006101000a81548173ffffffffffffffffffffffffffffffffffffffff021916908373ffffffffffffffffffffffffffffffffffffffff160217905550565b6000600860009054906101000a900473ffffffffffffffffffffffffffffffffffffffff16905090565b606060018054610cb2906135b9565b80601f0160208091040260200160405190810160405280929190818152602001828054610cde906135b9565b8015610d2b5780601f10610d0057610100808354040283529160200191610d2b565b820191906000526020600020905b815481529060010190602001808311610d0e57829003601f168201915b5050505050905090565b610d3d611330565b73ffffffffffffffffffffffffffffffffffffffff168273ffffffffffffffffffffffffffffffffffffffff161415610dab576040517f08c379a0000000000000000000000000000000000000000000000000000000008152600401610da2906130f6565b60405180910390fd5b8060056000610db8611330565b73ffffffffffffffffffffffffffffffffffffffff1673ffffffffffffffffffffffffffffffffffffffff16815260200190815260200160002060008473ffffffffffffffffffffffffffffffffffffffff1673ffffffffffffffffffffffffffffffffffffffff16815260200190815260200160002060006101000a81548160ff0219169083151502179055508173ffffffffffffffffffffffffffffffffffffffff16610e65611330565b73ffffffffffffffffffffffffffffffffffffffff167f17307eab39ab6107e8899845ad3d59bd9653f200f220920489ca2b5937696c3183604051610eaa9190612fbe565b60405180910390a35050565b610ebe611330565b73ffffffffffffffffffffffffffffffffffffffff16610edc610c79565b73ffffffffffffffffffffffffffffffffffffffff1614610f32576040517f08c379a0000000000000000000000000000000000000000000000000000000008152600401610f2990613256565b60405180910390fd5b80600b8190555050565b610f4d610f47611330565b836113f1565b610f8c576040517f08c379a0000000000000000000000000000000000000000000000000000000008152600401610f83906132d6565b60405180910390fd5b610f988484848461172b565b50505050565b600b5481565b6060610faf82611787565b9050919050565b6000610fc260096118d9565b6000610fce60096118ef565b9050610fda84826118fd565b610fe4818461191b565b8091505092915050565b600c5481565b6000600560008473ffffffffffffffffffffffffffffffffffffffff1673ffffffffffffffffffffffffffffffffffffffff16815260200190815260200160002060008373ffffffffffffffffffffffffffffffffffffffff1673ffffffffffffffffffffffffffffffffffffffff16815260200190815260200160002060009054906101000a900460ff16905092915050565b600a60009054906101000a900473ffffffffffffffffffffffffffffffffffffffff1681565b6110b6611330565b73ffffffffffffffffffffffffffffffffffffffff166110d4610c79565b73ffffffffffffffffffffffffffffffffffffffff161461112a576040517f08c379a000000000000000000000000000000000000000000000000000000000815260040161112190613256565b60405180910390fd5b600073ffffffffffffffffffffffffffffffffffffffff168173ffffffffffffffffffffffffffffffffffffffff16141561119a576040517f08c379a000000000000000000000000000000000000000000000000000000000815260040161119190613096565b60405180910390fd5b8073ffffffffffffffffffffffffffffffffffffffff16600860009054906101000a900473ffffffffffffffffffffffffffffffffffffffff1673ffffffffffffffffffffffffffffffffffffffff167f8be0079c531659141344cd1fd0a4f28419497f9722a3daafe3b4186f6b6457e060405160405180910390a380600860006101000a81548173ffffffffffffffffffffffffffffffffffffffff021916908373ffffffffffffffffffffffffffffffffffffffff16021790555050565b60007f01ffc9a7000000000000000000000000000000000000000000000000000000007bffffffffffffffffffffffffffffffffffffffffffffffffffffffff1916827bffffffffffffffffffffffffffffffffffffffffffffffffffffffff1916149050919050565b60008073ffffffffffffffffffffffffffffffffffffffff166002600084815260200190815260200160002060009054906101000a900473ffffffffffffffffffffffffffffffffffffffff1673ffffffffffffffffffffffffffffffffffffffff1614159050919050565b600033905090565b816004600083815260200190815260200160002060006101000a81548173ffffffffffffffffffffffffffffffffffffffff021916908373ffffffffffffffffffffffffffffffffffffffff160217905550808273ffffffffffffffffffffffffffffffffffffffff166113ab836109d2565b73ffffffffffffffffffffffffffffffffffffffff167f8c5be1e5ebec7d5bd14f71427d1e84f3dd0314c0f7b2291e5b200ac8c7c3b92560405160405180910390a45050565b60006113fc826112c4565b61143b576040517f08c379a000000000000000000000000000000000000000000000000000000000815260040161143290613136565b60405180910390fd5b6000611446836109d2565b90508073ffffffffffffffffffffffffffffffffffffffff168473ffffffffffffffffffffffffffffffffffffffff1614806114b557508373ffffffffffffffffffffffffffffffffffffffff1661149d84610632565b73ffffffffffffffffffffffffffffffffffffffff16145b806114c657506114c58185610ff4565b5b91505092915050565b8273ffffffffffffffffffffffffffffffffffffffff166114ef826109d2565b73ffffffffffffffffffffffffffffffffffffffff1614611545576040517f08c379a000000000000000000000000000000000000000000000000000000000815260040161153c90613276565b60405180910390fd5b600073ffffffffffffffffffffffffffffffffffffffff168273ffffffffffffffffffffffffffffffffffffffff1614156115b5576040517f08c379a00000000000000000000000000000000000000000000000000000000081526004016115ac906130d6565b60405180910390fd5b6115c083838361198f565b6115cb600082611338565b6001600360008573ffffffffffffffffffffffffffffffffffffffff1673ffffffffffffffffffffffffffffffffffffffff168152602001908152602001600020600082825461161b91906134ab565b925050819055506001600360008473ffffffffffffffffffffffffffffffffffffffff1673ffffffffffffffffffffffffffffffffffffffff16815260200190815260200160002060008282546116729190613424565b92505081905550816002600083815260200190815260200160002060006101000a81548173ffffffffffffffffffffffffffffffffffffffff021916908373ffffffffffffffffffffffffffffffffffffffff160217905550808273ffffffffffffffffffffffffffffffffffffffff168473ffffffffffffffffffffffffffffffffffffffff167fddf252ad1be2c89b69c2b068fc378daa952ba7f163c4a11628f55a4df523b3ef60405160405180910390a4505050565b6117368484846114cf565b61174284848484611f43565b611781576040517f08c379a000000000000000000000000000000000000000000000000000000000815260040161177890613076565b60405180910390fd5b50505050565b6060611792826112c4565b6117d1576040517f08c379a00000000000000000000000000000000000000000000000000000000081526004016117c890613216565b60405180910390fd5b60006007600084815260200190815260200160002080546117f1906135b9565b80601f016020809104026020016040519081016040528092919081815260200182805461181d906135b9565b801561186a5780601f1061183f5761010080835404028352916020019161186a565b820191906000526020600020905b81548152906001019060200180831161184d57829003601f168201915b50505050509050600061187b6120da565b90506000815114156118915781925050506118d4565b6000825111156118c65780826040516020016118ae929190612ed3565b604051602081830303815290604052925050506118d4565b6118cf846120f1565b925050505b919050565b6001816000016000828254019250508190555050565b600081600001549050919050565b611917828260405180602001604052806000815250612198565b5050565b611924826112c4565b611963576040517f08c379a000000000000000000000000000000000000000000000000000000000815260040161195a906131d6565b60405180910390fd5b8060076000848152602001908152602001600020908051906020019061198a9291906125de565b505050565b6119976108d5565b156119d7576040517f08c379a00000000000000000000000000000000000000000000000000000000081526004016119ce90613016565b60405180910390fd5b600073ffffffffffffffffffffffffffffffffffffffff168373ffffffffffffffffffffffffffffffffffffffff161415611a1c57611a178383836121f3565b611f3e565b600073ffffffffffffffffffffffffffffffffffffffff16600d60009054906101000a900473ffffffffffffffffffffffffffffffffffffffff1673ffffffffffffffffffffffffffffffffffffffff161415611aae576040517f08c379a0000000000000000000000000000000000000000000000000000000008152600401611aa590613116565b60405180910390fd5b6000600b54600c54611ac09190613424565b905080600a60009054906101000a900473ffffffffffffffffffffffffffffffffffffffff1673ffffffffffffffffffffffffffffffffffffffff166370a08231336040518263ffffffff1660e01b8152600401611b1e9190612ef7565b60206040518083038186803b158015611b3657600080fd5b505afa158015611b4a573d6000803e3d6000fd5b505050506040513d601f19601f82011682018060405250810190611b6e9190612a83565b1015611baf576040517f08c379a0000000000000000000000000000000000000000000000000000000008152600401611ba6906132f6565b60405180910390fd5b80600a60009054906101000a900473ffffffffffffffffffffffffffffffffffffffff1673ffffffffffffffffffffffffffffffffffffffff1663dd62ed3e33306040518363ffffffff1660e01b8152600401611c0d929190612f12565b60206040518083038186803b158015611c2557600080fd5b505afa158015611c39573d6000803e3d6000fd5b505050506040513d601f19601f82011682018060405250810190611c5d9190612a83565b1015611c9e576040517f08c379a0000000000000000000000000000000000000000000000000000000008152600401611c9590613156565b60405180910390fd5b600a60009054906101000a900473ffffffffffffffffffffffffffffffffffffffff1673ffffffffffffffffffffffffffffffffffffffff166323b872dd33600d60009054906101000a900473ffffffffffffffffffffffffffffffffffffffff16600b546040518463ffffffff1660e01b8152600401611d2193929190612f3b565b602060405180830381600087803b158015611d3b57600080fd5b505af1158015611d4f573d6000803e3d6000fd5b505050506040513d601f19601f82011682018060405250810190611d7391906129df565b611db2576040517f08c379a0000000000000000000000000000000000000000000000000000000008152600401611da990613056565b60405180910390fd5b600a60009054906101000a900473ffffffffffffffffffffffffffffffffffffffff1673ffffffffffffffffffffffffffffffffffffffff166323b872dd3330600c546040518463ffffffff1660e01b8152600401611e1393929190612f3b565b602060405180830381600087803b158015611e2d57600080fd5b505af1158015611e41573d6000803e3d6000fd5b505050506040513d601f19601f82011682018060405250810190611e6591906129df565b611ea4576040517f08c379a0000000000000000000000000000000000000000000000000000000008152600401611e9b90613056565b60405180910390fd5b600d60009054906101000a900473ffffffffffffffffffffffffffffffffffffffff1673ffffffffffffffffffffffffffffffffffffffff168473ffffffffffffffffffffffffffffffffffffffff167fa8f4c73f737d0de0c960fdfc31d6a578225f7b201397a04d6d128e622c6937e3600c54600b54604051611f29929190613331565b60405180910390a3611f3c8484846121f3565b505b505050565b6000611f648473ffffffffffffffffffffffffffffffffffffffff1661224b565b156120cd578373ffffffffffffffffffffffffffffffffffffffff1663150b7a02611f8d611330565b8786866040518563ffffffff1660e01b8152600401611faf9493929190612f72565b602060405180830381600087803b158015611fc957600080fd5b505af1925050508015611ffa57506040513d601f19601f82011682018060405250810190611ff79190612a31565b60015b61207d573d806000811461202a576040519150601f19603f3d011682016040523d82523d6000602084013e61202f565b606091505b50600081511415612075576040517f08c379a000000000000000000000000000000000000000000000000000000000815260040161206c90613076565b60405180910390fd5b805181602001fd5b63150b7a0260e01b7bffffffffffffffffffffffffffffffffffffffffffffffffffffffff1916817bffffffffffffffffffffffffffffffffffffffffffffffffffffffff1916149150506120d2565b600190505b949350505050565b606060405180602001604052806000815250905090565b60606120fc826112c4565b61213b576040517f08c379a000000000000000000000000000000000000000000000000000000000815260040161213290613296565b60405180910390fd5b60006121456120da565b905060008151116121655760405180602001604052806000815250612190565b8061216f8461225e565b604051602001612180929190612ed3565b6040516020818303038152906040525b915050919050565b6121a2838361240b565b6121af6000848484611f43565b6121ee576040517f08c379a00000000000000000000000000000000000000000000000000000000081526004016121e590613076565b60405180910390fd5b505050565b6121fe8383836125d9565b6122066108d5565b15612246576040517f08c379a000000000000000000000000000000000000000000000000000000000815260040161223d90613036565b60405180910390fd5b505050565b600080823b905060008111915050919050565b606060008214156122a6576040518060400160405280600181526020017f30000000000000000000000000000000000000000000000000000000000000008152509050612406565b600082905060005b600082146122d85780806122c19061361c565b915050600a826122d1919061347a565b91506122ae565b60008167ffffffffffffffff81111561231a577f4e487b7100000000000000000000000000000000000000000000000000000000600052604160045260246000fd5b6040519080825280601f01601f19166020018201604052801561234c5781602001600182028036833780820191505090505b5090505b600085146123ff5760018261236591906134ab565b9150600a856123749190613665565b60306123809190613424565b60f81b8183815181106123bc577f4e487b7100000000000000000000000000000000000000000000000000000000600052603260045260246000fd5b60200101907effffffffffffffffffffffffffffffffffffffffffffffffffffffffffffff1916908160001a905350600a856123f8919061347a565b9450612350565b8093505050505b919050565b600073ffffffffffffffffffffffffffffffffffffffff168273ffffffffffffffffffffffffffffffffffffffff16141561247b576040517f08c379a0000000000000000000000000000000000000000000000000000000008152600401612472906131f6565b60405180910390fd5b612484816112c4565b156124c4576040517f08c379a00000000000000000000000000000000000000000000000000000000081526004016124bb906130b6565b60405180910390fd5b6124d06000838361198f565b6001600360008473ffffffffffffffffffffffffffffffffffffffff1673ffffffffffffffffffffffffffffffffffffffff16815260200190815260200160002060008282546125209190613424565b92505081905550816002600083815260200190815260200160002060006101000a81548173ffffffffffffffffffffffffffffffffffffffff021916908373ffffffffffffffffffffffffffffffffffffffff160217905550808273ffffffffffffffffffffffffffffffffffffffff16600073ffffffffffffffffffffffffffffffffffffffff167fddf252ad1be2c89b69c2b068fc378daa952ba7f163c4a11628f55a4df523b3ef60405160405180910390a45050565b505050565b8280546125ea906135b9565b90600052602060002090601f01602090048101928261260c5760008555612653565b82601f1061262557805160ff1916838001178555612653565b82800160010185558215612653579182015b82811115612652578251825591602001919060010190612637565b5b5090506126609190612664565b5090565b5b8082111561267d576000816000905550600101612665565b5090565b600061269461268f8461337f565b61335a565b9050828152602081018484840111156126ac57600080fd5b6126b7848285613577565b509392505050565b60006126d26126cd846133b0565b61335a565b9050828152602081018484840111156126ea57600080fd5b6126f5848285613577565b509392505050565b60008135905061270c81613de7565b92915050565b60008135905061272181613dfe565b92915050565b60008151905061273681613dfe565b92915050565b60008135905061274b81613e15565b92915050565b60008151905061276081613e15565b92915050565b600082601f83011261277757600080fd5b8135612787848260208601612681565b91505092915050565b600082601f8301126127a157600080fd5b81356127b18482602086016126bf565b91505092915050565b6000813590506127c981613e2c565b92915050565b6000815190506127de81613e2c565b92915050565b6000602082840312156127f657600080fd5b6000612804848285016126fd565b91505092915050565b6000806040838503121561282057600080fd5b600061282e858286016126fd565b925050602061283f858286016126fd565b9150509250929050565b60008060006060848603121561285e57600080fd5b600061286c868287016126fd565b935050602061287d868287016126fd565b925050604061288e868287016127ba565b9150509250925092565b600080600080608085870312156128ae57600080fd5b60006128bc878288016126fd565b94505060206128cd878288016126fd565b93505060406128de878288016127ba565b925050606085013567ffffffffffffffff8111156128fb57600080fd5b61290787828801612766565b91505092959194509250565b6000806040838503121561292657600080fd5b6000612934858286016126fd565b925050602061294585828601612712565b9150509250929050565b6000806040838503121561296257600080fd5b6000612970858286016126fd565b925050602083013567ffffffffffffffff81111561298d57600080fd5b61299985828601612790565b9150509250929050565b600080604083850312156129b657600080fd5b60006129c4858286016126fd565b92505060206129d5858286016127ba565b9150509250929050565b6000602082840312156129f157600080fd5b60006129ff84828501612727565b91505092915050565b600060208284031215612a1a57600080fd5b6000612a288482850161273c565b91505092915050565b600060208284031215612a4357600080fd5b6000612a5184828501612751565b91505092915050565b600060208284031215612a6c57600080fd5b6000612a7a848285016127ba565b91505092915050565b600060208284031215612a9557600080fd5b6000612aa3848285016127cf565b91505092915050565b612ab5816134df565b82525050565b612ac4816134f1565b82525050565b6000612ad5826133e1565b612adf81856133f7565b9350612aef818560208601613586565b612af881613752565b840191505092915050565b612b0c81613553565b82525050565b6000612b1d826133ec565b612b278185613408565b9350612b37818560208601613586565b612b4081613752565b840191505092915050565b6000612b56826133ec565b612b608185613419565b9350612b70818560208601613586565b80840191505092915050565b6000612b89602083613408565b9150612b9482613763565b602082019050919050565b6000612bac602b83613408565b9150612bb78261378c565b604082019050919050565b6000612bcf602383613408565b9150612bda826137db565b604082019050919050565b6000612bf2603283613408565b9150612bfd8261382a565b604082019050919050565b6000612c15602683613408565b9150612c2082613879565b604082019050919050565b6000612c38601c83613408565b9150612c43826138c8565b602082019050919050565b6000612c5b602483613408565b9150612c66826138f1565b604082019050919050565b6000612c7e601983613408565b9150612c8982613940565b602082019050919050565b6000612ca1601b83613408565b9150612cac82613969565b602082019050919050565b6000612cc4602c83613408565b9150612ccf82613992565b604082019050919050565b6000612ce7603183613408565b9150612cf2826139e1565b604082019050919050565b6000612d0a603883613408565b9150612d1582613a30565b604082019050919050565b6000612d2d602a83613408565b9150612d3882613a7f565b604082019050919050565b6000612d50602983613408565b9150612d5b82613ace565b604082019050919050565b6000612d73602e83613408565b9150612d7e82613b1d565b604082019050919050565b6000612d96602083613408565b9150612da182613b6c565b602082019050919050565b6000612db9603183613408565b9150612dc482613b95565b604082019050919050565b6000612ddc602c83613408565b9150612de782613be4565b604082019050919050565b6000612dff602083613408565b9150612e0a82613c33565b602082019050919050565b6000612e22602983613408565b9150612e2d82613c5c565b604082019050919050565b6000612e45602f83613408565b9150612e5082613cab565b604082019050919050565b6000612e68602183613408565b9150612e7382613cfa565b604082019050919050565b6000612e8b603183613408565b9150612e9682613d49565b604082019050919050565b6000612eae603583613408565b9150612eb982613d98565b604082019050919050565b612ecd81613549565b82525050565b6000612edf8285612b4b565b9150612eeb8284612b4b565b91508190509392505050565b6000602082019050612f0c6000830184612aac565b92915050565b6000604082019050612f276000830185612aac565b612f346020830184612aac565b9392505050565b6000606082019050612f506000830186612aac565b612f5d6020830185612aac565b612f6a6040830184612ec4565b949350505050565b6000608082019050612f876000830187612aac565b612f946020830186612aac565b612fa16040830185612ec4565b8181036060830152612fb38184612aca565b905095945050505050565b6000602082019050612fd36000830184612abb565b92915050565b6000602082019050612fee6000830184612b03565b92915050565b6000602082019050818103600083015261300e8184612b12565b905092915050565b6000602082019050818103600083015261302f81612b7c565b9050919050565b6000602082019050818103600083015261304f81612b9f565b9050919050565b6000602082019050818103600083015261306f81612bc2565b9050919050565b6000602082019050818103600083015261308f81612be5565b9050919050565b600060208201905081810360008301526130af81612c08565b9050919050565b600060208201905081810360008301526130cf81612c2b565b9050919050565b600060208201905081810360008301526130ef81612c4e565b9050919050565b6000602082019050818103600083015261310f81612c71565b9050919050565b6000602082019050818103600083015261312f81612c94565b9050919050565b6000602082019050818103600083015261314f81612cb7565b9050919050565b6000602082019050818103600083015261316f81612cda565b9050919050565b6000602082019050818103600083015261318f81612cfd565b9050919050565b600060208201905081810360008301526131af81612d20565b9050919050565b600060208201905081810360008301526131cf81612d43565b9050919050565b600060208201905081810360008301526131ef81612d66565b9050919050565b6000602082019050818103600083015261320f81612d89565b9050919050565b6000602082019050818103600083015261322f81612dac565b9050919050565b6000602082019050818103600083015261324f81612dcf565b9050919050565b6000602082019050818103600083015261326f81612df2565b9050919050565b6000602082019050818103600083015261328f81612e15565b9050919050565b600060208201905081810360008301526132af81612e38565b9050919050565b600060208201905081810360008301526132cf81612e5b565b9050919050565b600060208201905081810360008301526132ef81612e7e565b9050919050565b6000602082019050818103600083015261330f81612ea1565b9050919050565b600060208201905061332b6000830184612ec4565b92915050565b60006040820190506133466000830185612ec4565b6133536020830184612ec4565b9392505050565b6000613364613375565b905061337082826135eb565b919050565b6000604051905090565b600067ffffffffffffffff82111561339a57613399613723565b5b6133a382613752565b9050602081019050919050565b600067ffffffffffffffff8211156133cb576133ca613723565b5b6133d482613752565b9050602081019050919050565b600081519050919050565b600081519050919050565b600082825260208201905092915050565b600082825260208201905092915050565b600081905092915050565b600061342f82613549565b915061343a83613549565b9250827fffffffffffffffffffffffffffffffffffffffffffffffffffffffffffffffff0382111561346f5761346e613696565b5b828201905092915050565b600061348582613549565b915061349083613549565b9250826134a05761349f6136c5565b5b828204905092915050565b60006134b682613549565b91506134c183613549565b9250828210156134d4576134d3613696565b5b828203905092915050565b60006134ea82613529565b9050919050565b60008115159050919050565b60007fffffffff0000000000000000000000000000000000000000000000000000000082169050919050565b600073ffffffffffffffffffffffffffffffffffffffff82169050919050565b6000819050919050565b600061355e82613565565b9050919050565b600061357082613529565b9050919050565b82818337600083830152505050565b60005b838110156135a4578082015181840152602081019050613589565b838111156135b3576000848401525b50505050565b600060028204905060018216806135d157607f821691505b602082108114156135e5576135e46136f4565b5b50919050565b6135f482613752565b810181811067ffffffffffffffff8211171561361357613612613723565b5b80604052505050565b600061362782613549565b91507fffffffffffffffffffffffffffffffffffffffffffffffffffffffffffffffff82141561365a57613659613696565b5b600182019050919050565b600061367082613549565b915061367b83613549565b92508261368b5761368a6136c5565b5b828206905092915050565b7f4e487b7100000000000000000000000000000000000000000000000000000000600052601160045260246000fd5b7f4e487b7100000000000000000000000000000000000000000000000000000000600052601260045260246000fd5b7f4e487b7100000000000000000000000000000000000000000000000000000000600052602260045260246000fd5b7f4e487b7100000000000000000000000000000000000000000000000000000000600052604160045260246000fd5b6000601f19601f8301169050919050565b7f5844563a20746f6b656e207472616e73666572207768696c6520706175736564600082015250565b7f4552433732315061757361626c653a20746f6b656e207472616e73666572207760008201527f68696c6520706175736564000000000000000000000000000000000000000000602082015250565b7f5472616e73666572206661696c656420666f72207061796d656e74206164647260008201527f6573730000000000000000000000000000000000000000000000000000000000602082015250565b7f4552433732313a207472616e7366657220746f206e6f6e20455243373231526560008201527f63656976657220696d706c656d656e7465720000000000000000000000000000602082015250565b7f4f776e61626c653a206e6577206f776e657220697320746865207a65726f206160008201527f6464726573730000000000000000000000000000000000000000000000000000602082015250565b7f4552433732313a20746f6b656e20616c7265616479206d696e74656400000000600082015250565b7f4552433732313a207472616e7366657220746f20746865207a65726f2061646460008201527f7265737300000000000000000000000000000000000000000000000000000000602082015250565b7f4552433732313a20617070726f766520746f2063616c6c657200000000000000600082015250565b7f4d75737420686176652061207061796d656e7420616464726573730000000000600082015250565b7f4552433732313a206f70657261746f7220717565727920666f72206e6f6e657860008201527f697374656e7420746f6b656e0000000000000000000000000000000000000000602082015250565b7f53656e64657220646f6573206e6f74206861766520656e6f75676820616c6c6f60008201527f77616e636520746f207472616e73666572000000000000000000000000000000602082015250565b7f4552433732313a20617070726f76652063616c6c6572206973206e6f74206f7760008201527f6e6572206e6f7220617070726f76656420666f7220616c6c0000000000000000602082015250565b7f4552433732313a2062616c616e636520717565727920666f7220746865207a6560008201527f726f206164647265737300000000000000000000000000000000000000000000602082015250565b7f4552433732313a206f776e657220717565727920666f72206e6f6e657869737460008201527f656e7420746f6b656e0000000000000000000000000000000000000000000000602082015250565b7f45524337323155524953746f726167653a2055524920736574206f66206e6f6e60008201527f6578697374656e7420746f6b656e000000000000000000000000000000000000602082015250565b7f4552433732313a206d696e7420746f20746865207a65726f2061646472657373600082015250565b7f45524337323155524953746f726167653a2055524920717565727920666f722060008201527f6e6f6e6578697374656e7420746f6b656e000000000000000000000000000000602082015250565b7f4552433732313a20617070726f76656420717565727920666f72206e6f6e657860008201527f697374656e7420746f6b656e0000000000000000000000000000000000000000602082015250565b7f4f776e61626c653a2063616c6c6572206973206e6f7420746865206f776e6572600082015250565b7f4552433732313a207472616e73666572206f6620746f6b656e2074686174206960008201527f73206e6f74206f776e0000000000000000000000000000000000000000000000602082015250565b7f4552433732314d657461646174613a2055524920717565727920666f72206e6f60008201527f6e6578697374656e7420746f6b656e0000000000000000000000000000000000602082015250565b7f4552433732313a20617070726f76616c20746f2063757272656e74206f776e6560008201527f7200000000000000000000000000000000000000000000000000000000000000602082015250565b7f4552433732313a207472616e736665722063616c6c6572206973206e6f74206f60008201527f776e6572206e6f7220617070726f766564000000000000000000000000000000602082015250565b7f53656e64657220646f6573206e6f74206861766520656e6f75676820746f6b6560008201527f6e2062616c616e636520746f207472616e736665720000000000000000000000602082015250565b613df0816134df565b8114613dfb57600080fd5b50565b613e07816134f1565b8114613e1257600080fd5b50565b613e1e816134fd565b8114613e2957600080fd5b50565b613e3581613549565b8114613e4057600080fd5b5056fea2646970667358221220f7f4dadba38633a884aa3d80b4be12c6d6712bd7b4e235f963129218d33e911864736f6c63430008030033",
  "immutableReferences": {},
  "source": "// SPDX-License-Identifier: MIT\npragma solidity ^0.8.0;\n\nimport \"@openzeppelin/contracts/access/Ownable.sol\";\nimport \"@openzeppelin/contracts/token/ERC721/ERC721.sol\";\nimport \"@openzeppelin/contracts/token/ERC721/extensions/ERC721Pausable.sol\";\nimport \"@openzeppelin/contracts/token/ERC721/extensions/ERC721URIStorage.sol\";\nimport \"@openzeppelin/contracts/utils/Counters.sol\";\nimport \"./ERC20Interface.sol\";\n\ncontract XDV is ERC721, ERC721Pausable, ERC721URIStorage, Ownable {\n    using Counters for Counters.Counter;\n    Counters.Counter private _tokenIds;\n    ERC20Interface public stablecoin;\n    uint256 public serviceFeeForPaymentAddress = 0;\n    uint256 public serviceFeeForContract = 0;\n    address public paymentAddress;\n\n    event ServiceFeePaid(\n        address indexed from,\n        address indexed paymentAddress,\n        uint256 paidToContract,\n        uint256 paidToPaymentAddress\n    );\n\n    /**\n     * XDV Data Token\n     */\n    constructor(\n        string memory name,\n        string memory symbol,\n        address tokenERC20,\n        address newPaymentAddress\n    ) ERC721(name, symbol) {\n        paymentAddress = newPaymentAddress;\n        stablecoin = ERC20Interface(tokenERC20);\n    }\n\n    function setServiceFeeForPaymentAddress(uint256 _fee) public onlyOwner {\n        serviceFeeForPaymentAddress = _fee;\n    }\n\n    function setServiceFeeForContract(uint256 _fee) public onlyOwner {\n        serviceFeeForContract = _fee;\n    }\n\n    function setPaymentAddress(address newAddress) public onlyOwner {\n        paymentAddress = newAddress;\n    }\n\n    /**\n     * @dev Mints a XDV Data Token if whitelisted\n     */\n    function mint(address user, string memory uri) public returns (uint256) {\n        _tokenIds.increment();\n\n        uint256 newItemId = _tokenIds.current();\n        _safeMint(user, newItemId);\n        _setTokenURI(newItemId, uri);\n\n        return newItemId;\n    }\n\n    /**\n     * @dev Just overrides the superclass' function\n     */\n    function _burn(uint256 tokenId)\n        internal\n        override(ERC721, ERC721URIStorage)\n    {\n        super._burn(tokenId);\n    }\n\n    /**\n     * @dev Just overrides the superclass' function\n     */\n    function tokenURI(uint256 tokenId)\n        public\n        view\n        override(ERC721, ERC721URIStorage)\n        returns (string memory)\n    {\n        return super.tokenURI(tokenId);\n    }\n\n    function _beforeTokenTransfer(\n        address from,\n        address to,\n        uint256 amount\n    ) internal virtual override(ERC721, ERC721Pausable) {\n        require(!paused(), \"XDV: token transfer while paused\");\n\n        // Address can be 0 when minting the coin for the first time.\n        // no fees are applicable in this edge case.\n        if (from == address(0)) {\n            super._beforeTokenTransfer(from, to, amount);\n            return;\n        }\n\n        require(paymentAddress != address(0), \"Must have a payment address\");\n\n        uint256 totalFees = serviceFeeForContract + serviceFeeForPaymentAddress;\n\n        // User must have a balance\n        require(\n            stablecoin.balanceOf(msg.sender) >= totalFees,\n            \"Sender does not have enough token balance to transfer\"\n        );\n\n        // User must have an allowance\n        require(\n            stablecoin.allowance(msg.sender, address(this)) >= totalFees,\n            \"Sender does not have enough allowance to transfer\"\n        );\n\n        // Transfer tokens to pay service fee\n        require(\n            stablecoin.transferFrom(\n                msg.sender,\n                paymentAddress,\n                serviceFeeForPaymentAddress\n            ),\n            \"Transfer failed for payment address\"\n        );\n\n        require(\n            stablecoin.transferFrom(\n                msg.sender,\n                address(this),\n                serviceFeeForContract\n            ),\n            \"Transfer failed for payment address\"\n        );\n\n        emit ServiceFeePaid(\n            from,\n            paymentAddress,\n            serviceFeeForContract,\n            serviceFeeForPaymentAddress\n        );\n\n        super._beforeTokenTransfer(from, to, amount);\n    }\n}\n",
  "sourcePath": "/Users/zubietaroberto/git/nft-document-swap/contracts/XDV.sol",
  "compiler": {
    "name": "solc",
    "version": "0.8.3+commit.8d00100c.Emscripten.clang"
  },
  "schemaVersion": "3.3.4",
  "updatedAt": "2021-04-08T20:41:03.438Z",
  "devdoc": {
    "kind": "dev",
    "methods": {
      "approve(address,uint256)": {
        "details": "See {IERC721-approve}."
      },
      "balanceOf(address)": {
        "details": "See {IERC721-balanceOf}."
      },
      "getApproved(uint256)": {
        "details": "See {IERC721-getApproved}."
      },
      "isApprovedForAll(address,address)": {
        "details": "See {IERC721-isApprovedForAll}."
      },
      "mint(address,string)": {
        "details": "Mints a XDV Data Token if whitelisted"
      },
      "name()": {
        "details": "See {IERC721Metadata-name}."
      },
      "owner()": {
        "details": "Returns the address of the current owner."
      },
      "ownerOf(uint256)": {
        "details": "See {IERC721-ownerOf}."
      },
      "paused()": {
        "details": "Returns true if the contract is paused, and false otherwise."
      },
      "renounceOwnership()": {
        "details": "Leaves the contract without owner. It will not be possible to call `onlyOwner` functions anymore. Can only be called by the current owner. NOTE: Renouncing ownership will leave the contract without an owner, thereby removing any functionality that is only available to the owner."
      },
      "safeTransferFrom(address,address,uint256)": {
        "details": "See {IERC721-safeTransferFrom}."
      },
      "safeTransferFrom(address,address,uint256,bytes)": {
        "details": "See {IERC721-safeTransferFrom}."
      },
      "setApprovalForAll(address,bool)": {
        "details": "See {IERC721-setApprovalForAll}."
      },
      "supportsInterface(bytes4)": {
        "details": "See {IERC165-supportsInterface}."
      },
      "symbol()": {
        "details": "See {IERC721Metadata-symbol}."
      },
      "tokenURI(uint256)": {
        "details": "Just overrides the superclass' function"
      },
      "transferFrom(address,address,uint256)": {
        "details": "See {IERC721-transferFrom}."
      },
      "transferOwnership(address)": {
        "details": "Transfers ownership of the contract to a new account (`newOwner`). Can only be called by the current owner."
      }
    },
    "version": 1
  },
  "userdoc": {
    "kind": "user",
    "methods": {
      "constructor": {
        "notice": "XDV Data Token"
      }
    },
    "version": 1
  }
}