{
  "contractName": "XDV",
  "abi": [
    {
      "inputs": [
        {
          "internalType": "string",
          "name": "name",
          "type": "string"
        },
        {
          "internalType": "string",
          "name": "symbol",
          "type": "string"
        }
      ],
      "stateMutability": "nonpayable",
      "type": "constructor"
    },
    {
      "anonymous": false,
      "inputs": [
        {
          "indexed": true,
          "internalType": "address",
          "name": "owner",
          "type": "address"
        },
        {
          "indexed": true,
          "internalType": "address",
          "name": "approved",
          "type": "address"
        },
        {
          "indexed": true,
          "internalType": "uint256",
          "name": "tokenId",
          "type": "uint256"
        }
      ],
      "name": "Approval",
      "type": "event"
    },
    {
      "anonymous": false,
      "inputs": [
        {
          "indexed": true,
          "internalType": "address",
          "name": "owner",
          "type": "address"
        },
        {
          "indexed": true,
          "internalType": "address",
          "name": "operator",
          "type": "address"
        },
        {
          "indexed": false,
          "internalType": "bool",
          "name": "approved",
          "type": "bool"
        }
      ],
      "name": "ApprovalForAll",
      "type": "event"
    },
    {
      "anonymous": false,
      "inputs": [
        {
          "indexed": false,
          "internalType": "address",
          "name": "account",
          "type": "address"
        }
      ],
      "name": "Paused",
      "type": "event"
    },
    {
      "anonymous": false,
      "inputs": [
        {
          "indexed": true,
          "internalType": "address",
          "name": "from",
          "type": "address"
        },
        {
          "indexed": true,
          "internalType": "address",
          "name": "to",
          "type": "address"
        },
        {
          "indexed": true,
          "internalType": "uint256",
          "name": "tokenId",
          "type": "uint256"
        }
      ],
      "name": "Transfer",
      "type": "event"
    },
    {
      "anonymous": false,
      "inputs": [
        {
          "indexed": false,
          "internalType": "address",
          "name": "account",
          "type": "address"
        }
      ],
      "name": "Unpaused",
      "type": "event"
    },
    {
      "inputs": [
        {
          "internalType": "address",
          "name": "to",
          "type": "address"
        },
        {
          "internalType": "uint256",
          "name": "tokenId",
          "type": "uint256"
        }
      ],
      "name": "approve",
      "outputs": [],
      "stateMutability": "nonpayable",
      "type": "function"
    },
    {
      "inputs": [
        {
          "internalType": "address",
          "name": "owner",
          "type": "address"
        }
      ],
      "name": "balanceOf",
      "outputs": [
        {
          "internalType": "uint256",
          "name": "",
          "type": "uint256"
        }
      ],
      "stateMutability": "view",
      "type": "function"
    },
    {
      "inputs": [],
      "name": "baseURI",
      "outputs": [
        {
          "internalType": "string",
          "name": "",
          "type": "string"
        }
      ],
      "stateMutability": "view",
      "type": "function"
    },
    {
      "inputs": [
        {
          "internalType": "uint256",
          "name": "tokenId",
          "type": "uint256"
        }
      ],
      "name": "getApproved",
      "outputs": [
        {
          "internalType": "address",
          "name": "",
          "type": "address"
        }
      ],
      "stateMutability": "view",
      "type": "function"
    },
    {
      "inputs": [
        {
          "internalType": "address",
          "name": "owner",
          "type": "address"
        },
        {
          "internalType": "address",
          "name": "operator",
          "type": "address"
        }
      ],
      "name": "isApprovedForAll",
      "outputs": [
        {
          "internalType": "bool",
          "name": "",
          "type": "bool"
        }
      ],
      "stateMutability": "view",
      "type": "function"
    },
    {
      "inputs": [],
      "name": "name",
      "outputs": [
        {
          "internalType": "string",
          "name": "",
          "type": "string"
        }
      ],
      "stateMutability": "view",
      "type": "function"
    },
    {
      "inputs": [],
      "name": "owner",
      "outputs": [
        {
          "internalType": "address",
          "name": "",
          "type": "address"
        }
      ],
      "stateMutability": "view",
      "type": "function"
    },
    {
      "inputs": [
        {
          "internalType": "uint256",
          "name": "tokenId",
          "type": "uint256"
        }
      ],
      "name": "ownerOf",
      "outputs": [
        {
          "internalType": "address",
          "name": "",
          "type": "address"
        }
      ],
      "stateMutability": "view",
      "type": "function"
    },
    {
      "inputs": [],
      "name": "paused",
      "outputs": [
        {
          "internalType": "bool",
          "name": "",
          "type": "bool"
        }
      ],
      "stateMutability": "view",
      "type": "function"
    },
    {
      "inputs": [],
      "name": "platformOwner",
      "outputs": [
        {
          "internalType": "address",
          "name": "",
          "type": "address"
        }
      ],
      "stateMutability": "view",
      "type": "function"
    },
    {
      "inputs": [
        {
          "internalType": "address",
          "name": "from",
          "type": "address"
        },
        {
          "internalType": "address",
          "name": "to",
          "type": "address"
        },
        {
          "internalType": "uint256",
          "name": "tokenId",
          "type": "uint256"
        }
      ],
      "name": "safeTransferFrom",
      "outputs": [],
      "stateMutability": "nonpayable",
      "type": "function"
    },
    {
      "inputs": [
        {
          "internalType": "address",
          "name": "from",
          "type": "address"
        },
        {
          "internalType": "address",
          "name": "to",
          "type": "address"
        },
        {
          "internalType": "uint256",
          "name": "tokenId",
          "type": "uint256"
        },
        {
          "internalType": "bytes",
          "name": "_data",
          "type": "bytes"
        }
      ],
      "name": "safeTransferFrom",
      "outputs": [],
      "stateMutability": "nonpayable",
      "type": "function"
    },
    {
      "inputs": [
        {
          "internalType": "address",
          "name": "operator",
          "type": "address"
        },
        {
          "internalType": "bool",
          "name": "approved",
          "type": "bool"
        }
      ],
      "name": "setApprovalForAll",
      "outputs": [],
      "stateMutability": "nonpayable",
      "type": "function"
    },
    {
      "inputs": [],
      "name": "stablecoin",
      "outputs": [
        {
          "internalType": "contract ERC20Interface",
          "name": "",
          "type": "address"
        }
      ],
      "stateMutability": "view",
      "type": "function"
    },
    {
      "inputs": [
        {
          "internalType": "bytes4",
          "name": "interfaceId",
          "type": "bytes4"
        }
      ],
      "name": "supportsInterface",
      "outputs": [
        {
          "internalType": "bool",
          "name": "",
          "type": "bool"
        }
      ],
      "stateMutability": "view",
      "type": "function"
    },
    {
      "inputs": [],
      "name": "symbol",
      "outputs": [
        {
          "internalType": "string",
          "name": "",
          "type": "string"
        }
      ],
      "stateMutability": "view",
      "type": "function"
    },
    {
      "inputs": [
        {
          "internalType": "uint256",
          "name": "index",
          "type": "uint256"
        }
      ],
      "name": "tokenByIndex",
      "outputs": [
        {
          "internalType": "uint256",
          "name": "",
          "type": "uint256"
        }
      ],
      "stateMutability": "view",
      "type": "function"
    },
    {
      "inputs": [
        {
          "internalType": "address",
          "name": "owner",
          "type": "address"
        },
        {
          "internalType": "uint256",
          "name": "index",
          "type": "uint256"
        }
      ],
      "name": "tokenOfOwnerByIndex",
      "outputs": [
        {
          "internalType": "uint256",
          "name": "",
          "type": "uint256"
        }
      ],
      "stateMutability": "view",
      "type": "function"
    },
    {
      "inputs": [
        {
          "internalType": "uint256",
          "name": "tokenId",
          "type": "uint256"
        }
      ],
      "name": "tokenURI",
      "outputs": [
        {
          "internalType": "string",
          "name": "",
          "type": "string"
        }
      ],
      "stateMutability": "view",
      "type": "function"
    },
    {
      "inputs": [],
      "name": "totalSupply",
      "outputs": [
        {
          "internalType": "uint256",
          "name": "",
          "type": "uint256"
        }
      ],
      "stateMutability": "view",
      "type": "function"
    },
    {
      "inputs": [
        {
          "internalType": "address",
          "name": "from",
          "type": "address"
        },
        {
          "internalType": "address",
          "name": "to",
          "type": "address"
        },
        {
          "internalType": "uint256",
          "name": "tokenId",
          "type": "uint256"
        }
      ],
      "name": "transferFrom",
      "outputs": [],
      "stateMutability": "nonpayable",
      "type": "function"
    },
    {
      "inputs": [
        {
          "internalType": "address",
          "name": "",
          "type": "address"
        }
      ],
      "name": "whitelistedMinters",
      "outputs": [
        {
          "internalType": "bool",
          "name": "",
          "type": "bool"
        }
      ],
      "stateMutability": "view",
      "type": "function"
    },
    {
      "inputs": [
        {
          "internalType": "address",
          "name": "user",
          "type": "address"
        },
        {
          "internalType": "bool",
          "name": "isPlatformOwner",
          "type": "bool"
        }
      ],
      "name": "setWhitelistedMinter",
      "outputs": [
        {
          "internalType": "bool",
          "name": "",
          "type": "bool"
        }
      ],
      "stateMutability": "nonpayable",
      "type": "function"
    },
    {
      "inputs": [
        {
          "internalType": "address",
          "name": "user",
          "type": "address"
        },
        {
          "internalType": "string",
          "name": "tokenURI",
          "type": "string"
        }
      ],
      "name": "mint",
      "outputs": [
        {
          "internalType": "uint256",
          "name": "",
          "type": "uint256"
        }
      ],
      "stateMutability": "nonpayable",
      "type": "function"
    },
    {
      "inputs": [
        {
          "internalType": "uint256",
          "name": "tokenId",
          "type": "uint256"
        }
      ],
      "name": "burn",
      "outputs": [
        {
          "internalType": "bool",
          "name": "",
          "type": "bool"
        }
      ],
      "stateMutability": "nonpayable",
      "type": "function"
    }
  ],
  "bytecode": "0x60806040523480156200001157600080fd5b5060405162003a2638038062003a26833981810160405260408110156200003757600080fd5b81019080805160405193929190846401000000008211156200005857600080fd5b838201915060208201858111156200006f57600080fd5b82518660018202830111640100000000821117156200008d57600080fd5b8083526020830192505050908051906020019080838360005b83811015620000c3578082015181840152602081019050620000a6565b50505050905090810190601f168015620000f15780820380516001836020036101000a031916815260200191505b50604052602001805160405193929190846401000000008211156200011557600080fd5b838201915060208201858111156200012c57600080fd5b82518660018202830111640100000000821117156200014a57600080fd5b8083526020830192505050908051906020019080838360005b838110156200018057808201518184015260208101905062000163565b50505050905090810190601f168015620001ae5780820380516001836020036101000a031916815260200191505b506040525050508181620001cf6301ffc9a760e01b620002af60201b60201c565b8160069080519060200190620001e7929190620003b8565b50806007908051906020019062000200929190620003b8565b50620002196380ac58cd60e01b620002af60201b60201c565b62000231635b5e139f60e01b620002af60201b60201c565b6200024963780e9d6360e01b620002af60201b60201c565b50506000600a60006101000a81548160ff02191690831515021790555033600c60006101000a81548173ffffffffffffffffffffffffffffffffffffffff021916908373ffffffffffffffffffffffffffffffffffffffff16021790555050506200046e565b63ffffffff60e01b817bffffffffffffffffffffffffffffffffffffffffffffffffffffffff191614156200034c576040517f08c379a000000000000000000000000000000000000000000000000000000000815260040180806020018281038252601c8152602001807f4552433136353a20696e76616c696420696e746572666163652069640000000081525060200191505060405180910390fd5b6001600080837bffffffffffffffffffffffffffffffffffffffffffffffffffffffff19167bffffffffffffffffffffffffffffffffffffffffffffffffffffffff1916815260200190815260200160002060006101000a81548160ff02191690831515021790555050565b828054600181600116156101000203166002900490600052602060002090601f016020900481019282620003f057600085556200043c565b82601f106200040b57805160ff19168380011785556200043c565b828001600101855582156200043c579182015b828111156200043b5782518255916020019190600101906200041e565b5b5090506200044b91906200044f565b5090565b5b808211156200046a57600081600090555060010162000450565b5090565b6135a8806200047e6000396000f3fe608060405234801561001057600080fd5b50600436106101735760003560e01c80635c975abb116100de578063a22cb46511610097578063d0def52111610071578063d0def52114610986578063e985e9c514610a75578063e9cbd82214610aef578063ed1e008514610b2357610173565b8063a22cb4651461078a578063b88d4fde146107da578063c87b56dd146108df57610173565b80635c975abb146105805780636352211e146105a05780636c0360eb146105f857806370a082311461067b5780638da5cb5b146106d357806395d89b411461070757610173565b806323b872dd1161013057806323b872dd146103885780632f745c59146103f657806342842e0e1461045857806342966c68146104c65780634df8ccb11461050a5780634f6ccce71461053e57610173565b806301ffc9a71461017857806303caa5c3146101db57806306fdde0314610241578063081812fc146102c4578063095ea7b31461031c57806318160ddd1461036a575b600080fd5b6101c36004803603602081101561018e57600080fd5b8101908080357bffffffffffffffffffffffffffffffffffffffffffffffffffffffff19169060200190929190505050610b7d565b60405180821515815260200191505060405180910390f35b610229600480360360408110156101f157600080fd5b81019080803573ffffffffffffffffffffffffffffffffffffffff169060200190929190803515159060200190929190505050610be4565b60405180821515815260200191505060405180910390f35b610249610d47565b6040518080602001828103825283818151815260200191508051906020019080838360005b8381101561028957808201518184015260208101905061026e565b50505050905090810190601f1680156102b65780820380516001836020036101000a031916815260200191505b509250505060405180910390f35b6102f0600480360360208110156102da57600080fd5b8101908080359060200190929190505050610de9565b604051808273ffffffffffffffffffffffffffffffffffffffff16815260200191505060405180910390f35b6103686004803603604081101561033257600080fd5b81019080803573ffffffffffffffffffffffffffffffffffffffff16906020019092919080359060200190929190505050610e84565b005b610372610fc8565b6040518082815260200191505060405180910390f35b6103f46004803603606081101561039e57600080fd5b81019080803573ffffffffffffffffffffffffffffffffffffffff169060200190929190803573ffffffffffffffffffffffffffffffffffffffff16906020019092919080359060200190929190505050610fd9565b005b6104426004803603604081101561040c57600080fd5b81019080803573ffffffffffffffffffffffffffffffffffffffff1690602001909291908035906020019092919050505061104f565b6040518082815260200191505060405180910390f35b6104c46004803603606081101561046e57600080fd5b81019080803573ffffffffffffffffffffffffffffffffffffffff169060200190929190803573ffffffffffffffffffffffffffffffffffffffff169060200190929190803590602001909291905050506110aa565b005b6104f2600480360360208110156104dc57600080fd5b81019080803590602001909291905050506110ca565b60405180821515815260200191505060405180910390f35b610512611184565b604051808273ffffffffffffffffffffffffffffffffffffffff16815260200191505060405180910390f35b61056a6004803603602081101561055457600080fd5b81019080803590602001909291905050506111aa565b6040518082815260200191505060405180910390f35b6105886111cd565b60405180821515815260200191505060405180910390f35b6105cc600480360360208110156105b657600080fd5b81019080803590602001909291905050506111e4565b604051808273ffffffffffffffffffffffffffffffffffffffff16815260200191505060405180910390f35b61060061121b565b6040518080602001828103825283818151815260200191508051906020019080838360005b83811015610640578082015181840152602081019050610625565b50505050905090810190601f16801561066d5780820380516001836020036101000a031916815260200191505b509250505060405180910390f35b6106bd6004803603602081101561069157600080fd5b81019080803573ffffffffffffffffffffffffffffffffffffffff1690602001909291905050506112bd565b6040518082815260200191505060405180910390f35b6106db611392565b604051808273ffffffffffffffffffffffffffffffffffffffff16815260200191505060405180910390f35b61070f6113b8565b6040518080602001828103825283818151815260200191508051906020019080838360005b8381101561074f578082015181840152602081019050610734565b50505050905090810190601f16801561077c5780820380516001836020036101000a031916815260200191505b509250505060405180910390f35b6107d8600480360360408110156107a057600080fd5b81019080803573ffffffffffffffffffffffffffffffffffffffff16906020019092919080351515906020019092919050505061145a565b005b6108dd600480360360808110156107f057600080fd5b81019080803573ffffffffffffffffffffffffffffffffffffffff169060200190929190803573ffffffffffffffffffffffffffffffffffffffff169060200190929190803590602001909291908035906020019064010000000081111561085757600080fd5b82018360208201111561086957600080fd5b8035906020019184600183028401116401000000008311171561088b57600080fd5b91908080601f016020809104026020016040519081016040528093929190818152602001838380828437600081840152601f19601f820116905080830192505050505050509192919290505050611610565b005b61090b600480360360208110156108f557600080fd5b8101908080359060200190929190505050611688565b6040518080602001828103825283818151815260200191508051906020019080838360005b8381101561094b578082015181840152602081019050610930565b50505050905090810190601f1680156109785780820380516001836020036101000a031916815260200191505b509250505060405180910390f35b610a5f6004803603604081101561099c57600080fd5b81019080803573ffffffffffffffffffffffffffffffffffffffff169060200190929190803590602001906401000000008111156109d957600080fd5b8201836020820111156109eb57600080fd5b80359060200191846001830284011164010000000083111715610a0d57600080fd5b91908080601f016020809104026020016040519081016040528093929190818152602001838380828437600081840152601f19601f820116905080830192505050505050509192919290505050611971565b6040518082815260200191505060405180910390f35b610ad760048036036040811015610a8b57600080fd5b81019080803573ffffffffffffffffffffffffffffffffffffffff169060200190929190803573ffffffffffffffffffffffffffffffffffffffff169060200190929190505050611a76565b60405180821515815260200191505060405180910390f35b610af7611b0a565b604051808273ffffffffffffffffffffffffffffffffffffffff16815260200191505060405180910390f35b610b6560048036036020811015610b3957600080fd5b81019080803573ffffffffffffffffffffffffffffffffffffffff169060200190929190505050611b30565b60405180821515815260200191505060405180910390f35b6000806000837bffffffffffffffffffffffffffffffffffffffffffffffffffffffff19167bffffffffffffffffffffffffffffffffffffffffffffffffffffffff1916815260200190815260200160002060009054906101000a900460ff169050919050565b6000600c60009054906101000a900473ffffffffffffffffffffffffffffffffffffffff1673ffffffffffffffffffffffffffffffffffffffff163373ffffffffffffffffffffffffffffffffffffffff1614610c4057600080fd5b8115610ce45782600f60006101000a81548173ffffffffffffffffffffffffffffffffffffffff021916908373ffffffffffffffffffffffffffffffffffffffff1602179055506001600e60008573ffffffffffffffffffffffffffffffffffffffff1673ffffffffffffffffffffffffffffffffffffffff16815260200190815260200160002060006101000a81548160ff021916908315150217905550610d3d565b6001600e60008573ffffffffffffffffffffffffffffffffffffffff1673ffffffffffffffffffffffffffffffffffffffff16815260200190815260200160002060006101000a81548160ff0219169083151502179055505b6001905092915050565b606060068054600181600116156101000203166002900480601f016020809104026020016040519081016040528092919081815260200182805460018160011615610100020316600290048015610ddf5780601f10610db457610100808354040283529160200191610ddf565b820191906000526020600020905b815481529060010190602001808311610dc257829003601f168201915b5050505050905090565b6000610df482611b50565b610e49576040517f08c379a000000000000000000000000000000000000000000000000000000000815260040180806020018281038252602c815260200180613471602c913960400191505060405180910390fd5b6004600083815260200190815260200160002060009054906101000a900473ffffffffffffffffffffffffffffffffffffffff169050919050565b6000610e8f826111e4565b90508073ffffffffffffffffffffffffffffffffffffffff168373ffffffffffffffffffffffffffffffffffffffff161415610f16576040517f08c379a00000000000000000000000000000000000000000000000000000000081526004018080602001828103825260218152602001806135216021913960400191505060405180910390fd5b8073ffffffffffffffffffffffffffffffffffffffff16610f35611b6d565b73ffffffffffffffffffffffffffffffffffffffff161480610f645750610f6381610f5e611b6d565b611a76565b5b610fb9576040517f08c379a00000000000000000000000000000000000000000000000000000000081526004018080602001828103825260388152602001806133a06038913960400191505060405180910390fd5b610fc38383611b75565b505050565b6000610fd46002611c2e565b905090565b610fea610fe4611b6d565b82611c43565b61103f576040517f08c379a00000000000000000000000000000000000000000000000000000000081526004018080602001828103825260318152602001806135426031913960400191505060405180910390fd5b61104a838383611d37565b505050565b60006110a282600160008673ffffffffffffffffffffffffffffffffffffffff1673ffffffffffffffffffffffffffffffffffffffff168152602001908152602001600020611f7a90919063ffffffff16565b905092915050565b6110c583838360405180602001604052806000815250611610565b505050565b6000600f60009054906101000a900473ffffffffffffffffffffffffffffffffffffffff1673ffffffffffffffffffffffffffffffffffffffff163373ffffffffffffffffffffffffffffffffffffffff1614611172576040517f08c379a000000000000000000000000000000000000000000000000000000000815260040180806020018281038252602481526020018061344d6024913960400191505060405180910390fd5b61117b82611f94565b60019050919050565b600f60009054906101000a900473ffffffffffffffffffffffffffffffffffffffff1681565b6000806111c18360026120ce90919063ffffffff16565b50905080915050919050565b6000600a60009054906101000a900460ff16905090565b6000611214826040518060600160405280602981526020016134026029913960026120fa9092919063ffffffff16565b9050919050565b606060098054600181600116156101000203166002900480601f0160208091040260200160405190810160405280929190818152602001828054600181600116156101000203166002900480156112b35780601f10611288576101008083540402835291602001916112b3565b820191906000526020600020905b81548152906001019060200180831161129657829003601f168201915b5050505050905090565b60008073ffffffffffffffffffffffffffffffffffffffff168273ffffffffffffffffffffffffffffffffffffffff161415611344576040517f08c379a000000000000000000000000000000000000000000000000000000000815260040180806020018281038252602a8152602001806133d8602a913960400191505060405180910390fd5b61138b600160008473ffffffffffffffffffffffffffffffffffffffff1673ffffffffffffffffffffffffffffffffffffffff168152602001908152602001600020612119565b9050919050565b600c60009054906101000a900473ffffffffffffffffffffffffffffffffffffffff1681565b606060078054600181600116156101000203166002900480601f0160208091040260200160405190810160405280929190818152602001828054600181600116156101000203166002900480156114505780601f1061142557610100808354040283529160200191611450565b820191906000526020600020905b81548152906001019060200180831161143357829003601f168201915b5050505050905090565b611462611b6d565b73ffffffffffffffffffffffffffffffffffffffff168273ffffffffffffffffffffffffffffffffffffffff161415611503576040517f08c379a00000000000000000000000000000000000000000000000000000000081526004018080602001828103825260198152602001807f4552433732313a20617070726f766520746f2063616c6c65720000000000000081525060200191505060405180910390fd5b8060056000611510611b6d565b73ffffffffffffffffffffffffffffffffffffffff1673ffffffffffffffffffffffffffffffffffffffff16815260200190815260200160002060008473ffffffffffffffffffffffffffffffffffffffff1673ffffffffffffffffffffffffffffffffffffffff16815260200190815260200160002060006101000a81548160ff0219169083151502179055508173ffffffffffffffffffffffffffffffffffffffff166115bd611b6d565b73ffffffffffffffffffffffffffffffffffffffff167f17307eab39ab6107e8899845ad3d59bd9653f200f220920489ca2b5937696c318360405180821515815260200191505060405180910390a35050565b61162161161b611b6d565b83611c43565b611676576040517f08c379a00000000000000000000000000000000000000000000000000000000081526004018080602001828103825260318152602001806135426031913960400191505060405180910390fd5b6116828484848461212e565b50505050565b606061169382611b50565b6116e8576040517f08c379a000000000000000000000000000000000000000000000000000000000815260040180806020018281038252602f8152602001806134f2602f913960400191505060405180910390fd5b6000600860008481526020019081526020016000208054600181600116156101000203166002900480601f0160208091040260200160405190810160405280929190818152602001828054600181600116156101000203166002900480156117915780601f1061176657610100808354040283529160200191611791565b820191906000526020600020905b81548152906001019060200180831161177457829003601f168201915b505050505090506000600980546001816001161561010002031660029004905014156117c0578091505061196c565b60008151111561189957600981604051602001808380546001816001161561010002031660029004801561182b5780601f1061180957610100808354040283529182019161182b565b820191906000526020600020905b815481529060010190602001808311611817575b505082805190602001908083835b6020831061185c5780518252602082019150602081019050602083039250611839565b6001836020036101000a0380198251168184511680821785525050505050509050019250505060405160208183030381529060405291505061196c565b60096118a4846121a0565b60405160200180838054600181600116156101000203166002900480156119025780601f106118e0576101008083540402835291820191611902565b820191906000526020600020905b8154815290600101906020018083116118ee575b505082805190602001908083835b602083106119335780518252602082019150602081019050602083039250611910565b6001836020036101000a038019825116818451168082178552505050505050905001925050506040516020818303038152906040529150505b919050565b6000600e60003373ffffffffffffffffffffffffffffffffffffffff1673ffffffffffffffffffffffffffffffffffffffff16815260200190815260200160002060009054906101000a900460ff16611a32576040517f08c379a000000000000000000000000000000000000000000000000000000000815260040180806020018281038252601d8152602001807f5573657220686173206e6f74206265656e2077686974656c697374656400000081525060200191505060405180910390fd5b611a3c600b6122e7565b6000611a48600b6122fd565b9050611a54848261230b565b611a5e8184612329565b600f60009054906101000a9050508091505092915050565b6000600560008473ffffffffffffffffffffffffffffffffffffffff1673ffffffffffffffffffffffffffffffffffffffff16815260200190815260200160002060008373ffffffffffffffffffffffffffffffffffffffff1673ffffffffffffffffffffffffffffffffffffffff16815260200190815260200160002060009054906101000a900460ff16905092915050565b600d60009054906101000a900473ffffffffffffffffffffffffffffffffffffffff1681565b600e6020528060005260406000206000915054906101000a900460ff1681565b6000611b668260026123b390919063ffffffff16565b9050919050565b600033905090565b816004600083815260200190815260200160002060006101000a81548173ffffffffffffffffffffffffffffffffffffffff021916908373ffffffffffffffffffffffffffffffffffffffff160217905550808273ffffffffffffffffffffffffffffffffffffffff16611be8836111e4565b73ffffffffffffffffffffffffffffffffffffffff167f8c5be1e5ebec7d5bd14f71427d1e84f3dd0314c0f7b2291e5b200ac8c7c3b92560405160405180910390a45050565b6000611c3c826000016123cd565b9050919050565b6000611c4e82611b50565b611ca3576040517f08c379a000000000000000000000000000000000000000000000000000000000815260040180806020018281038252602c815260200180613374602c913960400191505060405180910390fd5b6000611cae836111e4565b90508073ffffffffffffffffffffffffffffffffffffffff168473ffffffffffffffffffffffffffffffffffffffff161480611d1d57508373ffffffffffffffffffffffffffffffffffffffff16611d0584610de9565b73ffffffffffffffffffffffffffffffffffffffff16145b80611d2e5750611d2d8185611a76565b5b91505092915050565b8273ffffffffffffffffffffffffffffffffffffffff16611d57826111e4565b73ffffffffffffffffffffffffffffffffffffffff1614611dc3576040517f08c379a00000000000000000000000000000000000000000000000000000000081526004018080602001828103825260298152602001806134c96029913960400191505060405180910390fd5b600073ffffffffffffffffffffffffffffffffffffffff168273ffffffffffffffffffffffffffffffffffffffff161415611e49576040517f08c379a000000000000000000000000000000000000000000000000000000000815260040180806020018281038252602481526020018061332a6024913960400191505060405180910390fd5b611e548383836123de565b611e5f600082611b75565b611eb081600160008673ffffffffffffffffffffffffffffffffffffffff1673ffffffffffffffffffffffffffffffffffffffff1681526020019081526020016000206123ee90919063ffffffff16565b50611f0281600160008573ffffffffffffffffffffffffffffffffffffffff1673ffffffffffffffffffffffffffffffffffffffff16815260200190815260200160002061240890919063ffffffff16565b50611f19818360026124229092919063ffffffff16565b50808273ffffffffffffffffffffffffffffffffffffffff168473ffffffffffffffffffffffffffffffffffffffff167fddf252ad1be2c89b69c2b068fc378daa952ba7f163c4a11628f55a4df523b3ef60405160405180910390a4505050565b6000611f898360000183612457565b60001c905092915050565b6000611f9f826111e4565b9050611fad816000846123de565b611fb8600083611b75565b600060086000848152602001908152602001600020805460018160011615610100020316600290049050146120075760086000838152602001908152602001600020600061200691906131b7565b5b61205882600160008473ffffffffffffffffffffffffffffffffffffffff1673ffffffffffffffffffffffffffffffffffffffff1681526020019081526020016000206123ee90919063ffffffff16565b5061206d8260026124da90919063ffffffff16565b5081600073ffffffffffffffffffffffffffffffffffffffff168273ffffffffffffffffffffffffffffffffffffffff167fddf252ad1be2c89b69c2b068fc378daa952ba7f163c4a11628f55a4df523b3ef60405160405180910390a45050565b6000806000806120e186600001866124f4565b915091508160001c8160001c9350935050509250929050565b600061210d846000018460001b8461258d565b60001c90509392505050565b600061212782600001612683565b9050919050565b612139848484611d37565b61214584848484612694565b61219a576040517f08c379a00000000000000000000000000000000000000000000000000000000081526004018080602001828103825260328152602001806132f86032913960400191505060405180910390fd5b50505050565b606060008214156121e8576040518060400160405280600181526020017f300000000000000000000000000000000000000000000000000000000000000081525090506122e2565b600082905060005b60008214612212578080600101915050600a828161220a57fe5b0491506121f0565b60008167ffffffffffffffff8111801561222b57600080fd5b506040519080825280601f01601f19166020018201604052801561225e5781602001600182028036833780820191505090505b50905060006001830390508593505b600084146122da57600a848161227f57fe5b0660300160f81b8282806001900393508151811061229957fe5b60200101907effffffffffffffffffffffffffffffffffffffffffffffffffffffffffffff1916908160001a905350600a84816122d257fe5b04935061226d565b819450505050505b919050565b6001816000016000828254019250508190555050565b600081600001549050919050565b6123258282604051806020016040528060008152506128ad565b5050565b61233282611b50565b612387576040517f08c379a000000000000000000000000000000000000000000000000000000000815260040180806020018281038252602c81526020018061349d602c913960400191505060405180910390fd5b806008600084815260200190815260200160002090805190602001906123ae9291906131ff565b505050565b60006123c5836000018360001b61291e565b905092915050565b600081600001805490509050919050565b6123e9838383612941565b505050565b6000612400836000018360001b6129af565b905092915050565b600061241a836000018360001b612a97565b905092915050565b600061244e846000018460001b8473ffffffffffffffffffffffffffffffffffffffff1660001b612b07565b90509392505050565b6000818360000180549050116124b8576040517f08c379a00000000000000000000000000000000000000000000000000000000081526004018080602001828103825260228152602001806132ab6022913960400191505060405180910390fd5b8260000182815481106124c757fe5b9060005260206000200154905092915050565b60006124ec836000018360001b612be3565b905092915050565b60008082846000018054905011612556576040517f08c379a000000000000000000000000000000000000000000000000000000000815260040180806020018281038252602281526020018061342b6022913960400191505060405180910390fd5b600084600001848154811061256757fe5b906000526020600020906002020190508060000154816001015492509250509250929050565b60008084600101600085815260200190815260200160002054905060008114158390612654576040517f08c379a00000000000000000000000000000000000000000000000000000000081526004018080602001828103825283818151815260200191508051906020019080838360005b838110156126195780820151818401526020810190506125fe565b50505050905090810190601f1680156126465780820380516001836020036101000a031916815260200191505b509250505060405180910390fd5b5084600001600182038154811061266757fe5b9060005260206000209060020201600101549150509392505050565b600081600001805490509050919050565b60006126b58473ffffffffffffffffffffffffffffffffffffffff16612cfc565b6126c257600190506128a5565b600061282c63150b7a0260e01b6126d7611b6d565b888787604051602401808573ffffffffffffffffffffffffffffffffffffffff1681526020018473ffffffffffffffffffffffffffffffffffffffff16815260200183815260200180602001828103825283818151815260200191508051906020019080838360005b8381101561275b578082015181840152602081019050612740565b50505050905090810190601f1680156127885780820380516001836020036101000a031916815260200191505b5095505050505050604051602081830303815290604052907bffffffffffffffffffffffffffffffffffffffffffffffffffffffff19166020820180517bffffffffffffffffffffffffffffffffffffffffffffffffffffffff83818316178352505050506040518060600160405280603281526020016132f8603291398773ffffffffffffffffffffffffffffffffffffffff16612d0f9092919063ffffffff16565b9050600081806020019051602081101561284557600080fd5b8101908080519060200190929190505050905063150b7a0260e01b7bffffffffffffffffffffffffffffffffffffffffffffffffffffffff1916817bffffffffffffffffffffffffffffffffffffffffffffffffffffffff191614925050505b949350505050565b6128b78383612d27565b6128c46000848484612694565b612919576040517f08c379a00000000000000000000000000000000000000000000000000000000081526004018080602001828103825260328152602001806132f86032913960400191505060405180910390fd5b505050565b600080836001016000848152602001908152602001600020541415905092915050565b61294c838383612f1b565b6129546111cd565b156129aa576040517f08c379a000000000000000000000000000000000000000000000000000000000815260040180806020018281038252602b8152602001806132cd602b913960400191505060405180910390fd5b505050565b60008083600101600084815260200190815260200160002054905060008114612a8b57600060018203905060006001866000018054905003905060008660000182815481106129fa57fe5b9060005260206000200154905080876000018481548110612a1757fe5b9060005260206000200181905550600183018760010160008381526020019081526020016000208190555086600001805480612a4f57fe5b60019003818190600052602060002001600090559055866001016000878152602001908152602001600020600090556001945050505050612a91565b60009150505b92915050565b6000612aa38383612f20565b612afc578260000182908060018154018082558091505060019003906000526020600020016000909190919091505582600001805490508360010160008481526020019081526020016000208190555060019050612b01565b600090505b92915050565b6000808460010160008581526020019081526020016000205490506000811415612bae57846000016040518060400160405280868152602001858152509080600181540180825580915050600190039060005260206000209060020201600090919091909150600082015181600001556020820151816001015550508460000180549050856001016000868152602001908152602001600020819055506001915050612bdc565b82856000016001830381548110612bc157fe5b90600052602060002090600202016001018190555060009150505b9392505050565b60008083600101600084815260200190815260200160002054905060008114612cf05760006001820390506000600186600001805490500390506000866000018281548110612c2e57fe5b9060005260206000209060020201905080876000018481548110612c4e57fe5b9060005260206000209060020201600082015481600001556001820154816001015590505060018301876001016000836000015481526020019081526020016000208190555086600001805480612ca157fe5b6001900381819060005260206000209060020201600080820160009055600182016000905550509055866001016000878152602001908152602001600020600090556001945050505050612cf6565b60009150505b92915050565b600080823b905060008111915050919050565b6060612d1e8484600085612f43565b90509392505050565b600073ffffffffffffffffffffffffffffffffffffffff168273ffffffffffffffffffffffffffffffffffffffff161415612dca576040517f08c379a00000000000000000000000000000000000000000000000000000000081526004018080602001828103825260208152602001807f4552433732313a206d696e7420746f20746865207a65726f206164647265737381525060200191505060405180910390fd5b612dd381611b50565b15612e46576040517f08c379a000000000000000000000000000000000000000000000000000000000815260040180806020018281038252601c8152602001807f4552433732313a20746f6b656e20616c7265616479206d696e7465640000000081525060200191505060405180910390fd5b612e52600083836123de565b612ea381600160008573ffffffffffffffffffffffffffffffffffffffff1673ffffffffffffffffffffffffffffffffffffffff16815260200190815260200160002061240890919063ffffffff16565b50612eba818360026124229092919063ffffffff16565b50808273ffffffffffffffffffffffffffffffffffffffff16600073ffffffffffffffffffffffffffffffffffffffff167fddf252ad1be2c89b69c2b068fc378daa952ba7f163c4a11628f55a4df523b3ef60405160405180910390a45050565b505050565b600080836001016000848152602001908152602001600020541415905092915050565b606082471015612f9e576040517f08c379a000000000000000000000000000000000000000000000000000000000815260040180806020018281038252602681526020018061334e6026913960400191505060405180910390fd5b612fa785612cfc565b613019576040517f08c379a000000000000000000000000000000000000000000000000000000000815260040180806020018281038252601d8152602001807f416464726573733a2063616c6c20746f206e6f6e2d636f6e747261637400000081525060200191505060405180910390fd5b6000808673ffffffffffffffffffffffffffffffffffffffff1685876040518082805190602001908083835b602083106130685780518252602082019150602081019050602083039250613045565b6001836020036101000a03801982511681845116808217855250505050505090500191505060006040518083038185875af1925050503d80600081146130ca576040519150601f19603f3d011682016040523d82523d6000602084013e6130cf565b606091505b50915091506130df8282866130eb565b92505050949350505050565b606083156130fb578290506131b0565b60008351111561310e5782518084602001fd5b816040517f08c379a00000000000000000000000000000000000000000000000000000000081526004018080602001828103825283818151815260200191508051906020019080838360005b8381101561317557808201518184015260208101905061315a565b50505050905090810190601f1680156131a25780820380516001836020036101000a031916815260200191505b509250505060405180910390fd5b9392505050565b50805460018160011615610100020316600290046000825580601f106131dd57506131fc565b601f0160209004906000526020600020908101906131fb919061328d565b5b50565b828054600181600116156101000203166002900490600052602060002090601f016020900481019282613235576000855561327c565b82601f1061324e57805160ff191683800117855561327c565b8280016001018555821561327c579182015b8281111561327b578251825591602001919060010190613260565b5b509050613289919061328d565b5090565b5b808211156132a657600081600090555060010161328e565b509056fe456e756d657261626c655365743a20696e646578206f7574206f6620626f756e64734552433732315061757361626c653a20746f6b656e207472616e73666572207768696c65207061757365644552433732313a207472616e7366657220746f206e6f6e20455243373231526563656976657220696d706c656d656e7465724552433732313a207472616e7366657220746f20746865207a65726f2061646472657373416464726573733a20696e73756666696369656e742062616c616e636520666f722063616c6c4552433732313a206f70657261746f7220717565727920666f72206e6f6e6578697374656e7420746f6b656e4552433732313a20617070726f76652063616c6c6572206973206e6f74206f776e6572206e6f7220617070726f76656420666f7220616c6c4552433732313a2062616c616e636520717565727920666f7220746865207a65726f20616464726573734552433732313a206f776e657220717565727920666f72206e6f6e6578697374656e7420746f6b656e456e756d657261626c654d61703a20696e646578206f7574206f6620626f756e64734275726e206f6e6c7920616c6c6f7765642076696120706c6174666f726d206f776e65724552433732313a20617070726f76656420717565727920666f72206e6f6e6578697374656e7420746f6b656e4552433732314d657461646174613a2055524920736574206f66206e6f6e6578697374656e7420746f6b656e4552433732313a207472616e73666572206f6620746f6b656e2074686174206973206e6f74206f776e4552433732314d657461646174613a2055524920717565727920666f72206e6f6e6578697374656e7420746f6b656e4552433732313a20617070726f76616c20746f2063757272656e74206f776e65724552433732313a207472616e736665722063616c6c6572206973206e6f74206f776e6572206e6f7220617070726f766564a2646970667358221220935d676887651ae4feb4b33fddd4c23a5d03bdef57fa29e52e9feb72ccc9c8e364736f6c63430007060033",
  "immutableReferences": {},
  "source": "pragma solidity ^0.7.0;\nimport \"@openzeppelin/contracts/token/ERC721/ERC721Pausable.sol\";\nimport \"@openzeppelin/contracts/utils/Counters.sol\";\nimport \"./ERC20Interface.sol\";\n\ncontract XDV is ERC721Pausable {\n \n    using Counters for Counters.Counter;\n    using SafeMath for uint;\n    Counters.Counter private _tokenIds;\n    address public owner;\n    ERC20Interface public stablecoin;\n    mapping(address => bool) public whitelistedMinters;\n    address public platformOwner;\n\n    /**\n    * XDV Data Token\n    */\n    constructor(\n        string memory name,\n        string memory symbol\n    ) public ERC721(name, symbol) {\n        owner = msg.sender;\n    }\n   \n    function setWhitelistedMinter(address user, bool isPlatformOwner)\n        public\n        returns (bool)\n    {\n        require(msg.sender == owner);\n        if (isPlatformOwner) {\n          platformOwner = user;\n          whitelistedMinters[user] = true;\n        } else {\n            whitelistedMinters[user] = true;\n        }\n\n        return true;\n    }\n\n    /**\n     * @dev Mints a XDV Data Token if whitelisted\n     */\n    function mint(address user, string memory tokenURI)\n        public\n        returns (uint256)\n    {\n        require(whitelistedMinters[msg.sender], \"User has not been whitelisted\");\n        _tokenIds.increment();\n\n        uint256 newItemId = _tokenIds.current();\n        _safeMint(user, newItemId);\n        _setTokenURI(newItemId, tokenURI);\n\n        // minted, remove user\n        if (msg.sender != platformOwner) {\n            // whitelistedMinters[msg.sender] = false;\n        }\n  \n        return newItemId;\n    }   \n\n    function burn(uint tokenId)\n        public\n        returns (bool)\n    {\n        require(msg.sender == platformOwner, \"Burn only allowed via platform owner\");\n        \n        _burn(tokenId);\n        return true;\n    }       \n\n      function _beforeTokenTransfer(address from, address to, uint256 amount)\n        internal virtual override\n    {\n        super._beforeTokenTransfer(from, to, amount);\n\n//        require(_validRecipient(to), \"ERC20WithSafeTransfer: invalid recipient\");\n    }\n\n}",
  "sourcePath": "/home/rogelio/Code/xdv/nft-document-swap/contracts/XDV.sol",
  "compiler": {
    "name": "solc",
    "version": "0.7.6+commit.7338295f.Emscripten.clang"
  },
  "schemaVersion": "3.3.3",
  "updatedAt": "2021-02-19T19:43:58.262Z",
  "devdoc": {
    "kind": "dev",
    "methods": {
      "approve(address,uint256)": {
        "details": "See {IERC721-approve}."
      },
      "balanceOf(address)": {
        "details": "See {IERC721-balanceOf}."
      },
      "baseURI()": {
        "details": "Returns the base URI set via {_setBaseURI}. This will be automatically added as a prefix in {tokenURI} to each token's URI, or to the token ID if no specific URI is set for that token ID."
      },
      "getApproved(uint256)": {
        "details": "See {IERC721-getApproved}."
      },
      "isApprovedForAll(address,address)": {
        "details": "See {IERC721-isApprovedForAll}."
      },
      "mint(address,string)": {
        "details": "Mints a XDV Data Token if whitelisted"
      },
      "name()": {
        "details": "See {IERC721Metadata-name}."
      },
      "ownerOf(uint256)": {
        "details": "See {IERC721-ownerOf}."
      },
      "paused()": {
        "details": "Returns true if the contract is paused, and false otherwise."
      },
      "safeTransferFrom(address,address,uint256)": {
        "details": "See {IERC721-safeTransferFrom}."
      },
      "safeTransferFrom(address,address,uint256,bytes)": {
        "details": "See {IERC721-safeTransferFrom}."
      },
      "setApprovalForAll(address,bool)": {
        "details": "See {IERC721-setApprovalForAll}."
      },
      "supportsInterface(bytes4)": {
        "details": "See {IERC165-supportsInterface}. Time complexity O(1), guaranteed to always use less than 30 000 gas."
      },
      "symbol()": {
        "details": "See {IERC721Metadata-symbol}."
      },
      "tokenByIndex(uint256)": {
        "details": "See {IERC721Enumerable-tokenByIndex}."
      },
      "tokenOfOwnerByIndex(address,uint256)": {
        "details": "See {IERC721Enumerable-tokenOfOwnerByIndex}."
      },
      "tokenURI(uint256)": {
        "details": "See {IERC721Metadata-tokenURI}."
      },
      "totalSupply()": {
        "details": "See {IERC721Enumerable-totalSupply}."
      },
      "transferFrom(address,address,uint256)": {
        "details": "See {IERC721-transferFrom}."
      }
    },
    "version": 1
  },
  "userdoc": {
    "kind": "user",
    "methods": {
      "constructor": {
        "notice": "XDV Data Token"
      }
    },
    "version": 1
  }
}