{
  "contractName": "XDV",
  "abi": [
    {
      "inputs": [
        {
          "internalType": "string",
          "name": "name",
          "type": "string"
        },
        {
          "internalType": "string",
          "name": "symbol",
          "type": "string"
        },
        {
          "internalType": "address",
          "name": "tokenERC20",
          "type": "address"
        },
        {
          "internalType": "address",
          "name": "newPaymentAddress",
          "type": "address"
        }
      ],
      "stateMutability": "nonpayable",
      "type": "constructor"
    },
    {
      "anonymous": false,
      "inputs": [
        {
          "indexed": true,
          "internalType": "address",
          "name": "owner",
          "type": "address"
        },
        {
          "indexed": true,
          "internalType": "address",
          "name": "approved",
          "type": "address"
        },
        {
          "indexed": true,
          "internalType": "uint256",
          "name": "tokenId",
          "type": "uint256"
        }
      ],
      "name": "Approval",
      "type": "event"
    },
    {
      "anonymous": false,
      "inputs": [
        {
          "indexed": true,
          "internalType": "address",
          "name": "owner",
          "type": "address"
        },
        {
          "indexed": true,
          "internalType": "address",
          "name": "operator",
          "type": "address"
        },
        {
          "indexed": false,
          "internalType": "bool",
          "name": "approved",
          "type": "bool"
        }
      ],
      "name": "ApprovalForAll",
      "type": "event"
    },
    {
      "anonymous": false,
      "inputs": [
        {
          "indexed": true,
          "internalType": "address",
          "name": "previousOwner",
          "type": "address"
        },
        {
          "indexed": true,
          "internalType": "address",
          "name": "newOwner",
          "type": "address"
        }
      ],
      "name": "OwnershipTransferred",
      "type": "event"
    },
    {
      "anonymous": false,
      "inputs": [
        {
          "indexed": false,
          "internalType": "address",
          "name": "account",
          "type": "address"
        }
      ],
      "name": "Paused",
      "type": "event"
    },
    {
      "anonymous": false,
      "inputs": [
        {
          "indexed": true,
          "internalType": "address",
          "name": "from",
          "type": "address"
        },
        {
          "indexed": true,
          "internalType": "address",
          "name": "paymentAddress",
          "type": "address"
        },
        {
          "indexed": false,
          "internalType": "uint256",
          "name": "paidToContract",
          "type": "uint256"
        },
        {
          "indexed": false,
          "internalType": "uint256",
          "name": "paidToPaymentAddress",
          "type": "uint256"
        }
      ],
      "name": "ServiceFeePaid",
      "type": "event"
    },
    {
      "anonymous": false,
      "inputs": [
        {
          "indexed": true,
          "internalType": "address",
          "name": "from",
          "type": "address"
        },
        {
          "indexed": true,
          "internalType": "address",
          "name": "to",
          "type": "address"
        },
        {
          "indexed": true,
          "internalType": "uint256",
          "name": "tokenId",
          "type": "uint256"
        }
      ],
      "name": "Transfer",
      "type": "event"
    },
    {
      "anonymous": false,
      "inputs": [
        {
          "indexed": false,
          "internalType": "address",
          "name": "account",
          "type": "address"
        }
      ],
      "name": "Unpaused",
      "type": "event"
    },
    {
      "anonymous": false,
      "inputs": [
        {
          "indexed": true,
          "internalType": "address",
          "name": "paymentAddress",
          "type": "address"
        },
        {
          "indexed": false,
          "internalType": "uint256",
          "name": "amount",
          "type": "uint256"
        }
      ],
      "name": "Withdrawn",
      "type": "event"
    },
    {
      "inputs": [
        {
          "internalType": "address",
          "name": "to",
          "type": "address"
        },
        {
          "internalType": "uint256",
          "name": "tokenId",
          "type": "uint256"
        }
      ],
      "name": "approve",
      "outputs": [],
      "stateMutability": "nonpayable",
      "type": "function"
    },
    {
      "inputs": [
        {
          "internalType": "address",
          "name": "owner",
          "type": "address"
        }
      ],
      "name": "balanceOf",
      "outputs": [
        {
          "internalType": "uint256",
          "name": "",
          "type": "uint256"
        }
      ],
      "stateMutability": "view",
      "type": "function",
      "constant": true
    },
    {
      "inputs": [
        {
          "internalType": "uint256",
          "name": "tokenId",
          "type": "uint256"
        }
      ],
      "name": "burn",
      "outputs": [],
      "stateMutability": "nonpayable",
      "type": "function"
    },
    {
      "inputs": [
        {
          "internalType": "uint256",
          "name": "tokenId",
          "type": "uint256"
        }
      ],
      "name": "getApproved",
      "outputs": [
        {
          "internalType": "address",
          "name": "",
          "type": "address"
        }
      ],
      "stateMutability": "view",
      "type": "function",
      "constant": true
    },
    {
      "inputs": [
        {
          "internalType": "address",
          "name": "owner",
          "type": "address"
        },
        {
          "internalType": "address",
          "name": "operator",
          "type": "address"
        }
      ],
      "name": "isApprovedForAll",
      "outputs": [
        {
          "internalType": "bool",
          "name": "",
          "type": "bool"
        }
      ],
      "stateMutability": "view",
      "type": "function",
      "constant": true
    },
    {
      "inputs": [],
      "name": "name",
      "outputs": [
        {
          "internalType": "string",
          "name": "",
          "type": "string"
        }
      ],
      "stateMutability": "view",
      "type": "function",
      "constant": true
    },
    {
      "inputs": [],
      "name": "owner",
      "outputs": [
        {
          "internalType": "address",
          "name": "",
          "type": "address"
        }
      ],
      "stateMutability": "view",
      "type": "function",
      "constant": true
    },
    {
      "inputs": [
        {
          "internalType": "uint256",
          "name": "tokenId",
          "type": "uint256"
        }
      ],
      "name": "ownerOf",
      "outputs": [
        {
          "internalType": "address",
          "name": "",
          "type": "address"
        }
      ],
      "stateMutability": "view",
      "type": "function",
      "constant": true
    },
    {
      "inputs": [],
      "name": "paused",
      "outputs": [
        {
          "internalType": "bool",
          "name": "",
          "type": "bool"
        }
      ],
      "stateMutability": "view",
      "type": "function",
      "constant": true
    },
    {
      "inputs": [],
      "name": "paymentAddress",
      "outputs": [
        {
          "internalType": "address",
          "name": "",
          "type": "address"
        }
      ],
      "stateMutability": "view",
      "type": "function",
      "constant": true
    },
    {
      "inputs": [],
      "name": "renounceOwnership",
      "outputs": [],
      "stateMutability": "nonpayable",
      "type": "function"
    },
    {
      "inputs": [
        {
          "internalType": "address",
          "name": "from",
          "type": "address"
        },
        {
          "internalType": "address",
          "name": "to",
          "type": "address"
        },
        {
          "internalType": "uint256",
          "name": "tokenId",
          "type": "uint256"
        }
      ],
      "name": "safeTransferFrom",
      "outputs": [],
      "stateMutability": "nonpayable",
      "type": "function"
    },
    {
      "inputs": [
        {
          "internalType": "address",
          "name": "from",
          "type": "address"
        },
        {
          "internalType": "address",
          "name": "to",
          "type": "address"
        },
        {
          "internalType": "uint256",
          "name": "tokenId",
          "type": "uint256"
        },
        {
          "internalType": "bytes",
          "name": "_data",
          "type": "bytes"
        }
      ],
      "name": "safeTransferFrom",
      "outputs": [],
      "stateMutability": "nonpayable",
      "type": "function"
    },
    {
      "inputs": [],
      "name": "serviceFeeForContract",
      "outputs": [
        {
          "internalType": "uint256",
          "name": "",
          "type": "uint256"
        }
      ],
      "stateMutability": "view",
      "type": "function",
      "constant": true
    },
    {
      "inputs": [],
      "name": "serviceFeeForPaymentAddress",
      "outputs": [
        {
          "internalType": "uint256",
          "name": "",
          "type": "uint256"
        }
      ],
      "stateMutability": "view",
      "type": "function",
      "constant": true
    },
    {
      "inputs": [
        {
          "internalType": "address",
          "name": "operator",
          "type": "address"
        },
        {
          "internalType": "bool",
          "name": "approved",
          "type": "bool"
        }
      ],
      "name": "setApprovalForAll",
      "outputs": [],
      "stateMutability": "nonpayable",
      "type": "function"
    },
    {
      "inputs": [],
      "name": "stablecoin",
      "outputs": [
        {
          "internalType": "contract IERC20",
          "name": "",
          "type": "address"
        }
      ],
      "stateMutability": "view",
      "type": "function",
      "constant": true
    },
    {
      "inputs": [
        {
          "internalType": "bytes4",
          "name": "interfaceId",
          "type": "bytes4"
        }
      ],
      "name": "supportsInterface",
      "outputs": [
        {
          "internalType": "bool",
          "name": "",
          "type": "bool"
        }
      ],
      "stateMutability": "view",
      "type": "function",
      "constant": true
    },
    {
      "inputs": [],
      "name": "symbol",
      "outputs": [
        {
          "internalType": "string",
          "name": "",
          "type": "string"
        }
      ],
      "stateMutability": "view",
      "type": "function",
      "constant": true
    },
    {
      "inputs": [
        {
          "internalType": "address",
          "name": "from",
          "type": "address"
        },
        {
          "internalType": "address",
          "name": "to",
          "type": "address"
        },
        {
          "internalType": "uint256",
          "name": "tokenId",
          "type": "uint256"
        }
      ],
      "name": "transferFrom",
      "outputs": [],
      "stateMutability": "nonpayable",
      "type": "function"
    },
    {
      "inputs": [
        {
          "internalType": "address",
          "name": "newOwner",
          "type": "address"
        }
      ],
      "name": "transferOwnership",
      "outputs": [],
      "stateMutability": "nonpayable",
      "type": "function"
    },
    {
      "inputs": [
        {
          "internalType": "uint256",
          "name": "_fee",
          "type": "uint256"
        }
      ],
      "name": "setServiceFeeForPaymentAddress",
      "outputs": [],
      "stateMutability": "nonpayable",
      "type": "function"
    },
    {
      "inputs": [
        {
          "internalType": "uint256",
          "name": "_fee",
          "type": "uint256"
        }
      ],
      "name": "setServiceFeeForContract",
      "outputs": [],
      "stateMutability": "nonpayable",
      "type": "function"
    },
    {
      "inputs": [
        {
          "internalType": "address",
          "name": "newAddress",
          "type": "address"
        }
      ],
      "name": "setPaymentAddress",
      "outputs": [],
      "stateMutability": "nonpayable",
      "type": "function"
    },
    {
      "inputs": [
        {
          "internalType": "address",
          "name": "user",
          "type": "address"
        },
        {
          "internalType": "string",
          "name": "uri",
          "type": "string"
        }
      ],
      "name": "mint",
      "outputs": [
        {
          "internalType": "uint256",
          "name": "",
          "type": "uint256"
        }
      ],
      "stateMutability": "nonpayable",
      "type": "function"
    },
    {
      "inputs": [
        {
          "internalType": "uint256",
          "name": "tokenId",
          "type": "uint256"
        }
      ],
      "name": "tokenURI",
      "outputs": [
        {
          "internalType": "string",
          "name": "",
          "type": "string"
        }
      ],
      "stateMutability": "view",
      "type": "function",
      "constant": true
    },
    {
      "inputs": [
        {
          "internalType": "address payable",
          "name": "payee",
          "type": "address"
        }
      ],
      "name": "withdrawBalance",
      "outputs": [],
      "stateMutability": "nonpayable",
      "type": "function"
    }
  ],
  "bytecode": "0x60806040526000600b556000600c553480156200001b57600080fd5b50604051620047e0380380620047e083398181016040528101906200004191906200031c565b838381600090805190602001906200005b929190620001d7565b50806001908051906020019062000074929190620001d7565b5050506000600660006101000a81548160ff0219169083151502179055506000620000a4620001cf60201b60201c565b905080600860006101000a81548173ffffffffffffffffffffffffffffffffffffffff021916908373ffffffffffffffffffffffffffffffffffffffff1602179055508073ffffffffffffffffffffffffffffffffffffffff16600073ffffffffffffffffffffffffffffffffffffffff167f8be0079c531659141344cd1fd0a4f28419497f9722a3daafe3b4186f6b6457e060405160405180910390a35080600d60006101000a81548173ffffffffffffffffffffffffffffffffffffffff021916908373ffffffffffffffffffffffffffffffffffffffff16021790555081600a60006101000a81548173ffffffffffffffffffffffffffffffffffffffff021916908373ffffffffffffffffffffffffffffffffffffffff160217905550505050506200059e565b600033905090565b828054620001e59062000495565b90600052602060002090601f01602090048101928262000209576000855562000255565b82601f106200022457805160ff191683800117855562000255565b8280016001018555821562000255579182015b828111156200025457825182559160200191906001019062000237565b5b50905062000264919062000268565b5090565b5b808211156200028357600081600090555060010162000269565b5090565b60006200029e6200029884620003f5565b620003cc565b905082815260208101848484011115620002bd57620002bc62000564565b5b620002ca8482856200045f565b509392505050565b600081519050620002e38162000584565b92915050565b600082601f8301126200030157620003006200055f565b5b81516200031384826020860162000287565b91505092915050565b600080600080608085870312156200033957620003386200056e565b5b600085015167ffffffffffffffff8111156200035a576200035962000569565b5b6200036887828801620002e9565b945050602085015167ffffffffffffffff8111156200038c576200038b62000569565b5b6200039a87828801620002e9565b9350506040620003ad87828801620002d2565b9250506060620003c087828801620002d2565b91505092959194509250565b6000620003d8620003eb565b9050620003e68282620004cb565b919050565b6000604051905090565b600067ffffffffffffffff82111562000413576200041262000530565b5b6200041e8262000573565b9050602081019050919050565b600062000438826200043f565b9050919050565b600073ffffffffffffffffffffffffffffffffffffffff82169050919050565b60005b838110156200047f57808201518184015260208101905062000462565b838111156200048f576000848401525b50505050565b60006002820490506001821680620004ae57607f821691505b60208210811415620004c557620004c462000501565b5b50919050565b620004d68262000573565b810181811067ffffffffffffffff82111715620004f857620004f762000530565b5b80604052505050565b7f4e487b7100000000000000000000000000000000000000000000000000000000600052602260045260246000fd5b7f4e487b7100000000000000000000000000000000000000000000000000000000600052604160045260246000fd5b600080fd5b600080fd5b600080fd5b600080fd5b6000601f19601f8301169050919050565b6200058f816200042b565b81146200059b57600080fd5b50565b61423280620005ae6000396000f3fe608060405234801561001057600080fd5b50600436106101a95760003560e01c8063715018a6116100f9578063c014b9da11610097578063e53ae10211610071578063e53ae102146104a4578063e985e9c5146104c2578063e9cbd822146104f2578063f2fde38b14610510576101a9565b8063c014b9da14610426578063c87b56dd14610444578063d0def52114610474576101a9565b806395d89b41116100d357806395d89b41146103b4578063a22cb465146103d2578063b86be2ca146103ee578063b88d4fde1461040a576101a9565b8063715018a614610370578063756af45f1461037a5780638da5cb5b14610396576101a9565b806342842e0e116101665780635e1e1004116101405780635e1e1004146102d6578063633423be146102f25780636352211e1461031057806370a0823114610340576101a9565b806342842e0e1461028057806342966c681461029c5780635c975abb146102b8576101a9565b806301ffc9a7146101ae57806306fdde03146101de578063081812fc146101fc578063095ea7b31461022c57806323b872dd146102485780632c078e8d14610264575b600080fd5b6101c860048036038101906101c39190612d26565b61052c565b6040516101d591906132fb565b60405180910390f35b6101e661060e565b6040516101f39190613331565b60405180910390f35b61021660048036038101906102119190612d80565b6106a0565b6040516102239190613234565b60405180910390f35b61024660048036038101906102419190612cb9565b610725565b005b610262600480360381019061025d9190612b47565b61083d565b005b61027e60048036038101906102799190612d80565b61089d565b005b61029a60048036038101906102959190612b47565b610923565b005b6102b660048036038101906102b19190612d80565b610943565b005b6102c061099f565b6040516102cd91906132fb565b60405180910390f35b6102f060048036038101906102eb9190612aad565b6109b6565b005b6102fa610a76565b6040516103079190613234565b60405180910390f35b61032a60048036038101906103259190612d80565b610a9c565b6040516103379190613234565b60405180910390f35b61035a60048036038101906103559190612aad565b610b4e565b6040516103679190613653565b60405180910390f35b610378610c06565b005b610394600480360381019061038f9190612ada565b610d43565b005b61039e610fae565b6040516103ab9190613234565b60405180910390f35b6103bc610fd8565b6040516103c99190613331565b60405180910390f35b6103ec60048036038101906103e79190612c1d565b61106a565b005b61040860048036038101906104039190612d80565b6111eb565b005b610424600480360381019061041f9190612b9a565b611271565b005b61042e6112d3565b60405161043b9190613653565b60405180910390f35b61045e60048036038101906104599190612d80565b6112d9565b60405161046b9190613331565b60405180910390f35b61048e60048036038101906104899190612c5d565b6112eb565b60405161049b9190613653565b60405180910390f35b6104ac611323565b6040516104b99190613653565b60405180910390f35b6104dc60048036038101906104d79190612b07565b611329565b6040516104e991906132fb565b60405180910390f35b6104fa6113bd565b6040516105079190613316565b60405180910390f35b61052a60048036038101906105259190612aad565b6113e3565b005b60007f80ac58cd000000000000000000000000000000000000000000000000000000007bffffffffffffffffffffffffffffffffffffffffffffffffffffffff1916827bffffffffffffffffffffffffffffffffffffffffffffffffffffffff191614806105f757507f5b5e139f000000000000000000000000000000000000000000000000000000007bffffffffffffffffffffffffffffffffffffffffffffffffffffffff1916827bffffffffffffffffffffffffffffffffffffffffffffffffffffffff1916145b8061060757506106068261158f565b5b9050919050565b60606000805461061d9061393e565b80601f01602080910402602001604051908101604052809291908181526020018280546106499061393e565b80156106965780601f1061066b57610100808354040283529160200191610696565b820191906000526020600020905b81548152906001019060200180831161067957829003601f168201915b5050505050905090565b60006106ab826115f9565b6106ea576040517f08c379a00000000000000000000000000000000000000000000000000000000081526004016106e190613533565b60405180910390fd5b6004600083815260200190815260200160002060009054906101000a900473ffffffffffffffffffffffffffffffffffffffff169050919050565b600061073082610a9c565b90508073ffffffffffffffffffffffffffffffffffffffff168373ffffffffffffffffffffffffffffffffffffffff1614156107a1576040517f08c379a0000000000000000000000000000000000000000000000000000000008152600401610798906135b3565b60405180910390fd5b8073ffffffffffffffffffffffffffffffffffffffff166107c0611665565b73ffffffffffffffffffffffffffffffffffffffff1614806107ef57506107ee816107e9611665565b611329565b5b61082e576040517f08c379a000000000000000000000000000000000000000000000000000000000815260040161082590613453565b60405180910390fd5b610838838361166d565b505050565b61084e610848611665565b82611726565b61088d576040517f08c379a0000000000000000000000000000000000000000000000000000000008152600401610884906135f3565b60405180910390fd5b610898838383611804565b505050565b6108a5611665565b73ffffffffffffffffffffffffffffffffffffffff166108c3610fae565b73ffffffffffffffffffffffffffffffffffffffff1614610919576040517f08c379a000000000000000000000000000000000000000000000000000000000815260040161091090613553565b60405180910390fd5b80600c8190555050565b61093e83838360405180602001604052806000815250611271565b505050565b61095461094e611665565b82611726565b610993576040517f08c379a000000000000000000000000000000000000000000000000000000000815260040161098a90613633565b60405180910390fd5b61099c81611a60565b50565b6000600660009054906101000a900460ff16905090565b6109be611665565b73ffffffffffffffffffffffffffffffffffffffff166109dc610fae565b73ffffffffffffffffffffffffffffffffffffffff1614610a32576040517f08c379a0000000000000000000000000000000000000000000000000000000008152600401610a2990613553565b60405180910390fd5b80600d60006101000a81548173ffffffffffffffffffffffffffffffffffffffff021916908373ffffffffffffffffffffffffffffffffffffffff16021790555050565b600d60009054906101000a900473ffffffffffffffffffffffffffffffffffffffff1681565b6000806002600084815260200190815260200160002060009054906101000a900473ffffffffffffffffffffffffffffffffffffffff169050600073ffffffffffffffffffffffffffffffffffffffff168173ffffffffffffffffffffffffffffffffffffffff161415610b45576040517f08c379a0000000000000000000000000000000000000000000000000000000008152600401610b3c90613493565b60405180910390fd5b80915050919050565b60008073ffffffffffffffffffffffffffffffffffffffff168273ffffffffffffffffffffffffffffffffffffffff161415610bbf576040517f08c379a0000000000000000000000000000000000000000000000000000000008152600401610bb690613473565b60405180910390fd5b600360008373ffffffffffffffffffffffffffffffffffffffff1673ffffffffffffffffffffffffffffffffffffffff168152602001908152602001600020549050919050565b610c0e611665565b73ffffffffffffffffffffffffffffffffffffffff16610c2c610fae565b73ffffffffffffffffffffffffffffffffffffffff1614610c82576040517f08c379a0000000000000000000000000000000000000000000000000000000008152600401610c7990613553565b60405180910390fd5b600073ffffffffffffffffffffffffffffffffffffffff16600860009054906101000a900473ffffffffffffffffffffffffffffffffffffffff1673ffffffffffffffffffffffffffffffffffffffff167f8be0079c531659141344cd1fd0a4f28419497f9722a3daafe3b4186f6b6457e060405160405180910390a36000600860006101000a81548173ffffffffffffffffffffffffffffffffffffffff021916908373ffffffffffffffffffffffffffffffffffffffff160217905550565b610d4b611665565b73ffffffffffffffffffffffffffffffffffffffff16610d69610fae565b73ffffffffffffffffffffffffffffffffffffffff1614610dbf576040517f08c379a0000000000000000000000000000000000000000000000000000000008152600401610db690613553565b60405180910390fd5b6000600a60009054906101000a900473ffffffffffffffffffffffffffffffffffffffff1673ffffffffffffffffffffffffffffffffffffffff166370a08231306040518263ffffffff1660e01b8152600401610e1c9190613234565b60206040518083038186803b158015610e3457600080fd5b505afa158015610e48573d6000803e3d6000fd5b505050506040513d601f19601f82011682018060405250810190610e6c9190612dad565b9050600a60009054906101000a900473ffffffffffffffffffffffffffffffffffffffff1673ffffffffffffffffffffffffffffffffffffffff1663a9059cbb83836040518363ffffffff1660e01b8152600401610ecb92919061324f565b602060405180830381600087803b158015610ee557600080fd5b505af1158015610ef9573d6000803e3d6000fd5b505050506040513d601f19601f82011682018060405250810190610f1d9190612cf9565b610f5c576040517f08c379a0000000000000000000000000000000000000000000000000000000008152600401610f5390613613565b60405180910390fd5b8173ffffffffffffffffffffffffffffffffffffffff167f7084f5476618d8e60b11ef0d7d3f06914655adb8793e28ff7f018d4c76d505d582604051610fa29190613653565b60405180910390a25050565b6000600860009054906101000a900473ffffffffffffffffffffffffffffffffffffffff16905090565b606060018054610fe79061393e565b80601f01602080910402602001604051908101604052809291908181526020018280546110139061393e565b80156110605780601f1061103557610100808354040283529160200191611060565b820191906000526020600020905b81548152906001019060200180831161104357829003601f168201915b5050505050905090565b611072611665565b73ffffffffffffffffffffffffffffffffffffffff168273ffffffffffffffffffffffffffffffffffffffff1614156110e0576040517f08c379a00000000000000000000000000000000000000000000000000000000081526004016110d790613413565b60405180910390fd5b80600560006110ed611665565b73ffffffffffffffffffffffffffffffffffffffff1673ffffffffffffffffffffffffffffffffffffffff16815260200190815260200160002060008473ffffffffffffffffffffffffffffffffffffffff1673ffffffffffffffffffffffffffffffffffffffff16815260200190815260200160002060006101000a81548160ff0219169083151502179055508173ffffffffffffffffffffffffffffffffffffffff1661119a611665565b73ffffffffffffffffffffffffffffffffffffffff167f17307eab39ab6107e8899845ad3d59bd9653f200f220920489ca2b5937696c31836040516111df91906132fb565b60405180910390a35050565b6111f3611665565b73ffffffffffffffffffffffffffffffffffffffff16611211610fae565b73ffffffffffffffffffffffffffffffffffffffff1614611267576040517f08c379a000000000000000000000000000000000000000000000000000000000815260040161125e90613553565b60405180910390fd5b80600b8190555050565b61128261127c611665565b83611726565b6112c1576040517f08c379a00000000000000000000000000000000000000000000000000000000081526004016112b8906135f3565b60405180910390fd5b6112cd84848484611a6c565b50505050565b600b5481565b60606112e482611ac8565b9050919050565b60006112f76009611c1a565b60006113036009611c30565b905061130f8482611c3e565b6113198184611c5c565b8091505092915050565b600c5481565b6000600560008473ffffffffffffffffffffffffffffffffffffffff1673ffffffffffffffffffffffffffffffffffffffff16815260200190815260200160002060008373ffffffffffffffffffffffffffffffffffffffff1673ffffffffffffffffffffffffffffffffffffffff16815260200190815260200160002060009054906101000a900460ff16905092915050565b600a60009054906101000a900473ffffffffffffffffffffffffffffffffffffffff1681565b6113eb611665565b73ffffffffffffffffffffffffffffffffffffffff16611409610fae565b73ffffffffffffffffffffffffffffffffffffffff161461145f576040517f08c379a000000000000000000000000000000000000000000000000000000000815260040161145690613553565b60405180910390fd5b600073ffffffffffffffffffffffffffffffffffffffff168173ffffffffffffffffffffffffffffffffffffffff1614156114cf576040517f08c379a00000000000000000000000000000000000000000000000000000000081526004016114c690613393565b60405180910390fd5b8073ffffffffffffffffffffffffffffffffffffffff16600860009054906101000a900473ffffffffffffffffffffffffffffffffffffffff1673ffffffffffffffffffffffffffffffffffffffff167f8be0079c531659141344cd1fd0a4f28419497f9722a3daafe3b4186f6b6457e060405160405180910390a380600860006101000a81548173ffffffffffffffffffffffffffffffffffffffff021916908373ffffffffffffffffffffffffffffffffffffffff16021790555050565b60007f01ffc9a7000000000000000000000000000000000000000000000000000000007bffffffffffffffffffffffffffffffffffffffffffffffffffffffff1916827bffffffffffffffffffffffffffffffffffffffffffffffffffffffff1916149050919050565b60008073ffffffffffffffffffffffffffffffffffffffff166002600084815260200190815260200160002060009054906101000a900473ffffffffffffffffffffffffffffffffffffffff1673ffffffffffffffffffffffffffffffffffffffff1614159050919050565b600033905090565b816004600083815260200190815260200160002060006101000a81548173ffffffffffffffffffffffffffffffffffffffff021916908373ffffffffffffffffffffffffffffffffffffffff160217905550808273ffffffffffffffffffffffffffffffffffffffff166116e083610a9c565b73ffffffffffffffffffffffffffffffffffffffff167f8c5be1e5ebec7d5bd14f71427d1e84f3dd0314c0f7b2291e5b200ac8c7c3b92560405160405180910390a45050565b6000611731826115f9565b611770576040517f08c379a000000000000000000000000000000000000000000000000000000000815260040161176790613433565b60405180910390fd5b600061177b83610a9c565b90508073ffffffffffffffffffffffffffffffffffffffff168473ffffffffffffffffffffffffffffffffffffffff1614806117ea57508373ffffffffffffffffffffffffffffffffffffffff166117d2846106a0565b73ffffffffffffffffffffffffffffffffffffffff16145b806117fb57506117fa8185611329565b5b91505092915050565b8273ffffffffffffffffffffffffffffffffffffffff1661182482610a9c565b73ffffffffffffffffffffffffffffffffffffffff161461187a576040517f08c379a000000000000000000000000000000000000000000000000000000000815260040161187190613573565b60405180910390fd5b600073ffffffffffffffffffffffffffffffffffffffff168273ffffffffffffffffffffffffffffffffffffffff1614156118ea576040517f08c379a00000000000000000000000000000000000000000000000000000000081526004016118e1906133f3565b60405180910390fd5b6118f5838383611cd0565b61190060008261166d565b6001600360008573ffffffffffffffffffffffffffffffffffffffff1673ffffffffffffffffffffffffffffffffffffffff168152602001908152602001600020600082825461195091906137e8565b925050819055506001600360008473ffffffffffffffffffffffffffffffffffffffff1673ffffffffffffffffffffffffffffffffffffffff16815260200190815260200160002060008282546119a79190613761565b92505081905550816002600083815260200190815260200160002060006101000a81548173ffffffffffffffffffffffffffffffffffffffff021916908373ffffffffffffffffffffffffffffffffffffffff160217905550808273ffffffffffffffffffffffffffffffffffffffff168473ffffffffffffffffffffffffffffffffffffffff167fddf252ad1be2c89b69c2b068fc378daa952ba7f163c4a11628f55a4df523b3ef60405160405180910390a4505050565b611a6981611d67565b50565b611a77848484611804565b611a8384848484611dba565b611ac2576040517f08c379a0000000000000000000000000000000000000000000000000000000008152600401611ab990613373565b60405180910390fd5b50505050565b6060611ad3826115f9565b611b12576040517f08c379a0000000000000000000000000000000000000000000000000000000008152600401611b0990613513565b60405180910390fd5b6000600760008481526020019081526020016000208054611b329061393e565b80601f0160208091040260200160405190810160405280929190818152602001828054611b5e9061393e565b8015611bab5780601f10611b8057610100808354040283529160200191611bab565b820191906000526020600020905b815481529060010190602001808311611b8e57829003601f168201915b505050505090506000611bbc611f51565b9050600081511415611bd2578192505050611c15565b600082511115611c07578082604051602001611bef929190613210565b60405160208183030381529060405292505050611c15565b611c1084611f68565b925050505b919050565b6001816000016000828254019250508190555050565b600081600001549050919050565b611c5882826040518060200160405280600081525061200f565b5050565b611c65826115f9565b611ca4576040517f08c379a0000000000000000000000000000000000000000000000000000000008152600401611c9b906134b3565b60405180910390fd5b80600760008481526020019081526020016000209080519060200190611ccb929190612842565b505050565b611cd861099f565b15611d18576040517f08c379a0000000000000000000000000000000000000000000000000000000008152600401611d0f906135d3565b60405180910390fd5b600073ffffffffffffffffffffffffffffffffffffffff168273ffffffffffffffffffffffffffffffffffffffff161415611d5757611d568361206a565b5b611d62838383612392565b505050565b611d70816123ea565b6000600760008381526020019081526020016000208054611d909061393e565b905014611db757600760008281526020019081526020016000206000611db691906128c8565b5b50565b6000611ddb8473ffffffffffffffffffffffffffffffffffffffff166124fb565b15611f44578373ffffffffffffffffffffffffffffffffffffffff1663150b7a02611e04611665565b8786866040518563ffffffff1660e01b8152600401611e2694939291906132af565b602060405180830381600087803b158015611e4057600080fd5b505af1925050508015611e7157506040513d601f19601f82011682018060405250810190611e6e9190612d53565b60015b611ef4573d8060008114611ea1576040519150601f19603f3d011682016040523d82523d6000602084013e611ea6565b606091505b50600081511415611eec576040517f08c379a0000000000000000000000000000000000000000000000000000000008152600401611ee390613373565b60405180910390fd5b805181602001fd5b63150b7a0260e01b7bffffffffffffffffffffffffffffffffffffffffffffffffffffffff1916817bffffffffffffffffffffffffffffffffffffffffffffffffffffffff191614915050611f49565b600190505b949350505050565b606060405180602001604052806000815250905090565b6060611f73826115f9565b611fb2576040517f08c379a0000000000000000000000000000000000000000000000000000000008152600401611fa990613593565b60405180910390fd5b6000611fbc611f51565b90506000815111611fdc5760405180602001604052806000815250612007565b80611fe68461250e565b604051602001611ff7929190613210565b6040516020818303038152906040525b915050919050565b612019838361266f565b6120266000848484611dba565b612065576040517f08c379a000000000000000000000000000000000000000000000000000000000815260040161205c90613373565b60405180910390fd5b505050565b600073ffffffffffffffffffffffffffffffffffffffff16600d60009054906101000a900473ffffffffffffffffffffffffffffffffffffffff1673ffffffffffffffffffffffffffffffffffffffff1614156120fc576040517f08c379a00000000000000000000000000000000000000000000000000000000081526004016120f3906133b3565b60405180910390fd5b600a60009054906101000a900473ffffffffffffffffffffffffffffffffffffffff1673ffffffffffffffffffffffffffffffffffffffff166323b872dd8230600c546040518463ffffffff1660e01b815260040161215d93929190613278565b602060405180830381600087803b15801561217757600080fd5b505af115801561218b573d6000803e3d6000fd5b505050506040513d601f19601f820116820180604052508101906121af9190612cf9565b6121ee576040517f08c379a00000000000000000000000000000000000000000000000000000000081526004016121e5906134d3565b60405180910390fd5b600a60009054906101000a900473ffffffffffffffffffffffffffffffffffffffff1673ffffffffffffffffffffffffffffffffffffffff166323b872dd82600d60009054906101000a900473ffffffffffffffffffffffffffffffffffffffff16600b546040518463ffffffff1660e01b815260040161227193929190613278565b602060405180830381600087803b15801561228b57600080fd5b505af115801561229f573d6000803e3d6000fd5b505050506040513d601f19601f820116820180604052508101906122c39190612cf9565b612302576040517f08c379a00000000000000000000000000000000000000000000000000000000081526004016122f9906134d3565b60405180910390fd5b600d60009054906101000a900473ffffffffffffffffffffffffffffffffffffffff1673ffffffffffffffffffffffffffffffffffffffff168173ffffffffffffffffffffffffffffffffffffffff167fa8f4c73f737d0de0c960fdfc31d6a578225f7b201397a04d6d128e622c6937e3600c54600b5460405161238792919061366e565b60405180910390a350565b61239d83838361283d565b6123a561099f565b156123e5576040517f08c379a00000000000000000000000000000000000000000000000000000000081526004016123dc90613353565b60405180910390fd5b505050565b60006123f582610a9c565b905061240381600084611cd0565b61240e60008361166d565b6001600360008373ffffffffffffffffffffffffffffffffffffffff1673ffffffffffffffffffffffffffffffffffffffff168152602001908152602001600020600082825461245e91906137e8565b925050819055506002600083815260200190815260200160002060006101000a81549073ffffffffffffffffffffffffffffffffffffffff021916905581600073ffffffffffffffffffffffffffffffffffffffff168273ffffffffffffffffffffffffffffffffffffffff167fddf252ad1be2c89b69c2b068fc378daa952ba7f163c4a11628f55a4df523b3ef60405160405180910390a45050565b600080823b905060008111915050919050565b60606000821415612556576040518060400160405280600181526020017f3000000000000000000000000000000000000000000000000000000000000000815250905061266a565b600082905060005b60008214612588578080612571906139a1565b915050600a8261258191906137b7565b915061255e565b60008167ffffffffffffffff8111156125a4576125a3613ad7565b5b6040519080825280601f01601f1916602001820160405280156125d65781602001600182028036833780820191505090505b5090505b60008514612663576001826125ef91906137e8565b9150600a856125fe91906139ea565b603061260a9190613761565b60f81b8183815181106126205761261f613aa8565b5b60200101907effffffffffffffffffffffffffffffffffffffffffffffffffffffffffffff1916908160001a905350600a8561265c91906137b7565b94506125da565b8093505050505b919050565b600073ffffffffffffffffffffffffffffffffffffffff168273ffffffffffffffffffffffffffffffffffffffff1614156126df576040517f08c379a00000000000000000000000000000000000000000000000000000000081526004016126d6906134f3565b60405180910390fd5b6126e8816115f9565b15612728576040517f08c379a000000000000000000000000000000000000000000000000000000000815260040161271f906133d3565b60405180910390fd5b61273460008383611cd0565b6001600360008473ffffffffffffffffffffffffffffffffffffffff1673ffffffffffffffffffffffffffffffffffffffff16815260200190815260200160002060008282546127849190613761565b92505081905550816002600083815260200190815260200160002060006101000a81548173ffffffffffffffffffffffffffffffffffffffff021916908373ffffffffffffffffffffffffffffffffffffffff160217905550808273ffffffffffffffffffffffffffffffffffffffff16600073ffffffffffffffffffffffffffffffffffffffff167fddf252ad1be2c89b69c2b068fc378daa952ba7f163c4a11628f55a4df523b3ef60405160405180910390a45050565b505050565b82805461284e9061393e565b90600052602060002090601f01602090048101928261287057600085556128b7565b82601f1061288957805160ff19168380011785556128b7565b828001600101855582156128b7579182015b828111156128b657825182559160200191906001019061289b565b5b5090506128c49190612908565b5090565b5080546128d49061393e565b6000825580601f106128e65750612905565b601f0160209004906000526020600020908101906129049190612908565b5b50565b5b80821115612921576000816000905550600101612909565b5090565b6000612938612933846136bc565b613697565b90508281526020810184848401111561295457612953613b0b565b5b61295f8482856138fc565b509392505050565b600061297a612975846136ed565b613697565b90508281526020810184848401111561299657612995613b0b565b5b6129a18482856138fc565b509392505050565b6000813590506129b881614189565b92915050565b6000813590506129cd816141a0565b92915050565b6000813590506129e2816141b7565b92915050565b6000815190506129f7816141b7565b92915050565b600081359050612a0c816141ce565b92915050565b600081519050612a21816141ce565b92915050565b600082601f830112612a3c57612a3b613b06565b5b8135612a4c848260208601612925565b91505092915050565b600082601f830112612a6a57612a69613b06565b5b8135612a7a848260208601612967565b91505092915050565b600081359050612a92816141e5565b92915050565b600081519050612aa7816141e5565b92915050565b600060208284031215612ac357612ac2613b15565b5b6000612ad1848285016129a9565b91505092915050565b600060208284031215612af057612aef613b15565b5b6000612afe848285016129be565b91505092915050565b60008060408385031215612b1e57612b1d613b15565b5b6000612b2c858286016129a9565b9250506020612b3d858286016129a9565b9150509250929050565b600080600060608486031215612b6057612b5f613b15565b5b6000612b6e868287016129a9565b9350506020612b7f868287016129a9565b9250506040612b9086828701612a83565b9150509250925092565b60008060008060808587031215612bb457612bb3613b15565b5b6000612bc2878288016129a9565b9450506020612bd3878288016129a9565b9350506040612be487828801612a83565b925050606085013567ffffffffffffffff811115612c0557612c04613b10565b5b612c1187828801612a27565b91505092959194509250565b60008060408385031215612c3457612c33613b15565b5b6000612c42858286016129a9565b9250506020612c53858286016129d3565b9150509250929050565b60008060408385031215612c7457612c73613b15565b5b6000612c82858286016129a9565b925050602083013567ffffffffffffffff811115612ca357612ca2613b10565b5b612caf85828601612a55565b9150509250929050565b60008060408385031215612cd057612ccf613b15565b5b6000612cde858286016129a9565b9250506020612cef85828601612a83565b9150509250929050565b600060208284031215612d0f57612d0e613b15565b5b6000612d1d848285016129e8565b91505092915050565b600060208284031215612d3c57612d3b613b15565b5b6000612d4a848285016129fd565b91505092915050565b600060208284031215612d6957612d68613b15565b5b6000612d7784828501612a12565b91505092915050565b600060208284031215612d9657612d95613b15565b5b6000612da484828501612a83565b91505092915050565b600060208284031215612dc357612dc2613b15565b5b6000612dd184828501612a98565b91505092915050565b612de3816138a2565b82525050565b612df28161381c565b82525050565b612e0181613840565b82525050565b6000612e128261371e565b612e1c8185613734565b9350612e2c81856020860161390b565b612e3581613b1a565b840191505092915050565b612e49816138b4565b82525050565b6000612e5a82613729565b612e648185613745565b9350612e7481856020860161390b565b612e7d81613b1a565b840191505092915050565b6000612e9382613729565b612e9d8185613756565b9350612ead81856020860161390b565b80840191505092915050565b6000612ec6602b83613745565b9150612ed182613b2b565b604082019050919050565b6000612ee9603283613745565b9150612ef482613b7a565b604082019050919050565b6000612f0c602683613745565b9150612f1782613bc9565b604082019050919050565b6000612f2f602083613745565b9150612f3a82613c18565b602082019050919050565b6000612f52601c83613745565b9150612f5d82613c41565b602082019050919050565b6000612f75602483613745565b9150612f8082613c6a565b604082019050919050565b6000612f98601983613745565b9150612fa382613cb9565b602082019050919050565b6000612fbb602c83613745565b9150612fc682613ce2565b604082019050919050565b6000612fde603883613745565b9150612fe982613d31565b604082019050919050565b6000613001602a83613745565b915061300c82613d80565b604082019050919050565b6000613024602983613745565b915061302f82613dcf565b604082019050919050565b6000613047602e83613745565b915061305282613e1e565b604082019050919050565b600061306a602283613745565b915061307582613e6d565b604082019050919050565b600061308d602083613745565b915061309882613ebc565b602082019050919050565b60006130b0603183613745565b91506130bb82613ee5565b604082019050919050565b60006130d3602c83613745565b91506130de82613f34565b604082019050919050565b60006130f6602083613745565b915061310182613f83565b602082019050919050565b6000613119602983613745565b915061312482613fac565b604082019050919050565b600061313c602f83613745565b915061314782613ffb565b604082019050919050565b600061315f602183613745565b915061316a8261404a565b604082019050919050565b6000613182601e83613745565b915061318d82614099565b602082019050919050565b60006131a5603183613745565b91506131b0826140c2565b604082019050919050565b60006131c8601483613745565b91506131d382614111565b602082019050919050565b60006131eb603083613745565b91506131f68261413a565b604082019050919050565b61320a81613898565b82525050565b600061321c8285612e88565b91506132288284612e88565b91508190509392505050565b60006020820190506132496000830184612de9565b92915050565b60006040820190506132646000830185612dda565b6132716020830184613201565b9392505050565b600060608201905061328d6000830186612de9565b61329a6020830185612de9565b6132a76040830184613201565b949350505050565b60006080820190506132c46000830187612de9565b6132d16020830186612de9565b6132de6040830185613201565b81810360608301526132f08184612e07565b905095945050505050565b60006020820190506133106000830184612df8565b92915050565b600060208201905061332b6000830184612e40565b92915050565b6000602082019050818103600083015261334b8184612e4f565b905092915050565b6000602082019050818103600083015261336c81612eb9565b9050919050565b6000602082019050818103600083015261338c81612edc565b9050919050565b600060208201905081810360008301526133ac81612eff565b9050919050565b600060208201905081810360008301526133cc81612f22565b9050919050565b600060208201905081810360008301526133ec81612f45565b9050919050565b6000602082019050818103600083015261340c81612f68565b9050919050565b6000602082019050818103600083015261342c81612f8b565b9050919050565b6000602082019050818103600083015261344c81612fae565b9050919050565b6000602082019050818103600083015261346c81612fd1565b9050919050565b6000602082019050818103600083015261348c81612ff4565b9050919050565b600060208201905081810360008301526134ac81613017565b9050919050565b600060208201905081810360008301526134cc8161303a565b9050919050565b600060208201905081810360008301526134ec8161305d565b9050919050565b6000602082019050818103600083015261350c81613080565b9050919050565b6000602082019050818103600083015261352c816130a3565b9050919050565b6000602082019050818103600083015261354c816130c6565b9050919050565b6000602082019050818103600083015261356c816130e9565b9050919050565b6000602082019050818103600083015261358c8161310c565b9050919050565b600060208201905081810360008301526135ac8161312f565b9050919050565b600060208201905081810360008301526135cc81613152565b9050919050565b600060208201905081810360008301526135ec81613175565b9050919050565b6000602082019050818103600083015261360c81613198565b9050919050565b6000602082019050818103600083015261362c816131bb565b9050919050565b6000602082019050818103600083015261364c816131de565b9050919050565b60006020820190506136686000830184613201565b92915050565b60006040820190506136836000830185613201565b6136906020830184613201565b9392505050565b60006136a16136b2565b90506136ad8282613970565b919050565b6000604051905090565b600067ffffffffffffffff8211156136d7576136d6613ad7565b5b6136e082613b1a565b9050602081019050919050565b600067ffffffffffffffff82111561370857613707613ad7565b5b61371182613b1a565b9050602081019050919050565b600081519050919050565b600081519050919050565b600082825260208201905092915050565b600082825260208201905092915050565b600081905092915050565b600061376c82613898565b915061377783613898565b9250827fffffffffffffffffffffffffffffffffffffffffffffffffffffffffffffffff038211156137ac576137ab613a1b565b5b828201905092915050565b60006137c282613898565b91506137cd83613898565b9250826137dd576137dc613a4a565b5b828204905092915050565b60006137f382613898565b91506137fe83613898565b92508282101561381157613810613a1b565b5b828203905092915050565b600061382782613878565b9050919050565b600061383982613878565b9050919050565b60008115159050919050565b60007fffffffff0000000000000000000000000000000000000000000000000000000082169050919050565b600073ffffffffffffffffffffffffffffffffffffffff82169050919050565b6000819050919050565b60006138ad826138d8565b9050919050565b60006138bf826138c6565b9050919050565b60006138d182613878565b9050919050565b60006138e3826138ea565b9050919050565b60006138f582613878565b9050919050565b82818337600083830152505050565b60005b8381101561392957808201518184015260208101905061390e565b83811115613938576000848401525b50505050565b6000600282049050600182168061395657607f821691505b6020821081141561396a57613969613a79565b5b50919050565b61397982613b1a565b810181811067ffffffffffffffff8211171561399857613997613ad7565b5b80604052505050565b60006139ac82613898565b91507fffffffffffffffffffffffffffffffffffffffffffffffffffffffffffffffff8214156139df576139de613a1b565b5b600182019050919050565b60006139f582613898565b9150613a0083613898565b925082613a1057613a0f613a4a565b5b828206905092915050565b7f4e487b7100000000000000000000000000000000000000000000000000000000600052601160045260246000fd5b7f4e487b7100000000000000000000000000000000000000000000000000000000600052601260045260246000fd5b7f4e487b7100000000000000000000000000000000000000000000000000000000600052602260045260246000fd5b7f4e487b7100000000000000000000000000000000000000000000000000000000600052603260045260246000fd5b7f4e487b7100000000000000000000000000000000000000000000000000000000600052604160045260246000fd5b600080fd5b600080fd5b600080fd5b600080fd5b6000601f19601f8301169050919050565b7f4552433732315061757361626c653a20746f6b656e207472616e73666572207760008201527f68696c6520706175736564000000000000000000000000000000000000000000602082015250565b7f4552433732313a207472616e7366657220746f206e6f6e20455243373231526560008201527f63656976657220696d706c656d656e7465720000000000000000000000000000602082015250565b7f4f776e61626c653a206e6577206f776e657220697320746865207a65726f206160008201527f6464726573730000000000000000000000000000000000000000000000000000602082015250565b7f5844563a204d75737420686176652061207061796d656e742061646472657373600082015250565b7f4552433732313a20746f6b656e20616c7265616479206d696e74656400000000600082015250565b7f4552433732313a207472616e7366657220746f20746865207a65726f2061646460008201527f7265737300000000000000000000000000000000000000000000000000000000602082015250565b7f4552433732313a20617070726f766520746f2063616c6c657200000000000000600082015250565b7f4552433732313a206f70657261746f7220717565727920666f72206e6f6e657860008201527f697374656e7420746f6b656e0000000000000000000000000000000000000000602082015250565b7f4552433732313a20617070726f76652063616c6c6572206973206e6f74206f7760008201527f6e6572206e6f7220617070726f76656420666f7220616c6c0000000000000000602082015250565b7f4552433732313a2062616c616e636520717565727920666f7220746865207a6560008201527f726f206164647265737300000000000000000000000000000000000000000000602082015250565b7f4552433732313a206f776e657220717565727920666f72206e6f6e657869737460008201527f656e7420746f6b656e0000000000000000000000000000000000000000000000602082015250565b7f45524337323155524953746f726167653a2055524920736574206f66206e6f6e60008201527f6578697374656e7420746f6b656e000000000000000000000000000000000000602082015250565b7f5844563a205472616e73666572206661696c656420666f72207265636970696560008201527f6e74000000000000000000000000000000000000000000000000000000000000602082015250565b7f4552433732313a206d696e7420746f20746865207a65726f2061646472657373600082015250565b7f45524337323155524953746f726167653a2055524920717565727920666f722060008201527f6e6f6e6578697374656e7420746f6b656e000000000000000000000000000000602082015250565b7f4552433732313a20617070726f76656420717565727920666f72206e6f6e657860008201527f697374656e7420746f6b656e0000000000000000000000000000000000000000602082015250565b7f4f776e61626c653a2063616c6c6572206973206e6f7420746865206f776e6572600082015250565b7f4552433732313a207472616e73666572206f6620746f6b656e2074686174206960008201527f73206e6f74206f776e0000000000000000000000000000000000000000000000602082015250565b7f4552433732314d657461646174613a2055524920717565727920666f72206e6f60008201527f6e6578697374656e7420746f6b656e0000000000000000000000000000000000602082015250565b7f4552433732313a20617070726f76616c20746f2063757272656e74206f776e6560008201527f7200000000000000000000000000000000000000000000000000000000000000602082015250565b7f5844563a20546f6b656e20657865637574696f6e206973207061757365640000600082015250565b7f4552433732313a207472616e736665722063616c6c6572206973206e6f74206f60008201527f776e6572206e6f7220617070726f766564000000000000000000000000000000602082015250565b7f5844563a205472616e73666572206661696c6564000000000000000000000000600082015250565b7f4552433732314275726e61626c653a2063616c6c6572206973206e6f74206f7760008201527f6e6572206e6f7220617070726f76656400000000000000000000000000000000602082015250565b6141928161381c565b811461419d57600080fd5b50565b6141a98161382e565b81146141b457600080fd5b50565b6141c081613840565b81146141cb57600080fd5b50565b6141d78161384c565b81146141e257600080fd5b50565b6141ee81613898565b81146141f957600080fd5b5056fea2646970667358221220ac43bf021b23e8edbee37d0e08eb44925bee5373f424ad751183baa90de2f84764736f6c63430008060033",
  "immutableReferences": {},
  "source": "// SPDX-License-Identifier: MIT\npragma solidity ^0.8.0;\n\nimport \"@openzeppelin/contracts/access/Ownable.sol\";\nimport \"@openzeppelin/contracts/token/ERC20/IERC20.sol\";\nimport \"@openzeppelin/contracts/token/ERC721/ERC721.sol\";\nimport \"@openzeppelin/contracts/token/ERC721/extensions/ERC721Burnable.sol\";\nimport \"@openzeppelin/contracts/token/ERC721/extensions/ERC721Pausable.sol\";\nimport \"@openzeppelin/contracts/token/ERC721/extensions/ERC721URIStorage.sol\";\nimport \"@openzeppelin/contracts/utils/Counters.sol\";\n\ncontract XDV is ERC721Burnable, ERC721Pausable, ERC721URIStorage, Ownable {\n    using Counters for Counters.Counter;\n    Counters.Counter private _tokenIds;\n    IERC20 public stablecoin;\n    uint256 public serviceFeeForPaymentAddress = 0;\n    uint256 public serviceFeeForContract = 0;\n    address public paymentAddress;\n\n    event Withdrawn(address indexed paymentAddress, uint256 amount);\n\n    event ServiceFeePaid(\n        address indexed from,\n        address indexed paymentAddress,\n        uint256 paidToContract,\n        uint256 paidToPaymentAddress\n    );\n\n    /**\n     * XDV Data Token\n     */\n    constructor(\n        string memory name,\n        string memory symbol,\n        address tokenERC20,\n        address newPaymentAddress\n    ) ERC721(name, symbol) {\n        paymentAddress = newPaymentAddress;\n        stablecoin = IERC20(tokenERC20);\n    }\n\n    function setServiceFeeForPaymentAddress(uint256 _fee) public onlyOwner {\n        serviceFeeForPaymentAddress = _fee;\n    }\n\n    function setServiceFeeForContract(uint256 _fee) public onlyOwner {\n        serviceFeeForContract = _fee;\n    }\n\n    function setPaymentAddress(address newAddress) public onlyOwner {\n        paymentAddress = newAddress;\n    }\n\n    /**\n     * @dev Mints a XDV Data Token if whitelisted\n     */\n    function mint(address user, string memory uri) public returns (uint256) {\n        _tokenIds.increment();\n\n        uint256 newItemId = _tokenIds.current();\n        _safeMint(user, newItemId);\n        _setTokenURI(newItemId, uri);\n\n        return newItemId;\n    }\n\n    /**\n     * @dev Just overrides the superclass' function. Fixes inheritance\n     * source: https://forum.openzeppelin.com/t/how-do-inherit-from-erc721-erc721enumerable-and-erc721uristorage-in-v4-of-openzeppelin-contracts/6656/4\n     */\n    function _burn(uint256 tokenId)\n        internal\n        override(ERC721, ERC721URIStorage)\n    {\n        super._burn(tokenId);\n    }\n\n    /**\n     * @dev Just overrides the superclass' function. Fixes inheritance\n     * source: https://forum.openzeppelin.com/t/how-do-inherit-from-erc721-erc721enumerable-and-erc721uristorage-in-v4-of-openzeppelin-contracts/6656/4\n     */\n    function tokenURI(uint256 tokenId)\n        public\n        view\n        override(ERC721, ERC721URIStorage)\n        returns (string memory)\n    {\n        return super.tokenURI(tokenId);\n    }\n\n    function _beforeTokenTransfer(\n        address from,\n        address to,\n        uint256 tokenId\n    ) internal virtual override(ERC721, ERC721Pausable) {\n        require(!paused(), \"XDV: Token execution is paused\");\n\n        if (to == address(0)) {\n            paymentBeforeBurn(from);\n        }\n\n        super._beforeTokenTransfer(from, to, tokenId);\n    }\n\n    /**\n     * @dev tries to execute the payment when the token is burned.\n     * Reverts if the payment procedure could not be completed.\n     */\n    function paymentBeforeBurn(address tokenHolder) internal virtual {\n        require(\n            paymentAddress != address(0),\n            \"XDV: Must have a payment address\"\n        );\n\n        // Transfer tokens to pay service fee\n        require(\n            stablecoin.transferFrom(\n                tokenHolder,\n                address(this),\n                serviceFeeForContract\n            ),\n            \"XDV: Transfer failed for recipient\"\n        );\n        require(\n            stablecoin.transferFrom(\n                tokenHolder,\n                paymentAddress,\n                serviceFeeForPaymentAddress\n            ),\n            \"XDV: Transfer failed for recipient\"\n        );\n\n        emit ServiceFeePaid(\n            tokenHolder,\n            paymentAddress,\n            serviceFeeForContract,\n            serviceFeeForPaymentAddress\n        );\n    }\n\n    function withdrawBalance(address payable payee) public onlyOwner {\n        uint256 balance = stablecoin.balanceOf(address(this));\n\n        require(\n            stablecoin.transfer(payee, balance),\n            \"XDV: Transfer failed\"\n        );\n\n        emit Withdrawn(payee, balance);\n    }\n}\n",
  "sourcePath": "/home/rogelio/Code/xdv/nft-document-swap/contracts/XDV.sol",
  "compiler": {
    "name": "solc",
    "version": "0.8.6+commit.11564f7e.Emscripten.clang"
  },
  "schemaVersion": "3.4.0",
  "updatedAt": "2021-09-30T22:48:37.991Z",
  "networkType": "ethereum",
  "devdoc": {
    "kind": "dev",
    "methods": {
      "approve(address,uint256)": {
        "details": "See {IERC721-approve}."
      },
      "balanceOf(address)": {
        "details": "See {IERC721-balanceOf}."
      },
      "burn(uint256)": {
        "details": "Burns `tokenId`. See {ERC721-_burn}. Requirements: - The caller must own `tokenId` or be an approved operator."
      },
      "getApproved(uint256)": {
        "details": "See {IERC721-getApproved}."
      },
      "isApprovedForAll(address,address)": {
        "details": "See {IERC721-isApprovedForAll}."
      },
      "mint(address,string)": {
        "details": "Mints a XDV Data Token if whitelisted"
      },
      "name()": {
        "details": "See {IERC721Metadata-name}."
      },
      "owner()": {
        "details": "Returns the address of the current owner."
      },
      "ownerOf(uint256)": {
        "details": "See {IERC721-ownerOf}."
      },
      "paused()": {
        "details": "Returns true if the contract is paused, and false otherwise."
      },
      "renounceOwnership()": {
        "details": "Leaves the contract without owner. It will not be possible to call `onlyOwner` functions anymore. Can only be called by the current owner. NOTE: Renouncing ownership will leave the contract without an owner, thereby removing any functionality that is only available to the owner."
      },
      "safeTransferFrom(address,address,uint256)": {
        "details": "See {IERC721-safeTransferFrom}."
      },
      "safeTransferFrom(address,address,uint256,bytes)": {
        "details": "See {IERC721-safeTransferFrom}."
      },
      "setApprovalForAll(address,bool)": {
        "details": "See {IERC721-setApprovalForAll}."
      },
      "supportsInterface(bytes4)": {
        "details": "See {IERC165-supportsInterface}."
      },
      "symbol()": {
        "details": "See {IERC721Metadata-symbol}."
      },
      "tokenURI(uint256)": {
        "details": "Just overrides the superclass' function. Fixes inheritance source: https://forum.openzeppelin.com/t/how-do-inherit-from-erc721-erc721enumerable-and-erc721uristorage-in-v4-of-openzeppelin-contracts/6656/4"
      },
      "transferFrom(address,address,uint256)": {
        "details": "See {IERC721-transferFrom}."
      },
      "transferOwnership(address)": {
        "details": "Transfers ownership of the contract to a new account (`newOwner`). Can only be called by the current owner."
      }
    },
    "version": 1
  },
  "userdoc": {
    "kind": "user",
    "methods": {
      "constructor": {
        "notice": "XDV Data Token"
      }
    },
    "version": 1
  }
}