{
  "contractName": "XDV",
  "abi": [
    {
      "inputs": [
        {
          "internalType": "string",
          "name": "name",
          "type": "string"
        },
        {
          "internalType": "string",
          "name": "symbol",
          "type": "string"
        },
        {
          "internalType": "address",
          "name": "tokenERC20",
          "type": "address"
        }
      ],
      "stateMutability": "nonpayable",
      "type": "constructor"
    },
    {
      "anonymous": false,
      "inputs": [
        {
          "indexed": true,
          "internalType": "address",
          "name": "owner",
          "type": "address"
        },
        {
          "indexed": true,
          "internalType": "address",
          "name": "approved",
          "type": "address"
        },
        {
          "indexed": true,
          "internalType": "uint256",
          "name": "tokenId",
          "type": "uint256"
        }
      ],
      "name": "Approval",
      "type": "event"
    },
    {
      "anonymous": false,
      "inputs": [
        {
          "indexed": true,
          "internalType": "address",
          "name": "owner",
          "type": "address"
        },
        {
          "indexed": true,
          "internalType": "address",
          "name": "operator",
          "type": "address"
        },
        {
          "indexed": false,
          "internalType": "bool",
          "name": "approved",
          "type": "bool"
        }
      ],
      "name": "ApprovalForAll",
      "type": "event"
    },
    {
      "anonymous": false,
      "inputs": [
        {
          "indexed": false,
          "internalType": "address",
          "name": "account",
          "type": "address"
        }
      ],
      "name": "Paused",
      "type": "event"
    },
    {
      "anonymous": false,
      "inputs": [
        {
          "indexed": true,
          "internalType": "address",
          "name": "from",
          "type": "address"
        },
        {
          "indexed": true,
          "internalType": "address",
          "name": "to",
          "type": "address"
        },
        {
          "indexed": true,
          "internalType": "uint256",
          "name": "tokenId",
          "type": "uint256"
        }
      ],
      "name": "Transfer",
      "type": "event"
    },
    {
      "anonymous": false,
      "inputs": [
        {
          "indexed": false,
          "internalType": "address",
          "name": "account",
          "type": "address"
        }
      ],
      "name": "Unpaused",
      "type": "event"
    },
    {
      "inputs": [
        {
          "internalType": "address",
          "name": "to",
          "type": "address"
        },
        {
          "internalType": "uint256",
          "name": "tokenId",
          "type": "uint256"
        }
      ],
      "name": "approve",
      "outputs": [],
      "stateMutability": "nonpayable",
      "type": "function"
    },
    {
      "inputs": [
        {
          "internalType": "address",
          "name": "owner",
          "type": "address"
        }
      ],
      "name": "balanceOf",
      "outputs": [
        {
          "internalType": "uint256",
          "name": "",
          "type": "uint256"
        }
      ],
      "stateMutability": "view",
      "type": "function",
      "constant": true
    },
    {
      "inputs": [],
      "name": "baseURI",
      "outputs": [
        {
          "internalType": "string",
          "name": "",
          "type": "string"
        }
      ],
      "stateMutability": "view",
      "type": "function",
      "constant": true
    },
    {
      "inputs": [
        {
          "internalType": "uint256",
          "name": "tokenId",
          "type": "uint256"
        }
      ],
      "name": "getApproved",
      "outputs": [
        {
          "internalType": "address",
          "name": "",
          "type": "address"
        }
      ],
      "stateMutability": "view",
      "type": "function",
      "constant": true
    },
    {
      "inputs": [
        {
          "internalType": "address",
          "name": "owner",
          "type": "address"
        },
        {
          "internalType": "address",
          "name": "operator",
          "type": "address"
        }
      ],
      "name": "isApprovedForAll",
      "outputs": [
        {
          "internalType": "bool",
          "name": "",
          "type": "bool"
        }
      ],
      "stateMutability": "view",
      "type": "function",
      "constant": true
    },
    {
      "inputs": [],
      "name": "name",
      "outputs": [
        {
          "internalType": "string",
          "name": "",
          "type": "string"
        }
      ],
      "stateMutability": "view",
      "type": "function",
      "constant": true
    },
    {
      "inputs": [],
      "name": "owner",
      "outputs": [
        {
          "internalType": "address",
          "name": "",
          "type": "address"
        }
      ],
      "stateMutability": "view",
      "type": "function",
      "constant": true
    },
    {
      "inputs": [
        {
          "internalType": "uint256",
          "name": "tokenId",
          "type": "uint256"
        }
      ],
      "name": "ownerOf",
      "outputs": [
        {
          "internalType": "address",
          "name": "",
          "type": "address"
        }
      ],
      "stateMutability": "view",
      "type": "function",
      "constant": true
    },
    {
      "inputs": [],
      "name": "paused",
      "outputs": [
        {
          "internalType": "bool",
          "name": "",
          "type": "bool"
        }
      ],
      "stateMutability": "view",
      "type": "function",
      "constant": true
    },
    {
      "inputs": [
        {
          "internalType": "address",
          "name": "from",
          "type": "address"
        },
        {
          "internalType": "address",
          "name": "to",
          "type": "address"
        },
        {
          "internalType": "uint256",
          "name": "tokenId",
          "type": "uint256"
        }
      ],
      "name": "safeTransferFrom",
      "outputs": [],
      "stateMutability": "nonpayable",
      "type": "function"
    },
    {
      "inputs": [
        {
          "internalType": "address",
          "name": "from",
          "type": "address"
        },
        {
          "internalType": "address",
          "name": "to",
          "type": "address"
        },
        {
          "internalType": "uint256",
          "name": "tokenId",
          "type": "uint256"
        },
        {
          "internalType": "bytes",
          "name": "_data",
          "type": "bytes"
        }
      ],
      "name": "safeTransferFrom",
      "outputs": [],
      "stateMutability": "nonpayable",
      "type": "function"
    },
    {
      "inputs": [
        {
          "internalType": "address",
          "name": "",
          "type": "address"
        }
      ],
      "name": "serviceAccounting",
      "outputs": [
        {
          "internalType": "uint256",
          "name": "",
          "type": "uint256"
        }
      ],
      "stateMutability": "view",
      "type": "function",
      "constant": true
    },
    {
      "inputs": [],
      "name": "serviceFee",
      "outputs": [
        {
          "internalType": "uint256",
          "name": "",
          "type": "uint256"
        }
      ],
      "stateMutability": "view",
      "type": "function",
      "constant": true
    },
    {
      "inputs": [
        {
          "internalType": "address",
          "name": "operator",
          "type": "address"
        },
        {
          "internalType": "bool",
          "name": "approved",
          "type": "bool"
        }
      ],
      "name": "setApprovalForAll",
      "outputs": [],
      "stateMutability": "nonpayable",
      "type": "function"
    },
    {
      "inputs": [],
      "name": "stablecoin",
      "outputs": [
        {
          "internalType": "contract ERC20Interface",
          "name": "",
          "type": "address"
        }
      ],
      "stateMutability": "view",
      "type": "function",
      "constant": true
    },
    {
      "inputs": [
        {
          "internalType": "bytes4",
          "name": "interfaceId",
          "type": "bytes4"
        }
      ],
      "name": "supportsInterface",
      "outputs": [
        {
          "internalType": "bool",
          "name": "",
          "type": "bool"
        }
      ],
      "stateMutability": "view",
      "type": "function",
      "constant": true
    },
    {
      "inputs": [],
      "name": "symbol",
      "outputs": [
        {
          "internalType": "string",
          "name": "",
          "type": "string"
        }
      ],
      "stateMutability": "view",
      "type": "function",
      "constant": true
    },
    {
      "inputs": [
        {
          "internalType": "uint256",
          "name": "index",
          "type": "uint256"
        }
      ],
      "name": "tokenByIndex",
      "outputs": [
        {
          "internalType": "uint256",
          "name": "",
          "type": "uint256"
        }
      ],
      "stateMutability": "view",
      "type": "function",
      "constant": true
    },
    {
      "inputs": [
        {
          "internalType": "address",
          "name": "owner",
          "type": "address"
        },
        {
          "internalType": "uint256",
          "name": "index",
          "type": "uint256"
        }
      ],
      "name": "tokenOfOwnerByIndex",
      "outputs": [
        {
          "internalType": "uint256",
          "name": "",
          "type": "uint256"
        }
      ],
      "stateMutability": "view",
      "type": "function",
      "constant": true
    },
    {
      "inputs": [
        {
          "internalType": "uint256",
          "name": "tokenId",
          "type": "uint256"
        }
      ],
      "name": "tokenURI",
      "outputs": [
        {
          "internalType": "string",
          "name": "",
          "type": "string"
        }
      ],
      "stateMutability": "view",
      "type": "function",
      "constant": true
    },
    {
      "inputs": [],
      "name": "totalSupply",
      "outputs": [
        {
          "internalType": "uint256",
          "name": "",
          "type": "uint256"
        }
      ],
      "stateMutability": "view",
      "type": "function",
      "constant": true
    },
    {
      "inputs": [
        {
          "internalType": "address",
          "name": "from",
          "type": "address"
        },
        {
          "internalType": "address",
          "name": "to",
          "type": "address"
        },
        {
          "internalType": "uint256",
          "name": "tokenId",
          "type": "uint256"
        }
      ],
      "name": "transferFrom",
      "outputs": [],
      "stateMutability": "nonpayable",
      "type": "function"
    },
    {
      "inputs": [
        {
          "internalType": "uint256",
          "name": "_fee",
          "type": "uint256"
        }
      ],
      "name": "setProtocolFee",
      "outputs": [],
      "stateMutability": "nonpayable",
      "type": "function"
    },
    {
      "inputs": [],
      "name": "getProtocolFee",
      "outputs": [
        {
          "internalType": "uint256",
          "name": "",
          "type": "uint256"
        }
      ],
      "stateMutability": "nonpayable",
      "type": "function"
    },
    {
      "inputs": [
        {
          "internalType": "address",
          "name": "user",
          "type": "address"
        },
        {
          "internalType": "string",
          "name": "tokenURI",
          "type": "string"
        }
      ],
      "name": "mint",
      "outputs": [
        {
          "internalType": "uint256",
          "name": "",
          "type": "uint256"
        }
      ],
      "stateMutability": "nonpayable",
      "type": "function"
    },
    {
      "inputs": [
        {
          "internalType": "address",
          "name": "caller",
          "type": "address"
        },
        {
          "internalType": "uint256",
          "name": "tokenId",
          "type": "uint256"
        },
        {
          "internalType": "uint256",
          "name": "providerFee",
          "type": "uint256"
        },
        {
          "internalType": "address",
          "name": "paymentAddress",
          "type": "address"
        }
      ],
      "name": "burn",
      "outputs": [
        {
          "internalType": "bool",
          "name": "",
          "type": "bool"
        }
      ],
      "stateMutability": "payable",
      "type": "function",
      "payable": true
    }
  ],
  "bytecode": "0x60806040523480156200001157600080fd5b50604051620040cd380380620040cd833981810160405260608110156200003757600080fd5b81019080805160405193929190846401000000008211156200005857600080fd5b838201915060208201858111156200006f57600080fd5b82518660018202830111640100000000821117156200008d57600080fd5b8083526020830192505050908051906020019080838360005b83811015620000c3578082015181840152602081019050620000a6565b50505050905090810190601f168015620000f15780820380516001836020036101000a031916815260200191505b50604052602001805160405193929190846401000000008211156200011557600080fd5b838201915060208201858111156200012c57600080fd5b82518660018202830111640100000000821117156200014a57600080fd5b8083526020830192505050908051906020019080838360005b838110156200018057808201518184015260208101905062000163565b50505050905090810190601f168015620001ae5780820380516001836020036101000a031916815260200191505b50604052602001805190602001909291905050508282620001dc6301ffc9a760e01b620002fe60201b60201c565b8160069080519060200190620001f492919062000407565b5080600790805190602001906200020d92919062000407565b50620002266380ac58cd60e01b620002fe60201b60201c565b6200023e635b5e139f60e01b620002fe60201b60201c565b6200025663780e9d6360e01b620002fe60201b60201c565b50506000600a60006101000a81548160ff02191690831515021790555033600c60006101000a81548173ffffffffffffffffffffffffffffffffffffffff021916908373ffffffffffffffffffffffffffffffffffffffff16021790555080600d60006101000a81548173ffffffffffffffffffffffffffffffffffffffff021916908373ffffffffffffffffffffffffffffffffffffffff160217905550505050620004bd565b63ffffffff60e01b817bffffffffffffffffffffffffffffffffffffffffffffffffffffffff191614156200039b576040517f08c379a000000000000000000000000000000000000000000000000000000000815260040180806020018281038252601c8152602001807f4552433136353a20696e76616c696420696e746572666163652069640000000081525060200191505060405180910390fd5b6001600080837bffffffffffffffffffffffffffffffffffffffffffffffffffffffff19167bffffffffffffffffffffffffffffffffffffffffffffffffffffffff1916815260200190815260200160002060006101000a81548160ff02191690831515021790555050565b828054600181600116156101000203166002900490600052602060002090601f0160209004810192826200043f57600085556200048b565b82601f106200045a57805160ff19168380011785556200048b565b828001600101855582156200048b579182015b828111156200048a5782518255916020019190600101906200046d565b5b5090506200049a91906200049e565b5090565b5b80821115620004b95760008160009055506001016200049f565b5090565b613c0080620004cd6000396000f3fe6080604052600436106101815760003560e01c80636c0360eb116100d1578063a22cb4651161008a578063c87b56dd11610064578063c87b56dd14610a70578063d0def52114610b24578063e985e9c514610c20578063e9cbd82214610ca757610181565b8063a22cb465146108d6578063a5a4103114610933578063b88d4fde1461095e57610181565b80636c0360eb146106aa57806370a082311461073a578063787dce3d1461079f5780638abdf5aa146107da5780638da5cb5b1461080557806395d89b411461084657610181565b806327ef1ded1161013e5780634f6ccce7116101185780634f6ccce71461053b5780635a4d53111461058a5780635c975abb146106185780636352211e1461064557610181565b806327ef1ded146103ec5780632f745c591461045157806342842e0e146104c057610181565b806301ffc9a71461018657806306fdde03146101f6578063081812fc14610286578063095ea7b3146102eb57806318160ddd1461034657806323b872dd14610371575b600080fd5b34801561019257600080fd5b506101de600480360360208110156101a957600080fd5b8101908080357bffffffffffffffffffffffffffffffffffffffffffffffffffffffff19169060200190929190505050610ce8565b60405180821515815260200191505060405180910390f35b34801561020257600080fd5b5061020b610d4f565b6040518080602001828103825283818151815260200191508051906020019080838360005b8381101561024b578082015181840152602081019050610230565b50505050905090810190601f1680156102785780820380516001836020036101000a031916815260200191505b509250505060405180910390f35b34801561029257600080fd5b506102bf600480360360208110156102a957600080fd5b8101908080359060200190929190505050610df1565b604051808273ffffffffffffffffffffffffffffffffffffffff16815260200191505060405180910390f35b3480156102f757600080fd5b506103446004803603604081101561030e57600080fd5b81019080803573ffffffffffffffffffffffffffffffffffffffff16906020019092919080359060200190929190505050610e8c565b005b34801561035257600080fd5b5061035b610fd0565b6040518082815260200191505060405180910390f35b34801561037d57600080fd5b506103ea6004803603606081101561039457600080fd5b81019080803573ffffffffffffffffffffffffffffffffffffffff169060200190929190803573ffffffffffffffffffffffffffffffffffffffff16906020019092919080359060200190929190505050610fe1565b005b3480156103f857600080fd5b5061043b6004803603602081101561040f57600080fd5b81019080803573ffffffffffffffffffffffffffffffffffffffff169060200190929190505050611057565b6040518082815260200191505060405180910390f35b34801561045d57600080fd5b506104aa6004803603604081101561047457600080fd5b81019080803573ffffffffffffffffffffffffffffffffffffffff1690602001909291908035906020019092919050505061106f565b6040518082815260200191505060405180910390f35b3480156104cc57600080fd5b50610539600480360360608110156104e357600080fd5b81019080803573ffffffffffffffffffffffffffffffffffffffff169060200190929190803573ffffffffffffffffffffffffffffffffffffffff169060200190929190803590602001909291905050506110ca565b005b34801561054757600080fd5b506105746004803603602081101561055e57600080fd5b81019080803590602001909291905050506110ea565b6040518082815260200191505060405180910390f35b610600600480360360808110156105a057600080fd5b81019080803573ffffffffffffffffffffffffffffffffffffffff1690602001909291908035906020019092919080359060200190929190803573ffffffffffffffffffffffffffffffffffffffff16906020019092919050505061110d565b60405180821515815260200191505060405180910390f35b34801561062457600080fd5b5061062d611836565b60405180821515815260200191505060405180910390f35b34801561065157600080fd5b5061067e6004803603602081101561066857600080fd5b810190808035906020019092919050505061184d565b604051808273ffffffffffffffffffffffffffffffffffffffff16815260200191505060405180910390f35b3480156106b657600080fd5b506106bf611884565b6040518080602001828103825283818151815260200191508051906020019080838360005b838110156106ff5780820151818401526020810190506106e4565b50505050905090810190601f16801561072c5780820380516001836020036101000a031916815260200191505b509250505060405180910390f35b34801561074657600080fd5b506107896004803603602081101561075d57600080fd5b81019080803573ffffffffffffffffffffffffffffffffffffffff169060200190929190505050611926565b6040518082815260200191505060405180910390f35b3480156107ab57600080fd5b506107d8600480360360208110156107c257600080fd5b81019080803590602001909291905050506119fb565b005b3480156107e657600080fd5b506107ef611ac8565b6040518082815260200191505060405180910390f35b34801561081157600080fd5b5061081a611ace565b604051808273ffffffffffffffffffffffffffffffffffffffff16815260200191505060405180910390f35b34801561085257600080fd5b5061085b611af4565b6040518080602001828103825283818151815260200191508051906020019080838360005b8381101561089b578082015181840152602081019050610880565b50505050905090810190601f1680156108c85780820380516001836020036101000a031916815260200191505b509250505060405180910390f35b3480156108e257600080fd5b50610931600480360360408110156108f957600080fd5b81019080803573ffffffffffffffffffffffffffffffffffffffff169060200190929190803515159060200190929190505050611b96565b005b34801561093f57600080fd5b50610948611d4c565b6040518082815260200191505060405180910390f35b34801561096a57600080fd5b50610a6e6004803603608081101561098157600080fd5b81019080803573ffffffffffffffffffffffffffffffffffffffff169060200190929190803573ffffffffffffffffffffffffffffffffffffffff16906020019092919080359060200190929190803590602001906401000000008111156109e857600080fd5b8201836020820111156109fa57600080fd5b80359060200191846001830284011164010000000083111715610a1c57600080fd5b91908080601f016020809104026020016040519081016040528093929190818152602001838380828437600081840152601f19601f820116905080830192505050505050509192919290505050611d56565b005b348015610a7c57600080fd5b50610aa960048036036020811015610a9357600080fd5b8101908080359060200190929190505050611dce565b6040518080602001828103825283818151815260200191508051906020019080838360005b83811015610ae9578082015181840152602081019050610ace565b50505050905090810190601f168015610b165780820380516001836020036101000a031916815260200191505b509250505060405180910390f35b348015610b3057600080fd5b50610c0a60048036036040811015610b4757600080fd5b81019080803573ffffffffffffffffffffffffffffffffffffffff16906020019092919080359060200190640100000000811115610b8457600080fd5b820183602082011115610b9657600080fd5b80359060200191846001830284011164010000000083111715610bb857600080fd5b91908080601f016020809104026020016040519081016040528093929190818152602001838380828437600081840152601f19601f8201169050808301925050505050505091929192905050506120b7565b6040518082815260200191505060405180910390f35b348015610c2c57600080fd5b50610c8f60048036036040811015610c4357600080fd5b81019080803573ffffffffffffffffffffffffffffffffffffffff169060200190929190803573ffffffffffffffffffffffffffffffffffffffff1690602001909291905050506120ef565b60405180821515815260200191505060405180910390f35b348015610cb357600080fd5b50610cbc612183565b604051808273ffffffffffffffffffffffffffffffffffffffff16815260200191505060405180910390f35b6000806000837bffffffffffffffffffffffffffffffffffffffffffffffffffffffff19167bffffffffffffffffffffffffffffffffffffffffffffffffffffffff1916815260200190815260200160002060009054906101000a900460ff169050919050565b606060068054600181600116156101000203166002900480601f016020809104026020016040519081016040528092919081815260200182805460018160011615610100020316600290048015610de75780601f10610dbc57610100808354040283529160200191610de7565b820191906000526020600020905b815481529060010190602001808311610dca57829003601f168201915b5050505050905090565b6000610dfc826121a9565b610e51576040517f08c379a000000000000000000000000000000000000000000000000000000000815260040180806020018281038252602c815260200180613aa6602c913960400191505060405180910390fd5b6004600083815260200190815260200160002060009054906101000a900473ffffffffffffffffffffffffffffffffffffffff169050919050565b6000610e978261184d565b90508073ffffffffffffffffffffffffffffffffffffffff168373ffffffffffffffffffffffffffffffffffffffff161415610f1e576040517f08c379a0000000000000000000000000000000000000000000000000000000008152600401808060200182810382526021815260200180613b796021913960400191505060405180910390fd5b8073ffffffffffffffffffffffffffffffffffffffff16610f3d6121c6565b73ffffffffffffffffffffffffffffffffffffffff161480610f6c5750610f6b81610f666121c6565b6120ef565b5b610fc1576040517f08c379a00000000000000000000000000000000000000000000000000000000081526004018080602001828103825260388152602001806139f96038913960400191505060405180910390fd5b610fcb83836121ce565b505050565b6000610fdc6002612287565b905090565b610ff2610fec6121c6565b8261229c565b611047576040517f08c379a0000000000000000000000000000000000000000000000000000000008152600401808060200182810382526031815260200180613b9a6031913960400191505060405180910390fd5b611052838383612390565b505050565b600f6020528060005260406000206000915090505481565b60006110c282600160008673ffffffffffffffffffffffffffffffffffffffff1673ffffffffffffffffffffffffffffffffffffffff1681526020019081526020016000206125d390919063ffffffff16565b905092915050565b6110e583838360405180602001604052806000815250611d56565b505050565b6000806111018360026125ed90919063ffffffff16565b50905080915050919050565b600080600d60009054906101000a900473ffffffffffffffffffffffffffffffffffffffff1673ffffffffffffffffffffffffffffffffffffffff166370a08231876040518263ffffffff1660e01b8152600401808273ffffffffffffffffffffffffffffffffffffffff16815260200191505060206040518083038186803b15801561119957600080fd5b505afa1580156111ad573d6000803e3d6000fd5b505050506040513d60208110156111c357600080fd5b81019080805190602001909291905050501015611248576040517f08c379a00000000000000000000000000000000000000000000000000000000081526004018080602001828103825260158152602001807f496e76616c696420746f6b656e2062616c616e6365000000000000000000000081525060200191505060405180910390fd5b6000600d60009054906101000a900473ffffffffffffffffffffffffffffffffffffffff1673ffffffffffffffffffffffffffffffffffffffff1663dd62ed3e87306040518363ffffffff1660e01b8152600401808373ffffffffffffffffffffffffffffffffffffffff1681526020018273ffffffffffffffffffffffffffffffffffffffff1681526020019250505060206040518083038186803b1580156112f157600080fd5b505afa158015611305573d6000803e3d6000fd5b505050506040513d602081101561131b57600080fd5b810190808051906020019092919050505010156113a0576040517f08c379a00000000000000000000000000000000000000000000000000000000081526004018080602001828103825260178152602001807f496e76616c696420746f6b656e20616c6c6f77616e636500000000000000000081525060200191505060405180910390fd5b60008311611416576040517f08c379a000000000000000000000000000000000000000000000000000000000815260040180806020018281038252601d8152602001807f4d7573742068617665207365742061206665652073747275637475726500000081525060200191505060405180910390fd5b600073ffffffffffffffffffffffffffffffffffffffff168273ffffffffffffffffffffffffffffffffffffffff1614156114b9576040517f08c379a000000000000000000000000000000000000000000000000000000000815260040180806020018281038252601b8152602001807f4d75737420686176652061207061796d656e742061646472657373000000000081525060200191505060405180910390fd5b6000600e5411611531576040517f08c379a000000000000000000000000000000000000000000000000000000000815260040180806020018281038252601b8152602001807f4d7573742068617665207365742061207365727669636520666565000000000081525060200191505060405180910390fd5b61153a84612619565b600d60009054906101000a900473ffffffffffffffffffffffffffffffffffffffff1673ffffffffffffffffffffffffffffffffffffffff166323b872dd8684866040518463ffffffff1660e01b8152600401808473ffffffffffffffffffffffffffffffffffffffff1681526020018373ffffffffffffffffffffffffffffffffffffffff1681526020018281526020019350505050602060405180830381600087803b1580156115eb57600080fd5b505af11580156115ff573d6000803e3d6000fd5b505050506040513d602081101561161557600080fd5b810190808051906020019092919050505061167b576040517f08c379a0000000000000000000000000000000000000000000000000000000008152600401808060200182810382526023815260200180613b566023913960400191505060405180910390fd5b600d60009054906101000a900473ffffffffffffffffffffffffffffffffffffffff1673ffffffffffffffffffffffffffffffffffffffff166323b872dd8630600e546040518463ffffffff1660e01b8152600401808473ffffffffffffffffffffffffffffffffffffffff1681526020018373ffffffffffffffffffffffffffffffffffffffff1681526020018281526020019350505050602060405180830381600087803b15801561172e57600080fd5b505af1158015611742573d6000803e3d6000fd5b505050506040513d602081101561175857600080fd5b81019080805190602001909291905050506117db576040517f08c379a000000000000000000000000000000000000000000000000000000000815260040180806020018281038252601e8152602001807f5472616e73666572206661696c656420666f72206261736520746f6b656e000081525060200191505060405180910390fd5b600e54600f60003073ffffffffffffffffffffffffffffffffffffffff1673ffffffffffffffffffffffffffffffffffffffff1681526020019081526020016000206000828254019250508190555060019050949350505050565b6000600a60009054906101000a900460ff16905090565b600061187d82604051806060016040528060298152602001613a5b6029913960026127539092919063ffffffff16565b9050919050565b606060098054600181600116156101000203166002900480601f01602080910402602001604051908101604052809291908181526020018280546001816001161561010002031660029004801561191c5780601f106118f15761010080835404028352916020019161191c565b820191906000526020600020905b8154815290600101906020018083116118ff57829003601f168201915b5050505050905090565b60008073ffffffffffffffffffffffffffffffffffffffff168273ffffffffffffffffffffffffffffffffffffffff1614156119ad576040517f08c379a000000000000000000000000000000000000000000000000000000000815260040180806020018281038252602a815260200180613a31602a913960400191505060405180910390fd5b6119f4600160008473ffffffffffffffffffffffffffffffffffffffff1673ffffffffffffffffffffffffffffffffffffffff168152602001908152602001600020612772565b9050919050565b600c60009054906101000a900473ffffffffffffffffffffffffffffffffffffffff1673ffffffffffffffffffffffffffffffffffffffff163373ffffffffffffffffffffffffffffffffffffffff1614611abe576040517f08c379a000000000000000000000000000000000000000000000000000000000815260040180806020018281038252600c8152602001807f494e56414c49445f55534552000000000000000000000000000000000000000081525060200191505060405180910390fd5b80600e8190555050565b600e5481565b600c60009054906101000a900473ffffffffffffffffffffffffffffffffffffffff1681565b606060078054600181600116156101000203166002900480601f016020809104026020016040519081016040528092919081815260200182805460018160011615610100020316600290048015611b8c5780601f10611b6157610100808354040283529160200191611b8c565b820191906000526020600020905b815481529060010190602001808311611b6f57829003601f168201915b5050505050905090565b611b9e6121c6565b73ffffffffffffffffffffffffffffffffffffffff168273ffffffffffffffffffffffffffffffffffffffff161415611c3f576040517f08c379a00000000000000000000000000000000000000000000000000000000081526004018080602001828103825260198152602001807f4552433732313a20617070726f766520746f2063616c6c65720000000000000081525060200191505060405180910390fd5b8060056000611c4c6121c6565b73ffffffffffffffffffffffffffffffffffffffff1673ffffffffffffffffffffffffffffffffffffffff16815260200190815260200160002060008473ffffffffffffffffffffffffffffffffffffffff1673ffffffffffffffffffffffffffffffffffffffff16815260200190815260200160002060006101000a81548160ff0219169083151502179055508173ffffffffffffffffffffffffffffffffffffffff16611cf96121c6565b73ffffffffffffffffffffffffffffffffffffffff167f17307eab39ab6107e8899845ad3d59bd9653f200f220920489ca2b5937696c318360405180821515815260200191505060405180910390a35050565b6000600e54905090565b611d67611d616121c6565b8361229c565b611dbc576040517f08c379a0000000000000000000000000000000000000000000000000000000008152600401808060200182810382526031815260200180613b9a6031913960400191505060405180910390fd5b611dc884848484612787565b50505050565b6060611dd9826121a9565b611e2e576040517f08c379a000000000000000000000000000000000000000000000000000000000815260040180806020018281038252602f815260200180613b27602f913960400191505060405180910390fd5b6000600860008481526020019081526020016000208054600181600116156101000203166002900480601f016020809104026020016040519081016040528092919081815260200182805460018160011615610100020316600290048015611ed75780601f10611eac57610100808354040283529160200191611ed7565b820191906000526020600020905b815481529060010190602001808311611eba57829003601f168201915b50505050509050600060098054600181600116156101000203166002900490501415611f0657809150506120b2565b600081511115611fdf576009816040516020018083805460018160011615610100020316600290048015611f715780601f10611f4f576101008083540402835291820191611f71565b820191906000526020600020905b815481529060010190602001808311611f5d575b505082805190602001908083835b60208310611fa25780518252602082019150602081019050602083039250611f7f565b6001836020036101000a038019825116818451168082178552505050505050905001925050506040516020818303038152906040529150506120b2565b6009611fea846127f9565b60405160200180838054600181600116156101000203166002900480156120485780601f10612026576101008083540402835291820191612048565b820191906000526020600020905b815481529060010190602001808311612034575b505082805190602001908083835b602083106120795780518252602082019150602081019050602083039250612056565b6001836020036101000a038019825116818451168082178552505050505050905001925050506040516020818303038152906040529150505b919050565b60006120c3600b612940565b60006120cf600b612956565b90506120db8482612964565b6120e58184612982565b8091505092915050565b6000600560008473ffffffffffffffffffffffffffffffffffffffff1673ffffffffffffffffffffffffffffffffffffffff16815260200190815260200160002060008373ffffffffffffffffffffffffffffffffffffffff1673ffffffffffffffffffffffffffffffffffffffff16815260200190815260200160002060009054906101000a900460ff16905092915050565b600d60009054906101000a900473ffffffffffffffffffffffffffffffffffffffff1681565b60006121bf826002612a0c90919063ffffffff16565b9050919050565b600033905090565b816004600083815260200190815260200160002060006101000a81548173ffffffffffffffffffffffffffffffffffffffff021916908373ffffffffffffffffffffffffffffffffffffffff160217905550808273ffffffffffffffffffffffffffffffffffffffff166122418361184d565b73ffffffffffffffffffffffffffffffffffffffff167f8c5be1e5ebec7d5bd14f71427d1e84f3dd0314c0f7b2291e5b200ac8c7c3b92560405160405180910390a45050565b600061229582600001612a26565b9050919050565b60006122a7826121a9565b6122fc576040517f08c379a000000000000000000000000000000000000000000000000000000000815260040180806020018281038252602c8152602001806139cd602c913960400191505060405180910390fd5b60006123078361184d565b90508073ffffffffffffffffffffffffffffffffffffffff168473ffffffffffffffffffffffffffffffffffffffff16148061237657508373ffffffffffffffffffffffffffffffffffffffff1661235e84610df1565b73ffffffffffffffffffffffffffffffffffffffff16145b80612387575061238681856120ef565b5b91505092915050565b8273ffffffffffffffffffffffffffffffffffffffff166123b08261184d565b73ffffffffffffffffffffffffffffffffffffffff161461241c576040517f08c379a0000000000000000000000000000000000000000000000000000000008152600401808060200182810382526029815260200180613afe6029913960400191505060405180910390fd5b600073ffffffffffffffffffffffffffffffffffffffff168273ffffffffffffffffffffffffffffffffffffffff1614156124a2576040517f08c379a00000000000000000000000000000000000000000000000000000000081526004018080602001828103825260248152602001806139836024913960400191505060405180910390fd5b6124ad838383612a37565b6124b86000826121ce565b61250981600160008673ffffffffffffffffffffffffffffffffffffffff1673ffffffffffffffffffffffffffffffffffffffff168152602001908152602001600020612a4790919063ffffffff16565b5061255b81600160008573ffffffffffffffffffffffffffffffffffffffff1673ffffffffffffffffffffffffffffffffffffffff168152602001908152602001600020612a6190919063ffffffff16565b5061257281836002612a7b9092919063ffffffff16565b50808273ffffffffffffffffffffffffffffffffffffffff168473ffffffffffffffffffffffffffffffffffffffff167fddf252ad1be2c89b69c2b068fc378daa952ba7f163c4a11628f55a4df523b3ef60405160405180910390a4505050565b60006125e28360000183612ab0565b60001c905092915050565b6000806000806126008660000186612b33565b915091508160001c8160001c9350935050509250929050565b60006126248261184d565b905061263281600084612a37565b61263d6000836121ce565b6000600860008481526020019081526020016000208054600181600116156101000203166002900490501461268c5760086000838152602001908152602001600020600061268b9190613810565b5b6126dd82600160008473ffffffffffffffffffffffffffffffffffffffff1673ffffffffffffffffffffffffffffffffffffffff168152602001908152602001600020612a4790919063ffffffff16565b506126f2826002612bcc90919063ffffffff16565b5081600073ffffffffffffffffffffffffffffffffffffffff168273ffffffffffffffffffffffffffffffffffffffff167fddf252ad1be2c89b69c2b068fc378daa952ba7f163c4a11628f55a4df523b3ef60405160405180910390a45050565b6000612766846000018460001b84612be6565b60001c90509392505050565b600061278082600001612cdc565b9050919050565b612792848484612390565b61279e84848484612ced565b6127f3576040517f08c379a00000000000000000000000000000000000000000000000000000000081526004018080602001828103825260328152602001806139516032913960400191505060405180910390fd5b50505050565b60606000821415612841576040518060400160405280600181526020017f3000000000000000000000000000000000000000000000000000000000000000815250905061293b565b600082905060005b6000821461286b578080600101915050600a828161286357fe5b049150612849565b60008167ffffffffffffffff8111801561288457600080fd5b506040519080825280601f01601f1916602001820160405280156128b75781602001600182028036833780820191505090505b50905060006001830390508593505b6000841461293357600a84816128d857fe5b0660300160f81b828280600190039350815181106128f257fe5b60200101907effffffffffffffffffffffffffffffffffffffffffffffffffffffffffffff1916908160001a905350600a848161292b57fe5b0493506128c6565b819450505050505b919050565b6001816000016000828254019250508190555050565b600081600001549050919050565b61297e828260405180602001604052806000815250612f06565b5050565b61298b826121a9565b6129e0576040517f08c379a000000000000000000000000000000000000000000000000000000000815260040180806020018281038252602c815260200180613ad2602c913960400191505060405180910390fd5b80600860008481526020019081526020016000209080519060200190612a07929190613858565b505050565b6000612a1e836000018360001b612f77565b905092915050565b600081600001805490509050919050565b612a42838383612f9a565b505050565b6000612a59836000018360001b613008565b905092915050565b6000612a73836000018360001b6130f0565b905092915050565b6000612aa7846000018460001b8473ffffffffffffffffffffffffffffffffffffffff1660001b613160565b90509392505050565b600081836000018054905011612b11576040517f08c379a00000000000000000000000000000000000000000000000000000000081526004018080602001828103825260228152602001806139046022913960400191505060405180910390fd5b826000018281548110612b2057fe5b9060005260206000200154905092915050565b60008082846000018054905011612b95576040517f08c379a0000000000000000000000000000000000000000000000000000000008152600401808060200182810382526022815260200180613a846022913960400191505060405180910390fd5b6000846000018481548110612ba657fe5b906000526020600020906002020190508060000154816001015492509250509250929050565b6000612bde836000018360001b61323c565b905092915050565b60008084600101600085815260200190815260200160002054905060008114158390612cad576040517f08c379a00000000000000000000000000000000000000000000000000000000081526004018080602001828103825283818151815260200191508051906020019080838360005b83811015612c72578082015181840152602081019050612c57565b50505050905090810190601f168015612c9f5780820380516001836020036101000a031916815260200191505b509250505060405180910390fd5b50846000016001820381548110612cc057fe5b9060005260206000209060020201600101549150509392505050565b600081600001805490509050919050565b6000612d0e8473ffffffffffffffffffffffffffffffffffffffff16613355565b612d1b5760019050612efe565b6000612e8563150b7a0260e01b612d306121c6565b888787604051602401808573ffffffffffffffffffffffffffffffffffffffff1681526020018473ffffffffffffffffffffffffffffffffffffffff16815260200183815260200180602001828103825283818151815260200191508051906020019080838360005b83811015612db4578082015181840152602081019050612d99565b50505050905090810190601f168015612de15780820380516001836020036101000a031916815260200191505b5095505050505050604051602081830303815290604052907bffffffffffffffffffffffffffffffffffffffffffffffffffffffff19166020820180517bffffffffffffffffffffffffffffffffffffffffffffffffffffffff8381831617835250505050604051806060016040528060328152602001613951603291398773ffffffffffffffffffffffffffffffffffffffff166133689092919063ffffffff16565b90506000818060200190516020811015612e9e57600080fd5b8101908080519060200190929190505050905063150b7a0260e01b7bffffffffffffffffffffffffffffffffffffffffffffffffffffffff1916817bffffffffffffffffffffffffffffffffffffffffffffffffffffffff191614925050505b949350505050565b612f108383613380565b612f1d6000848484612ced565b612f72576040517f08c379a00000000000000000000000000000000000000000000000000000000081526004018080602001828103825260328152602001806139516032913960400191505060405180910390fd5b505050565b600080836001016000848152602001908152602001600020541415905092915050565b612fa5838383613574565b612fad611836565b15613003576040517f08c379a000000000000000000000000000000000000000000000000000000000815260040180806020018281038252602b815260200180613926602b913960400191505060405180910390fd5b505050565b600080836001016000848152602001908152602001600020549050600081146130e4576000600182039050600060018660000180549050039050600086600001828154811061305357fe5b906000526020600020015490508087600001848154811061307057fe5b90600052602060002001819055506001830187600101600083815260200190815260200160002081905550866000018054806130a857fe5b600190038181906000526020600020016000905590558660010160008781526020019081526020016000206000905560019450505050506130ea565b60009150505b92915050565b60006130fc8383613579565b61315557826000018290806001815401808255809150506001900390600052602060002001600090919091909150558260000180549050836001016000848152602001908152602001600020819055506001905061315a565b600090505b92915050565b600080846001016000858152602001908152602001600020549050600081141561320757846000016040518060400160405280868152602001858152509080600181540180825580915050600190039060005260206000209060020201600090919091909150600082015181600001556020820151816001015550508460000180549050856001016000868152602001908152602001600020819055506001915050613235565b8285600001600183038154811061321a57fe5b90600052602060002090600202016001018190555060009150505b9392505050565b60008083600101600084815260200190815260200160002054905060008114613349576000600182039050600060018660000180549050039050600086600001828154811061328757fe5b90600052602060002090600202019050808760000184815481106132a757fe5b90600052602060002090600202016000820154816000015560018201548160010155905050600183018760010160008360000154815260200190815260200160002081905550866000018054806132fa57fe5b600190038181906000526020600020906002020160008082016000905560018201600090555050905586600101600087815260200190815260200160002060009055600194505050505061334f565b60009150505b92915050565b600080823b905060008111915050919050565b6060613377848460008561359c565b90509392505050565b600073ffffffffffffffffffffffffffffffffffffffff168273ffffffffffffffffffffffffffffffffffffffff161415613423576040517f08c379a00000000000000000000000000000000000000000000000000000000081526004018080602001828103825260208152602001807f4552433732313a206d696e7420746f20746865207a65726f206164647265737381525060200191505060405180910390fd5b61342c816121a9565b1561349f576040517f08c379a000000000000000000000000000000000000000000000000000000000815260040180806020018281038252601c8152602001807f4552433732313a20746f6b656e20616c7265616479206d696e7465640000000081525060200191505060405180910390fd5b6134ab60008383612a37565b6134fc81600160008573ffffffffffffffffffffffffffffffffffffffff1673ffffffffffffffffffffffffffffffffffffffff168152602001908152602001600020612a6190919063ffffffff16565b5061351381836002612a7b9092919063ffffffff16565b50808273ffffffffffffffffffffffffffffffffffffffff16600073ffffffffffffffffffffffffffffffffffffffff167fddf252ad1be2c89b69c2b068fc378daa952ba7f163c4a11628f55a4df523b3ef60405160405180910390a45050565b505050565b600080836001016000848152602001908152602001600020541415905092915050565b6060824710156135f7576040517f08c379a00000000000000000000000000000000000000000000000000000000081526004018080602001828103825260268152602001806139a76026913960400191505060405180910390fd5b61360085613355565b613672576040517f08c379a000000000000000000000000000000000000000000000000000000000815260040180806020018281038252601d8152602001807f416464726573733a2063616c6c20746f206e6f6e2d636f6e747261637400000081525060200191505060405180910390fd5b6000808673ffffffffffffffffffffffffffffffffffffffff1685876040518082805190602001908083835b602083106136c1578051825260208201915060208101905060208303925061369e565b6001836020036101000a03801982511681845116808217855250505050505090500191505060006040518083038185875af1925050503d8060008114613723576040519150601f19603f3d011682016040523d82523d6000602084013e613728565b606091505b5091509150613738828286613744565b92505050949350505050565b6060831561375457829050613809565b6000835111156137675782518084602001fd5b816040517f08c379a00000000000000000000000000000000000000000000000000000000081526004018080602001828103825283818151815260200191508051906020019080838360005b838110156137ce5780820151818401526020810190506137b3565b50505050905090810190601f1680156137fb5780820380516001836020036101000a031916815260200191505b509250505060405180910390fd5b9392505050565b50805460018160011615610100020316600290046000825580601f106138365750613855565b601f01602090049060005260206000209081019061385491906138e6565b5b50565b828054600181600116156101000203166002900490600052602060002090601f01602090048101928261388e57600085556138d5565b82601f106138a757805160ff19168380011785556138d5565b828001600101855582156138d5579182015b828111156138d45782518255916020019190600101906138b9565b5b5090506138e291906138e6565b5090565b5b808211156138ff5760008160009055506001016138e7565b509056fe456e756d657261626c655365743a20696e646578206f7574206f6620626f756e64734552433732315061757361626c653a20746f6b656e207472616e73666572207768696c65207061757365644552433732313a207472616e7366657220746f206e6f6e20455243373231526563656976657220696d706c656d656e7465724552433732313a207472616e7366657220746f20746865207a65726f2061646472657373416464726573733a20696e73756666696369656e742062616c616e636520666f722063616c6c4552433732313a206f70657261746f7220717565727920666f72206e6f6e6578697374656e7420746f6b656e4552433732313a20617070726f76652063616c6c6572206973206e6f74206f776e6572206e6f7220617070726f76656420666f7220616c6c4552433732313a2062616c616e636520717565727920666f7220746865207a65726f20616464726573734552433732313a206f776e657220717565727920666f72206e6f6e6578697374656e7420746f6b656e456e756d657261626c654d61703a20696e646578206f7574206f6620626f756e64734552433732313a20617070726f76656420717565727920666f72206e6f6e6578697374656e7420746f6b656e4552433732314d657461646174613a2055524920736574206f66206e6f6e6578697374656e7420746f6b656e4552433732313a207472616e73666572206f6620746f6b656e2074686174206973206e6f74206f776e4552433732314d657461646174613a2055524920717565727920666f72206e6f6e6578697374656e7420746f6b656e5472616e73666572206661696c656420666f72206261736520737461626c65636f696e4552433732313a20617070726f76616c20746f2063757272656e74206f776e65724552433732313a207472616e736665722063616c6c6572206973206e6f74206f776e6572206e6f7220617070726f766564a26469706673582212205179a874d44f83e0e5ecd97353b93591625a21b72e14ebd0a053f93854273d6764736f6c63430007060033",
  "immutableReferences": {},
  "source": "pragma solidity ^0.7.0;\nimport \"@openzeppelin/contracts/token/ERC721/ERC721Pausable.sol\";\nimport \"@openzeppelin/contracts/utils/Counters.sol\";\nimport \"./ERC20Interface.sol\";\n\ncontract XDV is ERC721Pausable {\n    using Counters for Counters.Counter;\n    using SafeMath for uint256;\n    Counters.Counter private _tokenIds;\n    address public owner;\n    ERC20Interface public stablecoin;\n    uint public serviceFee;\n\n    mapping(address => uint) public serviceAccounting;\n\n\n    /**\n     * XDV Data Token\n     */\n    constructor(string memory name, string memory symbol, address tokenERC20)\n        public\n        ERC721(name, symbol)\n    {\n        owner = msg.sender;\n        stablecoin = ERC20Interface(tokenERC20);\n    }\n\n    function setProtocolFee(uint256 _fee) public {\n        require(msg.sender == owner, \"INVALID_USER\");\n        serviceFee = _fee;\n    }\n\n    function getProtocolFee() public returns (uint256) {\n        return serviceFee;\n    }\n\n\n    /**\n     * @dev Mints a XDV Data Token if whitelisted\n     */\n    function mint(address user, string memory tokenURI)\n        public\n        returns (uint256)\n    {\n        _tokenIds.increment();\n\n        uint256 newItemId = _tokenIds.current();\n        _safeMint(user, newItemId);\n        _setTokenURI(newItemId, tokenURI);\n\n\n        return newItemId;\n    }\n    /**\n    *  @dev Burns a platform token.\n     */\n    function burn(\n        address caller,\n        uint tokenId,\n        uint providerFee,\n        address paymentAddress\n    )\n        public\n        payable\n        returns (bool)\n    {\n\n        // User must have a balance\n        require(\n            stablecoin.balanceOf(caller) >= 0,\n            \"Invalid token balance\"\n        );\n        // User must have an allowance\n        require(\n            stablecoin.allowance(caller, address(this)) >= 0,\n            \"Invalid token allowance\"\n        );\n        require(\n            providerFee > 0,\n            \"Must have set a fee structure\"\n        );\n        require(\n            paymentAddress != address(0),\n            \"Must have a payment address\"\n        );\n        require(\n            serviceFee > 0,\n            \"Must have set a service fee\"\n        );\n        \n        _burn(tokenId);\n\n        // Transfer tokens to NFT owner, change pull pattern\n        require(\n            stablecoin.transferFrom(\n                caller, \n                paymentAddress, \n                providerFee),\n            \"Transfer failed for base stablecoin\"\n        );\n\n        // Transfer tokens to pay service fee\n        require(\n            stablecoin.transferFrom(\n                caller, \n                address(this), \n                serviceFee),\n            \"Transfer failed for base token\"\n        );\n\n        serviceAccounting[address(this)] += serviceFee;\n        return true;\n    }       \n\n    function _beforeTokenTransfer(\n        address from,\n        address to,\n        uint256 amount\n    ) internal virtual override {\n        super._beforeTokenTransfer(from, to, amount);\n\n        //        require(_validRecipient(to), \"ERC20WithSafeTransfer: invalid recipient\");\n    }\n}\n",
  "sourcePath": "/home/rogelio/Code/xdv/nft-document-swap/contracts/XDV.sol",
  "compiler": {
    "name": "solc",
    "version": "0.7.6+commit.7338295f.Emscripten.clang"
  },
  "schemaVersion": "3.3.3",
  "updatedAt": "2021-04-02T20:29:26.517Z",
  "networkType": "ethereum",
  "devdoc": {
    "kind": "dev",
    "methods": {
      "approve(address,uint256)": {
        "details": "See {IERC721-approve}."
      },
      "balanceOf(address)": {
        "details": "See {IERC721-balanceOf}."
      },
      "baseURI()": {
        "details": "Returns the base URI set via {_setBaseURI}. This will be automatically added as a prefix in {tokenURI} to each token's URI, or to the token ID if no specific URI is set for that token ID."
      },
      "burn(address,uint256,uint256,address)": {
        "details": "Burns a platform token."
      },
      "getApproved(uint256)": {
        "details": "See {IERC721-getApproved}."
      },
      "isApprovedForAll(address,address)": {
        "details": "See {IERC721-isApprovedForAll}."
      },
      "mint(address,string)": {
        "details": "Mints a XDV Data Token if whitelisted"
      },
      "name()": {
        "details": "See {IERC721Metadata-name}."
      },
      "ownerOf(uint256)": {
        "details": "See {IERC721-ownerOf}."
      },
      "paused()": {
        "details": "Returns true if the contract is paused, and false otherwise."
      },
      "safeTransferFrom(address,address,uint256)": {
        "details": "See {IERC721-safeTransferFrom}."
      },
      "safeTransferFrom(address,address,uint256,bytes)": {
        "details": "See {IERC721-safeTransferFrom}."
      },
      "setApprovalForAll(address,bool)": {
        "details": "See {IERC721-setApprovalForAll}."
      },
      "supportsInterface(bytes4)": {
        "details": "See {IERC165-supportsInterface}. Time complexity O(1), guaranteed to always use less than 30 000 gas."
      },
      "symbol()": {
        "details": "See {IERC721Metadata-symbol}."
      },
      "tokenByIndex(uint256)": {
        "details": "See {IERC721Enumerable-tokenByIndex}."
      },
      "tokenOfOwnerByIndex(address,uint256)": {
        "details": "See {IERC721Enumerable-tokenOfOwnerByIndex}."
      },
      "tokenURI(uint256)": {
        "details": "See {IERC721Metadata-tokenURI}."
      },
      "totalSupply()": {
        "details": "See {IERC721Enumerable-totalSupply}."
      },
      "transferFrom(address,address,uint256)": {
        "details": "See {IERC721-transferFrom}."
      }
    },
    "version": 1
  },
  "userdoc": {
    "kind": "user",
    "methods": {
      "constructor": {
        "notice": "XDV Data Token"
      }
    },
    "version": 1
  }
}