{
  "contractName": "XDVController",
  "abi": [
    {
      "inputs": [
        {
          "internalType": "address",
          "name": "stablecoin",
          "type": "address"
        },
        {
          "internalType": "address",
          "name": "xdv",
          "type": "address"
        }
      ],
      "stateMutability": "nonpayable",
      "type": "constructor"
    },
    {
      "anonymous": false,
      "inputs": [
        {
          "indexed": true,
          "internalType": "address",
          "name": "user",
          "type": "address"
        },
        {
          "indexed": true,
          "internalType": "string",
          "name": "userDid",
          "type": "string"
        },
        {
          "indexed": false,
          "internalType": "string",
          "name": "documentURI",
          "type": "string"
        },
        {
          "indexed": false,
          "internalType": "uint256",
          "name": "id",
          "type": "uint256"
        }
      ],
      "name": "DocumentAnchored",
      "type": "event"
    },
    {
      "anonymous": false,
      "inputs": [
        {
          "indexed": true,
          "internalType": "address",
          "name": "minter",
          "type": "address"
        },
        {
          "indexed": false,
          "internalType": "string",
          "name": "name",
          "type": "string"
        }
      ],
      "name": "MinterRegistered",
      "type": "event"
    },
    {
      "anonymous": false,
      "inputs": [
        {
          "indexed": true,
          "internalType": "address",
          "name": "previousOwner",
          "type": "address"
        },
        {
          "indexed": true,
          "internalType": "address",
          "name": "newOwner",
          "type": "address"
        }
      ],
      "name": "OwnershipTransferred",
      "type": "event"
    },
    {
      "inputs": [
        {
          "internalType": "address",
          "name": "",
          "type": "address"
        }
      ],
      "name": "dataProviderAccounting",
      "outputs": [
        {
          "internalType": "uint256",
          "name": "",
          "type": "uint256"
        }
      ],
      "stateMutability": "view",
      "type": "function",
      "constant": true
    },
    {
      "inputs": [
        {
          "internalType": "address",
          "name": "",
          "type": "address"
        }
      ],
      "name": "minterCounter",
      "outputs": [
        {
          "internalType": "uint256",
          "name": "",
          "type": "uint256"
        }
      ],
      "stateMutability": "view",
      "type": "function",
      "constant": true
    },
    {
      "inputs": [
        {
          "internalType": "address",
          "name": "",
          "type": "address"
        }
      ],
      "name": "minterDocumentRequestCounter",
      "outputs": [
        {
          "internalType": "uint256",
          "name": "",
          "type": "uint256"
        }
      ],
      "stateMutability": "view",
      "type": "function",
      "constant": true
    },
    {
      "inputs": [
        {
          "internalType": "address",
          "name": "",
          "type": "address"
        },
        {
          "internalType": "uint256",
          "name": "",
          "type": "uint256"
        }
      ],
      "name": "minterDocumentRequests",
      "outputs": [
        {
          "internalType": "address",
          "name": "user",
          "type": "address"
        },
        {
          "internalType": "string",
          "name": "userDid",
          "type": "string"
        },
        {
          "internalType": "address",
          "name": "toMinter",
          "type": "address"
        },
        {
          "internalType": "string",
          "name": "toMinterDid",
          "type": "string"
        },
        {
          "internalType": "string",
          "name": "documentURI",
          "type": "string"
        },
        {
          "internalType": "uint256",
          "name": "status",
          "type": "uint256"
        },
        {
          "internalType": "uint256",
          "name": "timestamp",
          "type": "uint256"
        },
        {
          "internalType": "string",
          "name": "description",
          "type": "string"
        }
      ],
      "stateMutability": "view",
      "type": "function",
      "constant": true
    },
    {
      "inputs": [],
      "name": "owner",
      "outputs": [
        {
          "internalType": "address",
          "name": "",
          "type": "address"
        }
      ],
      "stateMutability": "view",
      "type": "function",
      "constant": true
    },
    {
      "inputs": [],
      "name": "renounceOwnership",
      "outputs": [],
      "stateMutability": "nonpayable",
      "type": "function"
    },
    {
      "inputs": [],
      "name": "token",
      "outputs": [
        {
          "internalType": "contract IERC20",
          "name": "",
          "type": "address"
        }
      ],
      "stateMutability": "view",
      "type": "function",
      "constant": true
    },
    {
      "inputs": [
        {
          "internalType": "address",
          "name": "newOwner",
          "type": "address"
        }
      ],
      "name": "transferOwnership",
      "outputs": [],
      "stateMutability": "nonpayable",
      "type": "function"
    },
    {
      "inputs": [
        {
          "internalType": "bytes32",
          "name": "hash",
          "type": "bytes32"
        },
        {
          "internalType": "bytes",
          "name": "signature",
          "type": "bytes"
        }
      ],
      "name": "isValidSignature",
      "outputs": [
        {
          "internalType": "bytes4",
          "name": "magicValue",
          "type": "bytes4"
        }
      ],
      "stateMutability": "view",
      "type": "function",
      "constant": true
    },
    {
      "inputs": [
        {
          "internalType": "string",
          "name": "minterDid",
          "type": "string"
        },
        {
          "internalType": "address",
          "name": "minterAddress",
          "type": "address"
        },
        {
          "internalType": "string",
          "name": "userDid",
          "type": "string"
        },
        {
          "internalType": "string",
          "name": "documentURI",
          "type": "string"
        },
        {
          "internalType": "string",
          "name": "description",
          "type": "string"
        }
      ],
      "name": "requestDataProviderService",
      "outputs": [
        {
          "internalType": "uint256",
          "name": "",
          "type": "uint256"
        }
      ],
      "stateMutability": "nonpayable",
      "type": "function"
    },
    {
      "inputs": [
        {
          "internalType": "uint256",
          "name": "requestId",
          "type": "uint256"
        },
        {
          "internalType": "address",
          "name": "user",
          "type": "address"
        },
        {
          "internalType": "address",
          "name": "dataProvider",
          "type": "address"
        },
        {
          "internalType": "string",
          "name": "tokenURI",
          "type": "string"
        }
      ],
      "name": "mint",
      "outputs": [
        {
          "internalType": "uint256",
          "name": "",
          "type": "uint256"
        }
      ],
      "stateMutability": "nonpayable",
      "type": "function"
    },
    {
      "inputs": [
        {
          "internalType": "string",
          "name": "name",
          "type": "string"
        },
        {
          "internalType": "address",
          "name": "paymentAddress",
          "type": "address"
        },
        {
          "internalType": "bool",
          "name": "userHasKyc",
          "type": "bool"
        },
        {
          "internalType": "uint256",
          "name": "feeStructure",
          "type": "uint256"
        }
      ],
      "name": "registerMinter",
      "outputs": [
        {
          "internalType": "uint256",
          "name": "",
          "type": "uint256"
        }
      ],
      "stateMutability": "nonpayable",
      "type": "function"
    }
  ],
  "bytecode": "0x60806040523480156200001157600080fd5b50604051620025ad380380620025ad8339818101604052810190620000379190620001e4565b6000620000496200017260201b60201c565b905080600360006101000a81548173ffffffffffffffffffffffffffffffffffffffff021916908373ffffffffffffffffffffffffffffffffffffffff1602179055508073ffffffffffffffffffffffffffffffffffffffff16600073ffffffffffffffffffffffffffffffffffffffff167f8be0079c531659141344cd1fd0a4f28419497f9722a3daafe3b4186f6b6457e060405160405180910390a35081600560006101000a81548173ffffffffffffffffffffffffffffffffffffffff021916908373ffffffffffffffffffffffffffffffffffffffff16021790555080600460006101000a81548173ffffffffffffffffffffffffffffffffffffffff021916908373ffffffffffffffffffffffffffffffffffffffff16021790555050506200022b565b600033905090565b600080fd5b600073ffffffffffffffffffffffffffffffffffffffff82169050919050565b6000620001ac826200017f565b9050919050565b620001be816200019f565b8114620001ca57600080fd5b50565b600081519050620001de81620001b3565b92915050565b60008060408385031215620001fe57620001fd6200017a565b5b60006200020e85828601620001cd565b92505060206200022185828601620001cd565b9150509250929050565b612372806200023b6000396000f3fe608060405234801561001057600080fd5b50600436106100b45760003560e01c8063761901bb11610071578063761901bb146101ba5780638da5cb5b146101ea5780639acd083e14610208578063f2fde38b14610238578063f83d360d14610254578063fc0c546a14610284576100b4565b80631626ba7e146100b95780632aa222c8146100e95780635cec86161461011957806366563b4f146101495780636efaa69914610179578063715018a6146101b0575b600080fd5b6100d360048036038101906100ce9190611618565b6102a2565b6040516100e091906116af565b60405180910390f35b61010360048036038101906100fe9190611728565b610307565b604051610110919061176e565b60405180910390f35b610133600480360381019061012e9190611728565b61031f565b604051610140919061176e565b60405180910390f35b610163600480360381019061015e919061188e565b610337565b604051610170919061176e565b60405180910390f35b610193600480360381019061018e9190611911565b6105c9565b6040516101a79897969594939291906119e8565b60405180910390f35b6101b861087e565b005b6101d460048036038101906101cf9190611728565b6109bb565b6040516101e1919061176e565b60405180910390f35b6101f26109d3565b6040516101ff9190611a82565b60405180910390f35b610222600480360381019061021d9190611a9d565b6109fd565b60405161022f919061176e565b60405180910390f35b610252600480360381019061024d9190611728565b610cc7565b005b61026e60048036038101906102699190611b20565b610e73565b60405161027b919061176e565b60405180910390f35b61028c611162565b6040516102999190611c6a565b60405180910390f35b6000806102af8484611188565b90506102b96109d3565b73ffffffffffffffffffffffffffffffffffffffff168173ffffffffffffffffffffffffffffffffffffffff16146102f557600060e01b6102fe565b631626ba7e60e01b5b91505092915050565b60016020528060005260406000206000915090505481565b60076020528060005260406000206000915090505481565b60008060003373ffffffffffffffffffffffffffffffffffffffff1673ffffffffffffffffffffffffffffffffffffffff168152602001908152602001600020600081548092919061038890611cb4565b91905055506040518060e001604052808681526020018573ffffffffffffffffffffffffffffffffffffffff16815260200184151581526020018381526020014281526020013073ffffffffffffffffffffffffffffffffffffffff16815260200160011515815250600660003373ffffffffffffffffffffffffffffffffffffffff1673ffffffffffffffffffffffffffffffffffffffff168152602001908152602001600020600082015181600001908051906020019061044c9291906113e5565b5060208201518160010160006101000a81548173ffffffffffffffffffffffffffffffffffffffff021916908373ffffffffffffffffffffffffffffffffffffffff16021790555060408201518160010160146101000a81548160ff021916908315150217905550606082015181600201556080820151816003015560a08201518160040160006101000a81548173ffffffffffffffffffffffffffffffffffffffff021916908373ffffffffffffffffffffffffffffffffffffffff16021790555060c08201518160040160146101000a81548160ff0219169083151502179055509050503373ffffffffffffffffffffffffffffffffffffffff167fdd49a7e572b5c7638971bc6a10724835256bbb03ca4187ce5fa77a2bf3716a76866040516105789190611cfd565b60405180910390a26000803373ffffffffffffffffffffffffffffffffffffffff1673ffffffffffffffffffffffffffffffffffffffff168152602001908152602001600020549050949350505050565b6002602052816000526040600020602052806000526040600020600091509150508060000160009054906101000a900473ffffffffffffffffffffffffffffffffffffffff169080600101805461061f90611d4e565b80601f016020809104026020016040519081016040528092919081815260200182805461064b90611d4e565b80156106985780601f1061066d57610100808354040283529160200191610698565b820191906000526020600020905b81548152906001019060200180831161067b57829003601f168201915b5050505050908060020160009054906101000a900473ffffffffffffffffffffffffffffffffffffffff16908060030180546106d390611d4e565b80601f01602080910402602001604051908101604052809291908181526020018280546106ff90611d4e565b801561074c5780601f106107215761010080835404028352916020019161074c565b820191906000526020600020905b81548152906001019060200180831161072f57829003601f168201915b50505050509080600401805461076190611d4e565b80601f016020809104026020016040519081016040528092919081815260200182805461078d90611d4e565b80156107da5780601f106107af576101008083540402835291602001916107da565b820191906000526020600020905b8154815290600101906020018083116107bd57829003601f168201915b5050505050908060050154908060060154908060070180546107fb90611d4e565b80601f016020809104026020016040519081016040528092919081815260200182805461082790611d4e565b80156108745780601f1061084957610100808354040283529160200191610874565b820191906000526020600020905b81548152906001019060200180831161085757829003601f168201915b5050505050905088565b610886611252565b73ffffffffffffffffffffffffffffffffffffffff166108a46109d3565b73ffffffffffffffffffffffffffffffffffffffff16146108fa576040517f08c379a00000000000000000000000000000000000000000000000000000000081526004016108f190611dcc565b60405180910390fd5b600073ffffffffffffffffffffffffffffffffffffffff16600360009054906101000a900473ffffffffffffffffffffffffffffffffffffffff1673ffffffffffffffffffffffffffffffffffffffff167f8be0079c531659141344cd1fd0a4f28419497f9722a3daafe3b4186f6b6457e060405160405180910390a36000600360006101000a81548173ffffffffffffffffffffffffffffffffffffffff021916908373ffffffffffffffffffffffffffffffffffffffff160217905550565b60006020528060005260406000206000915090505481565b6000600360009054906101000a900473ffffffffffffffffffffffffffffffffffffffff16905090565b6000806002811115610a1257610a11611dec565b5b600260008573ffffffffffffffffffffffffffffffffffffffff1673ffffffffffffffffffffffffffffffffffffffff16815260200190815260200160002060008781526020019081526020016000206005015414610aa6576040517f08c379a0000000000000000000000000000000000000000000000000000000008152600401610a9d90611e67565b60405180910390fd5b600073ffffffffffffffffffffffffffffffffffffffff168473ffffffffffffffffffffffffffffffffffffffff161415610b16576040517f08c379a0000000000000000000000000000000000000000000000000000000008152600401610b0d90611ed3565b60405180910390fd5b60016002811115610b2a57610b29611dec565b5b600260008573ffffffffffffffffffffffffffffffffffffffff1673ffffffffffffffffffffffffffffffffffffffff16815260200190815260200160002060008781526020019081526020016000206005018190555060016000808573ffffffffffffffffffffffffffffffffffffffff1673ffffffffffffffffffffffffffffffffffffffff16815260200190815260200160002054610bcc9190611ef3565b6000808573ffffffffffffffffffffffffffffffffffffffff1673ffffffffffffffffffffffffffffffffffffffff16815260200190815260200160002081905550600460009054906101000a900473ffffffffffffffffffffffffffffffffffffffff1673ffffffffffffffffffffffffffffffffffffffff1663d0def52185846040518363ffffffff1660e01b8152600401610c6b929190611f49565b602060405180830381600087803b158015610c8557600080fd5b505af1158015610c99573d6000803e3d6000fd5b505050506040513d601f19601f82011682018060405250810190610cbd9190611f8e565b9050949350505050565b610ccf611252565b73ffffffffffffffffffffffffffffffffffffffff16610ced6109d3565b73ffffffffffffffffffffffffffffffffffffffff1614610d43576040517f08c379a0000000000000000000000000000000000000000000000000000000008152600401610d3a90611dcc565b60405180910390fd5b600073ffffffffffffffffffffffffffffffffffffffff168173ffffffffffffffffffffffffffffffffffffffff161415610db3576040517f08c379a0000000000000000000000000000000000000000000000000000000008152600401610daa9061202d565b60405180910390fd5b8073ffffffffffffffffffffffffffffffffffffffff16600360009054906101000a900473ffffffffffffffffffffffffffffffffffffffff1673ffffffffffffffffffffffffffffffffffffffff167f8be0079c531659141344cd1fd0a4f28419497f9722a3daafe3b4186f6b6457e060405160405180910390a380600360006101000a81548173ffffffffffffffffffffffffffffffffffffffff021916908373ffffffffffffffffffffffffffffffffffffffff16021790555050565b600080600160008773ffffffffffffffffffffffffffffffffffffffff1673ffffffffffffffffffffffffffffffffffffffff1681526020019081526020016000205490506040518061010001604052803373ffffffffffffffffffffffffffffffffffffffff1681526020018681526020018773ffffffffffffffffffffffffffffffffffffffff16815260200188815260200185815260200160006002811115610f2257610f21611dec565b5b815260200142815260200184815250600260008873ffffffffffffffffffffffffffffffffffffffff1673ffffffffffffffffffffffffffffffffffffffff168152602001908152602001600020600083815260200190815260200160002060008201518160000160006101000a81548173ffffffffffffffffffffffffffffffffffffffff021916908373ffffffffffffffffffffffffffffffffffffffff1602179055506020820151816001019080519060200190610fe49291906113e5565b5060408201518160020160006101000a81548173ffffffffffffffffffffffffffffffffffffffff021916908373ffffffffffffffffffffffffffffffffffffffff16021790555060608201518160030190805190602001906110489291906113e5565b5060808201518160040190805190602001906110659291906113e5565b5060a0820151816005015560c0820151816006015560e08201518160070190805190602001906110969291906113e5565b50905050600160008773ffffffffffffffffffffffffffffffffffffffff1673ffffffffffffffffffffffffffffffffffffffff16815260200190815260200160002060008154809291906110ea90611cb4565b9190505550846040516110fd9190612089565b60405180910390203373ffffffffffffffffffffffffffffffffffffffff167f0a007e579f0793671747216eab1061026d102ff0f66e876d2edaa6277ad53e66868460405161114d9291906120a0565b60405180910390a38091505095945050505050565b600560009054906101000a900473ffffffffffffffffffffffffffffffffffffffff1681565b6000806000806041855114156111b5576020850151925060408501519150606085015160001a905061123b565b6040855114156111ff576040850151602086015193507f7fffffffffffffffffffffffffffffffffffffffffffffffffffffffffffffff81169250601b8160ff1c0191505061123a565b6040517f08c379a00000000000000000000000000000000000000000000000000000000081526004016112319061211c565b60405180910390fd5b5b6112478682858561125a565b935050505092915050565b600033905090565b60007f7fffffffffffffffffffffffffffffff5d576e7357a4501ddfe92f46681b20a08260001c11156112c2576040517f08c379a00000000000000000000000000000000000000000000000000000000081526004016112b9906121ae565b60405180910390fd5b601b8460ff1614806112d75750601c8460ff16145b611316576040517f08c379a000000000000000000000000000000000000000000000000000000000815260040161130d90612240565b60405180910390fd5b60006001868686866040516000815260200160405260405161133b949392919061228b565b6020604051602081039080840390855afa15801561135d573d6000803e3d6000fd5b505050602060405103519050600073ffffffffffffffffffffffffffffffffffffffff168173ffffffffffffffffffffffffffffffffffffffff1614156113d9576040517f08c379a00000000000000000000000000000000000000000000000000000000081526004016113d09061231c565b60405180910390fd5b80915050949350505050565b8280546113f190611d4e565b90600052602060002090601f016020900481019282611413576000855561145a565b82601f1061142c57805160ff191683800117855561145a565b8280016001018555821561145a579182015b8281111561145957825182559160200191906001019061143e565b5b509050611467919061146b565b5090565b5b8082111561148457600081600090555060010161146c565b5090565b6000604051905090565b600080fd5b600080fd5b6000819050919050565b6114af8161149c565b81146114ba57600080fd5b50565b6000813590506114cc816114a6565b92915050565b600080fd5b600080fd5b6000601f19601f8301169050919050565b7f4e487b7100000000000000000000000000000000000000000000000000000000600052604160045260246000fd5b611525826114dc565b810181811067ffffffffffffffff82111715611544576115436114ed565b5b80604052505050565b6000611557611488565b9050611563828261151c565b919050565b600067ffffffffffffffff821115611583576115826114ed565b5b61158c826114dc565b9050602081019050919050565b82818337600083830152505050565b60006115bb6115b684611568565b61154d565b9050828152602081018484840111156115d7576115d66114d7565b5b6115e2848285611599565b509392505050565b600082601f8301126115ff576115fe6114d2565b5b813561160f8482602086016115a8565b91505092915050565b6000806040838503121561162f5761162e611492565b5b600061163d858286016114bd565b925050602083013567ffffffffffffffff81111561165e5761165d611497565b5b61166a858286016115ea565b9150509250929050565b60007fffffffff0000000000000000000000000000000000000000000000000000000082169050919050565b6116a981611674565b82525050565b60006020820190506116c460008301846116a0565b92915050565b600073ffffffffffffffffffffffffffffffffffffffff82169050919050565b60006116f5826116ca565b9050919050565b611705816116ea565b811461171057600080fd5b50565b600081359050611722816116fc565b92915050565b60006020828403121561173e5761173d611492565b5b600061174c84828501611713565b91505092915050565b6000819050919050565b61176881611755565b82525050565b6000602082019050611783600083018461175f565b92915050565b600067ffffffffffffffff8211156117a4576117a36114ed565b5b6117ad826114dc565b9050602081019050919050565b60006117cd6117c884611789565b61154d565b9050828152602081018484840111156117e9576117e86114d7565b5b6117f4848285611599565b509392505050565b600082601f830112611811576118106114d2565b5b81356118218482602086016117ba565b91505092915050565b60008115159050919050565b61183f8161182a565b811461184a57600080fd5b50565b60008135905061185c81611836565b92915050565b61186b81611755565b811461187657600080fd5b50565b60008135905061188881611862565b92915050565b600080600080608085870312156118a8576118a7611492565b5b600085013567ffffffffffffffff8111156118c6576118c5611497565b5b6118d2878288016117fc565b94505060206118e387828801611713565b93505060406118f48782880161184d565b925050606061190587828801611879565b91505092959194509250565b6000806040838503121561192857611927611492565b5b600061193685828601611713565b925050602061194785828601611879565b9150509250929050565b61195a816116ea565b82525050565b600081519050919050565b600082825260208201905092915050565b60005b8381101561199a57808201518184015260208101905061197f565b838111156119a9576000848401525b50505050565b60006119ba82611960565b6119c4818561196b565b93506119d481856020860161197c565b6119dd816114dc565b840191505092915050565b6000610100820190506119fe600083018b611951565b8181036020830152611a10818a6119af565b9050611a1f6040830189611951565b8181036060830152611a3181886119af565b90508181036080830152611a4581876119af565b9050611a5460a083018661175f565b611a6160c083018561175f565b81810360e0830152611a7381846119af565b90509998505050505050505050565b6000602082019050611a976000830184611951565b92915050565b60008060008060808587031215611ab757611ab6611492565b5b6000611ac587828801611879565b9450506020611ad687828801611713565b9350506040611ae787828801611713565b925050606085013567ffffffffffffffff811115611b0857611b07611497565b5b611b14878288016117fc565b91505092959194509250565b600080600080600060a08688031215611b3c57611b3b611492565b5b600086013567ffffffffffffffff811115611b5a57611b59611497565b5b611b66888289016117fc565b9550506020611b7788828901611713565b945050604086013567ffffffffffffffff811115611b9857611b97611497565b5b611ba4888289016117fc565b935050606086013567ffffffffffffffff811115611bc557611bc4611497565b5b611bd1888289016117fc565b925050608086013567ffffffffffffffff811115611bf257611bf1611497565b5b611bfe888289016117fc565b9150509295509295909350565b6000819050919050565b6000611c30611c2b611c26846116ca565b611c0b565b6116ca565b9050919050565b6000611c4282611c15565b9050919050565b6000611c5482611c37565b9050919050565b611c6481611c49565b82525050565b6000602082019050611c7f6000830184611c5b565b92915050565b7f4e487b7100000000000000000000000000000000000000000000000000000000600052601160045260246000fd5b6000611cbf82611755565b91507fffffffffffffffffffffffffffffffffffffffffffffffffffffffffffffffff821415611cf257611cf1611c85565b5b600182019050919050565b60006020820190508181036000830152611d1781846119af565b905092915050565b7f4e487b7100000000000000000000000000000000000000000000000000000000600052602260045260246000fd5b60006002820490506001821680611d6657607f821691505b60208210811415611d7a57611d79611d1f565b5b50919050565b7f4f776e61626c653a2063616c6c6572206973206e6f7420746865206f776e6572600082015250565b6000611db660208361196b565b9150611dc182611d80565b602082019050919050565b60006020820190508181036000830152611de581611da9565b9050919050565b7f4e487b7100000000000000000000000000000000000000000000000000000000600052602160045260246000fd5b7f446f63756d656e74207769746820696e76616c69642073746174757300000000600082015250565b6000611e51601c8361196b565b9150611e5c82611e1b565b602082019050919050565b60006020820190508181036000830152611e8081611e44565b9050919050565b7f496e76616c696420616464726573730000000000000000000000000000000000600082015250565b6000611ebd600f8361196b565b9150611ec882611e87565b602082019050919050565b60006020820190508181036000830152611eec81611eb0565b9050919050565b6000611efe82611755565b9150611f0983611755565b9250827fffffffffffffffffffffffffffffffffffffffffffffffffffffffffffffffff03821115611f3e57611f3d611c85565b5b828201905092915050565b6000604082019050611f5e6000830185611951565b8181036020830152611f7081846119af565b90509392505050565b600081519050611f8881611862565b92915050565b600060208284031215611fa457611fa3611492565b5b6000611fb284828501611f79565b91505092915050565b7f4f776e61626c653a206e6577206f776e657220697320746865207a65726f206160008201527f6464726573730000000000000000000000000000000000000000000000000000602082015250565b600061201760268361196b565b915061202282611fbb565b604082019050919050565b600060208201905081810360008301526120468161200a565b9050919050565b600081905092915050565b600061206382611960565b61206d818561204d565b935061207d81856020860161197c565b80840191505092915050565b60006120958284612058565b915081905092915050565b600060408201905081810360008301526120ba81856119af565b90506120c9602083018461175f565b9392505050565b7f45434453413a20696e76616c6964207369676e6174757265206c656e67746800600082015250565b6000612106601f8361196b565b9150612111826120d0565b602082019050919050565b60006020820190508181036000830152612135816120f9565b9050919050565b7f45434453413a20696e76616c6964207369676e6174757265202773272076616c60008201527f7565000000000000000000000000000000000000000000000000000000000000602082015250565b600061219860228361196b565b91506121a38261213c565b604082019050919050565b600060208201905081810360008301526121c78161218b565b9050919050565b7f45434453413a20696e76616c6964207369676e6174757265202776272076616c60008201527f7565000000000000000000000000000000000000000000000000000000000000602082015250565b600061222a60228361196b565b9150612235826121ce565b604082019050919050565b600060208201905081810360008301526122598161221d565b9050919050565b6122698161149c565b82525050565b600060ff82169050919050565b6122858161226f565b82525050565b60006080820190506122a06000830187612260565b6122ad602083018661227c565b6122ba6040830185612260565b6122c76060830184612260565b95945050505050565b7f45434453413a20696e76616c6964207369676e61747572650000000000000000600082015250565b600061230660188361196b565b9150612311826122d0565b602082019050919050565b60006020820190508181036000830152612335816122f9565b905091905056fea2646970667358221220ce644eeaa797148b3eb00709930efabd75bef3f412868fd1a768f895d236f1fe64736f6c63430008090033",
  "immutableReferences": {},
  "source": "// SPDX-License-Identifier: MIT\npragma solidity ^0.8.0;\n\npragma experimental ABIEncoderV2;\n\nimport \"./XDV.sol\";\nimport \"./MinterCore.sol\";\nimport \"./IERC1271.sol\";\nimport \"@openzeppelin/contracts/access/Ownable.sol\";\nimport \"@openzeppelin/contracts/utils/Address.sol\";\nimport \"@openzeppelin/contracts/utils/cryptography/ECDSA.sol\";\nimport \"@openzeppelin/contracts/utils/structs/EnumerableSet.sol\";\nimport \"@openzeppelin/contracts/token/ERC20/IERC20.sol\";\n\ncontract XDVController is MinterCore, IERC1271, Ownable {\n    using EnumerableSet for EnumerableSet.AddressSet;\n    using Address for address payable;\n    XDV private platformToken;\n    IERC20 public token;\n\n    // minters\n    mapping(address => DataProviderMinter) internal minters;\n    mapping(address => uint256) public dataProviderAccounting;\n\n    constructor(address stablecoin, address xdv) {\n        token = IERC20(stablecoin);\n        platformToken = XDV(xdv);\n    }\n\n    /**\n     * @dev ERC-1271 Compatibility. This checks that the message signature was sent by the\n     * contract's owner.\n     * @return magicValue either 0x00000000 for false or 0x1626ba7e for true\n     * 0x1626ba7e == bytes4(keccak256(\"isValidSignature(bytes32,bytes)\")\n     */\n    function isValidSignature(bytes32 hash, bytes memory signature)\n        external\n        view\n        override\n        returns (bytes4 magicValue)\n    {\n        // Inspiration 1: https://github.com/OpenZeppelin/openzeppelin-contracts/blob/master/contracts/mocks/ERC1271WalletMock.sol\n        // Inspiration 2: https://github.com/OpenZeppelin/openzeppelin-contracts/pull/2424/files#diff-ff994ffdd277f7cdf0abeb3093d8d5eb7b072a80ebd89f3578cc38ecd1cb6cf2R24\n        address signer = ECDSA.recover(hash, signature);\n        return signer == owner() ? this.isValidSignature.selector : bytes4(0);\n    }\n\n    /**\n     * User requests anchored document to be process\n     */\n    function requestDataProviderService(\n        string memory minterDid,\n        address minterAddress,\n        string memory userDid,\n        string memory documentURI,\n        string memory description\n    ) public returns (uint256) {\n        // // User must have a balance\n        // require(token.balanceOf(msg.sender) >= 0, \"Invalid token balance\");\n        // // User must have an allowance\n        // require(\n        //     token.allowance(msg.sender, address(this)) >= 0,\n        //     \"Invalid token allowance\"\n        // );\n\n        uint256 i = minterDocumentRequestCounter[minterAddress];\n\n        // Assign request to minter\n        // We should move to use XDV Worker Protocol\n        minterDocumentRequests[minterAddress][i] = DocumentMintingRequest({\n            user: msg.sender,\n            userDid: userDid,\n            documentURI: documentURI,\n            status: uint256(DocumentMintingRequestStatus.REQUEST),\n            description: description,\n            toMinterDid: minterDid,\n            toMinter: minterAddress,\n            timestamp: block.timestamp\n        });\n        minterDocumentRequestCounter[minterAddress]++;\n\n        emit DocumentAnchored(msg.sender, userDid, documentURI, i);\n        return i;\n    }\n\n    /**\n     *  @dev Mints a platform token.\n     */\n    function mint(\n        uint256 requestId,\n        address user,\n        address dataProvider,\n        string memory tokenURI\n    ) public returns (uint256) {\n        require(\n            minterDocumentRequests[dataProvider][requestId].status ==\n                uint256(DocumentMintingRequestStatus.REQUEST),\n            \"Document with invalid status\"\n        );\n        require(user != address(0), \"Invalid address\");\n\n        // updates a request\n        minterDocumentRequests[dataProvider][requestId].status = uint256(\n            DocumentMintingRequestStatus.MINTED\n        );\n\n        minterCounter[dataProvider] = minterCounter[dataProvider] + 1;\n        return platformToken.mint(user, tokenURI);\n    }\n\n    /**\n     * @dev Registers a data tokenization service\n     *\n     */\n    function registerMinter(\n        string memory name,\n        address paymentAddress,\n        bool userHasKyc,\n        uint256 feeStructure\n    ) public returns (uint256) {\n        minterCounter[msg.sender]++;\n\n        minters[msg.sender] = DataProviderMinter({\n            name: name,\n            paymentAddress: paymentAddress,\n            hasUserKyc: userHasKyc,\n            feeStructure: feeStructure,\n            created: block.timestamp,\n            factoryAddress: address(this),\n            enabled: true\n        });\n\n        // set new minter\n        emit MinterRegistered(msg.sender, name);\n        return minterCounter[msg.sender];\n    }\n}\n",
  "sourcePath": "/home/dallant/Code/xdv-document-signer-contracts/contracts/XDVController.sol",
  "compiler": {
    "name": "solc",
    "version": "0.8.9+commit.e5eed63a.Emscripten.clang"
  },
  "schemaVersion": "3.4.1",
  "updatedAt": "2021-10-06T21:19:30.656Z",
  "networkType": "ethereum",
  "devdoc": {
    "kind": "dev",
    "methods": {
      "isValidSignature(bytes32,bytes)": {
        "details": "ERC-1271 Compatibility. This checks that the message signature was sent by the contract's owner.",
        "returns": {
          "magicValue": "either 0x00000000 for false or 0x1626ba7e for true 0x1626ba7e == bytes4(keccak256(\"isValidSignature(bytes32,bytes)\")"
        }
      },
      "mint(uint256,address,address,string)": {
        "details": "Mints a platform token."
      },
      "owner()": {
        "details": "Returns the address of the current owner."
      },
      "registerMinter(string,address,bool,uint256)": {
        "details": "Registers a data tokenization service"
      },
      "renounceOwnership()": {
        "details": "Leaves the contract without owner. It will not be possible to call `onlyOwner` functions anymore. Can only be called by the current owner. NOTE: Renouncing ownership will leave the contract without an owner, thereby removing any functionality that is only available to the owner."
      },
      "transferOwnership(address)": {
        "details": "Transfers ownership of the contract to a new account (`newOwner`). Can only be called by the current owner."
      }
    },
    "version": 1
  },
  "userdoc": {
    "kind": "user",
    "methods": {
      "requestDataProviderService(string,address,string,string,string)": {
        "notice": "User requests anchored document to be process"
      }
    },
    "version": 1
  }
}