{
  "contractName": "XDVController",
  "abi": [
    {
      "inputs": [
        {
          "internalType": "address",
          "name": "stablecoin",
          "type": "address"
        },
        {
          "internalType": "address",
          "name": "xdv",
          "type": "address"
        }
      ],
      "stateMutability": "nonpayable",
      "type": "constructor"
    },
    {
      "anonymous": false,
      "inputs": [
        {
          "indexed": true,
          "internalType": "address",
          "name": "user",
          "type": "address"
        },
        {
          "indexed": true,
          "internalType": "string",
          "name": "userDid",
          "type": "string"
        },
        {
          "indexed": false,
          "internalType": "string",
          "name": "documentURI",
          "type": "string"
        },
        {
          "indexed": false,
          "internalType": "uint256",
          "name": "id",
          "type": "uint256"
        }
      ],
      "name": "DocumentAnchored",
      "type": "event"
    },
    {
      "anonymous": false,
      "inputs": [
        {
          "indexed": true,
          "internalType": "address",
          "name": "minter",
          "type": "address"
        },
        {
          "indexed": false,
          "internalType": "string",
          "name": "name",
          "type": "string"
        }
      ],
      "name": "MinterRegistered",
      "type": "event"
    },
    {
      "anonymous": false,
      "inputs": [
        {
          "indexed": true,
          "internalType": "address",
          "name": "previousOwner",
          "type": "address"
        },
        {
          "indexed": true,
          "internalType": "address",
          "name": "newOwner",
          "type": "address"
        }
      ],
      "name": "OwnershipTransferred",
      "type": "event"
    },
    {
      "anonymous": false,
      "inputs": [
        {
          "indexed": true,
          "internalType": "address",
          "name": "payee",
          "type": "address"
        },
        {
          "indexed": false,
          "internalType": "uint256",
          "name": "weiAmount",
          "type": "uint256"
        }
      ],
      "name": "Withdrawn",
      "type": "event"
    },
    {
      "inputs": [
        {
          "internalType": "address",
          "name": "",
          "type": "address"
        }
      ],
      "name": "dataProviderAccounting",
      "outputs": [
        {
          "internalType": "uint256",
          "name": "",
          "type": "uint256"
        }
      ],
      "stateMutability": "view",
      "type": "function",
      "constant": true
    },
    {
      "inputs": [
        {
          "internalType": "address",
          "name": "",
          "type": "address"
        }
      ],
      "name": "minterCounter",
      "outputs": [
        {
          "internalType": "uint256",
          "name": "",
          "type": "uint256"
        }
      ],
      "stateMutability": "view",
      "type": "function",
      "constant": true
    },
    {
      "inputs": [
        {
          "internalType": "address",
          "name": "",
          "type": "address"
        }
      ],
      "name": "minterDocumentRequestCounter",
      "outputs": [
        {
          "internalType": "uint256",
          "name": "",
          "type": "uint256"
        }
      ],
      "stateMutability": "view",
      "type": "function",
      "constant": true
    },
    {
      "inputs": [
        {
          "internalType": "address",
          "name": "",
          "type": "address"
        },
        {
          "internalType": "uint256",
          "name": "",
          "type": "uint256"
        }
      ],
      "name": "minterDocumentRequests",
      "outputs": [
        {
          "internalType": "address",
          "name": "user",
          "type": "address"
        },
        {
          "internalType": "string",
          "name": "userDid",
          "type": "string"
        },
        {
          "internalType": "address",
          "name": "toMinter",
          "type": "address"
        },
        {
          "internalType": "string",
          "name": "toMinterDid",
          "type": "string"
        },
        {
          "internalType": "string",
          "name": "documentURI",
          "type": "string"
        },
        {
          "internalType": "uint256",
          "name": "status",
          "type": "uint256"
        },
        {
          "internalType": "uint256",
          "name": "timestamp",
          "type": "uint256"
        },
        {
          "internalType": "string",
          "name": "description",
          "type": "string"
        }
      ],
      "stateMutability": "view",
      "type": "function",
      "constant": true
    },
    {
      "inputs": [],
      "name": "owner",
      "outputs": [
        {
          "internalType": "address",
          "name": "",
          "type": "address"
        }
      ],
      "stateMutability": "view",
      "type": "function",
      "constant": true
    },
    {
      "inputs": [],
      "name": "renounceOwnership",
      "outputs": [],
      "stateMutability": "nonpayable",
      "type": "function"
    },
    {
      "inputs": [],
      "name": "token",
      "outputs": [
        {
          "internalType": "contract IERC20",
          "name": "",
          "type": "address"
        }
      ],
      "stateMutability": "view",
      "type": "function",
      "constant": true
    },
    {
      "inputs": [
        {
          "internalType": "address",
          "name": "newOwner",
          "type": "address"
        }
      ],
      "name": "transferOwnership",
      "outputs": [],
      "stateMutability": "nonpayable",
      "type": "function"
    },
    {
      "inputs": [
        {
          "internalType": "bytes32",
          "name": "hash",
          "type": "bytes32"
        },
        {
          "internalType": "bytes",
          "name": "signature",
          "type": "bytes"
        }
      ],
      "name": "isValidSignature",
      "outputs": [
        {
          "internalType": "bytes4",
          "name": "magicValue",
          "type": "bytes4"
        }
      ],
      "stateMutability": "view",
      "type": "function",
      "constant": true
    },
    {
      "inputs": [
        {
          "internalType": "address payable",
          "name": "payee",
          "type": "address"
        }
      ],
      "name": "withdraw",
      "outputs": [],
      "stateMutability": "nonpayable",
      "type": "function"
    },
    {
      "inputs": [
        {
          "internalType": "address payable",
          "name": "payee",
          "type": "address"
        },
        {
          "internalType": "address",
          "name": "erc20token",
          "type": "address"
        }
      ],
      "name": "withdrawToken",
      "outputs": [],
      "stateMutability": "nonpayable",
      "type": "function"
    },
    {
      "inputs": [
        {
          "internalType": "string",
          "name": "minterDid",
          "type": "string"
        },
        {
          "internalType": "address",
          "name": "minterAddress",
          "type": "address"
        },
        {
          "internalType": "string",
          "name": "userDid",
          "type": "string"
        },
        {
          "internalType": "string",
          "name": "documentURI",
          "type": "string"
        },
        {
          "internalType": "string",
          "name": "description",
          "type": "string"
        }
      ],
      "name": "requestDataProviderService",
      "outputs": [
        {
          "internalType": "uint256",
          "name": "",
          "type": "uint256"
        }
      ],
      "stateMutability": "nonpayable",
      "type": "function"
    },
    {
      "inputs": [
        {
          "internalType": "uint256",
          "name": "requestId",
          "type": "uint256"
        },
        {
          "internalType": "address",
          "name": "user",
          "type": "address"
        },
        {
          "internalType": "address",
          "name": "dataProvider",
          "type": "address"
        },
        {
          "internalType": "string",
          "name": "tokenURI",
          "type": "string"
        }
      ],
      "name": "mint",
      "outputs": [
        {
          "internalType": "uint256",
          "name": "",
          "type": "uint256"
        }
      ],
      "stateMutability": "nonpayable",
      "type": "function"
    },
    {
      "inputs": [
        {
          "internalType": "string",
          "name": "name",
          "type": "string"
        },
        {
          "internalType": "address",
          "name": "paymentAddress",
          "type": "address"
        },
        {
          "internalType": "bool",
          "name": "userHasKyc",
          "type": "bool"
        },
        {
          "internalType": "uint256",
          "name": "feeStructure",
          "type": "uint256"
        }
      ],
      "name": "registerMinter",
      "outputs": [
        {
          "internalType": "uint256",
          "name": "",
          "type": "uint256"
        }
      ],
      "stateMutability": "nonpayable",
      "type": "function"
    }
  ],
  "bytecode": "0x60806040523480156200001157600080fd5b5060405162002a3138038062002a31833981810160405281019062000037919062000191565b6000620000496200017260201b60201c565b905080600360006101000a81548173ffffffffffffffffffffffffffffffffffffffff021916908373ffffffffffffffffffffffffffffffffffffffff1602179055508073ffffffffffffffffffffffffffffffffffffffff16600073ffffffffffffffffffffffffffffffffffffffff167f8be0079c531659141344cd1fd0a4f28419497f9722a3daafe3b4186f6b6457e060405160405180910390a35081600560006101000a81548173ffffffffffffffffffffffffffffffffffffffff021916908373ffffffffffffffffffffffffffffffffffffffff16021790555080600460006101000a81548173ffffffffffffffffffffffffffffffffffffffff021916908373ffffffffffffffffffffffffffffffffffffffff160217905550505062000220565b600033905090565b6000815190506200018b8162000206565b92915050565b60008060408385031215620001a557600080fd5b6000620001b5858286016200017a565b9250506020620001c8858286016200017a565b9150509250929050565b6000620001df82620001e6565b9050919050565b600073ffffffffffffffffffffffffffffffffffffffff82169050919050565b6200021181620001d2565b81146200021d57600080fd5b50565b61280180620002306000396000f3fe608060405234801561001057600080fd5b50600436106100ea5760003560e01c8063715018a61161008c5780639acd083e116100665780639acd083e14610276578063f2fde38b146102a6578063f83d360d146102c2578063fc0c546a146102f2576100ea565b8063715018a61461021e578063761901bb146102285780638da5cb5b14610258576100ea565b806351cff8d9116100c857806351cff8d91461016b5780635cec86161461018757806366563b4f146101b75780636efaa699146101e7576100ea565b80631626ba7e146100ef5780632aa222c81461011f5780633aeac4e11461014f575b600080fd5b61010960048036038101906101049190611a69565b610310565b604051610116919061202b565b60405180910390f35b61013960048036038101906101349190611976565b610375565b60405161014691906121d3565b60405180910390f35b610169600480360381019061016491906119c8565b61038d565b005b6101856004803603810190610180919061199f565b6105b5565b005b6101a1600480360381019061019c9190611976565b610688565b6040516101ae91906121d3565b60405180910390f35b6101d160048036038101906101cc9190611abd565b6106a0565b6040516101de91906121d3565b60405180910390f35b61020160048036038101906101fc9190611a04565b610932565b604051610215989796959493929190611f4c565b60405180910390f35b610226610be7565b005b610242600480360381019061023d9190611976565b610d24565b60405161024f91906121d3565b60405180910390f35b610260610d3c565b60405161026d9190611ed8565b60405180910390f35b610290600480360381019061028b9190611c38565b610d66565b60405161029d91906121d3565b60405180910390f35b6102c060048036038101906102bb9190611976565b61107c565b005b6102dc60048036038101906102d79190611b38565b611228565b6040516102e991906121d3565b60405180910390f35b6102fa61153d565b6040516103079190612046565b60405180910390f35b60008061031d8484611563565b9050610327610d3c565b73ffffffffffffffffffffffffffffffffffffffff168173ffffffffffffffffffffffffffffffffffffffff161461036357600060e01b61036c565b631626ba7e60e01b5b91505092915050565b60016020528060005260406000206000915090505481565b6103956115dd565b73ffffffffffffffffffffffffffffffffffffffff166103b3610d3c565b73ffffffffffffffffffffffffffffffffffffffff1614610409576040517f08c379a000000000000000000000000000000000000000000000000000000000815260040161040090612193565b60405180910390fd5b60008173ffffffffffffffffffffffffffffffffffffffff166370a08231306040518263ffffffff1660e01b81526004016104449190611ed8565b60206040518083038186803b15801561045c57600080fd5b505afa158015610470573d6000803e3d6000fd5b505050506040513d601f19601f820116820180604052508101906104949190611c0f565b90508173ffffffffffffffffffffffffffffffffffffffff1663a9059cbb84836040518363ffffffff1660e01b81526004016104d1929190611ef3565b602060405180830381600087803b1580156104eb57600080fd5b505af11580156104ff573d6000803e3d6000fd5b505050506040513d601f19601f820116820180604052508101906105239190611a40565b610562576040517f08c379a000000000000000000000000000000000000000000000000000000000815260040161055990612173565b60405180910390fd5b8273ffffffffffffffffffffffffffffffffffffffff167f7084f5476618d8e60b11ef0d7d3f06914655adb8793e28ff7f018d4c76d505d5826040516105a891906121d3565b60405180910390a2505050565b6105bd6115dd565b73ffffffffffffffffffffffffffffffffffffffff166105db610d3c565b73ffffffffffffffffffffffffffffffffffffffff1614610631576040517f08c379a000000000000000000000000000000000000000000000000000000000815260040161062890612193565b60405180910390fd5b60004790508173ffffffffffffffffffffffffffffffffffffffff167f7084f5476618d8e60b11ef0d7d3f06914655adb8793e28ff7f018d4c76d505d58260405161067c91906121d3565b60405180910390a25050565b60076020528060005260406000206000915090505481565b60008060003373ffffffffffffffffffffffffffffffffffffffff1673ffffffffffffffffffffffffffffffffffffffff16815260200190815260200160002060008154809291906106f19061248e565b91905055506040518060e001604052808681526020018573ffffffffffffffffffffffffffffffffffffffff16815260200184151581526020018381526020014281526020013073ffffffffffffffffffffffffffffffffffffffff16815260200160011515815250600660003373ffffffffffffffffffffffffffffffffffffffff1673ffffffffffffffffffffffffffffffffffffffff16815260200190815260200160002060008201518160000190805190602001906107b5929190611770565b5060208201518160010160006101000a81548173ffffffffffffffffffffffffffffffffffffffff021916908373ffffffffffffffffffffffffffffffffffffffff16021790555060408201518160010160146101000a81548160ff021916908315150217905550606082015181600201556080820151816003015560a08201518160040160006101000a81548173ffffffffffffffffffffffffffffffffffffffff021916908373ffffffffffffffffffffffffffffffffffffffff16021790555060c08201518160040160146101000a81548160ff0219169083151502179055509050503373ffffffffffffffffffffffffffffffffffffffff167fdd49a7e572b5c7638971bc6a10724835256bbb03ca4187ce5fa77a2bf3716a76866040516108e19190612061565b60405180910390a26000803373ffffffffffffffffffffffffffffffffffffffff1673ffffffffffffffffffffffffffffffffffffffff168152602001908152602001600020549050949350505050565b6002602052816000526040600020602052806000526040600020600091509150508060000160009054906101000a900473ffffffffffffffffffffffffffffffffffffffff16908060010180546109889061242b565b80601f01602080910402602001604051908101604052809291908181526020018280546109b49061242b565b8015610a015780601f106109d657610100808354040283529160200191610a01565b820191906000526020600020905b8154815290600101906020018083116109e457829003601f168201915b5050505050908060020160009054906101000a900473ffffffffffffffffffffffffffffffffffffffff1690806003018054610a3c9061242b565b80601f0160208091040260200160405190810160405280929190818152602001828054610a689061242b565b8015610ab55780601f10610a8a57610100808354040283529160200191610ab5565b820191906000526020600020905b815481529060010190602001808311610a9857829003601f168201915b505050505090806004018054610aca9061242b565b80601f0160208091040260200160405190810160405280929190818152602001828054610af69061242b565b8015610b435780601f10610b1857610100808354040283529160200191610b43565b820191906000526020600020905b815481529060010190602001808311610b2657829003601f168201915b505050505090806005015490806006015490806007018054610b649061242b565b80601f0160208091040260200160405190810160405280929190818152602001828054610b909061242b565b8015610bdd5780601f10610bb257610100808354040283529160200191610bdd565b820191906000526020600020905b815481529060010190602001808311610bc057829003601f168201915b5050505050905088565b610bef6115dd565b73ffffffffffffffffffffffffffffffffffffffff16610c0d610d3c565b73ffffffffffffffffffffffffffffffffffffffff1614610c63576040517f08c379a0000000000000000000000000000000000000000000000000000000008152600401610c5a90612193565b60405180910390fd5b600073ffffffffffffffffffffffffffffffffffffffff16600360009054906101000a900473ffffffffffffffffffffffffffffffffffffffff1673ffffffffffffffffffffffffffffffffffffffff167f8be0079c531659141344cd1fd0a4f28419497f9722a3daafe3b4186f6b6457e060405160405180910390a36000600360006101000a81548173ffffffffffffffffffffffffffffffffffffffff021916908373ffffffffffffffffffffffffffffffffffffffff160217905550565b60006020528060005260406000206000915090505481565b6000600360009054906101000a900473ffffffffffffffffffffffffffffffffffffffff16905090565b6000806002811115610da1577f4e487b7100000000000000000000000000000000000000000000000000000000600052602160045260246000fd5b600260008573ffffffffffffffffffffffffffffffffffffffff1673ffffffffffffffffffffffffffffffffffffffff16815260200190815260200160002060008781526020019081526020016000206005015414610e35576040517f08c379a0000000000000000000000000000000000000000000000000000000008152600401610e2c906121b3565b60405180910390fd5b600073ffffffffffffffffffffffffffffffffffffffff168473ffffffffffffffffffffffffffffffffffffffff161415610ea5576040517f08c379a0000000000000000000000000000000000000000000000000000000008152600401610e9c906120d3565b60405180910390fd5b60016002811115610edf577f4e487b7100000000000000000000000000000000000000000000000000000000600052602160045260246000fd5b600260008573ffffffffffffffffffffffffffffffffffffffff1673ffffffffffffffffffffffffffffffffffffffff16815260200190815260200160002060008781526020019081526020016000206005018190555060016000808573ffffffffffffffffffffffffffffffffffffffff1673ffffffffffffffffffffffffffffffffffffffff16815260200190815260200160002054610f81919061229c565b6000808573ffffffffffffffffffffffffffffffffffffffff1673ffffffffffffffffffffffffffffffffffffffff16815260200190815260200160002081905550600460009054906101000a900473ffffffffffffffffffffffffffffffffffffffff1673ffffffffffffffffffffffffffffffffffffffff1663d0def52185846040518363ffffffff1660e01b8152600401611020929190611f1c565b602060405180830381600087803b15801561103a57600080fd5b505af115801561104e573d6000803e3d6000fd5b505050506040513d601f19601f820116820180604052508101906110729190611c0f565b9050949350505050565b6110846115dd565b73ffffffffffffffffffffffffffffffffffffffff166110a2610d3c565b73ffffffffffffffffffffffffffffffffffffffff16146110f8576040517f08c379a00000000000000000000000000000000000000000000000000000000081526004016110ef90612193565b60405180910390fd5b600073ffffffffffffffffffffffffffffffffffffffff168173ffffffffffffffffffffffffffffffffffffffff161415611168576040517f08c379a000000000000000000000000000000000000000000000000000000000815260040161115f90612113565b60405180910390fd5b8073ffffffffffffffffffffffffffffffffffffffff16600360009054906101000a900473ffffffffffffffffffffffffffffffffffffffff1673ffffffffffffffffffffffffffffffffffffffff167f8be0079c531659141344cd1fd0a4f28419497f9722a3daafe3b4186f6b6457e060405160405180910390a380600360006101000a81548173ffffffffffffffffffffffffffffffffffffffff021916908373ffffffffffffffffffffffffffffffffffffffff16021790555050565b600080600160008773ffffffffffffffffffffffffffffffffffffffff1673ffffffffffffffffffffffffffffffffffffffff1681526020019081526020016000205490506040518061010001604052803373ffffffffffffffffffffffffffffffffffffffff1681526020018681526020018773ffffffffffffffffffffffffffffffffffffffff168152602001888152602001858152602001600060028111156112fd577f4e487b7100000000000000000000000000000000000000000000000000000000600052602160045260246000fd5b815260200142815260200184815250600260008873ffffffffffffffffffffffffffffffffffffffff1673ffffffffffffffffffffffffffffffffffffffff168152602001908152602001600020600083815260200190815260200160002060008201518160000160006101000a81548173ffffffffffffffffffffffffffffffffffffffff021916908373ffffffffffffffffffffffffffffffffffffffff16021790555060208201518160010190805190602001906113bf929190611770565b5060408201518160020160006101000a81548173ffffffffffffffffffffffffffffffffffffffff021916908373ffffffffffffffffffffffffffffffffffffffff1602179055506060820151816003019080519060200190611423929190611770565b506080820151816004019080519060200190611440929190611770565b5060a0820151816005015560c0820151816006015560e0820151816007019080519060200190611471929190611770565b50905050600160008773ffffffffffffffffffffffffffffffffffffffff1673ffffffffffffffffffffffffffffffffffffffff16815260200190815260200160002060008154809291906114c59061248e565b9190505550846040516114d89190611ec1565b60405180910390203373ffffffffffffffffffffffffffffffffffffffff167f0a007e579f0793671747216eab1061026d102ff0f66e876d2edaa6277ad53e668684604051611528929190612083565b60405180910390a38091505095945050505050565b600560009054906101000a900473ffffffffffffffffffffffffffffffffffffffff1681565b600060418251146115a9576040517f08c379a00000000000000000000000000000000000000000000000000000000081526004016115a0906120f3565b60405180910390fd5b60008060006020850151925060408501519150606085015160001a90506115d2868285856115e5565b935050505092915050565b600033905090565b60007f7fffffffffffffffffffffffffffffff5d576e7357a4501ddfe92f46681b20a08260001c111561164d576040517f08c379a000000000000000000000000000000000000000000000000000000000815260040161164490612133565b60405180910390fd5b601b8460ff1614806116625750601c8460ff16145b6116a1576040517f08c379a000000000000000000000000000000000000000000000000000000000815260040161169890612153565b60405180910390fd5b6000600186868686604051600081526020016040526040516116c69493929190611fe6565b6020604051602081039080840390855afa1580156116e8573d6000803e3d6000fd5b505050602060405103519050600073ffffffffffffffffffffffffffffffffffffffff168173ffffffffffffffffffffffffffffffffffffffff161415611764576040517f08c379a000000000000000000000000000000000000000000000000000000000815260040161175b906120b3565b60405180910390fd5b80915050949350505050565b82805461177c9061242b565b90600052602060002090601f01602090048101928261179e57600085556117e5565b82601f106117b757805160ff19168380011785556117e5565b828001600101855582156117e5579182015b828111156117e45782518255916020019190600101906117c9565b5b5090506117f291906117f6565b5090565b5b8082111561180f5760008160009055506001016117f7565b5090565b600061182661182184612213565b6121ee565b90508281526020810184848401111561183e57600080fd5b6118498482856123e9565b509392505050565b600061186461185f84612244565b6121ee565b90508281526020810184848401111561187c57600080fd5b6118878482856123e9565b509392505050565b60008135905061189e81612758565b92915050565b6000813590506118b38161276f565b92915050565b6000813590506118c881612786565b92915050565b6000815190506118dd81612786565b92915050565b6000813590506118f28161279d565b92915050565b600082601f83011261190957600080fd5b8135611919848260208601611813565b91505092915050565b600082601f83011261193357600080fd5b8135611943848260208601611851565b91505092915050565b60008135905061195b816127b4565b92915050565b600081519050611970816127b4565b92915050565b60006020828403121561198857600080fd5b60006119968482850161188f565b91505092915050565b6000602082840312156119b157600080fd5b60006119bf848285016118a4565b91505092915050565b600080604083850312156119db57600080fd5b60006119e9858286016118a4565b92505060206119fa8582860161188f565b9150509250929050565b60008060408385031215611a1757600080fd5b6000611a258582860161188f565b9250506020611a368582860161194c565b9150509250929050565b600060208284031215611a5257600080fd5b6000611a60848285016118ce565b91505092915050565b60008060408385031215611a7c57600080fd5b6000611a8a858286016118e3565b925050602083013567ffffffffffffffff811115611aa757600080fd5b611ab3858286016118f8565b9150509250929050565b60008060008060808587031215611ad357600080fd5b600085013567ffffffffffffffff811115611aed57600080fd5b611af987828801611922565b9450506020611b0a8782880161188f565b9350506040611b1b878288016118b9565b9250506060611b2c8782880161194c565b91505092959194509250565b600080600080600060a08688031215611b5057600080fd5b600086013567ffffffffffffffff811115611b6a57600080fd5b611b7688828901611922565b9550506020611b878882890161188f565b945050604086013567ffffffffffffffff811115611ba457600080fd5b611bb088828901611922565b935050606086013567ffffffffffffffff811115611bcd57600080fd5b611bd988828901611922565b925050608086013567ffffffffffffffff811115611bf657600080fd5b611c0288828901611922565b9150509295509295909350565b600060208284031215611c2157600080fd5b6000611c2f84828501611961565b91505092915050565b60008060008060808587031215611c4e57600080fd5b6000611c5c8782880161194c565b9450506020611c6d8782880161188f565b9350506040611c7e8782880161188f565b925050606085013567ffffffffffffffff811115611c9b57600080fd5b611ca787828801611922565b91505092959194509250565b611cbc8161238f565b82525050565b611ccb816122f2565b82525050565b611cda81612322565b82525050565b611ce98161232c565b82525050565b611cf8816123a1565b82525050565b6000611d0982612275565b611d138185612280565b9350611d238185602086016123f8565b611d2c81612564565b840191505092915050565b6000611d4282612275565b611d4c8185612291565b9350611d5c8185602086016123f8565b80840191505092915050565b6000611d75601883612280565b9150611d8082612575565b602082019050919050565b6000611d98600f83612280565b9150611da38261259e565b602082019050919050565b6000611dbb601f83612280565b9150611dc6826125c7565b602082019050919050565b6000611dde602683612280565b9150611de9826125f0565b604082019050919050565b6000611e01602283612280565b9150611e0c8261263f565b604082019050919050565b6000611e24602283612280565b9150611e2f8261268e565b604082019050919050565b6000611e47601e83612280565b9150611e52826126dd565b602082019050919050565b6000611e6a602083612280565b9150611e7582612706565b602082019050919050565b6000611e8d601c83612280565b9150611e988261272f565b602082019050919050565b611eac81612378565b82525050565b611ebb81612382565b82525050565b6000611ecd8284611d37565b915081905092915050565b6000602082019050611eed6000830184611cc2565b92915050565b6000604082019050611f086000830185611cb3565b611f156020830184611ea3565b9392505050565b6000604082019050611f316000830185611cc2565b8181036020830152611f438184611cfe565b90509392505050565b600061010082019050611f62600083018b611cc2565b8181036020830152611f74818a611cfe565b9050611f836040830189611cc2565b8181036060830152611f958188611cfe565b90508181036080830152611fa98187611cfe565b9050611fb860a0830186611ea3565b611fc560c0830185611ea3565b81810360e0830152611fd78184611cfe565b90509998505050505050505050565b6000608082019050611ffb6000830187611cd1565b6120086020830186611eb2565b6120156040830185611cd1565b6120226060830184611cd1565b95945050505050565b60006020820190506120406000830184611ce0565b92915050565b600060208201905061205b6000830184611cef565b92915050565b6000602082019050818103600083015261207b8184611cfe565b905092915050565b6000604082019050818103600083015261209d8185611cfe565b90506120ac6020830184611ea3565b9392505050565b600060208201905081810360008301526120cc81611d68565b9050919050565b600060208201905081810360008301526120ec81611d8b565b9050919050565b6000602082019050818103600083015261210c81611dae565b9050919050565b6000602082019050818103600083015261212c81611dd1565b9050919050565b6000602082019050818103600083015261214c81611df4565b9050919050565b6000602082019050818103600083015261216c81611e17565b9050919050565b6000602082019050818103600083015261218c81611e3a565b9050919050565b600060208201905081810360008301526121ac81611e5d565b9050919050565b600060208201905081810360008301526121cc81611e80565b9050919050565b60006020820190506121e86000830184611ea3565b92915050565b60006121f8612209565b9050612204828261245d565b919050565b6000604051905090565b600067ffffffffffffffff82111561222e5761222d612535565b5b61223782612564565b9050602081019050919050565b600067ffffffffffffffff82111561225f5761225e612535565b5b61226882612564565b9050602081019050919050565b600081519050919050565b600082825260208201905092915050565b600081905092915050565b60006122a782612378565b91506122b283612378565b9250827fffffffffffffffffffffffffffffffffffffffffffffffffffffffffffffffff038211156122e7576122e66124d7565b5b828201905092915050565b60006122fd82612358565b9050919050565b600061230f82612358565b9050919050565b60008115159050919050565b6000819050919050565b60007fffffffff0000000000000000000000000000000000000000000000000000000082169050919050565b600073ffffffffffffffffffffffffffffffffffffffff82169050919050565b6000819050919050565b600060ff82169050919050565b600061239a826123c5565b9050919050565b60006123ac826123b3565b9050919050565b60006123be82612358565b9050919050565b60006123d0826123d7565b9050919050565b60006123e282612358565b9050919050565b82818337600083830152505050565b60005b838110156124165780820151818401526020810190506123fb565b83811115612425576000848401525b50505050565b6000600282049050600182168061244357607f821691505b6020821081141561245757612456612506565b5b50919050565b61246682612564565b810181811067ffffffffffffffff8211171561248557612484612535565b5b80604052505050565b600061249982612378565b91507fffffffffffffffffffffffffffffffffffffffffffffffffffffffffffffffff8214156124cc576124cb6124d7565b5b600182019050919050565b7f4e487b7100000000000000000000000000000000000000000000000000000000600052601160045260246000fd5b7f4e487b7100000000000000000000000000000000000000000000000000000000600052602260045260246000fd5b7f4e487b7100000000000000000000000000000000000000000000000000000000600052604160045260246000fd5b6000601f19601f8301169050919050565b7f45434453413a20696e76616c6964207369676e61747572650000000000000000600082015250565b7f496e76616c696420616464726573730000000000000000000000000000000000600082015250565b7f45434453413a20696e76616c6964207369676e6174757265206c656e67746800600082015250565b7f4f776e61626c653a206e6577206f776e657220697320746865207a65726f206160008201527f6464726573730000000000000000000000000000000000000000000000000000602082015250565b7f45434453413a20696e76616c6964207369676e6174757265202773272076616c60008201527f7565000000000000000000000000000000000000000000000000000000000000602082015250565b7f45434453413a20696e76616c6964207369676e6174757265202776272076616c60008201527f7565000000000000000000000000000000000000000000000000000000000000602082015250565b7f5472616e73666572206661696c656420666f72206261736520746f6b656e0000600082015250565b7f4f776e61626c653a2063616c6c6572206973206e6f7420746865206f776e6572600082015250565b7f446f63756d656e74207769746820696e76616c69642073746174757300000000600082015250565b612761816122f2565b811461276c57600080fd5b50565b61277881612304565b811461278357600080fd5b50565b61278f81612316565b811461279a57600080fd5b50565b6127a681612322565b81146127b157600080fd5b50565b6127bd81612378565b81146127c857600080fd5b5056fea2646970667358221220408dff39d239b3cce6e49da432e21aee127ea8fd106d15eda4f8e77d39d7eab064736f6c63430008030033",
  "immutableReferences": {},
  "source": "// SPDX-License-Identifier: MIT\npragma solidity ^0.8.0;\n\npragma experimental ABIEncoderV2;\n\nimport \"./XDV.sol\";\nimport \"./MinterCore.sol\";\nimport \"./IERC1271.sol\";\nimport \"@openzeppelin/contracts/access/Ownable.sol\";\nimport \"@openzeppelin/contracts/utils/Address.sol\";\nimport \"@openzeppelin/contracts/utils/cryptography/ECDSA.sol\";\nimport \"@openzeppelin/contracts/utils/structs/EnumerableSet.sol\";\nimport \"@openzeppelin/contracts/token/ERC20/IERC20.sol\";\n\ncontract XDVController is MinterCore, IERC1271, Ownable {\n    using EnumerableSet for EnumerableSet.AddressSet;\n    using Address for address payable;\n\n    event Withdrawn(address indexed payee, uint256 weiAmount);\n\n    XDV private platformToken;\n    IERC20 public token;\n\n    // minters\n    mapping(address => DataProviderMinter) internal minters;\n    mapping(address => uint256) public dataProviderAccounting;\n\n    constructor(address stablecoin, address xdv) {\n        token = IERC20(stablecoin);\n        platformToken = XDV(xdv);\n    }\n\n    /**\n     * @dev ERC-1271 Compatibility. This checks that the message signature was sent by the\n     * contract's owner.\n     * @return magicValue either 0x00000000 for false or 0x1626ba7e for true\n     * 0x1626ba7e == bytes4(keccak256(\"isValidSignature(bytes32,bytes)\")\n     */\n    function isValidSignature(bytes32 hash, bytes memory signature)\n        external\n        view\n        override\n        returns (bytes4 magicValue)\n    {\n        // Inspiration 1: https://github.com/OpenZeppelin/openzeppelin-contracts/blob/master/contracts/mocks/ERC1271WalletMock.sol\n        // Inspiration 2: https://github.com/OpenZeppelin/openzeppelin-contracts/pull/2424/files#diff-ff994ffdd277f7cdf0abeb3093d8d5eb7b072a80ebd89f3578cc38ecd1cb6cf2R24\n        address signer = ECDSA.recover(hash, signature);\n        return signer == owner() ? this.isValidSignature.selector : bytes4(0);\n    }\n\n    function withdraw(address payable payee) public onlyOwner {\n        uint256 b = address(this).balance;\n\n        emit Withdrawn(payee, b);\n    }\n\n    function withdrawToken(address payable payee, address erc20token)\n        public\n        onlyOwner\n    {\n        uint256 balance = IERC20(erc20token).balanceOf(address(this));\n\n        // Transfer tokens to pay service fee\n        require(\n            IERC20(erc20token).transfer(payee, balance),\n            \"Transfer failed for base token\"\n        );\n\n        emit Withdrawn(payee, balance);\n    }\n\n    /**\n     * User requests anchored document to be process\n     */\n    function requestDataProviderService(\n        string memory minterDid,\n        address minterAddress,\n        string memory userDid,\n        string memory documentURI,\n        string memory description\n    ) public returns (uint256) {\n        // // User must have a balance\n        // require(token.balanceOf(msg.sender) >= 0, \"Invalid token balance\");\n        // // User must have an allowance\n        // require(\n        //     token.allowance(msg.sender, address(this)) >= 0,\n        //     \"Invalid token allowance\"\n        // );\n\n        uint256 i = minterDocumentRequestCounter[minterAddress];\n\n        // Assign request to minter\n        // We should move to use XDV Worker Protocol\n        minterDocumentRequests[minterAddress][i] = DocumentMintingRequest({\n            user: msg.sender,\n            userDid: userDid,\n            documentURI: documentURI,\n            status: uint256(DocumentMintingRequestStatus.REQUEST),\n            description: description,\n            toMinterDid: minterDid,\n            toMinter: minterAddress,\n            timestamp: block.timestamp\n        });\n        minterDocumentRequestCounter[minterAddress]++;\n\n        emit DocumentAnchored(msg.sender, userDid, documentURI, i);\n        return i;\n    }\n\n    /**\n     *  @dev Mints a platform token.\n     */\n    function mint(\n        uint256 requestId,\n        address user,\n        address dataProvider,\n        string memory tokenURI\n    ) public returns (uint256) {\n        require(\n            minterDocumentRequests[dataProvider][requestId].status ==\n                uint256(DocumentMintingRequestStatus.REQUEST),\n            \"Document with invalid status\"\n        );\n        require(user != address(0), \"Invalid address\");\n\n        // updates a request\n        minterDocumentRequests[dataProvider][requestId].status = uint256(\n            DocumentMintingRequestStatus.MINTED\n        );\n\n        minterCounter[dataProvider] = minterCounter[dataProvider] + 1;\n        return platformToken.mint(user, tokenURI);\n    }\n\n    /**\n     * @dev Registers a data tokenization service\n     *\n     */\n    function registerMinter(\n        string memory name,\n        address paymentAddress,\n        bool userHasKyc,\n        uint256 feeStructure\n    ) public returns (uint256) {\n        minterCounter[msg.sender]++;\n\n        minters[msg.sender] = DataProviderMinter({\n            name: name,\n            paymentAddress: paymentAddress,\n            hasUserKyc: userHasKyc,\n            feeStructure: feeStructure,\n            created: block.timestamp,\n            factoryAddress: address(this),\n            enabled: true\n        });\n\n        // set new minter\n        emit MinterRegistered(msg.sender, name);\n        return minterCounter[msg.sender];\n    }\n}\n",
  "sourcePath": "/Users/zubietaroberto/git/nft-document-swap/contracts/XDVController.sol",
  "compiler": {
    "name": "solc",
    "version": "0.8.3+commit.8d00100c.Emscripten.clang"
  },
  "schemaVersion": "3.3.4",
  "updatedAt": "2021-04-14T14:23:39.940Z",
  "networkType": "ethereum",
  "devdoc": {
    "kind": "dev",
    "methods": {
      "isValidSignature(bytes32,bytes)": {
        "details": "ERC-1271 Compatibility. This checks that the message signature was sent by the contract's owner.",
        "returns": {
          "magicValue": "either 0x00000000 for false or 0x1626ba7e for true 0x1626ba7e == bytes4(keccak256(\"isValidSignature(bytes32,bytes)\")"
        }
      },
      "mint(uint256,address,address,string)": {
        "details": "Mints a platform token."
      },
      "owner()": {
        "details": "Returns the address of the current owner."
      },
      "registerMinter(string,address,bool,uint256)": {
        "details": "Registers a data tokenization service"
      },
      "renounceOwnership()": {
        "details": "Leaves the contract without owner. It will not be possible to call `onlyOwner` functions anymore. Can only be called by the current owner. NOTE: Renouncing ownership will leave the contract without an owner, thereby removing any functionality that is only available to the owner."
      },
      "transferOwnership(address)": {
        "details": "Transfers ownership of the contract to a new account (`newOwner`). Can only be called by the current owner."
      }
    },
    "version": 1
  },
  "userdoc": {
    "kind": "user",
    "methods": {
      "requestDataProviderService(string,address,string,string,string)": {
        "notice": "User requests anchored document to be process"
      }
    },
    "version": 1
  }
}