{
  "contractName": "XDVController",
  "abi": [
    {
      "inputs": [
        {
          "internalType": "address",
          "name": "stablecoin",
          "type": "address"
        },
        {
          "internalType": "address",
          "name": "xdv",
          "type": "address"
        }
      ],
      "stateMutability": "nonpayable",
      "type": "constructor"
    },
    {
      "anonymous": false,
      "inputs": [
        {
          "indexed": true,
          "internalType": "address",
          "name": "user",
          "type": "address"
        },
        {
          "indexed": true,
          "internalType": "string",
          "name": "userDid",
          "type": "string"
        },
        {
          "indexed": false,
          "internalType": "string",
          "name": "documentURI",
          "type": "string"
        },
        {
          "indexed": false,
          "internalType": "uint256",
          "name": "id",
          "type": "uint256"
        }
      ],
      "name": "DocumentAnchored",
      "type": "event"
    },
    {
      "anonymous": false,
      "inputs": [
        {
          "indexed": true,
          "internalType": "address",
          "name": "minter",
          "type": "address"
        },
        {
          "indexed": false,
          "internalType": "string",
          "name": "name",
          "type": "string"
        }
      ],
      "name": "MinterRegistered",
      "type": "event"
    },
    {
      "anonymous": false,
      "inputs": [
        {
          "indexed": true,
          "internalType": "address",
          "name": "payee",
          "type": "address"
        },
        {
          "indexed": false,
          "internalType": "uint256",
          "name": "weiAmount",
          "type": "uint256"
        }
      ],
      "name": "Withdrawn",
      "type": "event"
    },
    {
      "inputs": [
        {
          "internalType": "address",
          "name": "",
          "type": "address"
        }
      ],
      "name": "dataProviderAccounting",
      "outputs": [
        {
          "internalType": "uint256",
          "name": "",
          "type": "uint256"
        }
      ],
      "stateMutability": "view",
      "type": "function"
    },
    {
      "inputs": [
        {
          "internalType": "address",
          "name": "",
          "type": "address"
        }
      ],
      "name": "minterCounter",
      "outputs": [
        {
          "internalType": "uint256",
          "name": "",
          "type": "uint256"
        }
      ],
      "stateMutability": "view",
      "type": "function"
    },
    {
      "inputs": [
        {
          "internalType": "address",
          "name": "",
          "type": "address"
        }
      ],
      "name": "minterDocumentRequestCounter",
      "outputs": [
        {
          "internalType": "uint256",
          "name": "",
          "type": "uint256"
        }
      ],
      "stateMutability": "view",
      "type": "function"
    },
    {
      "inputs": [
        {
          "internalType": "address",
          "name": "",
          "type": "address"
        },
        {
          "internalType": "uint256",
          "name": "",
          "type": "uint256"
        }
      ],
      "name": "minterDocumentRequests",
      "outputs": [
        {
          "internalType": "address",
          "name": "user",
          "type": "address"
        },
        {
          "internalType": "string",
          "name": "userDid",
          "type": "string"
        },
        {
          "internalType": "address",
          "name": "toMinter",
          "type": "address"
        },
        {
          "internalType": "string",
          "name": "toMinterDid",
          "type": "string"
        },
        {
          "internalType": "string",
          "name": "documentURI",
          "type": "string"
        },
        {
          "internalType": "uint256",
          "name": "status",
          "type": "uint256"
        },
        {
          "internalType": "uint256",
          "name": "timestamp",
          "type": "uint256"
        },
        {
          "internalType": "string",
          "name": "description",
          "type": "string"
        }
      ],
      "stateMutability": "view",
      "type": "function"
    },
    {
      "inputs": [],
      "name": "owner",
      "outputs": [
        {
          "internalType": "address",
          "name": "",
          "type": "address"
        }
      ],
      "stateMutability": "view",
      "type": "function"
    },
    {
      "inputs": [],
      "name": "token",
      "outputs": [
        {
          "internalType": "contract ERC20Interface",
          "name": "",
          "type": "address"
        }
      ],
      "stateMutability": "view",
      "type": "function"
    },
    {
      "inputs": [
        {
          "internalType": "address payable",
          "name": "payee",
          "type": "address"
        }
      ],
      "name": "withdraw",
      "outputs": [],
      "stateMutability": "nonpayable",
      "type": "function"
    },
    {
      "inputs": [
        {
          "internalType": "address payable",
          "name": "payee",
          "type": "address"
        },
        {
          "internalType": "address",
          "name": "erc20token",
          "type": "address"
        }
      ],
      "name": "withdrawToken",
      "outputs": [],
      "stateMutability": "nonpayable",
      "type": "function"
    },
    {
      "inputs": [
        {
          "internalType": "string",
          "name": "minterDid",
          "type": "string"
        },
        {
          "internalType": "address",
          "name": "minterAddress",
          "type": "address"
        },
        {
          "internalType": "string",
          "name": "userDid",
          "type": "string"
        },
        {
          "internalType": "string",
          "name": "documentURI",
          "type": "string"
        },
        {
          "internalType": "string",
          "name": "description",
          "type": "string"
        }
      ],
      "name": "requestDataProviderService",
      "outputs": [
        {
          "internalType": "uint256",
          "name": "",
          "type": "uint256"
        }
      ],
      "stateMutability": "nonpayable",
      "type": "function"
    },
    {
      "inputs": [
        {
          "internalType": "uint256",
          "name": "requestId",
          "type": "uint256"
        },
        {
          "internalType": "address",
          "name": "user",
          "type": "address"
        },
        {
          "internalType": "address",
          "name": "dataProvider",
          "type": "address"
        },
        {
          "internalType": "string",
          "name": "tokenURI",
          "type": "string"
        }
      ],
      "name": "mint",
      "outputs": [
        {
          "internalType": "uint256",
          "name": "",
          "type": "uint256"
        }
      ],
      "stateMutability": "nonpayable",
      "type": "function"
    },
    {
      "inputs": [
        {
          "internalType": "string",
          "name": "name",
          "type": "string"
        },
        {
          "internalType": "address",
          "name": "paymentAddress",
          "type": "address"
        },
        {
          "internalType": "bool",
          "name": "userHasKyc",
          "type": "bool"
        },
        {
          "internalType": "uint256",
          "name": "feeStructure",
          "type": "uint256"
        }
      ],
      "name": "registerMinter",
      "outputs": [
        {
          "internalType": "uint256",
          "name": "",
          "type": "uint256"
        }
      ],
      "stateMutability": "nonpayable",
      "type": "function"
    }
  ],
  "bytecode": "0x60806040523480156200001157600080fd5b5060405162001d6e38038062001d6e833981810160405281019062000037919062000119565b81600560006101000a81548173ffffffffffffffffffffffffffffffffffffffff021916908373ffffffffffffffffffffffffffffffffffffffff16021790555080600460006101000a81548173ffffffffffffffffffffffffffffffffffffffff021916908373ffffffffffffffffffffffffffffffffffffffff16021790555033600360006101000a81548173ffffffffffffffffffffffffffffffffffffffff021916908373ffffffffffffffffffffffffffffffffffffffff1602179055505050620001a8565b60008151905062000113816200018e565b92915050565b600080604083850312156200012d57600080fd5b60006200013d8582860162000102565b9250506020620001508582860162000102565b9150509250929050565b600062000167826200016e565b9050919050565b600073ffffffffffffffffffffffffffffffffffffffff82169050919050565b62000199816200015a565b8114620001a557600080fd5b50565b611bb680620001b86000396000f3fe608060405234801561001057600080fd5b50600436106100a95760003560e01c80636efaa699116100715780636efaa69914610176578063761901bb146101ad5780638da5cb5b146101dd5780639acd083e146101fb578063f83d360d1461022b578063fc0c546a1461025b576100a9565b80632aa222c8146100ae5780633aeac4e1146100de57806351cff8d9146100fa5780635cec86161461011657806366563b4f14610146575b600080fd5b6100c860048036038101906100c391906112d7565b610279565b6040516100d59190611978565b60405180910390f35b6100f860048036038101906100f39190611329565b610291565b005b610114600480360381019061010f9190611300565b6104cd565b005b610130600480360381019061012b91906112d7565b6105b4565b60405161013d9190611978565b60405180910390f35b610160600480360381019061015b91906113ca565b6105cc565b60405161016d9190611978565b60405180910390f35b610190600480360381019061018b9190611365565b610858565b6040516101a49897969594939291906117f1565b60405180910390f35b6101c760048036038101906101c291906112d7565b610b4d565b6040516101d49190611978565b60405180910390f35b6101e5610b65565b6040516101f2919061177d565b60405180910390f35b61021560048036038101906102109190611545565b610b8b565b6040516102229190611978565b60405180910390f35b61024560048036038101906102409190611445565b610e3e565b6040516102529190611978565b60405180910390f35b610263611120565b604051610270919061188b565b60405180910390f35b60016020528060005260406000206000915090505481565b600360009054906101000a900473ffffffffffffffffffffffffffffffffffffffff1673ffffffffffffffffffffffffffffffffffffffff163373ffffffffffffffffffffffffffffffffffffffff1614610321576040517f08c379a000000000000000000000000000000000000000000000000000000000815260040161031890611918565b60405180910390fd5b60008173ffffffffffffffffffffffffffffffffffffffff166370a08231306040518263ffffffff1660e01b815260040161035c919061177d565b60206040518083038186803b15801561037457600080fd5b505afa158015610388573d6000803e3d6000fd5b505050506040513d601f19601f820116820180604052508101906103ac919061151c565b90508173ffffffffffffffffffffffffffffffffffffffff1663a9059cbb84836040518363ffffffff1660e01b81526004016103e9929190611798565b602060405180830381600087803b15801561040357600080fd5b505af1158015610417573d6000803e3d6000fd5b505050506040513d601f19601f8201168201806040525081019061043b91906113a1565b61047a576040517f08c379a000000000000000000000000000000000000000000000000000000000815260040161047190611938565b60405180910390fd5b8273ffffffffffffffffffffffffffffffffffffffff167f7084f5476618d8e60b11ef0d7d3f06914655adb8793e28ff7f018d4c76d505d5826040516104c09190611978565b60405180910390a2505050565b600360009054906101000a900473ffffffffffffffffffffffffffffffffffffffff1673ffffffffffffffffffffffffffffffffffffffff163373ffffffffffffffffffffffffffffffffffffffff161461055d576040517f08c379a000000000000000000000000000000000000000000000000000000000815260040161055490611918565b60405180910390fd5b60004790508173ffffffffffffffffffffffffffffffffffffffff167f7084f5476618d8e60b11ef0d7d3f06914655adb8793e28ff7f018d4c76d505d5826040516105a89190611978565b60405180910390a25050565b60076020528060005260406000206000915090505481565b60008060003373ffffffffffffffffffffffffffffffffffffffff1673ffffffffffffffffffffffffffffffffffffffff168152602001908152602001600020600081548092919060010191905055506040518060e001604052808681526020018573ffffffffffffffffffffffffffffffffffffffff16815260200184151581526020018381526020014281526020013073ffffffffffffffffffffffffffffffffffffffff16815260200160011515815250600660003373ffffffffffffffffffffffffffffffffffffffff1673ffffffffffffffffffffffffffffffffffffffff16815260200190815260200160002060008201518160000190805190602001906106db929190611146565b5060208201518160010160006101000a81548173ffffffffffffffffffffffffffffffffffffffff021916908373ffffffffffffffffffffffffffffffffffffffff16021790555060408201518160010160146101000a81548160ff021916908315150217905550606082015181600201556080820151816003015560a08201518160040160006101000a81548173ffffffffffffffffffffffffffffffffffffffff021916908373ffffffffffffffffffffffffffffffffffffffff16021790555060c08201518160040160146101000a81548160ff0219169083151502179055509050503373ffffffffffffffffffffffffffffffffffffffff167fdd49a7e572b5c7638971bc6a10724835256bbb03ca4187ce5fa77a2bf3716a768660405161080791906118a6565b60405180910390a26000803373ffffffffffffffffffffffffffffffffffffffff1673ffffffffffffffffffffffffffffffffffffffff168152602001908152602001600020549050949350505050565b6002602052816000526040600020602052806000526040600020600091509150508060000160009054906101000a900473ffffffffffffffffffffffffffffffffffffffff1690806001018054600181600116156101000203166002900480601f0160208091040260200160405190810160405280929190818152602001828054600181600116156101000203166002900480156109375780601f1061090c57610100808354040283529160200191610937565b820191906000526020600020905b81548152906001019060200180831161091a57829003601f168201915b5050505050908060020160009054906101000a900473ffffffffffffffffffffffffffffffffffffffff1690806003018054600181600116156101000203166002900480601f0160208091040260200160405190810160405280929190818152602001828054600181600116156101000203166002900480156109fb5780601f106109d0576101008083540402835291602001916109fb565b820191906000526020600020905b8154815290600101906020018083116109de57829003601f168201915b505050505090806004018054600181600116156101000203166002900480601f016020809104026020016040519081016040528092919081815260200182805460018160011615610100020316600290048015610a995780601f10610a6e57610100808354040283529160200191610a99565b820191906000526020600020905b815481529060010190602001808311610a7c57829003601f168201915b505050505090806005015490806006015490806007018054600181600116156101000203166002900480601f016020809104026020016040519081016040528092919081815260200182805460018160011615610100020316600290048015610b435780601f10610b1857610100808354040283529160200191610b43565b820191906000526020600020905b815481529060010190602001808311610b2657829003601f168201915b5050505050905088565b60006020528060005260406000206000915090505481565b600360009054906101000a900473ffffffffffffffffffffffffffffffffffffffff1681565b6000806002811115610b9957fe5b600260008573ffffffffffffffffffffffffffffffffffffffff1673ffffffffffffffffffffffffffffffffffffffff16815260200190815260200160002060008781526020019081526020016000206005015414610c2d576040517f08c379a0000000000000000000000000000000000000000000000000000000008152600401610c2490611958565b60405180910390fd5b600073ffffffffffffffffffffffffffffffffffffffff168473ffffffffffffffffffffffffffffffffffffffff161415610c9d576040517f08c379a0000000000000000000000000000000000000000000000000000000008152600401610c94906118f8565b60405180910390fd5b60016002811115610caa57fe5b600260008573ffffffffffffffffffffffffffffffffffffffff1673ffffffffffffffffffffffffffffffffffffffff16815260200190815260200160002060008781526020019081526020016000206005018190555060016000808573ffffffffffffffffffffffffffffffffffffffff1673ffffffffffffffffffffffffffffffffffffffff16815260200190815260200160002054016000808573ffffffffffffffffffffffffffffffffffffffff1673ffffffffffffffffffffffffffffffffffffffff16815260200190815260200160002081905550600460009054906101000a900473ffffffffffffffffffffffffffffffffffffffff1673ffffffffffffffffffffffffffffffffffffffff1663d0def52185846040518363ffffffff1660e01b8152600401610de29291906117c1565b602060405180830381600087803b158015610dfc57600080fd5b505af1158015610e10573d6000803e3d6000fd5b505050506040513d601f19601f82011682018060405250810190610e34919061151c565b9050949350505050565b600080600160008773ffffffffffffffffffffffffffffffffffffffff1673ffffffffffffffffffffffffffffffffffffffff1681526020019081526020016000205490506040518061010001604052803373ffffffffffffffffffffffffffffffffffffffff1681526020018681526020018773ffffffffffffffffffffffffffffffffffffffff16815260200188815260200185815260200160006002811115610ee657fe5b815260200142815260200184815250600260008873ffffffffffffffffffffffffffffffffffffffff1673ffffffffffffffffffffffffffffffffffffffff168152602001908152602001600020600083815260200190815260200160002060008201518160000160006101000a81548173ffffffffffffffffffffffffffffffffffffffff021916908373ffffffffffffffffffffffffffffffffffffffff1602179055506020820151816001019080519060200190610fa8929190611146565b5060408201518160020160006101000a81548173ffffffffffffffffffffffffffffffffffffffff021916908373ffffffffffffffffffffffffffffffffffffffff160217905550606082015181600301908051906020019061100c929190611146565b506080820151816004019080519060200190611029929190611146565b5060a0820151816005015560c0820151816006015560e082015181600701908051906020019061105a929190611146565b50905050600160008773ffffffffffffffffffffffffffffffffffffffff1673ffffffffffffffffffffffffffffffffffffffff16815260200190815260200160002060008154809291906001019190505550846040516110bb9190611766565b60405180910390203373ffffffffffffffffffffffffffffffffffffffff167f0a007e579f0793671747216eab1061026d102ff0f66e876d2edaa6277ad53e66868460405161110b9291906118c8565b60405180910390a38091505095945050505050565b600560009054906101000a900473ffffffffffffffffffffffffffffffffffffffff1681565b828054600181600116156101000203166002900490600052602060002090601f01602090048101928261117c57600085556111c3565b82601f1061119557805160ff19168380011785556111c3565b828001600101855582156111c3579182015b828111156111c25782518255916020019190600101906111a7565b5b5090506111d091906111d4565b5090565b5b808211156111ed5760008160009055506001016111d5565b5090565b60006112046111ff846119c4565b611993565b90508281526020810184848401111561121c57600080fd5b611227848285611acf565b509392505050565b60008135905061123e81611b24565b92915050565b60008135905061125381611b3b565b92915050565b60008135905061126881611b52565b92915050565b60008151905061127d81611b52565b92915050565b600082601f83011261129457600080fd5b81356112a48482602086016111f1565b91505092915050565b6000813590506112bc81611b69565b92915050565b6000815190506112d181611b69565b92915050565b6000602082840312156112e957600080fd5b60006112f78482850161122f565b91505092915050565b60006020828403121561131257600080fd5b600061132084828501611244565b91505092915050565b6000806040838503121561133c57600080fd5b600061134a85828601611244565b925050602061135b8582860161122f565b9150509250929050565b6000806040838503121561137857600080fd5b60006113868582860161122f565b9250506020611397858286016112ad565b9150509250929050565b6000602082840312156113b357600080fd5b60006113c18482850161126e565b91505092915050565b600080600080608085870312156113e057600080fd5b600085013567ffffffffffffffff8111156113fa57600080fd5b61140687828801611283565b94505060206114178782880161122f565b935050604061142887828801611259565b9250506060611439878288016112ad565b91505092959194509250565b600080600080600060a0868803121561145d57600080fd5b600086013567ffffffffffffffff81111561147757600080fd5b61148388828901611283565b95505060206114948882890161122f565b945050604086013567ffffffffffffffff8111156114b157600080fd5b6114bd88828901611283565b935050606086013567ffffffffffffffff8111156114da57600080fd5b6114e688828901611283565b925050608086013567ffffffffffffffff81111561150357600080fd5b61150f88828901611283565b9150509295509295909350565b60006020828403121561152e57600080fd5b600061153c848285016112c2565b91505092915050565b6000806000806080858703121561155b57600080fd5b6000611569878288016112ad565b945050602061157a8782880161122f565b935050604061158b8782880161122f565b925050606085013567ffffffffffffffff8111156115a857600080fd5b6115b487828801611283565b91505092959194509250565b6115c981611a75565b82525050565b6115d881611a1b565b82525050565b6115e781611a87565b82525050565b60006115f8826119f4565b61160281856119ff565b9350611612818560208601611ade565b61161b81611b13565b840191505092915050565b6000611631826119f4565b61163b8185611a10565b935061164b818560208601611ade565b80840191505092915050565b6000611664600f836119ff565b91507f496e76616c6964206164647265737300000000000000000000000000000000006000830152602082019050919050565b60006116a4600c836119ff565b91507f494e56414c49445f5553455200000000000000000000000000000000000000006000830152602082019050919050565b60006116e4601e836119ff565b91507f5472616e73666572206661696c656420666f72206261736520746f6b656e00006000830152602082019050919050565b6000611724601c836119ff565b91507f446f63756d656e74207769746820696e76616c696420737461747573000000006000830152602082019050919050565b61176081611a6b565b82525050565b60006117728284611626565b915081905092915050565b600060208201905061179260008301846115cf565b92915050565b60006040820190506117ad60008301856115c0565b6117ba6020830184611757565b9392505050565b60006040820190506117d660008301856115cf565b81810360208301526117e881846115ed565b90509392505050565b600061010082019050611807600083018b6115cf565b8181036020830152611819818a6115ed565b905061182860408301896115cf565b818103606083015261183a81886115ed565b9050818103608083015261184e81876115ed565b905061185d60a0830186611757565b61186a60c0830185611757565b81810360e083015261187c81846115ed565b90509998505050505050505050565b60006020820190506118a060008301846115de565b92915050565b600060208201905081810360008301526118c081846115ed565b905092915050565b600060408201905081810360008301526118e281856115ed565b90506118f16020830184611757565b9392505050565b6000602082019050818103600083015261191181611657565b9050919050565b6000602082019050818103600083015261193181611697565b9050919050565b60006020820190508181036000830152611951816116d7565b9050919050565b6000602082019050818103600083015261197181611717565b9050919050565b600060208201905061198d6000830184611757565b92915050565b6000604051905081810181811067ffffffffffffffff821117156119ba576119b9611b11565b5b8060405250919050565b600067ffffffffffffffff8211156119df576119de611b11565b5b601f19601f8301169050602081019050919050565b600081519050919050565b600082825260208201905092915050565b600081905092915050565b6000611a2682611a4b565b9050919050565b6000611a3882611a4b565b9050919050565b60008115159050919050565b600073ffffffffffffffffffffffffffffffffffffffff82169050919050565b6000819050919050565b6000611a8082611aab565b9050919050565b6000611a9282611a99565b9050919050565b6000611aa482611a4b565b9050919050565b6000611ab682611abd565b9050919050565b6000611ac882611a4b565b9050919050565b82818337600083830152505050565b60005b83811015611afc578082015181840152602081019050611ae1565b83811115611b0b576000848401525b50505050565bfe5b6000601f19601f8301169050919050565b611b2d81611a1b565b8114611b3857600080fd5b50565b611b4481611a2d565b8114611b4f57600080fd5b50565b611b5b81611a3f565b8114611b6657600080fd5b50565b611b7281611a6b565b8114611b7d57600080fd5b5056fea26469706673582212201692d83c367b75b01513924f1497cf1c26141214f9de0d9a0cf545a7a75deeb564736f6c63430007060033",
  "immutableReferences": {},
  "source": "// SPDX-License-Identifier: MIT\npragma solidity ^0.7.0;\n\npragma experimental ABIEncoderV2;\n\nimport \"./XDV.sol\";\nimport \"./MinterCore.sol\";\nimport \"@openzeppelin/contracts/utils/EnumerableSet.sol\";\nimport \"@openzeppelin/contracts/math/SafeMath.sol\";\nimport \"@openzeppelin/contracts/utils/Address.sol\";\nimport \"./ERC20Interface.sol\";\n\ncontract XDVController is MinterCore {\n    using EnumerableSet for EnumerableSet.AddressSet;\n    using SafeMath for uint256;\n    using Address for address payable;\n\n    event Withdrawn(address indexed payee, uint256 weiAmount);\n    address public owner;\n\n    XDV private platformToken;\n    ERC20Interface public token;\n\n    // minters\n    mapping(address => DataProviderMinter) internal minters;\n    mapping(address => uint256) public dataProviderAccounting;\n\n    constructor(address stablecoin, address xdv) {\n        token = ERC20Interface(stablecoin);\n        platformToken = XDV(xdv);\n        owner = msg.sender;\n    }\n\n    function withdraw(address payable payee) public {\n        require(msg.sender == owner, \"INVALID_USER\");\n        uint256 b = address(this).balance;\n\n        emit Withdrawn(payee, b);\n    }\n\n    function withdrawToken(address payable payee, address erc20token) public {\n        require(msg.sender == owner, \"INVALID_USER\");\n        uint256 balance = ERC20Interface(erc20token).balanceOf(address(this));\n\n        // Transfer tokens to pay service fee\n        require(\n            ERC20Interface(erc20token).transfer(payee, balance),\n            \"Transfer failed for base token\"\n        );\n\n        emit Withdrawn(payee, balance);\n    }\n\n    /**\n     * User requests anchored document to be process\n     */\n    function requestDataProviderService(\n        string memory minterDid,\n        address minterAddress,\n        string memory userDid,\n        string memory documentURI,\n        string memory description\n    ) public returns (uint256) {\n        // // User must have a balance\n        // require(token.balanceOf(msg.sender) >= 0, \"Invalid token balance\");\n        // // User must have an allowance\n        // require(\n        //     token.allowance(msg.sender, address(this)) >= 0,\n        //     \"Invalid token allowance\"\n        // );\n\n        uint256 i = minterDocumentRequestCounter[minterAddress];\n\n        // Assign request to minter\n        // We should move to use XDV Worker Protocol\n        minterDocumentRequests[minterAddress][i] = DocumentMintingRequest({\n            user: msg.sender,\n            userDid: userDid,\n            documentURI: documentURI,\n            status: uint256(DocumentMintingRequestStatus.REQUEST),\n            description: description,\n            toMinterDid: minterDid,\n            toMinter: minterAddress,\n            timestamp: block.timestamp\n        });\n        minterDocumentRequestCounter[minterAddress]++;\n\n        emit DocumentAnchored(msg.sender, userDid, documentURI, i);\n        return i;\n    }\n\n    /**\n     *  @dev Mints a platform token.\n     */\n    function mint(\n        uint256 requestId,\n        address user,\n        address dataProvider,\n        string memory tokenURI\n    ) public returns (uint256) {\n        require(\n            minterDocumentRequests[dataProvider][requestId].status ==\n                uint256(DocumentMintingRequestStatus.REQUEST),\n            \"Document with invalid status\"\n        );\n        require(user != address(0), \"Invalid address\");\n\n        // updates a request\n        minterDocumentRequests[dataProvider][requestId].status = uint256(\n            DocumentMintingRequestStatus.MINTED\n        );\n\n        minterCounter[dataProvider] = minterCounter[dataProvider] + 1;\n        return platformToken.mint(user, tokenURI);\n    }\n\n    /**\n     * @dev Registers a data tokenization service\n     *\n     */\n    function registerMinter(\n        string memory name,\n        address paymentAddress,\n        bool userHasKyc,\n        uint256 feeStructure\n    ) public returns (uint256) {\n        minterCounter[msg.sender]++;\n\n        minters[msg.sender] = DataProviderMinter({\n            name: name,\n            paymentAddress: paymentAddress,\n            hasUserKyc: userHasKyc,\n            feeStructure: feeStructure,\n            created: block.timestamp,\n            factoryAddress: address(this),\n            enabled: true\n        });\n\n        // set new minter\n        emit MinterRegistered(msg.sender, name);\n        return minterCounter[msg.sender];\n    }\n}\n",
  "sourcePath": "/Users/zubietaroberto/git/nft-document-swap/contracts/XDVController.sol",
  "compiler": {
    "name": "solc",
    "version": "0.7.6+commit.7338295f.Emscripten.clang"
  },
  "schemaVersion": "3.3.4",
  "updatedAt": "2021-04-08T19:25:48.504Z",
  "devdoc": {
    "kind": "dev",
    "methods": {
      "mint(uint256,address,address,string)": {
        "details": "Mints a platform token."
      },
      "registerMinter(string,address,bool,uint256)": {
        "details": "Registers a data tokenization service"
      }
    },
    "version": 1
  },
  "userdoc": {
    "kind": "user",
    "methods": {
      "requestDataProviderService(string,address,string,string,string)": {
        "notice": "User requests anchored document to be process"
      }
    },
    "version": 1
  }
}