{
  "contractName": "XDVController",
  "abi": [
    {
      "inputs": [
        {
          "internalType": "address",
          "name": "stablecoin",
          "type": "address"
        },
        {
          "internalType": "address",
          "name": "xdv",
          "type": "address"
        }
      ],
      "stateMutability": "nonpayable",
      "type": "constructor"
    },
    {
      "anonymous": false,
      "inputs": [
        {
          "indexed": true,
          "internalType": "address",
          "name": "user",
          "type": "address"
        },
        {
          "indexed": true,
          "internalType": "string",
          "name": "userDid",
          "type": "string"
        },
        {
          "indexed": false,
          "internalType": "string",
          "name": "documentURI",
          "type": "string"
        },
        {
          "indexed": false,
          "internalType": "uint256",
          "name": "id",
          "type": "uint256"
        }
      ],
      "name": "DocumentAnchored",
      "type": "event"
    },
    {
      "anonymous": false,
      "inputs": [
        {
          "indexed": true,
          "internalType": "address",
          "name": "minter",
          "type": "address"
        },
        {
          "indexed": false,
          "internalType": "string",
          "name": "name",
          "type": "string"
        }
      ],
      "name": "MinterRegistered",
      "type": "event"
    },
    {
      "anonymous": false,
      "inputs": [
        {
          "indexed": true,
          "internalType": "address",
          "name": "payee",
          "type": "address"
        },
        {
          "indexed": false,
          "internalType": "uint256",
          "name": "weiAmount",
          "type": "uint256"
        }
      ],
      "name": "Withdrawn",
      "type": "event"
    },
    {
      "inputs": [
        {
          "internalType": "address",
          "name": "",
          "type": "address"
        }
      ],
      "name": "dataProviderAccounting",
      "outputs": [
        {
          "internalType": "uint256",
          "name": "",
          "type": "uint256"
        }
      ],
      "stateMutability": "view",
      "type": "function"
    },
    {
      "inputs": [
        {
          "internalType": "address",
          "name": "",
          "type": "address"
        }
      ],
      "name": "minterCounter",
      "outputs": [
        {
          "internalType": "uint256",
          "name": "",
          "type": "uint256"
        }
      ],
      "stateMutability": "view",
      "type": "function"
    },
    {
      "inputs": [
        {
          "internalType": "address",
          "name": "",
          "type": "address"
        }
      ],
      "name": "minterDocumentRequestCounter",
      "outputs": [
        {
          "internalType": "uint256",
          "name": "",
          "type": "uint256"
        }
      ],
      "stateMutability": "view",
      "type": "function"
    },
    {
      "inputs": [
        {
          "internalType": "address",
          "name": "",
          "type": "address"
        },
        {
          "internalType": "uint256",
          "name": "",
          "type": "uint256"
        }
      ],
      "name": "minterDocumentRequests",
      "outputs": [
        {
          "internalType": "address",
          "name": "user",
          "type": "address"
        },
        {
          "internalType": "string",
          "name": "userDid",
          "type": "string"
        },
        {
          "internalType": "address",
          "name": "toMinter",
          "type": "address"
        },
        {
          "internalType": "string",
          "name": "toMinterDid",
          "type": "string"
        },
        {
          "internalType": "string",
          "name": "documentURI",
          "type": "string"
        },
        {
          "internalType": "uint256",
          "name": "status",
          "type": "uint256"
        },
        {
          "internalType": "uint256",
          "name": "timestamp",
          "type": "uint256"
        },
        {
          "internalType": "string",
          "name": "description",
          "type": "string"
        }
      ],
      "stateMutability": "view",
      "type": "function"
    },
    {
      "inputs": [],
      "name": "owner",
      "outputs": [
        {
          "internalType": "address",
          "name": "",
          "type": "address"
        }
      ],
      "stateMutability": "view",
      "type": "function"
    },
    {
      "inputs": [],
      "name": "token",
      "outputs": [
        {
          "internalType": "contract ERC20Interface",
          "name": "",
          "type": "address"
        }
      ],
      "stateMutability": "view",
      "type": "function"
    },
    {
      "inputs": [
        {
          "internalType": "address payable",
          "name": "payee",
          "type": "address"
        }
      ],
      "name": "withdraw",
      "outputs": [],
      "stateMutability": "nonpayable",
      "type": "function"
    },
    {
      "inputs": [
        {
          "internalType": "address payable",
          "name": "payee",
          "type": "address"
        },
        {
          "internalType": "address",
          "name": "erc20token",
          "type": "address"
        }
      ],
      "name": "withdrawToken",
      "outputs": [],
      "stateMutability": "nonpayable",
      "type": "function"
    },
    {
      "inputs": [
        {
          "internalType": "string",
          "name": "minterDid",
          "type": "string"
        },
        {
          "internalType": "address",
          "name": "minterAddress",
          "type": "address"
        },
        {
          "internalType": "string",
          "name": "userDid",
          "type": "string"
        },
        {
          "internalType": "string",
          "name": "documentURI",
          "type": "string"
        },
        {
          "internalType": "string",
          "name": "description",
          "type": "string"
        }
      ],
      "name": "requestDataProviderService",
      "outputs": [
        {
          "internalType": "uint256",
          "name": "",
          "type": "uint256"
        }
      ],
      "stateMutability": "nonpayable",
      "type": "function"
    },
    {
      "inputs": [
        {
          "internalType": "uint256",
          "name": "requestId",
          "type": "uint256"
        },
        {
          "internalType": "address",
          "name": "user",
          "type": "address"
        },
        {
          "internalType": "address",
          "name": "dataProvider",
          "type": "address"
        },
        {
          "internalType": "string",
          "name": "tokenURI",
          "type": "string"
        }
      ],
      "name": "mint",
      "outputs": [
        {
          "internalType": "uint256",
          "name": "",
          "type": "uint256"
        }
      ],
      "stateMutability": "nonpayable",
      "type": "function"
    },
    {
      "inputs": [
        {
          "internalType": "uint256",
          "name": "requestId",
          "type": "uint256"
        },
        {
          "internalType": "address",
          "name": "dataProvider",
          "type": "address"
        },
        {
          "internalType": "uint256",
          "name": "tokenId",
          "type": "uint256"
        }
      ],
      "name": "burn",
      "outputs": [
        {
          "internalType": "bool",
          "name": "",
          "type": "bool"
        }
      ],
      "stateMutability": "nonpayable",
      "type": "function"
    },
    {
      "inputs": [
        {
          "internalType": "string",
          "name": "name",
          "type": "string"
        },
        {
          "internalType": "address",
          "name": "paymentAddress",
          "type": "address"
        },
        {
          "internalType": "bool",
          "name": "userHasKyc",
          "type": "bool"
        },
        {
          "internalType": "uint256",
          "name": "feeStructure",
          "type": "uint256"
        }
      ],
      "name": "registerMinter",
      "outputs": [
        {
          "internalType": "uint256",
          "name": "",
          "type": "uint256"
        }
      ],
      "stateMutability": "nonpayable",
      "type": "function"
    }
  ],
  "bytecode": "0x60806040523480156200001157600080fd5b50604051620020f6380380620020f6833981810160405281019062000037919062000119565b81600560006101000a81548173ffffffffffffffffffffffffffffffffffffffff021916908373ffffffffffffffffffffffffffffffffffffffff16021790555080600460006101000a81548173ffffffffffffffffffffffffffffffffffffffff021916908373ffffffffffffffffffffffffffffffffffffffff16021790555033600360006101000a81548173ffffffffffffffffffffffffffffffffffffffff021916908373ffffffffffffffffffffffffffffffffffffffff1602179055505050620001a8565b60008151905062000113816200018e565b92915050565b600080604083850312156200012d57600080fd5b60006200013d8582860162000102565b9250506020620001508582860162000102565b9150509250929050565b600062000167826200016e565b9050919050565b600073ffffffffffffffffffffffffffffffffffffffff82169050919050565b62000199816200015a565b8114620001a557600080fd5b50565b611f3e80620001b86000396000f3fe608060405234801561001057600080fd5b50600436106100b45760003560e01c8063761901bb11610071578063761901bb146101b85780638da5cb5b146101e85780639acd083e146102065780639eea5f6614610236578063f83d360d14610266578063fc0c546a14610296576100b4565b80632aa222c8146100b95780633aeac4e1146100e957806351cff8d9146101055780635cec86161461012157806366563b4f146101515780636efaa69914610181575b600080fd5b6100d360048036038101906100ce91906115af565b6102b4565b6040516100e09190611d00565b60405180910390f35b61010360048036038101906100fe9190611601565b6102cc565b005b61011f600480360381019061011a91906115d8565b610508565b005b61013b600480360381019061013691906115af565b6105ef565b6040516101489190611d00565b60405180910390f35b61016b600480360381019061016691906116a2565b610607565b6040516101789190611d00565b60405180910390f35b61019b6004803603810190610196919061163d565b610893565b6040516101af989796959493929190611b5e565b60405180910390f35b6101d260048036038101906101cd91906115af565b610b88565b6040516101df9190611d00565b60405180910390f35b6101f0610ba0565b6040516101fd9190611ab3565b60405180910390f35b610220600480360381019061021b919061181d565b610bc6565b60405161022d9190611d00565b60405180910390f35b610250600480360381019061024b9190611898565b610e79565b60405161025d9190611bf8565b60405180910390f35b610280600480360381019061027b919061171d565b611116565b60405161028d9190611d00565b60405180910390f35b61029e6113f8565b6040516102ab9190611c13565b60405180910390f35b60016020528060005260406000206000915090505481565b600360009054906101000a900473ffffffffffffffffffffffffffffffffffffffff1673ffffffffffffffffffffffffffffffffffffffff163373ffffffffffffffffffffffffffffffffffffffff161461035c576040517f08c379a000000000000000000000000000000000000000000000000000000000815260040161035390611ca0565b60405180910390fd5b60008173ffffffffffffffffffffffffffffffffffffffff166370a08231306040518263ffffffff1660e01b81526004016103979190611ab3565b60206040518083038186803b1580156103af57600080fd5b505afa1580156103c3573d6000803e3d6000fd5b505050506040513d601f19601f820116820180604052508101906103e791906117f4565b90508173ffffffffffffffffffffffffffffffffffffffff1663a9059cbb84836040518363ffffffff1660e01b8152600401610424929190611b05565b602060405180830381600087803b15801561043e57600080fd5b505af1158015610452573d6000803e3d6000fd5b505050506040513d601f19601f820116820180604052508101906104769190611679565b6104b5576040517f08c379a00000000000000000000000000000000000000000000000000000000081526004016104ac90611cc0565b60405180910390fd5b8273ffffffffffffffffffffffffffffffffffffffff167f7084f5476618d8e60b11ef0d7d3f06914655adb8793e28ff7f018d4c76d505d5826040516104fb9190611d00565b60405180910390a2505050565b600360009054906101000a900473ffffffffffffffffffffffffffffffffffffffff1673ffffffffffffffffffffffffffffffffffffffff163373ffffffffffffffffffffffffffffffffffffffff1614610598576040517f08c379a000000000000000000000000000000000000000000000000000000000815260040161058f90611ca0565b60405180910390fd5b60004790508173ffffffffffffffffffffffffffffffffffffffff167f7084f5476618d8e60b11ef0d7d3f06914655adb8793e28ff7f018d4c76d505d5826040516105e39190611d00565b60405180910390a25050565b60076020528060005260406000206000915090505481565b60008060003373ffffffffffffffffffffffffffffffffffffffff1673ffffffffffffffffffffffffffffffffffffffff168152602001908152602001600020600081548092919060010191905055506040518060e001604052808681526020018573ffffffffffffffffffffffffffffffffffffffff16815260200184151581526020018381526020014281526020013073ffffffffffffffffffffffffffffffffffffffff16815260200160011515815250600660003373ffffffffffffffffffffffffffffffffffffffff1673ffffffffffffffffffffffffffffffffffffffff168152602001908152602001600020600082015181600001908051906020019061071692919061141e565b5060208201518160010160006101000a81548173ffffffffffffffffffffffffffffffffffffffff021916908373ffffffffffffffffffffffffffffffffffffffff16021790555060408201518160010160146101000a81548160ff021916908315150217905550606082015181600201556080820151816003015560a08201518160040160006101000a81548173ffffffffffffffffffffffffffffffffffffffff021916908373ffffffffffffffffffffffffffffffffffffffff16021790555060c08201518160040160146101000a81548160ff0219169083151502179055509050503373ffffffffffffffffffffffffffffffffffffffff167fdd49a7e572b5c7638971bc6a10724835256bbb03ca4187ce5fa77a2bf3716a76866040516108429190611c2e565b60405180910390a26000803373ffffffffffffffffffffffffffffffffffffffff1673ffffffffffffffffffffffffffffffffffffffff168152602001908152602001600020549050949350505050565b6002602052816000526040600020602052806000526040600020600091509150508060000160009054906101000a900473ffffffffffffffffffffffffffffffffffffffff1690806001018054600181600116156101000203166002900480601f0160208091040260200160405190810160405280929190818152602001828054600181600116156101000203166002900480156109725780601f1061094757610100808354040283529160200191610972565b820191906000526020600020905b81548152906001019060200180831161095557829003601f168201915b5050505050908060020160009054906101000a900473ffffffffffffffffffffffffffffffffffffffff1690806003018054600181600116156101000203166002900480601f016020809104026020016040519081016040528092919081815260200182805460018160011615610100020316600290048015610a365780601f10610a0b57610100808354040283529160200191610a36565b820191906000526020600020905b815481529060010190602001808311610a1957829003601f168201915b505050505090806004018054600181600116156101000203166002900480601f016020809104026020016040519081016040528092919081815260200182805460018160011615610100020316600290048015610ad45780601f10610aa957610100808354040283529160200191610ad4565b820191906000526020600020905b815481529060010190602001808311610ab757829003601f168201915b505050505090806005015490806006015490806007018054600181600116156101000203166002900480601f016020809104026020016040519081016040528092919081815260200182805460018160011615610100020316600290048015610b7e5780601f10610b5357610100808354040283529160200191610b7e565b820191906000526020600020905b815481529060010190602001808311610b6157829003601f168201915b5050505050905088565b60006020528060005260406000206000915090505481565b600360009054906101000a900473ffffffffffffffffffffffffffffffffffffffff1681565b6000806002811115610bd457fe5b600260008573ffffffffffffffffffffffffffffffffffffffff1673ffffffffffffffffffffffffffffffffffffffff16815260200190815260200160002060008781526020019081526020016000206005015414610c68576040517f08c379a0000000000000000000000000000000000000000000000000000000008152600401610c5f90611ce0565b60405180910390fd5b600073ffffffffffffffffffffffffffffffffffffffff168473ffffffffffffffffffffffffffffffffffffffff161415610cd8576040517f08c379a0000000000000000000000000000000000000000000000000000000008152600401610ccf90611c80565b60405180910390fd5b60016002811115610ce557fe5b600260008573ffffffffffffffffffffffffffffffffffffffff1673ffffffffffffffffffffffffffffffffffffffff16815260200190815260200160002060008781526020019081526020016000206005018190555060016000808573ffffffffffffffffffffffffffffffffffffffff1673ffffffffffffffffffffffffffffffffffffffff16815260200190815260200160002054016000808573ffffffffffffffffffffffffffffffffffffffff1673ffffffffffffffffffffffffffffffffffffffff16815260200190815260200160002081905550600460009054906101000a900473ffffffffffffffffffffffffffffffffffffffff1673ffffffffffffffffffffffffffffffffffffffff1663d0def52185846040518363ffffffff1660e01b8152600401610e1d929190611b2e565b602060405180830381600087803b158015610e3757600080fd5b505af1158015610e4b573d6000803e3d6000fd5b505050506040513d601f19601f82011682018060405250810190610e6f91906117f4565b9050949350505050565b600060016002811115610e8857fe5b600260008573ffffffffffffffffffffffffffffffffffffffff1673ffffffffffffffffffffffffffffffffffffffff16815260200190815260200160002060008681526020019081526020016000206005015414610f1c576040517f08c379a0000000000000000000000000000000000000000000000000000000008152600401610f1390611ce0565b60405180910390fd5b600460009054906101000a900473ffffffffffffffffffffffffffffffffffffffff1673ffffffffffffffffffffffffffffffffffffffff166342842e0e33600660008773ffffffffffffffffffffffffffffffffffffffff1673ffffffffffffffffffffffffffffffffffffffff16815260200190815260200160002060010160009054906101000a900473ffffffffffffffffffffffffffffffffffffffff16856040518463ffffffff1660e01b8152600401610fdd93929190611ace565b600060405180830381600087803b158015610ff757600080fd5b505af115801561100b573d6000803e3d6000fd5b50505050600660008473ffffffffffffffffffffffffffffffffffffffff1673ffffffffffffffffffffffffffffffffffffffff16815260200190815260200160002060020154600760008573ffffffffffffffffffffffffffffffffffffffff1673ffffffffffffffffffffffffffffffffffffffff16815260200190815260200160002060008282540192505081905550600084111561110b576002808111156110b357fe5b600260008573ffffffffffffffffffffffffffffffffffffffff1673ffffffffffffffffffffffffffffffffffffffff1681526020019081526020016000206000868152602001908152602001600020600501819055505b600190509392505050565b600080600160008773ffffffffffffffffffffffffffffffffffffffff1673ffffffffffffffffffffffffffffffffffffffff1681526020019081526020016000205490506040518061010001604052803373ffffffffffffffffffffffffffffffffffffffff1681526020018681526020018773ffffffffffffffffffffffffffffffffffffffff168152602001888152602001858152602001600060028111156111be57fe5b815260200142815260200184815250600260008873ffffffffffffffffffffffffffffffffffffffff1673ffffffffffffffffffffffffffffffffffffffff168152602001908152602001600020600083815260200190815260200160002060008201518160000160006101000a81548173ffffffffffffffffffffffffffffffffffffffff021916908373ffffffffffffffffffffffffffffffffffffffff160217905550602082015181600101908051906020019061128092919061141e565b5060408201518160020160006101000a81548173ffffffffffffffffffffffffffffffffffffffff021916908373ffffffffffffffffffffffffffffffffffffffff16021790555060608201518160030190805190602001906112e492919061141e565b50608082015181600401908051906020019061130192919061141e565b5060a0820151816005015560c0820151816006015560e082015181600701908051906020019061133292919061141e565b50905050600160008773ffffffffffffffffffffffffffffffffffffffff1673ffffffffffffffffffffffffffffffffffffffff16815260200190815260200160002060008154809291906001019190505550846040516113939190611a9c565b60405180910390203373ffffffffffffffffffffffffffffffffffffffff167f0a007e579f0793671747216eab1061026d102ff0f66e876d2edaa6277ad53e6686846040516113e3929190611c50565b60405180910390a38091505095945050505050565b600560009054906101000a900473ffffffffffffffffffffffffffffffffffffffff1681565b828054600181600116156101000203166002900490600052602060002090601f016020900481019282611454576000855561149b565b82601f1061146d57805160ff191683800117855561149b565b8280016001018555821561149b579182015b8281111561149a57825182559160200191906001019061147f565b5b5090506114a891906114ac565b5090565b5b808211156114c55760008160009055506001016114ad565b5090565b60006114dc6114d784611d4c565b611d1b565b9050828152602081018484840111156114f457600080fd5b6114ff848285611e57565b509392505050565b60008135905061151681611eac565b92915050565b60008135905061152b81611ec3565b92915050565b60008135905061154081611eda565b92915050565b60008151905061155581611eda565b92915050565b600082601f83011261156c57600080fd5b813561157c8482602086016114c9565b91505092915050565b60008135905061159481611ef1565b92915050565b6000815190506115a981611ef1565b92915050565b6000602082840312156115c157600080fd5b60006115cf84828501611507565b91505092915050565b6000602082840312156115ea57600080fd5b60006115f88482850161151c565b91505092915050565b6000806040838503121561161457600080fd5b60006116228582860161151c565b925050602061163385828601611507565b9150509250929050565b6000806040838503121561165057600080fd5b600061165e85828601611507565b925050602061166f85828601611585565b9150509250929050565b60006020828403121561168b57600080fd5b600061169984828501611546565b91505092915050565b600080600080608085870312156116b857600080fd5b600085013567ffffffffffffffff8111156116d257600080fd5b6116de8782880161155b565b94505060206116ef87828801611507565b935050604061170087828801611531565b925050606061171187828801611585565b91505092959194509250565b600080600080600060a0868803121561173557600080fd5b600086013567ffffffffffffffff81111561174f57600080fd5b61175b8882890161155b565b955050602061176c88828901611507565b945050604086013567ffffffffffffffff81111561178957600080fd5b6117958882890161155b565b935050606086013567ffffffffffffffff8111156117b257600080fd5b6117be8882890161155b565b925050608086013567ffffffffffffffff8111156117db57600080fd5b6117e78882890161155b565b9150509295509295909350565b60006020828403121561180657600080fd5b60006118148482850161159a565b91505092915050565b6000806000806080858703121561183357600080fd5b600061184187828801611585565b945050602061185287828801611507565b935050604061186387828801611507565b925050606085013567ffffffffffffffff81111561188057600080fd5b61188c8782880161155b565b91505092959194509250565b6000806000606084860312156118ad57600080fd5b60006118bb86828701611585565b93505060206118cc86828701611507565b92505060406118dd86828701611585565b9150509250925092565b6118f081611dfd565b82525050565b6118ff81611da3565b82525050565b61190e81611dc7565b82525050565b61191d81611e0f565b82525050565b600061192e82611d7c565b6119388185611d87565b9350611948818560208601611e66565b61195181611e9b565b840191505092915050565b600061196782611d7c565b6119718185611d98565b9350611981818560208601611e66565b80840191505092915050565b600061199a600f83611d87565b91507f496e76616c6964206164647265737300000000000000000000000000000000006000830152602082019050919050565b60006119da600c83611d87565b91507f494e56414c49445f5553455200000000000000000000000000000000000000006000830152602082019050919050565b6000611a1a601e83611d87565b91507f5472616e73666572206661696c656420666f72206261736520746f6b656e00006000830152602082019050919050565b6000611a5a601c83611d87565b91507f446f63756d656e74207769746820696e76616c696420737461747573000000006000830152602082019050919050565b611a9681611df3565b82525050565b6000611aa8828461195c565b915081905092915050565b6000602082019050611ac860008301846118f6565b92915050565b6000606082019050611ae360008301866118e7565b611af060208301856118f6565b611afd6040830184611a8d565b949350505050565b6000604082019050611b1a60008301856118e7565b611b276020830184611a8d565b9392505050565b6000604082019050611b4360008301856118f6565b8181036020830152611b558184611923565b90509392505050565b600061010082019050611b74600083018b6118f6565b8181036020830152611b86818a611923565b9050611b9560408301896118f6565b8181036060830152611ba78188611923565b90508181036080830152611bbb8187611923565b9050611bca60a0830186611a8d565b611bd760c0830185611a8d565b81810360e0830152611be98184611923565b90509998505050505050505050565b6000602082019050611c0d6000830184611905565b92915050565b6000602082019050611c286000830184611914565b92915050565b60006020820190508181036000830152611c488184611923565b905092915050565b60006040820190508181036000830152611c6a8185611923565b9050611c796020830184611a8d565b9392505050565b60006020820190508181036000830152611c998161198d565b9050919050565b60006020820190508181036000830152611cb9816119cd565b9050919050565b60006020820190508181036000830152611cd981611a0d565b9050919050565b60006020820190508181036000830152611cf981611a4d565b9050919050565b6000602082019050611d156000830184611a8d565b92915050565b6000604051905081810181811067ffffffffffffffff82111715611d4257611d41611e99565b5b8060405250919050565b600067ffffffffffffffff821115611d6757611d66611e99565b5b601f19601f8301169050602081019050919050565b600081519050919050565b600082825260208201905092915050565b600081905092915050565b6000611dae82611dd3565b9050919050565b6000611dc082611dd3565b9050919050565b60008115159050919050565b600073ffffffffffffffffffffffffffffffffffffffff82169050919050565b6000819050919050565b6000611e0882611e33565b9050919050565b6000611e1a82611e21565b9050919050565b6000611e2c82611dd3565b9050919050565b6000611e3e82611e45565b9050919050565b6000611e5082611dd3565b9050919050565b82818337600083830152505050565b60005b83811015611e84578082015181840152602081019050611e69565b83811115611e93576000848401525b50505050565bfe5b6000601f19601f8301169050919050565b611eb581611da3565b8114611ec057600080fd5b50565b611ecc81611db5565b8114611ed757600080fd5b50565b611ee381611dc7565b8114611eee57600080fd5b50565b611efa81611df3565b8114611f0557600080fd5b5056fea26469706673582212204658d39ee257bcf8ff8799a2e53906be39d5307b27cfce191e80e90189bff14064736f6c63430007060033",
  "immutableReferences": {},
  "source": "// SPDX-License-Identifier: MIT\npragma solidity ^0.7.0;\n\npragma experimental ABIEncoderV2;\n\nimport \"./XDV.sol\";\nimport \"./MinterCore.sol\";\nimport \"@openzeppelin/contracts/utils/EnumerableSet.sol\";\nimport \"@openzeppelin/contracts/math/SafeMath.sol\";\nimport \"@openzeppelin/contracts/utils/Address.sol\";\nimport \"./ERC20Interface.sol\";\n\ncontract XDVController is MinterCore {\n    using EnumerableSet for EnumerableSet.AddressSet;\n    using SafeMath for uint256;\n    using Address for address payable;\n\n    event Withdrawn(address indexed payee, uint256 weiAmount);\n    address public owner;\n\n    XDV private platformToken;\n    ERC20Interface public token;\n\n    // minters\n    mapping(address => DataProviderMinter) internal minters;\n    mapping(address => uint256) public dataProviderAccounting;\n\n    constructor(address stablecoin, address xdv) {\n        token = ERC20Interface(stablecoin);\n        platformToken = XDV(xdv);\n        owner = msg.sender;\n    }\n\n    function withdraw(address payable payee) public {\n        require(msg.sender == owner, \"INVALID_USER\");\n        uint256 b = address(this).balance;\n\n        emit Withdrawn(payee, b);\n    }\n\n    function withdrawToken(address payable payee, address erc20token) public {\n        require(msg.sender == owner, \"INVALID_USER\");\n        uint256 balance = ERC20Interface(erc20token).balanceOf(address(this));\n\n        // Transfer tokens to pay service fee\n        require(\n            ERC20Interface(erc20token).transfer(payee, balance),\n            \"Transfer failed for base token\"\n        );\n\n        emit Withdrawn(payee, balance);\n    }\n\n    /**\n     * User requests anchored document to be process\n     */\n    function requestDataProviderService(\n        string memory minterDid,\n        address minterAddress,\n        string memory userDid,\n        string memory documentURI,\n        string memory description\n    ) public returns (uint256) {\n        // // User must have a balance\n        // require(token.balanceOf(msg.sender) >= 0, \"Invalid token balance\");\n        // // User must have an allowance\n        // require(\n        //     token.allowance(msg.sender, address(this)) >= 0,\n        //     \"Invalid token allowance\"\n        // );\n\n        uint256 i = minterDocumentRequestCounter[minterAddress];\n\n        // Assign request to minter\n        // We should move to use XDV Worker Protocol\n        minterDocumentRequests[minterAddress][i] = DocumentMintingRequest({\n            user: msg.sender,\n            userDid: userDid,\n            documentURI: documentURI,\n            status: uint256(DocumentMintingRequestStatus.REQUEST),\n            description: description,\n            toMinterDid: minterDid,\n            toMinter: minterAddress,\n            timestamp: block.timestamp\n        });\n        minterDocumentRequestCounter[minterAddress]++;\n\n        emit DocumentAnchored(msg.sender, userDid, documentURI, i);\n        return i;\n    }\n\n    /**\n     *  @dev Mints a platform token.\n     */\n    function mint(\n        uint256 requestId,\n        address user,\n        address dataProvider,\n        string memory tokenURI\n    ) public returns (uint256) {\n        require(\n            minterDocumentRequests[dataProvider][requestId].status ==\n                uint256(DocumentMintingRequestStatus.REQUEST),\n            \"Document with invalid status\"\n        );\n        require(user != address(0), \"Invalid address\");\n\n        // updates a request\n        minterDocumentRequests[dataProvider][requestId].status = uint256(\n            DocumentMintingRequestStatus.MINTED\n        );\n\n        minterCounter[dataProvider] = minterCounter[dataProvider] + 1;\n        return platformToken.mint(user, tokenURI);\n    }\n\n    /**\n     *  @dev Burns a platform token.\n     */\n    function burn(\n        uint256 requestId,\n        address dataProvider,\n        uint256 tokenId\n    ) public returns (bool) {\n        require(\n            minterDocumentRequests[dataProvider][requestId].status ==\n                uint256(DocumentMintingRequestStatus.MINTED),\n            \"Document with invalid status\"\n        );\n\n        platformToken.safeTransferFrom(\n            msg.sender,\n            minters[dataProvider].paymentAddress,\n            tokenId\n        );\n\n        dataProviderAccounting[dataProvider] += minters[dataProvider]\n            .feeStructure;\n\n        // TODO desplegar el fee de burn\n        if (requestId > 0) {\n            minterDocumentRequests[dataProvider][requestId].status = uint256(\n                DocumentMintingRequestStatus.BURNED\n            );\n        }\n\n        return true;\n    }\n\n    /**\n     * @dev Registers a data tokenization service\n     *\n     */\n    function registerMinter(\n        string memory name,\n        address paymentAddress,\n        bool userHasKyc,\n        uint256 feeStructure\n    ) public returns (uint256) {\n        minterCounter[msg.sender]++;\n\n        minters[msg.sender] = DataProviderMinter({\n            name: name,\n            paymentAddress: paymentAddress,\n            hasUserKyc: userHasKyc,\n            feeStructure: feeStructure,\n            created: block.timestamp,\n            factoryAddress: address(this),\n            enabled: true\n        });\n\n        // set new minter\n        emit MinterRegistered(msg.sender, name);\n        return minterCounter[msg.sender];\n    }\n}\n",
  "sourcePath": "/Users/zubietaroberto/git/nft-document-swap/contracts/XDVController.sol",
  "compiler": {
    "name": "solc",
    "version": "0.7.6+commit.7338295f.Emscripten.clang"
  },
  "schemaVersion": "3.3.4",
  "updatedAt": "2021-04-05T21:39:51.111Z",
  "devdoc": {
    "kind": "dev",
    "methods": {
      "burn(uint256,address,uint256)": {
        "details": "Burns a platform token."
      },
      "mint(uint256,address,address,string)": {
        "details": "Mints a platform token."
      },
      "registerMinter(string,address,bool,uint256)": {
        "details": "Registers a data tokenization service"
      }
    },
    "version": 1
  },
  "userdoc": {
    "kind": "user",
    "methods": {
      "requestDataProviderService(string,address,string,string,string)": {
        "notice": "User requests anchored document to be process"
      }
    },
    "version": 1
  }
}