{
  "contractName": "XDVController",
  "abi": [
    {
      "inputs": [
        {
          "internalType": "address",
          "name": "stablecoin",
          "type": "address"
        },
        {
          "internalType": "address",
          "name": "xdv",
          "type": "address"
        }
      ],
      "stateMutability": "nonpayable",
      "type": "constructor"
    },
    {
      "anonymous": false,
      "inputs": [
        {
          "indexed": true,
          "internalType": "address",
          "name": "user",
          "type": "address"
        },
        {
          "indexed": true,
          "internalType": "string",
          "name": "userDid",
          "type": "string"
        },
        {
          "indexed": false,
          "internalType": "string",
          "name": "documentURI",
          "type": "string"
        },
        {
          "indexed": false,
          "internalType": "uint256",
          "name": "id",
          "type": "uint256"
        }
      ],
      "name": "DocumentAnchored",
      "type": "event"
    },
    {
      "anonymous": false,
      "inputs": [
        {
          "indexed": true,
          "internalType": "address",
          "name": "minter",
          "type": "address"
        },
        {
          "indexed": true,
          "internalType": "uint256",
          "name": "id",
          "type": "uint256"
        },
        {
          "indexed": false,
          "internalType": "string",
          "name": "name",
          "type": "string"
        }
      ],
      "name": "MinterRegistered",
      "type": "event"
    },
    {
      "anonymous": false,
      "inputs": [
        {
          "indexed": true,
          "internalType": "address",
          "name": "payee",
          "type": "address"
        },
        {
          "indexed": false,
          "internalType": "uint256",
          "name": "weiAmount",
          "type": "uint256"
        }
      ],
      "name": "Withdrawn",
      "type": "event"
    },
    {
      "inputs": [
        {
          "internalType": "uint256",
          "name": "",
          "type": "uint256"
        }
      ],
      "name": "dataProviderMinters",
      "outputs": [
        {
          "internalType": "address",
          "name": "minterAddress",
          "type": "address"
        },
        {
          "internalType": "string",
          "name": "name",
          "type": "string"
        },
        {
          "internalType": "address",
          "name": "paymentAddress",
          "type": "address"
        },
        {
          "internalType": "bool",
          "name": "hasUserKyc",
          "type": "bool"
        },
        {
          "internalType": "uint256",
          "name": "feeStructure",
          "type": "uint256"
        },
        {
          "internalType": "uint256",
          "name": "created",
          "type": "uint256"
        },
        {
          "internalType": "uint256",
          "name": "serviceFee",
          "type": "uint256"
        },
        {
          "internalType": "address",
          "name": "factoryAddress",
          "type": "address"
        },
        {
          "internalType": "bool",
          "name": "enabled",
          "type": "bool"
        }
      ],
      "stateMutability": "view",
      "type": "function",
      "constant": true
    },
    {
      "inputs": [
        {
          "internalType": "address",
          "name": "",
          "type": "address"
        }
      ],
      "name": "minterCounter",
      "outputs": [
        {
          "internalType": "uint256",
          "name": "",
          "type": "uint256"
        }
      ],
      "stateMutability": "view",
      "type": "function",
      "constant": true
    },
    {
      "inputs": [
        {
          "internalType": "address",
          "name": "",
          "type": "address"
        }
      ],
      "name": "minterDocumentRequestCounter",
      "outputs": [
        {
          "internalType": "uint256",
          "name": "",
          "type": "uint256"
        }
      ],
      "stateMutability": "view",
      "type": "function",
      "constant": true
    },
    {
      "inputs": [
        {
          "internalType": "address",
          "name": "",
          "type": "address"
        },
        {
          "internalType": "uint256",
          "name": "",
          "type": "uint256"
        }
      ],
      "name": "minterDocumentRequests",
      "outputs": [
        {
          "internalType": "address",
          "name": "user",
          "type": "address"
        },
        {
          "internalType": "string",
          "name": "userDid",
          "type": "string"
        },
        {
          "internalType": "address",
          "name": "toMinter",
          "type": "address"
        },
        {
          "internalType": "string",
          "name": "toMinterDid",
          "type": "string"
        },
        {
          "internalType": "string",
          "name": "documentURI",
          "type": "string"
        },
        {
          "internalType": "uint256",
          "name": "status",
          "type": "uint256"
        },
        {
          "internalType": "uint256",
          "name": "timestamp",
          "type": "uint256"
        },
        {
          "internalType": "string",
          "name": "description",
          "type": "string"
        }
      ],
      "stateMutability": "view",
      "type": "function",
      "constant": true
    },
    {
      "inputs": [],
      "name": "owner",
      "outputs": [
        {
          "internalType": "address",
          "name": "",
          "type": "address"
        }
      ],
      "stateMutability": "view",
      "type": "function",
      "constant": true
    },
    {
      "inputs": [],
      "name": "token",
      "outputs": [
        {
          "internalType": "contract ERC20Interface",
          "name": "",
          "type": "address"
        }
      ],
      "stateMutability": "view",
      "type": "function",
      "constant": true
    },
    {
      "inputs": [
        {
          "internalType": "uint256",
          "name": "_fee",
          "type": "uint256"
        }
      ],
      "name": "setProtocolFee",
      "outputs": [],
      "stateMutability": "nonpayable",
      "type": "function"
    },
    {
      "inputs": [],
      "name": "getProtocolFee",
      "outputs": [
        {
          "internalType": "uint256",
          "name": "",
          "type": "uint256"
        }
      ],
      "stateMutability": "nonpayable",
      "type": "function"
    },
    {
      "inputs": [
        {
          "internalType": "address payable",
          "name": "payee",
          "type": "address"
        }
      ],
      "name": "withdraw",
      "outputs": [],
      "stateMutability": "nonpayable",
      "type": "function"
    },
    {
      "inputs": [
        {
          "internalType": "address payable",
          "name": "payee",
          "type": "address"
        },
        {
          "internalType": "address",
          "name": "erc20token",
          "type": "address"
        }
      ],
      "name": "withdrawToken",
      "outputs": [],
      "stateMutability": "nonpayable",
      "type": "function"
    },
    {
      "inputs": [
        {
          "internalType": "string",
          "name": "minterDid",
          "type": "string"
        },
        {
          "internalType": "address",
          "name": "minterAddress",
          "type": "address"
        },
        {
          "internalType": "string",
          "name": "userDid",
          "type": "string"
        },
        {
          "internalType": "string",
          "name": "documentURI",
          "type": "string"
        },
        {
          "internalType": "string",
          "name": "description",
          "type": "string"
        }
      ],
      "name": "requestDataProviderService",
      "outputs": [
        {
          "internalType": "uint256",
          "name": "",
          "type": "uint256"
        }
      ],
      "stateMutability": "payable",
      "type": "function",
      "payable": true
    },
    {
      "inputs": [
        {
          "internalType": "address",
          "name": "user",
          "type": "address"
        },
        {
          "internalType": "address",
          "name": "tokenizationConfig",
          "type": "address"
        },
        {
          "internalType": "string",
          "name": "tokenURI",
          "type": "string"
        }
      ],
      "name": "mint",
      "outputs": [
        {
          "internalType": "uint256",
          "name": "",
          "type": "uint256"
        }
      ],
      "stateMutability": "nonpayable",
      "type": "function"
    },
    {
      "inputs": [
        {
          "internalType": "uint256",
          "name": "requestId",
          "type": "uint256"
        },
        {
          "internalType": "uint256",
          "name": "tokenId",
          "type": "uint256"
        }
      ],
      "name": "burn",
      "outputs": [
        {
          "internalType": "bool",
          "name": "",
          "type": "bool"
        }
      ],
      "stateMutability": "payable",
      "type": "function",
      "payable": true
    },
    {
      "inputs": [
        {
          "internalType": "address",
          "name": "minter",
          "type": "address"
        },
        {
          "internalType": "string",
          "name": "name",
          "type": "string"
        },
        {
          "internalType": "address",
          "name": "paymentAddress",
          "type": "address"
        },
        {
          "internalType": "bool",
          "name": "userHasKyc",
          "type": "bool"
        },
        {
          "internalType": "uint256",
          "name": "feeStructure",
          "type": "uint256"
        }
      ],
      "name": "registerMinter",
      "outputs": [
        {
          "internalType": "uint256",
          "name": "",
          "type": "uint256"
        }
      ],
      "stateMutability": "nonpayable",
      "type": "function"
    },
    {
      "inputs": [],
      "name": "count",
      "outputs": [
        {
          "internalType": "uint256",
          "name": "",
          "type": "uint256"
        }
      ],
      "stateMutability": "view",
      "type": "function",
      "constant": true
    },
    {
      "inputs": [
        {
          "internalType": "uint256",
          "name": "index",
          "type": "uint256"
        }
      ],
      "name": "get",
      "outputs": [
        {
          "internalType": "address",
          "name": "",
          "type": "address"
        }
      ],
      "stateMutability": "view",
      "type": "function",
      "constant": true
    }
  ],
  "bytecode": "0x60806040523480156200001157600080fd5b506040516200327838038062003278833981810160405281019062000037919062000119565b81600760006101000a81548173ffffffffffffffffffffffffffffffffffffffff021916908373ffffffffffffffffffffffffffffffffffffffff16021790555080600660006101000a81548173ffffffffffffffffffffffffffffffffffffffff021916908373ffffffffffffffffffffffffffffffffffffffff16021790555033600460006101000a81548173ffffffffffffffffffffffffffffffffffffffff021916908373ffffffffffffffffffffffffffffffffffffffff1602179055505050620001a8565b60008151905062000113816200018e565b92915050565b600080604083850312156200012d57600080fd5b60006200013d8582860162000102565b9250506020620001508582860162000102565b9150509250929050565b600062000167826200016e565b9050919050565b600073ffffffffffffffffffffffffffffffffffffffff82169050919050565b62000199816200015a565b8114620001a557600080fd5b50565b6130c080620001b86000396000f3fe6080604052600436106100f35760003560e01c80638da5cb5b1161008a578063ad8175d711610059578063ad8175d714610371578063b390c0ab146103ae578063f83d360d146103de578063fc0c546a1461040e576100f3565b80638da5cb5b146102995780639507d39a146102c4578063967426ff14610301578063a5a4103114610346576100f3565b806351cff8d9116100c657806351cff8d9146101c65780636efaa699146101ef578063761901bb14610233578063787dce3d14610270576100f3565b806306661abd146100f8578063221375a6146101235780632aa222c8146101605780633aeac4e11461019d575b600080fd5b34801561010457600080fd5b5061010d610439565b60405161011a9190612e60565b60405180910390f35b34801561012f57600080fd5b5061014a60048036038101906101459190612446565b61044a565b6040516101579190612e60565b60405180910390f35b34801561016c57600080fd5b50610187600480360381019061018291906123b8565b61069f565b6040516101949190612e60565b60405180910390f35b3480156101a957600080fd5b506101c460048036038101906101bf919061240a565b6106b7565b005b3480156101d257600080fd5b506101ed60048036038101906101e891906123e1565b6108f3565b005b3480156101fb57600080fd5b506102166004803603810190610211919061253c565b6109da565b60405161022a989796959493929190612bfe565b60405180910390f35b34801561023f57600080fd5b5061025a600480360381019061025591906123b8565b610ccf565b6040516102679190612e60565b60405180910390f35b34801561027c57600080fd5b5061029760048036038101906102929190612678565b610ce7565b005b3480156102a557600080fd5b506102ae610d81565b6040516102bb9190612a52565b60405180910390f35b3480156102d057600080fd5b506102eb60048036038101906102e69190612678565b610da7565b6040516102f89190612a52565b60405180910390f35b34801561030d57600080fd5b5061032860048036038101906103239190612678565b610dc4565b60405161033d99989796959493929190612b6a565b60405180910390f35b34801561035257600080fd5b5061035b610f24565b6040516103689190612e60565b60405180910390f35b34801561037d57600080fd5b50610398600480360381019061039391906124ad565b610f2e565b6040516103a59190612e60565b60405180910390f35b6103c860048036038101906103c391906126ca565b6112be565b6040516103d59190612c98565b60405180910390f35b6103f860048036038101906103f391906125a1565b611b8c565b6040516104059190612e60565b60405180910390f35b34801561041a57600080fd5b5061042361213e565b6040516104309190612cb3565b60405180910390f35b60006104456008612164565b905090565b60008073ffffffffffffffffffffffffffffffffffffffff168473ffffffffffffffffffffffffffffffffffffffff1614156104bb576040517f08c379a00000000000000000000000000000000000000000000000000000000081526004016104b290612d40565b60405180910390fd5b60008060008573ffffffffffffffffffffffffffffffffffffffff1673ffffffffffffffffffffffffffffffffffffffff1681526020019081526020016000205490506001600281111561050b57fe5b600360008673ffffffffffffffffffffffffffffffffffffffff1673ffffffffffffffffffffffffffffffffffffffff16815260200190815260200160002060008381526020019081526020016000206005018190555060016000808673ffffffffffffffffffffffffffffffffffffffff1673ffffffffffffffffffffffffffffffffffffffff16815260200190815260200160002054016000808673ffffffffffffffffffffffffffffffffffffffff1673ffffffffffffffffffffffffffffffffffffffff16815260200190815260200160002081905550600660009054906101000a900473ffffffffffffffffffffffffffffffffffffffff1673ffffffffffffffffffffffffffffffffffffffff1663d0def52186856040518363ffffffff1660e01b8152600401610643929190612b3a565b602060405180830381600087803b15801561065d57600080fd5b505af1158015610671573d6000803e3d6000fd5b505050506040513d601f19601f8201168201806040525081019061069591906126a1565b9150509392505050565b60026020528060005260406000206000915090505481565b600460009054906101000a900473ffffffffffffffffffffffffffffffffffffffff1673ffffffffffffffffffffffffffffffffffffffff163373ffffffffffffffffffffffffffffffffffffffff1614610747576040517f08c379a000000000000000000000000000000000000000000000000000000000815260040161073e90612da0565b60405180910390fd5b60008173ffffffffffffffffffffffffffffffffffffffff166370a08231306040518263ffffffff1660e01b81526004016107829190612a52565b60206040518083038186803b15801561079a57600080fd5b505afa1580156107ae573d6000803e3d6000fd5b505050506040513d601f19601f820116820180604052508101906107d291906126a1565b90508173ffffffffffffffffffffffffffffffffffffffff1663a9059cbb84836040518363ffffffff1660e01b815260040161080f929190612b11565b602060405180830381600087803b15801561082957600080fd5b505af115801561083d573d6000803e3d6000fd5b505050506040513d601f19601f820116820180604052508101906108619190612578565b6108a0576040517f08c379a000000000000000000000000000000000000000000000000000000000815260040161089790612de0565b60405180910390fd5b8273ffffffffffffffffffffffffffffffffffffffff167f7084f5476618d8e60b11ef0d7d3f06914655adb8793e28ff7f018d4c76d505d5826040516108e69190612e60565b60405180910390a2505050565b600460009054906101000a900473ffffffffffffffffffffffffffffffffffffffff1673ffffffffffffffffffffffffffffffffffffffff163373ffffffffffffffffffffffffffffffffffffffff1614610983576040517f08c379a000000000000000000000000000000000000000000000000000000000815260040161097a90612da0565b60405180910390fd5b60004790508173ffffffffffffffffffffffffffffffffffffffff167f7084f5476618d8e60b11ef0d7d3f06914655adb8793e28ff7f018d4c76d505d5826040516109ce9190612e60565b60405180910390a25050565b6003602052816000526040600020602052806000526040600020600091509150508060000160009054906101000a900473ffffffffffffffffffffffffffffffffffffffff1690806001018054600181600116156101000203166002900480601f016020809104026020016040519081016040528092919081815260200182805460018160011615610100020316600290048015610ab95780601f10610a8e57610100808354040283529160200191610ab9565b820191906000526020600020905b815481529060010190602001808311610a9c57829003601f168201915b5050505050908060020160009054906101000a900473ffffffffffffffffffffffffffffffffffffffff1690806003018054600181600116156101000203166002900480601f016020809104026020016040519081016040528092919081815260200182805460018160011615610100020316600290048015610b7d5780601f10610b5257610100808354040283529160200191610b7d565b820191906000526020600020905b815481529060010190602001808311610b6057829003601f168201915b505050505090806004018054600181600116156101000203166002900480601f016020809104026020016040519081016040528092919081815260200182805460018160011615610100020316600290048015610c1b5780601f10610bf057610100808354040283529160200191610c1b565b820191906000526020600020905b815481529060010190602001808311610bfe57829003601f168201915b505050505090806005015490806006015490806007018054600181600116156101000203166002900480601f016020809104026020016040519081016040528092919081815260200182805460018160011615610100020316600290048015610cc55780601f10610c9a57610100808354040283529160200191610cc5565b820191906000526020600020905b815481529060010190602001808311610ca857829003601f168201915b5050505050905088565b60006020528060005260406000206000915090505481565b600460009054906101000a900473ffffffffffffffffffffffffffffffffffffffff1673ffffffffffffffffffffffffffffffffffffffff163373ffffffffffffffffffffffffffffffffffffffff1614610d77576040517f08c379a0000000000000000000000000000000000000000000000000000000008152600401610d6e90612da0565b60405180910390fd5b8060058190555050565b600460009054906101000a900473ffffffffffffffffffffffffffffffffffffffff1681565b6000610dbd82600861217990919063ffffffff16565b9050919050565b60016020528060005260406000206000915090508060000160009054906101000a900473ffffffffffffffffffffffffffffffffffffffff1690806001018054600181600116156101000203166002900480601f016020809104026020016040519081016040528092919081815260200182805460018160011615610100020316600290048015610e965780601f10610e6b57610100808354040283529160200191610e96565b820191906000526020600020905b815481529060010190602001808311610e7957829003601f168201915b5050505050908060020160009054906101000a900473ffffffffffffffffffffffffffffffffffffffff16908060020160149054906101000a900460ff16908060030154908060040154908060050154908060060160009054906101000a900473ffffffffffffffffffffffffffffffffffffffff16908060060160149054906101000a900460ff16905089565b6000600554905090565b60008060008773ffffffffffffffffffffffffffffffffffffffff1673ffffffffffffffffffffffffffffffffffffffff1681526020019081526020016000206000815480929190600101919050555060008060008873ffffffffffffffffffffffffffffffffffffffff1673ffffffffffffffffffffffffffffffffffffffff1681526020019081526020016000205490506040518061012001604052808873ffffffffffffffffffffffffffffffffffffffff1681526020018781526020018673ffffffffffffffffffffffffffffffffffffffff168152602001851515815260200184815260200142815260200160055481526020013073ffffffffffffffffffffffffffffffffffffffff168152602001600115158152506001600083815260200190815260200160002060008201518160000160006101000a81548173ffffffffffffffffffffffffffffffffffffffff021916908373ffffffffffffffffffffffffffffffffffffffff16021790555060208201518160010190805190602001906110c0929190612227565b5060408201518160020160006101000a81548173ffffffffffffffffffffffffffffffffffffffff021916908373ffffffffffffffffffffffffffffffffffffffff16021790555060608201518160020160146101000a81548160ff0219169083151502179055506080820151816003015560a0820151816004015560c0820151816005015560e08201518160060160006101000a81548173ffffffffffffffffffffffffffffffffffffffff021916908373ffffffffffffffffffffffffffffffffffffffff1602179055506101008201518160060160146101000a81548160ff021916908315150217905550905050600660009054906101000a900473ffffffffffffffffffffffffffffffffffffffff1673ffffffffffffffffffffffffffffffffffffffff166303caa5c33360006040518363ffffffff1660e01b815260040161120f929190612ae8565b602060405180830381600087803b15801561122957600080fd5b505af115801561123d573d6000803e3d6000fd5b505050506040513d601f19601f820116820180604052508101906112619190612578565b50808773ffffffffffffffffffffffffffffffffffffffff167fc3e23a3b0e2f891d627c5255e8f6d7d84b478d704b83bd597bd36d83d43b2404886040516112a99190612cce565b60405180910390a38091505095945050505050565b600080600760009054906101000a900473ffffffffffffffffffffffffffffffffffffffff1673ffffffffffffffffffffffffffffffffffffffff166370a08231336040518263ffffffff1660e01b815260040161131c9190612a6d565b60206040518083038186803b15801561133457600080fd5b505afa158015611348573d6000803e3d6000fd5b505050506040513d601f19601f8201168201806040525081019061136c91906126a1565b10156113ad576040517f08c379a00000000000000000000000000000000000000000000000000000000081526004016113a490612d20565b60405180910390fd5b6000600760009054906101000a900473ffffffffffffffffffffffffffffffffffffffff1673ffffffffffffffffffffffffffffffffffffffff1663dd62ed3e33306040518363ffffffff1660e01b815260040161140c929190612a88565b60206040518083038186803b15801561142457600080fd5b505afa158015611438573d6000803e3d6000fd5b505050506040513d601f19601f8201168201806040525081019061145c91906126a1565b101561149d576040517f08c379a000000000000000000000000000000000000000000000000000000000815260040161149490612e40565b60405180910390fd5b60008060003073ffffffffffffffffffffffffffffffffffffffff1673ffffffffffffffffffffffffffffffffffffffff168152602001908152602001600020549050600060016000838152602001908152602001600020604051806101200160405290816000820160009054906101000a900473ffffffffffffffffffffffffffffffffffffffff1673ffffffffffffffffffffffffffffffffffffffff1673ffffffffffffffffffffffffffffffffffffffff168152602001600182018054600181600116156101000203166002900480601f0160208091040260200160405190810160405280929190818152602001828054600181600116156101000203166002900480156115f05780601f106115c5576101008083540402835291602001916115f0565b820191906000526020600020905b8154815290600101906020018083116115d357829003601f168201915b505050505081526020016002820160009054906101000a900473ffffffffffffffffffffffffffffffffffffffff1673ffffffffffffffffffffffffffffffffffffffff1673ffffffffffffffffffffffffffffffffffffffff1681526020016002820160149054906101000a900460ff161515151581526020016003820154815260200160048201548152602001600582015481526020016006820160009054906101000a900473ffffffffffffffffffffffffffffffffffffffff1673ffffffffffffffffffffffffffffffffffffffff1673ffffffffffffffffffffffffffffffffffffffff1681526020016006820160149054906101000a900460ff16151515158152505090506000816080015111611742576040517f08c379a000000000000000000000000000000000000000000000000000000000815260040161173990612e20565b60405180910390fd5b600073ffffffffffffffffffffffffffffffffffffffff16816040015173ffffffffffffffffffffffffffffffffffffffff1614156117b6576040517f08c379a00000000000000000000000000000000000000000000000000000000081526004016117ad90612d80565b60405180910390fd5b600073ffffffffffffffffffffffffffffffffffffffff168160e0015173ffffffffffffffffffffffffffffffffffffffff16141561182a576040517f08c379a000000000000000000000000000000000000000000000000000000000815260040161182190612dc0565b60405180910390fd5b60008160c0015111611871576040517f08c379a000000000000000000000000000000000000000000000000000000000815260040161186890612e00565b60405180910390fd5b600660009054906101000a900473ffffffffffffffffffffffffffffffffffffffff1673ffffffffffffffffffffffffffffffffffffffff166342966c68856040518263ffffffff1660e01b81526004016118cc9190612e60565b602060405180830381600087803b1580156118e657600080fd5b505af11580156118fa573d6000803e3d6000fd5b505050506040513d601f19601f8201168201806040525081019061191e9190612578565b50600760009054906101000a900473ffffffffffffffffffffffffffffffffffffffff1673ffffffffffffffffffffffffffffffffffffffff166323b872dd33836040015184608001516040518463ffffffff1660e01b815260040161198693929190612ab1565b602060405180830381600087803b1580156119a057600080fd5b505af11580156119b4573d6000803e3d6000fd5b505050506040513d601f19601f820116820180604052508101906119d89190612578565b611a17576040517f08c379a0000000000000000000000000000000000000000000000000000000008152600401611a0e90612de0565b60405180910390fd5b600760009054906101000a900473ffffffffffffffffffffffffffffffffffffffff1673ffffffffffffffffffffffffffffffffffffffff166323b872dd338360e001518460c001516040518463ffffffff1660e01b8152600401611a7e93929190612ab1565b602060405180830381600087803b158015611a9857600080fd5b505af1158015611aac573d6000803e3d6000fd5b505050506040513d601f19601f82011682018060405250810190611ad09190612578565b611b0f576040517f08c379a0000000000000000000000000000000000000000000000000000000008152600401611b0690612de0565b60405180910390fd5b6000851115611b8057600280811115611b2457fe5b60036000836000015173ffffffffffffffffffffffffffffffffffffffff1673ffffffffffffffffffffffffffffffffffffffff1681526020019081526020016000206000878152602001908152602001600020600501819055505b60019250505092915050565b600080600760009054906101000a900473ffffffffffffffffffffffffffffffffffffffff1673ffffffffffffffffffffffffffffffffffffffff166370a08231336040518263ffffffff1660e01b8152600401611bea9190612a6d565b60206040518083038186803b158015611c0257600080fd5b505afa158015611c16573d6000803e3d6000fd5b505050506040513d601f19601f82011682018060405250810190611c3a91906126a1565b1015611c7b576040517f08c379a0000000000000000000000000000000000000000000000000000000008152600401611c7290612d20565b60405180910390fd5b6000600760009054906101000a900473ffffffffffffffffffffffffffffffffffffffff1673ffffffffffffffffffffffffffffffffffffffff1663dd62ed3e33306040518363ffffffff1660e01b8152600401611cda929190612a88565b60206040518083038186803b158015611cf257600080fd5b505afa158015611d06573d6000803e3d6000fd5b505050506040513d601f19601f82011682018060405250810190611d2a91906126a1565b1015611d6b576040517f08c379a0000000000000000000000000000000000000000000000000000000008152600401611d6290612e40565b60405180910390fd5b600760009054906101000a900473ffffffffffffffffffffffffffffffffffffffff1673ffffffffffffffffffffffffffffffffffffffff166323b872dd33306005546040518463ffffffff1660e01b8152600401611dcc93929190612ab1565b602060405180830381600087803b158015611de657600080fd5b505af1158015611dfa573d6000803e3d6000fd5b505050506040513d601f19601f82011682018060405250810190611e1e9190612578565b611e5d576040517f08c379a0000000000000000000000000000000000000000000000000000000008152600401611e5490612d60565b60405180910390fd5b6000600260008773ffffffffffffffffffffffffffffffffffffffff1673ffffffffffffffffffffffffffffffffffffffff1681526020019081526020016000205490506040518061010001604052803373ffffffffffffffffffffffffffffffffffffffff1681526020018681526020018773ffffffffffffffffffffffffffffffffffffffff16815260200188815260200185815260200160006002811115611f0457fe5b815260200142815260200184815250600360008873ffffffffffffffffffffffffffffffffffffffff1673ffffffffffffffffffffffffffffffffffffffff168152602001908152602001600020600083815260200190815260200160002060008201518160000160006101000a81548173ffffffffffffffffffffffffffffffffffffffff021916908373ffffffffffffffffffffffffffffffffffffffff1602179055506020820151816001019080519060200190611fc6929190612227565b5060408201518160020160006101000a81548173ffffffffffffffffffffffffffffffffffffffff021916908373ffffffffffffffffffffffffffffffffffffffff160217905550606082015181600301908051906020019061202a929190612227565b506080820151816004019080519060200190612047929190612227565b5060a0820151816005015560c0820151816006015560e0820151816007019080519060200190612078929190612227565b50905050600260008773ffffffffffffffffffffffffffffffffffffffff1673ffffffffffffffffffffffffffffffffffffffff16815260200190815260200160002060008154809291906001019190505550846040516120d99190612a3b565b60405180910390203373ffffffffffffffffffffffffffffffffffffffff167f0a007e579f0793671747216eab1061026d102ff0f66e876d2edaa6277ad53e668684604051612129929190612cf0565b60405180910390a38091505095945050505050565b600760009054906101000a900473ffffffffffffffffffffffffffffffffffffffff1681565b600061217282600001612193565b9050919050565b600061218883600001836121a4565b60001c905092915050565b600081600001805490509050919050565b600081836000018054905011612205576040517f08c379a00000000000000000000000000000000000000000000000000000000081526004018080602001828103825260228152602001806130696022913960400191505060405180910390fd5b82600001828154811061221457fe5b9060005260206000200154905092915050565b828054600181600116156101000203166002900490600052602060002090601f01602090048101928261225d57600085556122a4565b82601f1061227657805160ff19168380011785556122a4565b828001600101855582156122a4579182015b828111156122a3578251825591602001919060010190612288565b5b5090506122b191906122b5565b5090565b5b808211156122ce5760008160009055506001016122b6565b5090565b60006122e56122e084612eac565b612e7b565b9050828152602081018484840111156122fd57600080fd5b612308848285612fb7565b509392505050565b60008135905061231f8161300c565b92915050565b60008135905061233481613023565b92915050565b6000813590506123498161303a565b92915050565b60008151905061235e8161303a565b92915050565b600082601f83011261237557600080fd5b81356123858482602086016122d2565b91505092915050565b60008135905061239d81613051565b92915050565b6000815190506123b281613051565b92915050565b6000602082840312156123ca57600080fd5b60006123d884828501612310565b91505092915050565b6000602082840312156123f357600080fd5b600061240184828501612325565b91505092915050565b6000806040838503121561241d57600080fd5b600061242b85828601612325565b925050602061243c85828601612310565b9150509250929050565b60008060006060848603121561245b57600080fd5b600061246986828701612310565b935050602061247a86828701612310565b925050604084013567ffffffffffffffff81111561249757600080fd5b6124a386828701612364565b9150509250925092565b600080600080600060a086880312156124c557600080fd5b60006124d388828901612310565b955050602086013567ffffffffffffffff8111156124f057600080fd5b6124fc88828901612364565b945050604061250d88828901612310565b935050606061251e8882890161233a565b925050608061252f8882890161238e565b9150509295509295909350565b6000806040838503121561254f57600080fd5b600061255d85828601612310565b925050602061256e8582860161238e565b9150509250929050565b60006020828403121561258a57600080fd5b60006125988482850161234f565b91505092915050565b600080600080600060a086880312156125b957600080fd5b600086013567ffffffffffffffff8111156125d357600080fd5b6125df88828901612364565b95505060206125f088828901612310565b945050604086013567ffffffffffffffff81111561260d57600080fd5b61261988828901612364565b935050606086013567ffffffffffffffff81111561263657600080fd5b61264288828901612364565b925050608086013567ffffffffffffffff81111561265f57600080fd5b61266b88828901612364565b9150509295509295909350565b60006020828403121561268a57600080fd5b60006126988482850161238e565b91505092915050565b6000602082840312156126b357600080fd5b60006126c1848285016123a3565b91505092915050565b600080604083850312156126dd57600080fd5b60006126eb8582860161238e565b92505060206126fc8582860161238e565b9150509250929050565b61270f81612f5d565b82525050565b61271e81612f03565b82525050565b61272d81612f27565b82525050565b61273c81612f6f565b82525050565b600061274d82612edc565b6127578185612ee7565b9350612767818560208601612fc6565b61277081612ffb565b840191505092915050565b600061278682612edc565b6127908185612ef8565b93506127a0818560208601612fc6565b80840191505092915050565b60006127b9601583612ee7565b91507f496e76616c696420746f6b656e2062616c616e636500000000000000000000006000830152602082019050919050565b60006127f9600f83612ee7565b91507f496e76616c6964206164647265737300000000000000000000000000000000006000830152602082019050919050565b6000612839601783612ee7565b91507f5472616e73666572206661696c656420666f72206665650000000000000000006000830152602082019050919050565b6000612879601b83612ee7565b91507f4d75737420686176652061207061796d656e74206164647265737300000000006000830152602082019050919050565b60006128b9600c83612ee7565b91507f494e56414c49445f5553455200000000000000000000000000000000000000006000830152602082019050919050565b60006128f9601b83612ee7565b91507f4d7573742068617665206120666163746f7279206164647265737300000000006000830152602082019050919050565b6000612939601e83612ee7565b91507f5472616e73666572206661696c656420666f72206261736520746f6b656e00006000830152602082019050919050565b6000612979601b83612ee7565b91507f4d757374206861766520736574206120736572766963652066656500000000006000830152602082019050919050565b60006129b9601d83612ee7565b91507f4d757374206861766520736574206120666565207374727563747572650000006000830152602082019050919050565b60006129f9601783612ee7565b91507f496e76616c696420746f6b656e20616c6c6f77616e63650000000000000000006000830152602082019050919050565b612a3581612f53565b82525050565b6000612a47828461277b565b915081905092915050565b6000602082019050612a676000830184612715565b92915050565b6000602082019050612a826000830184612706565b92915050565b6000604082019050612a9d6000830185612706565b612aaa6020830184612715565b9392505050565b6000606082019050612ac66000830186612706565b612ad36020830185612715565b612ae06040830184612a2c565b949350505050565b6000604082019050612afd6000830185612706565b612b0a6020830184612724565b9392505050565b6000604082019050612b266000830185612706565b612b336020830184612a2c565b9392505050565b6000604082019050612b4f6000830185612715565b8181036020830152612b618184612742565b90509392505050565b600061012082019050612b80600083018c612715565b8181036020830152612b92818b612742565b9050612ba1604083018a612715565b612bae6060830189612724565b612bbb6080830188612a2c565b612bc860a0830187612a2c565b612bd560c0830186612a2c565b612be260e0830185612715565b612bf0610100830184612724565b9a9950505050505050505050565b600061010082019050612c14600083018b612715565b8181036020830152612c26818a612742565b9050612c356040830189612715565b8181036060830152612c478188612742565b90508181036080830152612c5b8187612742565b9050612c6a60a0830186612a2c565b612c7760c0830185612a2c565b81810360e0830152612c898184612742565b90509998505050505050505050565b6000602082019050612cad6000830184612724565b92915050565b6000602082019050612cc86000830184612733565b92915050565b60006020820190508181036000830152612ce88184612742565b905092915050565b60006040820190508181036000830152612d0a8185612742565b9050612d196020830184612a2c565b9392505050565b60006020820190508181036000830152612d39816127ac565b9050919050565b60006020820190508181036000830152612d59816127ec565b9050919050565b60006020820190508181036000830152612d798161282c565b9050919050565b60006020820190508181036000830152612d998161286c565b9050919050565b60006020820190508181036000830152612db9816128ac565b9050919050565b60006020820190508181036000830152612dd9816128ec565b9050919050565b60006020820190508181036000830152612df98161292c565b9050919050565b60006020820190508181036000830152612e198161296c565b9050919050565b60006020820190508181036000830152612e39816129ac565b9050919050565b60006020820190508181036000830152612e59816129ec565b9050919050565b6000602082019050612e756000830184612a2c565b92915050565b6000604051905081810181811067ffffffffffffffff82111715612ea257612ea1612ff9565b5b8060405250919050565b600067ffffffffffffffff821115612ec757612ec6612ff9565b5b601f19601f8301169050602081019050919050565b600081519050919050565b600082825260208201905092915050565b600081905092915050565b6000612f0e82612f33565b9050919050565b6000612f2082612f33565b9050919050565b60008115159050919050565b600073ffffffffffffffffffffffffffffffffffffffff82169050919050565b6000819050919050565b6000612f6882612f93565b9050919050565b6000612f7a82612f81565b9050919050565b6000612f8c82612f33565b9050919050565b6000612f9e82612fa5565b9050919050565b6000612fb082612f33565b9050919050565b82818337600083830152505050565b60005b83811015612fe4578082015181840152602081019050612fc9565b83811115612ff3576000848401525b50505050565bfe5b6000601f19601f8301169050919050565b61301581612f03565b811461302057600080fd5b50565b61302c81612f15565b811461303757600080fd5b50565b61304381612f27565b811461304e57600080fd5b50565b61305a81612f53565b811461306557600080fd5b5056fe456e756d657261626c655365743a20696e646578206f7574206f6620626f756e6473a264697066735822122058e24d8a07cd65b6c60524272d4783f8ed99438bd546938a2cc19154b4fae40b64736f6c63430007060033",
  "immutableReferences": {},
  "source": "pragma solidity ^0.7.0;\npragma experimental ABIEncoderV2;\n\nimport \"./XDV.sol\";\nimport \"./MinterCore.sol\";\nimport \"@openzeppelin/contracts/utils/EnumerableSet.sol\";\nimport \"@openzeppelin/contracts/math/SafeMath.sol\";\nimport \"@openzeppelin/contracts/utils/Address.sol\";\nimport \"./ERC20Interface.sol\";\n\ncontract XDVController is MinterCore {\n    using EnumerableSet for EnumerableSet.AddressSet;\n    using SafeMath for uint256;\n    using Address for address payable;\n\n    event Withdrawn(address indexed payee, uint256 weiAmount);\n    address public owner;\n    uint256 fee;\n    XDV private platformToken;\n    ERC20Interface public token;\n\n    // minters\n    EnumerableSet.AddressSet internal minters;\n\n    constructor(address stablecoin, address xdv)  {\n        token = ERC20Interface(stablecoin);\n        platformToken = XDV(xdv);\n        owner = msg.sender;\n    }\n\n    function setProtocolFee(uint256 _fee) public {\n        require(msg.sender == owner, \"INVALID_USER\");\n        fee = _fee;\n    }\n\n    function getProtocolFee() public returns (uint256) {\n        return fee;\n    }\n\n    function withdraw(address payable payee) public {\n        require(msg.sender == owner, \"INVALID_USER\");\n        uint256 b = address(this).balance;\n\n\n        emit Withdrawn(payee, b);\n    }\n\n    function withdrawToken(address payable payee, address erc20token) public {\n        require(msg.sender == owner, \"INVALID_USER\");\n        uint256 balance = ERC20Interface(erc20token).balanceOf(address(this));\n\n        // Transfer tokens to pay service fee\n        require(\n            ERC20Interface(erc20token).transfer(\n                payee, \n                balance),\n            \"Transfer failed for base token\"\n        );\n\n        emit Withdrawn(payee, balance);\n    }\n\n    /**\n    * User requests anchored document to be process \n     */\n   function requestDataProviderService(\n        string memory minterDid,\n        address minterAddress,\n        string memory userDid,\n        string memory documentURI,\n        string memory description\n    ) public payable returns(uint){\n\n        // User must have a balance\n        require(\n            token.balanceOf(msg.sender) >= 0,\n            \"Invalid token balance\"\n        );\n        // User must have an allowance\n        require(\n            token.allowance(msg.sender, address(this)) >= 0,\n            \"Invalid token allowance\"\n        );\n\n\n        require(\n            token.transferFrom(\n                msg.sender,\n                address(this), \n                fee),\n            \"Transfer failed for fee\"\n        );\n\n        // accounting[msg.sender] = accounting[msg.sender] + fee;\n        // accounting[address(this)] = accounting[address(this)] + fee;\n\n        uint i = minterDocumentRequestCounter[minterAddress];\n            \n        // Assign request to minter\n        // We should move to use XDV Worker Protocol\n        minterDocumentRequests[minterAddress][i] = DocumentMintingRequest({\n            user: msg.sender, \n            userDid: userDid,\n            documentURI: documentURI,\n            status: uint(DocumentMintingRequestStatus.REQUEST),\n            description: description,\n            toMinterDid: minterDid,\n            toMinter: minterAddress,\n            timestamp: block.timestamp\n        });\n        minterDocumentRequestCounter[minterAddress]++;\n\n        emit DocumentAnchored(msg.sender, userDid, documentURI, i);\n        return i;\n    }\n\n\n    /**\n    *  @dev Mints a platform token.\n     */\n   function mint(\n       address user, \n       address tokenizationConfig,\n       string memory tokenURI\n    )\n        public\n        returns (uint256)\n    {\n        require(user != address(0), \"Invalid address\");\n\n       // updates a request\n        uint requestId = minterCounter[tokenizationConfig];\n        minterDocumentRequests[tokenizationConfig][requestId]\n        .status = uint(DocumentMintingRequestStatus.MINTED);\n        \n        minterCounter[tokenizationConfig] = minterCounter[tokenizationConfig] + 1;\n        return platformToken.mint(user, tokenURI);\n    }   \n\n    /**\n    *  @dev Burns a platform token.\n     */\n    function burn(uint requestId, uint tokenId)\n        public\n        payable\n        returns (bool)\n    {\n\n        // User must have a balance\n        require(\n            token.balanceOf(msg.sender) >= 0,\n            \"Invalid token balance\"\n        );\n        // User must have an allowance\n        require(\n            token.allowance(msg.sender, address(this)) >= 0,\n            \"Invalid token allowance\"\n        );\n\n        /* require(\n            token.balanceOf(msg.sender) == (mintingServiceFee.sum(protocolServiceFee)), \n            \"MUST SEND FEE BEFORE USE\");\n        */\n\n        uint index = minterCounter[address(this)];\n        DataProviderMinter memory dataProvider = dataProviderMinters[index];\n\n        require(\n            dataProvider.feeStructure > 0,\n            \"Must have set a fee structure\"\n        );\n        require(\n            dataProvider.paymentAddress != address(0),\n            \"Must have a payment address\"\n        );\n        require(\n            dataProvider.factoryAddress != address(0),\n            \"Must have a factory address\"\n        );\n        require(\n            dataProvider.serviceFee > 0,\n            \"Must have set a service fee\"\n        );\n        platformToken.burn(tokenId);\n\n        // TODO: Update accounting\n        //  - create mappings to data provider accounting\n        //  - create mappings to protocol fee accounting\n        // Transfer tokens to NFT owner\n        require(\n            token.transferFrom(\n                msg.sender, \n                dataProvider.paymentAddress, \n                dataProvider.feeStructure),\n            \"Transfer failed for base token\"\n        );\n\n        // Transfer tokens to pay service fee\n        require(\n            token.transferFrom(\n                msg.sender, \n                dataProvider.factoryAddress, \n                dataProvider.serviceFee),\n            \"Transfer failed for base token\"\n        );\n\n        // TODO desplegar el fee de burn\n        if (requestId > 0) {\n            minterDocumentRequests[dataProvider.minterAddress][requestId]\n            .status = uint(DocumentMintingRequestStatus.BURNED);\n        }\n        \n\n        return true;\n    }       \n\n    /**\n    * @dev Registers a data tokenization service\n    *\n     */\n    function registerMinter(\n        address minter,\n        string memory name, \n        address paymentAddress,\n        bool userHasKyc,\n        uint feeStructure)\n        public\n        returns (uint)\n    {\n \n      minterCounter[minter]++;\n        uint i = minterCounter[minter];\n            \n        dataProviderMinters[i] = DataProviderMinter({\n            minterAddress: minter, \n            name: name,\n            paymentAddress: paymentAddress,\n            hasUserKyc: userHasKyc,\n            feeStructure: feeStructure,\n            created: block.timestamp,\n            serviceFee: fee,\n            factoryAddress: address(this),\n            enabled: true\n        });\n\n        // whitelist\n        platformToken.setWhitelistedMinter(msg.sender, false);\n\n        emit MinterRegistered(minter, i, name);\n        return i;\n    }\n\n    function count() public view returns (uint256) {\n        return minters.length();\n    }\n\n    function get(uint256 index) public view returns (address) {\n        return minters.at(index);\n    }\n}\n",
  "sourcePath": "/home/rogelio/Code/xdv/nft-document-swap/contracts/XDVController.sol",
  "compiler": {
    "name": "solc",
    "version": "0.7.6+commit.7338295f.Emscripten.clang"
  },
  "schemaVersion": "3.3.3",
  "updatedAt": "2021-02-20T01:00:24.865Z",
  "networkType": "ethereum",
  "devdoc": {
    "kind": "dev",
    "methods": {
      "burn(uint256,uint256)": {
        "details": "Burns a platform token."
      },
      "mint(address,address,string)": {
        "details": "Mints a platform token."
      },
      "registerMinter(address,string,address,bool,uint256)": {
        "details": "Registers a data tokenization service"
      }
    },
    "version": 1
  },
  "userdoc": {
    "kind": "user",
    "methods": {
      "requestDataProviderService(string,address,string,string,string)": {
        "notice": "User requests anchored document to be process "
      }
    },
    "version": 1
  }
}