{
  "contractName": "XDVController",
  "abi": [
    {
      "inputs": [
        {
          "internalType": "address",
          "name": "stablecoin",
          "type": "address"
        },
        {
          "internalType": "address",
          "name": "xdv",
          "type": "address"
        }
      ],
      "stateMutability": "nonpayable",
      "type": "constructor"
    },
    {
      "anonymous": false,
      "inputs": [
        {
          "indexed": true,
          "internalType": "address",
          "name": "user",
          "type": "address"
        },
        {
          "indexed": true,
          "internalType": "string",
          "name": "userDid",
          "type": "string"
        },
        {
          "indexed": false,
          "internalType": "string",
          "name": "documentURI",
          "type": "string"
        },
        {
          "indexed": false,
          "internalType": "uint256",
          "name": "id",
          "type": "uint256"
        }
      ],
      "name": "DocumentAnchored",
      "type": "event"
    },
    {
      "anonymous": false,
      "inputs": [
        {
          "indexed": true,
          "internalType": "address",
          "name": "minter",
          "type": "address"
        },
        {
          "indexed": false,
          "internalType": "string",
          "name": "name",
          "type": "string"
        }
      ],
      "name": "MinterRegistered",
      "type": "event"
    },
    {
      "anonymous": false,
      "inputs": [
        {
          "indexed": true,
          "internalType": "address",
          "name": "previousOwner",
          "type": "address"
        },
        {
          "indexed": true,
          "internalType": "address",
          "name": "newOwner",
          "type": "address"
        }
      ],
      "name": "OwnershipTransferred",
      "type": "event"
    },
    {
      "inputs": [
        {
          "internalType": "address",
          "name": "",
          "type": "address"
        }
      ],
      "name": "dataProviderAccounting",
      "outputs": [
        {
          "internalType": "uint256",
          "name": "",
          "type": "uint256"
        }
      ],
      "stateMutability": "view",
      "type": "function"
    },
    {
      "inputs": [
        {
          "internalType": "address",
          "name": "",
          "type": "address"
        }
      ],
      "name": "minterCounter",
      "outputs": [
        {
          "internalType": "uint256",
          "name": "",
          "type": "uint256"
        }
      ],
      "stateMutability": "view",
      "type": "function"
    },
    {
      "inputs": [
        {
          "internalType": "address",
          "name": "",
          "type": "address"
        }
      ],
      "name": "minterDocumentRequestCounter",
      "outputs": [
        {
          "internalType": "uint256",
          "name": "",
          "type": "uint256"
        }
      ],
      "stateMutability": "view",
      "type": "function"
    },
    {
      "inputs": [
        {
          "internalType": "address",
          "name": "",
          "type": "address"
        },
        {
          "internalType": "uint256",
          "name": "",
          "type": "uint256"
        }
      ],
      "name": "minterDocumentRequests",
      "outputs": [
        {
          "internalType": "address",
          "name": "user",
          "type": "address"
        },
        {
          "internalType": "string",
          "name": "userDid",
          "type": "string"
        },
        {
          "internalType": "address",
          "name": "toMinter",
          "type": "address"
        },
        {
          "internalType": "string",
          "name": "toMinterDid",
          "type": "string"
        },
        {
          "internalType": "string",
          "name": "documentURI",
          "type": "string"
        },
        {
          "internalType": "uint256",
          "name": "status",
          "type": "uint256"
        },
        {
          "internalType": "uint256",
          "name": "timestamp",
          "type": "uint256"
        },
        {
          "internalType": "string",
          "name": "description",
          "type": "string"
        }
      ],
      "stateMutability": "view",
      "type": "function"
    },
    {
      "inputs": [],
      "name": "owner",
      "outputs": [
        {
          "internalType": "address",
          "name": "",
          "type": "address"
        }
      ],
      "stateMutability": "view",
      "type": "function"
    },
    {
      "inputs": [],
      "name": "renounceOwnership",
      "outputs": [],
      "stateMutability": "nonpayable",
      "type": "function"
    },
    {
      "inputs": [],
      "name": "token",
      "outputs": [
        {
          "internalType": "contract IERC20",
          "name": "",
          "type": "address"
        }
      ],
      "stateMutability": "view",
      "type": "function"
    },
    {
      "inputs": [
        {
          "internalType": "address",
          "name": "newOwner",
          "type": "address"
        }
      ],
      "name": "transferOwnership",
      "outputs": [],
      "stateMutability": "nonpayable",
      "type": "function"
    },
    {
      "inputs": [
        {
          "internalType": "bytes32",
          "name": "hash",
          "type": "bytes32"
        },
        {
          "internalType": "bytes",
          "name": "signature",
          "type": "bytes"
        }
      ],
      "name": "isValidSignature",
      "outputs": [
        {
          "internalType": "bytes4",
          "name": "magicValue",
          "type": "bytes4"
        }
      ],
      "stateMutability": "view",
      "type": "function"
    },
    {
      "inputs": [
        {
          "internalType": "string",
          "name": "minterDid",
          "type": "string"
        },
        {
          "internalType": "address",
          "name": "minterAddress",
          "type": "address"
        },
        {
          "internalType": "string",
          "name": "userDid",
          "type": "string"
        },
        {
          "internalType": "string",
          "name": "documentURI",
          "type": "string"
        },
        {
          "internalType": "string",
          "name": "description",
          "type": "string"
        }
      ],
      "name": "requestDataProviderService",
      "outputs": [
        {
          "internalType": "uint256",
          "name": "",
          "type": "uint256"
        }
      ],
      "stateMutability": "nonpayable",
      "type": "function"
    },
    {
      "inputs": [
        {
          "internalType": "uint256",
          "name": "requestId",
          "type": "uint256"
        },
        {
          "internalType": "address",
          "name": "user",
          "type": "address"
        },
        {
          "internalType": "address",
          "name": "dataProvider",
          "type": "address"
        },
        {
          "internalType": "string",
          "name": "tokenURI",
          "type": "string"
        }
      ],
      "name": "mint",
      "outputs": [
        {
          "internalType": "uint256",
          "name": "",
          "type": "uint256"
        }
      ],
      "stateMutability": "nonpayable",
      "type": "function"
    },
    {
      "inputs": [
        {
          "internalType": "string",
          "name": "name",
          "type": "string"
        },
        {
          "internalType": "address",
          "name": "paymentAddress",
          "type": "address"
        },
        {
          "internalType": "bool",
          "name": "userHasKyc",
          "type": "bool"
        },
        {
          "internalType": "uint256",
          "name": "feeStructure",
          "type": "uint256"
        }
      ],
      "name": "registerMinter",
      "outputs": [
        {
          "internalType": "uint256",
          "name": "",
          "type": "uint256"
        }
      ],
      "stateMutability": "nonpayable",
      "type": "function"
    }
  ],
  "bytecode": "0x60806040523480156200001157600080fd5b506040516200255d3803806200255d833981810160405281019062000037919062000191565b6000620000496200017260201b60201c565b905080600360006101000a81548173ffffffffffffffffffffffffffffffffffffffff021916908373ffffffffffffffffffffffffffffffffffffffff1602179055508073ffffffffffffffffffffffffffffffffffffffff16600073ffffffffffffffffffffffffffffffffffffffff167f8be0079c531659141344cd1fd0a4f28419497f9722a3daafe3b4186f6b6457e060405160405180910390a35081600560006101000a81548173ffffffffffffffffffffffffffffffffffffffff021916908373ffffffffffffffffffffffffffffffffffffffff16021790555080600460006101000a81548173ffffffffffffffffffffffffffffffffffffffff021916908373ffffffffffffffffffffffffffffffffffffffff160217905550505062000220565b600033905090565b6000815190506200018b8162000206565b92915050565b60008060408385031215620001a557600080fd5b6000620001b5858286016200017a565b9250506020620001c8858286016200017a565b9150509250929050565b6000620001df82620001e6565b9050919050565b600073ffffffffffffffffffffffffffffffffffffffff82169050919050565b6200021181620001d2565b81146200021d57600080fd5b50565b61232d80620002306000396000f3fe608060405234801561001057600080fd5b50600436106100b45760003560e01c8063761901bb11610071578063761901bb146101ba5780638da5cb5b146101ea5780639acd083e14610208578063f2fde38b14610238578063f83d360d14610254578063fc0c546a14610284576100b4565b80631626ba7e146100b95780632aa222c8146100e95780635cec86161461011957806366563b4f146101495780636efaa69914610179578063715018a6146101b0575b600080fd5b6100d360048036038101906100ce9190611698565b6102a2565b6040516100e09190611bff565b60405180910390f35b61010360048036038101906100fe9190611633565b610307565b6040516101109190611d87565b60405180910390f35b610133600480360381019061012e9190611633565b61031f565b6040516101409190611d87565b60405180910390f35b610163600480360381019061015e91906116ec565b610337565b6040516101709190611d87565b60405180910390f35b610193600480360381019061018e919061165c565b6105c9565b6040516101a7989796959493929190611b20565b60405180910390f35b6101b861087e565b005b6101d460048036038101906101cf9190611633565b6109bb565b6040516101e19190611d87565b60405180910390f35b6101f26109d3565b6040516101ff9190611ad5565b60405180910390f35b610222600480360381019061021d9190611867565b6109fd565b60405161022f9190611d87565b60405180910390f35b610252600480360381019061024d9190611633565b610d13565b005b61026e60048036038101906102699190611767565b610ebf565b60405161027b9190611d87565b60405180910390f35b61028c6111d4565b6040516102999190611c1a565b60405180910390f35b6000806102af84846111fa565b90506102b96109d3565b73ffffffffffffffffffffffffffffffffffffffff168173ffffffffffffffffffffffffffffffffffffffff16146102f557600060e01b6102fe565b631626ba7e60e01b5b91505092915050565b60016020528060005260406000206000915090505481565b60076020528060005260406000206000915090505481565b60008060003373ffffffffffffffffffffffffffffffffffffffff1673ffffffffffffffffffffffffffffffffffffffff168152602001908152602001600020600081548092919061038890611ffa565b91905055506040518060e001604052808681526020018573ffffffffffffffffffffffffffffffffffffffff16815260200184151581526020018381526020014281526020013073ffffffffffffffffffffffffffffffffffffffff16815260200160011515815250600660003373ffffffffffffffffffffffffffffffffffffffff1673ffffffffffffffffffffffffffffffffffffffff168152602001908152602001600020600082015181600001908051906020019061044c929190611457565b5060208201518160010160006101000a81548173ffffffffffffffffffffffffffffffffffffffff021916908373ffffffffffffffffffffffffffffffffffffffff16021790555060408201518160010160146101000a81548160ff021916908315150217905550606082015181600201556080820151816003015560a08201518160040160006101000a81548173ffffffffffffffffffffffffffffffffffffffff021916908373ffffffffffffffffffffffffffffffffffffffff16021790555060c08201518160040160146101000a81548160ff0219169083151502179055509050503373ffffffffffffffffffffffffffffffffffffffff167fdd49a7e572b5c7638971bc6a10724835256bbb03ca4187ce5fa77a2bf3716a76866040516105789190611c35565b60405180910390a26000803373ffffffffffffffffffffffffffffffffffffffff1673ffffffffffffffffffffffffffffffffffffffff168152602001908152602001600020549050949350505050565b6002602052816000526040600020602052806000526040600020600091509150508060000160009054906101000a900473ffffffffffffffffffffffffffffffffffffffff169080600101805461061f90611f97565b80601f016020809104026020016040519081016040528092919081815260200182805461064b90611f97565b80156106985780601f1061066d57610100808354040283529160200191610698565b820191906000526020600020905b81548152906001019060200180831161067b57829003601f168201915b5050505050908060020160009054906101000a900473ffffffffffffffffffffffffffffffffffffffff16908060030180546106d390611f97565b80601f01602080910402602001604051908101604052809291908181526020018280546106ff90611f97565b801561074c5780601f106107215761010080835404028352916020019161074c565b820191906000526020600020905b81548152906001019060200180831161072f57829003601f168201915b50505050509080600401805461076190611f97565b80601f016020809104026020016040519081016040528092919081815260200182805461078d90611f97565b80156107da5780601f106107af576101008083540402835291602001916107da565b820191906000526020600020905b8154815290600101906020018083116107bd57829003601f168201915b5050505050908060050154908060060154908060070180546107fb90611f97565b80601f016020809104026020016040519081016040528092919081815260200182805461082790611f97565b80156108745780601f1061084957610100808354040283529160200191610874565b820191906000526020600020905b81548152906001019060200180831161085757829003601f168201915b5050505050905088565b6108866112c4565b73ffffffffffffffffffffffffffffffffffffffff166108a46109d3565b73ffffffffffffffffffffffffffffffffffffffff16146108fa576040517f08c379a00000000000000000000000000000000000000000000000000000000081526004016108f190611d47565b60405180910390fd5b600073ffffffffffffffffffffffffffffffffffffffff16600360009054906101000a900473ffffffffffffffffffffffffffffffffffffffff1673ffffffffffffffffffffffffffffffffffffffff167f8be0079c531659141344cd1fd0a4f28419497f9722a3daafe3b4186f6b6457e060405160405180910390a36000600360006101000a81548173ffffffffffffffffffffffffffffffffffffffff021916908373ffffffffffffffffffffffffffffffffffffffff160217905550565b60006020528060005260406000206000915090505481565b6000600360009054906101000a900473ffffffffffffffffffffffffffffffffffffffff16905090565b6000806002811115610a38577f4e487b7100000000000000000000000000000000000000000000000000000000600052602160045260246000fd5b600260008573ffffffffffffffffffffffffffffffffffffffff1673ffffffffffffffffffffffffffffffffffffffff16815260200190815260200160002060008781526020019081526020016000206005015414610acc576040517f08c379a0000000000000000000000000000000000000000000000000000000008152600401610ac390611d67565b60405180910390fd5b600073ffffffffffffffffffffffffffffffffffffffff168473ffffffffffffffffffffffffffffffffffffffff161415610b3c576040517f08c379a0000000000000000000000000000000000000000000000000000000008152600401610b3390611ca7565b60405180910390fd5b60016002811115610b76577f4e487b7100000000000000000000000000000000000000000000000000000000600052602160045260246000fd5b600260008573ffffffffffffffffffffffffffffffffffffffff1673ffffffffffffffffffffffffffffffffffffffff16815260200190815260200160002060008781526020019081526020016000206005018190555060016000808573ffffffffffffffffffffffffffffffffffffffff1673ffffffffffffffffffffffffffffffffffffffff16815260200190815260200160002054610c189190611e50565b6000808573ffffffffffffffffffffffffffffffffffffffff1673ffffffffffffffffffffffffffffffffffffffff16815260200190815260200160002081905550600460009054906101000a900473ffffffffffffffffffffffffffffffffffffffff1673ffffffffffffffffffffffffffffffffffffffff1663d0def52185846040518363ffffffff1660e01b8152600401610cb7929190611af0565b602060405180830381600087803b158015610cd157600080fd5b505af1158015610ce5573d6000803e3d6000fd5b505050506040513d601f19601f82011682018060405250810190610d09919061183e565b9050949350505050565b610d1b6112c4565b73ffffffffffffffffffffffffffffffffffffffff16610d396109d3565b73ffffffffffffffffffffffffffffffffffffffff1614610d8f576040517f08c379a0000000000000000000000000000000000000000000000000000000008152600401610d8690611d47565b60405180910390fd5b600073ffffffffffffffffffffffffffffffffffffffff168173ffffffffffffffffffffffffffffffffffffffff161415610dff576040517f08c379a0000000000000000000000000000000000000000000000000000000008152600401610df690611ce7565b60405180910390fd5b8073ffffffffffffffffffffffffffffffffffffffff16600360009054906101000a900473ffffffffffffffffffffffffffffffffffffffff1673ffffffffffffffffffffffffffffffffffffffff167f8be0079c531659141344cd1fd0a4f28419497f9722a3daafe3b4186f6b6457e060405160405180910390a380600360006101000a81548173ffffffffffffffffffffffffffffffffffffffff021916908373ffffffffffffffffffffffffffffffffffffffff16021790555050565b600080600160008773ffffffffffffffffffffffffffffffffffffffff1673ffffffffffffffffffffffffffffffffffffffff1681526020019081526020016000205490506040518061010001604052803373ffffffffffffffffffffffffffffffffffffffff1681526020018681526020018773ffffffffffffffffffffffffffffffffffffffff16815260200188815260200185815260200160006002811115610f94577f4e487b7100000000000000000000000000000000000000000000000000000000600052602160045260246000fd5b815260200142815260200184815250600260008873ffffffffffffffffffffffffffffffffffffffff1673ffffffffffffffffffffffffffffffffffffffff168152602001908152602001600020600083815260200190815260200160002060008201518160000160006101000a81548173ffffffffffffffffffffffffffffffffffffffff021916908373ffffffffffffffffffffffffffffffffffffffff1602179055506020820151816001019080519060200190611056929190611457565b5060408201518160020160006101000a81548173ffffffffffffffffffffffffffffffffffffffff021916908373ffffffffffffffffffffffffffffffffffffffff16021790555060608201518160030190805190602001906110ba929190611457565b5060808201518160040190805190602001906110d7929190611457565b5060a0820151816005015560c0820151816006015560e0820151816007019080519060200190611108929190611457565b50905050600160008773ffffffffffffffffffffffffffffffffffffffff1673ffffffffffffffffffffffffffffffffffffffff168152602001908152602001600020600081548092919061115c90611ffa565b91905055508460405161116f9190611abe565b60405180910390203373ffffffffffffffffffffffffffffffffffffffff167f0a007e579f0793671747216eab1061026d102ff0f66e876d2edaa6277ad53e6686846040516111bf929190611c57565b60405180910390a38091505095945050505050565b600560009054906101000a900473ffffffffffffffffffffffffffffffffffffffff1681565b600080600080604185511415611227576020850151925060408501519150606085015160001a90506112ad565b604085511415611271576040850151602086015193507f7fffffffffffffffffffffffffffffffffffffffffffffffffffffffffffffff81169250601b8160ff1c019150506112ac565b6040517f08c379a00000000000000000000000000000000000000000000000000000000081526004016112a390611cc7565b60405180910390fd5b5b6112b9868285856112cc565b935050505092915050565b600033905090565b60007f7fffffffffffffffffffffffffffffff5d576e7357a4501ddfe92f46681b20a08260001c1115611334576040517f08c379a000000000000000000000000000000000000000000000000000000000815260040161132b90611d07565b60405180910390fd5b601b8460ff1614806113495750601c8460ff16145b611388576040517f08c379a000000000000000000000000000000000000000000000000000000000815260040161137f90611d27565b60405180910390fd5b6000600186868686604051600081526020016040526040516113ad9493929190611bba565b6020604051602081039080840390855afa1580156113cf573d6000803e3d6000fd5b505050602060405103519050600073ffffffffffffffffffffffffffffffffffffffff168173ffffffffffffffffffffffffffffffffffffffff16141561144b576040517f08c379a000000000000000000000000000000000000000000000000000000000815260040161144290611c87565b60405180910390fd5b80915050949350505050565b82805461146390611f97565b90600052602060002090601f01602090048101928261148557600085556114cc565b82601f1061149e57805160ff19168380011785556114cc565b828001600101855582156114cc579182015b828111156114cb5782518255916020019190600101906114b0565b5b5090506114d991906114dd565b5090565b5b808211156114f65760008160009055506001016114de565b5090565b600061150d61150884611dc7565b611da2565b90508281526020810184848401111561152557600080fd5b611530848285611f55565b509392505050565b600061154b61154684611df8565b611da2565b90508281526020810184848401111561156357600080fd5b61156e848285611f55565b509392505050565b6000813590506115858161229b565b92915050565b60008135905061159a816122b2565b92915050565b6000813590506115af816122c9565b92915050565b600082601f8301126115c657600080fd5b81356115d68482602086016114fa565b91505092915050565b600082601f8301126115f057600080fd5b8135611600848260208601611538565b91505092915050565b600081359050611618816122e0565b92915050565b60008151905061162d816122e0565b92915050565b60006020828403121561164557600080fd5b600061165384828501611576565b91505092915050565b6000806040838503121561166f57600080fd5b600061167d85828601611576565b925050602061168e85828601611609565b9150509250929050565b600080604083850312156116ab57600080fd5b60006116b9858286016115a0565b925050602083013567ffffffffffffffff8111156116d657600080fd5b6116e2858286016115b5565b9150509250929050565b6000806000806080858703121561170257600080fd5b600085013567ffffffffffffffff81111561171c57600080fd5b611728878288016115df565b945050602061173987828801611576565b935050604061174a8782880161158b565b925050606061175b87828801611609565b91505092959194509250565b600080600080600060a0868803121561177f57600080fd5b600086013567ffffffffffffffff81111561179957600080fd5b6117a5888289016115df565b95505060206117b688828901611576565b945050604086013567ffffffffffffffff8111156117d357600080fd5b6117df888289016115df565b935050606086013567ffffffffffffffff8111156117fc57600080fd5b611808888289016115df565b925050608086013567ffffffffffffffff81111561182557600080fd5b611831888289016115df565b9150509295509295909350565b60006020828403121561185057600080fd5b600061185e8482850161161e565b91505092915050565b6000806000806080858703121561187d57600080fd5b600061188b87828801611609565b945050602061189c87828801611576565b93505060406118ad87828801611576565b925050606085013567ffffffffffffffff8111156118ca57600080fd5b6118d6878288016115df565b91505092959194509250565b6118eb81611ea6565b82525050565b6118fa81611ec4565b82525050565b61190981611ece565b82525050565b61191881611f31565b82525050565b600061192982611e29565b6119338185611e34565b9350611943818560208601611f64565b61194c816120d0565b840191505092915050565b600061196282611e29565b61196c8185611e45565b935061197c818560208601611f64565b80840191505092915050565b6000611995601883611e34565b91506119a0826120e1565b602082019050919050565b60006119b8600f83611e34565b91506119c38261210a565b602082019050919050565b60006119db601f83611e34565b91506119e682612133565b602082019050919050565b60006119fe602683611e34565b9150611a098261215c565b604082019050919050565b6000611a21602283611e34565b9150611a2c826121ab565b604082019050919050565b6000611a44602283611e34565b9150611a4f826121fa565b604082019050919050565b6000611a67602083611e34565b9150611a7282612249565b602082019050919050565b6000611a8a601c83611e34565b9150611a9582612272565b602082019050919050565b611aa981611f1a565b82525050565b611ab881611f24565b82525050565b6000611aca8284611957565b915081905092915050565b6000602082019050611aea60008301846118e2565b92915050565b6000604082019050611b0560008301856118e2565b8181036020830152611b17818461191e565b90509392505050565b600061010082019050611b36600083018b6118e2565b8181036020830152611b48818a61191e565b9050611b5760408301896118e2565b8181036060830152611b69818861191e565b90508181036080830152611b7d818761191e565b9050611b8c60a0830186611aa0565b611b9960c0830185611aa0565b81810360e0830152611bab818461191e565b90509998505050505050505050565b6000608082019050611bcf60008301876118f1565b611bdc6020830186611aaf565b611be960408301856118f1565b611bf660608301846118f1565b95945050505050565b6000602082019050611c146000830184611900565b92915050565b6000602082019050611c2f600083018461190f565b92915050565b60006020820190508181036000830152611c4f818461191e565b905092915050565b60006040820190508181036000830152611c71818561191e565b9050611c806020830184611aa0565b9392505050565b60006020820190508181036000830152611ca081611988565b9050919050565b60006020820190508181036000830152611cc0816119ab565b9050919050565b60006020820190508181036000830152611ce0816119ce565b9050919050565b60006020820190508181036000830152611d00816119f1565b9050919050565b60006020820190508181036000830152611d2081611a14565b9050919050565b60006020820190508181036000830152611d4081611a37565b9050919050565b60006020820190508181036000830152611d6081611a5a565b9050919050565b60006020820190508181036000830152611d8081611a7d565b9050919050565b6000602082019050611d9c6000830184611aa0565b92915050565b6000611dac611dbd565b9050611db88282611fc9565b919050565b6000604051905090565b600067ffffffffffffffff821115611de257611de16120a1565b5b611deb826120d0565b9050602081019050919050565b600067ffffffffffffffff821115611e1357611e126120a1565b5b611e1c826120d0565b9050602081019050919050565b600081519050919050565b600082825260208201905092915050565b600081905092915050565b6000611e5b82611f1a565b9150611e6683611f1a565b9250827fffffffffffffffffffffffffffffffffffffffffffffffffffffffffffffffff03821115611e9b57611e9a612043565b5b828201905092915050565b6000611eb182611efa565b9050919050565b60008115159050919050565b6000819050919050565b60007fffffffff0000000000000000000000000000000000000000000000000000000082169050919050565b600073ffffffffffffffffffffffffffffffffffffffff82169050919050565b6000819050919050565b600060ff82169050919050565b6000611f3c82611f43565b9050919050565b6000611f4e82611efa565b9050919050565b82818337600083830152505050565b60005b83811015611f82578082015181840152602081019050611f67565b83811115611f91576000848401525b50505050565b60006002820490506001821680611faf57607f821691505b60208210811415611fc357611fc2612072565b5b50919050565b611fd2826120d0565b810181811067ffffffffffffffff82111715611ff157611ff06120a1565b5b80604052505050565b600061200582611f1a565b91507fffffffffffffffffffffffffffffffffffffffffffffffffffffffffffffffff82141561203857612037612043565b5b600182019050919050565b7f4e487b7100000000000000000000000000000000000000000000000000000000600052601160045260246000fd5b7f4e487b7100000000000000000000000000000000000000000000000000000000600052602260045260246000fd5b7f4e487b7100000000000000000000000000000000000000000000000000000000600052604160045260246000fd5b6000601f19601f8301169050919050565b7f45434453413a20696e76616c6964207369676e61747572650000000000000000600082015250565b7f496e76616c696420616464726573730000000000000000000000000000000000600082015250565b7f45434453413a20696e76616c6964207369676e6174757265206c656e67746800600082015250565b7f4f776e61626c653a206e6577206f776e657220697320746865207a65726f206160008201527f6464726573730000000000000000000000000000000000000000000000000000602082015250565b7f45434453413a20696e76616c6964207369676e6174757265202773272076616c60008201527f7565000000000000000000000000000000000000000000000000000000000000602082015250565b7f45434453413a20696e76616c6964207369676e6174757265202776272076616c60008201527f7565000000000000000000000000000000000000000000000000000000000000602082015250565b7f4f776e61626c653a2063616c6c6572206973206e6f7420746865206f776e6572600082015250565b7f446f63756d656e74207769746820696e76616c69642073746174757300000000600082015250565b6122a481611ea6565b81146122af57600080fd5b50565b6122bb81611eb8565b81146122c657600080fd5b50565b6122d281611ec4565b81146122dd57600080fd5b50565b6122e981611f1a565b81146122f457600080fd5b5056fea2646970667358221220b847956fd0f911f3e0370b8a842f88195942a530e021d20c41ca1134036530b464736f6c63430008040033",
  "immutableReferences": {},
  "source": "// SPDX-License-Identifier: MIT\npragma solidity ^0.8.0;\n\npragma experimental ABIEncoderV2;\n\nimport \"./XDV.sol\";\nimport \"./MinterCore.sol\";\nimport \"./IERC1271.sol\";\nimport \"@openzeppelin/contracts/access/Ownable.sol\";\nimport \"@openzeppelin/contracts/utils/Address.sol\";\nimport \"@openzeppelin/contracts/utils/cryptography/ECDSA.sol\";\nimport \"@openzeppelin/contracts/utils/structs/EnumerableSet.sol\";\nimport \"@openzeppelin/contracts/token/ERC20/IERC20.sol\";\n\ncontract XDVController is MinterCore, IERC1271, Ownable {\n    using EnumerableSet for EnumerableSet.AddressSet;\n    using Address for address payable;\n    XDV private platformToken;\n    IERC20 public token;\n\n    // minters\n    mapping(address => DataProviderMinter) internal minters;\n    mapping(address => uint256) public dataProviderAccounting;\n\n    constructor(address stablecoin, address xdv) {\n        token = IERC20(stablecoin);\n        platformToken = XDV(xdv);\n    }\n\n    /**\n     * @dev ERC-1271 Compatibility. This checks that the message signature was sent by the\n     * contract's owner.\n     * @return magicValue either 0x00000000 for false or 0x1626ba7e for true\n     * 0x1626ba7e == bytes4(keccak256(\"isValidSignature(bytes32,bytes)\")\n     */\n    function isValidSignature(bytes32 hash, bytes memory signature)\n        external\n        view\n        override\n        returns (bytes4 magicValue)\n    {\n        // Inspiration 1: https://github.com/OpenZeppelin/openzeppelin-contracts/blob/master/contracts/mocks/ERC1271WalletMock.sol\n        // Inspiration 2: https://github.com/OpenZeppelin/openzeppelin-contracts/pull/2424/files#diff-ff994ffdd277f7cdf0abeb3093d8d5eb7b072a80ebd89f3578cc38ecd1cb6cf2R24\n        address signer = ECDSA.recover(hash, signature);\n        return signer == owner() ? this.isValidSignature.selector : bytes4(0);\n    }\n\n    /**\n     * User requests anchored document to be process\n     */\n    function requestDataProviderService(\n        string memory minterDid,\n        address minterAddress,\n        string memory userDid,\n        string memory documentURI,\n        string memory description\n    ) public returns (uint256) {\n        // // User must have a balance\n        // require(token.balanceOf(msg.sender) >= 0, \"Invalid token balance\");\n        // // User must have an allowance\n        // require(\n        //     token.allowance(msg.sender, address(this)) >= 0,\n        //     \"Invalid token allowance\"\n        // );\n\n        uint256 i = minterDocumentRequestCounter[minterAddress];\n\n        // Assign request to minter\n        // We should move to use XDV Worker Protocol\n        minterDocumentRequests[minterAddress][i] = DocumentMintingRequest({\n            user: msg.sender,\n            userDid: userDid,\n            documentURI: documentURI,\n            status: uint256(DocumentMintingRequestStatus.REQUEST),\n            description: description,\n            toMinterDid: minterDid,\n            toMinter: minterAddress,\n            timestamp: block.timestamp\n        });\n        minterDocumentRequestCounter[minterAddress]++;\n\n        emit DocumentAnchored(msg.sender, userDid, documentURI, i);\n        return i;\n    }\n\n    /**\n     *  @dev Mints a platform token.\n     */\n    function mint(\n        uint256 requestId,\n        address user,\n        address dataProvider,\n        string memory tokenURI\n    ) public returns (uint256) {\n        require(\n            minterDocumentRequests[dataProvider][requestId].status ==\n                uint256(DocumentMintingRequestStatus.REQUEST),\n            \"Document with invalid status\"\n        );\n        require(user != address(0), \"Invalid address\");\n\n        // updates a request\n        minterDocumentRequests[dataProvider][requestId].status = uint256(\n            DocumentMintingRequestStatus.MINTED\n        );\n\n        minterCounter[dataProvider] = minterCounter[dataProvider] + 1;\n        return platformToken.mint(user, tokenURI);\n    }\n\n    /**\n     * @dev Registers a data tokenization service\n     *\n     */\n    function registerMinter(\n        string memory name,\n        address paymentAddress,\n        bool userHasKyc,\n        uint256 feeStructure\n    ) public returns (uint256) {\n        minterCounter[msg.sender]++;\n\n        minters[msg.sender] = DataProviderMinter({\n            name: name,\n            paymentAddress: paymentAddress,\n            hasUserKyc: userHasKyc,\n            feeStructure: feeStructure,\n            created: block.timestamp,\n            factoryAddress: address(this),\n            enabled: true\n        });\n\n        // set new minter\n        emit MinterRegistered(msg.sender, name);\n        return minterCounter[msg.sender];\n    }\n}\n",
  "sourcePath": "/home/esferasoluciones-jupiter/Documents/projects/ifesa/xdv-document-signer-contracts/contracts/XDVController.sol",
  "compiler": {
    "name": "solc",
    "version": "0.8.4+commit.c7e474f2.Emscripten.clang"
  },
  "schemaVersion": "3.4.0",
  "updatedAt": "2021-05-13T20:10:09.912Z",
  "devdoc": {
    "kind": "dev",
    "methods": {
      "isValidSignature(bytes32,bytes)": {
        "details": "ERC-1271 Compatibility. This checks that the message signature was sent by the contract's owner.",
        "returns": {
          "magicValue": "either 0x00000000 for false or 0x1626ba7e for true 0x1626ba7e == bytes4(keccak256(\"isValidSignature(bytes32,bytes)\")"
        }
      },
      "mint(uint256,address,address,string)": {
        "details": "Mints a platform token."
      },
      "owner()": {
        "details": "Returns the address of the current owner."
      },
      "registerMinter(string,address,bool,uint256)": {
        "details": "Registers a data tokenization service"
      },
      "renounceOwnership()": {
        "details": "Leaves the contract without owner. It will not be possible to call `onlyOwner` functions anymore. Can only be called by the current owner. NOTE: Renouncing ownership will leave the contract without an owner, thereby removing any functionality that is only available to the owner."
      },
      "transferOwnership(address)": {
        "details": "Transfers ownership of the contract to a new account (`newOwner`). Can only be called by the current owner."
      }
    },
    "version": 1
  },
  "userdoc": {
    "kind": "user",
    "methods": {
      "requestDataProviderService(string,address,string,string,string)": {
        "notice": "User requests anchored document to be process"
      }
    },
    "version": 1
  }
}