{
  "contractName": "XDVController",
  "abi": [
    {
      "inputs": [
        {
          "internalType": "address",
          "name": "stablecoin",
          "type": "address"
        },
        {
          "internalType": "address",
          "name": "xdv",
          "type": "address"
        }
      ],
      "stateMutability": "nonpayable",
      "type": "constructor"
    },
    {
      "anonymous": false,
      "inputs": [
        {
          "indexed": true,
          "internalType": "address",
          "name": "user",
          "type": "address"
        },
        {
          "indexed": true,
          "internalType": "string",
          "name": "userDid",
          "type": "string"
        },
        {
          "indexed": false,
          "internalType": "string",
          "name": "documentURI",
          "type": "string"
        },
        {
          "indexed": false,
          "internalType": "uint256",
          "name": "id",
          "type": "uint256"
        }
      ],
      "name": "DocumentAnchored",
      "type": "event"
    },
    {
      "anonymous": false,
      "inputs": [
        {
          "indexed": true,
          "internalType": "address",
          "name": "minter",
          "type": "address"
        },
        {
          "indexed": false,
          "internalType": "string",
          "name": "name",
          "type": "string"
        }
      ],
      "name": "MinterRegistered",
      "type": "event"
    },
    {
      "anonymous": false,
      "inputs": [
        {
          "indexed": true,
          "internalType": "address",
          "name": "payee",
          "type": "address"
        },
        {
          "indexed": false,
          "internalType": "uint256",
          "name": "weiAmount",
          "type": "uint256"
        }
      ],
      "name": "Withdrawn",
      "type": "event"
    },
    {
      "inputs": [
        {
          "internalType": "address",
          "name": "",
          "type": "address"
        }
      ],
      "name": "dataProviderAccounting",
      "outputs": [
        {
          "internalType": "uint256",
          "name": "",
          "type": "uint256"
        }
      ],
      "stateMutability": "view",
      "type": "function"
    },
    {
      "inputs": [
        {
          "internalType": "address",
          "name": "",
          "type": "address"
        }
      ],
      "name": "minterCounter",
      "outputs": [
        {
          "internalType": "uint256",
          "name": "",
          "type": "uint256"
        }
      ],
      "stateMutability": "view",
      "type": "function"
    },
    {
      "inputs": [
        {
          "internalType": "address",
          "name": "",
          "type": "address"
        }
      ],
      "name": "minterDocumentRequestCounter",
      "outputs": [
        {
          "internalType": "uint256",
          "name": "",
          "type": "uint256"
        }
      ],
      "stateMutability": "view",
      "type": "function"
    },
    {
      "inputs": [
        {
          "internalType": "address",
          "name": "",
          "type": "address"
        },
        {
          "internalType": "uint256",
          "name": "",
          "type": "uint256"
        }
      ],
      "name": "minterDocumentRequests",
      "outputs": [
        {
          "internalType": "address",
          "name": "user",
          "type": "address"
        },
        {
          "internalType": "string",
          "name": "userDid",
          "type": "string"
        },
        {
          "internalType": "address",
          "name": "toMinter",
          "type": "address"
        },
        {
          "internalType": "string",
          "name": "toMinterDid",
          "type": "string"
        },
        {
          "internalType": "string",
          "name": "documentURI",
          "type": "string"
        },
        {
          "internalType": "uint256",
          "name": "status",
          "type": "uint256"
        },
        {
          "internalType": "uint256",
          "name": "timestamp",
          "type": "uint256"
        },
        {
          "internalType": "string",
          "name": "description",
          "type": "string"
        }
      ],
      "stateMutability": "view",
      "type": "function"
    },
    {
      "inputs": [],
      "name": "owner",
      "outputs": [
        {
          "internalType": "address",
          "name": "",
          "type": "address"
        }
      ],
      "stateMutability": "view",
      "type": "function"
    },
    {
      "inputs": [],
      "name": "token",
      "outputs": [
        {
          "internalType": "contract ERC20Interface",
          "name": "",
          "type": "address"
        }
      ],
      "stateMutability": "view",
      "type": "function"
    },
    {
      "inputs": [
        {
          "internalType": "address payable",
          "name": "payee",
          "type": "address"
        }
      ],
      "name": "withdraw",
      "outputs": [],
      "stateMutability": "nonpayable",
      "type": "function"
    },
    {
      "inputs": [
        {
          "internalType": "address payable",
          "name": "payee",
          "type": "address"
        },
        {
          "internalType": "address",
          "name": "erc20token",
          "type": "address"
        }
      ],
      "name": "withdrawToken",
      "outputs": [],
      "stateMutability": "nonpayable",
      "type": "function"
    },
    {
      "inputs": [
        {
          "internalType": "string",
          "name": "minterDid",
          "type": "string"
        },
        {
          "internalType": "address",
          "name": "minterAddress",
          "type": "address"
        },
        {
          "internalType": "string",
          "name": "userDid",
          "type": "string"
        },
        {
          "internalType": "string",
          "name": "documentURI",
          "type": "string"
        },
        {
          "internalType": "string",
          "name": "description",
          "type": "string"
        }
      ],
      "name": "requestDataProviderService",
      "outputs": [
        {
          "internalType": "uint256",
          "name": "",
          "type": "uint256"
        }
      ],
      "stateMutability": "nonpayable",
      "type": "function"
    },
    {
      "inputs": [
        {
          "internalType": "uint256",
          "name": "requestId",
          "type": "uint256"
        },
        {
          "internalType": "address",
          "name": "user",
          "type": "address"
        },
        {
          "internalType": "address",
          "name": "dataProvider",
          "type": "address"
        },
        {
          "internalType": "string",
          "name": "tokenURI",
          "type": "string"
        }
      ],
      "name": "mint",
      "outputs": [
        {
          "internalType": "uint256",
          "name": "",
          "type": "uint256"
        }
      ],
      "stateMutability": "nonpayable",
      "type": "function"
    },
    {
      "inputs": [
        {
          "internalType": "string",
          "name": "name",
          "type": "string"
        },
        {
          "internalType": "address",
          "name": "paymentAddress",
          "type": "address"
        },
        {
          "internalType": "bool",
          "name": "userHasKyc",
          "type": "bool"
        },
        {
          "internalType": "uint256",
          "name": "feeStructure",
          "type": "uint256"
        }
      ],
      "name": "registerMinter",
      "outputs": [
        {
          "internalType": "uint256",
          "name": "",
          "type": "uint256"
        }
      ],
      "stateMutability": "nonpayable",
      "type": "function"
    }
  ],
  "bytecode": "0x60806040523480156200001157600080fd5b5060405162001f7438038062001f74833981810160405281019062000037919062000119565b81600560006101000a81548173ffffffffffffffffffffffffffffffffffffffff021916908373ffffffffffffffffffffffffffffffffffffffff16021790555080600460006101000a81548173ffffffffffffffffffffffffffffffffffffffff021916908373ffffffffffffffffffffffffffffffffffffffff16021790555033600360006101000a81548173ffffffffffffffffffffffffffffffffffffffff021916908373ffffffffffffffffffffffffffffffffffffffff1602179055505050620001a8565b60008151905062000113816200018e565b92915050565b600080604083850312156200012d57600080fd5b60006200013d8582860162000102565b9250506020620001508582860162000102565b9150509250929050565b600062000167826200016e565b9050919050565b600073ffffffffffffffffffffffffffffffffffffffff82169050919050565b62000199816200015a565b8114620001a557600080fd5b50565b611dbc80620001b86000396000f3fe608060405234801561001057600080fd5b50600436106100a95760003560e01c80636efaa699116100715780636efaa69914610176578063761901bb146101ad5780638da5cb5b146101dd5780639acd083e146101fb578063f83d360d1461022b578063fc0c546a1461025b576100a9565b80632aa222c8146100ae5780633aeac4e1146100de57806351cff8d9146100fa5780635cec86161461011657806366563b4f14610146575b600080fd5b6100c860048036038101906100c3919061132b565b610279565b6040516100d59190611958565b60405180910390f35b6100f860048036038101906100f3919061137d565b610291565b005b610114600480360381019061010f9190611354565b6104cd565b005b610130600480360381019061012b919061132b565b6105b4565b60405161013d9190611958565b60405180910390f35b610160600480360381019061015b919061141e565b6105cc565b60405161016d9190611958565b60405180910390f35b610190600480360381019061018b91906113b9565b61085e565b6040516101a49897969594939291906117d1565b60405180910390f35b6101c760048036038101906101c2919061132b565b610b13565b6040516101d49190611958565b60405180910390f35b6101e5610b2b565b6040516101f2919061175d565b60405180910390f35b61021560048036038101906102109190611599565b610b51565b6040516102229190611958565b60405180910390f35b61024560048036038101906102409190611499565b610e67565b6040516102529190611958565b60405180910390f35b61026361117c565b604051610270919061186b565b60405180910390f35b60016020528060005260406000206000915090505481565b600360009054906101000a900473ffffffffffffffffffffffffffffffffffffffff1673ffffffffffffffffffffffffffffffffffffffff163373ffffffffffffffffffffffffffffffffffffffff1614610321576040517f08c379a0000000000000000000000000000000000000000000000000000000008152600401610318906118f8565b60405180910390fd5b60008173ffffffffffffffffffffffffffffffffffffffff166370a08231306040518263ffffffff1660e01b815260040161035c919061175d565b60206040518083038186803b15801561037457600080fd5b505afa158015610388573d6000803e3d6000fd5b505050506040513d601f19601f820116820180604052508101906103ac9190611570565b90508173ffffffffffffffffffffffffffffffffffffffff1663a9059cbb84836040518363ffffffff1660e01b81526004016103e9929190611778565b602060405180830381600087803b15801561040357600080fd5b505af1158015610417573d6000803e3d6000fd5b505050506040513d601f19601f8201168201806040525081019061043b91906113f5565b61047a576040517f08c379a000000000000000000000000000000000000000000000000000000000815260040161047190611918565b60405180910390fd5b8273ffffffffffffffffffffffffffffffffffffffff167f7084f5476618d8e60b11ef0d7d3f06914655adb8793e28ff7f018d4c76d505d5826040516104c09190611958565b60405180910390a2505050565b600360009054906101000a900473ffffffffffffffffffffffffffffffffffffffff1673ffffffffffffffffffffffffffffffffffffffff163373ffffffffffffffffffffffffffffffffffffffff161461055d576040517f08c379a0000000000000000000000000000000000000000000000000000000008152600401610554906118f8565b60405180910390fd5b60004790508173ffffffffffffffffffffffffffffffffffffffff167f7084f5476618d8e60b11ef0d7d3f06914655adb8793e28ff7f018d4c76d505d5826040516105a89190611958565b60405180910390a25050565b60076020528060005260406000206000915090505481565b60008060003373ffffffffffffffffffffffffffffffffffffffff1673ffffffffffffffffffffffffffffffffffffffff168152602001908152602001600020600081548092919061061d90611b9f565b91905055506040518060e001604052808681526020018573ffffffffffffffffffffffffffffffffffffffff16815260200184151581526020018381526020014281526020013073ffffffffffffffffffffffffffffffffffffffff16815260200160011515815250600660003373ffffffffffffffffffffffffffffffffffffffff1673ffffffffffffffffffffffffffffffffffffffff16815260200190815260200160002060008201518160000190805190602001906106e19291906111a2565b5060208201518160010160006101000a81548173ffffffffffffffffffffffffffffffffffffffff021916908373ffffffffffffffffffffffffffffffffffffffff16021790555060408201518160010160146101000a81548160ff021916908315150217905550606082015181600201556080820151816003015560a08201518160040160006101000a81548173ffffffffffffffffffffffffffffffffffffffff021916908373ffffffffffffffffffffffffffffffffffffffff16021790555060c08201518160040160146101000a81548160ff0219169083151502179055509050503373ffffffffffffffffffffffffffffffffffffffff167fdd49a7e572b5c7638971bc6a10724835256bbb03ca4187ce5fa77a2bf3716a768660405161080d9190611886565b60405180910390a26000803373ffffffffffffffffffffffffffffffffffffffff1673ffffffffffffffffffffffffffffffffffffffff168152602001908152602001600020549050949350505050565b6002602052816000526040600020602052806000526040600020600091509150508060000160009054906101000a900473ffffffffffffffffffffffffffffffffffffffff16908060010180546108b490611b3c565b80601f01602080910402602001604051908101604052809291908181526020018280546108e090611b3c565b801561092d5780601f106109025761010080835404028352916020019161092d565b820191906000526020600020905b81548152906001019060200180831161091057829003601f168201915b5050505050908060020160009054906101000a900473ffffffffffffffffffffffffffffffffffffffff169080600301805461096890611b3c565b80601f016020809104026020016040519081016040528092919081815260200182805461099490611b3c565b80156109e15780601f106109b6576101008083540402835291602001916109e1565b820191906000526020600020905b8154815290600101906020018083116109c457829003601f168201915b5050505050908060040180546109f690611b3c565b80601f0160208091040260200160405190810160405280929190818152602001828054610a2290611b3c565b8015610a6f5780601f10610a4457610100808354040283529160200191610a6f565b820191906000526020600020905b815481529060010190602001808311610a5257829003601f168201915b505050505090806005015490806006015490806007018054610a9090611b3c565b80601f0160208091040260200160405190810160405280929190818152602001828054610abc90611b3c565b8015610b095780601f10610ade57610100808354040283529160200191610b09565b820191906000526020600020905b815481529060010190602001808311610aec57829003601f168201915b5050505050905088565b60006020528060005260406000206000915090505481565b600360009054906101000a900473ffffffffffffffffffffffffffffffffffffffff1681565b6000806002811115610b8c577f4e487b7100000000000000000000000000000000000000000000000000000000600052602160045260246000fd5b600260008573ffffffffffffffffffffffffffffffffffffffff1673ffffffffffffffffffffffffffffffffffffffff16815260200190815260200160002060008781526020019081526020016000206005015414610c20576040517f08c379a0000000000000000000000000000000000000000000000000000000008152600401610c1790611938565b60405180910390fd5b600073ffffffffffffffffffffffffffffffffffffffff168473ffffffffffffffffffffffffffffffffffffffff161415610c90576040517f08c379a0000000000000000000000000000000000000000000000000000000008152600401610c87906118d8565b60405180910390fd5b60016002811115610cca577f4e487b7100000000000000000000000000000000000000000000000000000000600052602160045260246000fd5b600260008573ffffffffffffffffffffffffffffffffffffffff1673ffffffffffffffffffffffffffffffffffffffff16815260200190815260200160002060008781526020019081526020016000206005018190555060016000808573ffffffffffffffffffffffffffffffffffffffff1673ffffffffffffffffffffffffffffffffffffffff16815260200190815260200160002054610d6c91906119f0565b6000808573ffffffffffffffffffffffffffffffffffffffff1673ffffffffffffffffffffffffffffffffffffffff16815260200190815260200160002081905550600460009054906101000a900473ffffffffffffffffffffffffffffffffffffffff1673ffffffffffffffffffffffffffffffffffffffff1663d0def52185846040518363ffffffff1660e01b8152600401610e0b9291906117a1565b602060405180830381600087803b158015610e2557600080fd5b505af1158015610e39573d6000803e3d6000fd5b505050506040513d601f19601f82011682018060405250810190610e5d9190611570565b9050949350505050565b600080600160008773ffffffffffffffffffffffffffffffffffffffff1673ffffffffffffffffffffffffffffffffffffffff1681526020019081526020016000205490506040518061010001604052803373ffffffffffffffffffffffffffffffffffffffff1681526020018681526020018773ffffffffffffffffffffffffffffffffffffffff16815260200188815260200185815260200160006002811115610f3c577f4e487b7100000000000000000000000000000000000000000000000000000000600052602160045260246000fd5b815260200142815260200184815250600260008873ffffffffffffffffffffffffffffffffffffffff1673ffffffffffffffffffffffffffffffffffffffff168152602001908152602001600020600083815260200190815260200160002060008201518160000160006101000a81548173ffffffffffffffffffffffffffffffffffffffff021916908373ffffffffffffffffffffffffffffffffffffffff1602179055506020820151816001019080519060200190610ffe9291906111a2565b5060408201518160020160006101000a81548173ffffffffffffffffffffffffffffffffffffffff021916908373ffffffffffffffffffffffffffffffffffffffff16021790555060608201518160030190805190602001906110629291906111a2565b50608082015181600401908051906020019061107f9291906111a2565b5060a0820151816005015560c0820151816006015560e08201518160070190805190602001906110b09291906111a2565b50905050600160008773ffffffffffffffffffffffffffffffffffffffff1673ffffffffffffffffffffffffffffffffffffffff168152602001908152602001600020600081548092919061110490611b9f565b9190505550846040516111179190611746565b60405180910390203373ffffffffffffffffffffffffffffffffffffffff167f0a007e579f0793671747216eab1061026d102ff0f66e876d2edaa6277ad53e6686846040516111679291906118a8565b60405180910390a38091505095945050505050565b600560009054906101000a900473ffffffffffffffffffffffffffffffffffffffff1681565b8280546111ae90611b3c565b90600052602060002090601f0160209004810192826111d05760008555611217565b82601f106111e957805160ff1916838001178555611217565b82800160010185558215611217579182015b828111156112165782518255916020019190600101906111fb565b5b5090506112249190611228565b5090565b5b80821115611241576000816000905550600101611229565b5090565b600061125861125384611998565b611973565b90508281526020810184848401111561127057600080fd5b61127b848285611afa565b509392505050565b60008135905061129281611d2a565b92915050565b6000813590506112a781611d41565b92915050565b6000813590506112bc81611d58565b92915050565b6000815190506112d181611d58565b92915050565b600082601f8301126112e857600080fd5b81356112f8848260208601611245565b91505092915050565b60008135905061131081611d6f565b92915050565b60008151905061132581611d6f565b92915050565b60006020828403121561133d57600080fd5b600061134b84828501611283565b91505092915050565b60006020828403121561136657600080fd5b600061137484828501611298565b91505092915050565b6000806040838503121561139057600080fd5b600061139e85828601611298565b92505060206113af85828601611283565b9150509250929050565b600080604083850312156113cc57600080fd5b60006113da85828601611283565b92505060206113eb85828601611301565b9150509250929050565b60006020828403121561140757600080fd5b6000611415848285016112c2565b91505092915050565b6000806000806080858703121561143457600080fd5b600085013567ffffffffffffffff81111561144e57600080fd5b61145a878288016112d7565b945050602061146b87828801611283565b935050604061147c878288016112ad565b925050606061148d87828801611301565b91505092959194509250565b600080600080600060a086880312156114b157600080fd5b600086013567ffffffffffffffff8111156114cb57600080fd5b6114d7888289016112d7565b95505060206114e888828901611283565b945050604086013567ffffffffffffffff81111561150557600080fd5b611511888289016112d7565b935050606086013567ffffffffffffffff81111561152e57600080fd5b61153a888289016112d7565b925050608086013567ffffffffffffffff81111561155757600080fd5b611563888289016112d7565b9150509295509295909350565b60006020828403121561158257600080fd5b600061159084828501611316565b91505092915050565b600080600080608085870312156115af57600080fd5b60006115bd87828801611301565b94505060206115ce87828801611283565b93505060406115df87828801611283565b925050606085013567ffffffffffffffff8111156115fc57600080fd5b611608878288016112d7565b91505092959194509250565b61161d81611aa0565b82525050565b61162c81611a46565b82525050565b61163b81611ab2565b82525050565b600061164c826119c9565b61165681856119d4565b9350611666818560208601611b09565b61166f81611c75565b840191505092915050565b6000611685826119c9565b61168f81856119e5565b935061169f818560208601611b09565b80840191505092915050565b60006116b8600f836119d4565b91506116c382611c86565b602082019050919050565b60006116db600c836119d4565b91506116e682611caf565b602082019050919050565b60006116fe601e836119d4565b915061170982611cd8565b602082019050919050565b6000611721601c836119d4565b915061172c82611d01565b602082019050919050565b61174081611a96565b82525050565b6000611752828461167a565b915081905092915050565b60006020820190506117726000830184611623565b92915050565b600060408201905061178d6000830185611614565b61179a6020830184611737565b9392505050565b60006040820190506117b66000830185611623565b81810360208301526117c88184611641565b90509392505050565b6000610100820190506117e7600083018b611623565b81810360208301526117f9818a611641565b90506118086040830189611623565b818103606083015261181a8188611641565b9050818103608083015261182e8187611641565b905061183d60a0830186611737565b61184a60c0830185611737565b81810360e083015261185c8184611641565b90509998505050505050505050565b60006020820190506118806000830184611632565b92915050565b600060208201905081810360008301526118a08184611641565b905092915050565b600060408201905081810360008301526118c28185611641565b90506118d16020830184611737565b9392505050565b600060208201905081810360008301526118f1816116ab565b9050919050565b60006020820190508181036000830152611911816116ce565b9050919050565b60006020820190508181036000830152611931816116f1565b9050919050565b6000602082019050818103600083015261195181611714565b9050919050565b600060208201905061196d6000830184611737565b92915050565b600061197d61198e565b90506119898282611b6e565b919050565b6000604051905090565b600067ffffffffffffffff8211156119b3576119b2611c46565b5b6119bc82611c75565b9050602081019050919050565b600081519050919050565b600082825260208201905092915050565b600081905092915050565b60006119fb82611a96565b9150611a0683611a96565b9250827fffffffffffffffffffffffffffffffffffffffffffffffffffffffffffffffff03821115611a3b57611a3a611be8565b5b828201905092915050565b6000611a5182611a76565b9050919050565b6000611a6382611a76565b9050919050565b60008115159050919050565b600073ffffffffffffffffffffffffffffffffffffffff82169050919050565b6000819050919050565b6000611aab82611ad6565b9050919050565b6000611abd82611ac4565b9050919050565b6000611acf82611a76565b9050919050565b6000611ae182611ae8565b9050919050565b6000611af382611a76565b9050919050565b82818337600083830152505050565b60005b83811015611b27578082015181840152602081019050611b0c565b83811115611b36576000848401525b50505050565b60006002820490506001821680611b5457607f821691505b60208210811415611b6857611b67611c17565b5b50919050565b611b7782611c75565b810181811067ffffffffffffffff82111715611b9657611b95611c46565b5b80604052505050565b6000611baa82611a96565b91507fffffffffffffffffffffffffffffffffffffffffffffffffffffffffffffffff821415611bdd57611bdc611be8565b5b600182019050919050565b7f4e487b7100000000000000000000000000000000000000000000000000000000600052601160045260246000fd5b7f4e487b7100000000000000000000000000000000000000000000000000000000600052602260045260246000fd5b7f4e487b7100000000000000000000000000000000000000000000000000000000600052604160045260246000fd5b6000601f19601f8301169050919050565b7f496e76616c696420616464726573730000000000000000000000000000000000600082015250565b7f494e56414c49445f555345520000000000000000000000000000000000000000600082015250565b7f5472616e73666572206661696c656420666f72206261736520746f6b656e0000600082015250565b7f446f63756d656e74207769746820696e76616c69642073746174757300000000600082015250565b611d3381611a46565b8114611d3e57600080fd5b50565b611d4a81611a58565b8114611d5557600080fd5b50565b611d6181611a6a565b8114611d6c57600080fd5b50565b611d7881611a96565b8114611d8357600080fd5b5056fea26469706673582212205679b65daa0f5f58af545f8bb8e749ed93f84e26e0433b4a91e2731bf0a5fda664736f6c63430008030033",
  "immutableReferences": {},
  "source": "// SPDX-License-Identifier: MIT\npragma solidity ^0.8.0;\n\npragma experimental ABIEncoderV2;\n\nimport \"./XDV.sol\";\nimport \"./MinterCore.sol\";\nimport \"@openzeppelin/contracts/utils/structs/EnumerableSet.sol\";\nimport \"@openzeppelin/contracts/utils/Address.sol\";\nimport \"./ERC20Interface.sol\";\n\ncontract XDVController is MinterCore {\n    using EnumerableSet for EnumerableSet.AddressSet;\n    using Address for address payable;\n\n    event Withdrawn(address indexed payee, uint256 weiAmount);\n    address public owner;\n\n    XDV private platformToken;\n    ERC20Interface public token;\n\n    // minters\n    mapping(address => DataProviderMinter) internal minters;\n    mapping(address => uint256) public dataProviderAccounting;\n\n    constructor(address stablecoin, address xdv) {\n        token = ERC20Interface(stablecoin);\n        platformToken = XDV(xdv);\n        owner = msg.sender;\n    }\n\n    function withdraw(address payable payee) public {\n        require(msg.sender == owner, \"INVALID_USER\");\n        uint256 b = address(this).balance;\n\n        emit Withdrawn(payee, b);\n    }\n\n    function withdrawToken(address payable payee, address erc20token) public {\n        require(msg.sender == owner, \"INVALID_USER\");\n        uint256 balance = ERC20Interface(erc20token).balanceOf(address(this));\n\n        // Transfer tokens to pay service fee\n        require(\n            ERC20Interface(erc20token).transfer(payee, balance),\n            \"Transfer failed for base token\"\n        );\n\n        emit Withdrawn(payee, balance);\n    }\n\n    /**\n     * User requests anchored document to be process\n     */\n    function requestDataProviderService(\n        string memory minterDid,\n        address minterAddress,\n        string memory userDid,\n        string memory documentURI,\n        string memory description\n    ) public returns (uint256) {\n        // // User must have a balance\n        // require(token.balanceOf(msg.sender) >= 0, \"Invalid token balance\");\n        // // User must have an allowance\n        // require(\n        //     token.allowance(msg.sender, address(this)) >= 0,\n        //     \"Invalid token allowance\"\n        // );\n\n        uint256 i = minterDocumentRequestCounter[minterAddress];\n\n        // Assign request to minter\n        // We should move to use XDV Worker Protocol\n        minterDocumentRequests[minterAddress][i] = DocumentMintingRequest({\n            user: msg.sender,\n            userDid: userDid,\n            documentURI: documentURI,\n            status: uint256(DocumentMintingRequestStatus.REQUEST),\n            description: description,\n            toMinterDid: minterDid,\n            toMinter: minterAddress,\n            timestamp: block.timestamp\n        });\n        minterDocumentRequestCounter[minterAddress]++;\n\n        emit DocumentAnchored(msg.sender, userDid, documentURI, i);\n        return i;\n    }\n\n    /**\n     *  @dev Mints a platform token.\n     */\n    function mint(\n        uint256 requestId,\n        address user,\n        address dataProvider,\n        string memory tokenURI\n    ) public returns (uint256) {\n        require(\n            minterDocumentRequests[dataProvider][requestId].status ==\n                uint256(DocumentMintingRequestStatus.REQUEST),\n            \"Document with invalid status\"\n        );\n        require(user != address(0), \"Invalid address\");\n\n        // updates a request\n        minterDocumentRequests[dataProvider][requestId].status = uint256(\n            DocumentMintingRequestStatus.MINTED\n        );\n\n        minterCounter[dataProvider] = minterCounter[dataProvider] + 1;\n        return platformToken.mint(user, tokenURI);\n    }\n\n    /**\n     * @dev Registers a data tokenization service\n     *\n     */\n    function registerMinter(\n        string memory name,\n        address paymentAddress,\n        bool userHasKyc,\n        uint256 feeStructure\n    ) public returns (uint256) {\n        minterCounter[msg.sender]++;\n\n        minters[msg.sender] = DataProviderMinter({\n            name: name,\n            paymentAddress: paymentAddress,\n            hasUserKyc: userHasKyc,\n            feeStructure: feeStructure,\n            created: block.timestamp,\n            factoryAddress: address(this),\n            enabled: true\n        });\n\n        // set new minter\n        emit MinterRegistered(msg.sender, name);\n        return minterCounter[msg.sender];\n    }\n}\n",
  "sourcePath": "/Users/zubietaroberto/git/nft-document-swap/contracts/XDVController.sol",
  "compiler": {
    "name": "solc",
    "version": "0.8.3+commit.8d00100c.Emscripten.clang"
  },
  "schemaVersion": "3.3.4",
  "updatedAt": "2021-04-08T20:41:03.472Z",
  "devdoc": {
    "kind": "dev",
    "methods": {
      "mint(uint256,address,address,string)": {
        "details": "Mints a platform token."
      },
      "registerMinter(string,address,bool,uint256)": {
        "details": "Registers a data tokenization service"
      }
    },
    "version": 1
  },
  "userdoc": {
    "kind": "user",
    "methods": {
      "requestDataProviderService(string,address,string,string,string)": {
        "notice": "User requests anchored document to be process"
      }
    },
    "version": 1
  }
}