{
  "contractName": "XDVController",
  "abi": [
    {
      "inputs": [
        {
          "internalType": "address",
          "name": "stablecoin",
          "type": "address"
        },
        {
          "internalType": "address",
          "name": "xdv",
          "type": "address"
        }
      ],
      "stateMutability": "nonpayable",
      "type": "constructor"
    },
    {
      "anonymous": false,
      "inputs": [
        {
          "indexed": true,
          "internalType": "address",
          "name": "user",
          "type": "address"
        },
        {
          "indexed": true,
          "internalType": "string",
          "name": "userDid",
          "type": "string"
        },
        {
          "indexed": false,
          "internalType": "string",
          "name": "documentURI",
          "type": "string"
        },
        {
          "indexed": false,
          "internalType": "uint256",
          "name": "id",
          "type": "uint256"
        }
      ],
      "name": "DocumentAnchored",
      "type": "event"
    },
    {
      "anonymous": false,
      "inputs": [
        {
          "indexed": true,
          "internalType": "address",
          "name": "minter",
          "type": "address"
        },
        {
          "indexed": true,
          "internalType": "uint256",
          "name": "id",
          "type": "uint256"
        },
        {
          "indexed": false,
          "internalType": "string",
          "name": "name",
          "type": "string"
        }
      ],
      "name": "MinterRegistered",
      "type": "event"
    },
    {
      "anonymous": false,
      "inputs": [
        {
          "indexed": true,
          "internalType": "address",
          "name": "payee",
          "type": "address"
        },
        {
          "indexed": false,
          "internalType": "uint256",
          "name": "weiAmount",
          "type": "uint256"
        }
      ],
      "name": "Withdrawn",
      "type": "event"
    },
    {
      "inputs": [
        {
          "internalType": "uint256",
          "name": "",
          "type": "uint256"
        }
      ],
      "name": "dataProviderMinters",
      "outputs": [
        {
          "internalType": "address",
          "name": "minterAddress",
          "type": "address"
        },
        {
          "internalType": "string",
          "name": "name",
          "type": "string"
        },
        {
          "internalType": "address",
          "name": "paymentAddress",
          "type": "address"
        },
        {
          "internalType": "bool",
          "name": "hasUserKyc",
          "type": "bool"
        },
        {
          "internalType": "uint256",
          "name": "feeStructure",
          "type": "uint256"
        },
        {
          "internalType": "uint256",
          "name": "created",
          "type": "uint256"
        },
        {
          "internalType": "uint256",
          "name": "serviceFee",
          "type": "uint256"
        },
        {
          "internalType": "address",
          "name": "factoryAddress",
          "type": "address"
        },
        {
          "internalType": "bool",
          "name": "enabled",
          "type": "bool"
        }
      ],
      "stateMutability": "view",
      "type": "function"
    },
    {
      "inputs": [
        {
          "internalType": "address",
          "name": "",
          "type": "address"
        }
      ],
      "name": "minterCounter",
      "outputs": [
        {
          "internalType": "uint256",
          "name": "",
          "type": "uint256"
        }
      ],
      "stateMutability": "view",
      "type": "function"
    },
    {
      "inputs": [
        {
          "internalType": "address",
          "name": "",
          "type": "address"
        }
      ],
      "name": "minterDocumentRequestCounter",
      "outputs": [
        {
          "internalType": "uint256",
          "name": "",
          "type": "uint256"
        }
      ],
      "stateMutability": "view",
      "type": "function"
    },
    {
      "inputs": [
        {
          "internalType": "address",
          "name": "",
          "type": "address"
        },
        {
          "internalType": "uint256",
          "name": "",
          "type": "uint256"
        }
      ],
      "name": "minterDocumentRequests",
      "outputs": [
        {
          "internalType": "address",
          "name": "user",
          "type": "address"
        },
        {
          "internalType": "string",
          "name": "userDid",
          "type": "string"
        },
        {
          "internalType": "address",
          "name": "toMinter",
          "type": "address"
        },
        {
          "internalType": "string",
          "name": "toMinterDid",
          "type": "string"
        },
        {
          "internalType": "string",
          "name": "documentURI",
          "type": "string"
        },
        {
          "internalType": "uint256",
          "name": "status",
          "type": "uint256"
        },
        {
          "internalType": "uint256",
          "name": "timestamp",
          "type": "uint256"
        },
        {
          "internalType": "string",
          "name": "description",
          "type": "string"
        }
      ],
      "stateMutability": "view",
      "type": "function"
    },
    {
      "inputs": [],
      "name": "owner",
      "outputs": [
        {
          "internalType": "address",
          "name": "",
          "type": "address"
        }
      ],
      "stateMutability": "view",
      "type": "function"
    },
    {
      "inputs": [],
      "name": "token",
      "outputs": [
        {
          "internalType": "contract ERC20Interface",
          "name": "",
          "type": "address"
        }
      ],
      "stateMutability": "view",
      "type": "function"
    },
    {
      "inputs": [
        {
          "internalType": "uint256",
          "name": "_fee",
          "type": "uint256"
        }
      ],
      "name": "setProtocolFee",
      "outputs": [],
      "stateMutability": "nonpayable",
      "type": "function"
    },
    {
      "inputs": [],
      "name": "getProtocolFee",
      "outputs": [
        {
          "internalType": "uint256",
          "name": "",
          "type": "uint256"
        }
      ],
      "stateMutability": "nonpayable",
      "type": "function"
    },
    {
      "inputs": [
        {
          "internalType": "address payable",
          "name": "payee",
          "type": "address"
        }
      ],
      "name": "withdraw",
      "outputs": [],
      "stateMutability": "nonpayable",
      "type": "function"
    },
    {
      "inputs": [
        {
          "internalType": "address payable",
          "name": "payee",
          "type": "address"
        },
        {
          "internalType": "address",
          "name": "erc20token",
          "type": "address"
        }
      ],
      "name": "withdrawToken",
      "outputs": [],
      "stateMutability": "nonpayable",
      "type": "function"
    },
    {
      "inputs": [
        {
          "internalType": "string",
          "name": "minterDid",
          "type": "string"
        },
        {
          "internalType": "address",
          "name": "minterAddress",
          "type": "address"
        },
        {
          "internalType": "string",
          "name": "userDid",
          "type": "string"
        },
        {
          "internalType": "string",
          "name": "documentURI",
          "type": "string"
        },
        {
          "internalType": "string",
          "name": "description",
          "type": "string"
        }
      ],
      "name": "requestDataProviderService",
      "outputs": [
        {
          "internalType": "uint256",
          "name": "",
          "type": "uint256"
        }
      ],
      "stateMutability": "payable",
      "type": "function"
    },
    {
      "inputs": [
        {
          "internalType": "uint256",
          "name": "requestId",
          "type": "uint256"
        },
        {
          "internalType": "address",
          "name": "user",
          "type": "address"
        },
        {
          "internalType": "address",
          "name": "dataProvider",
          "type": "address"
        },
        {
          "internalType": "string",
          "name": "tokenURI",
          "type": "string"
        }
      ],
      "name": "mint",
      "outputs": [
        {
          "internalType": "uint256",
          "name": "",
          "type": "uint256"
        }
      ],
      "stateMutability": "nonpayable",
      "type": "function"
    },
    {
      "inputs": [
        {
          "internalType": "uint256",
          "name": "requestId",
          "type": "uint256"
        },
        {
          "internalType": "uint256",
          "name": "dataProviderId",
          "type": "uint256"
        },
        {
          "internalType": "uint256",
          "name": "tokenId",
          "type": "uint256"
        }
      ],
      "name": "burn",
      "outputs": [
        {
          "internalType": "bool",
          "name": "",
          "type": "bool"
        }
      ],
      "stateMutability": "payable",
      "type": "function"
    },
    {
      "inputs": [
        {
          "internalType": "address",
          "name": "minter",
          "type": "address"
        },
        {
          "internalType": "string",
          "name": "name",
          "type": "string"
        },
        {
          "internalType": "address",
          "name": "paymentAddress",
          "type": "address"
        },
        {
          "internalType": "bool",
          "name": "userHasKyc",
          "type": "bool"
        },
        {
          "internalType": "uint256",
          "name": "feeStructure",
          "type": "uint256"
        }
      ],
      "name": "registerMinter",
      "outputs": [
        {
          "internalType": "uint256",
          "name": "",
          "type": "uint256"
        }
      ],
      "stateMutability": "nonpayable",
      "type": "function"
    },
    {
      "inputs": [],
      "name": "count",
      "outputs": [
        {
          "internalType": "uint256",
          "name": "",
          "type": "uint256"
        }
      ],
      "stateMutability": "view",
      "type": "function"
    },
    {
      "inputs": [
        {
          "internalType": "uint256",
          "name": "index",
          "type": "uint256"
        }
      ],
      "name": "get",
      "outputs": [
        {
          "internalType": "address",
          "name": "",
          "type": "address"
        }
      ],
      "stateMutability": "view",
      "type": "function"
    }
  ],
  "bytecode": "0x60806040523480156200001157600080fd5b506040516200316838038062003168833981810160405281019062000037919062000119565b81600760006101000a81548173ffffffffffffffffffffffffffffffffffffffff021916908373ffffffffffffffffffffffffffffffffffffffff16021790555080600660006101000a81548173ffffffffffffffffffffffffffffffffffffffff021916908373ffffffffffffffffffffffffffffffffffffffff16021790555033600460006101000a81548173ffffffffffffffffffffffffffffffffffffffff021916908373ffffffffffffffffffffffffffffffffffffffff1602179055505050620001a8565b60008151905062000113816200018e565b92915050565b600080604083850312156200012d57600080fd5b60006200013d8582860162000102565b9250506020620001508582860162000102565b9150509250929050565b600062000167826200016e565b9050919050565b600073ffffffffffffffffffffffffffffffffffffffff82169050919050565b62000199816200015a565b8114620001a557600080fd5b50565b612fb080620001b86000396000f3fe6080604052600436106100f35760003560e01c80638da5cb5b1161008a578063a5a4103111610059578063a5a4103114610376578063ad8175d7146103a1578063f83d360d146103de578063fc0c546a1461040e576100f3565b80638da5cb5b1461028c5780639507d39a146102b7578063967426ff146102f45780639acd083e14610339576100f3565b806351cff8d9116100c657806351cff8d9146101b95780636efaa699146101e2578063761901bb14610226578063787dce3d14610263576100f3565b806305a10028146100f857806306661abd146101285780632aa222c8146101535780633aeac4e114610190575b600080fd5b610112600480360381019061010d91906125d0565b610439565b60405161011f9190612b88565b60405180910390f35b34801561013457600080fd5b5061013d610c4c565b60405161014a9190612d50565b60405180910390f35b34801561015f57600080fd5b5061017a600480360381019061017591906122aa565b610c5d565b6040516101879190612d50565b60405180910390f35b34801561019c57600080fd5b506101b760048036038101906101b291906122fc565b610c75565b005b3480156101c557600080fd5b506101e060048036038101906101db91906122d3565b610eb1565b005b3480156101ee57600080fd5b50610209600480360381019061020491906123c7565b610f98565b60405161021d989796959493929190612aee565b60405180910390f35b34801561023257600080fd5b5061024d600480360381019061024891906122aa565b61128d565b60405161025a9190612d50565b60405180910390f35b34801561026f57600080fd5b5061028a60048036038101906102859190612503565b6112a5565b005b34801561029857600080fd5b506102a161133f565b6040516102ae919061296b565b60405180910390f35b3480156102c357600080fd5b506102de60048036038101906102d99190612503565b611365565b6040516102eb919061296b565b60405180910390f35b34801561030057600080fd5b5061031b60048036038101906103169190612503565b611382565b60405161033099989796959493929190612a5a565b60405180910390f35b34801561034557600080fd5b50610360600480360381019061035b9190612555565b6114e2565b60405161036d9190612d50565b60405180910390f35b34801561038257600080fd5b5061038b611795565b6040516103989190612d50565b60405180910390f35b3480156103ad57600080fd5b506103c860048036038101906103c39190612338565b61179f565b6040516103d59190612d50565b60405180910390f35b6103f860048036038101906103f3919061242c565b611a7e565b6040516104059190612d50565b60405180910390f35b34801561041a57600080fd5b50610423612030565b6040516104309190612ba3565b60405180910390f35b600080600760009054906101000a900473ffffffffffffffffffffffffffffffffffffffff1673ffffffffffffffffffffffffffffffffffffffff166370a08231336040518263ffffffff1660e01b81526004016104979190612986565b60206040518083038186803b1580156104af57600080fd5b505afa1580156104c3573d6000803e3d6000fd5b505050506040513d601f19601f820116820180604052508101906104e7919061252c565b1015610528576040517f08c379a000000000000000000000000000000000000000000000000000000000815260040161051f90612c10565b60405180910390fd5b6000600760009054906101000a900473ffffffffffffffffffffffffffffffffffffffff1673ffffffffffffffffffffffffffffffffffffffff1663dd62ed3e33306040518363ffffffff1660e01b81526004016105879291906129a1565b60206040518083038186803b15801561059f57600080fd5b505afa1580156105b3573d6000803e3d6000fd5b505050506040513d601f19601f820116820180604052508101906105d7919061252c565b1015610618576040517f08c379a000000000000000000000000000000000000000000000000000000000815260040161060f90612d30565b60405180910390fd5b600060016000858152602001908152602001600020604051806101200160405290816000820160009054906101000a900473ffffffffffffffffffffffffffffffffffffffff1673ffffffffffffffffffffffffffffffffffffffff1673ffffffffffffffffffffffffffffffffffffffff168152602001600182018054600181600116156101000203166002900480601f0160208091040260200160405190810160405280929190818152602001828054600181600116156101000203166002900480156107285780601f106106fd57610100808354040283529160200191610728565b820191906000526020600020905b81548152906001019060200180831161070b57829003601f168201915b505050505081526020016002820160009054906101000a900473ffffffffffffffffffffffffffffffffffffffff1673ffffffffffffffffffffffffffffffffffffffff1673ffffffffffffffffffffffffffffffffffffffff1681526020016002820160149054906101000a900460ff161515151581526020016003820154815260200160048201548152602001600582015481526020016006820160009054906101000a900473ffffffffffffffffffffffffffffffffffffffff1673ffffffffffffffffffffffffffffffffffffffff1673ffffffffffffffffffffffffffffffffffffffff1681526020016006820160149054906101000a900460ff1615151515815250509050600081608001511161087a576040517f08c379a000000000000000000000000000000000000000000000000000000000815260040161087190612d10565b60405180910390fd5b600073ffffffffffffffffffffffffffffffffffffffff16816040015173ffffffffffffffffffffffffffffffffffffffff1614156108ee576040517f08c379a00000000000000000000000000000000000000000000000000000000081526004016108e590612c70565b60405180910390fd5b60008160c0015111610935576040517f08c379a000000000000000000000000000000000000000000000000000000000815260040161092c90612cf0565b60405180910390fd5b600660009054906101000a900473ffffffffffffffffffffffffffffffffffffffff1673ffffffffffffffffffffffffffffffffffffffff166342966c68846040518263ffffffff1660e01b81526004016109909190612d50565b602060405180830381600087803b1580156109aa57600080fd5b505af11580156109be573d6000803e3d6000fd5b505050506040513d601f19601f820116820180604052508101906109e29190612403565b50600760009054906101000a900473ffffffffffffffffffffffffffffffffffffffff1673ffffffffffffffffffffffffffffffffffffffff166323b872dd33836040015184608001516040518463ffffffff1660e01b8152600401610a4a939291906129ca565b602060405180830381600087803b158015610a6457600080fd5b505af1158015610a78573d6000803e3d6000fd5b505050506040513d601f19601f82011682018060405250810190610a9c9190612403565b610adb576040517f08c379a0000000000000000000000000000000000000000000000000000000008152600401610ad290612cb0565b60405180910390fd5b600760009054906101000a900473ffffffffffffffffffffffffffffffffffffffff1673ffffffffffffffffffffffffffffffffffffffff166323b872dd33308460c001516040518463ffffffff1660e01b8152600401610b3e939291906129ca565b602060405180830381600087803b158015610b5857600080fd5b505af1158015610b6c573d6000803e3d6000fd5b505050506040513d601f19601f82011682018060405250810190610b909190612403565b610bcf576040517f08c379a0000000000000000000000000000000000000000000000000000000008152600401610bc690612cb0565b60405180910390fd5b6000851115610c4057600280811115610be457fe5b60036000836000015173ffffffffffffffffffffffffffffffffffffffff1673ffffffffffffffffffffffffffffffffffffffff1681526020019081526020016000206000878152602001908152602001600020600501819055505b60019150509392505050565b6000610c586008612056565b905090565b60026020528060005260406000206000915090505481565b600460009054906101000a900473ffffffffffffffffffffffffffffffffffffffff1673ffffffffffffffffffffffffffffffffffffffff163373ffffffffffffffffffffffffffffffffffffffff1614610d05576040517f08c379a0000000000000000000000000000000000000000000000000000000008152600401610cfc90612c90565b60405180910390fd5b60008173ffffffffffffffffffffffffffffffffffffffff166370a08231306040518263ffffffff1660e01b8152600401610d40919061296b565b60206040518083038186803b158015610d5857600080fd5b505afa158015610d6c573d6000803e3d6000fd5b505050506040513d601f19601f82011682018060405250810190610d90919061252c565b90508173ffffffffffffffffffffffffffffffffffffffff1663a9059cbb84836040518363ffffffff1660e01b8152600401610dcd929190612a01565b602060405180830381600087803b158015610de757600080fd5b505af1158015610dfb573d6000803e3d6000fd5b505050506040513d601f19601f82011682018060405250810190610e1f9190612403565b610e5e576040517f08c379a0000000000000000000000000000000000000000000000000000000008152600401610e5590612cb0565b60405180910390fd5b8273ffffffffffffffffffffffffffffffffffffffff167f7084f5476618d8e60b11ef0d7d3f06914655adb8793e28ff7f018d4c76d505d582604051610ea49190612d50565b60405180910390a2505050565b600460009054906101000a900473ffffffffffffffffffffffffffffffffffffffff1673ffffffffffffffffffffffffffffffffffffffff163373ffffffffffffffffffffffffffffffffffffffff1614610f41576040517f08c379a0000000000000000000000000000000000000000000000000000000008152600401610f3890612c90565b60405180910390fd5b60004790508173ffffffffffffffffffffffffffffffffffffffff167f7084f5476618d8e60b11ef0d7d3f06914655adb8793e28ff7f018d4c76d505d582604051610f8c9190612d50565b60405180910390a25050565b6003602052816000526040600020602052806000526040600020600091509150508060000160009054906101000a900473ffffffffffffffffffffffffffffffffffffffff1690806001018054600181600116156101000203166002900480601f0160208091040260200160405190810160405280929190818152602001828054600181600116156101000203166002900480156110775780601f1061104c57610100808354040283529160200191611077565b820191906000526020600020905b81548152906001019060200180831161105a57829003601f168201915b5050505050908060020160009054906101000a900473ffffffffffffffffffffffffffffffffffffffff1690806003018054600181600116156101000203166002900480601f01602080910402602001604051908101604052809291908181526020018280546001816001161561010002031660029004801561113b5780601f106111105761010080835404028352916020019161113b565b820191906000526020600020905b81548152906001019060200180831161111e57829003601f168201915b505050505090806004018054600181600116156101000203166002900480601f0160208091040260200160405190810160405280929190818152602001828054600181600116156101000203166002900480156111d95780601f106111ae576101008083540402835291602001916111d9565b820191906000526020600020905b8154815290600101906020018083116111bc57829003601f168201915b505050505090806005015490806006015490806007018054600181600116156101000203166002900480601f0160208091040260200160405190810160405280929190818152602001828054600181600116156101000203166002900480156112835780601f1061125857610100808354040283529160200191611283565b820191906000526020600020905b81548152906001019060200180831161126657829003601f168201915b5050505050905088565b60006020528060005260406000206000915090505481565b600460009054906101000a900473ffffffffffffffffffffffffffffffffffffffff1673ffffffffffffffffffffffffffffffffffffffff163373ffffffffffffffffffffffffffffffffffffffff1614611335576040517f08c379a000000000000000000000000000000000000000000000000000000000815260040161132c90612c90565b60405180910390fd5b8060058190555050565b600460009054906101000a900473ffffffffffffffffffffffffffffffffffffffff1681565b600061137b82600861206b90919063ffffffff16565b9050919050565b60016020528060005260406000206000915090508060000160009054906101000a900473ffffffffffffffffffffffffffffffffffffffff1690806001018054600181600116156101000203166002900480601f0160208091040260200160405190810160405280929190818152602001828054600181600116156101000203166002900480156114545780601f1061142957610100808354040283529160200191611454565b820191906000526020600020905b81548152906001019060200180831161143757829003601f168201915b5050505050908060020160009054906101000a900473ffffffffffffffffffffffffffffffffffffffff16908060020160149054906101000a900460ff16908060030154908060040154908060050154908060060160009054906101000a900473ffffffffffffffffffffffffffffffffffffffff16908060060160149054906101000a900460ff16905089565b60008060028111156114f057fe5b600360008573ffffffffffffffffffffffffffffffffffffffff1673ffffffffffffffffffffffffffffffffffffffff16815260200190815260200160002060008781526020019081526020016000206005015414611584576040517f08c379a000000000000000000000000000000000000000000000000000000000815260040161157b90612cd0565b60405180910390fd5b600073ffffffffffffffffffffffffffffffffffffffff168473ffffffffffffffffffffffffffffffffffffffff1614156115f4576040517f08c379a00000000000000000000000000000000000000000000000000000000081526004016115eb90612c30565b60405180910390fd5b6001600281111561160157fe5b600360008573ffffffffffffffffffffffffffffffffffffffff1673ffffffffffffffffffffffffffffffffffffffff16815260200190815260200160002060008781526020019081526020016000206005018190555060016000808573ffffffffffffffffffffffffffffffffffffffff1673ffffffffffffffffffffffffffffffffffffffff16815260200190815260200160002054016000808573ffffffffffffffffffffffffffffffffffffffff1673ffffffffffffffffffffffffffffffffffffffff16815260200190815260200160002081905550600660009054906101000a900473ffffffffffffffffffffffffffffffffffffffff1673ffffffffffffffffffffffffffffffffffffffff1663d0def52185846040518363ffffffff1660e01b8152600401611739929190612a2a565b602060405180830381600087803b15801561175357600080fd5b505af1158015611767573d6000803e3d6000fd5b505050506040513d601f19601f8201168201806040525081019061178b919061252c565b9050949350505050565b6000600554905090565b60008060008773ffffffffffffffffffffffffffffffffffffffff1673ffffffffffffffffffffffffffffffffffffffff1681526020019081526020016000206000815480929190600101919050555060008060008873ffffffffffffffffffffffffffffffffffffffff1673ffffffffffffffffffffffffffffffffffffffff1681526020019081526020016000205490506040518061012001604052808873ffffffffffffffffffffffffffffffffffffffff1681526020018781526020018673ffffffffffffffffffffffffffffffffffffffff168152602001851515815260200184815260200142815260200160055481526020013073ffffffffffffffffffffffffffffffffffffffff168152602001600115158152506001600083815260200190815260200160002060008201518160000160006101000a81548173ffffffffffffffffffffffffffffffffffffffff021916908373ffffffffffffffffffffffffffffffffffffffff1602179055506020820151816001019080519060200190611931929190612119565b5060408201518160020160006101000a81548173ffffffffffffffffffffffffffffffffffffffff021916908373ffffffffffffffffffffffffffffffffffffffff16021790555060608201518160020160146101000a81548160ff0219169083151502179055506080820151816003015560a0820151816004015560c0820151816005015560e08201518160060160006101000a81548173ffffffffffffffffffffffffffffffffffffffff021916908373ffffffffffffffffffffffffffffffffffffffff1602179055506101008201518160060160146101000a81548160ff021916908315150217905550905050808773ffffffffffffffffffffffffffffffffffffffff167fc3e23a3b0e2f891d627c5255e8f6d7d84b478d704b83bd597bd36d83d43b240488604051611a699190612bbe565b60405180910390a38091505095945050505050565b600080600760009054906101000a900473ffffffffffffffffffffffffffffffffffffffff1673ffffffffffffffffffffffffffffffffffffffff166370a08231336040518263ffffffff1660e01b8152600401611adc9190612986565b60206040518083038186803b158015611af457600080fd5b505afa158015611b08573d6000803e3d6000fd5b505050506040513d601f19601f82011682018060405250810190611b2c919061252c565b1015611b6d576040517f08c379a0000000000000000000000000000000000000000000000000000000008152600401611b6490612c10565b60405180910390fd5b6000600760009054906101000a900473ffffffffffffffffffffffffffffffffffffffff1673ffffffffffffffffffffffffffffffffffffffff1663dd62ed3e33306040518363ffffffff1660e01b8152600401611bcc9291906129a1565b60206040518083038186803b158015611be457600080fd5b505afa158015611bf8573d6000803e3d6000fd5b505050506040513d601f19601f82011682018060405250810190611c1c919061252c565b1015611c5d576040517f08c379a0000000000000000000000000000000000000000000000000000000008152600401611c5490612d30565b60405180910390fd5b600760009054906101000a900473ffffffffffffffffffffffffffffffffffffffff1673ffffffffffffffffffffffffffffffffffffffff166323b872dd33306005546040518463ffffffff1660e01b8152600401611cbe939291906129ca565b602060405180830381600087803b158015611cd857600080fd5b505af1158015611cec573d6000803e3d6000fd5b505050506040513d601f19601f82011682018060405250810190611d109190612403565b611d4f576040517f08c379a0000000000000000000000000000000000000000000000000000000008152600401611d4690612c50565b60405180910390fd5b6000600260008773ffffffffffffffffffffffffffffffffffffffff1673ffffffffffffffffffffffffffffffffffffffff1681526020019081526020016000205490506040518061010001604052803373ffffffffffffffffffffffffffffffffffffffff1681526020018681526020018773ffffffffffffffffffffffffffffffffffffffff16815260200188815260200185815260200160006002811115611df657fe5b815260200142815260200184815250600360008873ffffffffffffffffffffffffffffffffffffffff1673ffffffffffffffffffffffffffffffffffffffff168152602001908152602001600020600083815260200190815260200160002060008201518160000160006101000a81548173ffffffffffffffffffffffffffffffffffffffff021916908373ffffffffffffffffffffffffffffffffffffffff1602179055506020820151816001019080519060200190611eb8929190612119565b5060408201518160020160006101000a81548173ffffffffffffffffffffffffffffffffffffffff021916908373ffffffffffffffffffffffffffffffffffffffff1602179055506060820151816003019080519060200190611f1c929190612119565b506080820151816004019080519060200190611f39929190612119565b5060a0820151816005015560c0820151816006015560e0820151816007019080519060200190611f6a929190612119565b50905050600260008773ffffffffffffffffffffffffffffffffffffffff1673ffffffffffffffffffffffffffffffffffffffff1681526020019081526020016000206000815480929190600101919050555084604051611fcb9190612954565b60405180910390203373ffffffffffffffffffffffffffffffffffffffff167f0a007e579f0793671747216eab1061026d102ff0f66e876d2edaa6277ad53e66868460405161201b929190612be0565b60405180910390a38091505095945050505050565b600760009054906101000a900473ffffffffffffffffffffffffffffffffffffffff1681565b600061206482600001612085565b9050919050565b600061207a8360000183612096565b60001c905092915050565b600081600001805490509050919050565b6000818360000180549050116120f7576040517f08c379a0000000000000000000000000000000000000000000000000000000008152600401808060200182810382526022815260200180612f596022913960400191505060405180910390fd5b82600001828154811061210657fe5b9060005260206000200154905092915050565b828054600181600116156101000203166002900490600052602060002090601f01602090048101928261214f5760008555612196565b82601f1061216857805160ff1916838001178555612196565b82800160010185558215612196579182015b8281111561219557825182559160200191906001019061217a565b5b5090506121a391906121a7565b5090565b5b808211156121c05760008160009055506001016121a8565b5090565b60006121d76121d284612d9c565b612d6b565b9050828152602081018484840111156121ef57600080fd5b6121fa848285612ea7565b509392505050565b60008135905061221181612efc565b92915050565b60008135905061222681612f13565b92915050565b60008135905061223b81612f2a565b92915050565b60008151905061225081612f2a565b92915050565b600082601f83011261226757600080fd5b81356122778482602086016121c4565b91505092915050565b60008135905061228f81612f41565b92915050565b6000815190506122a481612f41565b92915050565b6000602082840312156122bc57600080fd5b60006122ca84828501612202565b91505092915050565b6000602082840312156122e557600080fd5b60006122f384828501612217565b91505092915050565b6000806040838503121561230f57600080fd5b600061231d85828601612217565b925050602061232e85828601612202565b9150509250929050565b600080600080600060a0868803121561235057600080fd5b600061235e88828901612202565b955050602086013567ffffffffffffffff81111561237b57600080fd5b61238788828901612256565b945050604061239888828901612202565b93505060606123a98882890161222c565b92505060806123ba88828901612280565b9150509295509295909350565b600080604083850312156123da57600080fd5b60006123e885828601612202565b92505060206123f985828601612280565b9150509250929050565b60006020828403121561241557600080fd5b600061242384828501612241565b91505092915050565b600080600080600060a0868803121561244457600080fd5b600086013567ffffffffffffffff81111561245e57600080fd5b61246a88828901612256565b955050602061247b88828901612202565b945050604086013567ffffffffffffffff81111561249857600080fd5b6124a488828901612256565b935050606086013567ffffffffffffffff8111156124c157600080fd5b6124cd88828901612256565b925050608086013567ffffffffffffffff8111156124ea57600080fd5b6124f688828901612256565b9150509295509295909350565b60006020828403121561251557600080fd5b600061252384828501612280565b91505092915050565b60006020828403121561253e57600080fd5b600061254c84828501612295565b91505092915050565b6000806000806080858703121561256b57600080fd5b600061257987828801612280565b945050602061258a87828801612202565b935050604061259b87828801612202565b925050606085013567ffffffffffffffff8111156125b857600080fd5b6125c487828801612256565b91505092959194509250565b6000806000606084860312156125e557600080fd5b60006125f386828701612280565b935050602061260486828701612280565b925050604061261586828701612280565b9150509250925092565b61262881612e4d565b82525050565b61263781612df3565b82525050565b61264681612e17565b82525050565b61265581612e5f565b82525050565b600061266682612dcc565b6126708185612dd7565b9350612680818560208601612eb6565b61268981612eeb565b840191505092915050565b600061269f82612dcc565b6126a98185612de8565b93506126b9818560208601612eb6565b80840191505092915050565b60006126d2601583612dd7565b91507f496e76616c696420746f6b656e2062616c616e636500000000000000000000006000830152602082019050919050565b6000612712600f83612dd7565b91507f496e76616c6964206164647265737300000000000000000000000000000000006000830152602082019050919050565b6000612752601783612dd7565b91507f5472616e73666572206661696c656420666f72206665650000000000000000006000830152602082019050919050565b6000612792601b83612dd7565b91507f4d75737420686176652061207061796d656e74206164647265737300000000006000830152602082019050919050565b60006127d2600c83612dd7565b91507f494e56414c49445f5553455200000000000000000000000000000000000000006000830152602082019050919050565b6000612812601e83612dd7565b91507f5472616e73666572206661696c656420666f72206261736520746f6b656e00006000830152602082019050919050565b6000612852601c83612dd7565b91507f446f63756d656e74207769746820696e76616c696420737461747573000000006000830152602082019050919050565b6000612892601b83612dd7565b91507f4d757374206861766520736574206120736572766963652066656500000000006000830152602082019050919050565b60006128d2601d83612dd7565b91507f4d757374206861766520736574206120666565207374727563747572650000006000830152602082019050919050565b6000612912601783612dd7565b91507f496e76616c696420746f6b656e20616c6c6f77616e63650000000000000000006000830152602082019050919050565b61294e81612e43565b82525050565b60006129608284612694565b915081905092915050565b6000602082019050612980600083018461262e565b92915050565b600060208201905061299b600083018461261f565b92915050565b60006040820190506129b6600083018561261f565b6129c3602083018461262e565b9392505050565b60006060820190506129df600083018661261f565b6129ec602083018561262e565b6129f96040830184612945565b949350505050565b6000604082019050612a16600083018561261f565b612a236020830184612945565b9392505050565b6000604082019050612a3f600083018561262e565b8181036020830152612a51818461265b565b90509392505050565b600061012082019050612a70600083018c61262e565b8181036020830152612a82818b61265b565b9050612a91604083018a61262e565b612a9e606083018961263d565b612aab6080830188612945565b612ab860a0830187612945565b612ac560c0830186612945565b612ad260e083018561262e565b612ae061010083018461263d565b9a9950505050505050505050565b600061010082019050612b04600083018b61262e565b8181036020830152612b16818a61265b565b9050612b25604083018961262e565b8181036060830152612b37818861265b565b90508181036080830152612b4b818761265b565b9050612b5a60a0830186612945565b612b6760c0830185612945565b81810360e0830152612b79818461265b565b90509998505050505050505050565b6000602082019050612b9d600083018461263d565b92915050565b6000602082019050612bb8600083018461264c565b92915050565b60006020820190508181036000830152612bd8818461265b565b905092915050565b60006040820190508181036000830152612bfa818561265b565b9050612c096020830184612945565b9392505050565b60006020820190508181036000830152612c29816126c5565b9050919050565b60006020820190508181036000830152612c4981612705565b9050919050565b60006020820190508181036000830152612c6981612745565b9050919050565b60006020820190508181036000830152612c8981612785565b9050919050565b60006020820190508181036000830152612ca9816127c5565b9050919050565b60006020820190508181036000830152612cc981612805565b9050919050565b60006020820190508181036000830152612ce981612845565b9050919050565b60006020820190508181036000830152612d0981612885565b9050919050565b60006020820190508181036000830152612d29816128c5565b9050919050565b60006020820190508181036000830152612d4981612905565b9050919050565b6000602082019050612d656000830184612945565b92915050565b6000604051905081810181811067ffffffffffffffff82111715612d9257612d91612ee9565b5b8060405250919050565b600067ffffffffffffffff821115612db757612db6612ee9565b5b601f19601f8301169050602081019050919050565b600081519050919050565b600082825260208201905092915050565b600081905092915050565b6000612dfe82612e23565b9050919050565b6000612e1082612e23565b9050919050565b60008115159050919050565b600073ffffffffffffffffffffffffffffffffffffffff82169050919050565b6000819050919050565b6000612e5882612e83565b9050919050565b6000612e6a82612e71565b9050919050565b6000612e7c82612e23565b9050919050565b6000612e8e82612e95565b9050919050565b6000612ea082612e23565b9050919050565b82818337600083830152505050565b60005b83811015612ed4578082015181840152602081019050612eb9565b83811115612ee3576000848401525b50505050565bfe5b6000601f19601f8301169050919050565b612f0581612df3565b8114612f1057600080fd5b50565b612f1c81612e05565b8114612f2757600080fd5b50565b612f3381612e17565b8114612f3e57600080fd5b50565b612f4a81612e43565b8114612f5557600080fd5b5056fe456e756d657261626c655365743a20696e646578206f7574206f6620626f756e6473a2646970667358221220f55e66c70a9a8de44890df888dfc522ba0a048299533719baef6737a15d24d5c64736f6c63430007060033",
  "immutableReferences": {},
  "source": "pragma solidity ^0.7.0;\npragma experimental ABIEncoderV2;\n\nimport \"./XDV.sol\";\nimport \"./MinterCore.sol\";\nimport \"@openzeppelin/contracts/utils/EnumerableSet.sol\";\nimport \"@openzeppelin/contracts/math/SafeMath.sol\";\nimport \"@openzeppelin/contracts/utils/Address.sol\";\nimport \"./ERC20Interface.sol\";\n\ncontract XDVController is MinterCore {\n    using EnumerableSet for EnumerableSet.AddressSet;\n    using SafeMath for uint256;\n    using Address for address payable;\n\n    event Withdrawn(address indexed payee, uint256 weiAmount);\n    address public owner;\n    uint256 fee;\n    XDV private platformToken;\n    ERC20Interface public token;\n\n    // minters\n    EnumerableSet.AddressSet internal minters;\n\n    constructor(address stablecoin, address xdv)  {\n        token = ERC20Interface(stablecoin);\n        platformToken = XDV(xdv);\n        owner = msg.sender;\n    }\n\n    function setProtocolFee(uint256 _fee) public {\n        require(msg.sender == owner, \"INVALID_USER\");\n        fee = _fee;\n    }\n\n    function getProtocolFee() public returns (uint256) {\n        return fee;\n    }\n\n    function withdraw(address payable payee) public {\n        require(msg.sender == owner, \"INVALID_USER\");\n        uint256 b = address(this).balance;\n\n\n        emit Withdrawn(payee, b);\n    }\n\n    function withdrawToken(address payable payee, address erc20token) public {\n        require(msg.sender == owner, \"INVALID_USER\");\n        uint256 balance = ERC20Interface(erc20token).balanceOf(address(this));\n\n        // Transfer tokens to pay service fee\n        require(\n            ERC20Interface(erc20token).transfer(\n                payee, \n                balance),\n            \"Transfer failed for base token\"\n        );\n\n        emit Withdrawn(payee, balance);\n    }\n\n    /**\n    * User requests anchored document to be process \n     */\n   function requestDataProviderService(\n        string memory minterDid,\n        address minterAddress,\n        string memory userDid,\n        string memory documentURI,\n        string memory description\n    ) public payable returns(uint){\n\n        // User must have a balance\n        require(\n            token.balanceOf(msg.sender) >= 0,\n            \"Invalid token balance\"\n        );\n        // User must have an allowance\n        require(\n            token.allowance(msg.sender, address(this)) >= 0,\n            \"Invalid token allowance\"\n        );\n\n\n        require(\n            token.transferFrom(\n                msg.sender,\n                address(this), \n                fee),\n            \"Transfer failed for fee\"\n        );\n\n        // accounting[msg.sender] = accounting[msg.sender] + fee;\n        // accounting[address(this)] = accounting[address(this)] + fee;\n\n        uint i = minterDocumentRequestCounter[minterAddress];\n            \n        // Assign request to minter\n        // We should move to use XDV Worker Protocol\n        minterDocumentRequests[minterAddress][i] = DocumentMintingRequest({\n            user: msg.sender, \n            userDid: userDid,\n            documentURI: documentURI,\n            status: uint(DocumentMintingRequestStatus.REQUEST),\n            description: description,\n            toMinterDid: minterDid,\n            toMinter: minterAddress,\n            timestamp: block.timestamp\n        });\n        minterDocumentRequestCounter[minterAddress]++;\n\n        emit DocumentAnchored(msg.sender, userDid, documentURI, i);\n        return i;\n    }\n\n\n    /**\n    *  @dev Mints a platform token.\n     */\n   function mint(\n       uint requestId,\n       address user, \n       address dataProvider,\n       string memory tokenURI\n    )\n        public\n        returns (uint256)\n    {\n        require(minterDocumentRequests[dataProvider][requestId].status == uint(DocumentMintingRequestStatus.REQUEST), \"Document with invalid status\" );\n        require(user != address(0), \"Invalid address\");\n\n       // updates a request\n        minterDocumentRequests[dataProvider][requestId]\n        .status = uint(DocumentMintingRequestStatus.MINTED);\n        \n        minterCounter[dataProvider] = minterCounter[dataProvider] + 1;\n        return platformToken.mint(user, tokenURI);\n    }   \n\n    /**\n    *  @dev Burns a platform token.\n     */\n    function burn(uint requestId, uint dataProviderId, uint tokenId)\n        public\n        payable\n        returns (bool)\n    {\n\n        // User must have a balance\n        require(\n            token.balanceOf(msg.sender) >= 0,\n            \"Invalid token balance\"\n        );\n        // User must have an allowance\n        require(\n            token.allowance(msg.sender, address(this)) >= 0,\n            \"Invalid token allowance\"\n        );\n\n        /* require(\n            token.balanceOf(msg.sender) == (mintingServiceFee.sum(protocolServiceFee)), \n            \"MUST SEND FEE BEFORE USE\");\n        */\n\n        DataProviderMinter memory dataProvider = dataProviderMinters[dataProviderId];\n\n        require(\n            dataProvider.feeStructure > 0,\n            \"Must have set a fee structure\"\n        );\n        require(\n            dataProvider.paymentAddress != address(0),\n            \"Must have a payment address\"\n        );\n        require(\n            dataProvider.serviceFee > 0,\n            \"Must have set a service fee\"\n        );\n        platformToken.burn(tokenId);\n\n        // TODO: Update accounting\n        //  - create mappings to data provider accounting\n        //  - create mappings to protocol fee accounting\n        // Transfer tokens to NFT owner\n        require(\n            token.transferFrom(\n                msg.sender, \n                dataProvider.paymentAddress, \n                dataProvider.feeStructure),\n            \"Transfer failed for base token\"\n        );\n\n        // Transfer tokens to pay service fee\n        require(\n            token.transferFrom(\n                msg.sender, \n                address(this), \n                dataProvider.serviceFee),\n            \"Transfer failed for base token\"\n        );\n\n        // TODO desplegar el fee de burn\n        if (requestId > 0) {\n            minterDocumentRequests[dataProvider.minterAddress][requestId]\n            .status = uint(DocumentMintingRequestStatus.BURNED);\n        }\n        \n\n        return true;\n    }       \n\n    /**\n    * @dev Registers a data tokenization service\n    *\n     */\n    function registerMinter(\n        address minter,\n        string memory name, \n        address paymentAddress,\n        bool userHasKyc,\n        uint feeStructure)\n        public\n        returns (uint)\n    {\n \n      minterCounter[minter]++;\n        uint i = minterCounter[minter];\n            \n        dataProviderMinters[i] = DataProviderMinter({\n            minterAddress: minter, \n            name: name,\n            paymentAddress: paymentAddress,\n            hasUserKyc: userHasKyc,\n            feeStructure: feeStructure,\n            created: block.timestamp,\n            serviceFee: fee,\n            factoryAddress: address(this),\n            enabled: true\n        });\n\n        // whitelist\n//        platformToken.setWhitelistedMinter(msg.sender, false);\n\n        emit MinterRegistered(minter, i, name);\n        return i;\n    }\n\n    function count() public view returns (uint256) {\n        return minters.length();\n    }\n\n    function get(uint256 index) public view returns (address) {\n        return minters.at(index);\n    }\n}\n",
  "sourcePath": "/home/edgar/Documents/code/IFESA/nft-document-swap/contracts/XDVController.sol",
  "compiler": {
    "name": "solc",
    "version": "0.7.6+commit.7338295f.Emscripten.clang"
  },
  "schemaVersion": "3.3.4",
  "updatedAt": "2021-02-23T22:33:39.773Z",
  "devdoc": {
    "kind": "dev",
    "methods": {
      "burn(uint256,uint256,uint256)": {
        "details": "Burns a platform token."
      },
      "mint(uint256,address,address,string)": {
        "details": "Mints a platform token."
      },
      "registerMinter(address,string,address,bool,uint256)": {
        "details": "Registers a data tokenization service"
      }
    },
    "version": 1
  },
  "userdoc": {
    "kind": "user",
    "methods": {
      "requestDataProviderService(string,address,string,string,string)": {
        "notice": "User requests anchored document to be process "
      }
    },
    "version": 1
  }
}