{
  "contractName": "XDVController",
  "abi": [
    {
      "inputs": [
        {
          "internalType": "address",
          "name": "stablecoin",
          "type": "address"
        },
        {
          "internalType": "address",
          "name": "xdv",
          "type": "address"
        }
      ],
      "stateMutability": "nonpayable",
      "type": "constructor"
    },
    {
      "anonymous": false,
      "inputs": [
        {
          "indexed": true,
          "internalType": "address",
          "name": "minter",
          "type": "address"
        },
        {
          "indexed": true,
          "internalType": "uint256",
          "name": "id",
          "type": "uint256"
        },
        {
          "indexed": false,
          "internalType": "string",
          "name": "name",
          "type": "string"
        },
        {
          "indexed": true,
          "internalType": "string",
          "name": "symbol",
          "type": "string"
        }
      ],
      "name": "MinterRegistered",
      "type": "event"
    },
    {
      "anonymous": false,
      "inputs": [
        {
          "indexed": true,
          "internalType": "address",
          "name": "payee",
          "type": "address"
        },
        {
          "indexed": false,
          "internalType": "uint256",
          "name": "weiAmount",
          "type": "uint256"
        }
      ],
      "name": "Withdrawn",
      "type": "event"
    },
    {
      "inputs": [
        {
          "internalType": "address",
          "name": "minter",
          "type": "address"
        },
        {
          "internalType": "string",
          "name": "name",
          "type": "string"
        },
        {
          "internalType": "string",
          "name": "symbol",
          "type": "string"
        },
        {
          "internalType": "address",
          "name": "paymentAddress",
          "type": "address"
        },
        {
          "internalType": "bool",
          "name": "hasUserKyc",
          "type": "bool"
        },
        {
          "internalType": "uint256",
          "name": "feeStructure",
          "type": "uint256"
        },
        {
          "internalType": "uint256",
          "name": "serviceFee",
          "type": "uint256"
        },
        {
          "internalType": "address",
          "name": "factoryAddress",
          "type": "address"
        }
      ],
      "name": "addToRegistry",
      "outputs": [
        {
          "internalType": "uint256",
          "name": "",
          "type": "uint256"
        }
      ],
      "stateMutability": "nonpayable",
      "type": "function"
    },
    {
      "inputs": [
        {
          "internalType": "uint256",
          "name": "",
          "type": "uint256"
        }
      ],
      "name": "dataProviderMinters",
      "outputs": [
        {
          "internalType": "address",
          "name": "minterAddress",
          "type": "address"
        },
        {
          "internalType": "string",
          "name": "name",
          "type": "string"
        },
        {
          "internalType": "string",
          "name": "symbol",
          "type": "string"
        },
        {
          "internalType": "address",
          "name": "paymentAddress",
          "type": "address"
        },
        {
          "internalType": "bool",
          "name": "hasUserKyc",
          "type": "bool"
        },
        {
          "internalType": "uint256",
          "name": "feeStructure",
          "type": "uint256"
        },
        {
          "internalType": "uint256",
          "name": "created",
          "type": "uint256"
        },
        {
          "internalType": "uint256",
          "name": "serviceFee",
          "type": "uint256"
        },
        {
          "internalType": "address",
          "name": "factoryAddress",
          "type": "address"
        },
        {
          "internalType": "bool",
          "name": "enabled",
          "type": "bool"
        }
      ],
      "stateMutability": "view",
      "type": "function"
    },
    {
      "inputs": [
        {
          "internalType": "address",
          "name": "",
          "type": "address"
        }
      ],
      "name": "minterCounter",
      "outputs": [
        {
          "internalType": "uint256",
          "name": "",
          "type": "uint256"
        }
      ],
      "stateMutability": "view",
      "type": "function"
    },
    {
      "inputs": [
        {
          "internalType": "address",
          "name": "",
          "type": "address"
        }
      ],
      "name": "minterDocumentRequestCounter",
      "outputs": [
        {
          "internalType": "uint256",
          "name": "",
          "type": "uint256"
        }
      ],
      "stateMutability": "view",
      "type": "function"
    },
    {
      "inputs": [
        {
          "internalType": "address",
          "name": "",
          "type": "address"
        },
        {
          "internalType": "uint256",
          "name": "",
          "type": "uint256"
        }
      ],
      "name": "minterDocumentRequests",
      "outputs": [
        {
          "internalType": "address",
          "name": "user",
          "type": "address"
        },
        {
          "internalType": "string",
          "name": "userDid",
          "type": "string"
        },
        {
          "internalType": "address",
          "name": "toMinter",
          "type": "address"
        },
        {
          "internalType": "string",
          "name": "toMinterDid",
          "type": "string"
        },
        {
          "internalType": "string",
          "name": "documentURI",
          "type": "string"
        },
        {
          "internalType": "uint256",
          "name": "status",
          "type": "uint256"
        },
        {
          "internalType": "string",
          "name": "description",
          "type": "string"
        }
      ],
      "stateMutability": "view",
      "type": "function"
    },
    {
      "inputs": [],
      "name": "owner",
      "outputs": [
        {
          "internalType": "address",
          "name": "",
          "type": "address"
        }
      ],
      "stateMutability": "view",
      "type": "function"
    },
    {
      "inputs": [],
      "name": "token",
      "outputs": [
        {
          "internalType": "contract ERC20Interface",
          "name": "",
          "type": "address"
        }
      ],
      "stateMutability": "view",
      "type": "function"
    },
    {
      "inputs": [
        {
          "internalType": "uint256",
          "name": "_fee",
          "type": "uint256"
        }
      ],
      "name": "setProtocolFee",
      "outputs": [],
      "stateMutability": "nonpayable",
      "type": "function"
    },
    {
      "inputs": [],
      "name": "getProtocolFee",
      "outputs": [
        {
          "internalType": "uint256",
          "name": "",
          "type": "uint256"
        }
      ],
      "stateMutability": "nonpayable",
      "type": "function"
    },
    {
      "inputs": [
        {
          "internalType": "address payable",
          "name": "payee",
          "type": "address"
        }
      ],
      "name": "withdraw",
      "outputs": [],
      "stateMutability": "nonpayable",
      "type": "function"
    },
    {
      "inputs": [
        {
          "internalType": "address payable",
          "name": "payee",
          "type": "address"
        },
        {
          "internalType": "address",
          "name": "token",
          "type": "address"
        }
      ],
      "name": "withdrawToken",
      "outputs": [],
      "stateMutability": "nonpayable",
      "type": "function"
    },
    {
      "inputs": [
        {
          "internalType": "address",
          "name": "user",
          "type": "address"
        },
        {
          "internalType": "string",
          "name": "tokenURI",
          "type": "string"
        }
      ],
      "name": "mint",
      "outputs": [
        {
          "internalType": "uint256",
          "name": "",
          "type": "uint256"
        }
      ],
      "stateMutability": "nonpayable",
      "type": "function"
    },
    {
      "inputs": [
        {
          "internalType": "uint256",
          "name": "requestId",
          "type": "uint256"
        },
        {
          "internalType": "uint256",
          "name": "tokenId",
          "type": "uint256"
        }
      ],
      "name": "burn",
      "outputs": [
        {
          "internalType": "bool",
          "name": "",
          "type": "bool"
        }
      ],
      "stateMutability": "payable",
      "type": "function"
    },
    {
      "inputs": [
        {
          "internalType": "address",
          "name": "minter",
          "type": "address"
        },
        {
          "internalType": "string",
          "name": "name",
          "type": "string"
        },
        {
          "internalType": "string",
          "name": "symbol",
          "type": "string"
        },
        {
          "internalType": "address",
          "name": "paymentAddress",
          "type": "address"
        },
        {
          "internalType": "bool",
          "name": "userHasKyc",
          "type": "bool"
        },
        {
          "internalType": "uint256",
          "name": "feeStructure",
          "type": "uint256"
        }
      ],
      "name": "registerMinter",
      "outputs": [
        {
          "internalType": "address",
          "name": "",
          "type": "address"
        }
      ],
      "stateMutability": "nonpayable",
      "type": "function"
    },
    {
      "inputs": [],
      "name": "count",
      "outputs": [
        {
          "internalType": "uint256",
          "name": "",
          "type": "uint256"
        }
      ],
      "stateMutability": "view",
      "type": "function"
    },
    {
      "inputs": [
        {
          "internalType": "uint256",
          "name": "index",
          "type": "uint256"
        }
      ],
      "name": "get",
      "outputs": [
        {
          "internalType": "address",
          "name": "",
          "type": "address"
        }
      ],
      "stateMutability": "view",
      "type": "function"
    }
  ],
  "bytecode": "0x60806040523480156200001157600080fd5b506040516200294038038062002940833981810160405281019062000037919062000119565b81600760006101000a81548173ffffffffffffffffffffffffffffffffffffffff021916908373ffffffffffffffffffffffffffffffffffffffff16021790555080600660006101000a81548173ffffffffffffffffffffffffffffffffffffffff021916908373ffffffffffffffffffffffffffffffffffffffff16021790555033600460006101000a81548173ffffffffffffffffffffffffffffffffffffffff021916908373ffffffffffffffffffffffffffffffffffffffff1602179055505050620001a8565b60008151905062000113816200018e565b92915050565b600080604083850312156200012d57600080fd5b60006200013d8582860162000102565b9250506020620001508582860162000102565b9150509250929050565b600062000167826200016e565b9050919050565b600073ffffffffffffffffffffffffffffffffffffffff82169050919050565b62000199816200015a565b8114620001a557600080fd5b50565b61278880620001b86000396000f3fe6080604052600436106100f35760003560e01c80639507d39a1161008a578063a5a4103111610059578063a5a4103114610383578063b390c0ab146103ae578063d0def521146103de578063fc0c546a1461041b576100f3565b80639507d39a14610286578063967426ff146102c35780639aa94ba5146103095780639f070bd014610346576100f3565b80636efaa699116100c65780636efaa699146101b2578063761901bb146101f5578063787dce3d146102325780638da5cb5b1461025b576100f3565b806306661abd146100f85780632aa222c8146101235780633aeac4e11461016057806351cff8d914610189575b600080fd5b34801561010457600080fd5b5061010d610446565b60405161011a91906124f9565b60405180910390f35b34801561012f57600080fd5b5061014a60048036038101906101459190611d54565b610457565b60405161015791906124f9565b60405180910390f35b34801561016c57600080fd5b5061018760048036038101906101829190611da6565b61046f565b005b34801561019557600080fd5b506101b060048036038101906101ab9190611d7d565b610608565b005b3480156101be57600080fd5b506101d960048036038101906101d49190611fd1565b610718565b6040516101ec979695949392919061230e565b60405180910390f35b34801561020157600080fd5b5061021c60048036038101906102179190611d54565b610a07565b60405161022991906124f9565b60405180910390f35b34801561023e57600080fd5b5061025960048036038101906102549190612036565b610a1f565b005b34801561026757600080fd5b50610270610ab9565b60405161027d9190612248565b60405180910390f35b34801561029257600080fd5b506102ad60048036038101906102a89190612036565b610adf565b6040516102ba9190612248565b60405180910390f35b3480156102cf57600080fd5b506102ea60048036038101906102e59190612036565b610afc565b6040516103009a99989796959493929190612399565b60405180910390f35b34801561031557600080fd5b50610330600480360381019061032b9190611eef565b610cfa565b60405161033d91906124f9565b60405180910390f35b34801561035257600080fd5b5061036d60048036038101906103689190611e36565b6110c4565b60405161037a9190612248565b60405180910390f35b34801561038f57600080fd5b506103986110e6565b6040516103a591906124f9565b60405180910390f35b6103c860048036038101906103c39190612088565b6110f0565b6040516103d59190612443565b60405180910390f35b3480156103ea57600080fd5b5061040560048036038101906104009190611de2565b6118e7565b60405161041291906124f9565b60405180910390f35b34801561042757600080fd5b506104306119a0565b60405161043d919061245e565b60405180910390f35b600061045260086119c6565b905090565b60026020528060005260406000206000915090505481565b600460009054906101000a900473ffffffffffffffffffffffffffffffffffffffff1673ffffffffffffffffffffffffffffffffffffffff163373ffffffffffffffffffffffffffffffffffffffff16146104ff576040517f08c379a00000000000000000000000000000000000000000000000000000000081526004016104f690612499565b60405180910390fd5b60008173ffffffffffffffffffffffffffffffffffffffff166370a08231306040518263ffffffff1660e01b815260040161053a9190612248565b60206040518083038186803b15801561055257600080fd5b505afa158015610566573d6000803e3d6000fd5b505050506040513d601f19601f8201168201806040525081019061058a919061205f565b90506105b5818473ffffffffffffffffffffffffffffffffffffffff166119db90919063ffffffff16565b8273ffffffffffffffffffffffffffffffffffffffff167f7084f5476618d8e60b11ef0d7d3f06914655adb8793e28ff7f018d4c76d505d5826040516105fb91906124f9565b60405180910390a2505050565b600460009054906101000a900473ffffffffffffffffffffffffffffffffffffffff1673ffffffffffffffffffffffffffffffffffffffff163373ffffffffffffffffffffffffffffffffffffffff1614610698576040517f08c379a000000000000000000000000000000000000000000000000000000000815260040161068f90612499565b60405180910390fd5b60004790506106c6478373ffffffffffffffffffffffffffffffffffffffff166119db90919063ffffffff16565b8173ffffffffffffffffffffffffffffffffffffffff167f7084f5476618d8e60b11ef0d7d3f06914655adb8793e28ff7f018d4c76d505d58260405161070c91906124f9565b60405180910390a25050565b6003602052816000526040600020602052806000526040600020600091509150508060000160009054906101000a900473ffffffffffffffffffffffffffffffffffffffff1690806001018054600181600116156101000203166002900480601f0160208091040260200160405190810160405280929190818152602001828054600181600116156101000203166002900480156107f75780601f106107cc576101008083540402835291602001916107f7565b820191906000526020600020905b8154815290600101906020018083116107da57829003601f168201915b5050505050908060020160009054906101000a900473ffffffffffffffffffffffffffffffffffffffff1690806003018054600181600116156101000203166002900480601f0160208091040260200160405190810160405280929190818152602001828054600181600116156101000203166002900480156108bb5780601f10610890576101008083540402835291602001916108bb565b820191906000526020600020905b81548152906001019060200180831161089e57829003601f168201915b505050505090806004018054600181600116156101000203166002900480601f0160208091040260200160405190810160405280929190818152602001828054600181600116156101000203166002900480156109595780601f1061092e57610100808354040283529160200191610959565b820191906000526020600020905b81548152906001019060200180831161093c57829003601f168201915b505050505090806005015490806006018054600181600116156101000203166002900480601f0160208091040260200160405190810160405280929190818152602001828054600181600116156101000203166002900480156109fd5780601f106109d2576101008083540402835291602001916109fd565b820191906000526020600020905b8154815290600101906020018083116109e057829003601f168201915b5050505050905087565b60006020528060005260406000206000915090505481565b600460009054906101000a900473ffffffffffffffffffffffffffffffffffffffff1673ffffffffffffffffffffffffffffffffffffffff163373ffffffffffffffffffffffffffffffffffffffff1614610aaf576040517f08c379a0000000000000000000000000000000000000000000000000000000008152600401610aa690612499565b60405180910390fd5b8060058190555050565b600460009054906101000a900473ffffffffffffffffffffffffffffffffffffffff1681565b6000610af5826008611b1590919063ffffffff16565b9050919050565b60016020528060005260406000206000915090508060000160009054906101000a900473ffffffffffffffffffffffffffffffffffffffff1690806001018054600181600116156101000203166002900480601f016020809104026020016040519081016040528092919081815260200182805460018160011615610100020316600290048015610bce5780601f10610ba357610100808354040283529160200191610bce565b820191906000526020600020905b815481529060010190602001808311610bb157829003601f168201915b505050505090806002018054600181600116156101000203166002900480601f016020809104026020016040519081016040528092919081815260200182805460018160011615610100020316600290048015610c6c5780601f10610c4157610100808354040283529160200191610c6c565b820191906000526020600020905b815481529060010190602001808311610c4f57829003601f168201915b5050505050908060030160009054906101000a900473ffffffffffffffffffffffffffffffffffffffff16908060030160149054906101000a900460ff16908060040154908060050154908060060154908060070160009054906101000a900473ffffffffffffffffffffffffffffffffffffffff16908060070160149054906101000a900460ff1690508a565b60008060008a73ffffffffffffffffffffffffffffffffffffffff1673ffffffffffffffffffffffffffffffffffffffff1681526020019081526020016000206000815480929190600101919050555060008060008b73ffffffffffffffffffffffffffffffffffffffff1673ffffffffffffffffffffffffffffffffffffffff1681526020019081526020016000205490506040518061014001604052808b73ffffffffffffffffffffffffffffffffffffffff1681526020018a81526020018981526020018873ffffffffffffffffffffffffffffffffffffffff16815260200187151581526020018681526020014281526020018581526020018473ffffffffffffffffffffffffffffffffffffffff168152602001600115158152506001600083815260200190815260200160002060008201518160000160006101000a81548173ffffffffffffffffffffffffffffffffffffffff021916908373ffffffffffffffffffffffffffffffffffffffff1602179055506020820151816001019080519060200190610e90929190611bc3565b506040820151816002019080519060200190610ead929190611bc3565b5060608201518160030160006101000a81548173ffffffffffffffffffffffffffffffffffffffff021916908373ffffffffffffffffffffffffffffffffffffffff16021790555060808201518160030160146101000a81548160ff02191690831515021790555060a0820151816004015560c0820151816005015560e082015181600601556101008201518160070160006101000a81548173ffffffffffffffffffffffffffffffffffffffff021916908373ffffffffffffffffffffffffffffffffffffffff1602179055506101208201518160070160146101000a81548160ff021916908315150217905550905050876040518082805190602001908083835b60208310610fd35780518252602082019150602081019050602083039250610fb0565b6001836020036101000a0380198251168184511680821785525050505050509050019150506040518091039020818b73ffffffffffffffffffffffffffffffffffffffff167f27cbb566eb604924251497b674c4c5afaa8275d5ef452d9dd86cdd6e0ada15ca8c6040518080602001828103825283818151815260200191508051906020019080838360005b8381101561107a57808201518184015260208101905061105f565b50505050905090810190601f1680156110a75780820380516001836020036101000a031916815260200191505b509250505060405180910390a48091505098975050505050505050565b60006110d887878787878760055430610cfa565b508690509695505050505050565b6000600554905090565b600080600760009054906101000a900473ffffffffffffffffffffffffffffffffffffffff1673ffffffffffffffffffffffffffffffffffffffff166370a08231336040518263ffffffff1660e01b815260040161114e9190612263565b60206040518083038186803b15801561116657600080fd5b505afa15801561117a573d6000803e3d6000fd5b505050506040513d601f19601f8201168201806040525081019061119e919061205f565b10156111df576040517f08c379a00000000000000000000000000000000000000000000000000000000081526004016111d690612479565b60405180910390fd5b6000600760009054906101000a900473ffffffffffffffffffffffffffffffffffffffff1673ffffffffffffffffffffffffffffffffffffffff1663dd62ed3e33306040518363ffffffff1660e01b815260040161123e92919061227e565b60206040518083038186803b15801561125657600080fd5b505afa15801561126a573d6000803e3d6000fd5b505050506040513d601f19601f8201168201806040525081019061128e919061205f565b10156112cf576040517f08c379a00000000000000000000000000000000000000000000000000000000081526004016112c6906124d9565b60405180910390fd5b60008060003073ffffffffffffffffffffffffffffffffffffffff1673ffffffffffffffffffffffffffffffffffffffff168152602001908152602001600020549050600060016000838152602001908152602001600020604051806101400160405290816000820160009054906101000a900473ffffffffffffffffffffffffffffffffffffffff1673ffffffffffffffffffffffffffffffffffffffff1673ffffffffffffffffffffffffffffffffffffffff168152602001600182018054600181600116156101000203166002900480601f0160208091040260200160405190810160405280929190818152602001828054600181600116156101000203166002900480156114225780601f106113f757610100808354040283529160200191611422565b820191906000526020600020905b81548152906001019060200180831161140557829003601f168201915b50505050508152602001600282018054600181600116156101000203166002900480601f0160208091040260200160405190810160405280929190818152602001828054600181600116156101000203166002900480156114c45780601f10611499576101008083540402835291602001916114c4565b820191906000526020600020905b8154815290600101906020018083116114a757829003601f168201915b505050505081526020016003820160009054906101000a900473ffffffffffffffffffffffffffffffffffffffff1673ffffffffffffffffffffffffffffffffffffffff1673ffffffffffffffffffffffffffffffffffffffff1681526020016003820160149054906101000a900460ff161515151581526020016004820154815260200160058201548152602001600682015481526020016007820160009054906101000a900473ffffffffffffffffffffffffffffffffffffffff1673ffffffffffffffffffffffffffffffffffffffff1673ffffffffffffffffffffffffffffffffffffffff1681526020016007820160149054906101000a900460ff1615151515815250509050600660009054906101000a900473ffffffffffffffffffffffffffffffffffffffff1673ffffffffffffffffffffffffffffffffffffffff166342966c68856040518263ffffffff1660e01b815260040161162a91906124f9565b602060405180830381600087803b15801561164457600080fd5b505af1158015611658573d6000803e3d6000fd5b505050506040513d601f19601f8201168201806040525081019061167c919061200d565b50600760009054906101000a900473ffffffffffffffffffffffffffffffffffffffff1673ffffffffffffffffffffffffffffffffffffffff166323b872dd3383606001518460a001516040518463ffffffff1660e01b81526004016116e4939291906122a7565b602060405180830381600087803b1580156116fe57600080fd5b505af1158015611712573d6000803e3d6000fd5b505050506040513d601f19601f82011682018060405250810190611736919061200d565b611775576040517f08c379a000000000000000000000000000000000000000000000000000000000815260040161176c906124b9565b60405180910390fd5b600760009054906101000a900473ffffffffffffffffffffffffffffffffffffffff1673ffffffffffffffffffffffffffffffffffffffff166323b872dd338361010001518460e001516040518463ffffffff1660e01b81526004016117dd939291906122a7565b602060405180830381600087803b1580156117f757600080fd5b505af115801561180b573d6000803e3d6000fd5b505050506040513d601f19601f8201168201806040525081019061182f919061200d565b61186e576040517f08c379a0000000000000000000000000000000000000000000000000000000008152600401611865906124b9565b60405180910390fd5b60008511156118db5760028081111561188357fe5b600360003073ffffffffffffffffffffffffffffffffffffffff1673ffffffffffffffffffffffffffffffffffffffff1681526020019081526020016000206000878152602001908152602001600020600501819055505b60019250505092915050565b6000600660009054906101000a900473ffffffffffffffffffffffffffffffffffffffff1673ffffffffffffffffffffffffffffffffffffffff1663d0def52184846040518363ffffffff1660e01b81526004016119469291906122de565b602060405180830381600087803b15801561196057600080fd5b505af1158015611974573d6000803e3d6000fd5b505050506040513d601f19601f82011682018060405250810190611998919061205f565b905092915050565b600760009054906101000a900473ffffffffffffffffffffffffffffffffffffffff1681565b60006119d482600001611b2f565b9050919050565b80471015611a51576040517f08c379a000000000000000000000000000000000000000000000000000000000815260040180806020018281038252601d8152602001807f416464726573733a20696e73756666696369656e742062616c616e636500000081525060200191505060405180910390fd5b60008273ffffffffffffffffffffffffffffffffffffffff168260405180600001905060006040518083038185875af1925050503d8060008114611ab1576040519150601f19603f3d011682016040523d82523d6000602084013e611ab6565b606091505b5050905080611b10576040517f08c379a000000000000000000000000000000000000000000000000000000000815260040180806020018281038252603a815260200180612719603a913960400191505060405180910390fd5b505050565b6000611b248360000183611b40565b60001c905092915050565b600081600001805490509050919050565b600081836000018054905011611ba1576040517f08c379a00000000000000000000000000000000000000000000000000000000081526004018080602001828103825260228152602001806126f76022913960400191505060405180910390fd5b826000018281548110611bb057fe5b9060005260206000200154905092915050565b828054600181600116156101000203166002900490600052602060002090601f016020900481019282611bf95760008555611c40565b82601f10611c1257805160ff1916838001178555611c40565b82800160010185558215611c40579182015b82811115611c3f578251825591602001919060010190611c24565b5b509050611c4d9190611c51565b5090565b5b80821115611c6a576000816000905550600101611c52565b5090565b6000611c81611c7c84612545565b612514565b905082815260208101848484011115611c9957600080fd5b611ca4848285612645565b509392505050565b600081359050611cbb8161269a565b92915050565b600081359050611cd0816126b1565b92915050565b600081359050611ce5816126c8565b92915050565b600081519050611cfa816126c8565b92915050565b600082601f830112611d1157600080fd5b8135611d21848260208601611c6e565b91505092915050565b600081359050611d39816126df565b92915050565b600081519050611d4e816126df565b92915050565b600060208284031215611d6657600080fd5b6000611d7484828501611cac565b91505092915050565b600060208284031215611d8f57600080fd5b6000611d9d84828501611cc1565b91505092915050565b60008060408385031215611db957600080fd5b6000611dc785828601611cc1565b9250506020611dd885828601611cac565b9150509250929050565b60008060408385031215611df557600080fd5b6000611e0385828601611cac565b925050602083013567ffffffffffffffff811115611e2057600080fd5b611e2c85828601611d00565b9150509250929050565b60008060008060008060c08789031215611e4f57600080fd5b6000611e5d89828a01611cac565b965050602087013567ffffffffffffffff811115611e7a57600080fd5b611e8689828a01611d00565b955050604087013567ffffffffffffffff811115611ea357600080fd5b611eaf89828a01611d00565b9450506060611ec089828a01611cac565b9350506080611ed189828a01611cd6565b92505060a0611ee289828a01611d2a565b9150509295509295509295565b600080600080600080600080610100898b031215611f0c57600080fd5b6000611f1a8b828c01611cac565b985050602089013567ffffffffffffffff811115611f3757600080fd5b611f438b828c01611d00565b975050604089013567ffffffffffffffff811115611f6057600080fd5b611f6c8b828c01611d00565b9650506060611f7d8b828c01611cac565b9550506080611f8e8b828c01611cd6565b94505060a0611f9f8b828c01611d2a565b93505060c0611fb08b828c01611d2a565b92505060e0611fc18b828c01611cac565b9150509295985092959890939650565b60008060408385031215611fe457600080fd5b6000611ff285828601611cac565b925050602061200385828601611d2a565b9150509250929050565b60006020828403121561201f57600080fd5b600061202d84828501611ceb565b91505092915050565b60006020828403121561204857600080fd5b600061205684828501611d2a565b91505092915050565b60006020828403121561207157600080fd5b600061207f84828501611d3f565b91505092915050565b6000806040838503121561209b57600080fd5b60006120a985828601611d2a565b92505060206120ba85828601611d2a565b9150509250929050565b6120cd816125eb565b82525050565b6120dc81612591565b82525050565b6120eb816125b5565b82525050565b6120fa816125fd565b82525050565b600061210b82612575565b6121158185612580565b9350612125818560208601612654565b61212e81612689565b840191505092915050565b6000612146601583612580565b91507f496e76616c696420746f6b656e2062616c616e636500000000000000000000006000830152602082019050919050565b6000612186600c83612580565b91507f494e56414c49445f5553455200000000000000000000000000000000000000006000830152602082019050919050565b60006121c6601e83612580565b91507f5472616e73666572206661696c656420666f72206261736520746f6b656e00006000830152602082019050919050565b6000612206601783612580565b91507f496e76616c696420746f6b656e20616c6c6f77616e63650000000000000000006000830152602082019050919050565b612242816125e1565b82525050565b600060208201905061225d60008301846120d3565b92915050565b600060208201905061227860008301846120c4565b92915050565b600060408201905061229360008301856120c4565b6122a060208301846120d3565b9392505050565b60006060820190506122bc60008301866120c4565b6122c960208301856120d3565b6122d66040830184612239565b949350505050565b60006040820190506122f360008301856120d3565b81810360208301526123058184612100565b90509392505050565b600060e082019050612323600083018a6120d3565b81810360208301526123358189612100565b905061234460408301886120d3565b81810360608301526123568187612100565b9050818103608083015261236a8186612100565b905061237960a0830185612239565b81810360c083015261238b8184612100565b905098975050505050505050565b6000610140820190506123af600083018d6120d3565b81810360208301526123c1818c612100565b905081810360408301526123d5818b612100565b90506123e4606083018a6120d3565b6123f160808301896120e2565b6123fe60a0830188612239565b61240b60c0830187612239565b61241860e0830186612239565b6124266101008301856120d3565b6124346101208301846120e2565b9b9a5050505050505050505050565b600060208201905061245860008301846120e2565b92915050565b600060208201905061247360008301846120f1565b92915050565b6000602082019050818103600083015261249281612139565b9050919050565b600060208201905081810360008301526124b281612179565b9050919050565b600060208201905081810360008301526124d2816121b9565b9050919050565b600060208201905081810360008301526124f2816121f9565b9050919050565b600060208201905061250e6000830184612239565b92915050565b6000604051905081810181811067ffffffffffffffff8211171561253b5761253a612687565b5b8060405250919050565b600067ffffffffffffffff8211156125605761255f612687565b5b601f19601f8301169050602081019050919050565b600081519050919050565b600082825260208201905092915050565b600061259c826125c1565b9050919050565b60006125ae826125c1565b9050919050565b60008115159050919050565b600073ffffffffffffffffffffffffffffffffffffffff82169050919050565b6000819050919050565b60006125f682612621565b9050919050565b60006126088261260f565b9050919050565b600061261a826125c1565b9050919050565b600061262c82612633565b9050919050565b600061263e826125c1565b9050919050565b82818337600083830152505050565b60005b83811015612672578082015181840152602081019050612657565b83811115612681576000848401525b50505050565bfe5b6000601f19601f8301169050919050565b6126a381612591565b81146126ae57600080fd5b50565b6126ba816125a3565b81146126c557600080fd5b50565b6126d1816125b5565b81146126dc57600080fd5b50565b6126e8816125e1565b81146126f357600080fd5b5056fe456e756d657261626c655365743a20696e646578206f7574206f6620626f756e6473416464726573733a20756e61626c6520746f2073656e642076616c75652c20726563697069656e74206d61792068617665207265766572746564a2646970667358221220de2161e484d31dd06af0a88ad39ac8b9384e8a80a556689f10b2d7b145c7dcc164736f6c63430007060033",
  "immutableReferences": {},
  "source": "pragma solidity ^0.7.0;\npragma experimental ABIEncoderV2;\n\nimport \"./XDV.sol\";\nimport \"./MinterRegistry.sol\";\nimport \"@openzeppelin/contracts/utils/EnumerableSet.sol\";\nimport \"@openzeppelin/contracts/math/SafeMath.sol\";\nimport \"@openzeppelin/contracts/utils/Address.sol\";\nimport \"./ERC20Interface.sol\";\n\ncontract XDVController is MinterRegistry {\n    using EnumerableSet for EnumerableSet.AddressSet;\n    using SafeMath for uint256;\n    using Address for address payable;\n\n    event Withdrawn(address indexed payee, uint256 weiAmount);\n    address public owner;\n    uint256 fee;\n    XDV private platformToken;\n    ERC20Interface public token;\n\n    // minters\n    EnumerableSet.AddressSet internal minters;\n\n    constructor(address stablecoin, address xdv) public {\n        token = ERC20Interface(stablecoin);\n        platformToken = XDV(xdv);\n        owner = msg.sender;\n    }\n\n    function setProtocolFee(uint256 _fee) public {\n        require(msg.sender == owner, \"INVALID_USER\");\n        fee = _fee;\n    }\n\n    function getProtocolFee() public returns (uint256) {\n        return fee;\n    }\n\n    function withdraw(address payable payee) public {\n        require(msg.sender == owner, \"INVALID_USER\");\n        uint256 b = address(this).balance;\n        payee.sendValue(address(this).balance);\n\n        emit Withdrawn(payee, b);\n    }\n\n    function withdrawToken(address payable payee, address token) public {\n        require(msg.sender == owner, \"INVALID_USER\");\n        uint256 b = ERC20Interface(token).balanceOf(address(this));\n        payee.sendValue(b);\n\n        emit Withdrawn(payee, b);\n    }\n   function mint(address user, string memory tokenURI)\n        public\n        returns (uint256)\n    {\n        return platformToken.mint(user, tokenURI);\n    }   \n\n    function burn(uint requestId, uint tokenId)\n        public\n        payable\n        returns (bool)\n    {\n\n        // User must have a balance\n        require(\n            token.balanceOf(msg.sender) >= 0,\n            \"Invalid token balance\"\n        );\n        // User must have an allowance\n        require(\n            token.allowance(msg.sender, address(this)) >= 0,\n            \"Invalid token allowance\"\n        );\n\n        /* require(\n            token.balanceOf(msg.sender) == (mintingServiceFee.sum(protocolServiceFee)), \n            \"MUST SEND FEE BEFORE USE\");\n        */\n\n        uint index = minterCounter[address(this)];\n        DataProviderMinter memory dataProvider = dataProviderMinters[index];\n        \n        platformToken.burn(tokenId);\n\n        // TODO: Update accounting\n        //  - create mappings to data provider accounting\n        //  - create mappings to protocol fee accounting\n\n        // Transfer tokens to NFT owner\n        require(\n            token.transferFrom(\n                msg.sender, \n                dataProvider.paymentAddress, \n                dataProvider.feeStructure),\n            \"Transfer failed for base token\"\n        );\n\n        // Transfer tokens to pay service fee\n        require(\n            token.transferFrom(\n                msg.sender, \n                dataProvider.factoryAddress, \n                dataProvider.serviceFee),\n            \"Transfer failed for base token\"\n        );\n\n        // TODO desplegar el fee de burn\n        if (requestId > 0) {\n            minterDocumentRequests[address(this)][requestId].status = uint(DocumentMintingRequestStatus.BURNED);\n        }\n        \n\n        return true;\n    }       \n\n    function registerMinter(\n        address minter,\n        string memory name, \n        string memory symbol,\n        address paymentAddress,\n        bool userHasKyc,\n        uint feeStructure)\n        public\n        returns (address)\n    {\n \n        addToRegistry(\n            minter, \n            name,\n            symbol,\n            paymentAddress,\n            userHasKyc,\n            feeStructure,\n            fee,\n            address(this));\n\n        return minter;\n    }\n\n    function count() public view returns (uint256) {\n        return minters.length();\n    }\n\n    function get(uint256 index) public view returns (address) {\n        return minters.at(index);\n    }\n}\n",
  "sourcePath": "/home/rogelio/Code/xdv/nft-document-swap/contracts/XDVController.sol",
  "compiler": {
    "name": "solc",
    "version": "0.7.6+commit.7338295f.Emscripten.clang"
  },
  "schemaVersion": "3.3.3",
  "updatedAt": "2021-02-19T14:47:07.632Z",
  "devdoc": {
    "kind": "dev",
    "methods": {},
    "version": 1
  },
  "userdoc": {
    "kind": "user",
    "methods": {},
    "version": 1
  }
}