{
  "contractName": "XDVDocumentAnchoring",
  "abi": [
    {
      "inputs": [
        {
          "internalType": "address",
          "name": "tokenAddress",
          "type": "address"
        }
      ],
      "stateMutability": "nonpayable",
      "type": "constructor"
    },
    {
      "anonymous": false,
      "inputs": [
        {
          "indexed": true,
          "internalType": "address",
          "name": "user",
          "type": "address"
        },
        {
          "indexed": true,
          "internalType": "string",
          "name": "userDid",
          "type": "string"
        },
        {
          "indexed": false,
          "internalType": "string",
          "name": "documentURI",
          "type": "string"
        },
        {
          "indexed": false,
          "internalType": "uint256",
          "name": "id",
          "type": "uint256"
        }
      ],
      "name": "DocumentAnchored",
      "type": "event"
    },
    {
      "anonymous": false,
      "inputs": [
        {
          "indexed": true,
          "internalType": "address",
          "name": "payee",
          "type": "address"
        },
        {
          "indexed": false,
          "internalType": "uint256",
          "name": "weiAmount",
          "type": "uint256"
        }
      ],
      "name": "Withdrawn",
      "type": "event"
    },
    {
      "inputs": [
        {
          "internalType": "address",
          "name": "",
          "type": "address"
        }
      ],
      "name": "accounting",
      "outputs": [
        {
          "internalType": "uint256",
          "name": "",
          "type": "uint256"
        }
      ],
      "stateMutability": "view",
      "type": "function"
    },
    {
      "inputs": [],
      "name": "fee",
      "outputs": [
        {
          "internalType": "uint256",
          "name": "",
          "type": "uint256"
        }
      ],
      "stateMutability": "view",
      "type": "function"
    },
    {
      "inputs": [
        {
          "internalType": "address",
          "name": "",
          "type": "address"
        }
      ],
      "name": "minterDocumentAnchorCounter",
      "outputs": [
        {
          "internalType": "uint256",
          "name": "",
          "type": "uint256"
        }
      ],
      "stateMutability": "view",
      "type": "function"
    },
    {
      "inputs": [
        {
          "internalType": "address",
          "name": "",
          "type": "address"
        },
        {
          "internalType": "uint256",
          "name": "",
          "type": "uint256"
        }
      ],
      "name": "minterDocumentAnchors",
      "outputs": [
        {
          "internalType": "address",
          "name": "user",
          "type": "address"
        },
        {
          "internalType": "string",
          "name": "userDid",
          "type": "string"
        },
        {
          "internalType": "string",
          "name": "documentURI",
          "type": "string"
        },
        {
          "internalType": "string",
          "name": "description",
          "type": "string"
        },
        {
          "internalType": "uint256",
          "name": "timestamp",
          "type": "uint256"
        }
      ],
      "stateMutability": "view",
      "type": "function"
    },
    {
      "inputs": [
        {
          "internalType": "uint256",
          "name": "",
          "type": "uint256"
        }
      ],
      "name": "multiApprovalDocumentAnchors",
      "outputs": [
        {
          "internalType": "address",
          "name": "user",
          "type": "address"
        },
        {
          "internalType": "string",
          "name": "userDid",
          "type": "string"
        },
        {
          "internalType": "string",
          "name": "documentURI",
          "type": "string"
        },
        {
          "internalType": "string",
          "name": "description",
          "type": "string"
        },
        {
          "internalType": "uint256",
          "name": "timestamp",
          "type": "uint256"
        }
      ],
      "stateMutability": "view",
      "type": "function"
    },
    {
      "inputs": [],
      "name": "owner",
      "outputs": [
        {
          "internalType": "address",
          "name": "",
          "type": "address"
        }
      ],
      "stateMutability": "view",
      "type": "function"
    },
    {
      "inputs": [],
      "name": "stablecoin",
      "outputs": [
        {
          "internalType": "contract IERC20",
          "name": "",
          "type": "address"
        }
      ],
      "stateMutability": "view",
      "type": "function"
    },
    {
      "inputs": [
        {
          "internalType": "address",
          "name": "tokenAddress",
          "type": "address"
        }
      ],
      "name": "setStableCoin",
      "outputs": [],
      "stateMutability": "nonpayable",
      "type": "function"
    },
    {
      "inputs": [
        {
          "internalType": "address payable",
          "name": "payee",
          "type": "address"
        }
      ],
      "name": "withdraw",
      "outputs": [],
      "stateMutability": "nonpayable",
      "type": "function"
    },
    {
      "inputs": [
        {
          "internalType": "address payable",
          "name": "payee",
          "type": "address"
        },
        {
          "internalType": "address",
          "name": "erc20token",
          "type": "address"
        }
      ],
      "name": "withdrawToken",
      "outputs": [],
      "stateMutability": "nonpayable",
      "type": "function"
    },
    {
      "inputs": [
        {
          "internalType": "uint256",
          "name": "_fee",
          "type": "uint256"
        }
      ],
      "name": "setProtocolConfig",
      "outputs": [],
      "stateMutability": "nonpayable",
      "type": "function"
    },
    {
      "inputs": [],
      "name": "getProtocolConfig",
      "outputs": [
        {
          "internalType": "uint256",
          "name": "",
          "type": "uint256"
        }
      ],
      "stateMutability": "view",
      "type": "function"
    },
    {
      "inputs": [
        {
          "internalType": "uint256",
          "name": "docid",
          "type": "uint256"
        },
        {
          "internalType": "string",
          "name": "userDid",
          "type": "string"
        },
        {
          "internalType": "string",
          "name": "documentUri",
          "type": "string"
        },
        {
          "internalType": "bool",
          "name": "isComplete",
          "type": "bool"
        }
      ],
      "name": "peerSigning",
      "outputs": [
        {
          "internalType": "uint256",
          "name": "",
          "type": "uint256"
        }
      ],
      "stateMutability": "payable",
      "type": "function"
    },
    {
      "inputs": [
        {
          "internalType": "string",
          "name": "userDid",
          "type": "string"
        },
        {
          "internalType": "string",
          "name": "documentURI",
          "type": "string"
        },
        {
          "internalType": "string",
          "name": "description",
          "type": "string"
        },
        {
          "internalType": "address[]",
          "name": "whitelist",
          "type": "address[]"
        }
      ],
      "name": "addDocument",
      "outputs": [
        {
          "internalType": "uint256",
          "name": "",
          "type": "uint256"
        }
      ],
      "stateMutability": "payable",
      "type": "function"
    }
  ],
  "bytecode": "0x60806040523480156200001157600080fd5b50604051620026043803806200260483398181016040528101906200003791906200012a565b33600360006101000a81548173ffffffffffffffffffffffffffffffffffffffff021916908373ffffffffffffffffffffffffffffffffffffffff16021790555080600560006101000a81548173ffffffffffffffffffffffffffffffffffffffff021916908373ffffffffffffffffffffffffffffffffffffffff160217905550506200015c565b600080fd5b600073ffffffffffffffffffffffffffffffffffffffff82169050919050565b6000620000f282620000c5565b9050919050565b6200010481620000e5565b81146200011057600080fd5b50565b6000815190506200012481620000f9565b92915050565b600060208284031215620001435762000142620000c0565b5b6000620001538482850162000113565b91505092915050565b612498806200016c6000396000f3fe6080604052600436106100dd5760003560e01c80637efa04561161007f578063991edf3f11610059578063991edf3f146102d0578063ddca3f431461030d578063e9cbd82214610338578063ed700b3e14610363576100dd565b80637efa0456146102275780638da5cb5b14610264578063943053c51461028f576100dd565b80632d2103c1116100bb5780632d2103c11461016b5780632f8d845a146101ac5780633aeac4e1146101d557806351cff8d9146101fe576100dd565b8063195543a5146100e25780631feb9e2a1461011257806323af4e1714610142575b600080fd5b6100fc60048036038101906100f791906119c7565b61038e565b6040516101099190611a75565b60405180910390f35b61012c60048036038101906101279190611bb6565b6108ae565b6040516101399190611a75565b60405180910390f35b34801561014e57600080fd5b5061016960048036038101906101649190611c8d565b610e74565b005b34801561017757600080fd5b50610192600480360381019061018d9190611cba565b610f48565b6040516101a3959493929190611d91565b60405180910390f35b3480156101b857600080fd5b506101d360048036038101906101ce9190611df9565b611143565b005b3480156101e157600080fd5b506101fc60048036038101906101f79190611e64565b6111dd565b005b34801561020a57600080fd5b5061022560048036038101906102209190611ea4565b6113fb565b005b34801561023357600080fd5b5061024e60048036038101906102499190611c8d565b6114e2565b60405161025b9190611a75565b60405180910390f35b34801561027057600080fd5b506102796114fa565b6040516102869190611ed1565b60405180910390f35b34801561029b57600080fd5b506102b660048036038101906102b19190611df9565b611520565b6040516102c7959493929190611d91565b60405180910390f35b3480156102dc57600080fd5b506102f760048036038101906102f29190611c8d565b61170e565b6040516103049190611a75565b60405180910390f35b34801561031957600080fd5b50610322611726565b60405161032f9190611a75565b60405180910390f35b34801561034457600080fd5b5061034d61172c565b60405161035a9190611f4b565b60405180910390f35b34801561036f57600080fd5b50610378611752565b6040516103859190611a75565b60405180910390f35b600080600560009054906101000a900473ffffffffffffffffffffffffffffffffffffffff1673ffffffffffffffffffffffffffffffffffffffff166370a08231336040518263ffffffff1660e01b81526004016103ec9190611ed1565b602060405180830381865afa158015610409573d6000803e3d6000fd5b505050506040513d601f19601f8201168201806040525081019061042d9190611f7b565b1161046d576040517f08c379a000000000000000000000000000000000000000000000000000000000815260040161046490611ff4565b60405180910390fd5b6000600560009054906101000a900473ffffffffffffffffffffffffffffffffffffffff1673ffffffffffffffffffffffffffffffffffffffff1663dd62ed3e33306040518363ffffffff1660e01b81526004016104cc929190612014565b602060405180830381865afa1580156104e9573d6000803e3d6000fd5b505050506040513d601f19601f8201168201806040525081019061050d9190611f7b565b1161054d576040517f08c379a000000000000000000000000000000000000000000000000000000000815260040161054490612089565b60405180910390fd5b600560009054906101000a900473ffffffffffffffffffffffffffffffffffffffff1673ffffffffffffffffffffffffffffffffffffffff166323b872dd33306004546040518463ffffffff1660e01b81526004016105ae939291906120a9565b6020604051808303816000875af11580156105cd573d6000803e3d6000fd5b505050506040513d601f19601f820116820180604052508101906105f191906120f5565b610630576040517f08c379a00000000000000000000000000000000000000000000000000000000081526004016106279061216e565b60405180910390fd5b600454600660003373ffffffffffffffffffffffffffffffffffffffff1673ffffffffffffffffffffffffffffffffffffffff1681526020019081526020016000205461067d91906121bd565b600660003373ffffffffffffffffffffffffffffffffffffffff1673ffffffffffffffffffffffffffffffffffffffff16815260200190815260200160002081905550600454600660003073ffffffffffffffffffffffffffffffffffffffff1673ffffffffffffffffffffffffffffffffffffffff1681526020019081526020016000205461070d91906121bd565b600660003073ffffffffffffffffffffffffffffffffffffffff1673ffffffffffffffffffffffffffffffffffffffff168152602001908152602001600020819055506000803373ffffffffffffffffffffffffffffffffffffffff1673ffffffffffffffffffffffffffffffffffffffff168152602001908152602001600020600081548092919061079f90612213565b919050555060008060003373ffffffffffffffffffffffffffffffffffffffff1673ffffffffffffffffffffffffffffffffffffffff168152602001908152602001600020549050336002600083815260200190815260200160002060000160006101000a81548173ffffffffffffffffffffffffffffffffffffffff021916908373ffffffffffffffffffffffffffffffffffffffff1602179055508460405161084a9190612298565b60405180910390203373ffffffffffffffffffffffffffffffffffffffff167f0a007e579f0793671747216eab1061026d102ff0f66e876d2edaa6277ad53e66868460405161089a9291906122af565b60405180910390a380915050949350505050565b600080600560009054906101000a900473ffffffffffffffffffffffffffffffffffffffff1673ffffffffffffffffffffffffffffffffffffffff166370a08231336040518263ffffffff1660e01b815260040161090c9190611ed1565b602060405180830381865afa158015610929573d6000803e3d6000fd5b505050506040513d601f19601f8201168201806040525081019061094d9190611f7b565b1161098d576040517f08c379a000000000000000000000000000000000000000000000000000000000815260040161098490611ff4565b60405180910390fd5b6000600560009054906101000a900473ffffffffffffffffffffffffffffffffffffffff1673ffffffffffffffffffffffffffffffffffffffff1663dd62ed3e33306040518363ffffffff1660e01b81526004016109ec929190612014565b602060405180830381865afa158015610a09573d6000803e3d6000fd5b505050506040513d601f19601f82011682018060405250810190610a2d9190611f7b565b11610a6d576040517f08c379a0000000000000000000000000000000000000000000000000000000008152600401610a6490612089565b60405180910390fd5b600560009054906101000a900473ffffffffffffffffffffffffffffffffffffffff1673ffffffffffffffffffffffffffffffffffffffff166323b872dd33306004546040518463ffffffff1660e01b8152600401610ace939291906120a9565b6020604051808303816000875af1158015610aed573d6000803e3d6000fd5b505050506040513d601f19601f82011682018060405250810190610b1191906120f5565b610b50576040517f08c379a0000000000000000000000000000000000000000000000000000000008152600401610b479061216e565b60405180910390fd5b600454600660003373ffffffffffffffffffffffffffffffffffffffff1673ffffffffffffffffffffffffffffffffffffffff16815260200190815260200160002054610b9d91906121bd565b600660003373ffffffffffffffffffffffffffffffffffffffff1673ffffffffffffffffffffffffffffffffffffffff16815260200190815260200160002081905550600454600660003073ffffffffffffffffffffffffffffffffffffffff1673ffffffffffffffffffffffffffffffffffffffff16815260200190815260200160002054610c2d91906121bd565b600660003073ffffffffffffffffffffffffffffffffffffffff1673ffffffffffffffffffffffffffffffffffffffff168152602001908152602001600020819055506000803373ffffffffffffffffffffffffffffffffffffffff1673ffffffffffffffffffffffffffffffffffffffff1681526020019081526020016000206000815480929190610cbf90612213565b919050555060008060003373ffffffffffffffffffffffffffffffffffffffff1673ffffffffffffffffffffffffffffffffffffffff1681526020019081526020016000205490506040518060a001604052803373ffffffffffffffffffffffffffffffffffffffff168152602001878152602001868152602001858152602001428152506002600083815260200190815260200160002060008201518160000160006101000a81548173ffffffffffffffffffffffffffffffffffffffff021916908373ffffffffffffffffffffffffffffffffffffffff1602179055506020820151816001019080519060200190610dba92919061175c565b506040820151816002019080519060200190610dd792919061175c565b506060820151816003019080519060200190610df492919061175c565b506080820151816004015590505085604051610e109190612298565b60405180910390203373ffffffffffffffffffffffffffffffffffffffff167f0a007e579f0793671747216eab1061026d102ff0f66e876d2edaa6277ad53e668784604051610e609291906122af565b60405180910390a380915050949350505050565b600360009054906101000a900473ffffffffffffffffffffffffffffffffffffffff1673ffffffffffffffffffffffffffffffffffffffff163373ffffffffffffffffffffffffffffffffffffffff1614610f04576040517f08c379a0000000000000000000000000000000000000000000000000000000008152600401610efb9061232b565b60405180910390fd5b80600560006101000a81548173ffffffffffffffffffffffffffffffffffffffff021916908373ffffffffffffffffffffffffffffffffffffffff16021790555050565b6001602052816000526040600020602052806000526040600020600091509150508060000160009054906101000a900473ffffffffffffffffffffffffffffffffffffffff1690806001018054610f9e9061237a565b80601f0160208091040260200160405190810160405280929190818152602001828054610fca9061237a565b80156110175780601f10610fec57610100808354040283529160200191611017565b820191906000526020600020905b815481529060010190602001808311610ffa57829003601f168201915b50505050509080600201805461102c9061237a565b80601f01602080910402602001604051908101604052809291908181526020018280546110589061237a565b80156110a55780601f1061107a576101008083540402835291602001916110a5565b820191906000526020600020905b81548152906001019060200180831161108857829003601f168201915b5050505050908060030180546110ba9061237a565b80601f01602080910402602001604051908101604052809291908181526020018280546110e69061237a565b80156111335780601f1061110857610100808354040283529160200191611133565b820191906000526020600020905b81548152906001019060200180831161111657829003601f168201915b5050505050908060040154905085565b600360009054906101000a900473ffffffffffffffffffffffffffffffffffffffff1673ffffffffffffffffffffffffffffffffffffffff163373ffffffffffffffffffffffffffffffffffffffff16146111d3576040517f08c379a00000000000000000000000000000000000000000000000000000000081526004016111ca9061232b565b60405180910390fd5b8060048190555050565b600360009054906101000a900473ffffffffffffffffffffffffffffffffffffffff1673ffffffffffffffffffffffffffffffffffffffff163373ffffffffffffffffffffffffffffffffffffffff161461126d576040517f08c379a00000000000000000000000000000000000000000000000000000000081526004016112649061232b565b60405180910390fd5b60008173ffffffffffffffffffffffffffffffffffffffff166370a08231306040518263ffffffff1660e01b81526004016112a89190611ed1565b602060405180830381865afa1580156112c5573d6000803e3d6000fd5b505050506040513d601f19601f820116820180604052508101906112e99190611f7b565b90508173ffffffffffffffffffffffffffffffffffffffff1663a9059cbb84836040518363ffffffff1660e01b81526004016113269291906123cd565b6020604051808303816000875af1158015611345573d6000803e3d6000fd5b505050506040513d601f19601f8201168201806040525081019061136991906120f5565b6113a8576040517f08c379a000000000000000000000000000000000000000000000000000000000815260040161139f90612442565b60405180910390fd5b8273ffffffffffffffffffffffffffffffffffffffff167f7084f5476618d8e60b11ef0d7d3f06914655adb8793e28ff7f018d4c76d505d5826040516113ee9190611a75565b60405180910390a2505050565b600360009054906101000a900473ffffffffffffffffffffffffffffffffffffffff1673ffffffffffffffffffffffffffffffffffffffff163373ffffffffffffffffffffffffffffffffffffffff161461148b576040517f08c379a00000000000000000000000000000000000000000000000000000000081526004016114829061232b565b60405180910390fd5b60004790508173ffffffffffffffffffffffffffffffffffffffff167f7084f5476618d8e60b11ef0d7d3f06914655adb8793e28ff7f018d4c76d505d5826040516114d69190611a75565b60405180910390a25050565b60006020528060005260406000206000915090505481565b600360009054906101000a900473ffffffffffffffffffffffffffffffffffffffff1681565b60026020528060005260406000206000915090508060000160009054906101000a900473ffffffffffffffffffffffffffffffffffffffff16908060010180546115699061237a565b80601f01602080910402602001604051908101604052809291908181526020018280546115959061237a565b80156115e25780601f106115b7576101008083540402835291602001916115e2565b820191906000526020600020905b8154815290600101906020018083116115c557829003601f168201915b5050505050908060020180546115f79061237a565b80601f01602080910402602001604051908101604052809291908181526020018280546116239061237a565b80156116705780601f1061164557610100808354040283529160200191611670565b820191906000526020600020905b81548152906001019060200180831161165357829003601f168201915b5050505050908060030180546116859061237a565b80601f01602080910402602001604051908101604052809291908181526020018280546116b19061237a565b80156116fe5780601f106116d3576101008083540402835291602001916116fe565b820191906000526020600020905b8154815290600101906020018083116116e157829003601f168201915b5050505050908060040154905085565b60066020528060005260406000206000915090505481565b60045481565b600560009054906101000a900473ffffffffffffffffffffffffffffffffffffffff1681565b6000600454905090565b8280546117689061237a565b90600052602060002090601f01602090048101928261178a57600085556117d1565b82601f106117a357805160ff19168380011785556117d1565b828001600101855582156117d1579182015b828111156117d05782518255916020019190600101906117b5565b5b5090506117de91906117e2565b5090565b5b808211156117fb5760008160009055506001016117e3565b5090565b6000604051905090565b600080fd5b600080fd5b6000819050919050565b61182681611813565b811461183157600080fd5b50565b6000813590506118438161181d565b92915050565b600080fd5b600080fd5b6000601f19601f8301169050919050565b7f4e487b7100000000000000000000000000000000000000000000000000000000600052604160045260246000fd5b61189c82611853565b810181811067ffffffffffffffff821117156118bb576118ba611864565b5b80604052505050565b60006118ce6117ff565b90506118da8282611893565b919050565b600067ffffffffffffffff8211156118fa576118f9611864565b5b61190382611853565b9050602081019050919050565b82818337600083830152505050565b600061193261192d846118df565b6118c4565b90508281526020810184848401111561194e5761194d61184e565b5b611959848285611910565b509392505050565b600082601f83011261197657611975611849565b5b813561198684826020860161191f565b91505092915050565b60008115159050919050565b6119a48161198f565b81146119af57600080fd5b50565b6000813590506119c18161199b565b92915050565b600080600080608085870312156119e1576119e0611809565b5b60006119ef87828801611834565b945050602085013567ffffffffffffffff811115611a1057611a0f61180e565b5b611a1c87828801611961565b935050604085013567ffffffffffffffff811115611a3d57611a3c61180e565b5b611a4987828801611961565b9250506060611a5a878288016119b2565b91505092959194509250565b611a6f81611813565b82525050565b6000602082019050611a8a6000830184611a66565b92915050565b600067ffffffffffffffff821115611aab57611aaa611864565b5b602082029050602081019050919050565b600080fd5b600073ffffffffffffffffffffffffffffffffffffffff82169050919050565b6000611aec82611ac1565b9050919050565b611afc81611ae1565b8114611b0757600080fd5b50565b600081359050611b1981611af3565b92915050565b6000611b32611b2d84611a90565b6118c4565b90508083825260208201905060208402830185811115611b5557611b54611abc565b5b835b81811015611b7e5780611b6a8882611b0a565b845260208401935050602081019050611b57565b5050509392505050565b600082601f830112611b9d57611b9c611849565b5b8135611bad848260208601611b1f565b91505092915050565b60008060008060808587031215611bd057611bcf611809565b5b600085013567ffffffffffffffff811115611bee57611bed61180e565b5b611bfa87828801611961565b945050602085013567ffffffffffffffff811115611c1b57611c1a61180e565b5b611c2787828801611961565b935050604085013567ffffffffffffffff811115611c4857611c4761180e565b5b611c5487828801611961565b925050606085013567ffffffffffffffff811115611c7557611c7461180e565b5b611c8187828801611b88565b91505092959194509250565b600060208284031215611ca357611ca2611809565b5b6000611cb184828501611b0a565b91505092915050565b60008060408385031215611cd157611cd0611809565b5b6000611cdf85828601611b0a565b9250506020611cf085828601611834565b9150509250929050565b611d0381611ae1565b82525050565b600081519050919050565b600082825260208201905092915050565b60005b83811015611d43578082015181840152602081019050611d28565b83811115611d52576000848401525b50505050565b6000611d6382611d09565b611d6d8185611d14565b9350611d7d818560208601611d25565b611d8681611853565b840191505092915050565b600060a082019050611da66000830188611cfa565b8181036020830152611db88187611d58565b90508181036040830152611dcc8186611d58565b90508181036060830152611de08185611d58565b9050611def6080830184611a66565b9695505050505050565b600060208284031215611e0f57611e0e611809565b5b6000611e1d84828501611834565b91505092915050565b6000611e3182611ac1565b9050919050565b611e4181611e26565b8114611e4c57600080fd5b50565b600081359050611e5e81611e38565b92915050565b60008060408385031215611e7b57611e7a611809565b5b6000611e8985828601611e4f565b9250506020611e9a85828601611b0a565b9150509250929050565b600060208284031215611eba57611eb9611809565b5b6000611ec884828501611e4f565b91505092915050565b6000602082019050611ee66000830184611cfa565b92915050565b6000819050919050565b6000611f11611f0c611f0784611ac1565b611eec565b611ac1565b9050919050565b6000611f2382611ef6565b9050919050565b6000611f3582611f18565b9050919050565b611f4581611f2a565b82525050565b6000602082019050611f606000830184611f3c565b92915050565b600081519050611f758161181d565b92915050565b600060208284031215611f9157611f90611809565b5b6000611f9f84828501611f66565b91505092915050565b7f496e76616c696420746f6b656e2062616c616e63650000000000000000000000600082015250565b6000611fde601583611d14565b9150611fe982611fa8565b602082019050919050565b6000602082019050818103600083015261200d81611fd1565b9050919050565b60006040820190506120296000830185611cfa565b6120366020830184611cfa565b9392505050565b7f496e76616c696420746f6b656e20616c6c6f77616e6365000000000000000000600082015250565b6000612073601783611d14565b915061207e8261203d565b602082019050919050565b600060208201905081810360008301526120a281612066565b9050919050565b60006060820190506120be6000830186611cfa565b6120cb6020830185611cfa565b6120d86040830184611a66565b949350505050565b6000815190506120ef8161199b565b92915050565b60006020828403121561210b5761210a611809565b5b6000612119848285016120e0565b91505092915050565b7f5472616e73666572206661696c656420666f7220666565000000000000000000600082015250565b6000612158601783611d14565b915061216382612122565b602082019050919050565b600060208201905081810360008301526121878161214b565b9050919050565b7f4e487b7100000000000000000000000000000000000000000000000000000000600052601160045260246000fd5b60006121c882611813565b91506121d383611813565b9250827fffffffffffffffffffffffffffffffffffffffffffffffffffffffffffffffff038211156122085761220761218e565b5b828201905092915050565b600061221e82611813565b91507fffffffffffffffffffffffffffffffffffffffffffffffffffffffffffffffff8214156122515761225061218e565b5b600182019050919050565b600081905092915050565b600061227282611d09565b61227c818561225c565b935061228c818560208601611d25565b80840191505092915050565b60006122a48284612267565b915081905092915050565b600060408201905081810360008301526122c98185611d58565b90506122d86020830184611a66565b9392505050565b7f494e56414c49445f555345520000000000000000000000000000000000000000600082015250565b6000612315600c83611d14565b9150612320826122df565b602082019050919050565b6000602082019050818103600083015261234481612308565b9050919050565b7f4e487b7100000000000000000000000000000000000000000000000000000000600052602260045260246000fd5b6000600282049050600182168061239257607f821691505b602082108114156123a6576123a561234b565b5b50919050565b60006123b782611f18565b9050919050565b6123c7816123ac565b82525050565b60006040820190506123e260008301856123be565b6123ef6020830184611a66565b9392505050565b7f5472616e73666572206661696c656420666f72206261736520746f6b656e0000600082015250565b600061242c601e83611d14565b9150612437826123f6565b602082019050919050565b6000602082019050818103600083015261245b8161241f565b905091905056fea2646970667358221220050b8248fa5417dcb3f5d93866ce231a64d717a2e5af15847cd0640c707ec02864736f6c634300080a0033",
  "immutableReferences": {},
  "source": "// SPDX-License-Identifier: MIT\npragma solidity ^0.8.0;\n\nimport \"@openzeppelin/contracts/token/ERC20/IERC20.sol\";\nimport \"@openzeppelin/contracts/token/ERC721/ERC721.sol\";\nimport \"@openzeppelin/contracts/utils/Counters.sol\";\n\n/**\n *  Register Minters  debe ir un mapping, un evento de add registry, un counter para \n saber cuantos registros , get de fetch que debe recibir un address, y returnar un struct de vuelta\n */\ncontract XDVDocumentAnchoring {\n    // Document by minter id sequence/autonumber\n    mapping(address => uint) public minterDocumentAnchorCounter;\n\n// TODO: Remove, deprecated\n    // Document by user address by id\n    mapping(address => mapping(uint => DocumentAnchor)) public minterDocumentAnchors;\n\n    // Doocument by doc id\n    mapping(uint => DocumentAnchor) public multiApprovalDocumentAnchors;\n\n    event Withdrawn(address indexed payee, uint256 weiAmount);\n    address public owner;\n    uint public fee;\n    IERC20 public stablecoin;\n\n    mapping (address => uint) public accounting;\n\n    /**\n    * XDV Data Token\n    */\n    constructor(\n        address tokenAddress\n    ) {\n        owner = msg.sender;\n        stablecoin = IERC20(tokenAddress);\n    }\n\n    function setStableCoin(address tokenAddress) public {\n        require(msg.sender == owner, \"INVALID_USER\");\n        stablecoin = IERC20(tokenAddress);\n    }\n\n    function withdraw(address payable payee) public {\n        require(msg.sender == owner, \"INVALID_USER\");\n        uint256 b = address(this).balance;\n\n        emit Withdrawn(payee, b);\n    }\n\n    function withdrawToken(address payable payee, address erc20token) public {\n        require(msg.sender == owner, \"INVALID_USER\");\n        uint256 balance = IERC20(erc20token).balanceOf(address(this));\n\n        // Transfer tokens to pay service fee\n        require(\n            IERC20(erc20token).transfer(payee, balance),\n            \"Transfer failed for base token\"\n        );\n\n        emit Withdrawn(payee, balance);\n    }\n\n    function setProtocolConfig(uint256 _fee) public {\n        require(msg.sender == owner, \"INVALID_USER\");\n        fee = _fee;\n    }\n\n    function getProtocolConfig() public view returns (uint256) {\n        return (fee);\n    }\n    // Document Anchor\n    struct DocumentAnchor {\n        address user;\n        string userDid;\n        string documentURI; \n        string description;\n        uint timestamp;\n        // address[] whitelistSigners;\n    }\n\n    // DocumentAnchored events\n    event DocumentAnchored(\n        address indexed user, \n        string indexed userDid,\n        string documentURI,\n        uint id\n    );\n// Case 0 - single\n// Case 1 - get approvals\n// Case 2 - quorum eg 3 of 5 - aggPeerSigning\n    function peerSigning(\n        uint docid,\n        string memory userDid,\n        string memory documentUri,\n        bool isComplete\n    ) public payable returns(uint) {\n        // if docid exists\n        // require(multiApprovalDocumentAnchors[docid].user != address(0));\n        // if whitelist\n        // TODO: .whitelist.length > 0\n\n        // User must have a balance\n        require(\n            stablecoin.balanceOf(msg.sender) > 0,\n            \"Invalid token balance\"\n        );\n        // User must have an allowance\n        require(\n            stablecoin.allowance(msg.sender, address(this)) > 0,\n            \"Invalid token allowance\"\n        );\n\n\n        require(\n            stablecoin.transferFrom(\n                msg.sender,\n                address(this), \n                fee),\n            \"Transfer failed for fee\"\n        );\n\n        accounting[msg.sender] = accounting[msg.sender] + fee;\n        accounting[address(this)] = accounting[address(this)] + fee;\n\n        minterDocumentAnchorCounter[msg.sender]++;\n        uint i = minterDocumentAnchorCounter[msg.sender];\n            \n        multiApprovalDocumentAnchors[i].user = msg.sender;\n        // TODO: Update other fields\n\n        emit DocumentAnchored(msg.sender, userDid, documentUri, i);\n        return i; \n    }\n    function addDocument(\n        string memory userDid,\n        string memory documentURI,\n        string memory description,\n        address[] memory whitelist\n    ) public payable returns(uint){\n\n        // User must have a balance\n        require(\n            stablecoin.balanceOf(msg.sender) > 0,\n            \"Invalid token balance\"\n        );\n        // User must have an allowance\n        require(\n            stablecoin.allowance(msg.sender, address(this)) > 0,\n            \"Invalid token allowance\"\n        );\n\n\n        require(\n            stablecoin.transferFrom(\n                msg.sender,\n                address(this), \n                fee),\n            \"Transfer failed for fee\"\n        );\n\n        accounting[msg.sender] = accounting[msg.sender] + fee;\n        accounting[address(this)] = accounting[address(this)] + fee;\n\n        minterDocumentAnchorCounter[msg.sender]++;\n        uint i = minterDocumentAnchorCounter[msg.sender];\n            \n        multiApprovalDocumentAnchors[i] = DocumentAnchor({\n            user: msg.sender, \n            userDid: userDid,\n            documentURI: documentURI,\n            description: description,\n            timestamp: block.timestamp\n            // TODO\n            // whitelistSigners: whitelist\n        });\n\n        emit DocumentAnchored(msg.sender, userDid, documentURI, i);\n        return i;\n    }\n\n}",
  "sourcePath": "/mnt/e/Code/xdv-document-signer-contracts/contracts/XDVDocumentAnchoring.sol",
  "compiler": {
    "name": "solc",
    "version": "0.8.10+commit.fc410830.Emscripten.clang"
  },
  "schemaVersion": "3.4.2",
  "updatedAt": "2021-11-26T22:09:40.101Z",
  "devdoc": {
    "kind": "dev",
    "methods": {},
    "version": 1
  },
  "userdoc": {
    "kind": "user",
    "methods": {
      "constructor": {
        "notice": "XDV Data Token"
      }
    },
    "notice": "Register Minters  debe ir un mapping, un evento de add registry, un counter para  saber cuantos registros , get de fetch que debe recibir un address, y returnar un struct de vuelta",
    "version": 1
  }
}