{
  "contractName": "XDVDocumentAnchoring",
  "abi": [
    {
      "inputs": [
        {
          "internalType": "address",
          "name": "tokenAddress",
          "type": "address"
        }
      ],
      "stateMutability": "nonpayable",
      "type": "constructor"
    },
    {
      "anonymous": false,
      "inputs": [
        {
          "indexed": true,
          "internalType": "address",
          "name": "user",
          "type": "address"
        },
        {
          "indexed": true,
          "internalType": "string",
          "name": "userDid",
          "type": "string"
        },
        {
          "indexed": false,
          "internalType": "string",
          "name": "documentURI",
          "type": "string"
        },
        {
          "indexed": false,
          "internalType": "uint256",
          "name": "id",
          "type": "uint256"
        }
      ],
      "name": "DocumentAnchored",
      "type": "event"
    },
    {
      "anonymous": false,
      "inputs": [
        {
          "indexed": true,
          "internalType": "address",
          "name": "payee",
          "type": "address"
        },
        {
          "indexed": false,
          "internalType": "uint256",
          "name": "weiAmount",
          "type": "uint256"
        }
      ],
      "name": "Withdrawn",
      "type": "event"
    },
    {
      "inputs": [
        {
          "internalType": "address",
          "name": "",
          "type": "address"
        }
      ],
      "name": "accounting",
      "outputs": [
        {
          "internalType": "uint256",
          "name": "",
          "type": "uint256"
        }
      ],
      "stateMutability": "view",
      "type": "function"
    },
    {
      "inputs": [],
      "name": "fee",
      "outputs": [
        {
          "internalType": "uint256",
          "name": "",
          "type": "uint256"
        }
      ],
      "stateMutability": "view",
      "type": "function"
    },
    {
      "inputs": [
        {
          "internalType": "address",
          "name": "",
          "type": "address"
        }
      ],
      "name": "minterDocumentAnchorCounter",
      "outputs": [
        {
          "internalType": "uint256",
          "name": "",
          "type": "uint256"
        }
      ],
      "stateMutability": "view",
      "type": "function"
    },
    {
      "inputs": [
        {
          "internalType": "address",
          "name": "",
          "type": "address"
        },
        {
          "internalType": "uint256",
          "name": "",
          "type": "uint256"
        }
      ],
      "name": "minterDocumentAnchors",
      "outputs": [
        {
          "internalType": "address",
          "name": "user",
          "type": "address"
        },
        {
          "internalType": "string",
          "name": "userDid",
          "type": "string"
        },
        {
          "internalType": "string",
          "name": "documentURI",
          "type": "string"
        },
        {
          "internalType": "string",
          "name": "description",
          "type": "string"
        },
        {
          "internalType": "uint256",
          "name": "timestamp",
          "type": "uint256"
        }
      ],
      "stateMutability": "view",
      "type": "function"
    },
    {
      "inputs": [],
      "name": "owner",
      "outputs": [
        {
          "internalType": "address",
          "name": "",
          "type": "address"
        }
      ],
      "stateMutability": "view",
      "type": "function"
    },
    {
      "inputs": [],
      "name": "stablecoin",
      "outputs": [
        {
          "internalType": "contract IERC20",
          "name": "",
          "type": "address"
        }
      ],
      "stateMutability": "view",
      "type": "function"
    },
    {
      "inputs": [
        {
          "internalType": "address payable",
          "name": "payee",
          "type": "address"
        }
      ],
      "name": "withdraw",
      "outputs": [],
      "stateMutability": "nonpayable",
      "type": "function"
    },
    {
      "inputs": [
        {
          "internalType": "address payable",
          "name": "payee",
          "type": "address"
        },
        {
          "internalType": "address",
          "name": "erc20token",
          "type": "address"
        }
      ],
      "name": "withdrawToken",
      "outputs": [],
      "stateMutability": "nonpayable",
      "type": "function"
    },
    {
      "inputs": [
        {
          "internalType": "uint256",
          "name": "_fee",
          "type": "uint256"
        }
      ],
      "name": "setProtocolConfig",
      "outputs": [],
      "stateMutability": "nonpayable",
      "type": "function"
    },
    {
      "inputs": [],
      "name": "getProtocolConfig",
      "outputs": [
        {
          "internalType": "uint256",
          "name": "",
          "type": "uint256"
        }
      ],
      "stateMutability": "view",
      "type": "function"
    },
    {
      "inputs": [
        {
          "internalType": "string",
          "name": "userDid",
          "type": "string"
        },
        {
          "internalType": "string",
          "name": "documentURI",
          "type": "string"
        },
        {
          "internalType": "string",
          "name": "description",
          "type": "string"
        }
      ],
      "name": "addDocument",
      "outputs": [
        {
          "internalType": "uint256",
          "name": "",
          "type": "uint256"
        }
      ],
      "stateMutability": "payable",
      "type": "function"
    }
  ],
  "bytecode": "0x60806040523480156200001157600080fd5b5060405162001bc938038062001bc98339818101604052810190620000379190620000d7565b33600260006101000a81548173ffffffffffffffffffffffffffffffffffffffff021916908373ffffffffffffffffffffffffffffffffffffffff16021790555080600460006101000a81548173ffffffffffffffffffffffffffffffffffffffff021916908373ffffffffffffffffffffffffffffffffffffffff1602179055505062000151565b600081519050620000d18162000137565b92915050565b600060208284031215620000ea57600080fd5b6000620000fa84828501620000c0565b91505092915050565b6000620001108262000117565b9050919050565b600073ffffffffffffffffffffffffffffffffffffffff82169050919050565b620001428162000103565b81146200014e57600080fd5b50565b611a6880620001616000396000f3fe60806040526004361061009c5760003560e01c80637efa0456116100645780637efa04561461018d5780638da5cb5b146101ca578063991edf3f146101f5578063ddca3f4314610232578063e9cbd8221461025d578063ed700b3e146102885761009c565b80632d2103c1146100a15780632f8d845a146100e257806336a8915b1461010b5780633aeac4e11461013b57806351cff8d914610164575b600080fd5b3480156100ad57600080fd5b506100c860048036038101906100c3919061112a565b6102b3565b6040516100d9959493929190611488565b60405180910390f35b3480156100ee57600080fd5b5061010960048036038101906101049190611226565b6104ae565b005b6101256004803603810190610120919061118f565b610548565b60405161013291906115db565b60405180910390f35b34801561014757600080fd5b50610162600480360381019061015d91906110ee565b610b79565b005b34801561017057600080fd5b5061018b600480360381019061018691906110c5565b610db5565b005b34801561019957600080fd5b506101b460048036038101906101af919061109c565b610e9c565b6040516101c191906115db565b60405180910390f35b3480156101d657600080fd5b506101df610eb4565b6040516101ec91906113e4565b60405180910390f35b34801561020157600080fd5b5061021c6004803603810190610217919061109c565b610eda565b60405161022991906115db565b60405180910390f35b34801561023e57600080fd5b50610247610ef2565b60405161025491906115db565b60405180910390f35b34801561026957600080fd5b50610272610ef8565b60405161027f91906114f0565b60405180910390f35b34801561029457600080fd5b5061029d610f1e565b6040516102aa91906115db565b60405180910390f35b6001602052816000526040600020602052806000526040600020600091509150508060000160009054906101000a900473ffffffffffffffffffffffffffffffffffffffff1690806001018054610309906117bf565b80601f0160208091040260200160405190810160405280929190818152602001828054610335906117bf565b80156103825780601f1061035757610100808354040283529160200191610382565b820191906000526020600020905b81548152906001019060200180831161036557829003601f168201915b505050505090806002018054610397906117bf565b80601f01602080910402602001604051908101604052809291908181526020018280546103c3906117bf565b80156104105780601f106103e557610100808354040283529160200191610410565b820191906000526020600020905b8154815290600101906020018083116103f357829003601f168201915b505050505090806003018054610425906117bf565b80601f0160208091040260200160405190810160405280929190818152602001828054610451906117bf565b801561049e5780601f106104735761010080835404028352916020019161049e565b820191906000526020600020905b81548152906001019060200180831161048157829003601f168201915b5050505050908060040154905085565b600260009054906101000a900473ffffffffffffffffffffffffffffffffffffffff1673ffffffffffffffffffffffffffffffffffffffff163373ffffffffffffffffffffffffffffffffffffffff161461053e576040517f08c379a00000000000000000000000000000000000000000000000000000000081526004016105359061157b565b60405180910390fd5b8060038190555050565b600080600460009054906101000a900473ffffffffffffffffffffffffffffffffffffffff1673ffffffffffffffffffffffffffffffffffffffff166370a08231336040518263ffffffff1660e01b81526004016105a691906113e4565b60206040518083038186803b1580156105be57600080fd5b505afa1580156105d2573d6000803e3d6000fd5b505050506040513d601f19601f820116820180604052508101906105f6919061124f565b1015610637576040517f08c379a000000000000000000000000000000000000000000000000000000000815260040161062e9061153b565b60405180910390fd5b6000600460009054906101000a900473ffffffffffffffffffffffffffffffffffffffff1673ffffffffffffffffffffffffffffffffffffffff1663dd62ed3e33306040518363ffffffff1660e01b8152600401610696929190611428565b60206040518083038186803b1580156106ae57600080fd5b505afa1580156106c2573d6000803e3d6000fd5b505050506040513d601f19601f820116820180604052508101906106e6919061124f565b1015610727576040517f08c379a000000000000000000000000000000000000000000000000000000000815260040161071e906115bb565b60405180910390fd5b600460009054906101000a900473ffffffffffffffffffffffffffffffffffffffff1673ffffffffffffffffffffffffffffffffffffffff166323b872dd33306003546040518463ffffffff1660e01b815260040161078893929190611451565b602060405180830381600087803b1580156107a257600080fd5b505af11580156107b6573d6000803e3d6000fd5b505050506040513d601f19601f820116820180604052508101906107da9190611166565b610819576040517f08c379a00000000000000000000000000000000000000000000000000000000081526004016108109061155b565b60405180910390fd5b600354600560003373ffffffffffffffffffffffffffffffffffffffff1673ffffffffffffffffffffffffffffffffffffffff168152602001908152602001600020546108669190611673565b600560003373ffffffffffffffffffffffffffffffffffffffff1673ffffffffffffffffffffffffffffffffffffffff16815260200190815260200160002081905550600354600560003073ffffffffffffffffffffffffffffffffffffffff1673ffffffffffffffffffffffffffffffffffffffff168152602001908152602001600020546108f69190611673565b600560003073ffffffffffffffffffffffffffffffffffffffff1673ffffffffffffffffffffffffffffffffffffffff168152602001908152602001600020819055506000803373ffffffffffffffffffffffffffffffffffffffff1673ffffffffffffffffffffffffffffffffffffffff168152602001908152602001600020600081548092919061098890611822565b919050555060008060003373ffffffffffffffffffffffffffffffffffffffff1673ffffffffffffffffffffffffffffffffffffffff1681526020019081526020016000205490506040518060a001604052803373ffffffffffffffffffffffffffffffffffffffff16815260200186815260200185815260200184815260200142815250600160003373ffffffffffffffffffffffffffffffffffffffff1673ffffffffffffffffffffffffffffffffffffffff168152602001908152602001600020600083815260200190815260200160002060008201518160000160006101000a81548173ffffffffffffffffffffffffffffffffffffffff021916908373ffffffffffffffffffffffffffffffffffffffff1602179055506020820151816001019080519060200190610ac0929190610f28565b506040820151816002019080519060200190610add929190610f28565b506060820151816003019080519060200190610afa929190610f28565b506080820151816004015590505084604051610b1691906113cd565b60405180910390203373ffffffffffffffffffffffffffffffffffffffff167f0a007e579f0793671747216eab1061026d102ff0f66e876d2edaa6277ad53e668684604051610b6692919061150b565b60405180910390a3809150509392505050565b600260009054906101000a900473ffffffffffffffffffffffffffffffffffffffff1673ffffffffffffffffffffffffffffffffffffffff163373ffffffffffffffffffffffffffffffffffffffff1614610c09576040517f08c379a0000000000000000000000000000000000000000000000000000000008152600401610c009061157b565b60405180910390fd5b60008173ffffffffffffffffffffffffffffffffffffffff166370a08231306040518263ffffffff1660e01b8152600401610c4491906113e4565b60206040518083038186803b158015610c5c57600080fd5b505afa158015610c70573d6000803e3d6000fd5b505050506040513d601f19601f82011682018060405250810190610c94919061124f565b90508173ffffffffffffffffffffffffffffffffffffffff1663a9059cbb84836040518363ffffffff1660e01b8152600401610cd19291906113ff565b602060405180830381600087803b158015610ceb57600080fd5b505af1158015610cff573d6000803e3d6000fd5b505050506040513d601f19601f82011682018060405250810190610d239190611166565b610d62576040517f08c379a0000000000000000000000000000000000000000000000000000000008152600401610d599061159b565b60405180910390fd5b8273ffffffffffffffffffffffffffffffffffffffff167f7084f5476618d8e60b11ef0d7d3f06914655adb8793e28ff7f018d4c76d505d582604051610da891906115db565b60405180910390a2505050565b600260009054906101000a900473ffffffffffffffffffffffffffffffffffffffff1673ffffffffffffffffffffffffffffffffffffffff163373ffffffffffffffffffffffffffffffffffffffff1614610e45576040517f08c379a0000000000000000000000000000000000000000000000000000000008152600401610e3c9061157b565b60405180910390fd5b60004790508173ffffffffffffffffffffffffffffffffffffffff167f7084f5476618d8e60b11ef0d7d3f06914655adb8793e28ff7f018d4c76d505d582604051610e9091906115db565b60405180910390a25050565b60006020528060005260406000206000915090505481565b600260009054906101000a900473ffffffffffffffffffffffffffffffffffffffff1681565b60056020528060005260406000206000915090505481565b60035481565b600460009054906101000a900473ffffffffffffffffffffffffffffffffffffffff1681565b6000600354905090565b828054610f34906117bf565b90600052602060002090601f016020900481019282610f565760008555610f9d565b82601f10610f6f57805160ff1916838001178555610f9d565b82800160010185558215610f9d579182015b82811115610f9c578251825591602001919060010190610f81565b5b509050610faa9190610fae565b5090565b5b80821115610fc7576000816000905550600101610faf565b5090565b6000610fde610fd98461161b565b6115f6565b905082815260208101848484011115610ff657600080fd5b61100184828561177d565b509392505050565b600081359050611018816119d6565b92915050565b60008135905061102d816119ed565b92915050565b60008151905061104281611a04565b92915050565b600082601f83011261105957600080fd5b8135611069848260208601610fcb565b91505092915050565b60008135905061108181611a1b565b92915050565b60008151905061109681611a1b565b92915050565b6000602082840312156110ae57600080fd5b60006110bc84828501611009565b91505092915050565b6000602082840312156110d757600080fd5b60006110e58482850161101e565b91505092915050565b6000806040838503121561110157600080fd5b600061110f8582860161101e565b925050602061112085828601611009565b9150509250929050565b6000806040838503121561113d57600080fd5b600061114b85828601611009565b925050602061115c85828601611072565b9150509250929050565b60006020828403121561117857600080fd5b600061118684828501611033565b91505092915050565b6000806000606084860312156111a457600080fd5b600084013567ffffffffffffffff8111156111be57600080fd5b6111ca86828701611048565b935050602084013567ffffffffffffffff8111156111e757600080fd5b6111f386828701611048565b925050604084013567ffffffffffffffff81111561121057600080fd5b61121c86828701611048565b9150509250925092565b60006020828403121561123857600080fd5b600061124684828501611072565b91505092915050565b60006020828403121561126157600080fd5b600061126f84828501611087565b91505092915050565b61128181611723565b82525050565b611290816116c9565b82525050565b61129f81611735565b82525050565b60006112b08261164c565b6112ba8185611657565b93506112ca81856020860161178c565b6112d3816118f8565b840191505092915050565b60006112e98261164c565b6112f38185611668565b935061130381856020860161178c565b80840191505092915050565b600061131c601583611657565b915061132782611909565b602082019050919050565b600061133f601783611657565b915061134a82611932565b602082019050919050565b6000611362600c83611657565b915061136d8261195b565b602082019050919050565b6000611385601e83611657565b915061139082611984565b602082019050919050565b60006113a8601783611657565b91506113b3826119ad565b602082019050919050565b6113c781611719565b82525050565b60006113d982846112de565b915081905092915050565b60006020820190506113f96000830184611287565b92915050565b60006040820190506114146000830185611278565b61142160208301846113be565b9392505050565b600060408201905061143d6000830185611287565b61144a6020830184611287565b9392505050565b60006060820190506114666000830186611287565b6114736020830185611287565b61148060408301846113be565b949350505050565b600060a08201905061149d6000830188611287565b81810360208301526114af81876112a5565b905081810360408301526114c381866112a5565b905081810360608301526114d781856112a5565b90506114e660808301846113be565b9695505050505050565b60006020820190506115056000830184611296565b92915050565b6000604082019050818103600083015261152581856112a5565b905061153460208301846113be565b9392505050565b600060208201905081810360008301526115548161130f565b9050919050565b6000602082019050818103600083015261157481611332565b9050919050565b6000602082019050818103600083015261159481611355565b9050919050565b600060208201905081810360008301526115b481611378565b9050919050565b600060208201905081810360008301526115d48161139b565b9050919050565b60006020820190506115f060008301846113be565b92915050565b6000611600611611565b905061160c82826117f1565b919050565b6000604051905090565b600067ffffffffffffffff821115611636576116356118c9565b5b61163f826118f8565b9050602081019050919050565b600081519050919050565b600082825260208201905092915050565b600081905092915050565b600061167e82611719565b915061168983611719565b9250827fffffffffffffffffffffffffffffffffffffffffffffffffffffffffffffffff038211156116be576116bd61186b565b5b828201905092915050565b60006116d4826116f9565b9050919050565b60006116e6826116f9565b9050919050565b60008115159050919050565b600073ffffffffffffffffffffffffffffffffffffffff82169050919050565b6000819050919050565b600061172e82611759565b9050919050565b600061174082611747565b9050919050565b6000611752826116f9565b9050919050565b60006117648261176b565b9050919050565b6000611776826116f9565b9050919050565b82818337600083830152505050565b60005b838110156117aa57808201518184015260208101905061178f565b838111156117b9576000848401525b50505050565b600060028204905060018216806117d757607f821691505b602082108114156117eb576117ea61189a565b5b50919050565b6117fa826118f8565b810181811067ffffffffffffffff82111715611819576118186118c9565b5b80604052505050565b600061182d82611719565b91507fffffffffffffffffffffffffffffffffffffffffffffffffffffffffffffffff8214156118605761185f61186b565b5b600182019050919050565b7f4e487b7100000000000000000000000000000000000000000000000000000000600052601160045260246000fd5b7f4e487b7100000000000000000000000000000000000000000000000000000000600052602260045260246000fd5b7f4e487b7100000000000000000000000000000000000000000000000000000000600052604160045260246000fd5b6000601f19601f8301169050919050565b7f496e76616c696420746f6b656e2062616c616e63650000000000000000000000600082015250565b7f5472616e73666572206661696c656420666f7220666565000000000000000000600082015250565b7f494e56414c49445f555345520000000000000000000000000000000000000000600082015250565b7f5472616e73666572206661696c656420666f72206261736520746f6b656e0000600082015250565b7f496e76616c696420746f6b656e20616c6c6f77616e6365000000000000000000600082015250565b6119df816116c9565b81146119ea57600080fd5b50565b6119f6816116db565b8114611a0157600080fd5b50565b611a0d816116ed565b8114611a1857600080fd5b50565b611a2481611719565b8114611a2f57600080fd5b5056fea2646970667358221220b62458c0f6ee7e34b3365d0c6ad95181e492b7d9764d10a982231e84c1218e5564736f6c63430008040033",
  "immutableReferences": {},
  "source": "// SPDX-License-Identifier: MIT\npragma solidity ^0.8.0;\n\nimport \"@openzeppelin/contracts/token/ERC20/IERC20.sol\";\nimport \"@openzeppelin/contracts/token/ERC721/ERC721.sol\";\nimport \"@openzeppelin/contracts/utils/Counters.sol\";\n\n/**\n *  Register Minters  debe ir un mapping, un evento de add registry, un counter para \n saber cuantos registros , get de fetch que debe recibir un address, y returnar un struct de vuelta\n */\ncontract XDVDocumentAnchoring {\n    // Document by minter id sequence/autonumber\n    mapping(address => uint) public minterDocumentAnchorCounter;\n\n    // Document by user address by id\n    mapping(address => mapping(uint => DocumentAnchor)) public minterDocumentAnchors;\n\n    event Withdrawn(address indexed payee, uint256 weiAmount);\n    address public owner;\n    uint public fee;\n    IERC20 public stablecoin;\n\n    mapping (address => uint) public accounting;\n\n    /**\n    * XDV Data Token\n    */\n    constructor(\n        address tokenAddress\n    ) {\n        owner = msg.sender;\n        stablecoin = IERC20(tokenAddress);\n    }\n\n\n    function withdraw(address payable payee) public {\n        require(msg.sender == owner, \"INVALID_USER\");\n        uint256 b = address(this).balance;\n\n        emit Withdrawn(payee, b);\n    }\n\n    function withdrawToken(address payable payee, address erc20token) public {\n        require(msg.sender == owner, \"INVALID_USER\");\n        uint256 balance = IERC20(erc20token).balanceOf(address(this));\n\n        // Transfer tokens to pay service fee\n        require(\n            IERC20(erc20token).transfer(payee, balance),\n            \"Transfer failed for base token\"\n        );\n\n        emit Withdrawn(payee, balance);\n    }\n\n    function setProtocolConfig(uint256 _fee) public {\n        require(msg.sender == owner, \"INVALID_USER\");\n        fee = _fee;\n    }\n\n    function getProtocolConfig() public view returns (uint256) {\n        return (fee);\n    }\n    // Document Anchor\n    struct DocumentAnchor {\n        address user;\n        string userDid;\n        string documentURI; \n        string description;\n        uint timestamp;\n    }\n\n    // DocumentAnchored events\n    event DocumentAnchored(\n        address indexed user, \n        string indexed userDid,\n        string documentURI,\n        uint id\n    );\n\n    function addDocument(\n        string memory userDid,\n        string memory documentURI,\n        string memory description\n    ) public payable returns(uint){\n\n        // User must have a balance\n        require(\n            stablecoin.balanceOf(msg.sender) >= 0,\n            \"Invalid token balance\"\n        );\n        // User must have an allowance\n        require(\n            stablecoin.allowance(msg.sender, address(this)) >= 0,\n            \"Invalid token allowance\"\n        );\n\n\n        require(\n            stablecoin.transferFrom(\n                msg.sender,\n                address(this), \n                fee),\n            \"Transfer failed for fee\"\n        );\n\n        accounting[msg.sender] = accounting[msg.sender] + fee;\n        accounting[address(this)] = accounting[address(this)] + fee;\n\n        minterDocumentAnchorCounter[msg.sender]++;\n        uint i = minterDocumentAnchorCounter[msg.sender];\n            \n        minterDocumentAnchors[msg.sender][i] = DocumentAnchor({\n            user: msg.sender, \n            userDid: userDid,\n            documentURI: documentURI,\n            description: description,\n            timestamp: block.timestamp\n        });\n\n        emit DocumentAnchored(msg.sender, userDid, documentURI, i);\n        return i;\n    }\n\n}",
  "sourcePath": "/home/rogelio/Code/xdv/nft-document-swap/contracts/XDVDocumentAnchoring.sol",
  "compiler": {
    "name": "solc",
    "version": "0.8.4+commit.c7e474f2.Emscripten.clang"
  },
  "schemaVersion": "3.4.0",
  "updatedAt": "2021-05-02T17:01:20.134Z",
  "devdoc": {
    "kind": "dev",
    "methods": {},
    "version": 1
  },
  "userdoc": {
    "kind": "user",
    "methods": {
      "constructor": {
        "notice": "XDV Data Token"
      }
    },
    "notice": "Register Minters  debe ir un mapping, un evento de add registry, un counter para  saber cuantos registros , get de fetch que debe recibir un address, y returnar un struct de vuelta",
    "version": 1
  }
}