{
  "contractName": "XDVDocumentAnchoring",
  "abi": [
    {
      "inputs": [
        {
          "internalType": "address",
          "name": "tokenAddress",
          "type": "address"
        }
      ],
      "stateMutability": "nonpayable",
      "type": "constructor"
    },
    {
      "anonymous": false,
      "inputs": [
        {
          "indexed": true,
          "internalType": "address",
          "name": "user",
          "type": "address"
        },
        {
          "indexed": true,
          "internalType": "string",
          "name": "userDid",
          "type": "string"
        },
        {
          "indexed": false,
          "internalType": "string",
          "name": "documentURI",
          "type": "string"
        },
        {
          "indexed": false,
          "internalType": "uint256",
          "name": "id",
          "type": "uint256"
        }
      ],
      "name": "DocumentAnchored",
      "type": "event"
    },
    {
      "inputs": [
        {
          "internalType": "address",
          "name": "",
          "type": "address"
        }
      ],
      "name": "accounting",
      "outputs": [
        {
          "internalType": "uint256",
          "name": "",
          "type": "uint256"
        }
      ],
      "stateMutability": "view",
      "type": "function",
      "constant": true
    },
    {
      "inputs": [],
      "name": "fee",
      "outputs": [
        {
          "internalType": "uint256",
          "name": "",
          "type": "uint256"
        }
      ],
      "stateMutability": "view",
      "type": "function",
      "constant": true
    },
    {
      "inputs": [
        {
          "internalType": "address",
          "name": "",
          "type": "address"
        }
      ],
      "name": "minterDocumentAnchorCounter",
      "outputs": [
        {
          "internalType": "uint256",
          "name": "",
          "type": "uint256"
        }
      ],
      "stateMutability": "view",
      "type": "function",
      "constant": true
    },
    {
      "inputs": [
        {
          "internalType": "address",
          "name": "",
          "type": "address"
        },
        {
          "internalType": "uint256",
          "name": "",
          "type": "uint256"
        }
      ],
      "name": "minterDocumentAnchors",
      "outputs": [
        {
          "internalType": "address",
          "name": "user",
          "type": "address"
        },
        {
          "internalType": "string",
          "name": "userDid",
          "type": "string"
        },
        {
          "internalType": "string",
          "name": "documentURI",
          "type": "string"
        },
        {
          "internalType": "string",
          "name": "description",
          "type": "string"
        },
        {
          "internalType": "uint256",
          "name": "timestamp",
          "type": "uint256"
        }
      ],
      "stateMutability": "view",
      "type": "function",
      "constant": true
    },
    {
      "inputs": [],
      "name": "owner",
      "outputs": [
        {
          "internalType": "address",
          "name": "",
          "type": "address"
        }
      ],
      "stateMutability": "view",
      "type": "function",
      "constant": true
    },
    {
      "inputs": [],
      "name": "stablecoin",
      "outputs": [
        {
          "internalType": "contract IERC20",
          "name": "",
          "type": "address"
        }
      ],
      "stateMutability": "view",
      "type": "function",
      "constant": true
    },
    {
      "inputs": [
        {
          "internalType": "uint256",
          "name": "_fee",
          "type": "uint256"
        }
      ],
      "name": "setProtocolConfig",
      "outputs": [],
      "stateMutability": "nonpayable",
      "type": "function"
    },
    {
      "inputs": [],
      "name": "getProtocolConfig",
      "outputs": [
        {
          "internalType": "uint256",
          "name": "",
          "type": "uint256"
        }
      ],
      "stateMutability": "view",
      "type": "function",
      "constant": true
    },
    {
      "inputs": [
        {
          "internalType": "string",
          "name": "userDid",
          "type": "string"
        },
        {
          "internalType": "string",
          "name": "documentURI",
          "type": "string"
        },
        {
          "internalType": "string",
          "name": "description",
          "type": "string"
        }
      ],
      "name": "addDocument",
      "outputs": [
        {
          "internalType": "uint256",
          "name": "",
          "type": "uint256"
        }
      ],
      "stateMutability": "payable",
      "type": "function",
      "payable": true
    }
  ],
  "bytecode": "0x60806040523480156200001157600080fd5b50604051620016c1380380620016c18339818101604052810190620000379190620000d7565b33600260006101000a81548173ffffffffffffffffffffffffffffffffffffffff021916908373ffffffffffffffffffffffffffffffffffffffff16021790555080600460006101000a81548173ffffffffffffffffffffffffffffffffffffffff021916908373ffffffffffffffffffffffffffffffffffffffff1602179055505062000151565b600081519050620000d18162000137565b92915050565b600060208284031215620000ea57600080fd5b6000620000fa84828501620000c0565b91505092915050565b6000620001108262000117565b9050919050565b600073ffffffffffffffffffffffffffffffffffffffff82169050919050565b620001428162000103565b81146200014e57600080fd5b50565b61156080620001616000396000f3fe6080604052600436106100865760003560e01c80638da5cb5b116100595780638da5cb5b14610162578063991edf3f1461018d578063ddca3f43146101ca578063e9cbd822146101f5578063ed700b3e1461022057610086565b80632d2103c11461008b5780632f8d845a146100cc57806336a8915b146100f55780637efa045614610125575b600080fd5b34801561009757600080fd5b506100b260048036038101906100ad9190610d25565b61024b565b6040516100c3959493929190611028565b60405180910390f35b3480156100d857600080fd5b506100f360048036038101906100ee9190610e21565b610446565b005b61010f600480360381019061010a9190610d8a565b6104e0565b60405161011c919061115b565b60405180910390f35b34801561013157600080fd5b5061014c60048036038101906101479190610cfc565b610b11565b604051610159919061115b565b60405180910390f35b34801561016e57600080fd5b50610177610b29565b6040516101849190610fad565b60405180910390f35b34801561019957600080fd5b506101b460048036038101906101af9190610cfc565b610b4f565b6040516101c1919061115b565b60405180910390f35b3480156101d657600080fd5b506101df610b67565b6040516101ec919061115b565b60405180910390f35b34801561020157600080fd5b5061020a610b6d565b6040516102179190611090565b60405180910390f35b34801561022c57600080fd5b50610235610b93565b604051610242919061115b565b60405180910390f35b6001602052816000526040600020602052806000526040600020600091509150508060000160009054906101000a900473ffffffffffffffffffffffffffffffffffffffff16908060010180546102a1906112f7565b80601f01602080910402602001604051908101604052809291908181526020018280546102cd906112f7565b801561031a5780601f106102ef5761010080835404028352916020019161031a565b820191906000526020600020905b8154815290600101906020018083116102fd57829003601f168201915b50505050509080600201805461032f906112f7565b80601f016020809104026020016040519081016040528092919081815260200182805461035b906112f7565b80156103a85780601f1061037d576101008083540402835291602001916103a8565b820191906000526020600020905b81548152906001019060200180831161038b57829003601f168201915b5050505050908060030180546103bd906112f7565b80601f01602080910402602001604051908101604052809291908181526020018280546103e9906112f7565b80156104365780601f1061040b57610100808354040283529160200191610436565b820191906000526020600020905b81548152906001019060200180831161041957829003601f168201915b5050505050908060040154905085565b600260009054906101000a900473ffffffffffffffffffffffffffffffffffffffff1673ffffffffffffffffffffffffffffffffffffffff163373ffffffffffffffffffffffffffffffffffffffff16146104d6576040517f08c379a00000000000000000000000000000000000000000000000000000000081526004016104cd9061111b565b60405180910390fd5b8060038190555050565b600080600460009054906101000a900473ffffffffffffffffffffffffffffffffffffffff1673ffffffffffffffffffffffffffffffffffffffff166370a08231336040518263ffffffff1660e01b815260040161053e9190610fad565b60206040518083038186803b15801561055657600080fd5b505afa15801561056a573d6000803e3d6000fd5b505050506040513d601f19601f8201168201806040525081019061058e9190610e4a565b10156105cf576040517f08c379a00000000000000000000000000000000000000000000000000000000081526004016105c6906110db565b60405180910390fd5b6000600460009054906101000a900473ffffffffffffffffffffffffffffffffffffffff1673ffffffffffffffffffffffffffffffffffffffff1663dd62ed3e33306040518363ffffffff1660e01b815260040161062e929190610fc8565b60206040518083038186803b15801561064657600080fd5b505afa15801561065a573d6000803e3d6000fd5b505050506040513d601f19601f8201168201806040525081019061067e9190610e4a565b10156106bf576040517f08c379a00000000000000000000000000000000000000000000000000000000081526004016106b69061113b565b60405180910390fd5b600460009054906101000a900473ffffffffffffffffffffffffffffffffffffffff1673ffffffffffffffffffffffffffffffffffffffff166323b872dd33306003546040518463ffffffff1660e01b815260040161072093929190610ff1565b602060405180830381600087803b15801561073a57600080fd5b505af115801561074e573d6000803e3d6000fd5b505050506040513d601f19601f820116820180604052508101906107729190610d61565b6107b1576040517f08c379a00000000000000000000000000000000000000000000000000000000081526004016107a8906110fb565b60405180910390fd5b600354600560003373ffffffffffffffffffffffffffffffffffffffff1673ffffffffffffffffffffffffffffffffffffffff168152602001908152602001600020546107fe91906111f3565b600560003373ffffffffffffffffffffffffffffffffffffffff1673ffffffffffffffffffffffffffffffffffffffff16815260200190815260200160002081905550600354600560003073ffffffffffffffffffffffffffffffffffffffff1673ffffffffffffffffffffffffffffffffffffffff1681526020019081526020016000205461088e91906111f3565b600560003073ffffffffffffffffffffffffffffffffffffffff1673ffffffffffffffffffffffffffffffffffffffff168152602001908152602001600020819055506000803373ffffffffffffffffffffffffffffffffffffffff1673ffffffffffffffffffffffffffffffffffffffff16815260200190815260200160002060008154809291906109209061135a565b919050555060008060003373ffffffffffffffffffffffffffffffffffffffff1673ffffffffffffffffffffffffffffffffffffffff1681526020019081526020016000205490506040518060a001604052803373ffffffffffffffffffffffffffffffffffffffff16815260200186815260200185815260200184815260200142815250600160003373ffffffffffffffffffffffffffffffffffffffff1673ffffffffffffffffffffffffffffffffffffffff168152602001908152602001600020600083815260200190815260200160002060008201518160000160006101000a81548173ffffffffffffffffffffffffffffffffffffffff021916908373ffffffffffffffffffffffffffffffffffffffff1602179055506020820151816001019080519060200190610a58929190610b9d565b506040820151816002019080519060200190610a75929190610b9d565b506060820151816003019080519060200190610a92929190610b9d565b506080820151816004015590505084604051610aae9190610f96565b60405180910390203373ffffffffffffffffffffffffffffffffffffffff167f0a007e579f0793671747216eab1061026d102ff0f66e876d2edaa6277ad53e668684604051610afe9291906110ab565b60405180910390a3809150509392505050565b60006020528060005260406000206000915090505481565b600260009054906101000a900473ffffffffffffffffffffffffffffffffffffffff1681565b60056020528060005260406000206000915090505481565b60035481565b600460009054906101000a900473ffffffffffffffffffffffffffffffffffffffff1681565b6000600354905090565b828054610ba9906112f7565b90600052602060002090601f016020900481019282610bcb5760008555610c12565b82601f10610be457805160ff1916838001178555610c12565b82800160010185558215610c12579182015b82811115610c11578251825591602001919060010190610bf6565b5b509050610c1f9190610c23565b5090565b5b80821115610c3c576000816000905550600101610c24565b5090565b6000610c53610c4e8461119b565b611176565b905082815260208101848484011115610c6b57600080fd5b610c768482856112b5565b509392505050565b600081359050610c8d816114e5565b92915050565b600081519050610ca2816114fc565b92915050565b600082601f830112610cb957600080fd5b8135610cc9848260208601610c40565b91505092915050565b600081359050610ce181611513565b92915050565b600081519050610cf681611513565b92915050565b600060208284031215610d0e57600080fd5b6000610d1c84828501610c7e565b91505092915050565b60008060408385031215610d3857600080fd5b6000610d4685828601610c7e565b9250506020610d5785828601610cd2565b9150509250929050565b600060208284031215610d7357600080fd5b6000610d8184828501610c93565b91505092915050565b600080600060608486031215610d9f57600080fd5b600084013567ffffffffffffffff811115610db957600080fd5b610dc586828701610ca8565b935050602084013567ffffffffffffffff811115610de257600080fd5b610dee86828701610ca8565b925050604084013567ffffffffffffffff811115610e0b57600080fd5b610e1786828701610ca8565b9150509250925092565b600060208284031215610e3357600080fd5b6000610e4184828501610cd2565b91505092915050565b600060208284031215610e5c57600080fd5b6000610e6a84828501610ce7565b91505092915050565b610e7c81611249565b82525050565b610e8b81611291565b82525050565b6000610e9c826111cc565b610ea681856111d7565b9350610eb68185602086016112c4565b610ebf81611430565b840191505092915050565b6000610ed5826111cc565b610edf81856111e8565b9350610eef8185602086016112c4565b80840191505092915050565b6000610f086015836111d7565b9150610f1382611441565b602082019050919050565b6000610f2b6017836111d7565b9150610f368261146a565b602082019050919050565b6000610f4e600c836111d7565b9150610f5982611493565b602082019050919050565b6000610f716017836111d7565b9150610f7c826114bc565b602082019050919050565b610f9081611287565b82525050565b6000610fa28284610eca565b915081905092915050565b6000602082019050610fc26000830184610e73565b92915050565b6000604082019050610fdd6000830185610e73565b610fea6020830184610e73565b9392505050565b60006060820190506110066000830186610e73565b6110136020830185610e73565b6110206040830184610f87565b949350505050565b600060a08201905061103d6000830188610e73565b818103602083015261104f8187610e91565b905081810360408301526110638186610e91565b905081810360608301526110778185610e91565b90506110866080830184610f87565b9695505050505050565b60006020820190506110a56000830184610e82565b92915050565b600060408201905081810360008301526110c58185610e91565b90506110d46020830184610f87565b9392505050565b600060208201905081810360008301526110f481610efb565b9050919050565b6000602082019050818103600083015261111481610f1e565b9050919050565b6000602082019050818103600083015261113481610f41565b9050919050565b6000602082019050818103600083015261115481610f64565b9050919050565b60006020820190506111706000830184610f87565b92915050565b6000611180611191565b905061118c8282611329565b919050565b6000604051905090565b600067ffffffffffffffff8211156111b6576111b5611401565b5b6111bf82611430565b9050602081019050919050565b600081519050919050565b600082825260208201905092915050565b600081905092915050565b60006111fe82611287565b915061120983611287565b9250827fffffffffffffffffffffffffffffffffffffffffffffffffffffffffffffffff0382111561123e5761123d6113a3565b5b828201905092915050565b600061125482611267565b9050919050565b60008115159050919050565b600073ffffffffffffffffffffffffffffffffffffffff82169050919050565b6000819050919050565b600061129c826112a3565b9050919050565b60006112ae82611267565b9050919050565b82818337600083830152505050565b60005b838110156112e25780820151818401526020810190506112c7565b838111156112f1576000848401525b50505050565b6000600282049050600182168061130f57607f821691505b60208210811415611323576113226113d2565b5b50919050565b61133282611430565b810181811067ffffffffffffffff8211171561135157611350611401565b5b80604052505050565b600061136582611287565b91507fffffffffffffffffffffffffffffffffffffffffffffffffffffffffffffffff821415611398576113976113a3565b5b600182019050919050565b7f4e487b7100000000000000000000000000000000000000000000000000000000600052601160045260246000fd5b7f4e487b7100000000000000000000000000000000000000000000000000000000600052602260045260246000fd5b7f4e487b7100000000000000000000000000000000000000000000000000000000600052604160045260246000fd5b6000601f19601f8301169050919050565b7f496e76616c696420746f6b656e2062616c616e63650000000000000000000000600082015250565b7f5472616e73666572206661696c656420666f7220666565000000000000000000600082015250565b7f494e56414c49445f555345520000000000000000000000000000000000000000600082015250565b7f496e76616c696420746f6b656e20616c6c6f77616e6365000000000000000000600082015250565b6114ee81611249565b81146114f957600080fd5b50565b6115058161125b565b811461151057600080fd5b50565b61151c81611287565b811461152757600080fd5b5056fea26469706673582212201993754eb27e566a6cc595083a396083ec9019277a3890becb7d2058f57f4cdc64736f6c63430008030033",
  "immutableReferences": {},
  "source": "// SPDX-License-Identifier: MIT\npragma solidity ^0.8.0;\n\nimport \"@openzeppelin/contracts/token/ERC20/IERC20.sol\";\nimport \"@openzeppelin/contracts/token/ERC721/ERC721.sol\";\nimport \"@openzeppelin/contracts/utils/Counters.sol\";\n\n/**\n *  Register Minters  debe ir un mapping, un evento de add registry, un counter para \n saber cuantos registros , get de fetch que debe recibir un address, y returnar un struct de vuelta\n */\ncontract XDVDocumentAnchoring {\n    // Document by minter id sequence/autonumber\n    mapping(address => uint) public minterDocumentAnchorCounter;\n\n    // Document by user address by id\n    mapping(address => mapping(uint => DocumentAnchor)) public minterDocumentAnchors;\n\n    address public owner;\n    uint public fee;\n    IERC20 public stablecoin;\n\n    mapping (address => uint) public accounting;\n\n    /**\n    * XDV Data Token\n    */\n    constructor(\n        address tokenAddress\n    ) {\n        owner = msg.sender;\n        stablecoin = IERC20(tokenAddress);\n    }\n\n\n    function setProtocolConfig(uint256 _fee) public {\n        require(msg.sender == owner, \"INVALID_USER\");\n        fee = _fee;\n    }\n\n    function getProtocolConfig() public view returns (uint256) {\n        return (fee);\n    }\n    // Document Anchor\n    struct DocumentAnchor {\n        address user;\n        string userDid;\n        string documentURI; \n        string description;\n        uint timestamp;\n    }\n\n    // DocumentAnchored events\n    event DocumentAnchored(\n        address indexed user, \n        string indexed userDid,\n        string documentURI,\n        uint id\n    );\n\n    function addDocument(\n        string memory userDid,\n        string memory documentURI,\n        string memory description\n    ) public payable returns(uint){\n\n        // User must have a balance\n        require(\n            stablecoin.balanceOf(msg.sender) >= 0,\n            \"Invalid token balance\"\n        );\n        // User must have an allowance\n        require(\n            stablecoin.allowance(msg.sender, address(this)) >= 0,\n            \"Invalid token allowance\"\n        );\n\n\n        require(\n            stablecoin.transferFrom(\n                msg.sender,\n                address(this), \n                fee),\n            \"Transfer failed for fee\"\n        );\n\n        accounting[msg.sender] = accounting[msg.sender] + fee;\n        accounting[address(this)] = accounting[address(this)] + fee;\n\n        minterDocumentAnchorCounter[msg.sender]++;\n        uint i = minterDocumentAnchorCounter[msg.sender];\n            \n        minterDocumentAnchors[msg.sender][i] = DocumentAnchor({\n            user: msg.sender, \n            userDid: userDid,\n            documentURI: documentURI,\n            description: description,\n            timestamp: block.timestamp\n        });\n\n        emit DocumentAnchored(msg.sender, userDid, documentURI, i);\n        return i;\n    }\n\n}",
  "sourcePath": "/Users/zubietaroberto/git/nft-document-swap/contracts/XDVDocumentAnchoring.sol",
  "compiler": {
    "name": "solc",
    "version": "0.8.3+commit.8d00100c.Emscripten.clang"
  },
  "schemaVersion": "3.3.4",
  "updatedAt": "2021-04-14T14:23:40.829Z",
  "networkType": "ethereum",
  "devdoc": {
    "kind": "dev",
    "methods": {},
    "version": 1
  },
  "userdoc": {
    "kind": "user",
    "methods": {
      "constructor": {
        "notice": "XDV Data Token"
      }
    },
    "notice": "Register Minters  debe ir un mapping, un evento de add registry, un counter para  saber cuantos registros , get de fetch que debe recibir un address, y returnar un struct de vuelta",
    "version": 1
  }
}