{
  "contractName": "XDVDocumentAnchoring",
  "abi": [
    {
      "inputs": [
        {
          "internalType": "address",
          "name": "tokenAddress",
          "type": "address"
        }
      ],
      "stateMutability": "nonpayable",
      "type": "constructor"
    },
    {
      "anonymous": false,
      "inputs": [
        {
          "indexed": true,
          "internalType": "address",
          "name": "user",
          "type": "address"
        },
        {
          "indexed": true,
          "internalType": "string",
          "name": "userDid",
          "type": "string"
        },
        {
          "indexed": false,
          "internalType": "string",
          "name": "documentURI",
          "type": "string"
        },
        {
          "indexed": false,
          "internalType": "uint256",
          "name": "id",
          "type": "uint256"
        }
      ],
      "name": "DocumentAnchored",
      "type": "event"
    },
    {
      "anonymous": false,
      "inputs": [
        {
          "indexed": true,
          "internalType": "address",
          "name": "payee",
          "type": "address"
        },
        {
          "indexed": false,
          "internalType": "uint256",
          "name": "weiAmount",
          "type": "uint256"
        }
      ],
      "name": "Withdrawn",
      "type": "event"
    },
    {
      "inputs": [
        {
          "internalType": "address",
          "name": "",
          "type": "address"
        }
      ],
      "name": "accounting",
      "outputs": [
        {
          "internalType": "uint256",
          "name": "",
          "type": "uint256"
        }
      ],
      "stateMutability": "view",
      "type": "function"
    },
    {
      "inputs": [],
      "name": "fee",
      "outputs": [
        {
          "internalType": "uint256",
          "name": "",
          "type": "uint256"
        }
      ],
      "stateMutability": "view",
      "type": "function"
    },
    {
      "inputs": [
        {
          "internalType": "address",
          "name": "",
          "type": "address"
        }
      ],
      "name": "minterDocumentAnchorCounter",
      "outputs": [
        {
          "internalType": "uint256",
          "name": "",
          "type": "uint256"
        }
      ],
      "stateMutability": "view",
      "type": "function"
    },
    {
      "inputs": [
        {
          "internalType": "address",
          "name": "",
          "type": "address"
        },
        {
          "internalType": "uint256",
          "name": "",
          "type": "uint256"
        }
      ],
      "name": "minterDocumentAnchors",
      "outputs": [
        {
          "internalType": "address",
          "name": "user",
          "type": "address"
        },
        {
          "internalType": "string",
          "name": "userDid",
          "type": "string"
        },
        {
          "internalType": "string",
          "name": "documentURI",
          "type": "string"
        },
        {
          "internalType": "string",
          "name": "description",
          "type": "string"
        },
        {
          "internalType": "uint256",
          "name": "timestamp",
          "type": "uint256"
        }
      ],
      "stateMutability": "view",
      "type": "function"
    },
    {
      "inputs": [
        {
          "internalType": "uint256",
          "name": "",
          "type": "uint256"
        }
      ],
      "name": "multiApprovalDocumentAnchors",
      "outputs": [
        {
          "internalType": "address",
          "name": "user",
          "type": "address"
        },
        {
          "internalType": "string",
          "name": "userDid",
          "type": "string"
        },
        {
          "internalType": "string",
          "name": "documentURI",
          "type": "string"
        },
        {
          "internalType": "string",
          "name": "description",
          "type": "string"
        },
        {
          "internalType": "uint256",
          "name": "timestamp",
          "type": "uint256"
        }
      ],
      "stateMutability": "view",
      "type": "function"
    },
    {
      "inputs": [],
      "name": "owner",
      "outputs": [
        {
          "internalType": "address",
          "name": "",
          "type": "address"
        }
      ],
      "stateMutability": "view",
      "type": "function"
    },
    {
      "inputs": [],
      "name": "stablecoin",
      "outputs": [
        {
          "internalType": "contract IERC20",
          "name": "",
          "type": "address"
        }
      ],
      "stateMutability": "view",
      "type": "function"
    },
    {
      "inputs": [
        {
          "internalType": "address",
          "name": "tokenAddress",
          "type": "address"
        }
      ],
      "name": "setStableCoin",
      "outputs": [],
      "stateMutability": "nonpayable",
      "type": "function"
    },
    {
      "inputs": [
        {
          "internalType": "address payable",
          "name": "payee",
          "type": "address"
        }
      ],
      "name": "withdraw",
      "outputs": [],
      "stateMutability": "nonpayable",
      "type": "function"
    },
    {
      "inputs": [
        {
          "internalType": "address payable",
          "name": "payee",
          "type": "address"
        },
        {
          "internalType": "address",
          "name": "erc20token",
          "type": "address"
        }
      ],
      "name": "withdrawToken",
      "outputs": [],
      "stateMutability": "nonpayable",
      "type": "function"
    },
    {
      "inputs": [
        {
          "internalType": "uint256",
          "name": "_fee",
          "type": "uint256"
        }
      ],
      "name": "setProtocolConfig",
      "outputs": [],
      "stateMutability": "nonpayable",
      "type": "function"
    },
    {
      "inputs": [],
      "name": "getProtocolConfig",
      "outputs": [
        {
          "internalType": "uint256",
          "name": "",
          "type": "uint256"
        }
      ],
      "stateMutability": "view",
      "type": "function"
    },
    {
      "inputs": [
        {
          "internalType": "uint256",
          "name": "docid",
          "type": "uint256"
        },
        {
          "internalType": "string",
          "name": "userDid",
          "type": "string"
        },
        {
          "internalType": "string",
          "name": "documentUri",
          "type": "string"
        },
        {
          "internalType": "bool",
          "name": "isComplete",
          "type": "bool"
        }
      ],
      "name": "peerSigning",
      "outputs": [
        {
          "internalType": "uint256",
          "name": "",
          "type": "uint256"
        }
      ],
      "stateMutability": "payable",
      "type": "function"
    },
    {
      "inputs": [
        {
          "internalType": "string",
          "name": "userDid",
          "type": "string"
        },
        {
          "internalType": "string",
          "name": "documentURI",
          "type": "string"
        },
        {
          "internalType": "string",
          "name": "description",
          "type": "string"
        },
        {
          "internalType": "address[]",
          "name": "whitelist",
          "type": "address[]"
        }
      ],
      "name": "addDocument",
      "outputs": [
        {
          "internalType": "uint256",
          "name": "",
          "type": "uint256"
        }
      ],
      "stateMutability": "payable",
      "type": "function"
    }
  ],
  "bytecode": "0x60806040523480156200001157600080fd5b506040516200260b3803806200260b8339818101604052810190620000379190620000d7565b33600360006101000a81548173ffffffffffffffffffffffffffffffffffffffff021916908373ffffffffffffffffffffffffffffffffffffffff16021790555080600560006101000a81548173ffffffffffffffffffffffffffffffffffffffff021916908373ffffffffffffffffffffffffffffffffffffffff1602179055505062000151565b600081519050620000d18162000137565b92915050565b600060208284031215620000ea57600080fd5b6000620000fa84828501620000c0565b91505092915050565b6000620001108262000117565b9050919050565b600073ffffffffffffffffffffffffffffffffffffffff82169050919050565b620001428162000103565b81146200014e57600080fd5b50565b6124aa80620001616000396000f3fe6080604052600436106100dd5760003560e01c80637efa04561161007f578063991edf3f11610059578063991edf3f146102d0578063ddca3f431461030d578063e9cbd82214610338578063ed700b3e14610363576100dd565b80637efa0456146102275780638da5cb5b14610264578063943053c51461028f576100dd565b80632d2103c1116100bb5780632d2103c11461016b5780632f8d845a146101ac5780633aeac4e1146101d557806351cff8d9146101fe576100dd565b8063195543a5146100e25780631feb9e2a1461011257806323af4e1714610142575b600080fd5b6100fc60048036038101906100f79190611bfb565b61038e565b6040516101099190611ff1565b60405180910390f35b61012c60048036038101906101279190611ae6565b6108db565b6040516101399190611ff1565b60405180910390f35b34801561014e57600080fd5b50610169600480360381019061016491906119f3565b610ece565b005b34801561017757600080fd5b50610192600480360381019061018d9190611a81565b610fa2565b6040516101a3959493929190611e9e565b60405180910390f35b3480156101b857600080fd5b506101d360048036038101906101ce9190611ba9565b61119d565b005b3480156101e157600080fd5b506101fc60048036038101906101f79190611a45565b611237565b005b34801561020a57600080fd5b5061022560048036038101906102209190611a1c565b611473565b005b34801561023357600080fd5b5061024e600480360381019061024991906119f3565b61155a565b60405161025b9190611ff1565b60405180910390f35b34801561027057600080fd5b50610279611572565b6040516102869190611dfa565b60405180910390f35b34801561029b57600080fd5b506102b660048036038101906102b19190611ba9565b611598565b6040516102c7959493929190611e9e565b60405180910390f35b3480156102dc57600080fd5b506102f760048036038101906102f291906119f3565b611786565b6040516103049190611ff1565b60405180910390f35b34801561031957600080fd5b5061032261179e565b60405161032f9190611ff1565b60405180910390f35b34801561034457600080fd5b5061034d6117a4565b60405161035a9190611f06565b60405180910390f35b34801561036f57600080fd5b506103786117ca565b6040516103859190611ff1565b60405180910390f35b600080600560009054906101000a900473ffffffffffffffffffffffffffffffffffffffff1673ffffffffffffffffffffffffffffffffffffffff166370a08231336040518263ffffffff1660e01b81526004016103ec9190611dfa565b60206040518083038186803b15801561040457600080fd5b505afa158015610418573d6000803e3d6000fd5b505050506040513d601f19601f8201168201806040525081019061043c9190611bd2565b1161047c576040517f08c379a000000000000000000000000000000000000000000000000000000000815260040161047390611f51565b60405180910390fd5b6000600560009054906101000a900473ffffffffffffffffffffffffffffffffffffffff1673ffffffffffffffffffffffffffffffffffffffff1663dd62ed3e33306040518363ffffffff1660e01b81526004016104db929190611e3e565b60206040518083038186803b1580156104f357600080fd5b505afa158015610507573d6000803e3d6000fd5b505050506040513d601f19601f8201168201806040525081019061052b9190611bd2565b1161056b576040517f08c379a000000000000000000000000000000000000000000000000000000000815260040161056290611fd1565b60405180910390fd5b600560009054906101000a900473ffffffffffffffffffffffffffffffffffffffff1673ffffffffffffffffffffffffffffffffffffffff166323b872dd33306004546040518463ffffffff1660e01b81526004016105cc93929190611e67565b602060405180830381600087803b1580156105e657600080fd5b505af11580156105fa573d6000803e3d6000fd5b505050506040513d601f19601f8201168201806040525081019061061e9190611abd565b61065d576040517f08c379a000000000000000000000000000000000000000000000000000000000815260040161065490611f71565b60405180910390fd5b600454600660003373ffffffffffffffffffffffffffffffffffffffff1673ffffffffffffffffffffffffffffffffffffffff168152602001908152602001600020546106aa91906120b5565b600660003373ffffffffffffffffffffffffffffffffffffffff1673ffffffffffffffffffffffffffffffffffffffff16815260200190815260200160002081905550600454600660003073ffffffffffffffffffffffffffffffffffffffff1673ffffffffffffffffffffffffffffffffffffffff1681526020019081526020016000205461073a91906120b5565b600660003073ffffffffffffffffffffffffffffffffffffffff1673ffffffffffffffffffffffffffffffffffffffff168152602001908152602001600020819055506000803373ffffffffffffffffffffffffffffffffffffffff1673ffffffffffffffffffffffffffffffffffffffff16815260200190815260200160002060008154809291906107cc90612264565b919050555060008060003373ffffffffffffffffffffffffffffffffffffffff1673ffffffffffffffffffffffffffffffffffffffff168152602001908152602001600020549050336002600083815260200190815260200160002060000160006101000a81548173ffffffffffffffffffffffffffffffffffffffff021916908373ffffffffffffffffffffffffffffffffffffffff160217905550846040516108779190611de3565b60405180910390203373ffffffffffffffffffffffffffffffffffffffff167f0a007e579f0793671747216eab1061026d102ff0f66e876d2edaa6277ad53e6686846040516108c7929190611f21565b60405180910390a380915050949350505050565b600080600560009054906101000a900473ffffffffffffffffffffffffffffffffffffffff1673ffffffffffffffffffffffffffffffffffffffff166370a08231336040518263ffffffff1660e01b81526004016109399190611dfa565b60206040518083038186803b15801561095157600080fd5b505afa158015610965573d6000803e3d6000fd5b505050506040513d601f19601f820116820180604052508101906109899190611bd2565b116109c9576040517f08c379a00000000000000000000000000000000000000000000000000000000081526004016109c090611f51565b60405180910390fd5b6000600560009054906101000a900473ffffffffffffffffffffffffffffffffffffffff1673ffffffffffffffffffffffffffffffffffffffff1663dd62ed3e33306040518363ffffffff1660e01b8152600401610a28929190611e3e565b60206040518083038186803b158015610a4057600080fd5b505afa158015610a54573d6000803e3d6000fd5b505050506040513d601f19601f82011682018060405250810190610a789190611bd2565b11610ab8576040517f08c379a0000000000000000000000000000000000000000000000000000000008152600401610aaf90611fd1565b60405180910390fd5b600560009054906101000a900473ffffffffffffffffffffffffffffffffffffffff1673ffffffffffffffffffffffffffffffffffffffff166323b872dd33306004546040518463ffffffff1660e01b8152600401610b1993929190611e67565b602060405180830381600087803b158015610b3357600080fd5b505af1158015610b47573d6000803e3d6000fd5b505050506040513d601f19601f82011682018060405250810190610b6b9190611abd565b610baa576040517f08c379a0000000000000000000000000000000000000000000000000000000008152600401610ba190611f71565b60405180910390fd5b600454600660003373ffffffffffffffffffffffffffffffffffffffff1673ffffffffffffffffffffffffffffffffffffffff16815260200190815260200160002054610bf791906120b5565b600660003373ffffffffffffffffffffffffffffffffffffffff1673ffffffffffffffffffffffffffffffffffffffff16815260200190815260200160002081905550600454600660003073ffffffffffffffffffffffffffffffffffffffff1673ffffffffffffffffffffffffffffffffffffffff16815260200190815260200160002054610c8791906120b5565b600660003073ffffffffffffffffffffffffffffffffffffffff1673ffffffffffffffffffffffffffffffffffffffff168152602001908152602001600020819055506000803373ffffffffffffffffffffffffffffffffffffffff1673ffffffffffffffffffffffffffffffffffffffff1681526020019081526020016000206000815480929190610d1990612264565b919050555060008060003373ffffffffffffffffffffffffffffffffffffffff1673ffffffffffffffffffffffffffffffffffffffff1681526020019081526020016000205490506040518060a001604052803373ffffffffffffffffffffffffffffffffffffffff168152602001878152602001868152602001858152602001428152506002600083815260200190815260200160002060008201518160000160006101000a81548173ffffffffffffffffffffffffffffffffffffffff021916908373ffffffffffffffffffffffffffffffffffffffff1602179055506020820151816001019080519060200190610e149291906117d4565b506040820151816002019080519060200190610e319291906117d4565b506060820151816003019080519060200190610e4e9291906117d4565b506080820151816004015590505085604051610e6a9190611de3565b60405180910390203373ffffffffffffffffffffffffffffffffffffffff167f0a007e579f0793671747216eab1061026d102ff0f66e876d2edaa6277ad53e668784604051610eba929190611f21565b60405180910390a380915050949350505050565b600360009054906101000a900473ffffffffffffffffffffffffffffffffffffffff1673ffffffffffffffffffffffffffffffffffffffff163373ffffffffffffffffffffffffffffffffffffffff1614610f5e576040517f08c379a0000000000000000000000000000000000000000000000000000000008152600401610f5590611f91565b60405180910390fd5b80600560006101000a81548173ffffffffffffffffffffffffffffffffffffffff021916908373ffffffffffffffffffffffffffffffffffffffff16021790555050565b6001602052816000526040600020602052806000526040600020600091509150508060000160009054906101000a900473ffffffffffffffffffffffffffffffffffffffff1690806001018054610ff890612201565b80601f016020809104026020016040519081016040528092919081815260200182805461102490612201565b80156110715780601f1061104657610100808354040283529160200191611071565b820191906000526020600020905b81548152906001019060200180831161105457829003601f168201915b50505050509080600201805461108690612201565b80601f01602080910402602001604051908101604052809291908181526020018280546110b290612201565b80156110ff5780601f106110d4576101008083540402835291602001916110ff565b820191906000526020600020905b8154815290600101906020018083116110e257829003601f168201915b50505050509080600301805461111490612201565b80601f016020809104026020016040519081016040528092919081815260200182805461114090612201565b801561118d5780601f106111625761010080835404028352916020019161118d565b820191906000526020600020905b81548152906001019060200180831161117057829003601f168201915b5050505050908060040154905085565b600360009054906101000a900473ffffffffffffffffffffffffffffffffffffffff1673ffffffffffffffffffffffffffffffffffffffff163373ffffffffffffffffffffffffffffffffffffffff161461122d576040517f08c379a000000000000000000000000000000000000000000000000000000000815260040161122490611f91565b60405180910390fd5b8060048190555050565b600360009054906101000a900473ffffffffffffffffffffffffffffffffffffffff1673ffffffffffffffffffffffffffffffffffffffff163373ffffffffffffffffffffffffffffffffffffffff16146112c7576040517f08c379a00000000000000000000000000000000000000000000000000000000081526004016112be90611f91565b60405180910390fd5b60008173ffffffffffffffffffffffffffffffffffffffff166370a08231306040518263ffffffff1660e01b81526004016113029190611dfa565b60206040518083038186803b15801561131a57600080fd5b505afa15801561132e573d6000803e3d6000fd5b505050506040513d601f19601f820116820180604052508101906113529190611bd2565b90508173ffffffffffffffffffffffffffffffffffffffff1663a9059cbb84836040518363ffffffff1660e01b815260040161138f929190611e15565b602060405180830381600087803b1580156113a957600080fd5b505af11580156113bd573d6000803e3d6000fd5b505050506040513d601f19601f820116820180604052508101906113e19190611abd565b611420576040517f08c379a000000000000000000000000000000000000000000000000000000000815260040161141790611fb1565b60405180910390fd5b8273ffffffffffffffffffffffffffffffffffffffff167f7084f5476618d8e60b11ef0d7d3f06914655adb8793e28ff7f018d4c76d505d5826040516114669190611ff1565b60405180910390a2505050565b600360009054906101000a900473ffffffffffffffffffffffffffffffffffffffff1673ffffffffffffffffffffffffffffffffffffffff163373ffffffffffffffffffffffffffffffffffffffff1614611503576040517f08c379a00000000000000000000000000000000000000000000000000000000081526004016114fa90611f91565b60405180910390fd5b60004790508173ffffffffffffffffffffffffffffffffffffffff167f7084f5476618d8e60b11ef0d7d3f06914655adb8793e28ff7f018d4c76d505d58260405161154e9190611ff1565b60405180910390a25050565b60006020528060005260406000206000915090505481565b600360009054906101000a900473ffffffffffffffffffffffffffffffffffffffff1681565b60026020528060005260406000206000915090508060000160009054906101000a900473ffffffffffffffffffffffffffffffffffffffff16908060010180546115e190612201565b80601f016020809104026020016040519081016040528092919081815260200182805461160d90612201565b801561165a5780601f1061162f5761010080835404028352916020019161165a565b820191906000526020600020905b81548152906001019060200180831161163d57829003601f168201915b50505050509080600201805461166f90612201565b80601f016020809104026020016040519081016040528092919081815260200182805461169b90612201565b80156116e85780601f106116bd576101008083540402835291602001916116e8565b820191906000526020600020905b8154815290600101906020018083116116cb57829003601f168201915b5050505050908060030180546116fd90612201565b80601f016020809104026020016040519081016040528092919081815260200182805461172990612201565b80156117765780601f1061174b57610100808354040283529160200191611776565b820191906000526020600020905b81548152906001019060200180831161175957829003601f168201915b5050505050908060040154905085565b60066020528060005260406000206000915090505481565b60045481565b600560009054906101000a900473ffffffffffffffffffffffffffffffffffffffff1681565b6000600454905090565b8280546117e090612201565b90600052602060002090601f0160209004810192826118025760008555611849565b82601f1061181b57805160ff1916838001178555611849565b82800160010185558215611849579182015b8281111561184857825182559160200191906001019061182d565b5b509050611856919061185a565b5090565b5b8082111561187357600081600090555060010161185b565b5090565b600061188a61188584612031565b61200c565b905080838252602082019050828560208602820111156118a957600080fd5b60005b858110156118d957816118bf8882611921565b8452602084019350602083019250506001810190506118ac565b5050509392505050565b60006118f66118f18461205d565b61200c565b90508281526020810184848401111561190e57600080fd5b6119198482856121bf565b509392505050565b60008135905061193081612418565b92915050565b6000813590506119458161242f565b92915050565b600082601f83011261195c57600080fd5b813561196c848260208601611877565b91505092915050565b60008135905061198481612446565b92915050565b60008151905061199981612446565b92915050565b600082601f8301126119b057600080fd5b81356119c08482602086016118e3565b91505092915050565b6000813590506119d88161245d565b92915050565b6000815190506119ed8161245d565b92915050565b600060208284031215611a0557600080fd5b6000611a1384828501611921565b91505092915050565b600060208284031215611a2e57600080fd5b6000611a3c84828501611936565b91505092915050565b60008060408385031215611a5857600080fd5b6000611a6685828601611936565b9250506020611a7785828601611921565b9150509250929050565b60008060408385031215611a9457600080fd5b6000611aa285828601611921565b9250506020611ab3858286016119c9565b9150509250929050565b600060208284031215611acf57600080fd5b6000611add8482850161198a565b91505092915050565b60008060008060808587031215611afc57600080fd5b600085013567ffffffffffffffff811115611b1657600080fd5b611b228782880161199f565b945050602085013567ffffffffffffffff811115611b3f57600080fd5b611b4b8782880161199f565b935050604085013567ffffffffffffffff811115611b6857600080fd5b611b748782880161199f565b925050606085013567ffffffffffffffff811115611b9157600080fd5b611b9d8782880161194b565b91505092959194509250565b600060208284031215611bbb57600080fd5b6000611bc9848285016119c9565b91505092915050565b600060208284031215611be457600080fd5b6000611bf2848285016119de565b91505092915050565b60008060008060808587031215611c1157600080fd5b6000611c1f878288016119c9565b945050602085013567ffffffffffffffff811115611c3c57600080fd5b611c488782880161199f565b935050604085013567ffffffffffffffff811115611c6557600080fd5b611c718782880161199f565b9250506060611c8287828801611975565b91505092959194509250565b611c9781612165565b82525050565b611ca68161210b565b82525050565b611cb581612177565b82525050565b6000611cc68261208e565b611cd08185612099565b9350611ce08185602086016121ce565b611ce98161233a565b840191505092915050565b6000611cff8261208e565b611d0981856120aa565b9350611d198185602086016121ce565b80840191505092915050565b6000611d32601583612099565b9150611d3d8261234b565b602082019050919050565b6000611d55601783612099565b9150611d6082612374565b602082019050919050565b6000611d78600c83612099565b9150611d838261239d565b602082019050919050565b6000611d9b601e83612099565b9150611da6826123c6565b602082019050919050565b6000611dbe601783612099565b9150611dc9826123ef565b602082019050919050565b611ddd8161215b565b82525050565b6000611def8284611cf4565b915081905092915050565b6000602082019050611e0f6000830184611c9d565b92915050565b6000604082019050611e2a6000830185611c8e565b611e376020830184611dd4565b9392505050565b6000604082019050611e536000830185611c9d565b611e606020830184611c9d565b9392505050565b6000606082019050611e7c6000830186611c9d565b611e896020830185611c9d565b611e966040830184611dd4565b949350505050565b600060a082019050611eb36000830188611c9d565b8181036020830152611ec58187611cbb565b90508181036040830152611ed98186611cbb565b90508181036060830152611eed8185611cbb565b9050611efc6080830184611dd4565b9695505050505050565b6000602082019050611f1b6000830184611cac565b92915050565b60006040820190508181036000830152611f3b8185611cbb565b9050611f4a6020830184611dd4565b9392505050565b60006020820190508181036000830152611f6a81611d25565b9050919050565b60006020820190508181036000830152611f8a81611d48565b9050919050565b60006020820190508181036000830152611faa81611d6b565b9050919050565b60006020820190508181036000830152611fca81611d8e565b9050919050565b60006020820190508181036000830152611fea81611db1565b9050919050565b60006020820190506120066000830184611dd4565b92915050565b6000612016612027565b90506120228282612233565b919050565b6000604051905090565b600067ffffffffffffffff82111561204c5761204b61230b565b5b602082029050602081019050919050565b600067ffffffffffffffff8211156120785761207761230b565b5b6120818261233a565b9050602081019050919050565b600081519050919050565b600082825260208201905092915050565b600081905092915050565b60006120c08261215b565b91506120cb8361215b565b9250827fffffffffffffffffffffffffffffffffffffffffffffffffffffffffffffffff03821115612100576120ff6122ad565b5b828201905092915050565b60006121168261213b565b9050919050565b60006121288261213b565b9050919050565b60008115159050919050565b600073ffffffffffffffffffffffffffffffffffffffff82169050919050565b6000819050919050565b60006121708261219b565b9050919050565b600061218282612189565b9050919050565b60006121948261213b565b9050919050565b60006121a6826121ad565b9050919050565b60006121b88261213b565b9050919050565b82818337600083830152505050565b60005b838110156121ec5780820151818401526020810190506121d1565b838111156121fb576000848401525b50505050565b6000600282049050600182168061221957607f821691505b6020821081141561222d5761222c6122dc565b5b50919050565b61223c8261233a565b810181811067ffffffffffffffff8211171561225b5761225a61230b565b5b80604052505050565b600061226f8261215b565b91507fffffffffffffffffffffffffffffffffffffffffffffffffffffffffffffffff8214156122a2576122a16122ad565b5b600182019050919050565b7f4e487b7100000000000000000000000000000000000000000000000000000000600052601160045260246000fd5b7f4e487b7100000000000000000000000000000000000000000000000000000000600052602260045260246000fd5b7f4e487b7100000000000000000000000000000000000000000000000000000000600052604160045260246000fd5b6000601f19601f8301169050919050565b7f496e76616c696420746f6b656e2062616c616e63650000000000000000000000600082015250565b7f5472616e73666572206661696c656420666f7220666565000000000000000000600082015250565b7f494e56414c49445f555345520000000000000000000000000000000000000000600082015250565b7f5472616e73666572206661696c656420666f72206261736520746f6b656e0000600082015250565b7f496e76616c696420746f6b656e20616c6c6f77616e6365000000000000000000600082015250565b6124218161210b565b811461242c57600080fd5b50565b6124388161211d565b811461244357600080fd5b50565b61244f8161212f565b811461245a57600080fd5b50565b6124668161215b565b811461247157600080fd5b5056fea26469706673582212205233e150a7e88b0550b847cdd99148c23282ea8df7662a6198952fa4900d628864736f6c63430008040033",
  "immutableReferences": {},
  "source": "// SPDX-License-Identifier: MIT\npragma solidity ^0.8.0;\n\nimport \"@openzeppelin/contracts/token/ERC20/IERC20.sol\";\nimport \"@openzeppelin/contracts/token/ERC721/ERC721.sol\";\nimport \"@openzeppelin/contracts/utils/Counters.sol\";\n\n/**\n *  Register Minters  debe ir un mapping, un evento de add registry, un counter para \n saber cuantos registros , get de fetch que debe recibir un address, y returnar un struct de vuelta\n */\ncontract XDVDocumentAnchoring {\n    // Document by minter id sequence/autonumber\n    mapping(address => uint) public minterDocumentAnchorCounter;\n\n// TODO: Remove, deprecated\n    // Document by user address by id\n    mapping(address => mapping(uint => DocumentAnchor)) public minterDocumentAnchors;\n\n    // Doocument by doc id\n    mapping(uint => DocumentAnchor) public multiApprovalDocumentAnchors;\n\n    event Withdrawn(address indexed payee, uint256 weiAmount);\n    address public owner;\n    uint public fee;\n    IERC20 public stablecoin;\n\n    mapping (address => uint) public accounting;\n\n    /**\n    * XDV Data Token\n    */\n    constructor(\n        address tokenAddress\n    ) {\n        owner = msg.sender;\n        stablecoin = IERC20(tokenAddress);\n    }\n\n    function setStableCoin(address tokenAddress) public {\n        require(msg.sender == owner, \"INVALID_USER\");\n        stablecoin = IERC20(tokenAddress);\n    }\n\n    function withdraw(address payable payee) public {\n        require(msg.sender == owner, \"INVALID_USER\");\n        uint256 b = address(this).balance;\n\n        emit Withdrawn(payee, b);\n    }\n\n    function withdrawToken(address payable payee, address erc20token) public {\n        require(msg.sender == owner, \"INVALID_USER\");\n        uint256 balance = IERC20(erc20token).balanceOf(address(this));\n\n        // Transfer tokens to pay service fee\n        require(\n            IERC20(erc20token).transfer(payee, balance),\n            \"Transfer failed for base token\"\n        );\n\n        emit Withdrawn(payee, balance);\n    }\n\n    function setProtocolConfig(uint256 _fee) public {\n        require(msg.sender == owner, \"INVALID_USER\");\n        fee = _fee;\n    }\n\n    function getProtocolConfig() public view returns (uint256) {\n        return (fee);\n    }\n    // Document Anchor\n    struct DocumentAnchor {\n        address user;\n        string userDid;\n        string documentURI; \n        string description;\n        uint timestamp;\n        // address[] whitelistSigners;\n    }\n\n    // DocumentAnchored events\n    event DocumentAnchored(\n        address indexed user, \n        string indexed userDid,\n        string documentURI,\n        uint id\n    );\n// Case 0 - single\n// Case 1 - get approvals\n// Case 2 - quorum eg 3 of 5 - aggPeerSigning\n    function peerSigning(\n        uint docid,\n        string memory userDid,\n        string memory documentUri,\n        bool isComplete\n    ) public payable returns(uint) {\n        // if docid exists\n        // require(multiApprovalDocumentAnchors[docid].user != address(0));\n        // if whitelist\n        // TODO: .whitelist.length > 0\n\n        // User must have a balance\n        require(\n            stablecoin.balanceOf(msg.sender) > 0,\n            \"Invalid token balance\"\n        );\n        // User must have an allowance\n        require(\n            stablecoin.allowance(msg.sender, address(this)) > 0,\n            \"Invalid token allowance\"\n        );\n\n\n        require(\n            stablecoin.transferFrom(\n                msg.sender,\n                address(this), \n                fee),\n            \"Transfer failed for fee\"\n        );\n\n        accounting[msg.sender] = accounting[msg.sender] + fee;\n        accounting[address(this)] = accounting[address(this)] + fee;\n\n        minterDocumentAnchorCounter[msg.sender]++;\n        uint i = minterDocumentAnchorCounter[msg.sender];\n            \n        multiApprovalDocumentAnchors[i].user = msg.sender;\n        // TODO: Update other fields\n\n        emit DocumentAnchored(msg.sender, userDid, documentUri, i);\n        return i; \n    }\n    function addDocument(\n        string memory userDid,\n        string memory documentURI,\n        string memory description,\n        address[] memory whitelist\n    ) public payable returns(uint){\n\n        // User must have a balance\n        require(\n            stablecoin.balanceOf(msg.sender) > 0,\n            \"Invalid token balance\"\n        );\n        // User must have an allowance\n        require(\n            stablecoin.allowance(msg.sender, address(this)) > 0,\n            \"Invalid token allowance\"\n        );\n\n\n        require(\n            stablecoin.transferFrom(\n                msg.sender,\n                address(this), \n                fee),\n            \"Transfer failed for fee\"\n        );\n\n        accounting[msg.sender] = accounting[msg.sender] + fee;\n        accounting[address(this)] = accounting[address(this)] + fee;\n\n        minterDocumentAnchorCounter[msg.sender]++;\n        uint i = minterDocumentAnchorCounter[msg.sender];\n            \n        multiApprovalDocumentAnchors[i] = DocumentAnchor({\n            user: msg.sender, \n            userDid: userDid,\n            documentURI: documentURI,\n            description: description,\n            timestamp: block.timestamp\n            // TODO\n            // whitelistSigners: whitelist\n        });\n\n        emit DocumentAnchored(msg.sender, userDid, documentURI, i);\n        return i;\n    }\n\n}",
  "sourcePath": "/home/esferasoluciones-jupiter/Documents/projects/ifesa/xdv-document-signer-contracts/contracts/XDVDocumentAnchoring.sol",
  "compiler": {
    "name": "solc",
    "version": "0.8.4+commit.c7e474f2.Emscripten.clang"
  },
  "schemaVersion": "3.4.0",
  "updatedAt": "2021-05-13T20:10:09.927Z",
  "devdoc": {
    "kind": "dev",
    "methods": {},
    "version": 1
  },
  "userdoc": {
    "kind": "user",
    "methods": {
      "constructor": {
        "notice": "XDV Data Token"
      }
    },
    "notice": "Register Minters  debe ir un mapping, un evento de add registry, un counter para  saber cuantos registros , get de fetch que debe recibir un address, y returnar un struct de vuelta",
    "version": 1
  }
}