{
  "contractName": "XDVDocumentAnchoring",
  "abi": [
    {
      "inputs": [
        {
          "internalType": "address",
          "name": "tokenAddress",
          "type": "address"
        }
      ],
      "stateMutability": "nonpayable",
      "type": "constructor"
    },
    {
      "anonymous": false,
      "inputs": [
        {
          "indexed": true,
          "internalType": "address",
          "name": "user",
          "type": "address"
        },
        {
          "indexed": true,
          "internalType": "string",
          "name": "userDid",
          "type": "string"
        },
        {
          "indexed": false,
          "internalType": "string",
          "name": "documentURI",
          "type": "string"
        },
        {
          "indexed": false,
          "internalType": "uint256",
          "name": "id",
          "type": "uint256"
        }
      ],
      "name": "DocumentAnchored",
      "type": "event"
    },
    {
      "inputs": [
        {
          "internalType": "address",
          "name": "",
          "type": "address"
        }
      ],
      "name": "accounting",
      "outputs": [
        {
          "internalType": "uint256",
          "name": "",
          "type": "uint256"
        }
      ],
      "stateMutability": "view",
      "type": "function",
      "constant": true
    },
    {
      "inputs": [],
      "name": "fee",
      "outputs": [
        {
          "internalType": "uint256",
          "name": "",
          "type": "uint256"
        }
      ],
      "stateMutability": "view",
      "type": "function",
      "constant": true
    },
    {
      "inputs": [
        {
          "internalType": "address",
          "name": "",
          "type": "address"
        }
      ],
      "name": "minterDocumentAnchorCounter",
      "outputs": [
        {
          "internalType": "uint256",
          "name": "",
          "type": "uint256"
        }
      ],
      "stateMutability": "view",
      "type": "function",
      "constant": true
    },
    {
      "inputs": [
        {
          "internalType": "address",
          "name": "",
          "type": "address"
        },
        {
          "internalType": "uint256",
          "name": "",
          "type": "uint256"
        }
      ],
      "name": "minterDocumentAnchors",
      "outputs": [
        {
          "internalType": "address",
          "name": "user",
          "type": "address"
        },
        {
          "internalType": "string",
          "name": "userDid",
          "type": "string"
        },
        {
          "internalType": "string",
          "name": "documentURI",
          "type": "string"
        },
        {
          "internalType": "string",
          "name": "description",
          "type": "string"
        },
        {
          "internalType": "uint256",
          "name": "timestamp",
          "type": "uint256"
        }
      ],
      "stateMutability": "view",
      "type": "function",
      "constant": true
    },
    {
      "inputs": [],
      "name": "owner",
      "outputs": [
        {
          "internalType": "address",
          "name": "",
          "type": "address"
        }
      ],
      "stateMutability": "view",
      "type": "function",
      "constant": true
    },
    {
      "inputs": [],
      "name": "stablecoin",
      "outputs": [
        {
          "internalType": "contract ERC20Interface",
          "name": "",
          "type": "address"
        }
      ],
      "stateMutability": "view",
      "type": "function",
      "constant": true
    },
    {
      "inputs": [
        {
          "internalType": "uint256",
          "name": "_fee",
          "type": "uint256"
        }
      ],
      "name": "setProtocolConfig",
      "outputs": [],
      "stateMutability": "nonpayable",
      "type": "function"
    },
    {
      "inputs": [],
      "name": "getProtocolConfig",
      "outputs": [
        {
          "internalType": "uint256",
          "name": "",
          "type": "uint256"
        }
      ],
      "stateMutability": "nonpayable",
      "type": "function"
    },
    {
      "inputs": [
        {
          "internalType": "string",
          "name": "userDid",
          "type": "string"
        },
        {
          "internalType": "string",
          "name": "documentURI",
          "type": "string"
        },
        {
          "internalType": "string",
          "name": "description",
          "type": "string"
        }
      ],
      "name": "addDocument",
      "outputs": [
        {
          "internalType": "uint256",
          "name": "",
          "type": "uint256"
        }
      ],
      "stateMutability": "payable",
      "type": "function",
      "payable": true
    }
  ],
  "bytecode": "0x608060405234801561001057600080fd5b506040516113613803806113618339818101604052602081101561003357600080fd5b810190808051906020019092919050505033600260006101000a81548173ffffffffffffffffffffffffffffffffffffffff021916908373ffffffffffffffffffffffffffffffffffffffff16021790555080600460006101000a81548173ffffffffffffffffffffffffffffffffffffffff021916908373ffffffffffffffffffffffffffffffffffffffff1602179055505061128b806100d66000396000f3fe6080604052600436106100865760003560e01c80638da5cb5b116100595780638da5cb5b146104f8578063991edf3f14610539578063ddca3f431461059e578063e9cbd822146105c9578063ed700b3e1461060a57610086565b80632d2103c11461008b5780632f8d845a1461025b57806336a8915b146102965780637efa045614610493575b600080fd5b34801561009757600080fd5b506100e4600480360360408110156100ae57600080fd5b81019080803573ffffffffffffffffffffffffffffffffffffffff16906020019092919080359060200190929190505050610635565b604051808673ffffffffffffffffffffffffffffffffffffffff168152602001806020018060200180602001858152602001848103845288818151815260200191508051906020019080838360005b8381101561014e578082015181840152602081019050610133565b50505050905090810190601f16801561017b5780820380516001836020036101000a031916815260200191505b50848103835287818151815260200191508051906020019080838360005b838110156101b4578082015181840152602081019050610199565b50505050905090810190601f1680156101e15780820380516001836020036101000a031916815260200191505b50848103825286818151815260200191508051906020019080838360005b8381101561021a5780820151818401526020810190506101ff565b50505050905090810190601f1680156102475780820380516001836020036101000a031916815260200191505b509850505050505050505060405180910390f35b34801561026757600080fd5b506102946004803603602081101561027e57600080fd5b8101908080359060200190929190505050610860565b005b61047d600480360360608110156102ac57600080fd5b81019080803590602001906401000000008111156102c957600080fd5b8201836020820111156102db57600080fd5b803590602001918460018302840111640100000000831117156102fd57600080fd5b91908080601f016020809104026020016040519081016040528093929190818152602001838380828437600081840152601f19601f8201169050808301925050505050505091929192908035906020019064010000000081111561036057600080fd5b82018360208201111561037257600080fd5b8035906020019184600183028401116401000000008311171561039457600080fd5b91908080601f016020809104026020016040519081016040528093929190818152602001838380828437600081840152601f19601f820116905080830192505050505050509192919290803590602001906401000000008111156103f757600080fd5b82018360208201111561040957600080fd5b8035906020019184600183028401116401000000008311171561042b57600080fd5b91908080601f016020809104026020016040519081016040528093929190818152602001838380828437600081840152601f19601f82011690508083019250505050505050919291929050505061092d565b6040518082815260200191505060405180910390f35b34801561049f57600080fd5b506104e2600480360360208110156104b657600080fd5b81019080803573ffffffffffffffffffffffffffffffffffffffff16906020019092919050505061111e565b6040518082815260200191505060405180910390f35b34801561050457600080fd5b5061050d611136565b604051808273ffffffffffffffffffffffffffffffffffffffff16815260200191505060405180910390f35b34801561054557600080fd5b506105886004803603602081101561055c57600080fd5b81019080803573ffffffffffffffffffffffffffffffffffffffff16906020019092919050505061115c565b6040518082815260200191505060405180910390f35b3480156105aa57600080fd5b506105b3611174565b6040518082815260200191505060405180910390f35b3480156105d557600080fd5b506105de61117a565b604051808273ffffffffffffffffffffffffffffffffffffffff16815260200191505060405180910390f35b34801561061657600080fd5b5061061f6111a0565b6040518082815260200191505060405180910390f35b6001602052816000526040600020602052806000526040600020600091509150508060000160009054906101000a900473ffffffffffffffffffffffffffffffffffffffff1690806001018054600181600116156101000203166002900480601f0160208091040260200160405190810160405280929190818152602001828054600181600116156101000203166002900480156107145780601f106106e957610100808354040283529160200191610714565b820191906000526020600020905b8154815290600101906020018083116106f757829003601f168201915b505050505090806002018054600181600116156101000203166002900480601f0160208091040260200160405190810160405280929190818152602001828054600181600116156101000203166002900480156107b25780601f10610787576101008083540402835291602001916107b2565b820191906000526020600020905b81548152906001019060200180831161079557829003601f168201915b505050505090806003018054600181600116156101000203166002900480601f0160208091040260200160405190810160405280929190818152602001828054600181600116156101000203166002900480156108505780601f1061082557610100808354040283529160200191610850565b820191906000526020600020905b81548152906001019060200180831161083357829003601f168201915b5050505050908060040154905085565b600260009054906101000a900473ffffffffffffffffffffffffffffffffffffffff1673ffffffffffffffffffffffffffffffffffffffff163373ffffffffffffffffffffffffffffffffffffffff1614610923576040517f08c379a000000000000000000000000000000000000000000000000000000000815260040180806020018281038252600c8152602001807f494e56414c49445f55534552000000000000000000000000000000000000000081525060200191505060405180910390fd5b8060038190555050565b600080600460009054906101000a900473ffffffffffffffffffffffffffffffffffffffff1673ffffffffffffffffffffffffffffffffffffffff166370a08231336040518263ffffffff1660e01b8152600401808273ffffffffffffffffffffffffffffffffffffffff16815260200191505060206040518083038186803b1580156109b957600080fd5b505afa1580156109cd573d6000803e3d6000fd5b505050506040513d60208110156109e357600080fd5b81019080805190602001909291905050501015610a68576040517f08c379a00000000000000000000000000000000000000000000000000000000081526004018080602001828103825260158152602001807f496e76616c696420746f6b656e2062616c616e6365000000000000000000000081525060200191505060405180910390fd5b6000600460009054906101000a900473ffffffffffffffffffffffffffffffffffffffff1673ffffffffffffffffffffffffffffffffffffffff1663dd62ed3e33306040518363ffffffff1660e01b8152600401808373ffffffffffffffffffffffffffffffffffffffff1681526020018273ffffffffffffffffffffffffffffffffffffffff1681526020019250505060206040518083038186803b158015610b1157600080fd5b505afa158015610b25573d6000803e3d6000fd5b505050506040513d6020811015610b3b57600080fd5b81019080805190602001909291905050501015610bc0576040517f08c379a00000000000000000000000000000000000000000000000000000000081526004018080602001828103825260178152602001807f496e76616c696420746f6b656e20616c6c6f77616e636500000000000000000081525060200191505060405180910390fd5b600460009054906101000a900473ffffffffffffffffffffffffffffffffffffffff1673ffffffffffffffffffffffffffffffffffffffff166323b872dd33306003546040518463ffffffff1660e01b8152600401808473ffffffffffffffffffffffffffffffffffffffff1681526020018373ffffffffffffffffffffffffffffffffffffffff1681526020018281526020019350505050602060405180830381600087803b158015610c7357600080fd5b505af1158015610c87573d6000803e3d6000fd5b505050506040513d6020811015610c9d57600080fd5b8101908080519060200190929190505050610d20576040517f08c379a00000000000000000000000000000000000000000000000000000000081526004018080602001828103825260178152602001807f5472616e73666572206661696c656420666f722066656500000000000000000081525060200191505060405180910390fd5b600354600560003373ffffffffffffffffffffffffffffffffffffffff1673ffffffffffffffffffffffffffffffffffffffff1681526020019081526020016000205401600560003373ffffffffffffffffffffffffffffffffffffffff1673ffffffffffffffffffffffffffffffffffffffff16815260200190815260200160002081905550600354600560003073ffffffffffffffffffffffffffffffffffffffff1673ffffffffffffffffffffffffffffffffffffffff1681526020019081526020016000205401600560003073ffffffffffffffffffffffffffffffffffffffff1673ffffffffffffffffffffffffffffffffffffffff168152602001908152602001600020819055506000803373ffffffffffffffffffffffffffffffffffffffff1673ffffffffffffffffffffffffffffffffffffffff1681526020019081526020016000206000815480929190600101919050555060008060003373ffffffffffffffffffffffffffffffffffffffff1673ffffffffffffffffffffffffffffffffffffffff1681526020019081526020016000205490506040518060a001604052803373ffffffffffffffffffffffffffffffffffffffff16815260200186815260200185815260200184815260200142815250600160003373ffffffffffffffffffffffffffffffffffffffff1673ffffffffffffffffffffffffffffffffffffffff168152602001908152602001600020600083815260200190815260200160002060008201518160000160006101000a81548173ffffffffffffffffffffffffffffffffffffffff021916908373ffffffffffffffffffffffffffffffffffffffff1602179055506020820151816001019080519060200190610faf9291906111aa565b506040820151816002019080519060200190610fcc9291906111aa565b506060820151816003019080519060200190610fe99291906111aa565b5060808201518160040155905050846040518082805190602001908083835b6020831061102b5780518252602082019150602081019050602083039250611008565b6001836020036101000a03801982511681845116808217855250505050505090500191505060405180910390203373ffffffffffffffffffffffffffffffffffffffff167f0a007e579f0793671747216eab1061026d102ff0f66e876d2edaa6277ad53e6686846040518080602001838152602001828103825284818151815260200191508051906020019080838360005b838110156110d85780820151818401526020810190506110bd565b50505050905090810190601f1680156111055780820380516001836020036101000a031916815260200191505b50935050505060405180910390a3809150509392505050565b60006020528060005260406000206000915090505481565b600260009054906101000a900473ffffffffffffffffffffffffffffffffffffffff1681565b60056020528060005260406000206000915090505481565b60035481565b600460009054906101000a900473ffffffffffffffffffffffffffffffffffffffff1681565b6000600354905090565b828054600181600116156101000203166002900490600052602060002090601f0160209004810192826111e05760008555611227565b82601f106111f957805160ff1916838001178555611227565b82800160010185558215611227579182015b8281111561122657825182559160200191906001019061120b565b5b5090506112349190611238565b5090565b5b80821115611251576000816000905550600101611239565b509056fea26469706673582212206e4b007cab8538076419401e56a8cb19875c67338bbab8a4c602e9b02ebc850e64736f6c63430007060033",
  "immutableReferences": {},
  "source": "pragma solidity ^0.7.0;\nimport \"@openzeppelin/contracts/token/ERC721/ERC721.sol\";\nimport \"@openzeppelin/contracts/token/ERC721/ERC721Burnable.sol\";\nimport \"@openzeppelin/contracts/token/ERC721/ERC721Pausable.sol\";\nimport \"@openzeppelin/contracts/utils/Counters.sol\";\nimport \"./ERC20Interface.sol\";\n\n/**\n *  Register Minters  debe ir un mapping, un evento de add registry, un counter para \n saber cuantos registros , get de fetch que debe recibir un address, y returnar un struct de vuelta\n */\ncontract XDVDocumentAnchoring {\n    // Document by minter id sequence/autonumber\n    mapping(address => uint) public minterDocumentAnchorCounter;\n\n    // Document by user address by id\n    mapping(address => mapping(uint => DocumentAnchor)) public minterDocumentAnchors;\n\n    address public owner;\n    uint public fee;\n    ERC20Interface public stablecoin;\n\n    mapping (address => uint) public accounting;\n\n    /**\n    * XDV Data Token\n    */\n    constructor(\n        address tokenAddress\n    ) public {\n        owner = msg.sender;\n        stablecoin  = ERC20Interface(tokenAddress);\n    }\n\n\n    function setProtocolConfig(uint256 _fee) public {\n        require(msg.sender == owner, \"INVALID_USER\");\n        fee = _fee;\n    }\n\n    function getProtocolConfig() public returns (uint256) {\n        return (fee);\n    }\n    // Document Anchor\n    struct DocumentAnchor {\n        address user;\n        string userDid;\n        string documentURI; \n        string description;\n        uint timestamp;\n    }\n\n    // DocumentAnchored events\n    event DocumentAnchored(\n        address indexed user, \n        string indexed userDid,\n        string documentURI,\n        uint id\n    );\n\n    function addDocument(\n        string memory userDid,\n        string memory documentURI,\n        string memory description\n    ) public payable returns(uint){\n\n        // User must have a balance\n        require(\n            stablecoin.balanceOf(msg.sender) >= 0,\n            \"Invalid token balance\"\n        );\n        // User must have an allowance\n        require(\n            stablecoin.allowance(msg.sender, address(this)) >= 0,\n            \"Invalid token allowance\"\n        );\n\n\n        require(\n            stablecoin.transferFrom(\n                msg.sender,\n                address(this), \n                fee),\n            \"Transfer failed for fee\"\n        );\n\n        accounting[msg.sender] = accounting[msg.sender] + fee;\n        accounting[address(this)] = accounting[address(this)] + fee;\n\n        minterDocumentAnchorCounter[msg.sender]++;\n        uint i = minterDocumentAnchorCounter[msg.sender];\n            \n        minterDocumentAnchors[msg.sender][i] = DocumentAnchor({\n            user: msg.sender, \n            userDid: userDid,\n            documentURI: documentURI,\n            description: description,\n            timestamp: block.timestamp\n        });\n\n        emit DocumentAnchored(msg.sender, userDid, documentURI, i);\n        return i;\n    }\n\n}",
  "sourcePath": "/home/esfera-ubuntu/Documents/projects/ifesa/nft-document-swap/contracts/XDVDocumentAnchoring.sol",
  "compiler": {
    "name": "solc",
    "version": "0.7.6+commit.7338295f.Emscripten.clang"
  },
  "schemaVersion": "3.3.3",
  "updatedAt": "2021-02-13T03:21:14.020Z",
  "networkType": "ethereum",
  "devdoc": {
    "kind": "dev",
    "methods": {},
    "version": 1
  },
  "userdoc": {
    "kind": "user",
    "methods": {
      "constructor": {
        "notice": "XDV Data Token"
      }
    },
    "notice": "Register Minters  debe ir un mapping, un evento de add registry, un counter para  saber cuantos registros , get de fetch que debe recibir un address, y returnar un struct de vuelta",
    "version": 1
  }
}