{
  "contractName": "XDVNFT",
  "abi": [
    {
      "inputs": [
        {
          "internalType": "string",
          "name": "name",
          "type": "string"
        },
        {
          "internalType": "string",
          "name": "symbol",
          "type": "string"
        },
        {
          "internalType": "address",
          "name": "tokenERC20",
          "type": "address"
        }
      ],
      "stateMutability": "nonpayable",
      "type": "constructor"
    },
    {
      "anonymous": false,
      "inputs": [
        {
          "indexed": true,
          "internalType": "address",
          "name": "owner",
          "type": "address"
        },
        {
          "indexed": true,
          "internalType": "address",
          "name": "approved",
          "type": "address"
        },
        {
          "indexed": true,
          "internalType": "uint256",
          "name": "tokenId",
          "type": "uint256"
        }
      ],
      "name": "Approval",
      "type": "event"
    },
    {
      "anonymous": false,
      "inputs": [
        {
          "indexed": true,
          "internalType": "address",
          "name": "owner",
          "type": "address"
        },
        {
          "indexed": true,
          "internalType": "address",
          "name": "operator",
          "type": "address"
        },
        {
          "indexed": false,
          "internalType": "bool",
          "name": "approved",
          "type": "bool"
        }
      ],
      "name": "ApprovalForAll",
      "type": "event"
    },
    {
      "anonymous": false,
      "inputs": [
        {
          "indexed": true,
          "internalType": "address",
          "name": "previousOwner",
          "type": "address"
        },
        {
          "indexed": true,
          "internalType": "address",
          "name": "newOwner",
          "type": "address"
        }
      ],
      "name": "OwnershipTransferred",
      "type": "event"
    },
    {
      "anonymous": false,
      "inputs": [
        {
          "indexed": false,
          "internalType": "address",
          "name": "account",
          "type": "address"
        }
      ],
      "name": "Paused",
      "type": "event"
    },
    {
      "anonymous": false,
      "inputs": [
        {
          "indexed": true,
          "internalType": "address",
          "name": "from",
          "type": "address"
        },
        {
          "indexed": false,
          "internalType": "uint256",
          "name": "paidToContract",
          "type": "uint256"
        },
        {
          "indexed": false,
          "internalType": "uint256",
          "name": "paidToPaymentAddress",
          "type": "uint256"
        }
      ],
      "name": "ServiceFeePaid",
      "type": "event"
    },
    {
      "anonymous": false,
      "inputs": [
        {
          "indexed": true,
          "internalType": "address",
          "name": "from",
          "type": "address"
        },
        {
          "indexed": true,
          "internalType": "address",
          "name": "to",
          "type": "address"
        },
        {
          "indexed": true,
          "internalType": "uint256",
          "name": "tokenId",
          "type": "uint256"
        }
      ],
      "name": "Transfer",
      "type": "event"
    },
    {
      "anonymous": false,
      "inputs": [
        {
          "indexed": false,
          "internalType": "address",
          "name": "account",
          "type": "address"
        }
      ],
      "name": "Unpaused",
      "type": "event"
    },
    {
      "anonymous": false,
      "inputs": [
        {
          "indexed": true,
          "internalType": "address",
          "name": "paymentAddress",
          "type": "address"
        },
        {
          "indexed": false,
          "internalType": "uint256",
          "name": "amount",
          "type": "uint256"
        }
      ],
      "name": "Withdrawn",
      "type": "event"
    },
    {
      "inputs": [
        {
          "internalType": "address",
          "name": "to",
          "type": "address"
        },
        {
          "internalType": "uint256",
          "name": "tokenId",
          "type": "uint256"
        }
      ],
      "name": "approve",
      "outputs": [],
      "stateMutability": "nonpayable",
      "type": "function"
    },
    {
      "inputs": [
        {
          "internalType": "address",
          "name": "owner",
          "type": "address"
        }
      ],
      "name": "balanceOf",
      "outputs": [
        {
          "internalType": "uint256",
          "name": "",
          "type": "uint256"
        }
      ],
      "stateMutability": "view",
      "type": "function",
      "constant": true
    },
    {
      "inputs": [
        {
          "internalType": "uint256",
          "name": "tokenId",
          "type": "uint256"
        }
      ],
      "name": "burn",
      "outputs": [],
      "stateMutability": "nonpayable",
      "type": "function"
    },
    {
      "inputs": [
        {
          "internalType": "uint256",
          "name": "tokenId",
          "type": "uint256"
        }
      ],
      "name": "getApproved",
      "outputs": [
        {
          "internalType": "address",
          "name": "",
          "type": "address"
        }
      ],
      "stateMutability": "view",
      "type": "function",
      "constant": true
    },
    {
      "inputs": [
        {
          "internalType": "address",
          "name": "owner",
          "type": "address"
        },
        {
          "internalType": "address",
          "name": "operator",
          "type": "address"
        }
      ],
      "name": "isApprovedForAll",
      "outputs": [
        {
          "internalType": "bool",
          "name": "",
          "type": "bool"
        }
      ],
      "stateMutability": "view",
      "type": "function",
      "constant": true
    },
    {
      "inputs": [],
      "name": "name",
      "outputs": [
        {
          "internalType": "string",
          "name": "",
          "type": "string"
        }
      ],
      "stateMutability": "view",
      "type": "function",
      "constant": true
    },
    {
      "inputs": [],
      "name": "owner",
      "outputs": [
        {
          "internalType": "address",
          "name": "",
          "type": "address"
        }
      ],
      "stateMutability": "view",
      "type": "function",
      "constant": true
    },
    {
      "inputs": [
        {
          "internalType": "uint256",
          "name": "tokenId",
          "type": "uint256"
        }
      ],
      "name": "ownerOf",
      "outputs": [
        {
          "internalType": "address",
          "name": "",
          "type": "address"
        }
      ],
      "stateMutability": "view",
      "type": "function",
      "constant": true
    },
    {
      "inputs": [],
      "name": "paused",
      "outputs": [
        {
          "internalType": "bool",
          "name": "",
          "type": "bool"
        }
      ],
      "stateMutability": "view",
      "type": "function",
      "constant": true
    },
    {
      "inputs": [],
      "name": "renounceOwnership",
      "outputs": [],
      "stateMutability": "nonpayable",
      "type": "function"
    },
    {
      "inputs": [
        {
          "internalType": "address",
          "name": "from",
          "type": "address"
        },
        {
          "internalType": "address",
          "name": "to",
          "type": "address"
        },
        {
          "internalType": "uint256",
          "name": "tokenId",
          "type": "uint256"
        }
      ],
      "name": "safeTransferFrom",
      "outputs": [],
      "stateMutability": "nonpayable",
      "type": "function"
    },
    {
      "inputs": [
        {
          "internalType": "address",
          "name": "from",
          "type": "address"
        },
        {
          "internalType": "address",
          "name": "to",
          "type": "address"
        },
        {
          "internalType": "uint256",
          "name": "tokenId",
          "type": "uint256"
        },
        {
          "internalType": "bytes",
          "name": "_data",
          "type": "bytes"
        }
      ],
      "name": "safeTransferFrom",
      "outputs": [],
      "stateMutability": "nonpayable",
      "type": "function"
    },
    {
      "inputs": [],
      "name": "serviceFeeForContract",
      "outputs": [
        {
          "internalType": "uint256",
          "name": "",
          "type": "uint256"
        }
      ],
      "stateMutability": "view",
      "type": "function",
      "constant": true
    },
    {
      "inputs": [],
      "name": "serviceFeeForPaymentAddress",
      "outputs": [
        {
          "internalType": "uint256",
          "name": "",
          "type": "uint256"
        }
      ],
      "stateMutability": "view",
      "type": "function",
      "constant": true
    },
    {
      "inputs": [
        {
          "internalType": "address",
          "name": "operator",
          "type": "address"
        },
        {
          "internalType": "bool",
          "name": "approved",
          "type": "bool"
        }
      ],
      "name": "setApprovalForAll",
      "outputs": [],
      "stateMutability": "nonpayable",
      "type": "function"
    },
    {
      "inputs": [],
      "name": "stablecoin",
      "outputs": [
        {
          "internalType": "contract IERC20",
          "name": "",
          "type": "address"
        }
      ],
      "stateMutability": "view",
      "type": "function",
      "constant": true
    },
    {
      "inputs": [
        {
          "internalType": "bytes4",
          "name": "interfaceId",
          "type": "bytes4"
        }
      ],
      "name": "supportsInterface",
      "outputs": [
        {
          "internalType": "bool",
          "name": "",
          "type": "bool"
        }
      ],
      "stateMutability": "view",
      "type": "function",
      "constant": true
    },
    {
      "inputs": [],
      "name": "symbol",
      "outputs": [
        {
          "internalType": "string",
          "name": "",
          "type": "string"
        }
      ],
      "stateMutability": "view",
      "type": "function",
      "constant": true
    },
    {
      "inputs": [
        {
          "internalType": "address",
          "name": "from",
          "type": "address"
        },
        {
          "internalType": "address",
          "name": "to",
          "type": "address"
        },
        {
          "internalType": "uint256",
          "name": "tokenId",
          "type": "uint256"
        }
      ],
      "name": "transferFrom",
      "outputs": [],
      "stateMutability": "nonpayable",
      "type": "function"
    },
    {
      "inputs": [
        {
          "internalType": "address",
          "name": "newOwner",
          "type": "address"
        }
      ],
      "name": "transferOwnership",
      "outputs": [],
      "stateMutability": "nonpayable",
      "type": "function"
    },
    {
      "inputs": [
        {
          "internalType": "uint256",
          "name": "_fee",
          "type": "uint256"
        }
      ],
      "name": "setServiceFeeForPaymentAddress",
      "outputs": [],
      "stateMutability": "nonpayable",
      "type": "function"
    },
    {
      "inputs": [
        {
          "internalType": "uint256",
          "name": "_fee",
          "type": "uint256"
        }
      ],
      "name": "setServiceFeeForContract",
      "outputs": [],
      "stateMutability": "nonpayable",
      "type": "function"
    },
    {
      "inputs": [
        {
          "internalType": "address",
          "name": "user",
          "type": "address"
        },
        {
          "internalType": "string",
          "name": "uri",
          "type": "string"
        }
      ],
      "name": "mint",
      "outputs": [
        {
          "internalType": "uint256",
          "name": "",
          "type": "uint256"
        }
      ],
      "stateMutability": "nonpayable",
      "type": "function"
    },
    {
      "inputs": [
        {
          "internalType": "uint256",
          "name": "tokenId",
          "type": "uint256"
        }
      ],
      "name": "tokenURI",
      "outputs": [
        {
          "internalType": "string",
          "name": "",
          "type": "string"
        }
      ],
      "stateMutability": "view",
      "type": "function",
      "constant": true
    },
    {
      "inputs": [
        {
          "internalType": "address payable",
          "name": "payee",
          "type": "address"
        }
      ],
      "name": "withdrawBalance",
      "outputs": [],
      "stateMutability": "nonpayable",
      "type": "function"
    }
  ],
  "bytecode": "0x60806040526000600b556000600c553480156200001b57600080fd5b50604051620043ef380380620043ef833981810160405281019062000041919062000447565b828281600090805190602001906200005b92919062000195565b5080600190805190602001906200007492919062000195565b5050506000600660006101000a81548160ff0219169083151502179055506000620000a46200018d60201b60201c565b905080600860006101000a81548173ffffffffffffffffffffffffffffffffffffffff021916908373ffffffffffffffffffffffffffffffffffffffff1602179055508073ffffffffffffffffffffffffffffffffffffffff16600073ffffffffffffffffffffffffffffffffffffffff167f8be0079c531659141344cd1fd0a4f28419497f9722a3daafe3b4186f6b6457e060405160405180910390a35080600a60006101000a81548173ffffffffffffffffffffffffffffffffffffffff021916908373ffffffffffffffffffffffffffffffffffffffff16021790555050505062000546565b600033905090565b828054620001a39062000510565b90600052602060002090601f016020900481019282620001c7576000855562000213565b82601f10620001e257805160ff191683800117855562000213565b8280016001018555821562000213579182015b8281111562000212578251825591602001919060010190620001f5565b5b50905062000222919062000226565b5090565b5b808211156200024157600081600090555060010162000227565b5090565b6000604051905090565b600080fd5b600080fd5b600080fd5b600080fd5b6000601f19601f8301169050919050565b7f4e487b7100000000000000000000000000000000000000000000000000000000600052604160045260246000fd5b620002ae8262000263565b810181811067ffffffffffffffff82111715620002d057620002cf62000274565b5b80604052505050565b6000620002e562000245565b9050620002f38282620002a3565b919050565b600067ffffffffffffffff82111562000316576200031562000274565b5b620003218262000263565b9050602081019050919050565b60005b838110156200034e57808201518184015260208101905062000331565b838111156200035e576000848401525b50505050565b60006200037b6200037584620002f8565b620002d9565b9050828152602081018484840111156200039a57620003996200025e565b5b620003a78482856200032e565b509392505050565b600082601f830112620003c757620003c662000259565b5b8151620003d984826020860162000364565b91505092915050565b600073ffffffffffffffffffffffffffffffffffffffff82169050919050565b60006200040f82620003e2565b9050919050565b620004218162000402565b81146200042d57600080fd5b50565b600081519050620004418162000416565b92915050565b6000806000606084860312156200046357620004626200024f565b5b600084015167ffffffffffffffff81111562000484576200048362000254565b5b6200049286828701620003af565b935050602084015167ffffffffffffffff811115620004b657620004b562000254565b5b620004c486828701620003af565b9250506040620004d78682870162000430565b9150509250925092565b7f4e487b7100000000000000000000000000000000000000000000000000000000600052602260045260246000fd5b600060028204905060018216806200052957607f821691505b6020821081141562000540576200053f620004e1565b5b50919050565b613e9980620005566000396000f3fe608060405234801561001057600080fd5b50600436106101735760003560e01c8063756af45f116100de578063c014b9da11610097578063e53ae10211610071578063e53ae10214610434578063e985e9c514610452578063e9cbd82214610482578063f2fde38b146104a057610173565b8063c014b9da146103b6578063c87b56dd146103d4578063d0def5211461040457610173565b8063756af45f1461030a5780638da5cb5b1461032657806395d89b4114610344578063a22cb46514610362578063b86be2ca1461037e578063b88d4fde1461039a57610173565b806342842e0e1161013057806342842e0e1461024a57806342966c68146102665780635c975abb146102825780636352211e146102a057806370a08231146102d0578063715018a61461030057610173565b806301ffc9a71461017857806306fdde03146101a8578063081812fc146101c6578063095ea7b3146101f657806323b872dd146102125780632c078e8d1461022e575b600080fd5b610192600480360381019061018d919061265c565b6104bc565b60405161019f91906126a4565b60405180910390f35b6101b061059e565b6040516101bd9190612758565b60405180910390f35b6101e060048036038101906101db91906127b0565b610630565b6040516101ed919061281e565b60405180910390f35b610210600480360381019061020b9190612865565b6106b5565b005b61022c600480360381019061022791906128a5565b6107cd565b005b610248600480360381019061024391906127b0565b61082d565b005b610264600480360381019061025f91906128a5565b6108b3565b005b610280600480360381019061027b91906127b0565b6108d3565b005b61028a61092f565b60405161029791906126a4565b60405180910390f35b6102ba60048036038101906102b591906127b0565b610946565b6040516102c7919061281e565b60405180910390f35b6102ea60048036038101906102e591906128f8565b6109f8565b6040516102f79190612934565b60405180910390f35b610308610ab0565b005b610324600480360381019061031f919061298d565b610bed565b005b61032e610e58565b60405161033b919061281e565b60405180910390f35b61034c610e82565b6040516103599190612758565b60405180910390f35b61037c600480360381019061037791906129e6565b610f14565b005b610398600480360381019061039391906127b0565b611095565b005b6103b460048036038101906103af9190612b5b565b61111b565b005b6103be61117d565b6040516103cb9190612934565b60405180910390f35b6103ee60048036038101906103e991906127b0565b611183565b6040516103fb9190612758565b60405180910390f35b61041e60048036038101906104199190612c7f565b611195565b60405161042b9190612934565b60405180910390f35b61043c6111cd565b6040516104499190612934565b60405180910390f35b61046c60048036038101906104679190612cdb565b6111d3565b60405161047991906126a4565b60405180910390f35b61048a611267565b6040516104979190612d7a565b60405180910390f35b6104ba60048036038101906104b591906128f8565b61128d565b005b60007f80ac58cd000000000000000000000000000000000000000000000000000000007bffffffffffffffffffffffffffffffffffffffffffffffffffffffff1916827bffffffffffffffffffffffffffffffffffffffffffffffffffffffff1916148061058757507f5b5e139f000000000000000000000000000000000000000000000000000000007bffffffffffffffffffffffffffffffffffffffffffffffffffffffff1916827bffffffffffffffffffffffffffffffffffffffffffffffffffffffff1916145b80610597575061059682611439565b5b9050919050565b6060600080546105ad90612dc4565b80601f01602080910402602001604051908101604052809291908181526020018280546105d990612dc4565b80156106265780601f106105fb57610100808354040283529160200191610626565b820191906000526020600020905b81548152906001019060200180831161060957829003601f168201915b5050505050905090565b600061063b826114a3565b61067a576040517f08c379a000000000000000000000000000000000000000000000000000000000815260040161067190612e68565b60405180910390fd5b6004600083815260200190815260200160002060009054906101000a900473ffffffffffffffffffffffffffffffffffffffff169050919050565b60006106c082610946565b90508073ffffffffffffffffffffffffffffffffffffffff168373ffffffffffffffffffffffffffffffffffffffff161415610731576040517f08c379a000000000000000000000000000000000000000000000000000000000815260040161072890612efa565b60405180910390fd5b8073ffffffffffffffffffffffffffffffffffffffff1661075061150f565b73ffffffffffffffffffffffffffffffffffffffff16148061077f575061077e8161077961150f565b6111d3565b5b6107be576040517f08c379a00000000000000000000000000000000000000000000000000000000081526004016107b590612f8c565b60405180910390fd5b6107c88383611517565b505050565b6107de6107d861150f565b826115d0565b61081d576040517f08c379a00000000000000000000000000000000000000000000000000000000081526004016108149061301e565b60405180910390fd5b6108288383836116ae565b505050565b61083561150f565b73ffffffffffffffffffffffffffffffffffffffff16610853610e58565b73ffffffffffffffffffffffffffffffffffffffff16146108a9576040517f08c379a00000000000000000000000000000000000000000000000000000000081526004016108a09061308a565b60405180910390fd5b80600c8190555050565b6108ce8383836040518060200160405280600081525061111b565b505050565b6108e46108de61150f565b826115d0565b610923576040517f08c379a000000000000000000000000000000000000000000000000000000000815260040161091a9061311c565b60405180910390fd5b61092c8161190a565b50565b6000600660009054906101000a900460ff16905090565b6000806002600084815260200190815260200160002060009054906101000a900473ffffffffffffffffffffffffffffffffffffffff169050600073ffffffffffffffffffffffffffffffffffffffff168173ffffffffffffffffffffffffffffffffffffffff1614156109ef576040517f08c379a00000000000000000000000000000000000000000000000000000000081526004016109e6906131ae565b60405180910390fd5b80915050919050565b60008073ffffffffffffffffffffffffffffffffffffffff168273ffffffffffffffffffffffffffffffffffffffff161415610a69576040517f08c379a0000000000000000000000000000000000000000000000000000000008152600401610a6090613240565b60405180910390fd5b600360008373ffffffffffffffffffffffffffffffffffffffff1673ffffffffffffffffffffffffffffffffffffffff168152602001908152602001600020549050919050565b610ab861150f565b73ffffffffffffffffffffffffffffffffffffffff16610ad6610e58565b73ffffffffffffffffffffffffffffffffffffffff1614610b2c576040517f08c379a0000000000000000000000000000000000000000000000000000000008152600401610b239061308a565b60405180910390fd5b600073ffffffffffffffffffffffffffffffffffffffff16600860009054906101000a900473ffffffffffffffffffffffffffffffffffffffff1673ffffffffffffffffffffffffffffffffffffffff167f8be0079c531659141344cd1fd0a4f28419497f9722a3daafe3b4186f6b6457e060405160405180910390a36000600860006101000a81548173ffffffffffffffffffffffffffffffffffffffff021916908373ffffffffffffffffffffffffffffffffffffffff160217905550565b610bf561150f565b73ffffffffffffffffffffffffffffffffffffffff16610c13610e58565b73ffffffffffffffffffffffffffffffffffffffff1614610c69576040517f08c379a0000000000000000000000000000000000000000000000000000000008152600401610c609061308a565b60405180910390fd5b6000600a60009054906101000a900473ffffffffffffffffffffffffffffffffffffffff1673ffffffffffffffffffffffffffffffffffffffff166370a08231306040518263ffffffff1660e01b8152600401610cc6919061281e565b60206040518083038186803b158015610cde57600080fd5b505afa158015610cf2573d6000803e3d6000fd5b505050506040513d601f19601f82011682018060405250810190610d169190613275565b9050600a60009054906101000a900473ffffffffffffffffffffffffffffffffffffffff1673ffffffffffffffffffffffffffffffffffffffff1663a9059cbb83836040518363ffffffff1660e01b8152600401610d759291906132c3565b602060405180830381600087803b158015610d8f57600080fd5b505af1158015610da3573d6000803e3d6000fd5b505050506040513d601f19601f82011682018060405250810190610dc79190613301565b610e06576040517f08c379a0000000000000000000000000000000000000000000000000000000008152600401610dfd9061337a565b60405180910390fd5b8173ffffffffffffffffffffffffffffffffffffffff167f7084f5476618d8e60b11ef0d7d3f06914655adb8793e28ff7f018d4c76d505d582604051610e4c9190612934565b60405180910390a25050565b6000600860009054906101000a900473ffffffffffffffffffffffffffffffffffffffff16905090565b606060018054610e9190612dc4565b80601f0160208091040260200160405190810160405280929190818152602001828054610ebd90612dc4565b8015610f0a5780601f10610edf57610100808354040283529160200191610f0a565b820191906000526020600020905b815481529060010190602001808311610eed57829003601f168201915b5050505050905090565b610f1c61150f565b73ffffffffffffffffffffffffffffffffffffffff168273ffffffffffffffffffffffffffffffffffffffff161415610f8a576040517f08c379a0000000000000000000000000000000000000000000000000000000008152600401610f81906133e6565b60405180910390fd5b8060056000610f9761150f565b73ffffffffffffffffffffffffffffffffffffffff1673ffffffffffffffffffffffffffffffffffffffff16815260200190815260200160002060008473ffffffffffffffffffffffffffffffffffffffff1673ffffffffffffffffffffffffffffffffffffffff16815260200190815260200160002060006101000a81548160ff0219169083151502179055508173ffffffffffffffffffffffffffffffffffffffff1661104461150f565b73ffffffffffffffffffffffffffffffffffffffff167f17307eab39ab6107e8899845ad3d59bd9653f200f220920489ca2b5937696c318360405161108991906126a4565b60405180910390a35050565b61109d61150f565b73ffffffffffffffffffffffffffffffffffffffff166110bb610e58565b73ffffffffffffffffffffffffffffffffffffffff1614611111576040517f08c379a00000000000000000000000000000000000000000000000000000000081526004016111089061308a565b60405180910390fd5b80600b8190555050565b61112c61112661150f565b836115d0565b61116b576040517f08c379a00000000000000000000000000000000000000000000000000000000081526004016111629061301e565b60405180910390fd5b61117784848484611916565b50505050565b600b5481565b606061118e82611972565b9050919050565b60006111a16009611ac4565b60006111ad6009611ada565b90506111b98482611ae8565b6111c38184611b06565b8091505092915050565b600c5481565b6000600560008473ffffffffffffffffffffffffffffffffffffffff1673ffffffffffffffffffffffffffffffffffffffff16815260200190815260200160002060008373ffffffffffffffffffffffffffffffffffffffff1673ffffffffffffffffffffffffffffffffffffffff16815260200190815260200160002060009054906101000a900460ff16905092915050565b600a60009054906101000a900473ffffffffffffffffffffffffffffffffffffffff1681565b61129561150f565b73ffffffffffffffffffffffffffffffffffffffff166112b3610e58565b73ffffffffffffffffffffffffffffffffffffffff1614611309576040517f08c379a00000000000000000000000000000000000000000000000000000000081526004016113009061308a565b60405180910390fd5b600073ffffffffffffffffffffffffffffffffffffffff168173ffffffffffffffffffffffffffffffffffffffff161415611379576040517f08c379a000000000000000000000000000000000000000000000000000000000815260040161137090613478565b60405180910390fd5b8073ffffffffffffffffffffffffffffffffffffffff16600860009054906101000a900473ffffffffffffffffffffffffffffffffffffffff1673ffffffffffffffffffffffffffffffffffffffff167f8be0079c531659141344cd1fd0a4f28419497f9722a3daafe3b4186f6b6457e060405160405180910390a380600860006101000a81548173ffffffffffffffffffffffffffffffffffffffff021916908373ffffffffffffffffffffffffffffffffffffffff16021790555050565b60007f01ffc9a7000000000000000000000000000000000000000000000000000000007bffffffffffffffffffffffffffffffffffffffffffffffffffffffff1916827bffffffffffffffffffffffffffffffffffffffffffffffffffffffff1916149050919050565b60008073ffffffffffffffffffffffffffffffffffffffff166002600084815260200190815260200160002060009054906101000a900473ffffffffffffffffffffffffffffffffffffffff1673ffffffffffffffffffffffffffffffffffffffff1614159050919050565b600033905090565b816004600083815260200190815260200160002060006101000a81548173ffffffffffffffffffffffffffffffffffffffff021916908373ffffffffffffffffffffffffffffffffffffffff160217905550808273ffffffffffffffffffffffffffffffffffffffff1661158a83610946565b73ffffffffffffffffffffffffffffffffffffffff167f8c5be1e5ebec7d5bd14f71427d1e84f3dd0314c0f7b2291e5b200ac8c7c3b92560405160405180910390a45050565b60006115db826114a3565b61161a576040517f08c379a00000000000000000000000000000000000000000000000000000000081526004016116119061350a565b60405180910390fd5b600061162583610946565b90508073ffffffffffffffffffffffffffffffffffffffff168473ffffffffffffffffffffffffffffffffffffffff16148061169457508373ffffffffffffffffffffffffffffffffffffffff1661167c84610630565b73ffffffffffffffffffffffffffffffffffffffff16145b806116a557506116a481856111d3565b5b91505092915050565b8273ffffffffffffffffffffffffffffffffffffffff166116ce82610946565b73ffffffffffffffffffffffffffffffffffffffff1614611724576040517f08c379a000000000000000000000000000000000000000000000000000000000815260040161171b9061359c565b60405180910390fd5b600073ffffffffffffffffffffffffffffffffffffffff168273ffffffffffffffffffffffffffffffffffffffff161415611794576040517f08c379a000000000000000000000000000000000000000000000000000000000815260040161178b9061362e565b60405180910390fd5b61179f838383611b7a565b6117aa600082611517565b6001600360008573ffffffffffffffffffffffffffffffffffffffff1673ffffffffffffffffffffffffffffffffffffffff16815260200190815260200160002060008282546117fa919061367d565b925050819055506001600360008473ffffffffffffffffffffffffffffffffffffffff1673ffffffffffffffffffffffffffffffffffffffff168152602001908152602001600020600082825461185191906136b1565b92505081905550816002600083815260200190815260200160002060006101000a81548173ffffffffffffffffffffffffffffffffffffffff021916908373ffffffffffffffffffffffffffffffffffffffff160217905550808273ffffffffffffffffffffffffffffffffffffffff168473ffffffffffffffffffffffffffffffffffffffff167fddf252ad1be2c89b69c2b068fc378daa952ba7f163c4a11628f55a4df523b3ef60405160405180910390a4505050565b61191381611c11565b50565b6119218484846116ae565b61192d84848484611c64565b61196c576040517f08c379a000000000000000000000000000000000000000000000000000000000815260040161196390613779565b60405180910390fd5b50505050565b606061197d826114a3565b6119bc576040517f08c379a00000000000000000000000000000000000000000000000000000000081526004016119b39061380b565b60405180910390fd5b60006007600084815260200190815260200160002080546119dc90612dc4565b80601f0160208091040260200160405190810160405280929190818152602001828054611a0890612dc4565b8015611a555780601f10611a2a57610100808354040283529160200191611a55565b820191906000526020600020905b815481529060010190602001808311611a3857829003601f168201915b505050505090506000611a66611dfb565b9050600081511415611a7c578192505050611abf565b600082511115611ab1578082604051602001611a99929190613867565b60405160208183030381529060405292505050611abf565b611aba84611e12565b925050505b919050565b6001816000016000828254019250508190555050565b600081600001549050919050565b611b02828260405180602001604052806000815250611eb9565b5050565b611b0f826114a3565b611b4e576040517f08c379a0000000000000000000000000000000000000000000000000000000008152600401611b45906138fd565b60405180910390fd5b80600760008481526020019081526020016000209080519060200190611b7592919061250d565b505050565b611b8261092f565b15611bc2576040517f08c379a0000000000000000000000000000000000000000000000000000000008152600401611bb990613969565b60405180910390fd5b600073ffffffffffffffffffffffffffffffffffffffff168373ffffffffffffffffffffffffffffffffffffffff161415611c0157611c0033611f14565b5b611c0c83838361205d565b505050565b611c1a816120b5565b6000600760008381526020019081526020016000208054611c3a90612dc4565b905014611c6157600760008281526020019081526020016000206000611c609190612593565b5b50565b6000611c858473ffffffffffffffffffffffffffffffffffffffff166121c6565b15611dee578373ffffffffffffffffffffffffffffffffffffffff1663150b7a02611cae61150f565b8786866040518563ffffffff1660e01b8152600401611cd094939291906139de565b602060405180830381600087803b158015611cea57600080fd5b505af1925050508015611d1b57506040513d601f19601f82011682018060405250810190611d189190613a3f565b60015b611d9e573d8060008114611d4b576040519150601f19603f3d011682016040523d82523d6000602084013e611d50565b606091505b50600081511415611d96576040517f08c379a0000000000000000000000000000000000000000000000000000000008152600401611d8d90613779565b60405180910390fd5b805181602001fd5b63150b7a0260e01b7bffffffffffffffffffffffffffffffffffffffffffffffffffffffff1916817bffffffffffffffffffffffffffffffffffffffffffffffffffffffff191614915050611df3565b600190505b949350505050565b606060405180602001604052806000815250905090565b6060611e1d826114a3565b611e5c576040517f08c379a0000000000000000000000000000000000000000000000000000000008152600401611e5390613ade565b60405180910390fd5b6000611e66611dfb565b90506000815111611e865760405180602001604052806000815250611eb1565b80611e90846121d9565b604051602001611ea1929190613867565b6040516020818303038152906040525b915050919050565b611ec3838361233a565b611ed06000848484611c64565b611f0f576040517f08c379a0000000000000000000000000000000000000000000000000000000008152600401611f0690613779565b60405180910390fd5b505050565b600a60009054906101000a900473ffffffffffffffffffffffffffffffffffffffff1673ffffffffffffffffffffffffffffffffffffffff166323b872dd8230600c546040518463ffffffff1660e01b8152600401611f7593929190613afe565b602060405180830381600087803b158015611f8f57600080fd5b505af1158015611fa3573d6000803e3d6000fd5b505050506040513d601f19601f82011682018060405250810190611fc79190613301565b612006576040517f08c379a0000000000000000000000000000000000000000000000000000000008152600401611ffd90613ba7565b60405180910390fd5b8073ffffffffffffffffffffffffffffffffffffffff167fff781da90c6b849a72bafc99aedde3dff0b039f697f31c21e96d587accee2760600c54600b54604051612052929190613bc7565b60405180910390a250565b612068838383612508565b61207061092f565b156120b0576040517f08c379a00000000000000000000000000000000000000000000000000000000081526004016120a790613c62565b60405180910390fd5b505050565b60006120c082610946565b90506120ce81600084611b7a565b6120d9600083611517565b6001600360008373ffffffffffffffffffffffffffffffffffffffff1673ffffffffffffffffffffffffffffffffffffffff1681526020019081526020016000206000828254612129919061367d565b925050819055506002600083815260200190815260200160002060006101000a81549073ffffffffffffffffffffffffffffffffffffffff021916905581600073ffffffffffffffffffffffffffffffffffffffff168273ffffffffffffffffffffffffffffffffffffffff167fddf252ad1be2c89b69c2b068fc378daa952ba7f163c4a11628f55a4df523b3ef60405160405180910390a45050565b600080823b905060008111915050919050565b60606000821415612221576040518060400160405280600181526020017f30000000000000000000000000000000000000000000000000000000000000008152509050612335565b600082905060005b6000821461225357808061223c90613c82565b915050600a8261224c9190613cfa565b9150612229565b60008167ffffffffffffffff81111561226f5761226e612a30565b5b6040519080825280601f01601f1916602001820160405280156122a15781602001600182028036833780820191505090505b5090505b6000851461232e576001826122ba919061367d565b9150600a856122c99190613d2b565b60306122d591906136b1565b60f81b8183815181106122eb576122ea613d5c565b5b60200101907effffffffffffffffffffffffffffffffffffffffffffffffffffffffffffff1916908160001a905350600a856123279190613cfa565b94506122a5565b8093505050505b919050565b600073ffffffffffffffffffffffffffffffffffffffff168273ffffffffffffffffffffffffffffffffffffffff1614156123aa576040517f08c379a00000000000000000000000000000000000000000000000000000000081526004016123a190613dd7565b60405180910390fd5b6123b3816114a3565b156123f3576040517f08c379a00000000000000000000000000000000000000000000000000000000081526004016123ea90613e43565b60405180910390fd5b6123ff60008383611b7a565b6001600360008473ffffffffffffffffffffffffffffffffffffffff1673ffffffffffffffffffffffffffffffffffffffff168152602001908152602001600020600082825461244f91906136b1565b92505081905550816002600083815260200190815260200160002060006101000a81548173ffffffffffffffffffffffffffffffffffffffff021916908373ffffffffffffffffffffffffffffffffffffffff160217905550808273ffffffffffffffffffffffffffffffffffffffff16600073ffffffffffffffffffffffffffffffffffffffff167fddf252ad1be2c89b69c2b068fc378daa952ba7f163c4a11628f55a4df523b3ef60405160405180910390a45050565b505050565b82805461251990612dc4565b90600052602060002090601f01602090048101928261253b5760008555612582565b82601f1061255457805160ff1916838001178555612582565b82800160010185558215612582579182015b82811115612581578251825591602001919060010190612566565b5b50905061258f91906125d3565b5090565b50805461259f90612dc4565b6000825580601f106125b157506125d0565b601f0160209004906000526020600020908101906125cf91906125d3565b5b50565b5b808211156125ec5760008160009055506001016125d4565b5090565b6000604051905090565b600080fd5b600080fd5b60007fffffffff0000000000000000000000000000000000000000000000000000000082169050919050565b61263981612604565b811461264457600080fd5b50565b60008135905061265681612630565b92915050565b600060208284031215612672576126716125fa565b5b600061268084828501612647565b91505092915050565b60008115159050919050565b61269e81612689565b82525050565b60006020820190506126b96000830184612695565b92915050565b600081519050919050565b600082825260208201905092915050565b60005b838110156126f95780820151818401526020810190506126de565b83811115612708576000848401525b50505050565b6000601f19601f8301169050919050565b600061272a826126bf565b61273481856126ca565b93506127448185602086016126db565b61274d8161270e565b840191505092915050565b60006020820190508181036000830152612772818461271f565b905092915050565b6000819050919050565b61278d8161277a565b811461279857600080fd5b50565b6000813590506127aa81612784565b92915050565b6000602082840312156127c6576127c56125fa565b5b60006127d48482850161279b565b91505092915050565b600073ffffffffffffffffffffffffffffffffffffffff82169050919050565b6000612808826127dd565b9050919050565b612818816127fd565b82525050565b6000602082019050612833600083018461280f565b92915050565b612842816127fd565b811461284d57600080fd5b50565b60008135905061285f81612839565b92915050565b6000806040838503121561287c5761287b6125fa565b5b600061288a85828601612850565b925050602061289b8582860161279b565b9150509250929050565b6000806000606084860312156128be576128bd6125fa565b5b60006128cc86828701612850565b93505060206128dd86828701612850565b92505060406128ee8682870161279b565b9150509250925092565b60006020828403121561290e5761290d6125fa565b5b600061291c84828501612850565b91505092915050565b61292e8161277a565b82525050565b60006020820190506129496000830184612925565b92915050565b600061295a826127dd565b9050919050565b61296a8161294f565b811461297557600080fd5b50565b60008135905061298781612961565b92915050565b6000602082840312156129a3576129a26125fa565b5b60006129b184828501612978565b91505092915050565b6129c381612689565b81146129ce57600080fd5b50565b6000813590506129e0816129ba565b92915050565b600080604083850312156129fd576129fc6125fa565b5b6000612a0b85828601612850565b9250506020612a1c858286016129d1565b9150509250929050565b600080fd5b600080fd5b7f4e487b7100000000000000000000000000000000000000000000000000000000600052604160045260246000fd5b612a688261270e565b810181811067ffffffffffffffff82111715612a8757612a86612a30565b5b80604052505050565b6000612a9a6125f0565b9050612aa68282612a5f565b919050565b600067ffffffffffffffff821115612ac657612ac5612a30565b5b612acf8261270e565b9050602081019050919050565b82818337600083830152505050565b6000612afe612af984612aab565b612a90565b905082815260208101848484011115612b1a57612b19612a2b565b5b612b25848285612adc565b509392505050565b600082601f830112612b4257612b41612a26565b5b8135612b52848260208601612aeb565b91505092915050565b60008060008060808587031215612b7557612b746125fa565b5b6000612b8387828801612850565b9450506020612b9487828801612850565b9350506040612ba58782880161279b565b925050606085013567ffffffffffffffff811115612bc657612bc56125ff565b5b612bd287828801612b2d565b91505092959194509250565b600067ffffffffffffffff821115612bf957612bf8612a30565b5b612c028261270e565b9050602081019050919050565b6000612c22612c1d84612bde565b612a90565b905082815260208101848484011115612c3e57612c3d612a2b565b5b612c49848285612adc565b509392505050565b600082601f830112612c6657612c65612a26565b5b8135612c76848260208601612c0f565b91505092915050565b60008060408385031215612c9657612c956125fa565b5b6000612ca485828601612850565b925050602083013567ffffffffffffffff811115612cc557612cc46125ff565b5b612cd185828601612c51565b9150509250929050565b60008060408385031215612cf257612cf16125fa565b5b6000612d0085828601612850565b9250506020612d1185828601612850565b9150509250929050565b6000819050919050565b6000612d40612d3b612d36846127dd565b612d1b565b6127dd565b9050919050565b6000612d5282612d25565b9050919050565b6000612d6482612d47565b9050919050565b612d7481612d59565b82525050565b6000602082019050612d8f6000830184612d6b565b92915050565b7f4e487b7100000000000000000000000000000000000000000000000000000000600052602260045260246000fd5b60006002820490506001821680612ddc57607f821691505b60208210811415612df057612def612d95565b5b50919050565b7f4552433732313a20617070726f76656420717565727920666f72206e6f6e657860008201527f697374656e7420746f6b656e0000000000000000000000000000000000000000602082015250565b6000612e52602c836126ca565b9150612e5d82612df6565b604082019050919050565b60006020820190508181036000830152612e8181612e45565b9050919050565b7f4552433732313a20617070726f76616c20746f2063757272656e74206f776e6560008201527f7200000000000000000000000000000000000000000000000000000000000000602082015250565b6000612ee46021836126ca565b9150612eef82612e88565b604082019050919050565b60006020820190508181036000830152612f1381612ed7565b9050919050565b7f4552433732313a20617070726f76652063616c6c6572206973206e6f74206f7760008201527f6e6572206e6f7220617070726f76656420666f7220616c6c0000000000000000602082015250565b6000612f766038836126ca565b9150612f8182612f1a565b604082019050919050565b60006020820190508181036000830152612fa581612f69565b9050919050565b7f4552433732313a207472616e736665722063616c6c6572206973206e6f74206f60008201527f776e6572206e6f7220617070726f766564000000000000000000000000000000602082015250565b60006130086031836126ca565b915061301382612fac565b604082019050919050565b6000602082019050818103600083015261303781612ffb565b9050919050565b7f4f776e61626c653a2063616c6c6572206973206e6f7420746865206f776e6572600082015250565b60006130746020836126ca565b915061307f8261303e565b602082019050919050565b600060208201905081810360008301526130a381613067565b9050919050565b7f4552433732314275726e61626c653a2063616c6c6572206973206e6f74206f7760008201527f6e6572206e6f7220617070726f76656400000000000000000000000000000000602082015250565b60006131066030836126ca565b9150613111826130aa565b604082019050919050565b60006020820190508181036000830152613135816130f9565b9050919050565b7f4552433732313a206f776e657220717565727920666f72206e6f6e657869737460008201527f656e7420746f6b656e0000000000000000000000000000000000000000000000602082015250565b60006131986029836126ca565b91506131a38261313c565b604082019050919050565b600060208201905081810360008301526131c78161318b565b9050919050565b7f4552433732313a2062616c616e636520717565727920666f7220746865207a6560008201527f726f206164647265737300000000000000000000000000000000000000000000602082015250565b600061322a602a836126ca565b9150613235826131ce565b604082019050919050565b600060208201905081810360008301526132598161321d565b9050919050565b60008151905061326f81612784565b92915050565b60006020828403121561328b5761328a6125fa565b5b600061329984828501613260565b91505092915050565b60006132ad82612d47565b9050919050565b6132bd816132a2565b82525050565b60006040820190506132d860008301856132b4565b6132e56020830184612925565b9392505050565b6000815190506132fb816129ba565b92915050565b600060208284031215613317576133166125fa565b5b6000613325848285016132ec565b91505092915050565b7f5844563a205472616e73666572206661696c6564000000000000000000000000600082015250565b60006133646014836126ca565b915061336f8261332e565b602082019050919050565b6000602082019050818103600083015261339381613357565b9050919050565b7f4552433732313a20617070726f766520746f2063616c6c657200000000000000600082015250565b60006133d06019836126ca565b91506133db8261339a565b602082019050919050565b600060208201905081810360008301526133ff816133c3565b9050919050565b7f4f776e61626c653a206e6577206f776e657220697320746865207a65726f206160008201527f6464726573730000000000000000000000000000000000000000000000000000602082015250565b60006134626026836126ca565b915061346d82613406565b604082019050919050565b6000602082019050818103600083015261349181613455565b9050919050565b7f4552433732313a206f70657261746f7220717565727920666f72206e6f6e657860008201527f697374656e7420746f6b656e0000000000000000000000000000000000000000602082015250565b60006134f4602c836126ca565b91506134ff82613498565b604082019050919050565b60006020820190508181036000830152613523816134e7565b9050919050565b7f4552433732313a207472616e73666572206f6620746f6b656e2074686174206960008201527f73206e6f74206f776e0000000000000000000000000000000000000000000000602082015250565b60006135866029836126ca565b91506135918261352a565b604082019050919050565b600060208201905081810360008301526135b581613579565b9050919050565b7f4552433732313a207472616e7366657220746f20746865207a65726f2061646460008201527f7265737300000000000000000000000000000000000000000000000000000000602082015250565b60006136186024836126ca565b9150613623826135bc565b604082019050919050565b600060208201905081810360008301526136478161360b565b9050919050565b7f4e487b7100000000000000000000000000000000000000000000000000000000600052601160045260246000fd5b60006136888261277a565b91506136938361277a565b9250828210156136a6576136a561364e565b5b828203905092915050565b60006136bc8261277a565b91506136c78361277a565b9250827fffffffffffffffffffffffffffffffffffffffffffffffffffffffffffffffff038211156136fc576136fb61364e565b5b828201905092915050565b7f4552433732313a207472616e7366657220746f206e6f6e20455243373231526560008201527f63656976657220696d706c656d656e7465720000000000000000000000000000602082015250565b60006137636032836126ca565b915061376e82613707565b604082019050919050565b6000602082019050818103600083015261379281613756565b9050919050565b7f45524337323155524953746f726167653a2055524920717565727920666f722060008201527f6e6f6e6578697374656e7420746f6b656e000000000000000000000000000000602082015250565b60006137f56031836126ca565b915061380082613799565b604082019050919050565b60006020820190508181036000830152613824816137e8565b9050919050565b600081905092915050565b6000613841826126bf565b61384b818561382b565b935061385b8185602086016126db565b80840191505092915050565b60006138738285613836565b915061387f8284613836565b91508190509392505050565b7f45524337323155524953746f726167653a2055524920736574206f66206e6f6e60008201527f6578697374656e7420746f6b656e000000000000000000000000000000000000602082015250565b60006138e7602e836126ca565b91506138f28261388b565b604082019050919050565b60006020820190508181036000830152613916816138da565b9050919050565b7f5844563a20546f6b656e20657865637574696f6e206973207061757365640000600082015250565b6000613953601e836126ca565b915061395e8261391d565b602082019050919050565b6000602082019050818103600083015261398281613946565b9050919050565b600081519050919050565b600082825260208201905092915050565b60006139b082613989565b6139ba8185613994565b93506139ca8185602086016126db565b6139d38161270e565b840191505092915050565b60006080820190506139f3600083018761280f565b613a00602083018661280f565b613a0d6040830185612925565b8181036060830152613a1f81846139a5565b905095945050505050565b600081519050613a3981612630565b92915050565b600060208284031215613a5557613a546125fa565b5b6000613a6384828501613a2a565b91505092915050565b7f4552433732314d657461646174613a2055524920717565727920666f72206e6f60008201527f6e6578697374656e7420746f6b656e0000000000000000000000000000000000602082015250565b6000613ac8602f836126ca565b9150613ad382613a6c565b604082019050919050565b60006020820190508181036000830152613af781613abb565b9050919050565b6000606082019050613b13600083018661280f565b613b20602083018561280f565b613b2d6040830184612925565b949350505050565b7f5844563a205472616e73666572206661696c656420666f72207265636970696560008201527f6e74000000000000000000000000000000000000000000000000000000000000602082015250565b6000613b916022836126ca565b9150613b9c82613b35565b604082019050919050565b60006020820190508181036000830152613bc081613b84565b9050919050565b6000604082019050613bdc6000830185612925565b613be96020830184612925565b9392505050565b7f4552433732315061757361626c653a20746f6b656e207472616e73666572207760008201527f68696c6520706175736564000000000000000000000000000000000000000000602082015250565b6000613c4c602b836126ca565b9150613c5782613bf0565b604082019050919050565b60006020820190508181036000830152613c7b81613c3f565b9050919050565b6000613c8d8261277a565b91507fffffffffffffffffffffffffffffffffffffffffffffffffffffffffffffffff821415613cc057613cbf61364e565b5b600182019050919050565b7f4e487b7100000000000000000000000000000000000000000000000000000000600052601260045260246000fd5b6000613d058261277a565b9150613d108361277a565b925082613d2057613d1f613ccb565b5b828204905092915050565b6000613d368261277a565b9150613d418361277a565b925082613d5157613d50613ccb565b5b828206905092915050565b7f4e487b7100000000000000000000000000000000000000000000000000000000600052603260045260246000fd5b7f4552433732313a206d696e7420746f20746865207a65726f2061646472657373600082015250565b6000613dc16020836126ca565b9150613dcc82613d8b565b602082019050919050565b60006020820190508181036000830152613df081613db4565b9050919050565b7f4552433732313a20746f6b656e20616c7265616479206d696e74656400000000600082015250565b6000613e2d601c836126ca565b9150613e3882613df7565b602082019050919050565b60006020820190508181036000830152613e5c81613e20565b905091905056fea26469706673582212209fc113daa144adf7f04414c841732b5bd4d86b5f165504b2f04bd57ab1f69e4664736f6c63430008090033",
  "immutableReferences": {},
  "source": "// SPDX-License-Identifier: MIT\npragma solidity ^0.8.0;\n\nimport \"@openzeppelin/contracts/access/Ownable.sol\";\nimport \"@openzeppelin/contracts/token/ERC20/IERC20.sol\";\nimport \"@openzeppelin/contracts/token/ERC721/ERC721.sol\";\nimport \"@openzeppelin/contracts/token/ERC721/extensions/ERC721Burnable.sol\";\nimport \"@openzeppelin/contracts/token/ERC721/extensions/ERC721Pausable.sol\";\nimport \"@openzeppelin/contracts/token/ERC721/extensions/ERC721URIStorage.sol\";\nimport \"@openzeppelin/contracts/utils/Counters.sol\";\n\n//  a NFT secure document \ncontract XDVNFT is ERC721Burnable, ERC721Pausable, ERC721URIStorage, Ownable {\n    using Counters for Counters.Counter;\n    Counters.Counter private _tokenIds;\n    IERC20 public stablecoin;\n    uint256 public serviceFeeForPaymentAddress = 0;\n    uint256 public serviceFeeForContract = 0;\n\n    event Withdrawn(address indexed paymentAddress, uint256 amount);\n\n    event ServiceFeePaid(\n        address indexed from,\n        uint256 paidToContract,\n        uint256 paidToPaymentAddress\n    );\n\n    /**\n     * XDVNFT Data Token\n     */\n    constructor(\n        string memory name,\n        string memory symbol,\n        address tokenERC20\n    ) ERC721(name, symbol) {\n        stablecoin = IERC20(tokenERC20);\n    }\n\n    function setServiceFeeForPaymentAddress(uint256 _fee) public onlyOwner {\n        serviceFeeForPaymentAddress = _fee;\n    }\n\n    function setServiceFeeForContract(uint256 _fee) public onlyOwner {\n        serviceFeeForContract = _fee;\n    }\n\n    /**\n     * @dev Mints a XDV Data Token\n     */\n    function mint(address user, string memory uri) public returns (uint256) {\n        _tokenIds.increment();\n\n        uint256 newItemId = _tokenIds.current();\n        _safeMint(user, newItemId);\n        _setTokenURI(newItemId, uri);\n\n        return newItemId;\n    }\n\n    /**\n     * @dev Just overrides the superclass' function. Fixes inheritance\n     * source: https://forum.openzeppelin.com/t/how-do-inherit-from-erc721-erc721enumerable-and-erc721uristorage-in-v4-of-openzeppelin-contracts/6656/4\n     */\n    function _burn(uint256 tokenId)\n        internal\n        override(ERC721, ERC721URIStorage)\n    {\n        super._burn(tokenId);\n    }\n\n    /**\n     * @dev Just overrides the superclass' function. Fixes inheritance\n     * source: https://forum.openzeppelin.com/t/how-do-inherit-from-erc721-erc721enumerable-and-erc721uristorage-in-v4-of-openzeppelin-contracts/6656/4\n     */\n    function tokenURI(uint256 tokenId)\n        public\n        view\n        override(ERC721, ERC721URIStorage)\n        returns (string memory)\n    {\n        return super.tokenURI(tokenId);\n    }\n\n    function _beforeTokenTransfer(\n        address from,\n        address to,\n        uint256 tokenId\n    ) internal virtual override(ERC721, ERC721Pausable) {\n        require(!paused(), \"XDV: Token execution is paused\");\n\n        if (from == address(0)) {\n            paymentBeforeMint(msg.sender);\n        }\n\n        super._beforeTokenTransfer(from, to, tokenId);\n    }\n\n    /**\n     * @dev tries to execute the payment when the token is minted.\n     * Reverts if the payment procedure could not be completed.\n     */\n    function paymentBeforeMint(address tokenHolder) internal virtual {\n\n        // Transfer tokens to pay service fee\n        require(\n            stablecoin.transferFrom(\n                tokenHolder,\n                address(this),\n                serviceFeeForContract\n            ),\n            \"XDV: Transfer failed for recipient\"\n        );\n\n        emit ServiceFeePaid(\n            tokenHolder,\n            serviceFeeForContract,\n            serviceFeeForPaymentAddress\n        );\n    }\n\n    function withdrawBalance(address payable payee) public onlyOwner {\n        uint256 balance = stablecoin.balanceOf(address(this));\n\n        require(\n            stablecoin.transfer(payee, balance),\n            \"XDV: Transfer failed\"\n        );\n\n        emit Withdrawn(payee, balance);\n    }\n}\n",
  "sourcePath": "/home/dallant/Code/xdv-document-signer-contracts/contracts/XDVNFT.sol",
  "compiler": {
    "name": "solc",
    "version": "0.8.9+commit.e5eed63a.Emscripten.clang"
  },
  "schemaVersion": "3.4.1",
  "updatedAt": "2021-10-04T14:41:20.394Z",
  "networkType": "ethereum",
  "devdoc": {
    "kind": "dev",
    "methods": {
      "approve(address,uint256)": {
        "details": "See {IERC721-approve}."
      },
      "balanceOf(address)": {
        "details": "See {IERC721-balanceOf}."
      },
      "burn(uint256)": {
        "details": "Burns `tokenId`. See {ERC721-_burn}. Requirements: - The caller must own `tokenId` or be an approved operator."
      },
      "getApproved(uint256)": {
        "details": "See {IERC721-getApproved}."
      },
      "isApprovedForAll(address,address)": {
        "details": "See {IERC721-isApprovedForAll}."
      },
      "mint(address,string)": {
        "details": "Mints a XDV Data Token"
      },
      "name()": {
        "details": "See {IERC721Metadata-name}."
      },
      "owner()": {
        "details": "Returns the address of the current owner."
      },
      "ownerOf(uint256)": {
        "details": "See {IERC721-ownerOf}."
      },
      "paused()": {
        "details": "Returns true if the contract is paused, and false otherwise."
      },
      "renounceOwnership()": {
        "details": "Leaves the contract without owner. It will not be possible to call `onlyOwner` functions anymore. Can only be called by the current owner. NOTE: Renouncing ownership will leave the contract without an owner, thereby removing any functionality that is only available to the owner."
      },
      "safeTransferFrom(address,address,uint256)": {
        "details": "See {IERC721-safeTransferFrom}."
      },
      "safeTransferFrom(address,address,uint256,bytes)": {
        "details": "See {IERC721-safeTransferFrom}."
      },
      "setApprovalForAll(address,bool)": {
        "details": "See {IERC721-setApprovalForAll}."
      },
      "supportsInterface(bytes4)": {
        "details": "See {IERC165-supportsInterface}."
      },
      "symbol()": {
        "details": "See {IERC721Metadata-symbol}."
      },
      "tokenURI(uint256)": {
        "details": "Just overrides the superclass' function. Fixes inheritance source: https://forum.openzeppelin.com/t/how-do-inherit-from-erc721-erc721enumerable-and-erc721uristorage-in-v4-of-openzeppelin-contracts/6656/4"
      },
      "transferFrom(address,address,uint256)": {
        "details": "See {IERC721-transferFrom}."
      },
      "transferOwnership(address)": {
        "details": "Transfers ownership of the contract to a new account (`newOwner`). Can only be called by the current owner."
      }
    },
    "version": 1
  },
  "userdoc": {
    "kind": "user",
    "methods": {
      "constructor": {
        "notice": "XDVNFT Data Token"
      }
    },
    "version": 1
  }
}