{
  "contractName": "XDVNFT",
  "abi": [
    {
      "inputs": [
        {
          "internalType": "string",
          "name": "name",
          "type": "string"
        },
        {
          "internalType": "string",
          "name": "symbol",
          "type": "string"
        },
        {
          "internalType": "address",
          "name": "tokenERC20",
          "type": "address"
        },
        {
          "internalType": "address",
          "name": "credentialAddr",
          "type": "address"
        }
      ],
      "stateMutability": "nonpayable",
      "type": "constructor"
    },
    {
      "anonymous": false,
      "inputs": [
        {
          "indexed": true,
          "internalType": "address",
          "name": "owner",
          "type": "address"
        },
        {
          "indexed": true,
          "internalType": "address",
          "name": "approved",
          "type": "address"
        },
        {
          "indexed": true,
          "internalType": "uint256",
          "name": "tokenId",
          "type": "uint256"
        }
      ],
      "name": "Approval",
      "type": "event"
    },
    {
      "anonymous": false,
      "inputs": [
        {
          "indexed": true,
          "internalType": "address",
          "name": "owner",
          "type": "address"
        },
        {
          "indexed": true,
          "internalType": "address",
          "name": "operator",
          "type": "address"
        },
        {
          "indexed": false,
          "internalType": "bool",
          "name": "approved",
          "type": "bool"
        }
      ],
      "name": "ApprovalForAll",
      "type": "event"
    },
    {
      "anonymous": false,
      "inputs": [
        {
          "indexed": true,
          "internalType": "address",
          "name": "previousOwner",
          "type": "address"
        },
        {
          "indexed": true,
          "internalType": "address",
          "name": "newOwner",
          "type": "address"
        }
      ],
      "name": "OwnershipTransferred",
      "type": "event"
    },
    {
      "anonymous": false,
      "inputs": [
        {
          "indexed": false,
          "internalType": "address",
          "name": "account",
          "type": "address"
        }
      ],
      "name": "Paused",
      "type": "event"
    },
    {
      "anonymous": false,
      "inputs": [
        {
          "indexed": true,
          "internalType": "address",
          "name": "from",
          "type": "address"
        },
        {
          "indexed": false,
          "internalType": "uint256",
          "name": "paidToContract",
          "type": "uint256"
        },
        {
          "indexed": false,
          "internalType": "uint256",
          "name": "paidToPaymentAddress",
          "type": "uint256"
        }
      ],
      "name": "ServiceFeePaid",
      "type": "event"
    },
    {
      "anonymous": false,
      "inputs": [
        {
          "indexed": true,
          "internalType": "address",
          "name": "from",
          "type": "address"
        },
        {
          "indexed": true,
          "internalType": "address",
          "name": "to",
          "type": "address"
        },
        {
          "indexed": true,
          "internalType": "uint256",
          "name": "tokenId",
          "type": "uint256"
        }
      ],
      "name": "Transfer",
      "type": "event"
    },
    {
      "anonymous": false,
      "inputs": [
        {
          "indexed": false,
          "internalType": "address",
          "name": "account",
          "type": "address"
        }
      ],
      "name": "Unpaused",
      "type": "event"
    },
    {
      "anonymous": false,
      "inputs": [
        {
          "indexed": true,
          "internalType": "address",
          "name": "paymentAddress",
          "type": "address"
        },
        {
          "indexed": false,
          "internalType": "uint256",
          "name": "amount",
          "type": "uint256"
        }
      ],
      "name": "Withdrawn",
      "type": "event"
    },
    {
      "anonymous": false,
      "inputs": [
        {
          "indexed": false,
          "internalType": "address",
          "name": "owner",
          "type": "address"
        },
        {
          "indexed": false,
          "internalType": "string",
          "name": "did",
          "type": "string"
        },
        {
          "indexed": false,
          "internalType": "string",
          "name": "name",
          "type": "string"
        },
        {
          "indexed": false,
          "internalType": "string",
          "name": "description",
          "type": "string"
        },
        {
          "indexed": false,
          "internalType": "string",
          "name": "image",
          "type": "string"
        },
        {
          "indexed": false,
          "internalType": "string",
          "name": "parent",
          "type": "string"
        },
        {
          "indexed": false,
          "internalType": "string",
          "name": "sources",
          "type": "string"
        },
        {
          "indexed": false,
          "internalType": "string",
          "name": "links",
          "type": "string"
        }
      ],
      "name": "_anconCreateMetadata",
      "type": "event"
    },
    {
      "inputs": [
        {
          "internalType": "address",
          "name": "to",
          "type": "address"
        },
        {
          "internalType": "uint256",
          "name": "tokenId",
          "type": "uint256"
        }
      ],
      "name": "approve",
      "outputs": [],
      "stateMutability": "nonpayable",
      "type": "function"
    },
    {
      "inputs": [
        {
          "internalType": "address",
          "name": "owner",
          "type": "address"
        }
      ],
      "name": "balanceOf",
      "outputs": [
        {
          "internalType": "uint256",
          "name": "",
          "type": "uint256"
        }
      ],
      "stateMutability": "view",
      "type": "function",
      "constant": true
    },
    {
      "inputs": [
        {
          "internalType": "uint256",
          "name": "tokenId",
          "type": "uint256"
        }
      ],
      "name": "burn",
      "outputs": [],
      "stateMutability": "nonpayable",
      "type": "function"
    },
    {
      "inputs": [],
      "name": "credentialRegistry",
      "outputs": [
        {
          "internalType": "contract ICredentialRegistry",
          "name": "",
          "type": "address"
        }
      ],
      "stateMutability": "view",
      "type": "function",
      "constant": true
    },
    {
      "inputs": [
        {
          "internalType": "uint256",
          "name": "tokenId",
          "type": "uint256"
        }
      ],
      "name": "getApproved",
      "outputs": [
        {
          "internalType": "address",
          "name": "",
          "type": "address"
        }
      ],
      "stateMutability": "view",
      "type": "function",
      "constant": true
    },
    {
      "inputs": [
        {
          "internalType": "address",
          "name": "owner",
          "type": "address"
        },
        {
          "internalType": "address",
          "name": "operator",
          "type": "address"
        }
      ],
      "name": "isApprovedForAll",
      "outputs": [
        {
          "internalType": "bool",
          "name": "",
          "type": "bool"
        }
      ],
      "stateMutability": "view",
      "type": "function",
      "constant": true
    },
    {
      "inputs": [],
      "name": "name",
      "outputs": [
        {
          "internalType": "string",
          "name": "",
          "type": "string"
        }
      ],
      "stateMutability": "view",
      "type": "function",
      "constant": true
    },
    {
      "inputs": [],
      "name": "owner",
      "outputs": [
        {
          "internalType": "address",
          "name": "",
          "type": "address"
        }
      ],
      "stateMutability": "view",
      "type": "function",
      "constant": true
    },
    {
      "inputs": [
        {
          "internalType": "uint256",
          "name": "tokenId",
          "type": "uint256"
        }
      ],
      "name": "ownerOf",
      "outputs": [
        {
          "internalType": "address",
          "name": "",
          "type": "address"
        }
      ],
      "stateMutability": "view",
      "type": "function",
      "constant": true
    },
    {
      "inputs": [],
      "name": "paused",
      "outputs": [
        {
          "internalType": "bool",
          "name": "",
          "type": "bool"
        }
      ],
      "stateMutability": "view",
      "type": "function",
      "constant": true
    },
    {
      "inputs": [],
      "name": "renounceOwnership",
      "outputs": [],
      "stateMutability": "nonpayable",
      "type": "function"
    },
    {
      "inputs": [
        {
          "internalType": "address",
          "name": "from",
          "type": "address"
        },
        {
          "internalType": "address",
          "name": "to",
          "type": "address"
        },
        {
          "internalType": "uint256",
          "name": "tokenId",
          "type": "uint256"
        }
      ],
      "name": "safeTransferFrom",
      "outputs": [],
      "stateMutability": "nonpayable",
      "type": "function"
    },
    {
      "inputs": [
        {
          "internalType": "address",
          "name": "from",
          "type": "address"
        },
        {
          "internalType": "address",
          "name": "to",
          "type": "address"
        },
        {
          "internalType": "uint256",
          "name": "tokenId",
          "type": "uint256"
        },
        {
          "internalType": "bytes",
          "name": "_data",
          "type": "bytes"
        }
      ],
      "name": "safeTransferFrom",
      "outputs": [],
      "stateMutability": "nonpayable",
      "type": "function"
    },
    {
      "inputs": [],
      "name": "serviceFeeForContract",
      "outputs": [
        {
          "internalType": "uint256",
          "name": "",
          "type": "uint256"
        }
      ],
      "stateMutability": "view",
      "type": "function",
      "constant": true
    },
    {
      "inputs": [],
      "name": "serviceFeeForPaymentAddress",
      "outputs": [
        {
          "internalType": "uint256",
          "name": "",
          "type": "uint256"
        }
      ],
      "stateMutability": "view",
      "type": "function",
      "constant": true
    },
    {
      "inputs": [
        {
          "internalType": "address",
          "name": "operator",
          "type": "address"
        },
        {
          "internalType": "bool",
          "name": "approved",
          "type": "bool"
        }
      ],
      "name": "setApprovalForAll",
      "outputs": [],
      "stateMutability": "nonpayable",
      "type": "function"
    },
    {
      "inputs": [],
      "name": "stablecoin",
      "outputs": [
        {
          "internalType": "contract IERC20",
          "name": "",
          "type": "address"
        }
      ],
      "stateMutability": "view",
      "type": "function",
      "constant": true
    },
    {
      "inputs": [
        {
          "internalType": "bytes4",
          "name": "interfaceId",
          "type": "bytes4"
        }
      ],
      "name": "supportsInterface",
      "outputs": [
        {
          "internalType": "bool",
          "name": "",
          "type": "bool"
        }
      ],
      "stateMutability": "view",
      "type": "function",
      "constant": true
    },
    {
      "inputs": [],
      "name": "symbol",
      "outputs": [
        {
          "internalType": "string",
          "name": "",
          "type": "string"
        }
      ],
      "stateMutability": "view",
      "type": "function",
      "constant": true
    },
    {
      "inputs": [
        {
          "internalType": "address",
          "name": "from",
          "type": "address"
        },
        {
          "internalType": "address",
          "name": "to",
          "type": "address"
        },
        {
          "internalType": "uint256",
          "name": "tokenId",
          "type": "uint256"
        }
      ],
      "name": "transferFrom",
      "outputs": [],
      "stateMutability": "nonpayable",
      "type": "function"
    },
    {
      "inputs": [
        {
          "internalType": "address",
          "name": "newOwner",
          "type": "address"
        }
      ],
      "name": "transferOwnership",
      "outputs": [],
      "stateMutability": "nonpayable",
      "type": "function"
    },
    {
      "inputs": [
        {
          "internalType": "uint256",
          "name": "_fee",
          "type": "uint256"
        }
      ],
      "name": "setServiceFeeForPaymentAddress",
      "outputs": [],
      "stateMutability": "nonpayable",
      "type": "function"
    },
    {
      "inputs": [
        {
          "internalType": "uint256",
          "name": "_fee",
          "type": "uint256"
        }
      ],
      "name": "setServiceFeeForContract",
      "outputs": [],
      "stateMutability": "nonpayable",
      "type": "function"
    },
    {
      "inputs": [
        {
          "internalType": "address",
          "name": "user",
          "type": "address"
        },
        {
          "internalType": "string",
          "name": "uri",
          "type": "string"
        }
      ],
      "name": "mint",
      "outputs": [
        {
          "internalType": "uint256",
          "name": "",
          "type": "uint256"
        }
      ],
      "stateMutability": "nonpayable",
      "type": "function"
    },
    {
      "inputs": [
        {
          "internalType": "address",
          "name": "user",
          "type": "address"
        },
        {
          "internalType": "uint256",
          "name": "chainid",
          "type": "uint256"
        },
        {
          "internalType": "bytes32",
          "name": "credentialHash",
          "type": "bytes32"
        },
        {
          "internalType": "bytes",
          "name": "signature",
          "type": "bytes"
        },
        {
          "internalType": "string",
          "name": "did",
          "type": "string"
        },
        {
          "internalType": "string",
          "name": "name",
          "type": "string"
        },
        {
          "internalType": "string",
          "name": "description",
          "type": "string"
        },
        {
          "internalType": "string",
          "name": "image",
          "type": "string"
        },
        {
          "internalType": "string",
          "name": "parent",
          "type": "string"
        },
        {
          "internalType": "string",
          "name": "sources",
          "type": "string"
        },
        {
          "internalType": "string",
          "name": "links",
          "type": "string"
        }
      ],
      "name": "swap",
      "outputs": [
        {
          "internalType": "bool",
          "name": "",
          "type": "bool"
        }
      ],
      "stateMutability": "nonpayable",
      "type": "function"
    },
    {
      "inputs": [
        {
          "internalType": "uint256",
          "name": "tokenId",
          "type": "uint256"
        }
      ],
      "name": "tokenURI",
      "outputs": [
        {
          "internalType": "string",
          "name": "",
          "type": "string"
        }
      ],
      "stateMutability": "view",
      "type": "function",
      "constant": true
    },
    {
      "inputs": [
        {
          "internalType": "address payable",
          "name": "payee",
          "type": "address"
        }
      ],
      "name": "withdrawBalance",
      "outputs": [],
      "stateMutability": "nonpayable",
      "type": "function"
    }
  ],
  "bytecode": "0x60806040526000600c556000600d553480156200001b57600080fd5b506040516200497d3803806200497d833981810160405281019062000041919062000489565b838381600090805190602001906200005b929190620001d7565b50806001908051906020019062000074929190620001d7565b5050506000600660006101000a81548160ff0219169083151502179055506000620000a4620001cf60201b60201c565b905080600860006101000a81548173ffffffffffffffffffffffffffffffffffffffff021916908373ffffffffffffffffffffffffffffffffffffffff1602179055508073ffffffffffffffffffffffffffffffffffffffff16600073ffffffffffffffffffffffffffffffffffffffff167f8be0079c531659141344cd1fd0a4f28419497f9722a3daafe3b4186f6b6457e060405160405180910390a35081600a60006101000a81548173ffffffffffffffffffffffffffffffffffffffff021916908373ffffffffffffffffffffffffffffffffffffffff16021790555080600b60006101000a81548173ffffffffffffffffffffffffffffffffffffffff021916908373ffffffffffffffffffffffffffffffffffffffff160217905550505050506200059e565b600033905090565b828054620001e59062000568565b90600052602060002090601f01602090048101928262000209576000855562000255565b82601f106200022457805160ff191683800117855562000255565b8280016001018555821562000255579182015b828111156200025457825182559160200191906001019062000237565b5b50905062000264919062000268565b5090565b5b808211156200028357600081600090555060010162000269565b5090565b6000604051905090565b600080fd5b600080fd5b600080fd5b600080fd5b6000601f19601f8301169050919050565b7f4e487b7100000000000000000000000000000000000000000000000000000000600052604160045260246000fd5b620002f082620002a5565b810181811067ffffffffffffffff82111715620003125762000311620002b6565b5b80604052505050565b60006200032762000287565b9050620003358282620002e5565b919050565b600067ffffffffffffffff821115620003585762000357620002b6565b5b6200036382620002a5565b9050602081019050919050565b60005b838110156200039057808201518184015260208101905062000373565b83811115620003a0576000848401525b50505050565b6000620003bd620003b7846200033a565b6200031b565b905082815260208101848484011115620003dc57620003db620002a0565b5b620003e984828562000370565b509392505050565b600082601f8301126200040957620004086200029b565b5b81516200041b848260208601620003a6565b91505092915050565b600073ffffffffffffffffffffffffffffffffffffffff82169050919050565b6000620004518262000424565b9050919050565b620004638162000444565b81146200046f57600080fd5b50565b600081519050620004838162000458565b92915050565b60008060008060808587031215620004a657620004a562000291565b5b600085015167ffffffffffffffff811115620004c757620004c662000296565b5b620004d587828801620003f1565b945050602085015167ffffffffffffffff811115620004f957620004f862000296565b5b6200050787828801620003f1565b93505060406200051a8782880162000472565b92505060606200052d8782880162000472565b91505092959194509250565b7f4e487b7100000000000000000000000000000000000000000000000000000000600052602260045260246000fd5b600060028204905060018216806200058157607f821691505b6020821081141562000598576200059762000539565b5b50919050565b6143cf80620005ae6000396000f3fe608060405234801561001057600080fd5b50600436106101a95760003560e01c8063756af45f116100f9578063c014b9da11610097578063e53ae10211610071578063e53ae102146104b8578063e985e9c5146104d6578063e9cbd82214610506578063f2fde38b14610524576101a9565b8063c014b9da1461043a578063c87b56dd14610458578063d0def52114610488576101a9565b8063a22cb465116100d3578063a22cb465146103c8578063b86be2ca146103e4578063b88d4fde14610400578063b948c3d41461041c576101a9565b8063756af45f146103705780638da5cb5b1461038c57806395d89b41146103aa576101a9565b806342842e0e116101665780635c975abb116101405780635c975abb146102e85780636352211e1461030657806370a0823114610336578063715018a614610366576101a9565b806342842e0e1461028057806342966c681461029c57806344755831146102b8576101a9565b806301ffc9a7146101ae57806306fdde03146101de578063081812fc146101fc578063095ea7b31461022c57806323b872dd146102485780632c078e8d14610264575b600080fd5b6101c860048036038101906101c39190612826565b610540565b6040516101d5919061286e565b60405180910390f35b6101e6610622565b6040516101f39190612922565b60405180910390f35b6102166004803603810190610211919061297a565b6106b4565b60405161022391906129e8565b60405180910390f35b61024660048036038101906102419190612a2f565b610739565b005b610262600480360381019061025d9190612a6f565b610851565b005b61027e6004803603810190610279919061297a565b6108b1565b005b61029a60048036038101906102959190612a6f565b610937565b005b6102b660048036038101906102b1919061297a565b610957565b005b6102d260048036038101906102cd9190612cce565b6109b3565b6040516102df919061286e565b60405180910390f35b6102f0610ad3565b6040516102fd919061286e565b60405180910390f35b610320600480360381019061031b919061297a565b610aea565b60405161032d91906129e8565b60405180910390f35b610350600480360381019061034b9190612ea2565b610b9c565b60405161035d9190612ede565b60405180910390f35b61036e610c54565b005b61038a60048036038101906103859190612f37565b610d91565b005b610394610ffc565b6040516103a191906129e8565b60405180910390f35b6103b2611026565b6040516103bf9190612922565b60405180910390f35b6103e260048036038101906103dd9190612f90565b6110b8565b005b6103fe60048036038101906103f9919061297a565b611239565b005b61041a60048036038101906104159190612fd0565b6112bf565b005b610424611321565b60405161043191906130b2565b60405180910390f35b610442611347565b60405161044f9190612ede565b60405180910390f35b610472600480360381019061046d919061297a565b61134d565b60405161047f9190612922565b60405180910390f35b6104a2600480360381019061049d91906130cd565b61135f565b6040516104af9190612ede565b60405180910390f35b6104c0611397565b6040516104cd9190612ede565b60405180910390f35b6104f060048036038101906104eb9190613129565b61139d565b6040516104fd919061286e565b60405180910390f35b61050e611431565b60405161051b919061318a565b60405180910390f35b61053e60048036038101906105399190612ea2565b611457565b005b60007f80ac58cd000000000000000000000000000000000000000000000000000000007bffffffffffffffffffffffffffffffffffffffffffffffffffffffff1916827bffffffffffffffffffffffffffffffffffffffffffffffffffffffff1916148061060b57507f5b5e139f000000000000000000000000000000000000000000000000000000007bffffffffffffffffffffffffffffffffffffffffffffffffffffffff1916827bffffffffffffffffffffffffffffffffffffffffffffffffffffffff1916145b8061061b575061061a82611603565b5b9050919050565b606060008054610631906131d4565b80601f016020809104026020016040519081016040528092919081815260200182805461065d906131d4565b80156106aa5780601f1061067f576101008083540402835291602001916106aa565b820191906000526020600020905b81548152906001019060200180831161068d57829003601f168201915b5050505050905090565b60006106bf8261166d565b6106fe576040517f08c379a00000000000000000000000000000000000000000000000000000000081526004016106f590613278565b60405180910390fd5b6004600083815260200190815260200160002060009054906101000a900473ffffffffffffffffffffffffffffffffffffffff169050919050565b600061074482610aea565b90508073ffffffffffffffffffffffffffffffffffffffff168373ffffffffffffffffffffffffffffffffffffffff1614156107b5576040517f08c379a00000000000000000000000000000000000000000000000000000000081526004016107ac9061330a565b60405180910390fd5b8073ffffffffffffffffffffffffffffffffffffffff166107d46116d9565b73ffffffffffffffffffffffffffffffffffffffff1614806108035750610802816107fd6116d9565b61139d565b5b610842576040517f08c379a00000000000000000000000000000000000000000000000000000000081526004016108399061339c565b60405180910390fd5b61084c83836116e1565b505050565b61086261085c6116d9565b8261179a565b6108a1576040517f08c379a00000000000000000000000000000000000000000000000000000000081526004016108989061342e565b60405180910390fd5b6108ac838383611878565b505050565b6108b96116d9565b73ffffffffffffffffffffffffffffffffffffffff166108d7610ffc565b73ffffffffffffffffffffffffffffffffffffffff161461092d576040517f08c379a00000000000000000000000000000000000000000000000000000000081526004016109249061349a565b60405180910390fd5b80600d8190555050565b610952838383604051806020016040528060008152506112bf565b505050565b6109686109626116d9565b8261179a565b6109a7576040517f08c379a000000000000000000000000000000000000000000000000000000000815260040161099e9061352c565b60405180910390fd5b6109b081611ad4565b50565b6000600b60009054906101000a900473ffffffffffffffffffffffffffffffffffffffff1673ffffffffffffffffffffffffffffffffffffffff166375130747338e8d426202a30042610a06919061357b565b8f6040518763ffffffff1660e01b8152600401610a2896959493929190613635565b602060405180830381600087803b158015610a4257600080fd5b505af1158015610a56573d6000803e3d6000fd5b505050506040513d601f19601f82011682018060405250810190610a7a91906136b2565b507fa03d9c56c50c3d67209105659032e5df9103605d6976429896d90ab8d6747c6e8c89898989898989604051610ab89897969594939291906136df565b60405180910390a1600190509b9a5050505050505050505050565b6000600660009054906101000a900460ff16905090565b6000806002600084815260200190815260200160002060009054906101000a900473ffffffffffffffffffffffffffffffffffffffff169050600073ffffffffffffffffffffffffffffffffffffffff168173ffffffffffffffffffffffffffffffffffffffff161415610b93576040517f08c379a0000000000000000000000000000000000000000000000000000000008152600401610b8a90613800565b60405180910390fd5b80915050919050565b60008073ffffffffffffffffffffffffffffffffffffffff168273ffffffffffffffffffffffffffffffffffffffff161415610c0d576040517f08c379a0000000000000000000000000000000000000000000000000000000008152600401610c0490613892565b60405180910390fd5b600360008373ffffffffffffffffffffffffffffffffffffffff1673ffffffffffffffffffffffffffffffffffffffff168152602001908152602001600020549050919050565b610c5c6116d9565b73ffffffffffffffffffffffffffffffffffffffff16610c7a610ffc565b73ffffffffffffffffffffffffffffffffffffffff1614610cd0576040517f08c379a0000000000000000000000000000000000000000000000000000000008152600401610cc79061349a565b60405180910390fd5b600073ffffffffffffffffffffffffffffffffffffffff16600860009054906101000a900473ffffffffffffffffffffffffffffffffffffffff1673ffffffffffffffffffffffffffffffffffffffff167f8be0079c531659141344cd1fd0a4f28419497f9722a3daafe3b4186f6b6457e060405160405180910390a36000600860006101000a81548173ffffffffffffffffffffffffffffffffffffffff021916908373ffffffffffffffffffffffffffffffffffffffff160217905550565b610d996116d9565b73ffffffffffffffffffffffffffffffffffffffff16610db7610ffc565b73ffffffffffffffffffffffffffffffffffffffff1614610e0d576040517f08c379a0000000000000000000000000000000000000000000000000000000008152600401610e049061349a565b60405180910390fd5b6000600a60009054906101000a900473ffffffffffffffffffffffffffffffffffffffff1673ffffffffffffffffffffffffffffffffffffffff166370a08231306040518263ffffffff1660e01b8152600401610e6a91906129e8565b60206040518083038186803b158015610e8257600080fd5b505afa158015610e96573d6000803e3d6000fd5b505050506040513d601f19601f82011682018060405250810190610eba91906138c7565b9050600a60009054906101000a900473ffffffffffffffffffffffffffffffffffffffff1673ffffffffffffffffffffffffffffffffffffffff1663a9059cbb83836040518363ffffffff1660e01b8152600401610f19929190613915565b602060405180830381600087803b158015610f3357600080fd5b505af1158015610f47573d6000803e3d6000fd5b505050506040513d601f19601f82011682018060405250810190610f6b91906136b2565b610faa576040517f08c379a0000000000000000000000000000000000000000000000000000000008152600401610fa19061398a565b60405180910390fd5b8173ffffffffffffffffffffffffffffffffffffffff167f7084f5476618d8e60b11ef0d7d3f06914655adb8793e28ff7f018d4c76d505d582604051610ff09190612ede565b60405180910390a25050565b6000600860009054906101000a900473ffffffffffffffffffffffffffffffffffffffff16905090565b606060018054611035906131d4565b80601f0160208091040260200160405190810160405280929190818152602001828054611061906131d4565b80156110ae5780601f10611083576101008083540402835291602001916110ae565b820191906000526020600020905b81548152906001019060200180831161109157829003601f168201915b5050505050905090565b6110c06116d9565b73ffffffffffffffffffffffffffffffffffffffff168273ffffffffffffffffffffffffffffffffffffffff16141561112e576040517f08c379a0000000000000000000000000000000000000000000000000000000008152600401611125906139f6565b60405180910390fd5b806005600061113b6116d9565b73ffffffffffffffffffffffffffffffffffffffff1673ffffffffffffffffffffffffffffffffffffffff16815260200190815260200160002060008473ffffffffffffffffffffffffffffffffffffffff1673ffffffffffffffffffffffffffffffffffffffff16815260200190815260200160002060006101000a81548160ff0219169083151502179055508173ffffffffffffffffffffffffffffffffffffffff166111e86116d9565b73ffffffffffffffffffffffffffffffffffffffff167f17307eab39ab6107e8899845ad3d59bd9653f200f220920489ca2b5937696c318360405161122d919061286e565b60405180910390a35050565b6112416116d9565b73ffffffffffffffffffffffffffffffffffffffff1661125f610ffc565b73ffffffffffffffffffffffffffffffffffffffff16146112b5576040517f08c379a00000000000000000000000000000000000000000000000000000000081526004016112ac9061349a565b60405180910390fd5b80600c8190555050565b6112d06112ca6116d9565b8361179a565b61130f576040517f08c379a00000000000000000000000000000000000000000000000000000000081526004016113069061342e565b60405180910390fd5b61131b84848484611ae0565b50505050565b600b60009054906101000a900473ffffffffffffffffffffffffffffffffffffffff1681565b600c5481565b606061135882611b3c565b9050919050565b600061136b6009611c8e565b60006113776009611ca4565b90506113838482611cb2565b61138d8184611cd0565b8091505092915050565b600d5481565b6000600560008473ffffffffffffffffffffffffffffffffffffffff1673ffffffffffffffffffffffffffffffffffffffff16815260200190815260200160002060008373ffffffffffffffffffffffffffffffffffffffff1673ffffffffffffffffffffffffffffffffffffffff16815260200190815260200160002060009054906101000a900460ff16905092915050565b600a60009054906101000a900473ffffffffffffffffffffffffffffffffffffffff1681565b61145f6116d9565b73ffffffffffffffffffffffffffffffffffffffff1661147d610ffc565b73ffffffffffffffffffffffffffffffffffffffff16146114d3576040517f08c379a00000000000000000000000000000000000000000000000000000000081526004016114ca9061349a565b60405180910390fd5b600073ffffffffffffffffffffffffffffffffffffffff168173ffffffffffffffffffffffffffffffffffffffff161415611543576040517f08c379a000000000000000000000000000000000000000000000000000000000815260040161153a90613a88565b60405180910390fd5b8073ffffffffffffffffffffffffffffffffffffffff16600860009054906101000a900473ffffffffffffffffffffffffffffffffffffffff1673ffffffffffffffffffffffffffffffffffffffff167f8be0079c531659141344cd1fd0a4f28419497f9722a3daafe3b4186f6b6457e060405160405180910390a380600860006101000a81548173ffffffffffffffffffffffffffffffffffffffff021916908373ffffffffffffffffffffffffffffffffffffffff16021790555050565b60007f01ffc9a7000000000000000000000000000000000000000000000000000000007bffffffffffffffffffffffffffffffffffffffffffffffffffffffff1916827bffffffffffffffffffffffffffffffffffffffffffffffffffffffff1916149050919050565b60008073ffffffffffffffffffffffffffffffffffffffff166002600084815260200190815260200160002060009054906101000a900473ffffffffffffffffffffffffffffffffffffffff1673ffffffffffffffffffffffffffffffffffffffff1614159050919050565b600033905090565b816004600083815260200190815260200160002060006101000a81548173ffffffffffffffffffffffffffffffffffffffff021916908373ffffffffffffffffffffffffffffffffffffffff160217905550808273ffffffffffffffffffffffffffffffffffffffff1661175483610aea565b73ffffffffffffffffffffffffffffffffffffffff167f8c5be1e5ebec7d5bd14f71427d1e84f3dd0314c0f7b2291e5b200ac8c7c3b92560405160405180910390a45050565b60006117a58261166d565b6117e4576040517f08c379a00000000000000000000000000000000000000000000000000000000081526004016117db90613b1a565b60405180910390fd5b60006117ef83610aea565b90508073ffffffffffffffffffffffffffffffffffffffff168473ffffffffffffffffffffffffffffffffffffffff16148061185e57508373ffffffffffffffffffffffffffffffffffffffff16611846846106b4565b73ffffffffffffffffffffffffffffffffffffffff16145b8061186f575061186e818561139d565b5b91505092915050565b8273ffffffffffffffffffffffffffffffffffffffff1661189882610aea565b73ffffffffffffffffffffffffffffffffffffffff16146118ee576040517f08c379a00000000000000000000000000000000000000000000000000000000081526004016118e590613bac565b60405180910390fd5b600073ffffffffffffffffffffffffffffffffffffffff168273ffffffffffffffffffffffffffffffffffffffff16141561195e576040517f08c379a000000000000000000000000000000000000000000000000000000000815260040161195590613c3e565b60405180910390fd5b611969838383611d44565b6119746000826116e1565b6001600360008573ffffffffffffffffffffffffffffffffffffffff1673ffffffffffffffffffffffffffffffffffffffff16815260200190815260200160002060008282546119c49190613c5e565b925050819055506001600360008473ffffffffffffffffffffffffffffffffffffffff1673ffffffffffffffffffffffffffffffffffffffff1681526020019081526020016000206000828254611a1b919061357b565b92505081905550816002600083815260200190815260200160002060006101000a81548173ffffffffffffffffffffffffffffffffffffffff021916908373ffffffffffffffffffffffffffffffffffffffff160217905550808273ffffffffffffffffffffffffffffffffffffffff168473ffffffffffffffffffffffffffffffffffffffff167fddf252ad1be2c89b69c2b068fc378daa952ba7f163c4a11628f55a4df523b3ef60405160405180910390a4505050565b611add81611ddb565b50565b611aeb848484611878565b611af784848484611e2e565b611b36576040517f08c379a0000000000000000000000000000000000000000000000000000000008152600401611b2d90613d04565b60405180910390fd5b50505050565b6060611b478261166d565b611b86576040517f08c379a0000000000000000000000000000000000000000000000000000000008152600401611b7d90613d96565b60405180910390fd5b6000600760008481526020019081526020016000208054611ba6906131d4565b80601f0160208091040260200160405190810160405280929190818152602001828054611bd2906131d4565b8015611c1f5780601f10611bf457610100808354040283529160200191611c1f565b820191906000526020600020905b815481529060010190602001808311611c0257829003601f168201915b505050505090506000611c30611fc5565b9050600081511415611c46578192505050611c89565b600082511115611c7b578082604051602001611c63929190613df2565b60405160208183030381529060405292505050611c89565b611c8484611fdc565b925050505b919050565b6001816000016000828254019250508190555050565b600081600001549050919050565b611ccc828260405180602001604052806000815250612083565b5050565b611cd98261166d565b611d18576040517f08c379a0000000000000000000000000000000000000000000000000000000008152600401611d0f90613e88565b60405180910390fd5b80600760008481526020019081526020016000209080519060200190611d3f9291906126d7565b505050565b611d4c610ad3565b15611d8c576040517f08c379a0000000000000000000000000000000000000000000000000000000008152600401611d8390613ef4565b60405180910390fd5b600073ffffffffffffffffffffffffffffffffffffffff168373ffffffffffffffffffffffffffffffffffffffff161415611dcb57611dca336120de565b5b611dd6838383612227565b505050565b611de48161227f565b6000600760008381526020019081526020016000208054611e04906131d4565b905014611e2b57600760008281526020019081526020016000206000611e2a919061275d565b5b50565b6000611e4f8473ffffffffffffffffffffffffffffffffffffffff16612390565b15611fb8578373ffffffffffffffffffffffffffffffffffffffff1663150b7a02611e786116d9565b8786866040518563ffffffff1660e01b8152600401611e9a9493929190613f14565b602060405180830381600087803b158015611eb457600080fd5b505af1925050508015611ee557506040513d601f19601f82011682018060405250810190611ee29190613f75565b60015b611f68573d8060008114611f15576040519150601f19603f3d011682016040523d82523d6000602084013e611f1a565b606091505b50600081511415611f60576040517f08c379a0000000000000000000000000000000000000000000000000000000008152600401611f5790613d04565b60405180910390fd5b805181602001fd5b63150b7a0260e01b7bffffffffffffffffffffffffffffffffffffffffffffffffffffffff1916817bffffffffffffffffffffffffffffffffffffffffffffffffffffffff191614915050611fbd565b600190505b949350505050565b606060405180602001604052806000815250905090565b6060611fe78261166d565b612026576040517f08c379a000000000000000000000000000000000000000000000000000000000815260040161201d90614014565b60405180910390fd5b6000612030611fc5565b90506000815111612050576040518060200160405280600081525061207b565b8061205a846123a3565b60405160200161206b929190613df2565b6040516020818303038152906040525b915050919050565b61208d8383612504565b61209a6000848484611e2e565b6120d9576040517f08c379a00000000000000000000000000000000000000000000000000000000081526004016120d090613d04565b60405180910390fd5b505050565b600a60009054906101000a900473ffffffffffffffffffffffffffffffffffffffff1673ffffffffffffffffffffffffffffffffffffffff166323b872dd8230600d546040518463ffffffff1660e01b815260040161213f93929190614034565b602060405180830381600087803b15801561215957600080fd5b505af115801561216d573d6000803e3d6000fd5b505050506040513d601f19601f8201168201806040525081019061219191906136b2565b6121d0576040517f08c379a00000000000000000000000000000000000000000000000000000000081526004016121c7906140dd565b60405180910390fd5b8073ffffffffffffffffffffffffffffffffffffffff167fff781da90c6b849a72bafc99aedde3dff0b039f697f31c21e96d587accee2760600d54600c5460405161221c9291906140fd565b60405180910390a250565b6122328383836126d2565b61223a610ad3565b1561227a576040517f08c379a000000000000000000000000000000000000000000000000000000000815260040161227190614198565b60405180910390fd5b505050565b600061228a82610aea565b905061229881600084611d44565b6122a36000836116e1565b6001600360008373ffffffffffffffffffffffffffffffffffffffff1673ffffffffffffffffffffffffffffffffffffffff16815260200190815260200160002060008282546122f39190613c5e565b925050819055506002600083815260200190815260200160002060006101000a81549073ffffffffffffffffffffffffffffffffffffffff021916905581600073ffffffffffffffffffffffffffffffffffffffff168273ffffffffffffffffffffffffffffffffffffffff167fddf252ad1be2c89b69c2b068fc378daa952ba7f163c4a11628f55a4df523b3ef60405160405180910390a45050565b600080823b905060008111915050919050565b606060008214156123eb576040518060400160405280600181526020017f300000000000000000000000000000000000000000000000000000000000000081525090506124ff565b600082905060005b6000821461241d578080612406906141b8565b915050600a826124169190614230565b91506123f3565b60008167ffffffffffffffff81111561243957612438612b02565b5b6040519080825280601f01601f19166020018201604052801561246b5781602001600182028036833780820191505090505b5090505b600085146124f8576001826124849190613c5e565b9150600a856124939190614261565b603061249f919061357b565b60f81b8183815181106124b5576124b4614292565b5b60200101907effffffffffffffffffffffffffffffffffffffffffffffffffffffffffffff1916908160001a905350600a856124f19190614230565b945061246f565b8093505050505b919050565b600073ffffffffffffffffffffffffffffffffffffffff168273ffffffffffffffffffffffffffffffffffffffff161415612574576040517f08c379a000000000000000000000000000000000000000000000000000000000815260040161256b9061430d565b60405180910390fd5b61257d8161166d565b156125bd576040517f08c379a00000000000000000000000000000000000000000000000000000000081526004016125b490614379565b60405180910390fd5b6125c960008383611d44565b6001600360008473ffffffffffffffffffffffffffffffffffffffff1673ffffffffffffffffffffffffffffffffffffffff1681526020019081526020016000206000828254612619919061357b565b92505081905550816002600083815260200190815260200160002060006101000a81548173ffffffffffffffffffffffffffffffffffffffff021916908373ffffffffffffffffffffffffffffffffffffffff160217905550808273ffffffffffffffffffffffffffffffffffffffff16600073ffffffffffffffffffffffffffffffffffffffff167fddf252ad1be2c89b69c2b068fc378daa952ba7f163c4a11628f55a4df523b3ef60405160405180910390a45050565b505050565b8280546126e3906131d4565b90600052602060002090601f016020900481019282612705576000855561274c565b82601f1061271e57805160ff191683800117855561274c565b8280016001018555821561274c579182015b8281111561274b578251825591602001919060010190612730565b5b509050612759919061279d565b5090565b508054612769906131d4565b6000825580601f1061277b575061279a565b601f016020900490600052602060002090810190612799919061279d565b5b50565b5b808211156127b657600081600090555060010161279e565b5090565b6000604051905090565b600080fd5b600080fd5b60007fffffffff0000000000000000000000000000000000000000000000000000000082169050919050565b612803816127ce565b811461280e57600080fd5b50565b600081359050612820816127fa565b92915050565b60006020828403121561283c5761283b6127c4565b5b600061284a84828501612811565b91505092915050565b60008115159050919050565b61286881612853565b82525050565b6000602082019050612883600083018461285f565b92915050565b600081519050919050565b600082825260208201905092915050565b60005b838110156128c35780820151818401526020810190506128a8565b838111156128d2576000848401525b50505050565b6000601f19601f8301169050919050565b60006128f482612889565b6128fe8185612894565b935061290e8185602086016128a5565b612917816128d8565b840191505092915050565b6000602082019050818103600083015261293c81846128e9565b905092915050565b6000819050919050565b61295781612944565b811461296257600080fd5b50565b6000813590506129748161294e565b92915050565b6000602082840312156129905761298f6127c4565b5b600061299e84828501612965565b91505092915050565b600073ffffffffffffffffffffffffffffffffffffffff82169050919050565b60006129d2826129a7565b9050919050565b6129e2816129c7565b82525050565b60006020820190506129fd60008301846129d9565b92915050565b612a0c816129c7565b8114612a1757600080fd5b50565b600081359050612a2981612a03565b92915050565b60008060408385031215612a4657612a456127c4565b5b6000612a5485828601612a1a565b9250506020612a6585828601612965565b9150509250929050565b600080600060608486031215612a8857612a876127c4565b5b6000612a9686828701612a1a565b9350506020612aa786828701612a1a565b9250506040612ab886828701612965565b9150509250925092565b6000819050919050565b612ad581612ac2565b8114612ae057600080fd5b50565b600081359050612af281612acc565b92915050565b600080fd5b600080fd5b7f4e487b7100000000000000000000000000000000000000000000000000000000600052604160045260246000fd5b612b3a826128d8565b810181811067ffffffffffffffff82111715612b5957612b58612b02565b5b80604052505050565b6000612b6c6127ba565b9050612b788282612b31565b919050565b600067ffffffffffffffff821115612b9857612b97612b02565b5b612ba1826128d8565b9050602081019050919050565b82818337600083830152505050565b6000612bd0612bcb84612b7d565b612b62565b905082815260208101848484011115612bec57612beb612afd565b5b612bf7848285612bae565b509392505050565b600082601f830112612c1457612c13612af8565b5b8135612c24848260208601612bbd565b91505092915050565b600067ffffffffffffffff821115612c4857612c47612b02565b5b612c51826128d8565b9050602081019050919050565b6000612c71612c6c84612c2d565b612b62565b905082815260208101848484011115612c8d57612c8c612afd565b5b612c98848285612bae565b509392505050565b600082601f830112612cb557612cb4612af8565b5b8135612cc5848260208601612c5e565b91505092915050565b60008060008060008060008060008060006101608c8e031215612cf457612cf36127c4565b5b6000612d028e828f01612a1a565b9b50506020612d138e828f01612965565b9a50506040612d248e828f01612ae3565b99505060608c013567ffffffffffffffff811115612d4557612d446127c9565b5b612d518e828f01612bff565b98505060808c013567ffffffffffffffff811115612d7257612d716127c9565b5b612d7e8e828f01612ca0565b97505060a08c013567ffffffffffffffff811115612d9f57612d9e6127c9565b5b612dab8e828f01612ca0565b96505060c08c013567ffffffffffffffff811115612dcc57612dcb6127c9565b5b612dd88e828f01612ca0565b95505060e08c013567ffffffffffffffff811115612df957612df86127c9565b5b612e058e828f01612ca0565b9450506101008c013567ffffffffffffffff811115612e2757612e266127c9565b5b612e338e828f01612ca0565b9350506101208c013567ffffffffffffffff811115612e5557612e546127c9565b5b612e618e828f01612ca0565b9250506101408c013567ffffffffffffffff811115612e8357612e826127c9565b5b612e8f8e828f01612ca0565b9150509295989b509295989b9093969950565b600060208284031215612eb857612eb76127c4565b5b6000612ec684828501612a1a565b91505092915050565b612ed881612944565b82525050565b6000602082019050612ef36000830184612ecf565b92915050565b6000612f04826129a7565b9050919050565b612f1481612ef9565b8114612f1f57600080fd5b50565b600081359050612f3181612f0b565b92915050565b600060208284031215612f4d57612f4c6127c4565b5b6000612f5b84828501612f22565b91505092915050565b612f6d81612853565b8114612f7857600080fd5b50565b600081359050612f8a81612f64565b92915050565b60008060408385031215612fa757612fa66127c4565b5b6000612fb585828601612a1a565b9250506020612fc685828601612f7b565b9150509250929050565b60008060008060808587031215612fea57612fe96127c4565b5b6000612ff887828801612a1a565b945050602061300987828801612a1a565b935050604061301a87828801612965565b925050606085013567ffffffffffffffff81111561303b5761303a6127c9565b5b61304787828801612bff565b91505092959194509250565b6000819050919050565b600061307861307361306e846129a7565b613053565b6129a7565b9050919050565b600061308a8261305d565b9050919050565b600061309c8261307f565b9050919050565b6130ac81613091565b82525050565b60006020820190506130c760008301846130a3565b92915050565b600080604083850312156130e4576130e36127c4565b5b60006130f285828601612a1a565b925050602083013567ffffffffffffffff811115613113576131126127c9565b5b61311f85828601612ca0565b9150509250929050565b600080604083850312156131405761313f6127c4565b5b600061314e85828601612a1a565b925050602061315f85828601612a1a565b9150509250929050565b60006131748261307f565b9050919050565b61318481613169565b82525050565b600060208201905061319f600083018461317b565b92915050565b7f4e487b7100000000000000000000000000000000000000000000000000000000600052602260045260246000fd5b600060028204905060018216806131ec57607f821691505b60208210811415613200576131ff6131a5565b5b50919050565b7f4552433732313a20617070726f76656420717565727920666f72206e6f6e657860008201527f697374656e7420746f6b656e0000000000000000000000000000000000000000602082015250565b6000613262602c83612894565b915061326d82613206565b604082019050919050565b6000602082019050818103600083015261329181613255565b9050919050565b7f4552433732313a20617070726f76616c20746f2063757272656e74206f776e6560008201527f7200000000000000000000000000000000000000000000000000000000000000602082015250565b60006132f4602183612894565b91506132ff82613298565b604082019050919050565b60006020820190508181036000830152613323816132e7565b9050919050565b7f4552433732313a20617070726f76652063616c6c6572206973206e6f74206f7760008201527f6e6572206e6f7220617070726f76656420666f7220616c6c0000000000000000602082015250565b6000613386603883612894565b91506133918261332a565b604082019050919050565b600060208201905081810360008301526133b581613379565b9050919050565b7f4552433732313a207472616e736665722063616c6c6572206973206e6f74206f60008201527f776e6572206e6f7220617070726f766564000000000000000000000000000000602082015250565b6000613418603183612894565b9150613423826133bc565b604082019050919050565b600060208201905081810360008301526134478161340b565b9050919050565b7f4f776e61626c653a2063616c6c6572206973206e6f7420746865206f776e6572600082015250565b6000613484602083612894565b915061348f8261344e565b602082019050919050565b600060208201905081810360008301526134b381613477565b9050919050565b7f4552433732314275726e61626c653a2063616c6c6572206973206e6f74206f7760008201527f6e6572206e6f7220617070726f76656400000000000000000000000000000000602082015250565b6000613516603083612894565b9150613521826134ba565b604082019050919050565b6000602082019050818103600083015261354581613509565b9050919050565b7f4e487b7100000000000000000000000000000000000000000000000000000000600052601160045260246000fd5b600061358682612944565b915061359183612944565b9250827fffffffffffffffffffffffffffffffffffffffffffffffffffffffffffffffff038211156135c6576135c561354c565b5b828201905092915050565b6135da81612ac2565b82525050565b600081519050919050565b600082825260208201905092915050565b6000613607826135e0565b61361181856135eb565b93506136218185602086016128a5565b61362a816128d8565b840191505092915050565b600060c08201905061364a60008301896129d9565b61365760208301886129d9565b61366460408301876135d1565b6136716060830186612ecf565b61367e6080830185612ecf565b81810360a083015261369081846135fc565b9050979650505050505050565b6000815190506136ac81612f64565b92915050565b6000602082840312156136c8576136c76127c4565b5b60006136d68482850161369d565b91505092915050565b6000610100820190506136f5600083018b6129d9565b8181036020830152613707818a6128e9565b9050818103604083015261371b81896128e9565b9050818103606083015261372f81886128e9565b9050818103608083015261374381876128e9565b905081810360a083015261375781866128e9565b905081810360c083015261376b81856128e9565b905081810360e083015261377f81846128e9565b90509998505050505050505050565b7f4552433732313a206f776e657220717565727920666f72206e6f6e657869737460008201527f656e7420746f6b656e0000000000000000000000000000000000000000000000602082015250565b60006137ea602983612894565b91506137f58261378e565b604082019050919050565b60006020820190508181036000830152613819816137dd565b9050919050565b7f4552433732313a2062616c616e636520717565727920666f7220746865207a6560008201527f726f206164647265737300000000000000000000000000000000000000000000602082015250565b600061387c602a83612894565b915061388782613820565b604082019050919050565b600060208201905081810360008301526138ab8161386f565b9050919050565b6000815190506138c18161294e565b92915050565b6000602082840312156138dd576138dc6127c4565b5b60006138eb848285016138b2565b91505092915050565b60006138ff8261307f565b9050919050565b61390f816138f4565b82525050565b600060408201905061392a6000830185613906565b6139376020830184612ecf565b9392505050565b7f5844563a205472616e73666572206661696c6564000000000000000000000000600082015250565b6000613974601483612894565b915061397f8261393e565b602082019050919050565b600060208201905081810360008301526139a381613967565b9050919050565b7f4552433732313a20617070726f766520746f2063616c6c657200000000000000600082015250565b60006139e0601983612894565b91506139eb826139aa565b602082019050919050565b60006020820190508181036000830152613a0f816139d3565b9050919050565b7f4f776e61626c653a206e6577206f776e657220697320746865207a65726f206160008201527f6464726573730000000000000000000000000000000000000000000000000000602082015250565b6000613a72602683612894565b9150613a7d82613a16565b604082019050919050565b60006020820190508181036000830152613aa181613a65565b9050919050565b7f4552433732313a206f70657261746f7220717565727920666f72206e6f6e657860008201527f697374656e7420746f6b656e0000000000000000000000000000000000000000602082015250565b6000613b04602c83612894565b9150613b0f82613aa8565b604082019050919050565b60006020820190508181036000830152613b3381613af7565b9050919050565b7f4552433732313a207472616e73666572206f6620746f6b656e2074686174206960008201527f73206e6f74206f776e0000000000000000000000000000000000000000000000602082015250565b6000613b96602983612894565b9150613ba182613b3a565b604082019050919050565b60006020820190508181036000830152613bc581613b89565b9050919050565b7f4552433732313a207472616e7366657220746f20746865207a65726f2061646460008201527f7265737300000000000000000000000000000000000000000000000000000000602082015250565b6000613c28602483612894565b9150613c3382613bcc565b604082019050919050565b60006020820190508181036000830152613c5781613c1b565b9050919050565b6000613c6982612944565b9150613c7483612944565b925082821015613c8757613c8661354c565b5b828203905092915050565b7f4552433732313a207472616e7366657220746f206e6f6e20455243373231526560008201527f63656976657220696d706c656d656e7465720000000000000000000000000000602082015250565b6000613cee603283612894565b9150613cf982613c92565b604082019050919050565b60006020820190508181036000830152613d1d81613ce1565b9050919050565b7f45524337323155524953746f726167653a2055524920717565727920666f722060008201527f6e6f6e6578697374656e7420746f6b656e000000000000000000000000000000602082015250565b6000613d80603183612894565b9150613d8b82613d24565b604082019050919050565b60006020820190508181036000830152613daf81613d73565b9050919050565b600081905092915050565b6000613dcc82612889565b613dd68185613db6565b9350613de68185602086016128a5565b80840191505092915050565b6000613dfe8285613dc1565b9150613e0a8284613dc1565b91508190509392505050565b7f45524337323155524953746f726167653a2055524920736574206f66206e6f6e60008201527f6578697374656e7420746f6b656e000000000000000000000000000000000000602082015250565b6000613e72602e83612894565b9150613e7d82613e16565b604082019050919050565b60006020820190508181036000830152613ea181613e65565b9050919050565b7f5844563a20546f6b656e20657865637574696f6e206973207061757365640000600082015250565b6000613ede601e83612894565b9150613ee982613ea8565b602082019050919050565b60006020820190508181036000830152613f0d81613ed1565b9050919050565b6000608082019050613f2960008301876129d9565b613f3660208301866129d9565b613f436040830185612ecf565b8181036060830152613f5581846135fc565b905095945050505050565b600081519050613f6f816127fa565b92915050565b600060208284031215613f8b57613f8a6127c4565b5b6000613f9984828501613f60565b91505092915050565b7f4552433732314d657461646174613a2055524920717565727920666f72206e6f60008201527f6e6578697374656e7420746f6b656e0000000000000000000000000000000000602082015250565b6000613ffe602f83612894565b915061400982613fa2565b604082019050919050565b6000602082019050818103600083015261402d81613ff1565b9050919050565b600060608201905061404960008301866129d9565b61405660208301856129d9565b6140636040830184612ecf565b949350505050565b7f5844563a205472616e73666572206661696c656420666f72207265636970696560008201527f6e74000000000000000000000000000000000000000000000000000000000000602082015250565b60006140c7602283612894565b91506140d28261406b565b604082019050919050565b600060208201905081810360008301526140f6816140ba565b9050919050565b60006040820190506141126000830185612ecf565b61411f6020830184612ecf565b9392505050565b7f4552433732315061757361626c653a20746f6b656e207472616e73666572207760008201527f68696c6520706175736564000000000000000000000000000000000000000000602082015250565b6000614182602b83612894565b915061418d82614126565b604082019050919050565b600060208201905081810360008301526141b181614175565b9050919050565b60006141c382612944565b91507fffffffffffffffffffffffffffffffffffffffffffffffffffffffffffffffff8214156141f6576141f561354c565b5b600182019050919050565b7f4e487b7100000000000000000000000000000000000000000000000000000000600052601260045260246000fd5b600061423b82612944565b915061424683612944565b92508261425657614255614201565b5b828204905092915050565b600061426c82612944565b915061427783612944565b92508261428757614286614201565b5b828206905092915050565b7f4e487b7100000000000000000000000000000000000000000000000000000000600052603260045260246000fd5b7f4552433732313a206d696e7420746f20746865207a65726f2061646472657373600082015250565b60006142f7602083612894565b9150614302826142c1565b602082019050919050565b60006020820190508181036000830152614326816142ea565b9050919050565b7f4552433732313a20746f6b656e20616c7265616479206d696e74656400000000600082015250565b6000614363601c83612894565b915061436e8261432d565b602082019050919050565b6000602082019050818103600083015261439281614356565b905091905056fea2646970667358221220c199403f43a3578fc5dac64ca15e43f8a9cd6bf5a8e080fd998fa18bb7b19cd864736f6c63430008090033",
  "immutableReferences": {},
  "source": "// SPDX-License-Identifier: MIT\npragma solidity ^0.8.0;\n\nimport \"@openzeppelin/contracts/access/Ownable.sol\";\nimport \"@openzeppelin/contracts/token/ERC20/IERC20.sol\";\nimport \"@openzeppelin/contracts/token/ERC721/ERC721.sol\";\nimport \"@openzeppelin/contracts/token/ERC721/extensions/ERC721Burnable.sol\";\nimport \"@openzeppelin/contracts/token/ERC721/extensions/ERC721Pausable.sol\";\nimport \"@openzeppelin/contracts/token/ERC721/extensions/ERC721URIStorage.sol\";\nimport \"@openzeppelin/contracts/utils/Counters.sol\";\nimport \"./ICredentialRegistry.sol\";\n\n//  a NFT secure document \ncontract XDVNFT is ERC721Burnable, ERC721Pausable, ERC721URIStorage, Ownable {\n    using Counters for Counters.Counter;\n    Counters.Counter private _tokenIds;\n    IERC20 public stablecoin;\n    ICredentialRegistry public credentialRegistry;\n    uint256 public serviceFeeForPaymentAddress = 0;\n    uint256 public serviceFeeForContract = 0;\n\n    event Withdrawn(address indexed paymentAddress, uint256 amount);\n    // Ancon EVM Hook\n\tevent _anconCreateMetadata(\n\taddress owner,\n\tstring did,\n\tstring name,\n\tstring description,\n\tstring image,\n\tstring parent,\n\tstring  sources,\n\tstring  links);\n\n    event ServiceFeePaid(\n        address indexed from,\n        uint256 paidToContract,\n        uint256 paidToPaymentAddress\n    );\n\n    /**\n     * XDVNFT Data Token\n     */\n    constructor(\n        string memory name,\n        string memory symbol,\n        address tokenERC20,\n        address credentialAddr\n    ) ERC721(name, symbol) {\n        stablecoin = IERC20(tokenERC20);\n        credentialRegistry = ICredentialRegistry(credentialAddr);\n    }\n\n    function setServiceFeeForPaymentAddress(uint256 _fee) public onlyOwner {\n        serviceFeeForPaymentAddress = _fee;\n    }\n\n    function setServiceFeeForContract(uint256 _fee) public onlyOwner {\n        serviceFeeForContract = _fee;\n    }\n\n    /**\n     * @dev Mints a XDV Data Token\n     */\n    function mint(address user, string memory uri) public returns (uint256) {\n        _tokenIds.increment();\n\n        uint256 newItemId = _tokenIds.current();\n        _safeMint(user, newItemId);\n        _setTokenURI(newItemId, uri);\n\n        return newItemId;\n    }\n\n        // TODO: later lacchain vc eip1812\n    function swap(\n        address user, //owner\n        uint256 chainid,\n        bytes32 credentialHash,\n        bytes memory signature,\n        // MsgMetadata\n        string memory did,\n        string memory name,\n        string memory description,\n        string memory image,\n        string memory parent,\n        // JSON Encoded arrays\n        string memory  sources,\n        string memory  links\n    ) public returns (bool\n        // string memory did, \n        // string memory description, \n        // string memory image, \n        // string memory parent\n    ) {\n\t\n    // swap \n    // user\n    // chainid\n    // vc  lacchain\n    //  register(msg.sender, user, 1h, validfrom, data)\n    credentialRegistry.registerCredential(\n        msg.sender, \n        user, \n        credentialHash, \n        block.timestamp, \n        block.timestamp + 2 days , \n        signature);\n    // metadata(...)\n\n    //logs\n    // log := &ethtypes.Log{\n\t// \tAddress:     common.HexToAddress(\"0xecf8f87f810ecf450940c9f60066b4a7a501d6a7\"),\n\t// \tBlockHash:   common.HexToHash(\"0x656c34545f90a730a19008c0e7a7cd4fb3895064b48d6d69761bd5abad681056\"),\n\t// \tBlockNumber: 2019236,\n\t// \tData:        pck,\n\t// \tIndex:       2,\n\t// \tTxIndex:     3,\n\t// \tTxHash:      common.HexToHash(\"0x3b198bfd5d2907285af009e9ae84a0ecd63677110d89d7e030251acb87f6487e\"),\n\t// \tTopics: []common.Hash{\n\t// \t\tevm_hook_abi.Events[\"_anconCreateMetadata\"].ID,\n\t// \t},\n\t// }\n\n        emit _anconCreateMetadata(user,\n            did,\n            name,\n            description,\n            image,\n            parent,\n            sources,\n            links\n        );\n\n        return true;\n\n    }\n    // supportWith\n\n    /**\n     * @dev Just overrides the superclass' function. Fixes inheritance\n     * source: https://forum.openzeppelin.com/t/how-do-inherit-from-erc721-erc721enumerable-and-erc721uristorage-in-v4-of-openzeppelin-contracts/6656/4\n     */\n    function _burn(uint256 tokenId)\n        internal\n        override(ERC721, ERC721URIStorage)\n    {\n        super._burn(tokenId);\n    }\n\n    /**\n     * @dev Just overrides the superclass' function. Fixes inheritance\n     * source: https://forum.openzeppelin.com/t/how-do-inherit-from-erc721-erc721enumerable-and-erc721uristorage-in-v4-of-openzeppelin-contracts/6656/4\n     */\n    function tokenURI(uint256 tokenId)\n        public\n        view\n        override(ERC721, ERC721URIStorage)\n        returns (string memory)\n    {\n        return super.tokenURI(tokenId);\n    }\n\n    function _beforeTokenTransfer(\n        address from,\n        address to,\n        uint256 tokenId\n    ) internal virtual override(ERC721, ERC721Pausable) {\n        require(!paused(), \"XDV: Token execution is paused\");\n\n        if (from == address(0)) {\n            paymentBeforeMint(msg.sender);\n        }\n\n        super._beforeTokenTransfer(from, to, tokenId);\n    }\n\n    /**\n     * @dev tries to execute the payment when the token is minted.\n     * Reverts if the payment procedure could not be completed.\n     */\n    function paymentBeforeMint(address tokenHolder) internal virtual {\n\n        // Transfer tokens to pay service fee\n        require(\n            stablecoin.transferFrom(\n                tokenHolder,\n                address(this),\n                serviceFeeForContract\n            ),\n            \"XDV: Transfer failed for recipient\"\n        );\n\n        emit ServiceFeePaid(\n            tokenHolder,\n            serviceFeeForContract,\n            serviceFeeForPaymentAddress\n        );\n    }\n\n    function withdrawBalance(address payable payee) public onlyOwner {\n        uint256 balance = stablecoin.balanceOf(address(this));\n\n        require(\n            stablecoin.transfer(payee, balance),\n            \"XDV: Transfer failed\"\n        );\n\n        emit Withdrawn(payee, balance);\n    }\n}\n",
  "sourcePath": "/home/dallant/Code/xdv-document-signer-contracts/contracts/XDVNFT.sol",
  "compiler": {
    "name": "solc",
    "version": "0.8.9+commit.e5eed63a.Emscripten.clang"
  },
  "schemaVersion": "3.4.1",
  "updatedAt": "2021-10-06T21:39:08.342Z",
  "networkType": "ethereum",
  "devdoc": {
    "kind": "dev",
    "methods": {
      "approve(address,uint256)": {
        "details": "See {IERC721-approve}."
      },
      "balanceOf(address)": {
        "details": "See {IERC721-balanceOf}."
      },
      "burn(uint256)": {
        "details": "Burns `tokenId`. See {ERC721-_burn}. Requirements: - The caller must own `tokenId` or be an approved operator."
      },
      "getApproved(uint256)": {
        "details": "See {IERC721-getApproved}."
      },
      "isApprovedForAll(address,address)": {
        "details": "See {IERC721-isApprovedForAll}."
      },
      "mint(address,string)": {
        "details": "Mints a XDV Data Token"
      },
      "name()": {
        "details": "See {IERC721Metadata-name}."
      },
      "owner()": {
        "details": "Returns the address of the current owner."
      },
      "ownerOf(uint256)": {
        "details": "See {IERC721-ownerOf}."
      },
      "paused()": {
        "details": "Returns true if the contract is paused, and false otherwise."
      },
      "renounceOwnership()": {
        "details": "Leaves the contract without owner. It will not be possible to call `onlyOwner` functions anymore. Can only be called by the current owner. NOTE: Renouncing ownership will leave the contract without an owner, thereby removing any functionality that is only available to the owner."
      },
      "safeTransferFrom(address,address,uint256)": {
        "details": "See {IERC721-safeTransferFrom}."
      },
      "safeTransferFrom(address,address,uint256,bytes)": {
        "details": "See {IERC721-safeTransferFrom}."
      },
      "setApprovalForAll(address,bool)": {
        "details": "See {IERC721-setApprovalForAll}."
      },
      "supportsInterface(bytes4)": {
        "details": "See {IERC165-supportsInterface}."
      },
      "symbol()": {
        "details": "See {IERC721Metadata-symbol}."
      },
      "tokenURI(uint256)": {
        "details": "Just overrides the superclass' function. Fixes inheritance source: https://forum.openzeppelin.com/t/how-do-inherit-from-erc721-erc721enumerable-and-erc721uristorage-in-v4-of-openzeppelin-contracts/6656/4"
      },
      "transferFrom(address,address,uint256)": {
        "details": "See {IERC721-transferFrom}."
      },
      "transferOwnership(address)": {
        "details": "Transfers ownership of the contract to a new account (`newOwner`). Can only be called by the current owner."
      }
    },
    "version": 1
  },
  "userdoc": {
    "kind": "user",
    "methods": {
      "constructor": {
        "notice": "XDVNFT Data Token"
      }
    },
    "version": 1
  }
}